{
  "_format": "hh-sol-artifact-1",
  "contractName": "InsurancePool",
  "sourceName": "src/InsurancePool.sol",
  "abi": [
    {
      "inputs": [
        {
          "internalType": "address",
          "name": "_usdt",
          "type": "address"
        },
        {
          "internalType": "address",
          "name": "_tft",
          "type": "address"
        },
        {
          "internalType": "address",
          "name": "_predictionMarket",
          "type": "address"
        }
      ],
      "stateMutability": "nonpayable",
      "type": "constructor"
    },
    {
      "inputs": [
        {
          "internalType": "address",
          "name": "owner",
          "type": "address"
        }
      ],
      "name": "OwnableInvalidOwner",
      "type": "error"
    },
    {
      "inputs": [
        {
          "internalType": "address",
          "name": "account",
          "type": "address"
        }
      ],
      "name": "OwnableUnauthorizedAccount",
      "type": "error"
    },
    {
      "inputs": [],
      "name": "ReentrancyGuardReentrantCall",
      "type": "error"
    },
    {
      "inputs": [
        {
          "internalType": "address",
          "name": "token",
          "type": "address"
        }
      ],
      "name": "SafeERC20FailedOperation",
      "type": "error"
    },
    {
      "anonymous": false,
      "inputs": [
        {
          "indexed": true,
          "internalType": "address",
          "name": "user",
          "type": "address"
        },
        {
          "indexed": false,
          "internalType": "uint256",
          "name": "tftAmount",
          "type": "uint256"
        },
        {
          "indexed": false,
          "internalType": "uint256",
          "name": "usdtValue",
          "type": "uint256"
        }
      ],
      "name": "InsuranceClaimed",
      "type": "event"
    },
    {
      "anonymous": false,
      "inputs": [
        {
          "indexed": true,
          "internalType": "address",
          "name": "user",
          "type": "address"
        },
        {
          "indexed": false,
          "internalType": "uint256",
          "name": "tftAmount",
          "type": "uint256"
        },
        {
          "indexed": false,
          "internalType": "uint256",
          "name": "usdtValue",
          "type": "uint256"
        }
      ],
      "name": "InsurancePaidToUser",
      "type": "event"
    },
    {
      "anonymous": false,
      "inputs": [
        {
          "indexed": true,
          "internalType": "address",
          "name": "previousOwner",
          "type": "address"
        },
        {
          "indexed": true,
          "internalType": "address",
          "name": "newOwner",
          "type": "address"
        }
      ],
      "name": "OwnershipTransferred",
      "type": "event"
    },
    {
      "anonymous": false,
      "inputs": [
        {
          "indexed": false,
          "internalType": "address",
          "name": "market",
          "type": "address"
        }
      ],
      "name": "PredictionMarketUpdated",
      "type": "event"
    },
    {
      "anonymous": false,
      "inputs": [
        {
          "indexed": false,
          "internalType": "uint256",
          "name": "roundId",
          "type": "uint256"
        }
      ],
      "name": "RoundInsuranceReset",
      "type": "event"
    },
    {
      "anonymous": false,
      "inputs": [
        {
          "indexed": false,
          "internalType": "uint256",
          "name": "usdtAmount",
          "type": "uint256"
        },
        {
          "indexed": false,
          "internalType": "uint256",
          "name": "tftAmount",
          "type": "uint256"
        },
        {
          "indexed": false,
          "internalType": "uint256",
          "name": "price",
          "type": "uint256"
        }
      ],
      "name": "TFTBought",
      "type": "event"
    },
    {
      "anonymous": false,
      "inputs": [
        {
          "indexed": false,
          "internalType": "uint256",
          "name": "newPrice",
          "type": "uint256"
        }
      ],
      "name": "TFTPriceUpdated",
      "type": "event"
    },
    {
      "anonymous": false,
      "inputs": [
        {
          "indexed": true,
          "internalType": "address",
          "name": "from",
          "type": "address"
        },
        {
          "indexed": false,
          "internalType": "uint256",
          "name": "amount",
          "type": "uint256"
        }
      ],
      "name": "USDTDeposited",
      "type": "event"
    },
    {
      "inputs": [
        {
          "internalType": "uint256",
          "name": "_usdtAmount",
          "type": "uint256"
        }
      ],
      "name": "buyTFT",
      "outputs": [],
      "stateMutability": "nonpayable",
      "type": "function"
    },
    {
      "inputs": [
        {
          "internalType": "uint256",
          "name": "_usdtAmount",
          "type": "uint256"
        }
      ],
      "name": "calculateTFTForUSDT",
      "outputs": [
        {
          "internalType": "uint256",
          "name": "",
          "type": "uint256"
        }
      ],
      "stateMutability": "view",
      "type": "function"
    },
    {
      "inputs": [
        {
          "internalType": "uint256",
          "name": "_tftAmount",
          "type": "uint256"
        }
      ],
      "name": "calculateUSDTForTFT",
      "outputs": [
        {
          "internalType": "uint256",
          "name": "",
          "type": "uint256"
        }
      ],
      "stateMutability": "view",
      "type": "function"
    },
    {
      "inputs": [
        {
          "internalType": "uint256",
          "name": "_usdtValue",
          "type": "uint256"
        }
      ],
      "name": "claimInsurance",
      "outputs": [],
      "stateMutability": "nonpayable",
      "type": "function"
    },
    {
      "inputs": [],
      "name": "currentRoundInsurance",
      "outputs": [
        {
          "internalType": "uint256",
          "name": "",
          "type": "uint256"
        }
      ],
      "stateMutability": "view",
      "type": "function"
    },
    {
      "inputs": [
        {
          "internalType": "uint256",
          "name": "_amount",
          "type": "uint256"
        }
      ],
      "name": "deposit",
      "outputs": [],
      "stateMutability": "nonpayable",
      "type": "function"
    },
    {
      "inputs": [
        {
          "internalType": "uint256",
          "name": "_amount",
          "type": "uint256"
        }
      ],
      "name": "depositTFT",
      "outputs": [],
      "stateMutability": "nonpayable",
      "type": "function"
    },
    {
      "inputs": [],
      "name": "getPoolStats",
      "outputs": [
        {
          "internalType": "uint256",
          "name": "usdtBalance",
          "type": "uint256"
        },
        {
          "internalType": "uint256",
          "name": "tftBalance",
          "type": "uint256"
        },
        {
          "internalType": "uint256",
          "name": "totalDeposited",
          "type": "uint256"
        },
        {
          "internalType": "uint256",
          "name": "totalBought",
          "type": "uint256"
        },
        {
          "internalType": "uint256",
          "name": "totalDistributed",
          "type": "uint256"
        },
        {
          "internalType": "uint256",
          "name": "currentRound",
          "type": "uint256"
        }
      ],
      "stateMutability": "view",
      "type": "function"
    },
    {
      "inputs": [
        {
          "internalType": "uint256",
          "name": "_amount",
          "type": "uint256"
        }
      ],
      "name": "notifyDeposit",
      "outputs": [],
      "stateMutability": "nonpayable",
      "type": "function"
    },
    {
      "inputs": [],
      "name": "owner",
      "outputs": [
        {
          "internalType": "address",
          "name": "",
          "type": "address"
        }
      ],
      "stateMutability": "view",
      "type": "function"
    },
    {
      "inputs": [
        {
          "internalType": "address",
          "name": "_user",
          "type": "address"
        },
        {
          "internalType": "uint256",
          "name": "_usdtValue",
          "type": "uint256"
        }
      ],
      "name": "payInsuranceToUser",
      "outputs": [],
      "stateMutability": "nonpayable",
      "type": "function"
    },
    {
      "inputs": [],
      "name": "predictionMarket",
      "outputs": [
        {
          "internalType": "address",
          "name": "",
          "type": "address"
        }
      ],
      "stateMutability": "view",
      "type": "function"
    },
    {
      "inputs": [
        {
          "internalType": "address",
          "name": "token",
          "type": "address"
        },
        {
          "internalType": "uint256",
          "name": "amount",
          "type": "uint256"
        }
      ],
      "name": "recoverTokens",
      "outputs": [],
      "stateMutability": "nonpayable",
      "type": "function"
    },
    {
      "inputs": [],
      "name": "renounceOwnership",
      "outputs": [],
      "stateMutability": "nonpayable",
      "type": "function"
    },
    {
      "inputs": [],
      "name": "resetRoundInsurance",
      "outputs": [],
      "stateMutability": "nonpayable",
      "type": "function"
    },
    {
      "inputs": [
        {
          "internalType": "address",
          "name": "_market",
          "type": "address"
        }
      ],
      "name": "setPredictionMarket",
      "outputs": [],
      "stateMutability": "nonpayable",
      "type": "function"
    },
    {
      "inputs": [
        {
          "internalType": "uint256",
          "name": "_newPrice",
          "type": "uint256"
        }
      ],
      "name": "setTFTPrice",
      "outputs": [],
      "stateMutability": "nonpayable",
      "type": "function"
    },
    {
      "inputs": [],
      "name": "tft",
      "outputs": [
        {
          "internalType": "contract IERC20",
          "name": "",
          "type": "address"
        }
      ],
      "stateMutability": "view",
      "type": "function"
    },
    {
      "inputs": [],
      "name": "tftPrice",
      "outputs": [
        {
          "internalType": "uint256",
          "name": "",
          "type": "uint256"
        }
      ],
      "stateMutability": "view",
      "type": "function"
    },
    {
      "inputs": [],
      "name": "totalTFTBought",
      "outputs": [
        {
          "internalType": "uint256",
          "name": "",
          "type": "uint256"
        }
      ],
      "stateMutability": "view",
      "type": "function"
    },
    {
      "inputs": [],
      "name": "totalTFTDistributed",
      "outputs": [
        {
          "internalType": "uint256",
          "name": "",
          "type": "uint256"
        }
      ],
      "stateMutability": "view",
      "type": "function"
    },
    {
      "inputs": [],
      "name": "totalUSDTDeposited",
      "outputs": [
        {
          "internalType": "uint256",
          "name": "",
          "type": "uint256"
        }
      ],
      "stateMutability": "view",
      "type": "function"
    },
    {
      "inputs": [],
      "name": "totalUSDTDistributed",
      "outputs": [
        {
          "internalType": "uint256",
          "name": "",
          "type": "uint256"
        }
      ],
      "stateMutability": "view",
      "type": "function"
    },
    {
      "inputs": [
        {
          "internalType": "address",
          "name": "newOwner",
          "type": "address"
        }
      ],
      "name": "transferOwnership",
      "outputs": [],
      "stateMutability": "nonpayable",
      "type": "function"
    },
    {
      "inputs": [],
      "name": "usdt",
      "outputs": [
        {
          "internalType": "contract IERC20",
          "name": "",
          "type": "address"
        }
      ],
      "stateMutability": "view",
      "type": "function"
    },
    {
      "inputs": [
        {
          "internalType": "address",
          "name": "",
          "type": "address"
        }
      ],
      "name": "userClaims",
      "outputs": [
        {
          "internalType": "uint256",
          "name": "",
          "type": "uint256"
        }
      ],
      "stateMutability": "view",
      "type": "function"
    }
  ],
  "bytecode": "0x60c0604052620f42406002553480156200001857600080fd5b50604051620017ae380380620017ae8339810160408190526200003b9162000205565b33806200006357604051631e4fbdf760e01b8152600060048201526024015b60405180910390fd5b6200006e8162000198565b5060017f9b779b17422d0df92223018b32b4d1fa46e071723d6817e2486d003becc55f00556001600160a01b038316620000da5760405162461bcd60e51b815260206004820152600c60248201526b125b9d985b1a59081554d11560a21b60448201526064016200005a565b6001600160a01b038216620001205760405162461bcd60e51b815260206004820152600b60248201526a125b9d985b1a590815119560aa1b60448201526064016200005a565b6001600160a01b038116620001695760405162461bcd60e51b815260206004820152600e60248201526d125b9d985b1a59081b585c9ad95d60921b60448201526064016200005a565b6001600160a01b0392831660805290821660a052600180546001600160a01b031916919092161790556200024f565b600080546001600160a01b038381166001600160a01b0319831681178455604051919092169283917f8be0079c531659141344cd1fd0a4f28419497f9722a3daafe3b4186f6b6457e09190a35050565b80516001600160a01b03811681146200020057600080fd5b919050565b6000806000606084860312156200021b57600080fd5b6200022684620001e8565b92506200023660208501620001e8565b91506200024660408501620001e8565b90509250925092565b60805160a0516114f3620002bb60003960008181610265015281816106730152818161098501528181610b0901528181610bfd01528181610e2d01528181610f7501526110600152600081816101dc0152818161056a01528181610cdf0152610dad01526114f36000f3fe608060405234801561001057600080fd5b506004361061018e5760003560e01c80638189af52116100de578063b6b55f2511610097578063f0a3563c11610071578063f0a3563c14610362578063f2fde38b14610382578063f85920d814610395578063fb86df87146103a857600080fd5b8063b6b55f2514610307578063bbb851881461031a578063def114b61461034f57600080fd5b80638189af52146102a15780638da5cb5b146102aa578063961eab82146102bb5780639690835c146102ce578063975aac22146102e1578063ae5c02d2146102f457600080fd5b80633b39d5471161014b5780635fbd83f4116101255780635fbd83f414610260578063619fd3bf146102875780636802895414610290578063715018a61461029957600080fd5b80633b39d547146102325780634665f55b146102455780635949a8f71461024d57600080fd5b806303b88ba21461019357806304e378bb146101a8578063069c9fae146101c45780632f48ab7d146101d75780632fb4e5611461021657806334a0cecc1461021f575b600080fd5b6101a66101a1366004611308565b6103b1565b005b6101b160025481565b6040519081526020015b60405180910390f35b6101a66101d236600461132a565b61045a565b6101fe7f000000000000000000000000000000000000000000000000000000000000000081565b6040516001600160a01b0390911681526020016101bb565b6101b160045481565b6101a661022d366004611354565b610545565b6101a6610240366004611354565b610771565b6101a66107f2565b6101a661025b366004611354565b610823565b6101fe7f000000000000000000000000000000000000000000000000000000000000000081565b6101b160055481565b6101b160075481565b6101a66108d5565b6101b160065481565b6000546001600160a01b03166101fe565b6101b16102c9366004611354565b6108e9565b6101b16102dc366004611354565b610921565b6101a66102ef366004611354565b610948565b6101a661030236600461132a565b610a1f565b6101a6610315366004611354565b610c80565b610322610d83565b604080519687526020870195909552938501929092526060840152608083015260a082015260c0016101bb565b6001546101fe906001600160a01b031681565b6101b1610370366004611308565b60086020526000908152604090205481565b6101a6610390366004611308565b610ebf565b6101a66103a3366004611354565b610efa565b6101b160035481565b6103b96110da565b6001600160a01b0381166104055760405162461bcd60e51b815260206004820152600e60248201526d125b9d985b1a59081b585c9ad95d60921b60448201526064015b60405180910390fd5b600180546001600160a01b0319166001600160a01b0383169081179091556040519081527f5611a86704fbad5eab1e775a83d66df76b0139faa47f12264817ad6b9eac702c906020015b60405180910390a150565b6104626110da565b6001600160a01b0382166104af57600080546040516001600160a01b03909116914780156108fc02929091818181858888f193505050501580156104aa573d6000803e3d6000fd5b505050565b816001600160a01b031663a9059cbb6104d06000546001600160a01b031690565b6040516001600160e01b031960e084901b1681526001600160a01b039091166004820152602481018490526044016020604051808303816000875af115801561051d573d6000803e3d6000fd5b505050506040513d601f19601f820116820180604052508101906104aa919061136d565b5050565b61054d6110da565b610555611107565b6040516370a0823160e01b81523060048201527f00000000000000000000000000000000000000000000000000000000000000006001600160a01b0316906370a0823190602401602060405180830381865afa1580156105b9573d6000803e3d6000fd5b505050506040513d601f19601f820116820180604052508101906105dd919061138f565b8111156106205760405162461bcd60e51b8152602060048201526011602482015270125b9cdd59999a58da595b9d081554d115607a1b60448201526064016103fc565b60006002546402540be40061063591906113be565b61064783670de0b6b3a76400006113be565b61065191906113d5565b6040516370a0823160e01b815230600482015290915081906001600160a01b037f000000000000000000000000000000000000000000000000000000000000000016906370a0823190602401602060405180830381865afa1580156106ba573d6000803e3d6000fd5b505050506040513d601f19601f820116820180604052508101906106de919061138f565b10156106fc5760405162461bcd60e51b81526004016103fc906113f7565b806004600082825461070e919061142e565b9091555050600254604080518481526020810184905280820192909252517f32aeece23096113735e178e5e81d623dcbfb7eae6feec95c1057b3c8c7d360339181900360600190a15061076e600160008051602061149e83398151915255565b50565b6107796110da565b600081116107bd5760405162461bcd60e51b815260206004820152601160248201527005072696365206d757374206265203e203607c1b60448201526064016103fc565b60028190556040518181527f87156e231bfbfc49c5c5419a1a2298d225c133522194f86e33345add7e1e299c9060200161044f565b6001546001600160a01b0316331461081c5760405162461bcd60e51b81526004016103fc90611441565b6000600755565b6001546001600160a01b0316331461084d5760405162461bcd60e51b81526004016103fc90611441565b6000811161086d5760405162461bcd60e51b81526004016103fc90611471565b806003600082825461087f919061142e565b925050819055508060076000828254610898919061142e565b909155505060405181815233907f256d3f498207df9ab0f59ee9cc584fb4d2fe829f234f81a30a8b4c1c3949006d9060200160405180910390a250565b6108dd6110da565b6108e76000611123565b565b6000670de0b6b3a76400006002548361090291906113be565b610911906402540be4006113be565b61091b91906113d5565b92915050565b60006002546402540be40061093691906113be565b61091183670de0b6b3a76400006113be565b6109506110da565b610958611107565b600081116109785760405162461bcd60e51b81526004016103fc90611471565b6109ad6001600160a01b037f000000000000000000000000000000000000000000000000000000000000000016333084611173565b80600460008282546109bf919061142e565b909155505060025460408051600081526020810184905280820192909252517f32aeece23096113735e178e5e81d623dcbfb7eae6feec95c1057b3c8c7d360339181900360600190a161076e600160008051602061149e83398151915255565b6001546001600160a01b03163314610a495760405162461bcd60e51b81526004016103fc90611441565b610a51611107565b6001600160a01b038216610a965760405162461bcd60e51b815260206004820152600c60248201526b24b73b30b634b2103ab9b2b960a11b60448201526064016103fc565b60008111610ab65760405162461bcd60e51b81526004016103fc90611471565b60006002546402540be400610acb91906113be565b610add83670de0b6b3a76400006113be565b610ae791906113d5565b6040516370a0823160e01b815230600482015290915081906001600160a01b037f000000000000000000000000000000000000000000000000000000000000000016906370a0823190602401602060405180830381865afa158015610b50573d6000803e3d6000fd5b505050506040513d601f19601f82011682018060405250810190610b74919061138f565b1015610b925760405162461bcd60e51b81526004016103fc906113f7565b8060056000828254610ba4919061142e565b925050819055508160066000828254610bbd919061142e565b90915550506001600160a01b03831660009081526008602052604081208054839290610bea90849061142e565b90915550610c2490506001600160a01b037f00000000000000000000000000000000000000000000000000000000000000001684836111af565b60408051828152602081018490526001600160a01b038516917fa2414fa4ff52908fcc8c56696dae8360e7e919fc60b26464b42f21285bdbb6f9910160405180910390a250610541600160008051602061149e83398151915255565b6001546001600160a01b03163314610caa5760405162461bcd60e51b81526004016103fc90611441565b610cb2611107565b60008111610cd25760405162461bcd60e51b81526004016103fc90611471565b610d076001600160a01b037f000000000000000000000000000000000000000000000000000000000000000016333084611173565b8060036000828254610d19919061142e565b925050819055508060076000828254610d32919061142e565b909155505060405181815233907f256d3f498207df9ab0f59ee9cc584fb4d2fe829f234f81a30a8b4c1c3949006d9060200160405180910390a261076e600160008051602061149e83398151915255565b6040516370a0823160e01b8152306004820152600090819081908190819081906001600160a01b037f000000000000000000000000000000000000000000000000000000000000000016906370a0823190602401602060405180830381865afa158015610df4573d6000803e3d6000fd5b505050506040513d601f19601f82011682018060405250810190610e18919061138f565b6040516370a0823160e01b81523060048201527f00000000000000000000000000000000000000000000000000000000000000006001600160a01b0316906370a0823190602401602060405180830381865afa158015610e7c573d6000803e3d6000fd5b505050506040513d601f19601f82011682018060405250810190610ea0919061138f565b600354600454600554600754949b939a50919850965094509092509050565b610ec76110da565b6001600160a01b038116610ef157604051631e4fbdf760e01b8152600060048201526024016103fc565b61076e81611123565b610f02611107565b60008111610f225760405162461bcd60e51b81526004016103fc90611471565b60006002546402540be400610f3791906113be565b610f4983670de0b6b3a76400006113be565b610f5391906113d5565b6040516370a0823160e01b815230600482015290915081906001600160a01b037f000000000000000000000000000000000000000000000000000000000000000016906370a0823190602401602060405180830381865afa158015610fbc573d6000803e3d6000fd5b505050506040513d601f19601f82011682018060405250810190610fe0919061138f565b1015610ffe5760405162461bcd60e51b81526004016103fc906113f7565b8060056000828254611010919061142e565b925050819055508160066000828254611029919061142e565b9091555050336000908152600860205260408120805483929061104d90849061142e565b9091555061108790506001600160a01b037f00000000000000000000000000000000000000000000000000000000000000001633836111af565b604080518281526020810184905233917f7b888f90a214333304853413a491185da1e9ad36a083be01e27ceef133883a58910160405180910390a25061076e600160008051602061149e83398151915255565b6000546001600160a01b031633146108e75760405163118cdaa760e01b81523360048201526024016103fc565b61110f6111e4565b600260008051602061149e83398151915255565b600080546001600160a01b038381166001600160a01b0319831681178455604051919092169283917f8be0079c531659141344cd1fd0a4f28419497f9722a3daafe3b4186f6b6457e09190a35050565b611181848484846001611214565b6111a957604051635274afe760e01b81526001600160a01b03851660048201526024016103fc565b50505050565b6111bc8383836001611286565b6104aa57604051635274afe760e01b81526001600160a01b03841660048201526024016103fc565b60008051602061149e833981519152546002036108e757604051633ee5aeb560e01b815260040160405180910390fd5b6040516323b872dd60e01b60008181526001600160a01b038781166004528616602452604485905291602083606481808c5af192506001600051148316611274578383151615611267573d6000823e3d81fd5b6000883b113d1516831692505b60405250600060605295945050505050565b60405163a9059cbb60e01b60008181526001600160a01b038616600452602485905291602083604481808b5af1925060016000511483166112e05783831516156112d3573d6000823e3d81fd5b6000873b113d1516831692505b60405250949350505050565b80356001600160a01b038116811461130357600080fd5b919050565b60006020828403121561131a57600080fd5b611323826112ec565b9392505050565b6000806040838503121561133d57600080fd5b611346836112ec565b946020939093013593505050565b60006020828403121561136657600080fd5b5035919050565b60006020828403121561137f57600080fd5b8151801515811461132357600080fd5b6000602082840312156113a157600080fd5b5051919050565b634e487b7160e01b600052601160045260246000fd5b808202811582820484141761091b5761091b6113a8565b6000826113f257634e487b7160e01b600052601260045260246000fd5b500490565b60208082526018908201527f496e73756666696369656e742054465420696e20706f6f6c0000000000000000604082015260600190565b8082018082111561091b5761091b6113a8565b60208082526016908201527513db9b1e481c1c99591a58dd1a5bdb881b585c9ad95d60521b604082015260600190565b6020808252601290820152710416d6f756e74206d757374206265203e20360741b60408201526060019056fe9b779b17422d0df92223018b32b4d1fa46e071723d6817e2486d003becc55f00a26469706673582212209e69cd7884082d2a65bcbb634aaa44c7b33a17e795acd46a82132db5cc35873b64736f6c63430008180033",
  "linkReferences": {},
  "deployedLinkReferences": {}
}