{
  "_format": "hh-sol-artifact-1",
  "contractName": "InsurancePool",
  "sourceName": "src/InsurancePool.sol",
  "abi": [
    {
      "inputs": [
        {
          "internalType": "address",
          "name": "_usdt",
          "type": "address"
        },
        {
          "internalType": "address",
          "name": "_tft",
          "type": "address"
        },
        {
          "internalType": "address",
          "name": "_predictionMarket",
          "type": "address"
        }
      ],
      "stateMutability": "nonpayable",
      "type": "constructor"
    },
    {
      "inputs": [
        {
          "internalType": "address",
          "name": "owner",
          "type": "address"
        }
      ],
      "name": "OwnableInvalidOwner",
      "type": "error"
    },
    {
      "inputs": [
        {
          "internalType": "address",
          "name": "account",
          "type": "address"
        }
      ],
      "name": "OwnableUnauthorizedAccount",
      "type": "error"
    },
    {
      "inputs": [],
      "name": "ReentrancyGuardReentrantCall",
      "type": "error"
    },
    {
      "inputs": [
        {
          "internalType": "address",
          "name": "token",
          "type": "address"
        }
      ],
      "name": "SafeERC20FailedOperation",
      "type": "error"
    },
    {
      "anonymous": false,
      "inputs": [
        {
          "indexed": true,
          "internalType": "address",
          "name": "user",
          "type": "address"
        },
        {
          "indexed": false,
          "internalType": "uint256",
          "name": "tftAmount",
          "type": "uint256"
        },
        {
          "indexed": false,
          "internalType": "uint256",
          "name": "usdtValue",
          "type": "uint256"
        }
      ],
      "name": "InsuranceClaimed",
      "type": "event"
    },
    {
      "anonymous": false,
      "inputs": [
        {
          "indexed": true,
          "internalType": "address",
          "name": "previousOwner",
          "type": "address"
        },
        {
          "indexed": true,
          "internalType": "address",
          "name": "newOwner",
          "type": "address"
        }
      ],
      "name": "OwnershipTransferred",
      "type": "event"
    },
    {
      "anonymous": false,
      "inputs": [
        {
          "indexed": false,
          "internalType": "address",
          "name": "newMarket",
          "type": "address"
        }
      ],
      "name": "PredictionMarketUpdated",
      "type": "event"
    },
    {
      "anonymous": false,
      "inputs": [
        {
          "indexed": false,
          "internalType": "uint256",
          "name": "roundId",
          "type": "uint256"
        }
      ],
      "name": "RoundInsuranceReset",
      "type": "event"
    },
    {
      "anonymous": false,
      "inputs": [
        {
          "indexed": false,
          "internalType": "uint256",
          "name": "usdtAmount",
          "type": "uint256"
        },
        {
          "indexed": false,
          "internalType": "uint256",
          "name": "tftAmount",
          "type": "uint256"
        },
        {
          "indexed": false,
          "internalType": "uint256",
          "name": "price",
          "type": "uint256"
        }
      ],
      "name": "TFTBought",
      "type": "event"
    },
    {
      "anonymous": false,
      "inputs": [
        {
          "indexed": false,
          "internalType": "uint256",
          "name": "newPrice",
          "type": "uint256"
        }
      ],
      "name": "TFTPriceUpdated",
      "type": "event"
    },
    {
      "anonymous": false,
      "inputs": [
        {
          "indexed": true,
          "internalType": "address",
          "name": "from",
          "type": "address"
        },
        {
          "indexed": false,
          "internalType": "uint256",
          "name": "amount",
          "type": "uint256"
        }
      ],
      "name": "USDTDeposited",
      "type": "event"
    },
    {
      "inputs": [
        {
          "internalType": "uint256",
          "name": "_usdtAmount",
          "type": "uint256"
        }
      ],
      "name": "buyTFT",
      "outputs": [],
      "stateMutability": "nonpayable",
      "type": "function"
    },
    {
      "inputs": [
        {
          "internalType": "uint256",
          "name": "_usdtAmount",
          "type": "uint256"
        }
      ],
      "name": "calculateTFTForUSDT",
      "outputs": [
        {
          "internalType": "uint256",
          "name": "",
          "type": "uint256"
        }
      ],
      "stateMutability": "view",
      "type": "function"
    },
    {
      "inputs": [
        {
          "internalType": "uint256",
          "name": "_tftAmount",
          "type": "uint256"
        }
      ],
      "name": "calculateUSDTForTFT",
      "outputs": [
        {
          "internalType": "uint256",
          "name": "",
          "type": "uint256"
        }
      ],
      "stateMutability": "view",
      "type": "function"
    },
    {
      "inputs": [
        {
          "internalType": "uint256",
          "name": "_usdtValue",
          "type": "uint256"
        }
      ],
      "name": "claimInsurance",
      "outputs": [],
      "stateMutability": "nonpayable",
      "type": "function"
    },
    {
      "inputs": [],
      "name": "currentRoundInsurance",
      "outputs": [
        {
          "internalType": "uint256",
          "name": "",
          "type": "uint256"
        }
      ],
      "stateMutability": "view",
      "type": "function"
    },
    {
      "inputs": [
        {
          "internalType": "uint256",
          "name": "_amount",
          "type": "uint256"
        }
      ],
      "name": "deposit",
      "outputs": [],
      "stateMutability": "nonpayable",
      "type": "function"
    },
    {
      "inputs": [
        {
          "internalType": "uint256",
          "name": "_amount",
          "type": "uint256"
        }
      ],
      "name": "depositTFT",
      "outputs": [],
      "stateMutability": "nonpayable",
      "type": "function"
    },
    {
      "inputs": [],
      "name": "getPoolStats",
      "outputs": [
        {
          "internalType": "uint256",
          "name": "usdtBalance",
          "type": "uint256"
        },
        {
          "internalType": "uint256",
          "name": "tftBalance",
          "type": "uint256"
        },
        {
          "internalType": "uint256",
          "name": "totalDeposited",
          "type": "uint256"
        },
        {
          "internalType": "uint256",
          "name": "totalBought",
          "type": "uint256"
        },
        {
          "internalType": "uint256",
          "name": "totalDistributed",
          "type": "uint256"
        },
        {
          "internalType": "uint256",
          "name": "currentRound",
          "type": "uint256"
        }
      ],
      "stateMutability": "view",
      "type": "function"
    },
    {
      "inputs": [
        {
          "internalType": "uint256",
          "name": "_amount",
          "type": "uint256"
        }
      ],
      "name": "notifyDeposit",
      "outputs": [],
      "stateMutability": "nonpayable",
      "type": "function"
    },
    {
      "inputs": [],
      "name": "owner",
      "outputs": [
        {
          "internalType": "address",
          "name": "",
          "type": "address"
        }
      ],
      "stateMutability": "view",
      "type": "function"
    },
    {
      "inputs": [],
      "name": "predictionMarket",
      "outputs": [
        {
          "internalType": "address",
          "name": "",
          "type": "address"
        }
      ],
      "stateMutability": "view",
      "type": "function"
    },
    {
      "inputs": [
        {
          "internalType": "address",
          "name": "token",
          "type": "address"
        },
        {
          "internalType": "uint256",
          "name": "amount",
          "type": "uint256"
        }
      ],
      "name": "recoverTokens",
      "outputs": [],
      "stateMutability": "nonpayable",
      "type": "function"
    },
    {
      "inputs": [],
      "name": "renounceOwnership",
      "outputs": [],
      "stateMutability": "nonpayable",
      "type": "function"
    },
    {
      "inputs": [],
      "name": "resetRoundInsurance",
      "outputs": [],
      "stateMutability": "nonpayable",
      "type": "function"
    },
    {
      "inputs": [
        {
          "internalType": "address",
          "name": "_market",
          "type": "address"
        }
      ],
      "name": "setPredictionMarket",
      "outputs": [],
      "stateMutability": "nonpayable",
      "type": "function"
    },
    {
      "inputs": [
        {
          "internalType": "uint256",
          "name": "_newPrice",
          "type": "uint256"
        }
      ],
      "name": "setTFTPrice",
      "outputs": [],
      "stateMutability": "nonpayable",
      "type": "function"
    },
    {
      "inputs": [],
      "name": "tft",
      "outputs": [
        {
          "internalType": "contract IERC20",
          "name": "",
          "type": "address"
        }
      ],
      "stateMutability": "view",
      "type": "function"
    },
    {
      "inputs": [],
      "name": "tftPrice",
      "outputs": [
        {
          "internalType": "uint256",
          "name": "",
          "type": "uint256"
        }
      ],
      "stateMutability": "view",
      "type": "function"
    },
    {
      "inputs": [],
      "name": "totalTFTBought",
      "outputs": [
        {
          "internalType": "uint256",
          "name": "",
          "type": "uint256"
        }
      ],
      "stateMutability": "view",
      "type": "function"
    },
    {
      "inputs": [],
      "name": "totalTFTDistributed",
      "outputs": [
        {
          "internalType": "uint256",
          "name": "",
          "type": "uint256"
        }
      ],
      "stateMutability": "view",
      "type": "function"
    },
    {
      "inputs": [],
      "name": "totalUSDTDeposited",
      "outputs": [
        {
          "internalType": "uint256",
          "name": "",
          "type": "uint256"
        }
      ],
      "stateMutability": "view",
      "type": "function"
    },
    {
      "inputs": [],
      "name": "totalUSDTDistributed",
      "outputs": [
        {
          "internalType": "uint256",
          "name": "",
          "type": "uint256"
        }
      ],
      "stateMutability": "view",
      "type": "function"
    },
    {
      "inputs": [
        {
          "internalType": "address",
          "name": "newOwner",
          "type": "address"
        }
      ],
      "name": "transferOwnership",
      "outputs": [],
      "stateMutability": "nonpayable",
      "type": "function"
    },
    {
      "inputs": [],
      "name": "usdt",
      "outputs": [
        {
          "internalType": "contract IERC20",
          "name": "",
          "type": "address"
        }
      ],
      "stateMutability": "view",
      "type": "function"
    },
    {
      "inputs": [
        {
          "internalType": "address",
          "name": "",
          "type": "address"
        }
      ],
      "name": "userClaims",
      "outputs": [
        {
          "internalType": "uint256",
          "name": "",
          "type": "uint256"
        }
      ],
      "stateMutability": "view",
      "type": "function"
    }
  ],
  "bytecode": "0x60c0604052620f42406002553480156200001857600080fd5b506040516200152c3803806200152c8339810160408190526200003b9162000205565b33806200006357604051631e4fbdf760e01b8152600060048201526024015b60405180910390fd5b6200006e8162000198565b5060017f9b779b17422d0df92223018b32b4d1fa46e071723d6817e2486d003becc55f00556001600160a01b038316620000da5760405162461bcd60e51b815260206004820152600c60248201526b125b9d985b1a59081554d11560a21b60448201526064016200005a565b6001600160a01b038216620001205760405162461bcd60e51b815260206004820152600b60248201526a125b9d985b1a590815119560aa1b60448201526064016200005a565b6001600160a01b038116620001695760405162461bcd60e51b815260206004820152600e60248201526d125b9d985b1a59081b585c9ad95d60921b60448201526064016200005a565b6001600160a01b0392831660805290821660a052600180546001600160a01b031916919092161790556200024f565b600080546001600160a01b038381166001600160a01b0319831681178455604051919092169283917f8be0079c531659141344cd1fd0a4f28419497f9722a3daafe3b4186f6b6457e09190a35050565b80516001600160a01b03811681146200020057600080fd5b919050565b6000806000606084860312156200021b57600080fd5b6200022684620001e8565b92506200023660208501620001e8565b91506200024660408501620001e8565b90509250925092565b60805160a05161127f620002ad6000396000818161024a015281816106410152818161097e01528181610bc501528181610d0d0152610e230152600081816101c10152818161053801528181610a770152610b45015261127f6000f3fe608060405234801561001057600080fd5b50600436106101735760003560e01c8063715018a6116100de578063b6b55f2511610097578063f0a3563c11610071578063f0a3563c14610334578063f2fde38b14610354578063f85920d814610367578063fb86df871461037a57600080fd5b8063b6b55f25146102d9578063bbb85188146102ec578063def114b61461032157600080fd5b8063715018a61461027e5780638189af52146102865780638da5cb5b1461028f578063961eab82146102a05780639690835c146102b3578063975aac22146102c657600080fd5b80633b39d547116101305780633b39d547146102175780634665f55b1461022a5780635949a8f7146102325780635fbd83f414610245578063619fd3bf1461026c578063680289541461027557600080fd5b806303b88ba21461017857806304e378bb1461018d578063069c9fae146101a95780632f48ab7d146101bc5780632fb4e561146101fb57806334a0cecc14610204575b600080fd5b61018b6101863660046110cb565b610383565b005b61019660025481565b6040519081526020015b60405180910390f35b61018b6101b73660046110ed565b61042c565b6101e37f000000000000000000000000000000000000000000000000000000000000000081565b6040516001600160a01b0390911681526020016101a0565b61019660045481565b61018b610212366004611117565b610513565b61018b610225366004611117565b61076a565b61018b6107eb565b61018b610240366004611117565b61081c565b6101e37f000000000000000000000000000000000000000000000000000000000000000081565b61019660055481565b61019660075481565b61018b6108ce565b61019660065481565b6000546001600160a01b03166101e3565b6101966102ae366004611117565b6108e2565b6101966102c1366004611117565b61091a565b61018b6102d4366004611117565b610941565b61018b6102e7366004611117565b610a18565b6102f4610b1b565b604080519687526020870195909552938501929092526060840152608083015260a082015260c0016101a0565b6001546101e3906001600160a01b031681565b6101966103423660046110cb565b60086020526000908152604090205481565b61018b6103623660046110cb565b610c57565b61018b610375366004611117565b610c92565b61019660035481565b61038b610e9d565b6001600160a01b0381166103d75760405162461bcd60e51b815260206004820152600e60248201526d125b9d985b1a59081b585c9ad95d60921b60448201526064015b60405180910390fd5b600180546001600160a01b0319166001600160a01b0383169081179091556040519081527f5611a86704fbad5eab1e775a83d66df76b0139faa47f12264817ad6b9eac702c906020015b60405180910390a150565b610434610e9d565b6001600160a01b03821661048157600080546040516001600160a01b03909116914780156108fc02929091818181858888f1935050505015801561047c573d6000803e3d6000fd5b505050565b816001600160a01b031663a9059cbb6104a26000546001600160a01b031690565b6040516001600160e01b031960e084901b1681526001600160a01b039091166004820152602481018490526044016020604051808303816000875af11580156104ef573d6000803e3d6000fd5b505050506040513d601f19601f8201168201806040525081019061047c9190611130565b61051b610e9d565b610523610eca565b6040516370a0823160e01b81523060048201527f00000000000000000000000000000000000000000000000000000000000000006001600160a01b0316906370a0823190602401602060405180830381865afa158015610587573d6000803e3d6000fd5b505050506040513d601f19601f820116820180604052508101906105ab9190611152565b8111156105ee5760405162461bcd60e51b8152602060048201526011602482015270125b9cdd59999a58da595b9d081554d115607a1b60448201526064016103ce565b60006002546402540be4006106039190611181565b61061583670de0b6b3a7640000611181565b61061f9190611198565b6040516370a0823160e01b815230600482015290915081906001600160a01b037f000000000000000000000000000000000000000000000000000000000000000016906370a0823190602401602060405180830381865afa158015610688573d6000803e3d6000fd5b505050506040513d601f19601f820116820180604052508101906106ac9190611152565b10156106f55760405162461bcd60e51b8152602060048201526018602482015277125b9cdd59999a58da595b9d08151195081a5b881c1bdbdb60421b60448201526064016103ce565b806004600082825461070791906111ba565b9091555050600254604080518481526020810184905280820192909252517f32aeece23096113735e178e5e81d623dcbfb7eae6feec95c1057b3c8c7d360339181900360600190a150610767600160008051602061122a83398151915255565b50565b610772610e9d565b600081116107b65760405162461bcd60e51b815260206004820152601160248201527005072696365206d757374206265203e203607c1b60448201526064016103ce565b60028190556040518181527f87156e231bfbfc49c5c5419a1a2298d225c133522194f86e33345add7e1e299c90602001610421565b6001546001600160a01b031633146108155760405162461bcd60e51b81526004016103ce906111cd565b6000600755565b6001546001600160a01b031633146108465760405162461bcd60e51b81526004016103ce906111cd565b600081116108665760405162461bcd60e51b81526004016103ce906111fd565b806003600082825461087891906111ba565b92505081905550806007600082825461089191906111ba565b909155505060405181815233907f256d3f498207df9ab0f59ee9cc584fb4d2fe829f234f81a30a8b4c1c3949006d9060200160405180910390a250565b6108d6610e9d565b6108e06000610ee6565b565b6000670de0b6b3a7640000600254836108fb9190611181565b61090a906402540be400611181565b6109149190611198565b92915050565b60006002546402540be40061092f9190611181565b61090a83670de0b6b3a7640000611181565b610949610e9d565b610951610eca565b600081116109715760405162461bcd60e51b81526004016103ce906111fd565b6109a66001600160a01b037f000000000000000000000000000000000000000000000000000000000000000016333084610f36565b80600460008282546109b891906111ba565b909155505060025460408051600081526020810184905280820192909252517f32aeece23096113735e178e5e81d623dcbfb7eae6feec95c1057b3c8c7d360339181900360600190a1610767600160008051602061122a83398151915255565b6001546001600160a01b03163314610a425760405162461bcd60e51b81526004016103ce906111cd565b610a4a610eca565b60008111610a6a5760405162461bcd60e51b81526004016103ce906111fd565b610a9f6001600160a01b037f000000000000000000000000000000000000000000000000000000000000000016333084610f36565b8060036000828254610ab191906111ba565b925050819055508060076000828254610aca91906111ba565b909155505060405181815233907f256d3f498207df9ab0f59ee9cc584fb4d2fe829f234f81a30a8b4c1c3949006d9060200160405180910390a2610767600160008051602061122a83398151915255565b6040516370a0823160e01b8152306004820152600090819081908190819081906001600160a01b037f000000000000000000000000000000000000000000000000000000000000000016906370a0823190602401602060405180830381865afa158015610b8c573d6000803e3d6000fd5b505050506040513d601f19601f82011682018060405250810190610bb09190611152565b6040516370a0823160e01b81523060048201527f00000000000000000000000000000000000000000000000000000000000000006001600160a01b0316906370a0823190602401602060405180830381865afa158015610c14573d6000803e3d6000fd5b505050506040513d601f19601f82011682018060405250810190610c389190611152565b600354600454600554600754949b939a50919850965094509092509050565b610c5f610e9d565b6001600160a01b038116610c8957604051631e4fbdf760e01b8152600060048201526024016103ce565b61076781610ee6565b610c9a610eca565b60008111610cba5760405162461bcd60e51b81526004016103ce906111fd565b60006002546402540be400610ccf9190611181565b610ce183670de0b6b3a7640000611181565b610ceb9190611198565b6040516370a0823160e01b815230600482015290915081906001600160a01b037f000000000000000000000000000000000000000000000000000000000000000016906370a0823190602401602060405180830381865afa158015610d54573d6000803e3d6000fd5b505050506040513d601f19601f82011682018060405250810190610d789190611152565b1015610dc15760405162461bcd60e51b8152602060048201526018602482015277125b9cdd59999a58da595b9d08151195081a5b881c1bdbdb60421b60448201526064016103ce565b8060056000828254610dd391906111ba565b925050819055508160066000828254610dec91906111ba565b90915550503360009081526008602052604081208054839290610e109084906111ba565b90915550610e4a90506001600160a01b037f0000000000000000000000000000000000000000000000000000000000000000163383610f72565b604080518281526020810184905233917f7b888f90a214333304853413a491185da1e9ad36a083be01e27ceef133883a58910160405180910390a250610767600160008051602061122a83398151915255565b6000546001600160a01b031633146108e05760405163118cdaa760e01b81523360048201526024016103ce565b610ed2610fa7565b600260008051602061122a83398151915255565b600080546001600160a01b038381166001600160a01b0319831681178455604051919092169283917f8be0079c531659141344cd1fd0a4f28419497f9722a3daafe3b4186f6b6457e09190a35050565b610f44848484846001610fd7565b610f6c57604051635274afe760e01b81526001600160a01b03851660048201526024016103ce565b50505050565b610f7f8383836001611049565b61047c57604051635274afe760e01b81526001600160a01b03841660048201526024016103ce565b60008051602061122a833981519152546002036108e057604051633ee5aeb560e01b815260040160405180910390fd5b6040516323b872dd60e01b60008181526001600160a01b038781166004528616602452604485905291602083606481808c5af19250600160005114831661103757838315161561102a573d6000823e3d81fd5b6000883b113d1516831692505b60405250600060605295945050505050565b60405163a9059cbb60e01b60008181526001600160a01b038616600452602485905291602083604481808b5af1925060016000511483166110a3578383151615611096573d6000823e3d81fd5b6000873b113d1516831692505b60405250949350505050565b80356001600160a01b03811681146110c657600080fd5b919050565b6000602082840312156110dd57600080fd5b6110e6826110af565b9392505050565b6000806040838503121561110057600080fd5b611109836110af565b946020939093013593505050565b60006020828403121561112957600080fd5b5035919050565b60006020828403121561114257600080fd5b815180151581146110e657600080fd5b60006020828403121561116457600080fd5b5051919050565b634e487b7160e01b600052601160045260246000fd5b80820281158282048414176109145761091461116b565b6000826111b557634e487b7160e01b600052601260045260246000fd5b500490565b808201808211156109145761091461116b565b60208082526016908201527513db9b1e481c1c99591a58dd1a5bdb881b585c9ad95d60521b604082015260600190565b6020808252601290820152710416d6f756e74206d757374206265203e20360741b60408201526060019056fe9b779b17422d0df92223018b32b4d1fa46e071723d6817e2486d003becc55f00a26469706673582212205d1c52e2feb1113cb9bd329869e4a12917be37b40a713dc31c579592b6bac00364736f6c63430008180033",
  "linkReferences": {},
  "deployedLinkReferences": {}
}