{
  "_format": "hh-sol-artifact-1",
  "contractName": "NodePartner",
  "sourceName": "src/NodePartner.sol",
  "abi": [
    {
      "inputs": [
        {
          "internalType": "address",
          "name": "_tft",
          "type": "address"
        },
        {
          "internalType": "address",
          "name": "_usdt",
          "type": "address"
        }
      ],
      "stateMutability": "nonpayable",
      "type": "constructor"
    },
    {
      "inputs": [
        {
          "internalType": "address",
          "name": "owner",
          "type": "address"
        }
      ],
      "name": "OwnableInvalidOwner",
      "type": "error"
    },
    {
      "inputs": [
        {
          "internalType": "address",
          "name": "account",
          "type": "address"
        }
      ],
      "name": "OwnableUnauthorizedAccount",
      "type": "error"
    },
    {
      "inputs": [],
      "name": "ReentrancyGuardReentrantCall",
      "type": "error"
    },
    {
      "inputs": [
        {
          "internalType": "address",
          "name": "token",
          "type": "address"
        }
      ],
      "name": "SafeERC20FailedOperation",
      "type": "error"
    },
    {
      "anonymous": false,
      "inputs": [
        {
          "indexed": true,
          "internalType": "address",
          "name": "user",
          "type": "address"
        },
        {
          "indexed": false,
          "internalType": "uint256",
          "name": "amount",
          "type": "uint256"
        }
      ],
      "name": "DividendClaimed",
      "type": "event"
    },
    {
      "anonymous": false,
      "inputs": [
        {
          "indexed": true,
          "internalType": "address",
          "name": "user",
          "type": "address"
        },
        {
          "indexed": false,
          "internalType": "uint256",
          "name": "amount",
          "type": "uint256"
        }
      ],
      "name": "DividendDistributed",
      "type": "event"
    },
    {
      "anonymous": false,
      "inputs": [
        {
          "indexed": true,
          "internalType": "address",
          "name": "user",
          "type": "address"
        },
        {
          "indexed": false,
          "internalType": "uint256",
          "name": "tftAmount",
          "type": "uint256"
        },
        {
          "indexed": false,
          "internalType": "uint256",
          "name": "usdtAmount",
          "type": "uint256"
        }
      ],
      "name": "LPAdded",
      "type": "event"
    },
    {
      "anonymous": false,
      "inputs": [
        {
          "indexed": true,
          "internalType": "address",
          "name": "user",
          "type": "address"
        },
        {
          "indexed": false,
          "internalType": "uint256",
          "name": "lpAmount",
          "type": "uint256"
        },
        {
          "indexed": false,
          "internalType": "uint256",
          "name": "tftAmount",
          "type": "uint256"
        },
        {
          "indexed": false,
          "internalType": "uint256",
          "name": "usdtAmount",
          "type": "uint256"
        }
      ],
      "name": "LPWithdrawn",
      "type": "event"
    },
    {
      "anonymous": false,
      "inputs": [
        {
          "indexed": false,
          "internalType": "uint256",
          "name": "newMax",
          "type": "uint256"
        }
      ],
      "name": "MaxNodesUpdated",
      "type": "event"
    },
    {
      "anonymous": false,
      "inputs": [
        {
          "indexed": true,
          "internalType": "address",
          "name": "user",
          "type": "address"
        },
        {
          "indexed": false,
          "internalType": "uint256",
          "name": "nodeType",
          "type": "uint256"
        },
        {
          "indexed": false,
          "internalType": "uint256",
          "name": "timestamp",
          "type": "uint256"
        }
      ],
      "name": "NodeCreated",
      "type": "event"
    },
    {
      "anonymous": false,
      "inputs": [
        {
          "indexed": true,
          "internalType": "address",
          "name": "previousOwner",
          "type": "address"
        },
        {
          "indexed": true,
          "internalType": "address",
          "name": "newOwner",
          "type": "address"
        }
      ],
      "name": "OwnershipTransferred",
      "type": "event"
    },
    {
      "inputs": [],
      "name": "BURN_ADDRESS",
      "outputs": [
        {
          "internalType": "address",
          "name": "",
          "type": "address"
        }
      ],
      "stateMutability": "view",
      "type": "function"
    },
    {
      "inputs": [],
      "name": "BURN_COST",
      "outputs": [
        {
          "internalType": "uint256",
          "name": "",
          "type": "uint256"
        }
      ],
      "stateMutability": "view",
      "type": "function"
    },
    {
      "inputs": [],
      "name": "LP_COST",
      "outputs": [
        {
          "internalType": "uint256",
          "name": "",
          "type": "uint256"
        }
      ],
      "stateMutability": "view",
      "type": "function"
    },
    {
      "inputs": [],
      "name": "PERIOD_DURATION",
      "outputs": [
        {
          "internalType": "uint256",
          "name": "",
          "type": "uint256"
        }
      ],
      "stateMutability": "view",
      "type": "function"
    },
    {
      "inputs": [],
      "name": "TOTAL_PERIODS",
      "outputs": [
        {
          "internalType": "uint256",
          "name": "",
          "type": "uint256"
        }
      ],
      "stateMutability": "view",
      "type": "function"
    },
    {
      "inputs": [],
      "name": "UNLOCK_PER_PERIOD",
      "outputs": [
        {
          "internalType": "uint256",
          "name": "",
          "type": "uint256"
        }
      ],
      "stateMutability": "view",
      "type": "function"
    },
    {
      "inputs": [],
      "name": "activeNodes",
      "outputs": [
        {
          "internalType": "uint256",
          "name": "",
          "type": "uint256"
        }
      ],
      "stateMutability": "view",
      "type": "function"
    },
    {
      "inputs": [],
      "name": "claimDividends",
      "outputs": [],
      "stateMutability": "nonpayable",
      "type": "function"
    },
    {
      "inputs": [],
      "name": "createNodeByBurn",
      "outputs": [],
      "stateMutability": "nonpayable",
      "type": "function"
    },
    {
      "inputs": [
        {
          "internalType": "uint256",
          "name": "_tftAmount",
          "type": "uint256"
        },
        {
          "internalType": "uint256",
          "name": "_usdtAmount",
          "type": "uint256"
        }
      ],
      "name": "createNodeByLP",
      "outputs": [],
      "stateMutability": "nonpayable",
      "type": "function"
    },
    {
      "inputs": [],
      "name": "distributeDividends",
      "outputs": [],
      "stateMutability": "nonpayable",
      "type": "function"
    },
    {
      "inputs": [
        {
          "internalType": "address",
          "name": "_user",
          "type": "address"
        }
      ],
      "name": "getPendingDividends",
      "outputs": [
        {
          "internalType": "uint256",
          "name": "",
          "type": "uint256"
        }
      ],
      "stateMutability": "view",
      "type": "function"
    },
    {
      "inputs": [
        {
          "internalType": "address",
          "name": "_user",
          "type": "address"
        }
      ],
      "name": "getUserNodes",
      "outputs": [
        {
          "internalType": "uint256",
          "name": "nodeCount",
          "type": "uint256"
        },
        {
          "internalType": "uint256",
          "name": "burnNodes",
          "type": "uint256"
        },
        {
          "internalType": "uint256",
          "name": "lpNodes",
          "type": "uint256"
        },
        {
          "internalType": "uint256",
          "name": "lockedLP",
          "type": "uint256"
        },
        {
          "internalType": "uint256",
          "name": "unlockedLP",
          "type": "uint256"
        },
        {
          "internalType": "uint256",
          "name": "currentPeriod",
          "type": "uint256"
        }
      ],
      "stateMutability": "view",
      "type": "function"
    },
    {
      "inputs": [],
      "name": "maxNodes",
      "outputs": [
        {
          "internalType": "uint256",
          "name": "",
          "type": "uint256"
        }
      ],
      "stateMutability": "view",
      "type": "function"
    },
    {
      "inputs": [],
      "name": "owner",
      "outputs": [
        {
          "internalType": "address",
          "name": "",
          "type": "address"
        }
      ],
      "stateMutability": "view",
      "type": "function"
    },
    {
      "inputs": [
        {
          "internalType": "address",
          "name": "token",
          "type": "address"
        },
        {
          "internalType": "uint256",
          "name": "amount",
          "type": "uint256"
        }
      ],
      "name": "recoverTokens",
      "outputs": [],
      "stateMutability": "nonpayable",
      "type": "function"
    },
    {
      "inputs": [],
      "name": "renounceOwnership",
      "outputs": [],
      "stateMutability": "nonpayable",
      "type": "function"
    },
    {
      "inputs": [
        {
          "internalType": "uint256",
          "name": "_max",
          "type": "uint256"
        }
      ],
      "name": "setMaxNodes",
      "outputs": [],
      "stateMutability": "nonpayable",
      "type": "function"
    },
    {
      "inputs": [],
      "name": "tft",
      "outputs": [
        {
          "internalType": "contract IERC20",
          "name": "",
          "type": "address"
        }
      ],
      "stateMutability": "view",
      "type": "function"
    },
    {
      "inputs": [],
      "name": "totalDividendsDistributed",
      "outputs": [
        {
          "internalType": "uint256",
          "name": "",
          "type": "uint256"
        }
      ],
      "stateMutability": "view",
      "type": "function"
    },
    {
      "inputs": [
        {
          "internalType": "address",
          "name": "newOwner",
          "type": "address"
        }
      ],
      "name": "transferOwnership",
      "outputs": [],
      "stateMutability": "nonpayable",
      "type": "function"
    },
    {
      "inputs": [],
      "name": "usdt",
      "outputs": [
        {
          "internalType": "contract IERC20",
          "name": "",
          "type": "address"
        }
      ],
      "stateMutability": "view",
      "type": "function"
    },
    {
      "inputs": [
        {
          "internalType": "address",
          "name": "",
          "type": "address"
        }
      ],
      "name": "userClaimedDividends",
      "outputs": [
        {
          "internalType": "uint256",
          "name": "",
          "type": "uint256"
        }
      ],
      "stateMutability": "view",
      "type": "function"
    },
    {
      "inputs": [
        {
          "internalType": "address",
          "name": "",
          "type": "address"
        }
      ],
      "name": "userDividends",
      "outputs": [
        {
          "internalType": "uint256",
          "name": "",
          "type": "uint256"
        }
      ],
      "stateMutability": "view",
      "type": "function"
    },
    {
      "inputs": [
        {
          "internalType": "address",
          "name": "",
          "type": "address"
        }
      ],
      "name": "userLPLockup",
      "outputs": [
        {
          "internalType": "uint256",
          "name": "totalLP",
          "type": "uint256"
        },
        {
          "internalType": "uint256",
          "name": "unlockedLP",
          "type": "uint256"
        },
        {
          "internalType": "uint256",
          "name": "currentPeriod",
          "type": "uint256"
        },
        {
          "internalType": "uint256",
          "name": "lastUnlockTime",
          "type": "uint256"
        },
        {
          "internalType": "bool",
          "name": "active",
          "type": "bool"
        }
      ],
      "stateMutability": "view",
      "type": "function"
    },
    {
      "inputs": [
        {
          "internalType": "address",
          "name": "",
          "type": "address"
        }
      ],
      "name": "userNodeCount",
      "outputs": [
        {
          "internalType": "uint256",
          "name": "",
          "type": "uint256"
        }
      ],
      "stateMutability": "view",
      "type": "function"
    },
    {
      "inputs": [
        {
          "internalType": "address",
          "name": "",
          "type": "address"
        },
        {
          "internalType": "uint256",
          "name": "",
          "type": "uint256"
        }
      ],
      "name": "userNodes",
      "outputs": [
        {
          "internalType": "address",
          "name": "owner",
          "type": "address"
        },
        {
          "internalType": "uint256",
          "name": "nodeType",
          "type": "uint256"
        },
        {
          "internalType": "uint256",
          "name": "createdAt",
          "type": "uint256"
        },
        {
          "internalType": "bool",
          "name": "active",
          "type": "bool"
        }
      ],
      "stateMutability": "view",
      "type": "function"
    },
    {
      "inputs": [],
      "name": "withdrawLP",
      "outputs": [],
      "stateMutability": "nonpayable",
      "type": "function"
    }
  ],
  "bytecode": "0x60c060405260646001553480156200001657600080fd5b50604051620018d5380380620018d58339810160408190526200003991620001a3565b33806200006157604051631e4fbdf760e01b8152600060048201526024015b60405180910390fd5b6200006c8162000136565b5060017f9b779b17422d0df92223018b32b4d1fa46e071723d6817e2486d003becc55f00556001600160a01b038216620000d75760405162461bcd60e51b815260206004820152600b60248201526a125b9d985b1a590815119560aa1b604482015260640162000058565b6001600160a01b0381166200011e5760405162461bcd60e51b815260206004820152600c60248201526b125b9d985b1a59081554d11560a21b604482015260640162000058565b6001600160a01b039182166080521660a052620001db565b600080546001600160a01b038381166001600160a01b0319831681178455604051919092169283917f8be0079c531659141344cd1fd0a4f28419497f9722a3daafe3b4186f6b6457e09190a35050565b80516001600160a01b03811681146200019e57600080fd5b919050565b60008060408385031215620001b757600080fd5b620001c28362000186565b9150620001d26020840162000186565b90509250929050565b60805160a0516116956200024060003960008181610324015281816104ad01528181610b4701528181610d2401528181610df4015261100301526000818161039d015281816108770152818161093801528181610dba0152610fce01526116956000f3fe608060405234801561001057600080fd5b50600436106101c45760003560e01c80635848b970116100f9578063909b2da111610097578063bb8cf25b11610071578063bb8cf25b1461044d578063ddf0185f14610460578063f2fde38b14610469578063fccc28131461047c57600080fd5b8063909b2da1146103f3578063a1a64a1e14610432578063a44c83941461043a57600080fd5b8063668038e0116100d3578063668038e0146103c9578063715018a6146103d157806385a6b3ae146103d95780638da5cb5b146103e257600080fd5b80635848b970146103905780635fbd83f4146103985780636558954f146103bf57600080fd5b80632469fd42116101665780633406584e116101405780633406584e1461035e5780634e4cdd30146103665780634e5510e5146103775780635322e1a21461038857600080fd5b80632469fd42146102a25780632c3dcbc71461030c5780632f48ab7d1461031f57600080fd5b80630aa617e6116101a25780630aa617e6146102025780631265f652146102225780632130fe2314610242578063215f9baa1461028257600080fd5b806303c83302146101c9578063069c9fae146101d357806307f19651146101e6575b600080fd5b6101d1610485565b005b6101d16101e13660046114d9565b610623565b6101ef60025481565b6040519081526020015b60405180910390f35b6101ef610210366004611503565b60086020526000908152604090205481565b6101ef610230366004611503565b60076020526000908152604090205481565b610255610250366004611503565b61070e565b604080519687526020870195909552938501929092526060840152608083015260a082015260c0016101f9565b6101ef610290366004611503565b60036020526000908152604090205481565b6102e26102b0366004611503565b600560205260009081526040902080546001820154600283015460038401546004909401549293919290919060ff1685565b6040805195865260208601949094529284019190915260608301521515608082015260a0016101f9565b6101ef61031a366004611503565b6107f6565b6103467f000000000000000000000000000000000000000000000000000000000000000081565b6040516001600160a01b0390911681526020016101f9565b6101d1610807565b6101ef690a968163f0a57b40000081565b6101ef69152d02c7e14af680000081565b6101ef603281565b6101ef60c881565b6103467f000000000000000000000000000000000000000000000000000000000000000081565b6101ef62278d0081565b6101d1610a72565b6101d1610ba0565b6101ef60065481565b6000546001600160a01b0316610346565b6104066104013660046114d9565b610bb2565b604080516001600160a01b039095168552602085019390935291830152151560608201526080016101f9565b6101d1610c05565b6101d1610448366004611525565b610e92565b6101d161045b36600461153e565b610ed5565b6101ef60015481565b6101d1610477366004611503565b6111cf565b61034661dead81565b61048d61120d565b61049561123a565b6040516370a0823160e01b81523060048201526000907f00000000000000000000000000000000000000000000000000000000000000006001600160a01b0316906370a0823190602401602060405180830381865afa1580156104fc573d6000803e3d6000fd5b505050506040513d601f19601f820116820180604052508101906105209190611560565b9050600081116105775760405162461bcd60e51b815260206004820152601a60248201527f4e6f206469766964656e647320746f206469737472696275746500000000000060448201526064015b60405180910390fd5b6000600254116105bb5760405162461bcd60e51b815260206004820152600f60248201526e4e6f20616374697665206e6f64657360881b604482015260640161056e565b80600660008282546105cd919061158f565b90915550506040518181526000907f84fcdd4a7f507f2206dd50958e7473061bf941f91791c6ffaf74033a07c82f12906020015b60405180910390a250610621600160008051602061164083398151915255565b565b61062b61120d565b6001600160a01b03821661067857600080546040516001600160a01b03909116914780156108fc02929091818181858888f19350505050158015610673573d6000803e3d6000fd5b505050565b816001600160a01b031663a9059cbb6106996000546001600160a01b031690565b6040516001600160e01b031960e084901b1681526001600160a01b039091166004820152602481018490526044016020604051808303816000875af11580156106e6573d6000803e3d6000fd5b505050506040513d601f19601f8201168201806040525081019061067391906115a2565b5050565b6001600160a01b038116600090815260036020908152604080832054600590925282206001810154815492939283928392839283929161074d916115c4565b9350806001015492508060020154915060005b6001600160a01b0389166000908152600460205260409020548110156107eb576001600160a01b03891660009081526004602052604090208054829081106107aa576107aa6115d7565b9060005260206000209060040201600101546001036107d557866107cd816115ed565b9750506107e3565b856107df816115ed565b9650505b600101610760565b505091939550919395565b600061080182611256565b92915050565b61080f61123a565b600154600254106108565760405162461bcd60e51b815260206004820152601160248201527013585e081b9bd9195cc81c995858da1959607a1b604482015260640161056e565b6040516370a0823160e01b815233600482015269152d02c7e14af6800000907f00000000000000000000000000000000000000000000000000000000000000006001600160a01b0316906370a0823190602401602060405180830381865afa1580156108c6573d6000803e3d6000fd5b505050506040513d601f19601f820116820180604052508101906108ea9190611560565b101561092b5760405162461bcd60e51b815260206004820152601060248201526f125b9cdd59999a58da595b9d0815119560821b604482015260640161056e565b61096c6001600160a01b037f0000000000000000000000000000000000000000000000000000000000000000163361dead69152d02c7e14af68000006112f4565b33600081815260046020818152604080842081516080810183528681526001818501818152428386019081526060840183815285548085018755958a52878a2094519590980290930180546001600160a01b0319166001600160a01b03909516949094178455519083015551600282015592516003938401805460ff191691151591909117905593835252908120805491610a06836115ed565b909155505060028054906000610a1b836115ed565b9091555050604080516001815242602082015233917fed6196b8b5e9e7c4eb1f8dbf29ae12164c5b92535db3d0f77254960309f8bec2910160405180910390a2610621600160008051602061164083398151915255565b610a7a61123a565b33600090815260036020526040902054610ac15760405162461bcd60e51b81526020600482015260086024820152674e6f206e6f64657360c01b604482015260640161056e565b6000610acc33611256565b905060008111610b155760405162461bcd60e51b81526020600482015260146024820152734e6f2070656e64696e67206469766964656e647360601b604482015260640161056e565b3360009081526008602052604081208054839290610b3490849061158f565b90915550610b6e90506001600160a01b037f0000000000000000000000000000000000000000000000000000000000000000163383611330565b60405181815233907f5efa67896a23b651b741b525caacba039c00ca7853be3de8eb1f4269e8669c5690602001610601565b610ba861120d565b6106216000611365565b60046020528160005260406000208181548110610bce57600080fd5b600091825260209091206004909102018054600182015460028301546003909301546001600160a01b039092169450925060ff1684565b610c0d61123a565b336000908152600560205260409020600481015460ff16610c635760405162461bcd60e51b815260206004820152601060248201526f04e6f20616374697665206c6f636b75760841b604482015260640161056e565b600062278d00826003015442610c7991906115c4565b610c839190611606565b90508015610e79576000818360020154610c9d919061158f565b90506032811115610cac575060325b600061271060c8838660000154610cc39190611628565b610ccd9190611628565b610cd79190611606565b90506000846001015482610ceb91906115c4565b90508015610e7557600185018290556002850183905542600386015584546040516370a0823160e01b81523060048201526000919083907f00000000000000000000000000000000000000000000000000000000000000006001600160a01b0316906370a0823190602401602060405180830381865afa158015610d73573d6000803e3d6000fd5b505050506040513d601f19601f82011682018060405250810190610d979190611560565b610da19190611628565b610dab9190611606565b9050610de16001600160a01b037f0000000000000000000000000000000000000000000000000000000000000000163384611330565b8015610e1b57610e1b6001600160a01b037f0000000000000000000000000000000000000000000000000000000000000000163383611330565b604080518381526020810184905290810182905233907f976a45c1d615a430f80af25890a59aebdbb85305e0c9e38e59e1d86261822aac9060600160405180910390a260328410610e735760048601805460ff191690555b505b5050505b5050610621600160008051602061164083398151915255565b610e9a61120d565b60018190556040518181527fb0e169ca184ef8208065f7c0bd968a40b0fc3565034e6a052d3698840f5965009060200160405180910390a150565b610edd61123a565b60015460025410610f245760405162461bcd60e51b815260206004820152601160248201527013585e081b9bd9195cc81c995858da1959607a1b604482015260640161056e565b690a968163f0a57b400000821015610f715760405162461bcd60e51b815260206004820152601060248201526f125b9cdd59999a58da595b9d0815119560821b604482015260640161056e565b60008111610fc15760405162461bcd60e51b815260206004820152601760248201527f5553445420616d6f756e74206d757374206265203e2030000000000000000000604482015260640161056e565b610ff66001600160a01b037f0000000000000000000000000000000000000000000000000000000000000000163330856112f4565b61102b6001600160a01b037f0000000000000000000000000000000000000000000000000000000000000000163330846112f4565b3360008181526004602081815260408084208151608080820184528782526002828601818152428487018181526001606080880182815289548084018b55998e528b8e209851998d0290980180546001600160a01b0319166001600160a01b03909a1699909917895593518882015590518785015594516003968701805460ff19908116921515929092179055875160a0810189528e8152808a018c8152818a018d81529482019384529581018781529c8c5260058a52888c2090518155945195850195909555905191830191909155518184015596519690940180549094169515159590951790925592909252908120805491611128836115ed565b90915550506002805490600061113d836115ed565b9091555050604080516002815242602082015233917fed6196b8b5e9e7c4eb1f8dbf29ae12164c5b92535db3d0f77254960309f8bec2910160405180910390a2604080518381526020810183905233917f7015130af49d5302a94a3e897b7db735211411b202eeb5f46e6ac2ffd4d08d69910160405180910390a261070a600160008051602061164083398151915255565b6111d761120d565b6001600160a01b03811661120157604051631e4fbdf760e01b81526000600482015260240161056e565b61120a81611365565b50565b6000546001600160a01b031633146106215760405163118cdaa760e01b815233600482015260240161056e565b6112426113b5565b600260008051602061164083398151915255565b600060025460000361126a57506000919050565b6006546002546001600160a01b0384166000908152600360205260408120549091906112969084611628565b6112a09190611606565b6001600160a01b03851660009081526008602052604090205490915081116112c95760006112ec565b6001600160a01b0384166000908152600860205260409020546112ec90826115c4565b949350505050565b6113028484848460016113e5565b61132a57604051635274afe760e01b81526001600160a01b038516600482015260240161056e565b50505050565b61133d8383836001611457565b61067357604051635274afe760e01b81526001600160a01b038416600482015260240161056e565b600080546001600160a01b038381166001600160a01b0319831681178455604051919092169283917f8be0079c531659141344cd1fd0a4f28419497f9722a3daafe3b4186f6b6457e09190a35050565b6000805160206116408339815191525460020361062157604051633ee5aeb560e01b815260040160405180910390fd5b6040516323b872dd60e01b60008181526001600160a01b038781166004528616602452604485905291602083606481808c5af192506001600051148316611445578383151615611438573d6000823e3d81fd5b6000883b113d1516831692505b60405250600060605295945050505050565b60405163a9059cbb60e01b60008181526001600160a01b038616600452602485905291602083604481808b5af1925060016000511483166114b15783831516156114a4573d6000823e3d81fd5b6000873b113d1516831692505b60405250949350505050565b80356001600160a01b03811681146114d457600080fd5b919050565b600080604083850312156114ec57600080fd5b6114f5836114bd565b946020939093013593505050565b60006020828403121561151557600080fd5b61151e826114bd565b9392505050565b60006020828403121561153757600080fd5b5035919050565b6000806040838503121561155157600080fd5b50508035926020909101359150565b60006020828403121561157257600080fd5b5051919050565b634e487b7160e01b600052601160045260246000fd5b8082018082111561080157610801611579565b6000602082840312156115b457600080fd5b8151801515811461151e57600080fd5b8181038181111561080157610801611579565b634e487b7160e01b600052603260045260246000fd5b6000600182016115ff576115ff611579565b5060010190565b60008261162357634e487b7160e01b600052601260045260246000fd5b500490565b80820281158282048414176108015761080161157956fe9b779b17422d0df92223018b32b4d1fa46e071723d6817e2486d003becc55f00a264697066735822122066ffc785ee67d417685f249076a5e70b5541bfa88e32206521b9a1fbea378ef764736f6c63430008180033",
  "linkReferences": {},
  "deployedLinkReferences": {}
}