{
  "_format": "hh-sol-artifact-1",
  "contractName": "NodePartner",
  "sourceName": "src/NodePartner.sol",
  "abi": [
    {
      "inputs": [
        {
          "internalType": "address",
          "name": "_tft",
          "type": "address"
        },
        {
          "internalType": "address",
          "name": "_usdt",
          "type": "address"
        }
      ],
      "stateMutability": "nonpayable",
      "type": "constructor"
    },
    {
      "inputs": [
        {
          "internalType": "address",
          "name": "owner",
          "type": "address"
        }
      ],
      "name": "OwnableInvalidOwner",
      "type": "error"
    },
    {
      "inputs": [
        {
          "internalType": "address",
          "name": "account",
          "type": "address"
        }
      ],
      "name": "OwnableUnauthorizedAccount",
      "type": "error"
    },
    {
      "inputs": [],
      "name": "ReentrancyGuardReentrantCall",
      "type": "error"
    },
    {
      "inputs": [
        {
          "internalType": "address",
          "name": "token",
          "type": "address"
        }
      ],
      "name": "SafeERC20FailedOperation",
      "type": "error"
    },
    {
      "anonymous": false,
      "inputs": [
        {
          "indexed": true,
          "internalType": "address",
          "name": "user",
          "type": "address"
        },
        {
          "indexed": false,
          "internalType": "uint256",
          "name": "amount",
          "type": "uint256"
        }
      ],
      "name": "DividendClaimed",
      "type": "event"
    },
    {
      "anonymous": false,
      "inputs": [
        {
          "indexed": true,
          "internalType": "address",
          "name": "user",
          "type": "address"
        },
        {
          "indexed": false,
          "internalType": "uint256",
          "name": "amount",
          "type": "uint256"
        }
      ],
      "name": "DividendDistributed",
      "type": "event"
    },
    {
      "anonymous": false,
      "inputs": [
        {
          "indexed": true,
          "internalType": "address",
          "name": "user",
          "type": "address"
        },
        {
          "indexed": false,
          "internalType": "uint256",
          "name": "tftAmount",
          "type": "uint256"
        },
        {
          "indexed": false,
          "internalType": "uint256",
          "name": "usdtAmount",
          "type": "uint256"
        }
      ],
      "name": "LPAdded",
      "type": "event"
    },
    {
      "anonymous": false,
      "inputs": [
        {
          "indexed": true,
          "internalType": "address",
          "name": "user",
          "type": "address"
        },
        {
          "indexed": false,
          "internalType": "uint256",
          "name": "lpAmount",
          "type": "uint256"
        },
        {
          "indexed": false,
          "internalType": "uint256",
          "name": "tftAmount",
          "type": "uint256"
        },
        {
          "indexed": false,
          "internalType": "uint256",
          "name": "usdtAmount",
          "type": "uint256"
        }
      ],
      "name": "LPWithdrawn",
      "type": "event"
    },
    {
      "anonymous": false,
      "inputs": [
        {
          "indexed": false,
          "internalType": "uint256",
          "name": "newMax",
          "type": "uint256"
        }
      ],
      "name": "MaxNodesUpdated",
      "type": "event"
    },
    {
      "anonymous": false,
      "inputs": [
        {
          "indexed": true,
          "internalType": "address",
          "name": "user",
          "type": "address"
        },
        {
          "indexed": false,
          "internalType": "uint256",
          "name": "nodeType",
          "type": "uint256"
        },
        {
          "indexed": false,
          "internalType": "uint256",
          "name": "timestamp",
          "type": "uint256"
        }
      ],
      "name": "NodeCreated",
      "type": "event"
    },
    {
      "anonymous": false,
      "inputs": [
        {
          "indexed": true,
          "internalType": "address",
          "name": "previousOwner",
          "type": "address"
        },
        {
          "indexed": true,
          "internalType": "address",
          "name": "newOwner",
          "type": "address"
        }
      ],
      "name": "OwnershipTransferred",
      "type": "event"
    },
    {
      "inputs": [],
      "name": "BURN_ADDRESS",
      "outputs": [
        {
          "internalType": "address",
          "name": "",
          "type": "address"
        }
      ],
      "stateMutability": "view",
      "type": "function"
    },
    {
      "inputs": [],
      "name": "BURN_COST",
      "outputs": [
        {
          "internalType": "uint256",
          "name": "",
          "type": "uint256"
        }
      ],
      "stateMutability": "view",
      "type": "function"
    },
    {
      "inputs": [],
      "name": "BURN_COST_2X",
      "outputs": [
        {
          "internalType": "uint256",
          "name": "",
          "type": "uint256"
        }
      ],
      "stateMutability": "view",
      "type": "function"
    },
    {
      "inputs": [],
      "name": "LP_COST",
      "outputs": [
        {
          "internalType": "uint256",
          "name": "",
          "type": "uint256"
        }
      ],
      "stateMutability": "view",
      "type": "function"
    },
    {
      "inputs": [],
      "name": "LP_COST_2X",
      "outputs": [
        {
          "internalType": "uint256",
          "name": "",
          "type": "uint256"
        }
      ],
      "stateMutability": "view",
      "type": "function"
    },
    {
      "inputs": [],
      "name": "PERIOD_DURATION",
      "outputs": [
        {
          "internalType": "uint256",
          "name": "",
          "type": "uint256"
        }
      ],
      "stateMutability": "view",
      "type": "function"
    },
    {
      "inputs": [],
      "name": "TOTAL_PERIODS",
      "outputs": [
        {
          "internalType": "uint256",
          "name": "",
          "type": "uint256"
        }
      ],
      "stateMutability": "view",
      "type": "function"
    },
    {
      "inputs": [],
      "name": "UNLOCK_PER_PERIOD",
      "outputs": [
        {
          "internalType": "uint256",
          "name": "",
          "type": "uint256"
        }
      ],
      "stateMutability": "view",
      "type": "function"
    },
    {
      "inputs": [],
      "name": "activeNodes",
      "outputs": [
        {
          "internalType": "uint256",
          "name": "",
          "type": "uint256"
        }
      ],
      "stateMutability": "view",
      "type": "function"
    },
    {
      "inputs": [],
      "name": "claimDividends",
      "outputs": [],
      "stateMutability": "nonpayable",
      "type": "function"
    },
    {
      "inputs": [],
      "name": "createNodeByBurn",
      "outputs": [],
      "stateMutability": "nonpayable",
      "type": "function"
    },
    {
      "inputs": [
        {
          "internalType": "uint256",
          "name": "_tftAmount",
          "type": "uint256"
        },
        {
          "internalType": "uint256",
          "name": "_usdtAmount",
          "type": "uint256"
        }
      ],
      "name": "createNodeByLP",
      "outputs": [],
      "stateMutability": "nonpayable",
      "type": "function"
    },
    {
      "inputs": [],
      "name": "createNodesByBurn",
      "outputs": [],
      "stateMutability": "nonpayable",
      "type": "function"
    },
    {
      "inputs": [
        {
          "internalType": "uint256",
          "name": "_tftAmount",
          "type": "uint256"
        },
        {
          "internalType": "uint256",
          "name": "_usdtAmount",
          "type": "uint256"
        }
      ],
      "name": "createNodesByLP",
      "outputs": [],
      "stateMutability": "nonpayable",
      "type": "function"
    },
    {
      "inputs": [],
      "name": "distributeDividends",
      "outputs": [],
      "stateMutability": "nonpayable",
      "type": "function"
    },
    {
      "inputs": [
        {
          "internalType": "address",
          "name": "_user",
          "type": "address"
        }
      ],
      "name": "getPendingDividends",
      "outputs": [
        {
          "internalType": "uint256",
          "name": "",
          "type": "uint256"
        }
      ],
      "stateMutability": "view",
      "type": "function"
    },
    {
      "inputs": [
        {
          "internalType": "address",
          "name": "_user",
          "type": "address"
        }
      ],
      "name": "getUserNodes",
      "outputs": [
        {
          "internalType": "uint256",
          "name": "nodeCount",
          "type": "uint256"
        },
        {
          "internalType": "uint256",
          "name": "burnNodes",
          "type": "uint256"
        },
        {
          "internalType": "uint256",
          "name": "lpNodes",
          "type": "uint256"
        },
        {
          "internalType": "uint256",
          "name": "lockedLP",
          "type": "uint256"
        },
        {
          "internalType": "uint256",
          "name": "unlockedLP",
          "type": "uint256"
        },
        {
          "internalType": "uint256",
          "name": "currentPeriod",
          "type": "uint256"
        }
      ],
      "stateMutability": "view",
      "type": "function"
    },
    {
      "inputs": [],
      "name": "maxNodes",
      "outputs": [
        {
          "internalType": "uint256",
          "name": "",
          "type": "uint256"
        }
      ],
      "stateMutability": "view",
      "type": "function"
    },
    {
      "inputs": [],
      "name": "owner",
      "outputs": [
        {
          "internalType": "address",
          "name": "",
          "type": "address"
        }
      ],
      "stateMutability": "view",
      "type": "function"
    },
    {
      "inputs": [
        {
          "internalType": "address",
          "name": "token",
          "type": "address"
        },
        {
          "internalType": "uint256",
          "name": "amount",
          "type": "uint256"
        }
      ],
      "name": "recoverTokens",
      "outputs": [],
      "stateMutability": "nonpayable",
      "type": "function"
    },
    {
      "inputs": [],
      "name": "renounceOwnership",
      "outputs": [],
      "stateMutability": "nonpayable",
      "type": "function"
    },
    {
      "inputs": [
        {
          "internalType": "uint256",
          "name": "_max",
          "type": "uint256"
        }
      ],
      "name": "setMaxNodes",
      "outputs": [],
      "stateMutability": "nonpayable",
      "type": "function"
    },
    {
      "inputs": [],
      "name": "tft",
      "outputs": [
        {
          "internalType": "contract IERC20",
          "name": "",
          "type": "address"
        }
      ],
      "stateMutability": "view",
      "type": "function"
    },
    {
      "inputs": [],
      "name": "totalDividendsDistributed",
      "outputs": [
        {
          "internalType": "uint256",
          "name": "",
          "type": "uint256"
        }
      ],
      "stateMutability": "view",
      "type": "function"
    },
    {
      "inputs": [
        {
          "internalType": "address",
          "name": "newOwner",
          "type": "address"
        }
      ],
      "name": "transferOwnership",
      "outputs": [],
      "stateMutability": "nonpayable",
      "type": "function"
    },
    {
      "inputs": [],
      "name": "usdt",
      "outputs": [
        {
          "internalType": "contract IERC20",
          "name": "",
          "type": "address"
        }
      ],
      "stateMutability": "view",
      "type": "function"
    },
    {
      "inputs": [
        {
          "internalType": "address",
          "name": "",
          "type": "address"
        }
      ],
      "name": "userClaimedDividends",
      "outputs": [
        {
          "internalType": "uint256",
          "name": "",
          "type": "uint256"
        }
      ],
      "stateMutability": "view",
      "type": "function"
    },
    {
      "inputs": [
        {
          "internalType": "address",
          "name": "",
          "type": "address"
        }
      ],
      "name": "userDividends",
      "outputs": [
        {
          "internalType": "uint256",
          "name": "",
          "type": "uint256"
        }
      ],
      "stateMutability": "view",
      "type": "function"
    },
    {
      "inputs": [
        {
          "internalType": "address",
          "name": "",
          "type": "address"
        }
      ],
      "name": "userLPLockup",
      "outputs": [
        {
          "internalType": "uint256",
          "name": "totalLP",
          "type": "uint256"
        },
        {
          "internalType": "uint256",
          "name": "unlockedLP",
          "type": "uint256"
        },
        {
          "internalType": "uint256",
          "name": "currentPeriod",
          "type": "uint256"
        },
        {
          "internalType": "uint256",
          "name": "lastUnlockTime",
          "type": "uint256"
        },
        {
          "internalType": "bool",
          "name": "active",
          "type": "bool"
        }
      ],
      "stateMutability": "view",
      "type": "function"
    },
    {
      "inputs": [
        {
          "internalType": "address",
          "name": "",
          "type": "address"
        }
      ],
      "name": "userNodeCount",
      "outputs": [
        {
          "internalType": "uint256",
          "name": "",
          "type": "uint256"
        }
      ],
      "stateMutability": "view",
      "type": "function"
    },
    {
      "inputs": [
        {
          "internalType": "address",
          "name": "",
          "type": "address"
        },
        {
          "internalType": "uint256",
          "name": "",
          "type": "uint256"
        }
      ],
      "name": "userNodes",
      "outputs": [
        {
          "internalType": "address",
          "name": "owner",
          "type": "address"
        },
        {
          "internalType": "uint256",
          "name": "nodeType",
          "type": "uint256"
        },
        {
          "internalType": "uint256",
          "name": "createdAt",
          "type": "uint256"
        },
        {
          "internalType": "bool",
          "name": "active",
          "type": "bool"
        }
      ],
      "stateMutability": "view",
      "type": "function"
    },
    {
      "inputs": [],
      "name": "withdrawLP",
      "outputs": [],
      "stateMutability": "nonpayable",
      "type": "function"
    }
  ],
  "bytecode": "0x60c060405260646001553480156200001657600080fd5b5060405162001de238038062001de28339810160408190526200003991620001a3565b33806200006157604051631e4fbdf760e01b8152600060048201526024015b60405180910390fd5b6200006c8162000136565b5060017f9b779b17422d0df92223018b32b4d1fa46e071723d6817e2486d003becc55f00556001600160a01b038216620000d75760405162461bcd60e51b815260206004820152600b60248201526a125b9d985b1a590815119560aa1b604482015260640162000058565b6001600160a01b0381166200011e5760405162461bcd60e51b815260206004820152600c60248201526b125b9d985b1a59081554d11560a21b604482015260640162000058565b6001600160a01b039182166080521660a052620001db565b600080546001600160a01b038381166001600160a01b0319831681178455604051919092169283917f8be0079c531659141344cd1fd0a4f28419497f9722a3daafe3b4186f6b6457e09190a35050565b80516001600160a01b03811681146200019e57600080fd5b919050565b60008060408385031215620001b757600080fd5b620001c28362000186565b9150620001d26020840162000186565b90509250929050565b60805160a051611b866200025c600039600081816103500152818161050501528181610b5e01528181610e36015281816112540152818161132401526114e60152600081816103ed015281816108ab0152818161094901528181610b2901528181610f4b01528181610fe9015281816112ea01526114b10152611b866000f3fe608060405234801561001057600080fd5b50600436106101f05760003560e01c80635848b9701161010f57806394abe16b116100a2578063ddf0185f11610071578063ddf0185f146104b8578063f2fde38b146104c1578063fccc2813146104d4578063fce3e42e146103b657600080fd5b806394abe16b14610482578063a1a64a1e1461048a578063a44c839414610492578063bb8cf25b146104a557600080fd5b8063715018a6116100de578063715018a61461042157806385a6b3ae146104295780638da5cb5b14610432578063909b2da11461044357600080fd5b80635848b970146103e05780635fbd83f4146103e85780636558954f1461040f578063668038e01461041957600080fd5b80632c3dcbc7116101875780634e4cdd30116101565780634e4cdd30146103a55780634e5510e5146103b65780635322e1a2146103c75780635521ceea146103cf57600080fd5b80632c3dcbc7146103385780632f48ab7d1461034b5780633406584e1461038a578063373d67dc1461039257600080fd5b80631265f652116101c35780631265f6521461024e5780632130fe231461026e578063215f9baa146102ae5780632469fd42146102ce57600080fd5b806303c83302146101f5578063069c9fae146101ff57806307f19651146102125780630aa617e61461022e575b600080fd5b6101fd6104dd565b005b6101fd61020d366004611955565b61067b565b61021b60025481565b6040519081526020015b60405180910390f35b61021b61023c36600461197f565b60086020526000908152604090205481565b61021b61025c36600461197f565b60076020526000908152604090205481565b61028161027c36600461197f565b610766565b604080519687526020870195909552938501929092526060840152608083015260a082015260c001610225565b61021b6102bc36600461197f565b60036020526000908152604090205481565b61030e6102dc36600461197f565b600560205260009081526040902080546001820154600283015460038401546004909401549293919290919060ff1685565b6040805195865260208601949094529284019190915260608301521515608082015260a001610225565b61021b61034636600461197f565b61084e565b6103727f000000000000000000000000000000000000000000000000000000000000000081565b6040516001600160a01b039091168152602001610225565b6101fd61085f565b6101fd6103a03660046119a1565b610a72565b61021b690a968163f0a57b40000081565b61021b69152d02c7e14af680000081565b61021b603281565b61021b692a5a058fc295ed00000081565b61021b60c881565b6103727f000000000000000000000000000000000000000000000000000000000000000081565b61021b62278d0081565b6101fd610d61565b6101fd610e8f565b61021b60065481565b6000546001600160a01b0316610372565b610456610451366004611955565b610ea1565b604080516001600160a01b03909516855260208501939093529183015215156060820152608001610225565b6101fd610ef4565b6101fd611135565b6101fd6104a03660046119c3565b6113c2565b6101fd6104b33660046119a1565b611405565b61021b60015481565b6101fd6104cf36600461197f565b61164b565b61037261dead81565b6104e5611689565b6104ed6116b6565b6040516370a0823160e01b81523060048201526000907f00000000000000000000000000000000000000000000000000000000000000006001600160a01b0316906370a0823190602401602060405180830381865afa158015610554573d6000803e3d6000fd5b505050506040513d601f19601f8201168201806040525081019061057891906119dc565b9050600081116105cf5760405162461bcd60e51b815260206004820152601a60248201527f4e6f206469766964656e647320746f206469737472696275746500000000000060448201526064015b60405180910390fd5b6000600254116106135760405162461bcd60e51b815260206004820152600f60248201526e4e6f20616374697665206e6f64657360881b60448201526064016105c6565b80600660008282546106259190611a0b565b90915550506040518181526000907f84fcdd4a7f507f2206dd50958e7473061bf941f91791c6ffaf74033a07c82f12906020015b60405180910390a2506106796001600080516020611b3183398151915255565b565b610683611689565b6001600160a01b0382166106d057600080546040516001600160a01b03909116914780156108fc02929091818181858888f193505050501580156106cb573d6000803e3d6000fd5b505050565b816001600160a01b031663a9059cbb6106f16000546001600160a01b031690565b6040516001600160e01b031960e084901b1681526001600160a01b039091166004820152602481018490526044016020604051808303816000875af115801561073e573d6000803e3d6000fd5b505050506040513d601f19601f820116820180604052508101906106cb9190611a1e565b5050565b6001600160a01b03811660009081526003602090815260408083205460059092528220600181015481549293928392839283928392916107a591611a40565b9350806001015492508060020154915060005b6001600160a01b038916600090815260046020526040902054811015610843576001600160a01b038916600090815260046020526040902080548290811061080257610802611a53565b90600052602060002090600402016001015460010361082d578661082581611a69565b97505061083b565b8561083781611a69565b9650505b6001016107b8565b505091939550919395565b6000610859826116d2565b92915050565b6108676116b6565b6001546002541061088a5760405162461bcd60e51b81526004016105c690611a82565b6040516370a0823160e01b815233600482015269152d02c7e14af6800000907f00000000000000000000000000000000000000000000000000000000000000006001600160a01b0316906370a0823190602401602060405180830381865afa1580156108fa573d6000803e3d6000fd5b505050506040513d601f19601f8201168201806040525081019061091e91906119dc565b101561093c5760405162461bcd60e51b81526004016105c690611aad565b61097d6001600160a01b037f0000000000000000000000000000000000000000000000000000000000000000163361dead69152d02c7e14af6800000611770565b33600081815260046020818152604080842081516080810183528681526001818501818152428386019081526060840183815285548085018755958a52878a2094519590980290930180546001600160a01b0319166001600160a01b03909516949094178455519083015551600282015592516003938401805460ff191691151591909117905593835252908120805491610a1783611a69565b909155505060028054906000610a2c83611a69565b909155505060408051600181524260208201523391600080516020611b1183398151915291015b60405180910390a26106796001600080516020611b3183398151915255565b610a7a6116b6565b60015460028054610a8a91611a0b565b1115610aa85760405162461bcd60e51b81526004016105c690611a82565b69152d02c7e14af6800000821015610ad25760405162461bcd60e51b81526004016105c690611aad565b60008111610b1c5760405162461bcd60e51b815260206004820152601760248201527605553445420616d6f756e74206d757374206265203e203604c1b60448201526064016105c6565b610b516001600160a01b037f000000000000000000000000000000000000000000000000000000000000000016333085611770565b610b866001600160a01b037f000000000000000000000000000000000000000000000000000000000000000016333084611770565b60005b6002811015610c5457336000818152600460208181526040808420815160808101835286815260028185018181524283860190815260016060850181815286548083018855968b52888b2095519690990290940180546001600160a01b0319166001600160a01b0390961695909517855590519284019290925590519082015592516003938401805460ff191691151591909117905593835252908120805491610c3283611a69565b909155505060028054906000610c4783611a69565b9091555050600101610b89565b506040805160a0810182528381526000602080830182815283850183815242606086018181526001608088018181523380895260058852978a90209851895594519088015591516002808801919091559151600387015591516004909501805460ff19169515159590951790945584519384529083015291600080516020611b11833981519152910160405180910390a260408051600281524260208201523391600080516020611b1183398151915291015b60405180910390a2604080518381526020810183905233917f7015130af49d5302a94a3e897b7db735211411b202eeb5f46e6ac2ffd4d08d69910160405180910390a26107626001600080516020611b3183398151915255565b610d696116b6565b33600090815260036020526040902054610db05760405162461bcd60e51b81526020600482015260086024820152674e6f206e6f64657360c01b60448201526064016105c6565b6000610dbb336116d2565b905060008111610e045760405162461bcd60e51b81526020600482015260146024820152734e6f2070656e64696e67206469766964656e647360601b60448201526064016105c6565b3360009081526008602052604081208054839290610e23908490611a0b565b90915550610e5d90506001600160a01b037f00000000000000000000000000000000000000000000000000000000000000001633836117ac565b60405181815233907f5efa67896a23b651b741b525caacba039c00ca7853be3de8eb1f4269e8669c5690602001610659565b610e97611689565b61067960006117e1565b60046020528160005260406000208181548110610ebd57600080fd5b600091825260209091206004909102018054600182015460028301546003909301546001600160a01b039092169450925060ff1684565b610efc6116b6565b60015460028054610f0c91611a0b565b1115610f2a5760405162461bcd60e51b81526004016105c690611a82565b6040516370a0823160e01b8152336004820152692a5a058fc295ed000000907f00000000000000000000000000000000000000000000000000000000000000006001600160a01b0316906370a0823190602401602060405180830381865afa158015610f9a573d6000803e3d6000fd5b505050506040513d601f19601f82011682018060405250810190610fbe91906119dc565b1015610fdc5760405162461bcd60e51b81526004016105c690611aad565b61101d6001600160a01b037f0000000000000000000000000000000000000000000000000000000000000000163361dead692a5a058fc295ed000000611770565b60005b60028110156110e55733600081815260046020818152604080842081516080810183528681526001818501818152428386019081526060840183815285548085018755958a52878a2094519590980290930180546001600160a01b0319166001600160a01b03909516949094178455519083015551600282015592516003938401805460ff1916911515919091179055938352529081208054916110c383611a69565b9091555050600280549060006110d883611a69565b9091555050600101611020565b5060408051600181524260208201523391600080516020611b11833981519152910160405180910390a260408051600181524260208201523391600080516020611b118339815191529101610a53565b61113d6116b6565b336000908152600560205260409020600481015460ff166111935760405162461bcd60e51b815260206004820152601060248201526f04e6f20616374697665206c6f636b75760841b60448201526064016105c6565b600062278d008260030154426111a99190611a40565b6111b39190611ad7565b905080156113a95760008183600201546111cd9190611a0b565b905060328111156111dc575060325b600061271060c88386600001546111f39190611af9565b6111fd9190611af9565b6112079190611ad7565b9050600084600101548261121b9190611a40565b905080156113a557600185018290556002850183905542600386015584546040516370a0823160e01b81523060048201526000919083907f00000000000000000000000000000000000000000000000000000000000000006001600160a01b0316906370a0823190602401602060405180830381865afa1580156112a3573d6000803e3d6000fd5b505050506040513d601f19601f820116820180604052508101906112c791906119dc565b6112d19190611af9565b6112db9190611ad7565b90506113116001600160a01b037f00000000000000000000000000000000000000000000000000000000000000001633846117ac565b801561134b5761134b6001600160a01b037f00000000000000000000000000000000000000000000000000000000000000001633836117ac565b604080518381526020810184905290810182905233907f976a45c1d615a430f80af25890a59aebdbb85305e0c9e38e59e1d86261822aac9060600160405180910390a2603284106113a35760048601805460ff191690555b505b5050505b50506106796001600080516020611b3183398151915255565b6113ca611689565b60018190556040518181527fb0e169ca184ef8208065f7c0bd968a40b0fc3565034e6a052d3698840f5965009060200160405180910390a150565b61140d6116b6565b600154600254106114305760405162461bcd60e51b81526004016105c690611a82565b690a968163f0a57b40000082101561145a5760405162461bcd60e51b81526004016105c690611aad565b600081116114a45760405162461bcd60e51b815260206004820152601760248201527605553445420616d6f756e74206d757374206265203e203604c1b60448201526064016105c6565b6114d96001600160a01b037f000000000000000000000000000000000000000000000000000000000000000016333085611770565b61150e6001600160a01b037f000000000000000000000000000000000000000000000000000000000000000016333084611770565b3360008181526004602081815260408084208151608080820184528782526002828601818152428487018181526001606080880182815289548084018b55998e528b8e209851998d0290980180546001600160a01b0319166001600160a01b03909a1699909917895593518882015590518785015594516003968701805460ff19908116921515929092179055875160a0810189528e8152808a018c8152818a018d81529482019384529581018781529c8c5260058a52888c209051815594519585019590955590519183019190915551818401559651969094018054909416951515959095179092559290925290812080549161160b83611a69565b90915550506002805490600061162083611a69565b909155505060408051600281524260208201523391600080516020611b118339815191529101610d07565b611653611689565b6001600160a01b03811661167d57604051631e4fbdf760e01b8152600060048201526024016105c6565b611686816117e1565b50565b6000546001600160a01b031633146106795760405163118cdaa760e01b81523360048201526024016105c6565b6116be611831565b6002600080516020611b3183398151915255565b60006002546000036116e657506000919050565b6006546002546001600160a01b0384166000908152600360205260408120549091906117129084611af9565b61171c9190611ad7565b6001600160a01b0385166000908152600860205260409020549091508111611745576000611768565b6001600160a01b0384166000908152600860205260409020546117689082611a40565b949350505050565b61177e848484846001611861565b6117a657604051635274afe760e01b81526001600160a01b03851660048201526024016105c6565b50505050565b6117b983838360016118d3565b6106cb57604051635274afe760e01b81526001600160a01b03841660048201526024016105c6565b600080546001600160a01b038381166001600160a01b0319831681178455604051919092169283917f8be0079c531659141344cd1fd0a4f28419497f9722a3daafe3b4186f6b6457e09190a35050565b600080516020611b318339815191525460020361067957604051633ee5aeb560e01b815260040160405180910390fd5b6040516323b872dd60e01b60008181526001600160a01b038781166004528616602452604485905291602083606481808c5af1925060016000511483166118c15783831516156118b4573d6000823e3d81fd5b6000883b113d1516831692505b60405250600060605295945050505050565b60405163a9059cbb60e01b60008181526001600160a01b038616600452602485905291602083604481808b5af19250600160005114831661192d578383151615611920573d6000823e3d81fd5b6000873b113d1516831692505b60405250949350505050565b80356001600160a01b038116811461195057600080fd5b919050565b6000806040838503121561196857600080fd5b61197183611939565b946020939093013593505050565b60006020828403121561199157600080fd5b61199a82611939565b9392505050565b600080604083850312156119b457600080fd5b50508035926020909101359150565b6000602082840312156119d557600080fd5b5035919050565b6000602082840312156119ee57600080fd5b5051919050565b634e487b7160e01b600052601160045260246000fd5b80820180821115610859576108596119f5565b600060208284031215611a3057600080fd5b8151801515811461199a57600080fd5b81810381811115610859576108596119f5565b634e487b7160e01b600052603260045260246000fd5b600060018201611a7b57611a7b6119f5565b5060010190565b60208082526011908201527013585e081b9bd9195cc81c995858da1959607a1b604082015260600190565b60208082526010908201526f125b9cdd59999a58da595b9d0815119560821b604082015260600190565b600082611af457634e487b7160e01b600052601260045260246000fd5b500490565b8082028115828204841417610859576108596119f556feed6196b8b5e9e7c4eb1f8dbf29ae12164c5b92535db3d0f77254960309f8bec29b779b17422d0df92223018b32b4d1fa46e071723d6817e2486d003becc55f00a264697066735822122094470d472a3d61b34bd6716aa60b4fabaf29bfa358d375a2464722a2feeee55564736f6c63430008180033",
  "linkReferences": {},
  "deployedLinkReferences": {}
}