{
  "_format": "hh-sol-artifact-1",
  "contractName": "PhaseControl",
  "sourceName": "src/PhaseControl.sol",
  "abi": [
    {
      "inputs": [
        {
          "internalType": "address",
          "name": "_tftToken",
          "type": "address"
        },
        {
          "internalType": "address",
          "name": "_insurancePool",
          "type": "address"
        },
        {
          "internalType": "address",
          "name": "_predictionMarket",
          "type": "address"
        },
        {
          "internalType": "address",
          "name": "_nodePartner",
          "type": "address"
        },
        {
          "internalType": "address",
          "name": "_marketMaker",
          "type": "address"
        }
      ],
      "stateMutability": "nonpayable",
      "type": "constructor"
    },
    {
      "inputs": [
        {
          "internalType": "address",
          "name": "owner",
          "type": "address"
        }
      ],
      "name": "OwnableInvalidOwner",
      "type": "error"
    },
    {
      "inputs": [
        {
          "internalType": "address",
          "name": "account",
          "type": "address"
        }
      ],
      "name": "OwnableUnauthorizedAccount",
      "type": "error"
    },
    {
      "anonymous": false,
      "inputs": [
        {
          "indexed": false,
          "internalType": "address",
          "name": "tft",
          "type": "address"
        },
        {
          "indexed": false,
          "internalType": "address",
          "name": "insurance",
          "type": "address"
        },
        {
          "indexed": false,
          "internalType": "address",
          "name": "prediction",
          "type": "address"
        },
        {
          "indexed": false,
          "internalType": "address",
          "name": "node",
          "type": "address"
        },
        {
          "indexed": false,
          "internalType": "address",
          "name": "market",
          "type": "address"
        }
      ],
      "name": "ContractAddressesUpdated",
      "type": "event"
    },
    {
      "anonymous": false,
      "inputs": [
        {
          "indexed": true,
          "internalType": "address",
          "name": "previousOwner",
          "type": "address"
        },
        {
          "indexed": true,
          "internalType": "address",
          "name": "newOwner",
          "type": "address"
        }
      ],
      "name": "OwnershipTransferred",
      "type": "event"
    },
    {
      "anonymous": false,
      "inputs": [
        {
          "indexed": false,
          "internalType": "enum PhaseControl.Phase",
          "name": "oldPhase",
          "type": "uint8"
        },
        {
          "indexed": false,
          "internalType": "enum PhaseControl.Phase",
          "name": "newPhase",
          "type": "uint8"
        },
        {
          "indexed": false,
          "internalType": "uint256",
          "name": "timestamp",
          "type": "uint256"
        }
      ],
      "name": "PhaseTransitioned",
      "type": "event"
    },
    {
      "anonymous": false,
      "inputs": [
        {
          "components": [
            {
              "internalType": "uint256",
              "name": "p1ToP2Holders",
              "type": "uint256"
            },
            {
              "internalType": "uint256",
              "name": "p1ToP2InsuranceTFT",
              "type": "uint256"
            },
            {
              "internalType": "uint256",
              "name": "p1ToP2Volume",
              "type": "uint256"
            },
            {
              "internalType": "uint256",
              "name": "p1ToP2Nodes",
              "type": "uint256"
            },
            {
              "internalType": "uint256",
              "name": "p1ToP2MinTime",
              "type": "uint256"
            },
            {
              "internalType": "uint256",
              "name": "p2ToP3Holders",
              "type": "uint256"
            },
            {
              "internalType": "uint256",
              "name": "p2ToP3TVL",
              "type": "uint256"
            },
            {
              "internalType": "uint256",
              "name": "p2ToP3DailyVolume",
              "type": "uint256"
            },
            {
              "internalType": "uint256",
              "name": "p2ToP3Nodes",
              "type": "uint256"
            },
            {
              "internalType": "uint256",
              "name": "p2ToP3MarketMakers",
              "type": "uint256"
            },
            {
              "internalType": "uint256",
              "name": "p2ToP3MinTime",
              "type": "uint256"
            }
          ],
          "indexed": false,
          "internalType": "struct PhaseControl.PhaseThresholds",
          "name": "newThresholds",
          "type": "tuple"
        }
      ],
      "name": "ThresholdsUpdated",
      "type": "event"
    },
    {
      "inputs": [],
      "name": "BUY_TAX",
      "outputs": [
        {
          "internalType": "uint256",
          "name": "",
          "type": "uint256"
        }
      ],
      "stateMutability": "view",
      "type": "function"
    },
    {
      "inputs": [],
      "name": "COLD_START_SELL_TAX",
      "outputs": [
        {
          "internalType": "uint256",
          "name": "",
          "type": "uint256"
        }
      ],
      "stateMutability": "view",
      "type": "function"
    },
    {
      "inputs": [],
      "name": "FULLY_OPEN_SELL_TAX",
      "outputs": [
        {
          "internalType": "uint256",
          "name": "",
          "type": "uint256"
        }
      ],
      "stateMutability": "view",
      "type": "function"
    },
    {
      "inputs": [],
      "name": "SEMI_OPEN_SELL_TAX",
      "outputs": [
        {
          "internalType": "uint256",
          "name": "",
          "type": "uint256"
        }
      ],
      "stateMutability": "view",
      "type": "function"
    },
    {
      "inputs": [],
      "name": "canTransitionToFullyOpen",
      "outputs": [
        {
          "internalType": "bool",
          "name": "",
          "type": "bool"
        }
      ],
      "stateMutability": "view",
      "type": "function"
    },
    {
      "inputs": [],
      "name": "canTransitionToSemiOpen",
      "outputs": [
        {
          "internalType": "bool",
          "name": "",
          "type": "bool"
        }
      ],
      "stateMutability": "view",
      "type": "function"
    },
    {
      "inputs": [],
      "name": "currentPhase",
      "outputs": [
        {
          "internalType": "enum PhaseControl.Phase",
          "name": "",
          "type": "uint8"
        }
      ],
      "stateMutability": "view",
      "type": "function"
    },
    {
      "inputs": [],
      "name": "getCurrentBuyTaxRate",
      "outputs": [
        {
          "internalType": "uint256",
          "name": "",
          "type": "uint256"
        }
      ],
      "stateMutability": "pure",
      "type": "function"
    },
    {
      "inputs": [],
      "name": "getCurrentSellTaxRate",
      "outputs": [
        {
          "internalType": "uint256",
          "name": "",
          "type": "uint256"
        }
      ],
      "stateMutability": "view",
      "type": "function"
    },
    {
      "inputs": [],
      "name": "getPhaseInfo",
      "outputs": [
        {
          "internalType": "enum PhaseControl.Phase",
          "name": "phase",
          "type": "uint8"
        },
        {
          "internalType": "string",
          "name": "phaseName",
          "type": "string"
        },
        {
          "internalType": "uint256",
          "name": "sellTaxRate",
          "type": "uint256"
        },
        {
          "internalType": "uint256",
          "name": "buyTaxRate",
          "type": "uint256"
        },
        {
          "internalType": "bool",
          "name": "tradingAllowed",
          "type": "bool"
        },
        {
          "internalType": "uint256",
          "name": "daysSinceLaunch",
          "type": "uint256"
        }
      ],
      "stateMutability": "view",
      "type": "function"
    },
    {
      "inputs": [],
      "name": "getPhaseName",
      "outputs": [
        {
          "internalType": "string",
          "name": "",
          "type": "string"
        }
      ],
      "stateMutability": "view",
      "type": "function"
    },
    {
      "inputs": [],
      "name": "insurancePool",
      "outputs": [
        {
          "internalType": "address",
          "name": "",
          "type": "address"
        }
      ],
      "stateMutability": "view",
      "type": "function"
    },
    {
      "inputs": [],
      "name": "isTradingAllowed",
      "outputs": [
        {
          "internalType": "bool",
          "name": "",
          "type": "bool"
        }
      ],
      "stateMutability": "view",
      "type": "function"
    },
    {
      "inputs": [],
      "name": "launchTime",
      "outputs": [
        {
          "internalType": "uint256",
          "name": "",
          "type": "uint256"
        }
      ],
      "stateMutability": "view",
      "type": "function"
    },
    {
      "inputs": [],
      "name": "marketMaker",
      "outputs": [
        {
          "internalType": "address",
          "name": "",
          "type": "address"
        }
      ],
      "stateMutability": "view",
      "type": "function"
    },
    {
      "inputs": [],
      "name": "nodePartner",
      "outputs": [
        {
          "internalType": "address",
          "name": "",
          "type": "address"
        }
      ],
      "stateMutability": "view",
      "type": "function"
    },
    {
      "inputs": [],
      "name": "owner",
      "outputs": [
        {
          "internalType": "address",
          "name": "",
          "type": "address"
        }
      ],
      "stateMutability": "view",
      "type": "function"
    },
    {
      "inputs": [],
      "name": "predictionMarket",
      "outputs": [
        {
          "internalType": "address",
          "name": "",
          "type": "address"
        }
      ],
      "stateMutability": "view",
      "type": "function"
    },
    {
      "inputs": [],
      "name": "renounceOwnership",
      "outputs": [],
      "stateMutability": "nonpayable",
      "type": "function"
    },
    {
      "inputs": [],
      "name": "tftToken",
      "outputs": [
        {
          "internalType": "address",
          "name": "",
          "type": "address"
        }
      ],
      "stateMutability": "view",
      "type": "function"
    },
    {
      "inputs": [],
      "name": "thresholds",
      "outputs": [
        {
          "internalType": "uint256",
          "name": "p1ToP2Holders",
          "type": "uint256"
        },
        {
          "internalType": "uint256",
          "name": "p1ToP2InsuranceTFT",
          "type": "uint256"
        },
        {
          "internalType": "uint256",
          "name": "p1ToP2Volume",
          "type": "uint256"
        },
        {
          "internalType": "uint256",
          "name": "p1ToP2Nodes",
          "type": "uint256"
        },
        {
          "internalType": "uint256",
          "name": "p1ToP2MinTime",
          "type": "uint256"
        },
        {
          "internalType": "uint256",
          "name": "p2ToP3Holders",
          "type": "uint256"
        },
        {
          "internalType": "uint256",
          "name": "p2ToP3TVL",
          "type": "uint256"
        },
        {
          "internalType": "uint256",
          "name": "p2ToP3DailyVolume",
          "type": "uint256"
        },
        {
          "internalType": "uint256",
          "name": "p2ToP3Nodes",
          "type": "uint256"
        },
        {
          "internalType": "uint256",
          "name": "p2ToP3MarketMakers",
          "type": "uint256"
        },
        {
          "internalType": "uint256",
          "name": "p2ToP3MinTime",
          "type": "uint256"
        }
      ],
      "stateMutability": "view",
      "type": "function"
    },
    {
      "inputs": [
        {
          "internalType": "address",
          "name": "newOwner",
          "type": "address"
        }
      ],
      "name": "transferOwnership",
      "outputs": [],
      "stateMutability": "nonpayable",
      "type": "function"
    },
    {
      "inputs": [],
      "name": "transitionToFullyOpen",
      "outputs": [],
      "stateMutability": "nonpayable",
      "type": "function"
    },
    {
      "inputs": [],
      "name": "transitionToSemiOpen",
      "outputs": [],
      "stateMutability": "nonpayable",
      "type": "function"
    },
    {
      "inputs": [
        {
          "internalType": "address",
          "name": "_tftToken",
          "type": "address"
        },
        {
          "internalType": "address",
          "name": "_insurancePool",
          "type": "address"
        },
        {
          "internalType": "address",
          "name": "_predictionMarket",
          "type": "address"
        },
        {
          "internalType": "address",
          "name": "_nodePartner",
          "type": "address"
        },
        {
          "internalType": "address",
          "name": "_marketMaker",
          "type": "address"
        }
      ],
      "name": "updateContractAddresses",
      "outputs": [],
      "stateMutability": "nonpayable",
      "type": "function"
    },
    {
      "inputs": [
        {
          "components": [
            {
              "internalType": "uint256",
              "name": "p1ToP2Holders",
              "type": "uint256"
            },
            {
              "internalType": "uint256",
              "name": "p1ToP2InsuranceTFT",
              "type": "uint256"
            },
            {
              "internalType": "uint256",
              "name": "p1ToP2Volume",
              "type": "uint256"
            },
            {
              "internalType": "uint256",
              "name": "p1ToP2Nodes",
              "type": "uint256"
            },
            {
              "internalType": "uint256",
              "name": "p1ToP2MinTime",
              "type": "uint256"
            },
            {
              "internalType": "uint256",
              "name": "p2ToP3Holders",
              "type": "uint256"
            },
            {
              "internalType": "uint256",
              "name": "p2ToP3TVL",
              "type": "uint256"
            },
            {
              "internalType": "uint256",
              "name": "p2ToP3DailyVolume",
              "type": "uint256"
            },
            {
              "internalType": "uint256",
              "name": "p2ToP3Nodes",
              "type": "uint256"
            },
            {
              "internalType": "uint256",
              "name": "p2ToP3MarketMakers",
              "type": "uint256"
            },
            {
              "internalType": "uint256",
              "name": "p2ToP3MinTime",
              "type": "uint256"
            }
          ],
          "internalType": "struct PhaseControl.PhaseThresholds",
          "name": "_thresholds",
          "type": "tuple"
        }
      ],
      "name": "updateThresholds",
      "outputs": [],
      "stateMutability": "nonpayable",
      "type": "function"
    }
  ],
  "bytecode": "0x60806040526000805460ff60a01b191690553480156200001e57600080fd5b506040516200122138038062001221833981016040819052620000419162000250565b33806200006957604051631e4fbdf760e01b8152600060048201526024015b60405180910390fd5b6200007481620001e3565b506001600160a01b038516620000bb5760405162461bcd60e51b815260206004820152600b60248201526a125b9d985b1a590815119560aa1b604482015260640162000060565b600d80546001600160a01b03199081166001600160a01b0397881617909155600e8054821695871695909517909455600f80548516938616939093179092556010805484169185169190911790556011805490921692169190911790554260015560408051610160810182526101f480825269152d02c7e14af68000006020830181905264174876e80093830184905260326060840181905262278d00608085018190526107d060a0860181905264746a52880060c087018190526402540be40060e0880181905260c8610100890181905260146101208a018190526276a700610140909a018a9052600298909855600396909655600498909855600593909355600691909155600755600855600993909355600a92909255600b91909155600c55620002c0565b600080546001600160a01b038381166001600160a01b0319831681178455604051919092169283917f8be0079c531659141344cd1fd0a4f28419497f9722a3daafe3b4186f6b6457e09190a35050565b80516001600160a01b03811681146200024b57600080fd5b919050565b600080600080600060a086880312156200026957600080fd5b620002748662000233565b9450620002846020870162000233565b9350620002946040870162000233565b9250620002a46060870162000233565b9150620002b46080870162000233565b90509295509295909350565b610f5180620002d06000396000f3fe608060405234801561001057600080fd5b506004361061018e5760003560e01c80639682f87a116100de578063cb99e4a611610097578063def114b611610071578063def114b614610383578063ea9134ec14610396578063eb94923514610193578063f2fde38b1461039e57600080fd5b8063cb99e4a6146102ed578063cda43b3a146102f5578063d43e16c71461037a57600080fd5b80639682f87a146102855780639d800e5714610298578063a48179ff146102b0578063a6f8e722146102b8578063ab2adc00146102d2578063becfe564146102e557600080fd5b806365dc24b81161014b578063790ca41311610125578063790ca413146102505780638a806aab146102595780638da5cb5b1461026c57806393a650881461027d57600080fd5b806365dc24b814610220578063715018a614610233578063717641051461023d57600080fd5b806302af37bb14610193578063055ad42e146101af57806308cf83a3146101d05780631f21f9af146101d8578063215d4b11146102035780635bca0bc214610218575b600080fd5b61019c61025881565b6040519081526020015b60405180910390f35b6000546101c390600160a01b900460ff1681565b6040516101a69190610b9c565b61019c6103b1565b6011546101eb906001600160a01b031681565b6040516001600160a01b0390911681526020016101a6565b61020b610411565b6040516101a69190610c00565b61019c600081565b600d546101eb906001600160a01b031681565b61023b6104c7565b005b61023b61024b366004610c36565b6104db565b61019c60015481565b61023b610267366004610cdb565b610594565b6000546001600160a01b03166101eb565b61023b6106a6565b6010546101eb906001600160a01b031681565b6102a06107b7565b60405190151581526020016101a6565b6102a0610807565b6102c061082f565b6040516101a696959493929190610d6e565b600e546101eb906001600160a01b031681565b6102a0610965565b61025861019c565b600254600354600454600554600654600754600854600954600a54600b54600c546103279a999897969594939291908b565b604080519b8c5260208c019a909a52988a01979097526060890195909552608088019390935260a087019190915260c086015260e0850152610100840152610120830152610140820152610160016101a6565b61019c6105dc81565b600f546101eb906001600160a01b031681565b61023b6109a1565b61023b6103ac366004610db3565b610aa9565b600080600054600160a01b900460ff1660028111156103d2576103d2610b64565b036103de575061271090565b6001600054600160a01b900460ff1660028111156103fe576103fe610b64565b0361040a57506105dc90565b5061025890565b606060008054600160a01b900460ff16600281111561043257610432610b64565b0361045b575060408051808201909152600981526810dbdb1914dd185c9d60ba1b602082015290565b6001600054600160a01b900460ff16600281111561047b5761047b610b64565b036104a3575060408051808201909152600881526729b2b6b4a7b832b760c11b602082015290565b50604080518082019091526009815268233ab6363ca7b832b760b91b602082015290565b6104cf610ae7565b6104d96000610b14565b565b6104e3610ae7565b600d80546001600160a01b038781166001600160a01b03199283168117909355600e80548883169084168117909155600f805488841690851681179091556010805488851690861681179091556011805494881694909516841790945560408051958652602086019290925290840152606083019190915260808201527fc4476e84b1a1a04ec0437465880dab744674e790ebe50042d0ff63311409120a9060a00160405180910390a15050505050565b61059c610ae7565b805160025560208101516003556040808201516004556060820151600555608082015160065560a082015160075560c082015160085560e0820151600955610100820151600a55610120820151600b55610140820151600c55517ffa05e9b711b2ded14c859c310c6a4f36b576bf490fe17d4888dfd02366e351fd9061069b908390600061016082019050825182526020830151602083015260408301516040830152606083015160608301526080830151608083015260a083015160a083015260c083015160c083015260e083015160e083015261010080840151818401525061012080840151818401525061014080840151818401525092915050565b60405180910390a150565b6106ae610ae7565b6001600054600160a01b900460ff1660028111156106ce576106ce610b64565b146107185760405162461bcd60e51b81526020600482015260156024820152744e6f7420696e2053656d694f70656e20706861736560581b60448201526064015b60405180910390fd5b6107206107b7565b6107615760405162461bcd60e51b815260206004820152601260248201527110dbdb991a5d1a5bdb9cc81b9bdd081b595d60721b604482015260640161070f565b6000805460ff60a01b198116600160a11b17909155604051600160a01b90910460ff16907fefa1fea20cc2d4af8027fccfa5980c7e135bc6ef13b99c6fea04c7ff3d7a39d09061069b9083906002904290610dce565b60006001600054600160a01b900460ff1660028111156107d9576107d9610b64565b146107e45750600090565b600c546001546107f49190610e0d565b4210156108015750600090565b50600190565b600080600054600160a01b900460ff16600281111561082857610828610b64565b1415905090565b60006060600080600080600060149054906101000a900460ff169550306001600160a01b031663215d4b116040518163ffffffff1660e01b8152600401600060405180830381865afa158015610889573d6000803e3d6000fd5b505050506040513d6000823e601f3d908101601f191682016040526108b19190810190610e20565b9450306001600160a01b03166308cf83a36040518163ffffffff1660e01b8152600401602060405180830381865afa1580156108f1573d6000803e3d6000fd5b505050506040513d601f19601f820116820180604052508101906109159190610ecd565b9350610258925060008054600160a01b900460ff16600281111561093b5761093b610b64565b1415915062015180600154426109519190610ee6565b61095b9190610ef9565b9050909192939495565b600080600054600160a01b900460ff16600281111561098657610986610b64565b146109915750600090565b6006546001546107f49190610e0d565b6109a9610ae7565b60008054600160a01b900460ff1660028111156109c8576109c8610b64565b14610a0e5760405162461bcd60e51b81526020600482015260166024820152754e6f7420696e20436f6c64537461727420706861736560501b604482015260640161070f565b610a16610965565b610a575760405162461bcd60e51b815260206004820152601260248201527110dbdb991a5d1a5bdb9cc81b9bdd081b595d60721b604482015260640161070f565b60008054600160a01b60ff60a01b198216811790925560405191900460ff16907fefa1fea20cc2d4af8027fccfa5980c7e135bc6ef13b99c6fea04c7ff3d7a39d09061069b9083906001904290610dce565b610ab1610ae7565b6001600160a01b038116610adb57604051631e4fbdf760e01b81526000600482015260240161070f565b610ae481610b14565b50565b6000546001600160a01b031633146104d95760405163118cdaa760e01b815233600482015260240161070f565b600080546001600160a01b038381166001600160a01b0319831681178455604051919092169283917f8be0079c531659141344cd1fd0a4f28419497f9722a3daafe3b4186f6b6457e09190a35050565b634e487b7160e01b600052602160045260246000fd5b60038110610b9857634e487b7160e01b600052602160045260246000fd5b9052565b60208101610baa8284610b7a565b92915050565b60005b83811015610bcb578181015183820152602001610bb3565b50506000910152565b60008151808452610bec816020860160208601610bb0565b601f01601f19169290920160200192915050565b602081526000610c136020830184610bd4565b9392505050565b80356001600160a01b0381168114610c3157600080fd5b919050565b600080600080600060a08688031215610c4e57600080fd5b610c5786610c1a565b9450610c6560208701610c1a565b9350610c7360408701610c1a565b9250610c8160608701610c1a565b9150610c8f60808701610c1a565b90509295509295909350565b634e487b7160e01b600052604160045260246000fd5b604051610160810167ffffffffffffffff81118282101715610cd557610cd5610c9b565b60405290565b60006101608284031215610cee57600080fd5b610cf6610cb1565b823581526020830135602082015260408301356040820152606083013560608201526080830135608082015260a083013560a082015260c083013560c082015260e083013560e08201526101008084013581830152506101208084013581830152506101408084013581830152508091505092915050565b610d788188610b7a565b60c060208201526000610d8e60c0830188610bd4565b6040830196909652506060810193909352901515608083015260a09091015292915050565b600060208284031215610dc557600080fd5b610c1382610c1a565b60608101610ddc8286610b7a565b610de96020830185610b7a565b826040830152949350505050565b634e487b7160e01b600052601160045260246000fd5b80820180821115610baa57610baa610df7565b600060208284031215610e3257600080fd5b815167ffffffffffffffff80821115610e4a57600080fd5b818401915084601f830112610e5e57600080fd5b815181811115610e7057610e70610c9b565b604051601f8201601f19908116603f01168101908382118183101715610e9857610e98610c9b565b81604052828152876020848701011115610eb157600080fd5b610ec2836020830160208801610bb0565b979650505050505050565b600060208284031215610edf57600080fd5b5051919050565b81810381811115610baa57610baa610df7565b600082610f1657634e487b7160e01b600052601260045260246000fd5b50049056fea26469706673582212203f76e536b1ede09accca3053831107ccaad714c1e5432c39bd7441707a615f2064736f6c63430008180033",
  "linkReferences": {},
  "deployedLinkReferences": {}
}