{
  "_format": "hh-sol-artifact-1",
  "contractName": "MarketMaker",
  "sourceName": "src/MarketMaker.sol",
  "abi": [
    {
      "inputs": [
        {
          "internalType": "address",
          "name": "_usdt",
          "type": "address"
        },
        {
          "internalType": "address",
          "name": "_tft",
          "type": "address"
        }
      ],
      "stateMutability": "nonpayable",
      "type": "constructor"
    },
    {
      "inputs": [
        {
          "internalType": "address",
          "name": "owner",
          "type": "address"
        }
      ],
      "name": "OwnableInvalidOwner",
      "type": "error"
    },
    {
      "inputs": [
        {
          "internalType": "address",
          "name": "account",
          "type": "address"
        }
      ],
      "name": "OwnableUnauthorizedAccount",
      "type": "error"
    },
    {
      "inputs": [],
      "name": "ReentrancyGuardReentrantCall",
      "type": "error"
    },
    {
      "inputs": [
        {
          "internalType": "address",
          "name": "token",
          "type": "address"
        }
      ],
      "name": "SafeERC20FailedOperation",
      "type": "error"
    },
    {
      "anonymous": false,
      "inputs": [
        {
          "indexed": false,
          "internalType": "uint256",
          "name": "amount",
          "type": "uint256"
        }
      ],
      "name": "FeeRevenueDistributed",
      "type": "event"
    },
    {
      "anonymous": false,
      "inputs": [
        {
          "indexed": true,
          "internalType": "address",
          "name": "user",
          "type": "address"
        },
        {
          "indexed": false,
          "internalType": "uint256",
          "name": "qualificationType",
          "type": "uint256"
        },
        {
          "indexed": false,
          "internalType": "uint256",
          "name": "timestamp",
          "type": "uint256"
        }
      ],
      "name": "MarketMakerQualified",
      "type": "event"
    },
    {
      "anonymous": false,
      "inputs": [
        {
          "indexed": true,
          "internalType": "address",
          "name": "user",
          "type": "address"
        }
      ],
      "name": "MarketMakerRevoked",
      "type": "event"
    },
    {
      "anonymous": false,
      "inputs": [
        {
          "indexed": true,
          "internalType": "address",
          "name": "previousOwner",
          "type": "address"
        },
        {
          "indexed": true,
          "internalType": "address",
          "name": "newOwner",
          "type": "address"
        }
      ],
      "name": "OwnershipTransferred",
      "type": "event"
    },
    {
      "anonymous": false,
      "inputs": [
        {
          "indexed": true,
          "internalType": "address",
          "name": "user",
          "type": "address"
        },
        {
          "indexed": false,
          "internalType": "uint256",
          "name": "directReferrals",
          "type": "uint256"
        },
        {
          "indexed": false,
          "internalType": "uint256",
          "name": "teamVolume",
          "type": "uint256"
        }
      ],
      "name": "ReferralUpdated",
      "type": "event"
    },
    {
      "anonymous": false,
      "inputs": [
        {
          "indexed": true,
          "internalType": "address",
          "name": "user",
          "type": "address"
        },
        {
          "indexed": false,
          "internalType": "uint256",
          "name": "volumeAmount",
          "type": "uint256"
        },
        {
          "indexed": false,
          "internalType": "uint256",
          "name": "feeAmount",
          "type": "uint256"
        },
        {
          "indexed": false,
          "internalType": "uint256",
          "name": "vipAmount",
          "type": "uint256"
        }
      ],
      "name": "RevenueClaimed",
      "type": "event"
    },
    {
      "anonymous": false,
      "inputs": [
        {
          "indexed": true,
          "internalType": "address",
          "name": "user",
          "type": "address"
        },
        {
          "indexed": false,
          "internalType": "uint256",
          "name": "vipIncome",
          "type": "uint256"
        }
      ],
      "name": "VIPIncomeUpdated",
      "type": "event"
    },
    {
      "anonymous": false,
      "inputs": [
        {
          "indexed": false,
          "internalType": "uint256",
          "name": "amount",
          "type": "uint256"
        }
      ],
      "name": "VIPRevenueDistributed",
      "type": "event"
    },
    {
      "anonymous": false,
      "inputs": [
        {
          "indexed": false,
          "internalType": "uint256",
          "name": "amount",
          "type": "uint256"
        }
      ],
      "name": "VolumeRevenueDistributed",
      "type": "event"
    },
    {
      "inputs": [],
      "name": "FEE_SHARE_RATE",
      "outputs": [
        {
          "internalType": "uint256",
          "name": "",
          "type": "uint256"
        }
      ],
      "stateMutability": "view",
      "type": "function"
    },
    {
      "inputs": [],
      "name": "MIN_DIRECT_REFERRALS",
      "outputs": [
        {
          "internalType": "uint256",
          "name": "",
          "type": "uint256"
        }
      ],
      "stateMutability": "view",
      "type": "function"
    },
    {
      "inputs": [],
      "name": "MIN_TEAM_VOLUME",
      "outputs": [
        {
          "internalType": "uint256",
          "name": "",
          "type": "uint256"
        }
      ],
      "stateMutability": "view",
      "type": "function"
    },
    {
      "inputs": [],
      "name": "MIN_VIP_INCOME",
      "outputs": [
        {
          "internalType": "uint256",
          "name": "",
          "type": "uint256"
        }
      ],
      "stateMutability": "view",
      "type": "function"
    },
    {
      "inputs": [],
      "name": "VOLUME_SHARE_RATE",
      "outputs": [
        {
          "internalType": "uint256",
          "name": "",
          "type": "uint256"
        }
      ],
      "stateMutability": "view",
      "type": "function"
    },
    {
      "inputs": [],
      "name": "claimRevenue",
      "outputs": [],
      "stateMutability": "nonpayable",
      "type": "function"
    },
    {
      "inputs": [
        {
          "internalType": "address",
          "name": "",
          "type": "address"
        }
      ],
      "name": "claimedFeeRevenue",
      "outputs": [
        {
          "internalType": "uint256",
          "name": "",
          "type": "uint256"
        }
      ],
      "stateMutability": "view",
      "type": "function"
    },
    {
      "inputs": [
        {
          "internalType": "address",
          "name": "",
          "type": "address"
        }
      ],
      "name": "claimedVIPRevenue",
      "outputs": [
        {
          "internalType": "uint256",
          "name": "",
          "type": "uint256"
        }
      ],
      "stateMutability": "view",
      "type": "function"
    },
    {
      "inputs": [
        {
          "internalType": "address",
          "name": "",
          "type": "address"
        }
      ],
      "name": "claimedVolumeRevenue",
      "outputs": [
        {
          "internalType": "uint256",
          "name": "",
          "type": "uint256"
        }
      ],
      "stateMutability": "view",
      "type": "function"
    },
    {
      "inputs": [
        {
          "internalType": "uint256",
          "name": "_amount",
          "type": "uint256"
        }
      ],
      "name": "distributeFeeRevenue",
      "outputs": [],
      "stateMutability": "nonpayable",
      "type": "function"
    },
    {
      "inputs": [
        {
          "internalType": "uint256",
          "name": "_amount",
          "type": "uint256"
        }
      ],
      "name": "distributeVIPRevenue",
      "outputs": [],
      "stateMutability": "nonpayable",
      "type": "function"
    },
    {
      "inputs": [
        {
          "internalType": "uint256",
          "name": "_amount",
          "type": "uint256"
        }
      ],
      "name": "distributeVolumeRevenue",
      "outputs": [],
      "stateMutability": "nonpayable",
      "type": "function"
    },
    {
      "inputs": [],
      "name": "feeAccumulator",
      "outputs": [
        {
          "internalType": "uint256",
          "name": "",
          "type": "uint256"
        }
      ],
      "stateMutability": "view",
      "type": "function"
    },
    {
      "inputs": [
        {
          "internalType": "address",
          "name": "_user",
          "type": "address"
        }
      ],
      "name": "getMarketMakerInfo",
      "outputs": [
        {
          "internalType": "bool",
          "name": "isMarketMaker",
          "type": "bool"
        },
        {
          "internalType": "uint256",
          "name": "qualifiedAt",
          "type": "uint256"
        },
        {
          "internalType": "uint256",
          "name": "qualificationType",
          "type": "uint256"
        },
        {
          "internalType": "uint256",
          "name": "directReferrals",
          "type": "uint256"
        },
        {
          "internalType": "uint256",
          "name": "teamVolume",
          "type": "uint256"
        },
        {
          "internalType": "uint256",
          "name": "vipIncome",
          "type": "uint256"
        }
      ],
      "stateMutability": "view",
      "type": "function"
    },
    {
      "inputs": [
        {
          "internalType": "address",
          "name": "_user",
          "type": "address"
        }
      ],
      "name": "getPendingRevenue",
      "outputs": [
        {
          "internalType": "uint256",
          "name": "volumePending",
          "type": "uint256"
        },
        {
          "internalType": "uint256",
          "name": "feePending",
          "type": "uint256"
        },
        {
          "internalType": "uint256",
          "name": "vipPending",
          "type": "uint256"
        },
        {
          "internalType": "uint256",
          "name": "totalPending",
          "type": "uint256"
        }
      ],
      "stateMutability": "view",
      "type": "function"
    },
    {
      "inputs": [
        {
          "internalType": "address",
          "name": "_user",
          "type": "address"
        }
      ],
      "name": "getQualificationProgress",
      "outputs": [
        {
          "internalType": "bool",
          "name": "method1Qualified",
          "type": "bool"
        },
        {
          "internalType": "bool",
          "name": "method2Qualified",
          "type": "bool"
        },
        {
          "internalType": "uint256",
          "name": "directReferralsProgress",
          "type": "uint256"
        },
        {
          "internalType": "uint256",
          "name": "teamVolumeProgress",
          "type": "uint256"
        },
        {
          "internalType": "uint256",
          "name": "vipIncomeProgress",
          "type": "uint256"
        }
      ],
      "stateMutability": "view",
      "type": "function"
    },
    {
      "inputs": [],
      "name": "getTotalMarketMakers",
      "outputs": [
        {
          "internalType": "uint256",
          "name": "",
          "type": "uint256"
        }
      ],
      "stateMutability": "view",
      "type": "function"
    },
    {
      "inputs": [
        {
          "internalType": "uint256",
          "name": "",
          "type": "uint256"
        }
      ],
      "name": "marketMakerList",
      "outputs": [
        {
          "internalType": "address",
          "name": "",
          "type": "address"
        }
      ],
      "stateMutability": "view",
      "type": "function"
    },
    {
      "inputs": [
        {
          "internalType": "address",
          "name": "",
          "type": "address"
        }
      ],
      "name": "marketMakers",
      "outputs": [
        {
          "internalType": "address",
          "name": "user",
          "type": "address"
        },
        {
          "internalType": "uint256",
          "name": "qualifiedAt",
          "type": "uint256"
        },
        {
          "internalType": "uint256",
          "name": "directReferrals",
          "type": "uint256"
        },
        {
          "internalType": "uint256",
          "name": "teamVolume",
          "type": "uint256"
        },
        {
          "internalType": "uint256",
          "name": "vipIncome",
          "type": "uint256"
        },
        {
          "internalType": "uint256",
          "name": "qualificationType",
          "type": "uint256"
        },
        {
          "internalType": "bool",
          "name": "active",
          "type": "bool"
        }
      ],
      "stateMutability": "view",
      "type": "function"
    },
    {
      "inputs": [],
      "name": "owner",
      "outputs": [
        {
          "internalType": "address",
          "name": "",
          "type": "address"
        }
      ],
      "stateMutability": "view",
      "type": "function"
    },
    {
      "inputs": [],
      "name": "predictionMarket",
      "outputs": [
        {
          "internalType": "address",
          "name": "",
          "type": "address"
        }
      ],
      "stateMutability": "view",
      "type": "function"
    },
    {
      "inputs": [
        {
          "internalType": "address",
          "name": "token",
          "type": "address"
        },
        {
          "internalType": "uint256",
          "name": "amount",
          "type": "uint256"
        }
      ],
      "name": "recoverTokens",
      "outputs": [],
      "stateMutability": "nonpayable",
      "type": "function"
    },
    {
      "inputs": [],
      "name": "renounceOwnership",
      "outputs": [],
      "stateMutability": "nonpayable",
      "type": "function"
    },
    {
      "inputs": [
        {
          "internalType": "address",
          "name": "_market",
          "type": "address"
        }
      ],
      "name": "setPredictionMarket",
      "outputs": [],
      "stateMutability": "nonpayable",
      "type": "function"
    },
    {
      "inputs": [],
      "name": "tft",
      "outputs": [
        {
          "internalType": "contract IERC20",
          "name": "",
          "type": "address"
        }
      ],
      "stateMutability": "view",
      "type": "function"
    },
    {
      "inputs": [],
      "name": "totalFeeRevenue",
      "outputs": [
        {
          "internalType": "uint256",
          "name": "",
          "type": "uint256"
        }
      ],
      "stateMutability": "view",
      "type": "function"
    },
    {
      "inputs": [],
      "name": "totalMarketMakers",
      "outputs": [
        {
          "internalType": "uint256",
          "name": "",
          "type": "uint256"
        }
      ],
      "stateMutability": "view",
      "type": "function"
    },
    {
      "inputs": [],
      "name": "totalVIPRevenue",
      "outputs": [
        {
          "internalType": "uint256",
          "name": "",
          "type": "uint256"
        }
      ],
      "stateMutability": "view",
      "type": "function"
    },
    {
      "inputs": [],
      "name": "totalVolumeRevenue",
      "outputs": [
        {
          "internalType": "uint256",
          "name": "",
          "type": "uint256"
        }
      ],
      "stateMutability": "view",
      "type": "function"
    },
    {
      "inputs": [
        {
          "internalType": "address",
          "name": "newOwner",
          "type": "address"
        }
      ],
      "name": "transferOwnership",
      "outputs": [],
      "stateMutability": "nonpayable",
      "type": "function"
    },
    {
      "inputs": [
        {
          "internalType": "address",
          "name": "_user",
          "type": "address"
        },
        {
          "internalType": "uint256",
          "name": "_directReferrals",
          "type": "uint256"
        },
        {
          "internalType": "uint256",
          "name": "_teamVolume",
          "type": "uint256"
        }
      ],
      "name": "updateReferralMetrics",
      "outputs": [],
      "stateMutability": "nonpayable",
      "type": "function"
    },
    {
      "inputs": [
        {
          "internalType": "address",
          "name": "_user",
          "type": "address"
        },
        {
          "internalType": "uint256",
          "name": "_vipIncome",
          "type": "uint256"
        }
      ],
      "name": "updateVIPIncome",
      "outputs": [],
      "stateMutability": "nonpayable",
      "type": "function"
    },
    {
      "inputs": [],
      "name": "usdt",
      "outputs": [
        {
          "internalType": "contract IERC20",
          "name": "",
          "type": "address"
        }
      ],
      "stateMutability": "view",
      "type": "function"
    },
    {
      "inputs": [
        {
          "internalType": "address",
          "name": "",
          "type": "address"
        }
      ],
      "name": "userFeeDebt",
      "outputs": [
        {
          "internalType": "uint256",
          "name": "",
          "type": "uint256"
        }
      ],
      "stateMutability": "view",
      "type": "function"
    },
    {
      "inputs": [
        {
          "internalType": "address",
          "name": "",
          "type": "address"
        }
      ],
      "name": "userVIPDebt",
      "outputs": [
        {
          "internalType": "uint256",
          "name": "",
          "type": "uint256"
        }
      ],
      "stateMutability": "view",
      "type": "function"
    },
    {
      "inputs": [
        {
          "internalType": "address",
          "name": "",
          "type": "address"
        }
      ],
      "name": "userVolumeDebt",
      "outputs": [
        {
          "internalType": "uint256",
          "name": "",
          "type": "uint256"
        }
      ],
      "stateMutability": "view",
      "type": "function"
    },
    {
      "inputs": [],
      "name": "vipAccumulator",
      "outputs": [
        {
          "internalType": "uint256",
          "name": "",
          "type": "uint256"
        }
      ],
      "stateMutability": "view",
      "type": "function"
    },
    {
      "inputs": [],
      "name": "volumeAccumulator",
      "outputs": [
        {
          "internalType": "uint256",
          "name": "",
          "type": "uint256"
        }
      ],
      "stateMutability": "view",
      "type": "function"
    }
  ],
  "bytecode": "0x60c06040523480156200001157600080fd5b50604051620019aa380380620019aa83398101604081905262000034916200019e565b33806200005c57604051631e4fbdf760e01b8152600060048201526024015b60405180910390fd5b620000678162000131565b5060017f9b779b17422d0df92223018b32b4d1fa46e071723d6817e2486d003becc55f00556001600160a01b038216620000d35760405162461bcd60e51b815260206004820152600c60248201526b125b9d985b1a59081554d11560a21b604482015260640162000053565b6001600160a01b038116620001195760405162461bcd60e51b815260206004820152600b60248201526a125b9d985b1a590815119560aa1b604482015260640162000053565b6001600160a01b039182166080521660a052620001d6565b600080546001600160a01b038381166001600160a01b0319831681178455604051919092169283917f8be0079c531659141344cd1fd0a4f28419497f9722a3daafe3b4186f6b6457e09190a35050565b80516001600160a01b03811681146200019957600080fd5b919050565b60008060408385031215620001b257600080fd5b620001bd8362000181565b9150620001cd6020840162000181565b90509250929050565b60805160a05161179262000218600039600061044701526000818161036c015281816108ad01528181610dc501528181610ebe015261112501526117926000f3fe608060405234801561001057600080fd5b50600436106102325760003560e01c8063715018a611610130578063b58ea07d116100b8578063e38e7ca11161007c578063e38e7ca114610569578063f2fde38b14610571578063f42edb9814610584578063f51ae93e146105a4578063f60559eb146105c457600080fd5b8063b58ea07d14610516578063be13169714610536578063c4a5d1f214610546578063d07c09bc1461054e578063def114b61461055657600080fd5b806381b7911b116100ff57806381b7911b146104cd57806381e865c0146104e057806387f105be146104f357806388a62ffc146104fc5780638da5cb5b1461050557600080fd5b8063715018a61461048957806375774e091461049157806377ccc87c146104a457806378ce0ba7146104c457600080fd5b80632f48ab7d116101be57806345de52e51161018257806345de52e514610411578063564f4f76146104315780635eaea35f146104395780635fbd83f41461044257806360d5fdf91461046957600080fd5b80632f48ab7d1461036757806333a7c2b6146103a657806335ed6300146103e35780633be189ea146103eb57806345ad2396146103fe57600080fd5b806312eef0f31161020557806312eef0f3146102ff578063220cadbe1461030f5780632283ed7d146103425780632b0236421461034b5780632e8f119c1461035457600080fd5b806303b88ba214610237578063069c9fae1461024c57806310fdedbd1461025f5780631149edf9146102e8575b600080fd5b61024a61024536600461159e565b61065d565b005b61024a61025a3660046115b9565b610687565b6102b461026d36600461159e565b6001600160a01b0316600090815260026020819052604090912060068101546001820154600583015493830154600384015460049094015460ff9093169591949390929091565b6040805196151587526020870195909552938501929092526060840152608083015260a082015260c0015b60405180910390f35b6102f160045481565b6040519081526020016102df565b6102f1681b1ae4d6e2ef50000081565b61032261031d36600461159e565b61076e565b6040805194855260208501939093529183015260608201526080016102df565b6102f1600d5481565b6102f160065481565b61024a6103623660046115e3565b610845565b61038e7f000000000000000000000000000000000000000000000000000000000000000081565b6040516001600160a01b0390911681526020016102df565b6103b96103b436600461159e565b61096f565b6040805195151586529315156020860152928401919091526060830152608082015260a0016102df565b6102f1600a81565b61024a6103f93660046115fc565b610a68565b61038e61040c3660046115e3565b610bda565b6102f161041f36600461159e565b60096020526000908152604090205481565b61024a610c04565b6102f1600c5481565b61038e7f000000000000000000000000000000000000000000000000000000000000000081565b6102f161047736600461159e565b600a6020526000908152604090205481565b61024a610e4d565b61024a61049f3660046115e3565b610e5f565b6102f16104b236600461159e565b600f6020526000908152604090205481565b6102f160075481565b61024a6104db3660046115b9565b610f62565b61024a6104ee3660046115e3565b6110c6565b6102f1600b5481565b6102f160055481565b6000546001600160a01b031661038e565b6102f161052436600461159e565b60106020526000908152604090205481565b6102f1686c6b935b8bbd40000081565b6004546102f1565b6102f1606481565b60015461038e906001600160a01b031681565b6102f1601e81565b61024a61057f36600461159e565b6111c9565b6102f161059236600461159e565b60086020526000908152604090205481565b6102f16105b236600461159e565b600e6020526000908152604090205481565b61061c6105d236600461159e565b600260208190526000918252604090912080546001820154928201546003830154600484015460058501546006909501546001600160a01b03909416959492939192909160ff1687565b604080516001600160a01b0390981688526020880196909652948601939093526060850191909152608084015260a0830152151560c082015260e0016102df565b610665611204565b600180546001600160a01b0319166001600160a01b0392909216919091179055565b61068f611204565b6001600160a01b0382166106dc57600080546040516001600160a01b03909116914780156108fc02929091818181858888f193505050501580156106d7573d6000803e3d6000fd5b505050565b816001600160a01b031663a9059cbb6106fd6000546001600160a01b031690565b6040516001600160e01b031960e084901b1681526001600160a01b039091166004820152602481018490526044016020604051808303816000875af115801561074a573d6000803e3d6000fd5b505050506040513d601f19601f820116820180604052508101906106d7919061162f565b6001600160a01b038116600090815260026020526040812060068101548291829182919060ff166107ad5760008060008094509450945094505061083e565b600b546001600160a01b0387166000908152600e60205260409020546107d39190611231565b600c546001600160a01b0388166000908152600f60205260409020549196506107fb91611231565b600d546001600160a01b03881660009081526010602052604090205491955061082391611231565b925082610830858761166e565b61083a919061166e565b9150505b9193509193565b61084d611204565b610855611269565b6000811161087e5760405162461bcd60e51b815260040161087590611681565b60405180910390fd5b6000600454116108a05760405162461bcd60e51b8152600401610875906116ad565b6108d56001600160a01b037f000000000000000000000000000000000000000000000000000000000000000016333084611285565b80600660008282546108e7919061166e565b909155505060045461090182670de0b6b3a76400006116d7565b61090b91906116ee565b600c600082825461091c919061166e565b90915550506040518181527f28e69eb295c69233e4c8a801724905c4dca493b5d36ebf8e4d7e057d3a42e5a4906020015b60405180910390a161096c600160008051602061173d83398151915255565b50565b6001600160a01b03811660009081526002602081905260408220908101548291829182918291600a118015906109b25750686c6b935b8bbd400000816003015410155b9550681b1ae4d6e2ef500000816004015410159450600a816002015460646109da91906116d7565b6109e491906116ee565b935060648411156109f457606493505b686c6b935b8bbd40000081600301546064610a0f91906116d7565b610a1991906116ee565b92506064831115610a2957606492505b681b1ae4d6e2ef50000081600401546064610a4491906116d7565b610a4e91906116ee565b91506064821115610a5e57606491505b5091939590929450565b610a70611204565b6001600160a01b0380841660009081526002602052604090208054909116610b78576040805160e0810182526001600160a01b03808716808352600060208085018281528587018a8152606087018a81526080880185815260a0890186815260c08a018781528888526002968790529a872099518a5499166001600160a01b0319998a16178a55935160018a81019190915592519489019490945551600380890191909155925160048801559051600587015595516006909501805495151560ff199096169590951790945583549485018455929092527fc2575a0e9e593c00f959f8c92f12db2869c3395a3b0502d05e2516446f71f85b9092018054909216179055610b87565b60028101839055600381018290555b60408051848152602081018490526001600160a01b038616917f287728de490e52dcd92d740e934e00b5f3b4e26ffc3bb97012eaa74dfd143e9d910160405180910390a2610bd4846112bb565b50505050565b60038181548110610bea57600080fd5b6000918252602090912001546001600160a01b0316905081565b610c0c611269565b336000908152600260205260409020600681015460ff16610c645760405162461bcd60e51b81526020600482015260126024820152712737ba10309036b0b935b2ba1036b0b5b2b960711b6044820152606401610875565b600b54336000908152600e60205260408120549091610c8291611231565b600c54336000908152600f602052604081205492935091610ca39190611231565b600d543360009081526010602052604081205492935091610cc49190611231565b9050600081610cd3848661166e565b610cdd919061166e565b905060008111610d245760405162461bcd60e51b81526020600482015260126024820152714e6f2070656e64696e6720726576656e756560701b6044820152606401610875565b600b54336000908152600e6020908152604080832093909355600c54600f825283832055600d546010825283832055600890529081208054869290610d6a90849061166e565b90915550503360009081526009602052604081208054859290610d8e90849061166e565b9091555050336000908152600a602052604081208054849290610db290849061166e565b90915550610dec90506001600160a01b037f00000000000000000000000000000000000000000000000000000000000000001633836113f5565b604080518581526020810185905290810183905233907fa6a733ca18bb5e607098e6d04401c6fc94564cbd5136e6974eee691fc107d92f9060600160405180910390a25050505050610e4b600160008051602061173d83398151915255565b565b610e55611204565b610e4b600061142a565b610e67611204565b610e6f611269565b60008111610e8f5760405162461bcd60e51b815260040161087590611681565b600060045411610eb15760405162461bcd60e51b8152600401610875906116ad565b610ee66001600160a01b037f000000000000000000000000000000000000000000000000000000000000000016333084611285565b8060056000828254610ef8919061166e565b9091555050600454610f1282670de0b6b3a76400006116d7565b610f1c91906116ee565b600b6000828254610f2d919061166e565b90915550506040518181527fe82491c23d04c707994e3c317b3491f6352943b0e1b0c9c2a6f236e98fab5b2e9060200161094d565b610f6a611204565b6001600160a01b0380831660009081526002602052604090208054909116611072576040805160e0810182526001600160a01b038086168083526000602080850182815285870183815260608701848152608088018b815260a0890186815260c08a018781528888526002968790529a872099518a5499166001600160a01b0319998a16178a55935160018a81019190915592519489019490945551600380890191909155925160048801559051600587015595516006909501805495151560ff199096169590951790945583549485018455929092527fc2575a0e9e593c00f959f8c92f12db2869c3395a3b0502d05e2516446f71f85b909201805490921617905561107a565b600481018290555b826001600160a01b03167f7d87bc50cf053abb35f16fe25abd21f8ff89f332359ddde7475c84424d492aef836040516110b591815260200190565b60405180910390a26106d7836112bb565b6110ce611204565b6110d6611269565b600081116110f65760405162461bcd60e51b815260040161087590611681565b6000600454116111185760405162461bcd60e51b8152600401610875906116ad565b61114d6001600160a01b037f000000000000000000000000000000000000000000000000000000000000000016333084611285565b806007600082825461115f919061166e565b909155505060045461117982670de0b6b3a76400006116d7565b61118391906116ee565b600d6000828254611194919061166e565b90915550506040518181527f191bea3de290798f6f3e519f45907c8501e9925b163bbdce5d2942dbef1bebb59060200161094d565b6111d1611204565b6001600160a01b0381166111fb57604051631e4fbdf760e01b815260006004820152602401610875565b61096c8161142a565b6000546001600160a01b03163314610e4b5760405163118cdaa760e01b8152336004820152602401610875565b60008183101561124357506000611263565b670de0b6b3a76400006112568385611710565b61126091906116ee565b90505b92915050565b61127161147a565b600260008051602061173d83398151915255565b6112938484848460016114aa565b610bd457604051635274afe760e01b81526001600160a01b0385166004820152602401610875565b6001600160a01b0381166000908152600260205260409020600681015460ff16156112e4575050565b6000600a8260020154101580156113085750686c6b935b8bbd400000826003015410155b6004830154909150681b1ae4d6e2ef500000111581806113255750805b15610bd45760068301805460ff1916600190811790915542908401558161134d576002611350565b60015b60ff1660058401556004805490600061136883611723565b9091555050600b546001600160a01b0385166000818152600e6020908152604080832094909455600c54600f825284832055600d54601090915290839020556005850154915190917f24372a8bdc6136cfccd21ee8dc521cc7b3f257f636f4f82234c52ad28f9eff42916113e791904290918252602082015260400190565b60405180910390a250505050565b611402838383600161151c565b6106d757604051635274afe760e01b81526001600160a01b0384166004820152602401610875565b600080546001600160a01b038381166001600160a01b0319831681178455604051919092169283917f8be0079c531659141344cd1fd0a4f28419497f9722a3daafe3b4186f6b6457e09190a35050565b60008051602061173d83398151915254600203610e4b57604051633ee5aeb560e01b815260040160405180910390fd5b6040516323b872dd60e01b60008181526001600160a01b038781166004528616602452604485905291602083606481808c5af19250600160005114831661150a5783831516156114fd573d6000823e3d81fd5b6000883b113d1516831692505b60405250600060605295945050505050565b60405163a9059cbb60e01b60008181526001600160a01b038616600452602485905291602083604481808b5af192506001600051148316611576578383151615611569573d6000823e3d81fd5b6000873b113d1516831692505b60405250949350505050565b80356001600160a01b038116811461159957600080fd5b919050565b6000602082840312156115b057600080fd5b61126082611582565b600080604083850312156115cc57600080fd5b6115d583611582565b946020939093013593505050565b6000602082840312156115f557600080fd5b5035919050565b60008060006060848603121561161157600080fd5b61161a84611582565b95602085013595506040909401359392505050565b60006020828403121561164157600080fd5b8151801515811461165157600080fd5b9392505050565b634e487b7160e01b600052601160045260246000fd5b8082018082111561126357611263611658565b6020808252601290820152710416d6f756e74206d757374206265203e20360741b604082015260600190565b60208082526010908201526f4e6f206d61726b6574206d616b65727360801b604082015260600190565b808202811582820484141761126357611263611658565b60008261170b57634e487b7160e01b600052601260045260246000fd5b500490565b8181038181111561126357611263611658565b60006001820161173557611735611658565b506001019056fe9b779b17422d0df92223018b32b4d1fa46e071723d6817e2486d003becc55f00a2646970667358221220a51a2c0eaae3ba35fd50e9375609be91daeac04a1316e2785d02c54c6846952964736f6c63430008180033",
  "linkReferences": {},
  "deployedLinkReferences": {}
}