{"src/InsurancePool.sol":{"InsurancePool":{"abi":[{"inputs":[{"internalType":"address","name":"_usdt","type":"address"},{"internalType":"address","name":"_tft","type":"address"},{"internalType":"address","name":"_predictionMarket","type":"address"}],"stateMutability":"nonpayable","type":"constructor"},{"inputs":[{"internalType":"address","name":"owner","type":"address"}],"name":"OwnableInvalidOwner","type":"error"},{"inputs":[{"internalType":"address","name":"account","type":"address"}],"name":"OwnableUnauthorizedAccount","type":"error"},{"inputs":[],"name":"ReentrancyGuardReentrantCall","type":"error"},{"inputs":[{"internalType":"address","name":"token","type":"address"}],"name":"SafeERC20FailedOperation","type":"error"},{"anonymous":false,"inputs":[{"indexed":true,"internalType":"address","name":"user","type":"address"},{"indexed":false,"internalType":"uint256","name":"tftAmount","type":"uint256"},{"indexed":false,"internalType":"uint256","name":"usdtValue","type":"uint256"}],"name":"InsuranceClaimed","type":"event"},{"anonymous":false,"inputs":[{"indexed":true,"internalType":"address","name":"user","type":"address"},{"indexed":false,"internalType":"uint256","name":"tftAmount","type":"uint256"},{"indexed":false,"internalType":"uint256","name":"usdtValue","type":"uint256"}],"name":"InsurancePaidToUser","type":"event"},{"anonymous":false,"inputs":[{"indexed":true,"internalType":"address","name":"previousOwner","type":"address"},{"indexed":true,"internalType":"address","name":"newOwner","type":"address"}],"name":"OwnershipTransferred","type":"event"},{"anonymous":false,"inputs":[{"indexed":false,"internalType":"address","name":"market","type":"address"}],"name":"PredictionMarketUpdated","type":"event"},{"anonymous":false,"inputs":[{"indexed":false,"internalType":"uint256","name":"roundId","type":"uint256"}],"name":"RoundInsuranceReset","type":"event"},{"anonymous":false,"inputs":[{"indexed":false,"internalType":"uint256","name":"usdtAmount","type":"uint256"},{"indexed":false,"internalType":"uint256","name":"tftAmount","type":"uint256"},{"indexed":false,"internalType":"uint256","name":"price","type":"uint256"}],"name":"TFTBought","type":"event"},{"anonymous":false,"inputs":[{"indexed":false,"internalType":"uint256","name":"newPrice","type":"uint256"}],"name":"TFTPriceUpdated","type":"event"},{"anonymous":false,"inputs":[{"indexed":true,"internalType":"address","name":"from","type":"address"},{"indexed":false,"internalType":"uint256","name":"amount","type":"uint256"}],"name":"USDTDeposited","type":"event"},{"inputs":[{"internalType":"uint256","name":"_usdtAmount","type":"uint256"}],"name":"buyTFT","outputs":[],"stateMutability":"nonpayable","type":"function"},{"inputs":[{"internalType":"uint256","name":"_usdtAmount","type":"uint256"}],"name":"calculateTFTForUSDT","outputs":[{"internalType":"uint256","name":"","type":"uint256"}],"stateMutability":"view","type":"function"},{"inputs":[{"internalType":"uint256","name":"_tftAmount","type":"uint256"}],"name":"calculateUSDTForTFT","outputs":[{"internalType":"uint256","name":"","type":"uint256"}],"stateMutability":"view","type":"function"},{"inputs":[{"internalType":"uint256","name":"_usdtValue","type":"uint256"}],"name":"claimInsurance","outputs":[],"stateMutability":"nonpayable","type":"function"},{"inputs":[],"name":"currentRoundInsurance","outputs":[{"internalType":"uint256","name":"","type":"uint256"}],"stateMutability":"view","type":"function"},{"inputs":[{"internalType":"uint256","name":"_amount","type":"uint256"}],"name":"deposit","outputs":[],"stateMutability":"nonpayable","type":"function"},{"inputs":[{"internalType":"uint256","name":"_amount","type":"uint256"}],"name":"depositTFT","outputs":[],"stateMutability":"nonpayable","type":"function"},{"inputs":[],"name":"getPoolStats","outputs":[{"internalType":"uint256","name":"usdtBalance","type":"uint256"},{"internalType":"uint256","name":"tftBalance","type":"uint256"},{"internalType":"uint256","name":"totalDeposited","type":"uint256"},{"internalType":"uint256","name":"totalBought","type":"uint256"},{"internalType":"uint256","name":"totalDistributed","type":"uint256"},{"internalType":"uint256","name":"currentRound","type":"uint256"}],"stateMutability":"view","type":"function"},{"inputs":[{"internalType":"uint256","name":"_amount","type":"uint256"}],"name":"notifyDeposit","outputs":[],"stateMutability":"nonpayable","type":"function"},{"inputs":[],"name":"owner","outputs":[{"internalType":"address","name":"","type":"address"}],"stateMutability":"view","type":"function"},{"inputs":[{"internalType":"address","name":"_user","type":"address"},{"internalType":"uint256","name":"_usdtValue","type":"uint256"}],"name":"payInsuranceToUser","outputs":[],"stateMutability":"nonpayable","type":"function"},{"inputs":[],"name":"predictionMarket","outputs":[{"internalType":"address","name":"","type":"address"}],"stateMutability":"view","type":"function"},{"inputs":[{"internalType":"address","name":"token","type":"address"},{"internalType":"uint256","name":"amount","type":"uint256"}],"name":"recoverTokens","outputs":[],"stateMutability":"nonpayable","type":"function"},{"inputs":[],"name":"renounceOwnership","outputs":[],"stateMutability":"nonpayable","type":"function"},{"inputs":[],"name":"resetRoundInsurance","outputs":[],"stateMutability":"nonpayable","type":"function"},{"inputs":[{"internalType":"address","name":"_market","type":"address"}],"name":"setPredictionMarket","outputs":[],"stateMutability":"nonpayable","type":"function"},{"inputs":[{"internalType":"uint256","name":"_newPrice","type":"uint256"}],"name":"setTFTPrice","outputs":[],"stateMutability":"nonpayable","type":"function"},{"inputs":[],"name":"tft","outputs":[{"internalType":"contract IERC20","name":"","type":"address"}],"stateMutability":"view","type":"function"},{"inputs":[],"name":"tftPrice","outputs":[{"internalType":"uint256","name":"","type":"uint256"}],"stateMutability":"view","type":"function"},{"inputs":[],"name":"totalTFTBought","outputs":[{"internalType":"uint256","name":"","type":"uint256"}],"stateMutability":"view","type":"function"},{"inputs":[],"name":"totalTFTDistributed","outputs":[{"internalType":"uint256","name":"","type":"uint256"}],"stateMutability":"view","type":"function"},{"inputs":[],"name":"totalUSDTDeposited","outputs":[{"internalType":"uint256","name":"","type":"uint256"}],"stateMutability":"view","type":"function"},{"inputs":[],"name":"totalUSDTDistributed","outputs":[{"internalType":"uint256","name":"","type":"uint256"}],"stateMutability":"view","type":"function"},{"inputs":[{"internalType":"address","name":"newOwner","type":"address"}],"name":"transferOwnership","outputs":[],"stateMutability":"nonpayable","type":"function"},{"inputs":[],"name":"usdt","outputs":[{"internalType":"contract IERC20","name":"","type":"address"}],"stateMutability":"view","type":"function"},{"inputs":[{"internalType":"address","name":"","type":"address"}],"name":"userClaims","outputs":[{"internalType":"uint256","name":"","type":"uint256"}],"stateMutability":"view","type":"function"}],"evm":{"bytecode":{"linkReferences":{},"object":"60c0604052620f42406002553480156200001857600080fd5b50604051620017ae380380620017ae8339810160408190526200003b9162000205565b33806200006357604051631e4fbdf760e01b8152600060048201526024015b60405180910390fd5b6200006e8162000198565b5060017f9b779b17422d0df92223018b32b4d1fa46e071723d6817e2486d003becc55f00556001600160a01b038316620000da5760405162461bcd60e51b815260206004820152600c60248201526b125b9d985b1a59081554d11560a21b60448201526064016200005a565b6001600160a01b038216620001205760405162461bcd60e51b815260206004820152600b60248201526a125b9d985b1a590815119560aa1b60448201526064016200005a565b6001600160a01b038116620001695760405162461bcd60e51b815260206004820152600e60248201526d125b9d985b1a59081b585c9ad95d60921b60448201526064016200005a565b6001600160a01b0392831660805290821660a052600180546001600160a01b031916919092161790556200024f565b600080546001600160a01b038381166001600160a01b0319831681178455604051919092169283917f8be0079c531659141344cd1fd0a4f28419497f9722a3daafe3b4186f6b6457e09190a35050565b80516001600160a01b03811681146200020057600080fd5b919050565b6000806000606084860312156200021b57600080fd5b6200022684620001e8565b92506200023660208501620001e8565b91506200024660408501620001e8565b90509250925092565b60805160a0516114f3620002bb60003960008181610265015281816106730152818161098501528181610b0901528181610bfd01528181610e2d01528181610f7501526110600152600081816101dc0152818161056a01528181610cdf0152610dad01526114f36000f3fe608060405234801561001057600080fd5b506004361061018e5760003560e01c80638189af52116100de578063b6b55f2511610097578063f0a3563c11610071578063f0a3563c14610362578063f2fde38b14610382578063f85920d814610395578063fb86df87146103a857600080fd5b8063b6b55f2514610307578063bbb851881461031a578063def114b61461034f57600080fd5b80638189af52146102a15780638da5cb5b146102aa578063961eab82146102bb5780639690835c146102ce578063975aac22146102e1578063ae5c02d2146102f457600080fd5b80633b39d5471161014b5780635fbd83f4116101255780635fbd83f414610260578063619fd3bf146102875780636802895414610290578063715018a61461029957600080fd5b80633b39d547146102325780634665f55b146102455780635949a8f71461024d57600080fd5b806303b88ba21461019357806304e378bb146101a8578063069c9fae146101c45780632f48ab7d146101d75780632fb4e5611461021657806334a0cecc1461021f575b600080fd5b6101a66101a1366004611308565b6103b1565b005b6101b160025481565b6040519081526020015b60405180910390f35b6101a66101d236600461132a565b61045a565b6101fe7f000000000000000000000000000000000000000000000000000000000000000081565b6040516001600160a01b0390911681526020016101bb565b6101b160045481565b6101a661022d366004611354565b610545565b6101a6610240366004611354565b610771565b6101a66107f2565b6101a661025b366004611354565b610823565b6101fe7f000000000000000000000000000000000000000000000000000000000000000081565b6101b160055481565b6101b160075481565b6101a66108d5565b6101b160065481565b6000546001600160a01b03166101fe565b6101b16102c9366004611354565b6108e9565b6101b16102dc366004611354565b610921565b6101a66102ef366004611354565b610948565b6101a661030236600461132a565b610a1f565b6101a6610315366004611354565b610c80565b610322610d83565b604080519687526020870195909552938501929092526060840152608083015260a082015260c0016101bb565b6001546101fe906001600160a01b031681565b6101b1610370366004611308565b60086020526000908152604090205481565b6101a6610390366004611308565b610ebf565b6101a66103a3366004611354565b610efa565b6101b160035481565b6103b96110da565b6001600160a01b0381166104055760405162461bcd60e51b815260206004820152600e60248201526d125b9d985b1a59081b585c9ad95d60921b60448201526064015b60405180910390fd5b600180546001600160a01b0319166001600160a01b0383169081179091556040519081527f5611a86704fbad5eab1e775a83d66df76b0139faa47f12264817ad6b9eac702c906020015b60405180910390a150565b6104626110da565b6001600160a01b0382166104af57600080546040516001600160a01b03909116914780156108fc02929091818181858888f193505050501580156104aa573d6000803e3d6000fd5b505050565b816001600160a01b031663a9059cbb6104d06000546001600160a01b031690565b6040516001600160e01b031960e084901b1681526001600160a01b039091166004820152602481018490526044016020604051808303816000875af115801561051d573d6000803e3d6000fd5b505050506040513d601f19601f820116820180604052508101906104aa919061136d565b5050565b61054d6110da565b610555611107565b6040516370a0823160e01b81523060048201527f00000000000000000000000000000000000000000000000000000000000000006001600160a01b0316906370a0823190602401602060405180830381865afa1580156105b9573d6000803e3d6000fd5b505050506040513d601f19601f820116820180604052508101906105dd919061138f565b8111156106205760405162461bcd60e51b8152602060048201526011602482015270125b9cdd59999a58da595b9d081554d115607a1b60448201526064016103fc565b60006002546402540be40061063591906113be565b61064783670de0b6b3a76400006113be565b61065191906113d5565b6040516370a0823160e01b815230600482015290915081906001600160a01b037f000000000000000000000000000000000000000000000000000000000000000016906370a0823190602401602060405180830381865afa1580156106ba573d6000803e3d6000fd5b505050506040513d601f19601f820116820180604052508101906106de919061138f565b10156106fc5760405162461bcd60e51b81526004016103fc906113f7565b806004600082825461070e919061142e565b9091555050600254604080518481526020810184905280820192909252517f32aeece23096113735e178e5e81d623dcbfb7eae6feec95c1057b3c8c7d360339181900360600190a15061076e600160008051602061149e83398151915255565b50565b6107796110da565b600081116107bd5760405162461bcd60e51b815260206004820152601160248201527005072696365206d757374206265203e203607c1b60448201526064016103fc565b60028190556040518181527f87156e231bfbfc49c5c5419a1a2298d225c133522194f86e33345add7e1e299c9060200161044f565b6001546001600160a01b0316331461081c5760405162461bcd60e51b81526004016103fc90611441565b6000600755565b6001546001600160a01b0316331461084d5760405162461bcd60e51b81526004016103fc90611441565b6000811161086d5760405162461bcd60e51b81526004016103fc90611471565b806003600082825461087f919061142e565b925050819055508060076000828254610898919061142e565b909155505060405181815233907f256d3f498207df9ab0f59ee9cc584fb4d2fe829f234f81a30a8b4c1c3949006d9060200160405180910390a250565b6108dd6110da565b6108e76000611123565b565b6000670de0b6b3a76400006002548361090291906113be565b610911906402540be4006113be565b61091b91906113d5565b92915050565b60006002546402540be40061093691906113be565b61091183670de0b6b3a76400006113be565b6109506110da565b610958611107565b600081116109785760405162461bcd60e51b81526004016103fc90611471565b6109ad6001600160a01b037f000000000000000000000000000000000000000000000000000000000000000016333084611173565b80600460008282546109bf919061142e565b909155505060025460408051600081526020810184905280820192909252517f32aeece23096113735e178e5e81d623dcbfb7eae6feec95c1057b3c8c7d360339181900360600190a161076e600160008051602061149e83398151915255565b6001546001600160a01b03163314610a495760405162461bcd60e51b81526004016103fc90611441565b610a51611107565b6001600160a01b038216610a965760405162461bcd60e51b815260206004820152600c60248201526b24b73b30b634b2103ab9b2b960a11b60448201526064016103fc565b60008111610ab65760405162461bcd60e51b81526004016103fc90611471565b60006002546402540be400610acb91906113be565b610add83670de0b6b3a76400006113be565b610ae791906113d5565b6040516370a0823160e01b815230600482015290915081906001600160a01b037f000000000000000000000000000000000000000000000000000000000000000016906370a0823190602401602060405180830381865afa158015610b50573d6000803e3d6000fd5b505050506040513d601f19601f82011682018060405250810190610b74919061138f565b1015610b925760405162461bcd60e51b81526004016103fc906113f7565b8060056000828254610ba4919061142e565b925050819055508160066000828254610bbd919061142e565b90915550506001600160a01b03831660009081526008602052604081208054839290610bea90849061142e565b90915550610c2490506001600160a01b037f00000000000000000000000000000000000000000000000000000000000000001684836111af565b60408051828152602081018490526001600160a01b038516917fa2414fa4ff52908fcc8c56696dae8360e7e919fc60b26464b42f21285bdbb6f9910160405180910390a250610541600160008051602061149e83398151915255565b6001546001600160a01b03163314610caa5760405162461bcd60e51b81526004016103fc90611441565b610cb2611107565b60008111610cd25760405162461bcd60e51b81526004016103fc90611471565b610d076001600160a01b037f000000000000000000000000000000000000000000000000000000000000000016333084611173565b8060036000828254610d19919061142e565b925050819055508060076000828254610d32919061142e565b909155505060405181815233907f256d3f498207df9ab0f59ee9cc584fb4d2fe829f234f81a30a8b4c1c3949006d9060200160405180910390a261076e600160008051602061149e83398151915255565b6040516370a0823160e01b8152306004820152600090819081908190819081906001600160a01b037f000000000000000000000000000000000000000000000000000000000000000016906370a0823190602401602060405180830381865afa158015610df4573d6000803e3d6000fd5b505050506040513d601f19601f82011682018060405250810190610e18919061138f565b6040516370a0823160e01b81523060048201527f00000000000000000000000000000000000000000000000000000000000000006001600160a01b0316906370a0823190602401602060405180830381865afa158015610e7c573d6000803e3d6000fd5b505050506040513d601f19601f82011682018060405250810190610ea0919061138f565b600354600454600554600754949b939a50919850965094509092509050565b610ec76110da565b6001600160a01b038116610ef157604051631e4fbdf760e01b8152600060048201526024016103fc565b61076e81611123565b610f02611107565b60008111610f225760405162461bcd60e51b81526004016103fc90611471565b60006002546402540be400610f3791906113be565b610f4983670de0b6b3a76400006113be565b610f5391906113d5565b6040516370a0823160e01b815230600482015290915081906001600160a01b037f000000000000000000000000000000000000000000000000000000000000000016906370a0823190602401602060405180830381865afa158015610fbc573d6000803e3d6000fd5b505050506040513d601f19601f82011682018060405250810190610fe0919061138f565b1015610ffe5760405162461bcd60e51b81526004016103fc906113f7565b8060056000828254611010919061142e565b925050819055508160066000828254611029919061142e565b9091555050336000908152600860205260408120805483929061104d90849061142e565b9091555061108790506001600160a01b037f00000000000000000000000000000000000000000000000000000000000000001633836111af565b604080518281526020810184905233917f7b888f90a214333304853413a491185da1e9ad36a083be01e27ceef133883a58910160405180910390a25061076e600160008051602061149e83398151915255565b6000546001600160a01b031633146108e75760405163118cdaa760e01b81523360048201526024016103fc565b61110f6111e4565b600260008051602061149e83398151915255565b600080546001600160a01b038381166001600160a01b0319831681178455604051919092169283917f8be0079c531659141344cd1fd0a4f28419497f9722a3daafe3b4186f6b6457e09190a35050565b611181848484846001611214565b6111a957604051635274afe760e01b81526001600160a01b03851660048201526024016103fc565b50505050565b6111bc8383836001611286565b6104aa57604051635274afe760e01b81526001600160a01b03841660048201526024016103fc565b60008051602061149e833981519152546002036108e757604051633ee5aeb560e01b815260040160405180910390fd5b6040516323b872dd60e01b60008181526001600160a01b038781166004528616602452604485905291602083606481808c5af192506001600051148316611274578383151615611267573d6000823e3d81fd5b6000883b113d1516831692505b60405250600060605295945050505050565b60405163a9059cbb60e01b60008181526001600160a01b038616600452602485905291602083604481808b5af1925060016000511483166112e05783831516156112d3573d6000823e3d81fd5b6000873b113d1516831692505b60405250949350505050565b80356001600160a01b038116811461130357600080fd5b919050565b60006020828403121561131a57600080fd5b611323826112ec565b9392505050565b6000806040838503121561133d57600080fd5b611346836112ec565b946020939093013593505050565b60006020828403121561136657600080fd5b5035919050565b60006020828403121561137f57600080fd5b8151801515811461132357600080fd5b6000602082840312156113a157600080fd5b5051919050565b634e487b7160e01b600052601160045260246000fd5b808202811582820484141761091b5761091b6113a8565b6000826113f257634e487b7160e01b600052601260045260246000fd5b500490565b60208082526018908201527f496e73756666696369656e742054465420696e20706f6f6c0000000000000000604082015260600190565b8082018082111561091b5761091b6113a8565b60208082526016908201527513db9b1e481c1c99591a58dd1a5bdb881b585c9ad95d60521b604082015260600190565b6020808252601290820152710416d6f756e74206d757374206265203e20360741b60408201526060019056fe9b779b17422d0df92223018b32b4d1fa46e071723d6817e2486d003becc55f00a26469706673582212209e69cd7884082d2a65bcbb634aaa44c7b33a17e795acd46a82132db5cc35873b64736f6c63430008180033","opcodes":"PUSH1 0xC0 PUSH1 0x40 MSTORE PUSH3 0xF4240 PUSH1 0x2 SSTORE CALLVALUE DUP1 ISZERO PUSH3 0x18 JUMPI PUSH1 0x0 DUP1 REVERT JUMPDEST POP PUSH1 0x40 MLOAD PUSH3 0x17AE CODESIZE SUB DUP1 PUSH3 0x17AE DUP4 CODECOPY DUP2 ADD PUSH1 0x40 DUP2 SWAP1 MSTORE PUSH3 0x3B SWAP2 PUSH3 0x205 JUMP JUMPDEST CALLER DUP1 PUSH3 0x63 JUMPI PUSH1 0x40 MLOAD PUSH4 0x1E4FBDF7 PUSH1 0xE0 SHL DUP2 MSTORE PUSH1 0x0 PUSH1 0x4 DUP3 ADD MSTORE PUSH1 0x24 ADD JUMPDEST PUSH1 0x40 MLOAD DUP1 SWAP2 SUB SWAP1 REVERT JUMPDEST PUSH3 0x6E DUP2 PUSH3 0x198 JUMP JUMPDEST POP PUSH1 0x1 PUSH32 0x9B779B17422D0DF92223018B32B4D1FA46E071723D6817E2486D003BECC55F00 SSTORE PUSH1 0x1 PUSH1 0x1 PUSH1 0xA0 SHL SUB DUP4 AND PUSH3 0xDA JUMPI PUSH1 0x40 MLOAD PUSH3 0x461BCD PUSH1 0xE5 SHL DUP2 MSTORE PUSH1 0x20 PUSH1 0x4 DUP3 ADD MSTORE PUSH1 0xC PUSH1 0x24 DUP3 ADD MSTORE PUSH12 0x125B9D985B1A59081554D115 PUSH1 0xA2 SHL PUSH1 0x44 DUP3 ADD MSTORE PUSH1 0x64 ADD PUSH3 0x5A JUMP JUMPDEST PUSH1 0x1 PUSH1 0x1 PUSH1 0xA0 SHL SUB DUP3 AND PUSH3 0x120 JUMPI PUSH1 0x40 MLOAD PUSH3 0x461BCD PUSH1 0xE5 SHL DUP2 MSTORE PUSH1 0x20 PUSH1 0x4 DUP3 ADD MSTORE PUSH1 0xB PUSH1 0x24 DUP3 ADD MSTORE PUSH11 0x125B9D985B1A5908151195 PUSH1 0xAA SHL PUSH1 0x44 DUP3 ADD MSTORE PUSH1 0x64 ADD PUSH3 0x5A JUMP JUMPDEST PUSH1 0x1 PUSH1 0x1 PUSH1 0xA0 SHL SUB DUP2 AND PUSH3 0x169 JUMPI PUSH1 0x40 MLOAD PUSH3 0x461BCD PUSH1 0xE5 SHL DUP2 MSTORE PUSH1 0x20 PUSH1 0x4 DUP3 ADD MSTORE PUSH1 0xE PUSH1 0x24 DUP3 ADD MSTORE PUSH14 0x125B9D985B1A59081B585C9AD95D PUSH1 0x92 SHL PUSH1 0x44 DUP3 ADD MSTORE PUSH1 0x64 ADD PUSH3 0x5A JUMP JUMPDEST PUSH1 0x1 PUSH1 0x1 PUSH1 0xA0 SHL SUB SWAP3 DUP4 AND PUSH1 0x80 MSTORE SWAP1 DUP3 AND PUSH1 0xA0 MSTORE PUSH1 0x1 DUP1 SLOAD PUSH1 0x1 PUSH1 0x1 PUSH1 0xA0 SHL SUB NOT AND SWAP2 SWAP1 SWAP3 AND OR SWAP1 SSTORE PUSH3 0x24F JUMP JUMPDEST PUSH1 0x0 DUP1 SLOAD PUSH1 0x1 PUSH1 0x1 PUSH1 0xA0 SHL SUB DUP4 DUP2 AND PUSH1 0x1 PUSH1 0x1 PUSH1 0xA0 SHL SUB NOT DUP4 AND DUP2 OR DUP5 SSTORE PUSH1 0x40 MLOAD SWAP2 SWAP1 SWAP3 AND SWAP3 DUP4 SWAP2 PUSH32 0x8BE0079C531659141344CD1FD0A4F28419497F9722A3DAAFE3B4186F6B6457E0 SWAP2 SWAP1 LOG3 POP POP JUMP JUMPDEST DUP1 MLOAD PUSH1 0x1 PUSH1 0x1 PUSH1 0xA0 SHL SUB DUP2 AND DUP2 EQ PUSH3 0x200 JUMPI PUSH1 0x0 DUP1 REVERT JUMPDEST SWAP2 SWAP1 POP JUMP JUMPDEST PUSH1 0x0 DUP1 PUSH1 0x0 PUSH1 0x60 DUP5 DUP7 SUB SLT ISZERO PUSH3 0x21B JUMPI PUSH1 0x0 DUP1 REVERT JUMPDEST PUSH3 0x226 DUP5 PUSH3 0x1E8 JUMP JUMPDEST SWAP3 POP PUSH3 0x236 PUSH1 0x20 DUP6 ADD PUSH3 0x1E8 JUMP JUMPDEST SWAP2 POP PUSH3 0x246 PUSH1 0x40 DUP6 ADD PUSH3 0x1E8 JUMP JUMPDEST SWAP1 POP SWAP3 POP SWAP3 POP SWAP3 JUMP JUMPDEST PUSH1 0x80 MLOAD PUSH1 0xA0 MLOAD PUSH2 0x14F3 PUSH3 0x2BB PUSH1 0x0 CODECOPY PUSH1 0x0 DUP2 DUP2 PUSH2 0x265 ADD MSTORE DUP2 DUP2 PUSH2 0x673 ADD MSTORE DUP2 DUP2 PUSH2 0x985 ADD MSTORE DUP2 DUP2 PUSH2 0xB09 ADD MSTORE DUP2 DUP2 PUSH2 0xBFD ADD MSTORE DUP2 DUP2 PUSH2 0xE2D ADD MSTORE DUP2 DUP2 PUSH2 0xF75 ADD MSTORE PUSH2 0x1060 ADD MSTORE PUSH1 0x0 DUP2 DUP2 PUSH2 0x1DC ADD MSTORE DUP2 DUP2 PUSH2 0x56A ADD MSTORE DUP2 DUP2 PUSH2 0xCDF ADD MSTORE PUSH2 0xDAD ADD MSTORE PUSH2 0x14F3 PUSH1 0x0 RETURN INVALID PUSH1 0x80 PUSH1 0x40 MSTORE CALLVALUE DUP1 ISZERO PUSH2 0x10 JUMPI PUSH1 0x0 DUP1 REVERT JUMPDEST POP PUSH1 0x4 CALLDATASIZE LT PUSH2 0x18E JUMPI PUSH1 0x0 CALLDATALOAD PUSH1 0xE0 SHR DUP1 PUSH4 0x8189AF52 GT PUSH2 0xDE JUMPI DUP1 PUSH4 0xB6B55F25 GT PUSH2 0x97 JUMPI DUP1 PUSH4 0xF0A3563C GT PUSH2 0x71 JUMPI DUP1 PUSH4 0xF0A3563C EQ PUSH2 0x362 JUMPI DUP1 PUSH4 0xF2FDE38B EQ PUSH2 0x382 JUMPI DUP1 PUSH4 0xF85920D8 EQ PUSH2 0x395 JUMPI DUP1 PUSH4 0xFB86DF87 EQ PUSH2 0x3A8 JUMPI PUSH1 0x0 DUP1 REVERT JUMPDEST DUP1 PUSH4 0xB6B55F25 EQ PUSH2 0x307 JUMPI DUP1 PUSH4 0xBBB85188 EQ PUSH2 0x31A JUMPI DUP1 PUSH4 0xDEF114B6 EQ PUSH2 0x34F JUMPI PUSH1 0x0 DUP1 REVERT JUMPDEST DUP1 PUSH4 0x8189AF52 EQ PUSH2 0x2A1 JUMPI DUP1 PUSH4 0x8DA5CB5B EQ PUSH2 0x2AA JUMPI DUP1 PUSH4 0x961EAB82 EQ PUSH2 0x2BB JUMPI DUP1 PUSH4 0x9690835C EQ PUSH2 0x2CE JUMPI DUP1 PUSH4 0x975AAC22 EQ PUSH2 0x2E1 JUMPI DUP1 PUSH4 0xAE5C02D2 EQ PUSH2 0x2F4 JUMPI PUSH1 0x0 DUP1 REVERT JUMPDEST DUP1 PUSH4 0x3B39D547 GT PUSH2 0x14B JUMPI DUP1 PUSH4 0x5FBD83F4 GT PUSH2 0x125 JUMPI DUP1 PUSH4 0x5FBD83F4 EQ PUSH2 0x260 JUMPI DUP1 PUSH4 0x619FD3BF EQ PUSH2 0x287 JUMPI DUP1 PUSH4 0x68028954 EQ PUSH2 0x290 JUMPI DUP1 PUSH4 0x715018A6 EQ PUSH2 0x299 JUMPI PUSH1 0x0 DUP1 REVERT JUMPDEST DUP1 PUSH4 0x3B39D547 EQ PUSH2 0x232 JUMPI DUP1 PUSH4 0x4665F55B EQ PUSH2 0x245 JUMPI DUP1 PUSH4 0x5949A8F7 EQ PUSH2 0x24D JUMPI PUSH1 0x0 DUP1 REVERT JUMPDEST DUP1 PUSH4 0x3B88BA2 EQ PUSH2 0x193 JUMPI DUP1 PUSH4 0x4E378BB EQ PUSH2 0x1A8 JUMPI DUP1 PUSH4 0x69C9FAE EQ PUSH2 0x1C4 JUMPI DUP1 PUSH4 0x2F48AB7D EQ PUSH2 0x1D7 JUMPI DUP1 PUSH4 0x2FB4E561 EQ PUSH2 0x216 JUMPI DUP1 PUSH4 0x34A0CECC EQ PUSH2 0x21F JUMPI JUMPDEST PUSH1 0x0 DUP1 REVERT JUMPDEST PUSH2 0x1A6 PUSH2 0x1A1 CALLDATASIZE PUSH1 0x4 PUSH2 0x1308 JUMP JUMPDEST PUSH2 0x3B1 JUMP JUMPDEST STOP JUMPDEST PUSH2 0x1B1 PUSH1 0x2 SLOAD DUP2 JUMP JUMPDEST PUSH1 0x40 MLOAD SWAP1 DUP2 MSTORE PUSH1 0x20 ADD JUMPDEST PUSH1 0x40 MLOAD DUP1 SWAP2 SUB SWAP1 RETURN JUMPDEST PUSH2 0x1A6 PUSH2 0x1D2 CALLDATASIZE PUSH1 0x4 PUSH2 0x132A JUMP JUMPDEST PUSH2 0x45A JUMP JUMPDEST PUSH2 0x1FE PUSH32 0x0 DUP2 JUMP JUMPDEST PUSH1 0x40 MLOAD PUSH1 0x1 PUSH1 0x1 PUSH1 0xA0 SHL SUB SWAP1 SWAP2 AND DUP2 MSTORE PUSH1 0x20 ADD PUSH2 0x1BB JUMP JUMPDEST PUSH2 0x1B1 PUSH1 0x4 SLOAD DUP2 JUMP JUMPDEST PUSH2 0x1A6 PUSH2 0x22D CALLDATASIZE PUSH1 0x4 PUSH2 0x1354 JUMP JUMPDEST PUSH2 0x545 JUMP JUMPDEST PUSH2 0x1A6 PUSH2 0x240 CALLDATASIZE PUSH1 0x4 PUSH2 0x1354 JUMP JUMPDEST PUSH2 0x771 JUMP JUMPDEST PUSH2 0x1A6 PUSH2 0x7F2 JUMP JUMPDEST PUSH2 0x1A6 PUSH2 0x25B CALLDATASIZE PUSH1 0x4 PUSH2 0x1354 JUMP JUMPDEST PUSH2 0x823 JUMP JUMPDEST PUSH2 0x1FE PUSH32 0x0 DUP2 JUMP JUMPDEST PUSH2 0x1B1 PUSH1 0x5 SLOAD DUP2 JUMP JUMPDEST PUSH2 0x1B1 PUSH1 0x7 SLOAD DUP2 JUMP JUMPDEST PUSH2 0x1A6 PUSH2 0x8D5 JUMP JUMPDEST PUSH2 0x1B1 PUSH1 0x6 SLOAD DUP2 JUMP JUMPDEST PUSH1 0x0 SLOAD PUSH1 0x1 PUSH1 0x1 PUSH1 0xA0 SHL SUB AND PUSH2 0x1FE JUMP JUMPDEST PUSH2 0x1B1 PUSH2 0x2C9 CALLDATASIZE PUSH1 0x4 PUSH2 0x1354 JUMP JUMPDEST PUSH2 0x8E9 JUMP JUMPDEST PUSH2 0x1B1 PUSH2 0x2DC CALLDATASIZE PUSH1 0x4 PUSH2 0x1354 JUMP JUMPDEST PUSH2 0x921 JUMP JUMPDEST PUSH2 0x1A6 PUSH2 0x2EF CALLDATASIZE PUSH1 0x4 PUSH2 0x1354 JUMP JUMPDEST PUSH2 0x948 JUMP JUMPDEST PUSH2 0x1A6 PUSH2 0x302 CALLDATASIZE PUSH1 0x4 PUSH2 0x132A JUMP JUMPDEST PUSH2 0xA1F JUMP JUMPDEST PUSH2 0x1A6 PUSH2 0x315 CALLDATASIZE PUSH1 0x4 PUSH2 0x1354 JUMP JUMPDEST PUSH2 0xC80 JUMP JUMPDEST PUSH2 0x322 PUSH2 0xD83 JUMP JUMPDEST PUSH1 0x40 DUP1 MLOAD SWAP7 DUP8 MSTORE PUSH1 0x20 DUP8 ADD SWAP6 SWAP1 SWAP6 MSTORE SWAP4 DUP6 ADD SWAP3 SWAP1 SWAP3 MSTORE PUSH1 0x60 DUP5 ADD MSTORE PUSH1 0x80 DUP4 ADD MSTORE PUSH1 0xA0 DUP3 ADD MSTORE PUSH1 0xC0 ADD PUSH2 0x1BB JUMP JUMPDEST PUSH1 0x1 SLOAD PUSH2 0x1FE SWAP1 PUSH1 0x1 PUSH1 0x1 PUSH1 0xA0 SHL SUB AND DUP2 JUMP JUMPDEST PUSH2 0x1B1 PUSH2 0x370 CALLDATASIZE PUSH1 0x4 PUSH2 0x1308 JUMP JUMPDEST PUSH1 0x8 PUSH1 0x20 MSTORE PUSH1 0x0 SWAP1 DUP2 MSTORE PUSH1 0x40 SWAP1 KECCAK256 SLOAD DUP2 JUMP JUMPDEST PUSH2 0x1A6 PUSH2 0x390 CALLDATASIZE PUSH1 0x4 PUSH2 0x1308 JUMP JUMPDEST PUSH2 0xEBF JUMP JUMPDEST PUSH2 0x1A6 PUSH2 0x3A3 CALLDATASIZE PUSH1 0x4 PUSH2 0x1354 JUMP JUMPDEST PUSH2 0xEFA JUMP JUMPDEST PUSH2 0x1B1 PUSH1 0x3 SLOAD DUP2 JUMP JUMPDEST PUSH2 0x3B9 PUSH2 0x10DA JUMP JUMPDEST PUSH1 0x1 PUSH1 0x1 PUSH1 0xA0 SHL SUB DUP2 AND PUSH2 0x405 JUMPI PUSH1 0x40 MLOAD PUSH3 0x461BCD PUSH1 0xE5 SHL DUP2 MSTORE PUSH1 0x20 PUSH1 0x4 DUP3 ADD MSTORE PUSH1 0xE PUSH1 0x24 DUP3 ADD MSTORE PUSH14 0x125B9D985B1A59081B585C9AD95D PUSH1 0x92 SHL PUSH1 0x44 DUP3 ADD MSTORE PUSH1 0x64 ADD JUMPDEST PUSH1 0x40 MLOAD DUP1 SWAP2 SUB SWAP1 REVERT JUMPDEST PUSH1 0x1 DUP1 SLOAD PUSH1 0x1 PUSH1 0x1 PUSH1 0xA0 SHL SUB NOT AND PUSH1 0x1 PUSH1 0x1 PUSH1 0xA0 SHL SUB DUP4 AND SWAP1 DUP2 OR SWAP1 SWAP2 SSTORE PUSH1 0x40 MLOAD SWAP1 DUP2 MSTORE PUSH32 0x5611A86704FBAD5EAB1E775A83D66DF76B0139FAA47F12264817AD6B9EAC702C SWAP1 PUSH1 0x20 ADD JUMPDEST PUSH1 0x40 MLOAD DUP1 SWAP2 SUB SWAP1 LOG1 POP JUMP JUMPDEST PUSH2 0x462 PUSH2 0x10DA JUMP JUMPDEST PUSH1 0x1 PUSH1 0x1 PUSH1 0xA0 SHL SUB DUP3 AND PUSH2 0x4AF JUMPI PUSH1 0x0 DUP1 SLOAD PUSH1 0x40 MLOAD PUSH1 0x1 PUSH1 0x1 PUSH1 0xA0 SHL SUB SWAP1 SWAP2 AND SWAP2 SELFBALANCE DUP1 ISZERO PUSH2 0x8FC MUL SWAP3 SWAP1 SWAP2 DUP2 DUP2 DUP2 DUP6 DUP9 DUP9 CALL SWAP4 POP POP POP POP ISZERO DUP1 ISZERO PUSH2 0x4AA JUMPI RETURNDATASIZE PUSH1 0x0 DUP1 RETURNDATACOPY RETURNDATASIZE PUSH1 0x0 REVERT JUMPDEST POP POP POP JUMP JUMPDEST DUP2 PUSH1 0x1 PUSH1 0x1 PUSH1 0xA0 SHL SUB AND PUSH4 0xA9059CBB PUSH2 0x4D0 PUSH1 0x0 SLOAD PUSH1 0x1 PUSH1 0x1 PUSH1 0xA0 SHL SUB AND SWAP1 JUMP JUMPDEST PUSH1 0x40 MLOAD PUSH1 0x1 PUSH1 0x1 PUSH1 0xE0 SHL SUB NOT PUSH1 0xE0 DUP5 SWAP1 SHL AND DUP2 MSTORE PUSH1 0x1 PUSH1 0x1 PUSH1 0xA0 SHL SUB SWAP1 SWAP2 AND PUSH1 0x4 DUP3 ADD MSTORE PUSH1 0x24 DUP2 ADD DUP5 SWAP1 MSTORE PUSH1 0x44 ADD PUSH1 0x20 PUSH1 0x40 MLOAD DUP1 DUP4 SUB DUP2 PUSH1 0x0 DUP8 GAS CALL ISZERO DUP1 ISZERO PUSH2 0x51D JUMPI RETURNDATASIZE PUSH1 0x0 DUP1 RETURNDATACOPY RETURNDATASIZE PUSH1 0x0 REVERT JUMPDEST POP POP POP POP PUSH1 0x40 MLOAD RETURNDATASIZE PUSH1 0x1F NOT PUSH1 0x1F DUP3 ADD AND DUP3 ADD DUP1 PUSH1 0x40 MSTORE POP DUP2 ADD SWAP1 PUSH2 0x4AA SWAP2 SWAP1 PUSH2 0x136D JUMP JUMPDEST POP POP JUMP JUMPDEST PUSH2 0x54D PUSH2 0x10DA JUMP JUMPDEST PUSH2 0x555 PUSH2 0x1107 JUMP JUMPDEST PUSH1 0x40 MLOAD PUSH4 0x70A08231 PUSH1 0xE0 SHL DUP2 MSTORE ADDRESS PUSH1 0x4 DUP3 ADD MSTORE PUSH32 0x0 PUSH1 0x1 PUSH1 0x1 PUSH1 0xA0 SHL SUB AND SWAP1 PUSH4 0x70A08231 SWAP1 PUSH1 0x24 ADD PUSH1 0x20 PUSH1 0x40 MLOAD DUP1 DUP4 SUB DUP2 DUP7 GAS STATICCALL ISZERO DUP1 ISZERO PUSH2 0x5B9 JUMPI RETURNDATASIZE PUSH1 0x0 DUP1 RETURNDATACOPY RETURNDATASIZE PUSH1 0x0 REVERT JUMPDEST POP POP POP POP PUSH1 0x40 MLOAD RETURNDATASIZE PUSH1 0x1F NOT PUSH1 0x1F DUP3 ADD AND DUP3 ADD DUP1 PUSH1 0x40 MSTORE POP DUP2 ADD SWAP1 PUSH2 0x5DD SWAP2 SWAP1 PUSH2 0x138F JUMP JUMPDEST DUP2 GT ISZERO PUSH2 0x620 JUMPI PUSH1 0x40 MLOAD PUSH3 0x461BCD PUSH1 0xE5 SHL DUP2 MSTORE PUSH1 0x20 PUSH1 0x4 DUP3 ADD MSTORE PUSH1 0x11 PUSH1 0x24 DUP3 ADD MSTORE PUSH17 0x125B9CDD59999A58DA595B9D081554D115 PUSH1 0x7A SHL PUSH1 0x44 DUP3 ADD MSTORE PUSH1 0x64 ADD PUSH2 0x3FC JUMP JUMPDEST PUSH1 0x0 PUSH1 0x2 SLOAD PUSH5 0x2540BE400 PUSH2 0x635 SWAP2 SWAP1 PUSH2 0x13BE JUMP JUMPDEST PUSH2 0x647 DUP4 PUSH8 0xDE0B6B3A7640000 PUSH2 0x13BE JUMP JUMPDEST PUSH2 0x651 SWAP2 SWAP1 PUSH2 0x13D5 JUMP JUMPDEST PUSH1 0x40 MLOAD PUSH4 0x70A08231 PUSH1 0xE0 SHL DUP2 MSTORE ADDRESS PUSH1 0x4 DUP3 ADD MSTORE SWAP1 SWAP2 POP DUP2 SWAP1 PUSH1 0x1 PUSH1 0x1 PUSH1 0xA0 SHL SUB PUSH32 0x0 AND SWAP1 PUSH4 0x70A08231 SWAP1 PUSH1 0x24 ADD PUSH1 0x20 PUSH1 0x40 MLOAD DUP1 DUP4 SUB DUP2 DUP7 GAS STATICCALL ISZERO DUP1 ISZERO PUSH2 0x6BA JUMPI RETURNDATASIZE PUSH1 0x0 DUP1 RETURNDATACOPY RETURNDATASIZE PUSH1 0x0 REVERT JUMPDEST POP POP POP POP PUSH1 0x40 MLOAD RETURNDATASIZE PUSH1 0x1F NOT PUSH1 0x1F DUP3 ADD AND DUP3 ADD DUP1 PUSH1 0x40 MSTORE POP DUP2 ADD SWAP1 PUSH2 0x6DE SWAP2 SWAP1 PUSH2 0x138F JUMP JUMPDEST LT ISZERO PUSH2 0x6FC JUMPI PUSH1 0x40 MLOAD PUSH3 0x461BCD PUSH1 0xE5 SHL DUP2 MSTORE PUSH1 0x4 ADD PUSH2 0x3FC SWAP1 PUSH2 0x13F7 JUMP JUMPDEST DUP1 PUSH1 0x4 PUSH1 0x0 DUP3 DUP3 SLOAD PUSH2 0x70E SWAP2 SWAP1 PUSH2 0x142E JUMP JUMPDEST SWAP1 SWAP2 SSTORE POP POP PUSH1 0x2 SLOAD PUSH1 0x40 DUP1 MLOAD DUP5 DUP2 MSTORE PUSH1 0x20 DUP2 ADD DUP5 SWAP1 MSTORE DUP1 DUP3 ADD SWAP3 SWAP1 SWAP3 MSTORE MLOAD PUSH32 0x32AEECE23096113735E178E5E81D623DCBFB7EAE6FEEC95C1057B3C8C7D36033 SWAP2 DUP2 SWAP1 SUB PUSH1 0x60 ADD SWAP1 LOG1 POP PUSH2 0x76E PUSH1 0x1 PUSH1 0x0 DUP1 MLOAD PUSH1 0x20 PUSH2 0x149E DUP4 CODECOPY DUP2 MLOAD SWAP2 MSTORE SSTORE JUMP JUMPDEST POP JUMP JUMPDEST PUSH2 0x779 PUSH2 0x10DA JUMP JUMPDEST PUSH1 0x0 DUP2 GT PUSH2 0x7BD JUMPI PUSH1 0x40 MLOAD PUSH3 0x461BCD PUSH1 0xE5 SHL DUP2 MSTORE PUSH1 0x20 PUSH1 0x4 DUP3 ADD MSTORE PUSH1 0x11 PUSH1 0x24 DUP3 ADD MSTORE PUSH17 0x5072696365206D757374206265203E203 PUSH1 0x7C SHL PUSH1 0x44 DUP3 ADD MSTORE PUSH1 0x64 ADD PUSH2 0x3FC JUMP JUMPDEST PUSH1 0x2 DUP2 SWAP1 SSTORE PUSH1 0x40 MLOAD DUP2 DUP2 MSTORE PUSH32 0x87156E231BFBFC49C5C5419A1A2298D225C133522194F86E33345ADD7E1E299C SWAP1 PUSH1 0x20 ADD PUSH2 0x44F JUMP JUMPDEST PUSH1 0x1 SLOAD PUSH1 0x1 PUSH1 0x1 PUSH1 0xA0 SHL SUB AND CALLER EQ PUSH2 0x81C JUMPI PUSH1 0x40 MLOAD PUSH3 0x461BCD PUSH1 0xE5 SHL DUP2 MSTORE PUSH1 0x4 ADD PUSH2 0x3FC SWAP1 PUSH2 0x1441 JUMP JUMPDEST PUSH1 0x0 PUSH1 0x7 SSTORE JUMP JUMPDEST PUSH1 0x1 SLOAD PUSH1 0x1 PUSH1 0x1 PUSH1 0xA0 SHL SUB AND CALLER EQ PUSH2 0x84D JUMPI PUSH1 0x40 MLOAD PUSH3 0x461BCD PUSH1 0xE5 SHL DUP2 MSTORE PUSH1 0x4 ADD PUSH2 0x3FC SWAP1 PUSH2 0x1441 JUMP JUMPDEST PUSH1 0x0 DUP2 GT PUSH2 0x86D JUMPI PUSH1 0x40 MLOAD PUSH3 0x461BCD PUSH1 0xE5 SHL DUP2 MSTORE PUSH1 0x4 ADD PUSH2 0x3FC SWAP1 PUSH2 0x1471 JUMP JUMPDEST DUP1 PUSH1 0x3 PUSH1 0x0 DUP3 DUP3 SLOAD PUSH2 0x87F SWAP2 SWAP1 PUSH2 0x142E JUMP JUMPDEST SWAP3 POP POP DUP2 SWAP1 SSTORE POP DUP1 PUSH1 0x7 PUSH1 0x0 DUP3 DUP3 SLOAD PUSH2 0x898 SWAP2 SWAP1 PUSH2 0x142E JUMP JUMPDEST SWAP1 SWAP2 SSTORE POP POP PUSH1 0x40 MLOAD DUP2 DUP2 MSTORE CALLER SWAP1 PUSH32 0x256D3F498207DF9AB0F59EE9CC584FB4D2FE829F234F81A30A8B4C1C3949006D SWAP1 PUSH1 0x20 ADD PUSH1 0x40 MLOAD DUP1 SWAP2 SUB SWAP1 LOG2 POP JUMP JUMPDEST PUSH2 0x8DD PUSH2 0x10DA JUMP JUMPDEST PUSH2 0x8E7 PUSH1 0x0 PUSH2 0x1123 JUMP JUMPDEST JUMP JUMPDEST PUSH1 0x0 PUSH8 0xDE0B6B3A7640000 PUSH1 0x2 SLOAD DUP4 PUSH2 0x902 SWAP2 SWAP1 PUSH2 0x13BE JUMP JUMPDEST PUSH2 0x911 SWAP1 PUSH5 0x2540BE400 PUSH2 0x13BE JUMP JUMPDEST PUSH2 0x91B SWAP2 SWAP1 PUSH2 0x13D5 JUMP JUMPDEST SWAP3 SWAP2 POP POP JUMP JUMPDEST PUSH1 0x0 PUSH1 0x2 SLOAD PUSH5 0x2540BE400 PUSH2 0x936 SWAP2 SWAP1 PUSH2 0x13BE JUMP JUMPDEST PUSH2 0x911 DUP4 PUSH8 0xDE0B6B3A7640000 PUSH2 0x13BE JUMP JUMPDEST PUSH2 0x950 PUSH2 0x10DA JUMP JUMPDEST PUSH2 0x958 PUSH2 0x1107 JUMP JUMPDEST PUSH1 0x0 DUP2 GT PUSH2 0x978 JUMPI PUSH1 0x40 MLOAD PUSH3 0x461BCD PUSH1 0xE5 SHL DUP2 MSTORE PUSH1 0x4 ADD PUSH2 0x3FC SWAP1 PUSH2 0x1471 JUMP JUMPDEST PUSH2 0x9AD PUSH1 0x1 PUSH1 0x1 PUSH1 0xA0 SHL SUB PUSH32 0x0 AND CALLER ADDRESS DUP5 PUSH2 0x1173 JUMP JUMPDEST DUP1 PUSH1 0x4 PUSH1 0x0 DUP3 DUP3 SLOAD PUSH2 0x9BF SWAP2 SWAP1 PUSH2 0x142E JUMP JUMPDEST SWAP1 SWAP2 SSTORE POP POP PUSH1 0x2 SLOAD PUSH1 0x40 DUP1 MLOAD PUSH1 0x0 DUP2 MSTORE PUSH1 0x20 DUP2 ADD DUP5 SWAP1 MSTORE DUP1 DUP3 ADD SWAP3 SWAP1 SWAP3 MSTORE MLOAD PUSH32 0x32AEECE23096113735E178E5E81D623DCBFB7EAE6FEEC95C1057B3C8C7D36033 SWAP2 DUP2 SWAP1 SUB PUSH1 0x60 ADD SWAP1 LOG1 PUSH2 0x76E PUSH1 0x1 PUSH1 0x0 DUP1 MLOAD PUSH1 0x20 PUSH2 0x149E DUP4 CODECOPY DUP2 MLOAD SWAP2 MSTORE SSTORE JUMP JUMPDEST PUSH1 0x1 SLOAD PUSH1 0x1 PUSH1 0x1 PUSH1 0xA0 SHL SUB AND CALLER EQ PUSH2 0xA49 JUMPI PUSH1 0x40 MLOAD PUSH3 0x461BCD PUSH1 0xE5 SHL DUP2 MSTORE PUSH1 0x4 ADD PUSH2 0x3FC SWAP1 PUSH2 0x1441 JUMP JUMPDEST PUSH2 0xA51 PUSH2 0x1107 JUMP JUMPDEST PUSH1 0x1 PUSH1 0x1 PUSH1 0xA0 SHL SUB DUP3 AND PUSH2 0xA96 JUMPI PUSH1 0x40 MLOAD PUSH3 0x461BCD PUSH1 0xE5 SHL DUP2 MSTORE PUSH1 0x20 PUSH1 0x4 DUP3 ADD MSTORE PUSH1 0xC PUSH1 0x24 DUP3 ADD MSTORE PUSH12 0x24B73B30B634B2103AB9B2B9 PUSH1 0xA1 SHL PUSH1 0x44 DUP3 ADD MSTORE PUSH1 0x64 ADD PUSH2 0x3FC JUMP JUMPDEST PUSH1 0x0 DUP2 GT PUSH2 0xAB6 JUMPI PUSH1 0x40 MLOAD PUSH3 0x461BCD PUSH1 0xE5 SHL DUP2 MSTORE PUSH1 0x4 ADD PUSH2 0x3FC SWAP1 PUSH2 0x1471 JUMP JUMPDEST PUSH1 0x0 PUSH1 0x2 SLOAD PUSH5 0x2540BE400 PUSH2 0xACB SWAP2 SWAP1 PUSH2 0x13BE JUMP JUMPDEST PUSH2 0xADD DUP4 PUSH8 0xDE0B6B3A7640000 PUSH2 0x13BE JUMP JUMPDEST PUSH2 0xAE7 SWAP2 SWAP1 PUSH2 0x13D5 JUMP JUMPDEST PUSH1 0x40 MLOAD PUSH4 0x70A08231 PUSH1 0xE0 SHL DUP2 MSTORE ADDRESS PUSH1 0x4 DUP3 ADD MSTORE SWAP1 SWAP2 POP DUP2 SWAP1 PUSH1 0x1 PUSH1 0x1 PUSH1 0xA0 SHL SUB PUSH32 0x0 AND SWAP1 PUSH4 0x70A08231 SWAP1 PUSH1 0x24 ADD PUSH1 0x20 PUSH1 0x40 MLOAD DUP1 DUP4 SUB DUP2 DUP7 GAS STATICCALL ISZERO DUP1 ISZERO PUSH2 0xB50 JUMPI RETURNDATASIZE PUSH1 0x0 DUP1 RETURNDATACOPY RETURNDATASIZE PUSH1 0x0 REVERT JUMPDEST POP POP POP POP PUSH1 0x40 MLOAD RETURNDATASIZE PUSH1 0x1F NOT PUSH1 0x1F DUP3 ADD AND DUP3 ADD DUP1 PUSH1 0x40 MSTORE POP DUP2 ADD SWAP1 PUSH2 0xB74 SWAP2 SWAP1 PUSH2 0x138F JUMP JUMPDEST LT ISZERO PUSH2 0xB92 JUMPI PUSH1 0x40 MLOAD PUSH3 0x461BCD PUSH1 0xE5 SHL DUP2 MSTORE PUSH1 0x4 ADD PUSH2 0x3FC SWAP1 PUSH2 0x13F7 JUMP JUMPDEST DUP1 PUSH1 0x5 PUSH1 0x0 DUP3 DUP3 SLOAD PUSH2 0xBA4 SWAP2 SWAP1 PUSH2 0x142E JUMP JUMPDEST SWAP3 POP POP DUP2 SWAP1 SSTORE POP DUP2 PUSH1 0x6 PUSH1 0x0 DUP3 DUP3 SLOAD PUSH2 0xBBD SWAP2 SWAP1 PUSH2 0x142E JUMP JUMPDEST SWAP1 SWAP2 SSTORE POP POP PUSH1 0x1 PUSH1 0x1 PUSH1 0xA0 SHL SUB DUP4 AND PUSH1 0x0 SWAP1 DUP2 MSTORE PUSH1 0x8 PUSH1 0x20 MSTORE PUSH1 0x40 DUP2 KECCAK256 DUP1 SLOAD DUP4 SWAP3 SWAP1 PUSH2 0xBEA SWAP1 DUP5 SWAP1 PUSH2 0x142E JUMP JUMPDEST SWAP1 SWAP2 SSTORE POP PUSH2 0xC24 SWAP1 POP PUSH1 0x1 PUSH1 0x1 PUSH1 0xA0 SHL SUB PUSH32 0x0 AND DUP5 DUP4 PUSH2 0x11AF JUMP JUMPDEST PUSH1 0x40 DUP1 MLOAD DUP3 DUP2 MSTORE PUSH1 0x20 DUP2 ADD DUP5 SWAP1 MSTORE PUSH1 0x1 PUSH1 0x1 PUSH1 0xA0 SHL SUB DUP6 AND SWAP2 PUSH32 0xA2414FA4FF52908FCC8C56696DAE8360E7E919FC60B26464B42F21285BDBB6F9 SWAP2 ADD PUSH1 0x40 MLOAD DUP1 SWAP2 SUB SWAP1 LOG2 POP PUSH2 0x541 PUSH1 0x1 PUSH1 0x0 DUP1 MLOAD PUSH1 0x20 PUSH2 0x149E DUP4 CODECOPY DUP2 MLOAD SWAP2 MSTORE SSTORE JUMP JUMPDEST PUSH1 0x1 SLOAD PUSH1 0x1 PUSH1 0x1 PUSH1 0xA0 SHL SUB AND CALLER EQ PUSH2 0xCAA JUMPI PUSH1 0x40 MLOAD PUSH3 0x461BCD PUSH1 0xE5 SHL DUP2 MSTORE PUSH1 0x4 ADD PUSH2 0x3FC SWAP1 PUSH2 0x1441 JUMP JUMPDEST PUSH2 0xCB2 PUSH2 0x1107 JUMP JUMPDEST PUSH1 0x0 DUP2 GT PUSH2 0xCD2 JUMPI PUSH1 0x40 MLOAD PUSH3 0x461BCD PUSH1 0xE5 SHL DUP2 MSTORE PUSH1 0x4 ADD PUSH2 0x3FC SWAP1 PUSH2 0x1471 JUMP JUMPDEST PUSH2 0xD07 PUSH1 0x1 PUSH1 0x1 PUSH1 0xA0 SHL SUB PUSH32 0x0 AND CALLER ADDRESS DUP5 PUSH2 0x1173 JUMP JUMPDEST DUP1 PUSH1 0x3 PUSH1 0x0 DUP3 DUP3 SLOAD PUSH2 0xD19 SWAP2 SWAP1 PUSH2 0x142E JUMP JUMPDEST SWAP3 POP POP DUP2 SWAP1 SSTORE POP DUP1 PUSH1 0x7 PUSH1 0x0 DUP3 DUP3 SLOAD PUSH2 0xD32 SWAP2 SWAP1 PUSH2 0x142E JUMP JUMPDEST SWAP1 SWAP2 SSTORE POP POP PUSH1 0x40 MLOAD DUP2 DUP2 MSTORE CALLER SWAP1 PUSH32 0x256D3F498207DF9AB0F59EE9CC584FB4D2FE829F234F81A30A8B4C1C3949006D SWAP1 PUSH1 0x20 ADD PUSH1 0x40 MLOAD DUP1 SWAP2 SUB SWAP1 LOG2 PUSH2 0x76E PUSH1 0x1 PUSH1 0x0 DUP1 MLOAD PUSH1 0x20 PUSH2 0x149E DUP4 CODECOPY DUP2 MLOAD SWAP2 MSTORE SSTORE JUMP JUMPDEST PUSH1 0x40 MLOAD PUSH4 0x70A08231 PUSH1 0xE0 SHL DUP2 MSTORE ADDRESS PUSH1 0x4 DUP3 ADD MSTORE PUSH1 0x0 SWAP1 DUP2 SWAP1 DUP2 SWAP1 DUP2 SWAP1 DUP2 SWAP1 DUP2 SWAP1 PUSH1 0x1 PUSH1 0x1 PUSH1 0xA0 SHL SUB PUSH32 0x0 AND SWAP1 PUSH4 0x70A08231 SWAP1 PUSH1 0x24 ADD PUSH1 0x20 PUSH1 0x40 MLOAD DUP1 DUP4 SUB DUP2 DUP7 GAS STATICCALL ISZERO DUP1 ISZERO PUSH2 0xDF4 JUMPI RETURNDATASIZE PUSH1 0x0 DUP1 RETURNDATACOPY RETURNDATASIZE PUSH1 0x0 REVERT JUMPDEST POP POP POP POP PUSH1 0x40 MLOAD RETURNDATASIZE PUSH1 0x1F NOT PUSH1 0x1F DUP3 ADD AND DUP3 ADD DUP1 PUSH1 0x40 MSTORE POP DUP2 ADD SWAP1 PUSH2 0xE18 SWAP2 SWAP1 PUSH2 0x138F JUMP JUMPDEST PUSH1 0x40 MLOAD PUSH4 0x70A08231 PUSH1 0xE0 SHL DUP2 MSTORE ADDRESS PUSH1 0x4 DUP3 ADD MSTORE PUSH32 0x0 PUSH1 0x1 PUSH1 0x1 PUSH1 0xA0 SHL SUB AND SWAP1 PUSH4 0x70A08231 SWAP1 PUSH1 0x24 ADD PUSH1 0x20 PUSH1 0x40 MLOAD DUP1 DUP4 SUB DUP2 DUP7 GAS STATICCALL ISZERO DUP1 ISZERO PUSH2 0xE7C JUMPI RETURNDATASIZE PUSH1 0x0 DUP1 RETURNDATACOPY RETURNDATASIZE PUSH1 0x0 REVERT JUMPDEST POP POP POP POP PUSH1 0x40 MLOAD RETURNDATASIZE PUSH1 0x1F NOT PUSH1 0x1F DUP3 ADD AND DUP3 ADD DUP1 PUSH1 0x40 MSTORE POP DUP2 ADD SWAP1 PUSH2 0xEA0 SWAP2 SWAP1 PUSH2 0x138F JUMP JUMPDEST PUSH1 0x3 SLOAD PUSH1 0x4 SLOAD PUSH1 0x5 SLOAD PUSH1 0x7 SLOAD SWAP5 SWAP12 SWAP4 SWAP11 POP SWAP2 SWAP9 POP SWAP7 POP SWAP5 POP SWAP1 SWAP3 POP SWAP1 POP JUMP JUMPDEST PUSH2 0xEC7 PUSH2 0x10DA JUMP JUMPDEST PUSH1 0x1 PUSH1 0x1 PUSH1 0xA0 SHL SUB DUP2 AND PUSH2 0xEF1 JUMPI PUSH1 0x40 MLOAD PUSH4 0x1E4FBDF7 PUSH1 0xE0 SHL DUP2 MSTORE PUSH1 0x0 PUSH1 0x4 DUP3 ADD MSTORE PUSH1 0x24 ADD PUSH2 0x3FC JUMP JUMPDEST PUSH2 0x76E DUP2 PUSH2 0x1123 JUMP JUMPDEST PUSH2 0xF02 PUSH2 0x1107 JUMP JUMPDEST PUSH1 0x0 DUP2 GT PUSH2 0xF22 JUMPI PUSH1 0x40 MLOAD PUSH3 0x461BCD PUSH1 0xE5 SHL DUP2 MSTORE PUSH1 0x4 ADD PUSH2 0x3FC SWAP1 PUSH2 0x1471 JUMP JUMPDEST PUSH1 0x0 PUSH1 0x2 SLOAD PUSH5 0x2540BE400 PUSH2 0xF37 SWAP2 SWAP1 PUSH2 0x13BE JUMP JUMPDEST PUSH2 0xF49 DUP4 PUSH8 0xDE0B6B3A7640000 PUSH2 0x13BE JUMP JUMPDEST PUSH2 0xF53 SWAP2 SWAP1 PUSH2 0x13D5 JUMP JUMPDEST PUSH1 0x40 MLOAD PUSH4 0x70A08231 PUSH1 0xE0 SHL DUP2 MSTORE ADDRESS PUSH1 0x4 DUP3 ADD MSTORE SWAP1 SWAP2 POP DUP2 SWAP1 PUSH1 0x1 PUSH1 0x1 PUSH1 0xA0 SHL SUB PUSH32 0x0 AND SWAP1 PUSH4 0x70A08231 SWAP1 PUSH1 0x24 ADD PUSH1 0x20 PUSH1 0x40 MLOAD DUP1 DUP4 SUB DUP2 DUP7 GAS STATICCALL ISZERO DUP1 ISZERO PUSH2 0xFBC JUMPI RETURNDATASIZE PUSH1 0x0 DUP1 RETURNDATACOPY RETURNDATASIZE PUSH1 0x0 REVERT JUMPDEST POP POP POP POP PUSH1 0x40 MLOAD RETURNDATASIZE PUSH1 0x1F NOT PUSH1 0x1F DUP3 ADD AND DUP3 ADD DUP1 PUSH1 0x40 MSTORE POP DUP2 ADD SWAP1 PUSH2 0xFE0 SWAP2 SWAP1 PUSH2 0x138F JUMP JUMPDEST LT ISZERO PUSH2 0xFFE JUMPI PUSH1 0x40 MLOAD PUSH3 0x461BCD PUSH1 0xE5 SHL DUP2 MSTORE PUSH1 0x4 ADD PUSH2 0x3FC SWAP1 PUSH2 0x13F7 JUMP JUMPDEST DUP1 PUSH1 0x5 PUSH1 0x0 DUP3 DUP3 SLOAD PUSH2 0x1010 SWAP2 SWAP1 PUSH2 0x142E JUMP JUMPDEST SWAP3 POP POP DUP2 SWAP1 SSTORE POP DUP2 PUSH1 0x6 PUSH1 0x0 DUP3 DUP3 SLOAD PUSH2 0x1029 SWAP2 SWAP1 PUSH2 0x142E JUMP JUMPDEST SWAP1 SWAP2 SSTORE POP POP CALLER PUSH1 0x0 SWAP1 DUP2 MSTORE PUSH1 0x8 PUSH1 0x20 MSTORE PUSH1 0x40 DUP2 KECCAK256 DUP1 SLOAD DUP4 SWAP3 SWAP1 PUSH2 0x104D SWAP1 DUP5 SWAP1 PUSH2 0x142E JUMP JUMPDEST SWAP1 SWAP2 SSTORE POP PUSH2 0x1087 SWAP1 POP PUSH1 0x1 PUSH1 0x1 PUSH1 0xA0 SHL SUB PUSH32 0x0 AND CALLER DUP4 PUSH2 0x11AF JUMP JUMPDEST PUSH1 0x40 DUP1 MLOAD DUP3 DUP2 MSTORE PUSH1 0x20 DUP2 ADD DUP5 SWAP1 MSTORE CALLER SWAP2 PUSH32 0x7B888F90A214333304853413A491185DA1E9AD36A083BE01E27CEEF133883A58 SWAP2 ADD PUSH1 0x40 MLOAD DUP1 SWAP2 SUB SWAP1 LOG2 POP PUSH2 0x76E PUSH1 0x1 PUSH1 0x0 DUP1 MLOAD PUSH1 0x20 PUSH2 0x149E DUP4 CODECOPY DUP2 MLOAD SWAP2 MSTORE SSTORE JUMP JUMPDEST PUSH1 0x0 SLOAD PUSH1 0x1 PUSH1 0x1 PUSH1 0xA0 SHL SUB AND CALLER EQ PUSH2 0x8E7 JUMPI PUSH1 0x40 MLOAD PUSH4 0x118CDAA7 PUSH1 0xE0 SHL DUP2 MSTORE CALLER PUSH1 0x4 DUP3 ADD MSTORE PUSH1 0x24 ADD PUSH2 0x3FC JUMP JUMPDEST PUSH2 0x110F PUSH2 0x11E4 JUMP JUMPDEST PUSH1 0x2 PUSH1 0x0 DUP1 MLOAD PUSH1 0x20 PUSH2 0x149E DUP4 CODECOPY DUP2 MLOAD SWAP2 MSTORE SSTORE JUMP JUMPDEST PUSH1 0x0 DUP1 SLOAD PUSH1 0x1 PUSH1 0x1 PUSH1 0xA0 SHL SUB DUP4 DUP2 AND PUSH1 0x1 PUSH1 0x1 PUSH1 0xA0 SHL SUB NOT DUP4 AND DUP2 OR DUP5 SSTORE PUSH1 0x40 MLOAD SWAP2 SWAP1 SWAP3 AND SWAP3 DUP4 SWAP2 PUSH32 0x8BE0079C531659141344CD1FD0A4F28419497F9722A3DAAFE3B4186F6B6457E0 SWAP2 SWAP1 LOG3 POP POP JUMP JUMPDEST PUSH2 0x1181 DUP5 DUP5 DUP5 DUP5 PUSH1 0x1 PUSH2 0x1214 JUMP JUMPDEST PUSH2 0x11A9 JUMPI PUSH1 0x40 MLOAD PUSH4 0x5274AFE7 PUSH1 0xE0 SHL DUP2 MSTORE PUSH1 0x1 PUSH1 0x1 PUSH1 0xA0 SHL SUB DUP6 AND PUSH1 0x4 DUP3 ADD MSTORE PUSH1 0x24 ADD PUSH2 0x3FC JUMP JUMPDEST POP POP POP POP JUMP JUMPDEST PUSH2 0x11BC DUP4 DUP4 DUP4 PUSH1 0x1 PUSH2 0x1286 JUMP JUMPDEST PUSH2 0x4AA JUMPI PUSH1 0x40 MLOAD PUSH4 0x5274AFE7 PUSH1 0xE0 SHL DUP2 MSTORE PUSH1 0x1 PUSH1 0x1 PUSH1 0xA0 SHL SUB DUP5 AND PUSH1 0x4 DUP3 ADD MSTORE PUSH1 0x24 ADD PUSH2 0x3FC JUMP JUMPDEST PUSH1 0x0 DUP1 MLOAD PUSH1 0x20 PUSH2 0x149E DUP4 CODECOPY DUP2 MLOAD SWAP2 MSTORE SLOAD PUSH1 0x2 SUB PUSH2 0x8E7 JUMPI PUSH1 0x40 MLOAD PUSH4 0x3EE5AEB5 PUSH1 0xE0 SHL DUP2 MSTORE PUSH1 0x4 ADD PUSH1 0x40 MLOAD DUP1 SWAP2 SUB SWAP1 REVERT JUMPDEST PUSH1 0x40 MLOAD PUSH4 0x23B872DD PUSH1 0xE0 SHL PUSH1 0x0 DUP2 DUP2 MSTORE PUSH1 0x1 PUSH1 0x1 PUSH1 0xA0 SHL SUB DUP8 DUP2 AND PUSH1 0x4 MSTORE DUP7 AND PUSH1 0x24 MSTORE PUSH1 0x44 DUP6 SWAP1 MSTORE SWAP2 PUSH1 0x20 DUP4 PUSH1 0x64 DUP2 DUP1 DUP13 GAS CALL SWAP3 POP PUSH1 0x1 PUSH1 0x0 MLOAD EQ DUP4 AND PUSH2 0x1274 JUMPI DUP4 DUP4 ISZERO AND ISZERO PUSH2 0x1267 JUMPI RETURNDATASIZE PUSH1 0x0 DUP3 RETURNDATACOPY RETURNDATASIZE DUP2 REVERT JUMPDEST PUSH1 0x0 DUP9 EXTCODESIZE GT RETURNDATASIZE ISZERO AND DUP4 AND SWAP3 POP JUMPDEST PUSH1 0x40 MSTORE POP PUSH1 0x0 PUSH1 0x60 MSTORE SWAP6 SWAP5 POP POP POP POP POP JUMP JUMPDEST PUSH1 0x40 MLOAD PUSH4 0xA9059CBB PUSH1 0xE0 SHL PUSH1 0x0 DUP2 DUP2 MSTORE PUSH1 0x1 PUSH1 0x1 PUSH1 0xA0 SHL SUB DUP7 AND PUSH1 0x4 MSTORE PUSH1 0x24 DUP6 SWAP1 MSTORE SWAP2 PUSH1 0x20 DUP4 PUSH1 0x44 DUP2 DUP1 DUP12 GAS CALL SWAP3 POP PUSH1 0x1 PUSH1 0x0 MLOAD EQ DUP4 AND PUSH2 0x12E0 JUMPI DUP4 DUP4 ISZERO AND ISZERO PUSH2 0x12D3 JUMPI RETURNDATASIZE PUSH1 0x0 DUP3 RETURNDATACOPY RETURNDATASIZE DUP2 REVERT JUMPDEST PUSH1 0x0 DUP8 EXTCODESIZE GT RETURNDATASIZE ISZERO AND DUP4 AND SWAP3 POP JUMPDEST PUSH1 0x40 MSTORE POP SWAP5 SWAP4 POP POP POP POP JUMP JUMPDEST DUP1 CALLDATALOAD PUSH1 0x1 PUSH1 0x1 PUSH1 0xA0 SHL SUB DUP2 AND DUP2 EQ PUSH2 0x1303 JUMPI PUSH1 0x0 DUP1 REVERT JUMPDEST SWAP2 SWAP1 POP JUMP JUMPDEST PUSH1 0x0 PUSH1 0x20 DUP3 DUP5 SUB SLT ISZERO PUSH2 0x131A JUMPI PUSH1 0x0 DUP1 REVERT JUMPDEST PUSH2 0x1323 DUP3 PUSH2 0x12EC JUMP JUMPDEST SWAP4 SWAP3 POP POP POP JUMP JUMPDEST PUSH1 0x0 DUP1 PUSH1 0x40 DUP4 DUP6 SUB SLT ISZERO PUSH2 0x133D JUMPI PUSH1 0x0 DUP1 REVERT JUMPDEST PUSH2 0x1346 DUP4 PUSH2 0x12EC JUMP JUMPDEST SWAP5 PUSH1 0x20 SWAP4 SWAP1 SWAP4 ADD CALLDATALOAD SWAP4 POP POP POP JUMP JUMPDEST PUSH1 0x0 PUSH1 0x20 DUP3 DUP5 SUB SLT ISZERO PUSH2 0x1366 JUMPI PUSH1 0x0 DUP1 REVERT JUMPDEST POP CALLDATALOAD SWAP2 SWAP1 POP JUMP JUMPDEST PUSH1 0x0 PUSH1 0x20 DUP3 DUP5 SUB SLT ISZERO PUSH2 0x137F JUMPI PUSH1 0x0 DUP1 REVERT JUMPDEST DUP2 MLOAD DUP1 ISZERO ISZERO DUP2 EQ PUSH2 0x1323 JUMPI PUSH1 0x0 DUP1 REVERT JUMPDEST PUSH1 0x0 PUSH1 0x20 DUP3 DUP5 SUB SLT ISZERO PUSH2 0x13A1 JUMPI PUSH1 0x0 DUP1 REVERT JUMPDEST POP MLOAD SWAP2 SWAP1 POP JUMP JUMPDEST PUSH4 0x4E487B71 PUSH1 0xE0 SHL PUSH1 0x0 MSTORE PUSH1 0x11 PUSH1 0x4 MSTORE PUSH1 0x24 PUSH1 0x0 REVERT JUMPDEST DUP1 DUP3 MUL DUP2 ISZERO DUP3 DUP3 DIV DUP5 EQ OR PUSH2 0x91B JUMPI PUSH2 0x91B PUSH2 0x13A8 JUMP JUMPDEST PUSH1 0x0 DUP3 PUSH2 0x13F2 JUMPI PUSH4 0x4E487B71 PUSH1 0xE0 SHL PUSH1 0x0 MSTORE PUSH1 0x12 PUSH1 0x4 MSTORE PUSH1 0x24 PUSH1 0x0 REVERT JUMPDEST POP DIV SWAP1 JUMP JUMPDEST PUSH1 0x20 DUP1 DUP3 MSTORE PUSH1 0x18 SWAP1 DUP3 ADD MSTORE PUSH32 0x496E73756666696369656E742054465420696E20706F6F6C0000000000000000 PUSH1 0x40 DUP3 ADD MSTORE PUSH1 0x60 ADD SWAP1 JUMP JUMPDEST DUP1 DUP3 ADD DUP1 DUP3 GT ISZERO PUSH2 0x91B JUMPI PUSH2 0x91B PUSH2 0x13A8 JUMP JUMPDEST PUSH1 0x20 DUP1 DUP3 MSTORE PUSH1 0x16 SWAP1 DUP3 ADD MSTORE PUSH22 0x13DB9B1E481C1C99591A58DD1A5BDB881B585C9AD95D PUSH1 0x52 SHL PUSH1 0x40 DUP3 ADD MSTORE PUSH1 0x60 ADD SWAP1 JUMP JUMPDEST PUSH1 0x20 DUP1 DUP3 MSTORE PUSH1 0x12 SWAP1 DUP3 ADD MSTORE PUSH18 0x416D6F756E74206D757374206265203E203 PUSH1 0x74 SHL PUSH1 0x40 DUP3 ADD MSTORE PUSH1 0x60 ADD SWAP1 JUMP INVALID SWAP12 PUSH24 0x9B17422D0DF92223018B32B4D1FA46E071723D6817E2486D STOP EXTCODESIZE 0xEC 0xC5 PUSH0 STOP LOG2 PUSH5 0x6970667358 0x22 SLT KECCAK256 SWAP15 PUSH10 0xCD7884082D2A65BCBB63 BLOBBASEFEE 0xAA PREVRANDAO 0xC7 0xB3 GASPRICE OR 0xE7 SWAP6 0xAC 0xD4 PUSH11 0x82132DB5CC35873B64736F PUSH13 0x63430008180033000000000000 "},"methodIdentifiers":{"buyTFT(uint256)":"34a0cecc","calculateTFTForUSDT(uint256)":"9690835c","calculateUSDTForTFT(uint256)":"961eab82","claimInsurance(uint256)":"f85920d8","currentRoundInsurance()":"68028954","deposit(uint256)":"b6b55f25","depositTFT(uint256)":"975aac22","getPoolStats()":"bbb85188","notifyDeposit(uint256)":"5949a8f7","owner()":"8da5cb5b","payInsuranceToUser(address,uint256)":"ae5c02d2","predictionMarket()":"def114b6","recoverTokens(address,uint256)":"069c9fae","renounceOwnership()":"715018a6","resetRoundInsurance()":"4665f55b","setPredictionMarket(address)":"03b88ba2","setTFTPrice(uint256)":"3b39d547","tft()":"5fbd83f4","tftPrice()":"04e378bb","totalTFTBought()":"2fb4e561","totalTFTDistributed()":"619fd3bf","totalUSDTDeposited()":"fb86df87","totalUSDTDistributed()":"8189af52","transferOwnership(address)":"f2fde38b","usdt()":"2f48ab7d","userClaims(address)":"f0a3563c"}}}}}