{"src/TradeFutureToken.sol":{"TradeFutureToken":{"abi":[{"inputs":[{"internalType":"address","name":"_nodeDividendWallet","type":"address"},{"internalType":"address","name":"_operationsWallet","type":"address"},{"internalType":"address","name":"_marketMakerWallet","type":"address"}],"stateMutability":"nonpayable","type":"constructor"},{"inputs":[{"internalType":"address","name":"spender","type":"address"},{"internalType":"uint256","name":"allowance","type":"uint256"},{"internalType":"uint256","name":"needed","type":"uint256"}],"name":"ERC20InsufficientAllowance","type":"error"},{"inputs":[{"internalType":"address","name":"sender","type":"address"},{"internalType":"uint256","name":"balance","type":"uint256"},{"internalType":"uint256","name":"needed","type":"uint256"}],"name":"ERC20InsufficientBalance","type":"error"},{"inputs":[{"internalType":"address","name":"approver","type":"address"}],"name":"ERC20InvalidApprover","type":"error"},{"inputs":[{"internalType":"address","name":"receiver","type":"address"}],"name":"ERC20InvalidReceiver","type":"error"},{"inputs":[{"internalType":"address","name":"sender","type":"address"}],"name":"ERC20InvalidSender","type":"error"},{"inputs":[{"internalType":"address","name":"spender","type":"address"}],"name":"ERC20InvalidSpender","type":"error"},{"inputs":[{"internalType":"address","name":"owner","type":"address"}],"name":"OwnableInvalidOwner","type":"error"},{"inputs":[{"internalType":"address","name":"account","type":"address"}],"name":"OwnableUnauthorizedAccount","type":"error"},{"inputs":[],"name":"ReentrancyGuardReentrantCall","type":"error"},{"anonymous":false,"inputs":[{"indexed":true,"internalType":"address","name":"owner","type":"address"},{"indexed":true,"internalType":"address","name":"spender","type":"address"},{"indexed":false,"internalType":"uint256","name":"value","type":"uint256"}],"name":"Approval","type":"event"},{"anonymous":false,"inputs":[{"indexed":true,"internalType":"address","name":"previousOwner","type":"address"},{"indexed":true,"internalType":"address","name":"newOwner","type":"address"}],"name":"OwnershipTransferred","type":"event"},{"anonymous":false,"inputs":[{"indexed":true,"internalType":"address","name":"user","type":"address"},{"indexed":true,"internalType":"address","name":"referrer","type":"address"}],"name":"ReferrerSet","type":"event"},{"anonymous":false,"inputs":[{"indexed":true,"internalType":"address","name":"from","type":"address"},{"indexed":false,"internalType":"uint256","name":"totalTax","type":"uint256"},{"indexed":false,"internalType":"uint256","name":"nodeDividend","type":"uint256"},{"indexed":false,"internalType":"uint256","name":"operations","type":"uint256"},{"indexed":false,"internalType":"uint256","name":"marketMaker","type":"uint256"},{"indexed":false,"internalType":"uint256","name":"burned","type":"uint256"},{"indexed":false,"internalType":"uint256","name":"levelReward","type":"uint256"},{"indexed":false,"internalType":"uint256","name":"directReferral","type":"uint256"},{"indexed":false,"internalType":"uint256","name":"liquidityReturn","type":"uint256"}],"name":"TaxDistributed","type":"event"},{"anonymous":false,"inputs":[{"indexed":false,"internalType":"bool","name":"enabled","type":"bool"}],"name":"TradingEnabled","type":"event"},{"anonymous":false,"inputs":[{"indexed":true,"internalType":"address","name":"from","type":"address"},{"indexed":true,"internalType":"address","name":"to","type":"address"},{"indexed":false,"internalType":"uint256","name":"value","type":"uint256"}],"name":"Transfer","type":"event"},{"anonymous":false,"inputs":[{"indexed":false,"internalType":"string","name":"walletType","type":"string"},{"indexed":false,"internalType":"address","name":"newAddress","type":"address"}],"name":"WalletUpdated","type":"event"},{"inputs":[],"name":"BURN_RATE","outputs":[{"internalType":"uint256","name":"","type":"uint256"}],"stateMutability":"view","type":"function"},{"inputs":[],"name":"MARKET_MAKER_RATE","outputs":[{"internalType":"uint256","name":"","type":"uint256"}],"stateMutability":"view","type":"function"},{"inputs":[],"name":"NODE_DIVIDEND_RATE","outputs":[{"internalType":"uint256","name":"","type":"uint256"}],"stateMutability":"view","type":"function"},{"inputs":[],"name":"OPERATIONS_RATE","outputs":[{"internalType":"uint256","name":"","type":"uint256"}],"stateMutability":"view","type":"function"},{"inputs":[],"name":"TAX_RATE","outputs":[{"internalType":"uint256","name":"","type":"uint256"}],"stateMutability":"view","type":"function"},{"inputs":[{"internalType":"address","name":"owner","type":"address"},{"internalType":"address","name":"spender","type":"address"}],"name":"allowance","outputs":[{"internalType":"uint256","name":"","type":"uint256"}],"stateMutability":"view","type":"function"},{"inputs":[{"internalType":"address","name":"spender","type":"address"},{"internalType":"uint256","name":"value","type":"uint256"}],"name":"approve","outputs":[{"internalType":"bool","name":"","type":"bool"}],"stateMutability":"nonpayable","type":"function"},{"inputs":[{"internalType":"address","name":"account","type":"address"}],"name":"balanceOf","outputs":[{"internalType":"uint256","name":"","type":"uint256"}],"stateMutability":"view","type":"function"},{"inputs":[{"internalType":"uint256","name":"value","type":"uint256"}],"name":"burn","outputs":[],"stateMutability":"nonpayable","type":"function"},{"inputs":[{"internalType":"address","name":"account","type":"address"},{"internalType":"uint256","name":"value","type":"uint256"}],"name":"burnFrom","outputs":[],"stateMutability":"nonpayable","type":"function"},{"inputs":[],"name":"decimals","outputs":[{"internalType":"uint8","name":"","type":"uint8"}],"stateMutability":"view","type":"function"},{"inputs":[{"internalType":"address","name":"","type":"address"}],"name":"directReferralRewards","outputs":[{"internalType":"uint256","name":"","type":"uint256"}],"stateMutability":"view","type":"function"},{"inputs":[{"internalType":"uint256","name":"amount","type":"uint256"}],"name":"getTaxBreakdown","outputs":[{"internalType":"uint256","name":"totalTax","type":"uint256"},{"internalType":"uint256","name":"nodeDividend","type":"uint256"},{"internalType":"uint256","name":"operations","type":"uint256"},{"internalType":"uint256","name":"marketMaker","type":"uint256"},{"internalType":"uint256","name":"burnAmount","type":"uint256"},{"internalType":"uint256","name":"amountAfterTax","type":"uint256"}],"stateMutability":"pure","type":"function"},{"inputs":[],"name":"levelRewardWallet","outputs":[{"internalType":"address","name":"","type":"address"}],"stateMutability":"view","type":"function"},{"inputs":[],"name":"liquidityReturnWallet","outputs":[{"internalType":"address","name":"","type":"address"}],"stateMutability":"view","type":"function"},{"inputs":[],"name":"marketMakerWallet","outputs":[{"internalType":"address","name":"","type":"address"}],"stateMutability":"view","type":"function"},{"inputs":[],"name":"name","outputs":[{"internalType":"string","name":"","type":"string"}],"stateMutability":"view","type":"function"},{"inputs":[],"name":"nodeDividendWallet","outputs":[{"internalType":"address","name":"","type":"address"}],"stateMutability":"view","type":"function"},{"inputs":[],"name":"operationsWallet","outputs":[{"internalType":"address","name":"","type":"address"}],"stateMutability":"view","type":"function"},{"inputs":[],"name":"owner","outputs":[{"internalType":"address","name":"","type":"address"}],"stateMutability":"view","type":"function"},{"inputs":[{"internalType":"address","name":"token","type":"address"},{"internalType":"uint256","name":"amount","type":"uint256"}],"name":"recoverTokens","outputs":[],"stateMutability":"nonpayable","type":"function"},{"inputs":[{"internalType":"address","name":"","type":"address"}],"name":"referrers","outputs":[{"internalType":"address","name":"","type":"address"}],"stateMutability":"view","type":"function"},{"inputs":[],"name":"renounceOwnership","outputs":[],"stateMutability":"nonpayable","type":"function"},{"inputs":[{"internalType":"address","name":"_referrer","type":"address"}],"name":"setReferrer","outputs":[],"stateMutability":"nonpayable","type":"function"},{"inputs":[{"internalType":"bool","name":"_enabled","type":"bool"}],"name":"setTradingEnabled","outputs":[],"stateMutability":"nonpayable","type":"function"},{"inputs":[],"name":"symbol","outputs":[{"internalType":"string","name":"","type":"string"}],"stateMutability":"view","type":"function"},{"inputs":[],"name":"totalSupply","outputs":[{"internalType":"uint256","name":"","type":"uint256"}],"stateMutability":"view","type":"function"},{"inputs":[],"name":"tradingEnabled","outputs":[{"internalType":"bool","name":"","type":"bool"}],"stateMutability":"view","type":"function"},{"inputs":[{"internalType":"address","name":"to","type":"address"},{"internalType":"uint256","name":"amount","type":"uint256"}],"name":"transfer","outputs":[{"internalType":"bool","name":"","type":"bool"}],"stateMutability":"nonpayable","type":"function"},{"inputs":[{"internalType":"address","name":"from","type":"address"},{"internalType":"address","name":"to","type":"address"},{"internalType":"uint256","name":"amount","type":"uint256"}],"name":"transferFrom","outputs":[{"internalType":"bool","name":"","type":"bool"}],"stateMutability":"nonpayable","type":"function"},{"inputs":[{"internalType":"address","name":"newOwner","type":"address"}],"name":"transferOwnership","outputs":[],"stateMutability":"nonpayable","type":"function"},{"inputs":[{"internalType":"address","name":"_nodeDividendWallet","type":"address"},{"internalType":"address","name":"_operationsWallet","type":"address"},{"internalType":"address","name":"_marketMakerWallet","type":"address"}],"name":"updateWallets","outputs":[],"stateMutability":"nonpayable","type":"function"}],"evm":{"bytecode":{"linkReferences":{},"object":"60806040523480156200001157600080fd5b5060405162001c2938038062001c2983398101604081905262000034916200045c565b33604051806040016040528060118152602001702a3930b232a33aba3ab932902a37b5b2b760791b8152506040518060400160405280600381526020016215119560ea1b81525081600390816200008c91906200054d565b5060046200009b82826200054d565b5050506001600160a01b038116620000ce57604051631e4fbdf760e01b8152600060048201526024015b60405180910390fd5b620000d9816200027c565b5060017f9b779b17422d0df92223018b32b4d1fa46e071723d6817e2486d003becc55f00556001600160a01b038316620001565760405162461bcd60e51b815260206004820152601360248201527f496e76616c6964206e6f64652077616c6c6574000000000000000000000000006044820152606401620000c5565b6001600160a01b038216620001ae5760405162461bcd60e51b815260206004820152601960248201527f496e76616c6964206f7065726174696f6e732077616c6c6574000000000000006044820152606401620000c5565b6001600160a01b038116620002065760405162461bcd60e51b815260206004820152601b60248201527f496e76616c6964206d61726b6574206d616b65722077616c6c657400000000006044820152606401620000c5565b600680546001600160a01b038086166001600160a01b031992831617909255600780548584169083161790556008805492841692909116919091179055620002733362000251601290565b6200025e90600a6200072e565b6200026d9062a7d8c062000746565b620002ce565b50505062000776565b600580546001600160a01b038381166001600160a01b0319831681179093556040519116919082907f8be0079c531659141344cd1fd0a4f28419497f9722a3daafe3b4186f6b6457e090600090a35050565b6001600160a01b038216620002fa5760405163ec442f0560e01b815260006004820152602401620000c5565b62000308600083836200030c565b5050565b6001600160a01b0383166200033b5780600260008282546200032f919062000760565b90915550620003af9050565b6001600160a01b03831660009081526020819052604090205481811015620003905760405163391434e360e21b81526001600160a01b03851660048201526024810182905260448101839052606401620000c5565b6001600160a01b03841660009081526020819052604090209082900390555b6001600160a01b038216620003cd57600280548290039055620003ec565b6001600160a01b03821660009081526020819052604090208054820190555b816001600160a01b0316836001600160a01b03167fddf252ad1be2c89b69c2b068fc378daa952ba7f163c4a11628f55a4df523b3ef836040516200043291815260200190565b60405180910390a3505050565b80516001600160a01b03811681146200045757600080fd5b919050565b6000806000606084860312156200047257600080fd5b6200047d846200043f565b92506200048d602085016200043f565b91506200049d604085016200043f565b90509250925092565b634e487b7160e01b600052604160045260246000fd5b600181811c90821680620004d157607f821691505b602082108103620004f257634e487b7160e01b600052602260045260246000fd5b50919050565b601f82111562000548576000816000526020600020601f850160051c81016020861015620005235750805b601f850160051c820191505b8181101562000544578281556001016200052f565b5050505b505050565b81516001600160401b03811115620005695762000569620004a6565b62000581816200057a8454620004bc565b84620004f8565b602080601f831160018114620005b95760008415620005a05750858301515b600019600386901b1c1916600185901b17855562000544565b600085815260208120601f198616915b82811015620005ea57888601518255948401946001909101908401620005c9565b5085821015620006095787850151600019600388901b60f8161c191681555b5050505050600190811b01905550565b634e487b7160e01b600052601160045260246000fd5b600181815b808511156200067057816000190482111562000654576200065462000619565b808516156200066257918102915b93841c939080029062000634565b509250929050565b600082620006895750600162000728565b81620006985750600062000728565b8160018114620006b15760028114620006bc57620006dc565b600191505062000728565b60ff841115620006d057620006d062000619565b50506001821b62000728565b5060208310610133831016604e8410600b841016171562000701575081810a62000728565b6200070d83836200062f565b806000190482111562000724576200072462000619565b0290505b92915050565b60006200073f60ff84168362000678565b9392505050565b808202811582820484141762000728576200072862000619565b8082018082111562000728576200072862000619565b6114a380620007866000396000f3fe608060405234801561001057600080fd5b50600436106101f05760003560e01c80637acfe0ec1161010f578063b47e5bda116100a2578063f049c4d611610071578063f049c4d614610448578063f2fde38b14610488578063f846a885146103bb578063fd72e22a1461049b57600080fd5b8063b47e5bda146103e9578063c2e5ec04146103fc578063cee93dad146103bb578063dd62ed3e1461040f57600080fd5b806395d89b41116100de57806395d89b41146103b35780639bf81850146103bb578063a18a7bfc146103c3578063a9059cbb146103d657600080fd5b80637acfe0ec146103735780637c073e271461038657806383f170be146103995780638da5cb5b146103a257600080fd5b806342966c681161018757806364b4c7241161015657806364b4c7241461032657806370a082311461032f578063715018a61461035857806379cc67901461036057600080fd5b806342966c68146102b25780634a3b68cc146102c55780634ada218b146103065780635eccfb6d1461031357600080fd5b806318160ddd116101c357806318160ddd1461025e5780631d2e0e8f1461027057806323b872dd14610290578063313ce567146102a357600080fd5b8063069c9fae146101f557806306fdde031461020a578063095ea7b314610228578063147c9f6d1461024b575b600080fd5b6102086102033660046111f7565b6104ae565b005b610212610598565b60405161021f9190611221565b60405180910390f35b61023b6102363660046111f7565b61062a565b604051901515815260200161021f565b610208610259366004611270565b610644565b6002545b60405190815260200161021f565b61026261027e3660046112b3565b600c6020526000908152604090205481565b61023b61029e3660046112ce565b6107d9565b6040516012815260200161021f565b6102086102c036600461130a565b61088c565b6102ee6102d33660046112b3565b600b602052600090815260409020546001600160a01b031681565b6040516001600160a01b03909116815260200161021f565b600d5461023b9060ff1681565b6009546102ee906001600160a01b031681565b61026261012c81565b61026261033d3660046112b3565b6001600160a01b031660009081526020819052604090205490565b610208610899565b61020861036e3660046111f7565b6108ad565b6008546102ee906001600160a01b031681565b600a546102ee906001600160a01b031681565b61026261025881565b6005546001600160a01b03166102ee565b6102126108c2565b610262606481565b6102086103d13660046112b3565b6108d1565b61023b6103e43660046111f7565b610a1a565b6006546102ee906001600160a01b031681565b61020861040a366004611331565b610ab6565b61026261041d36600461134e565b6001600160a01b03918216600090815260016020908152604080832093909416825291909152205490565b61045b61045636600461130a565b610b05565b604080519687526020870195909552938501929092526060840152608083015260a082015260c00161021f565b6102086104963660046112b3565b610ba5565b6007546102ee906001600160a01b031681565b6104b6610be0565b6001600160a01b038216610502576005546040516001600160a01b03909116904780156108fc02916000818181858888f193505050501580156104fd573d6000803e3d6000fd5b505050565b816001600160a01b031663a9059cbb6105236005546001600160a01b031690565b6040516001600160e01b031960e084901b1681526001600160a01b039091166004820152602481018490526044016020604051808303816000875af1158015610570573d6000803e3d6000fd5b505050506040513d601f19601f820116820180604052508101906104fd9190611381565b5050565b6060600380546105a79061139e565b80601f01602080910402602001604051908101604052809291908181526020018280546105d39061139e565b80156106205780601f106105f557610100808354040283529160200191610620565b820191906000526020600020905b81548152906001019060200180831161060357829003601f168201915b5050505050905090565b600033610638818585610c0d565b60019150505b92915050565b61064c610be0565b6001600160a01b038316156106d057600680546001600160a01b0385166001600160a01b0319909116811790915560408051818152600c818301526b1b9bd919511a5d9a59195b9960a21b60608201526020810192909252517f6ff3a4003b90be84595beb5f6acb9d54f88bd3e6dd4887ca67e53dc9645465ea9181900360800190a15b6001600160a01b0382161561075257600780546001600160a01b0384166001600160a01b0319909116811790915560408051818152600a81830152696f7065726174696f6e7360b01b60608201526020810192909252517f6ff3a4003b90be84595beb5f6acb9d54f88bd3e6dd4887ca67e53dc9645465ea9181900360800190a15b6001600160a01b038116156104fd57600880546001600160a01b0383166001600160a01b0319909116811790915560408051818152600b818301526a36b0b935b2ba26b0b5b2b960a91b60608201526020810192909252517f6ff3a4003b90be84595beb5f6acb9d54f88bd3e6dd4887ca67e53dc9645465ea9181900360800190a1505050565b600d5460009060ff16806108065750336107fb6005546001600160a01b031690565b6001600160a01b0316145b61084d5760405162461bcd60e51b8152602060048201526013602482015272151c98591a5b99c81b9bdd08195b98589b1959606a1b60448201526064015b60405180910390fd5b610855610c1a565b610860843384610c36565b61086b848484610cb5565b506001610885600160008051602061144e83398151915255565b9392505050565b6108963382610ec9565b50565b6108a1610be0565b6108ab6000610eff565b565b6108b8823383610c36565b6105948282610ec9565b6060600480546105a79061139e565b6001600160a01b03811661091a5760405162461bcd60e51b815260206004820152601060248201526f24b73b30b634b2103932b332b93932b960811b6044820152606401610844565b336001600160a01b038216036109665760405162461bcd60e51b815260206004820152601160248201527021b0b73737ba103932b332b91039b2b63360791b6044820152606401610844565b336000908152600b60205260409020546001600160a01b0316156109c35760405162461bcd60e51b8152602060048201526014602482015273149959995c9c995c88185b1c9958591e481cd95d60621b6044820152606401610844565b336000818152600b602052604080822080546001600160a01b0319166001600160a01b03861690811790915590519092917f5f7165288eef601591cf549e15ff19ef9060b7f71b9c115be946fa1fe7ebf68a91a350565b600d5460009060ff1680610a47575033610a3c6005546001600160a01b031690565b6001600160a01b0316145b610a895760405162461bcd60e51b8152602060048201526013602482015272151c98591a5b99c81b9bdd08195b98589b1959606a1b6044820152606401610844565b610a91610c1a565b610a9c338484610cb5565b50600161063e600160008051602061144e83398151915255565b610abe610be0565b600d805460ff19168215159081179091556040519081527fbeda7dca7bc1b3e80b871f4818129ec73b771581f803d553aeb3484098e5f65a9060200160405180910390a150565b60008080808080612710610b1b610258896113ee565b610b259190611405565b9550612710610b3661012c886113ee565b610b409190611405565b9450612710610b506064886113ee565b610b5a9190611405565b9350612710610b6a6064886113ee565b610b749190611405565b9250612710610b846064886113ee565b610b8e9190611405565b9150610b9a8688611427565b905091939550919395565b610bad610be0565b6001600160a01b038116610bd757604051631e4fbdf760e01b815260006004820152602401610844565b61089681610eff565b6005546001600160a01b031633146108ab5760405163118cdaa760e01b8152336004820152602401610844565b6104fd8383836001610f51565b610c22611026565b600260008051602061144e83398151915255565b6001600160a01b03838116600090815260016020908152604080832093861683529290522054600019811015610caf5781811015610ca057604051637dc7a0d960e11b81526001600160a01b03841660048201526024810182905260448101839052606401610844565b610caf84848484036000610f51565b50505050565b600d5460009060ff168015610cd857506005546001600160a01b03858116911614155b8015610cf257506005546001600160a01b03848116911614155b8015610d0757506001600160a01b0384163014155b8015610d1c57506001600160a01b0383163014155b9050808015610d2b5750600082115b15610ebe576000612710610d4161012c856113ee565b610d4b9190611405565b90506000612710610d5d6064866113ee565b610d679190611405565b90506000612710610d796064876113ee565b610d839190611405565b90506000612710610d956064886113ee565b610d9f9190611405565b905060008183610daf868861143a565b610db9919061143a565b610dc3919061143a565b90508015610eb857600654610de3908a906001600160a01b031687611056565b600754610dfb908a906001600160a01b031686611056565b600854610e13908a906001600160a01b031685611056565b8115610e2357610e238983610ec9565b6000610e2f8289611427565b9050610e3c8a8a83611056565b60408051838152602081018890529081018690526060810185905260808101849052600060a0820181905260c0820181905260e08201526001600160a01b038b16907fe7f6ffcc7ed5d831b9cff3926bf86923154cf544ae127000f5eb3199a80116f1906101000160405180910390a250505050505050505050565b50505050505b610caf848484611056565b6001600160a01b038216610ef357604051634b637e8f60e11b815260006004820152602401610844565b610594826000836110b1565b600580546001600160a01b038381166001600160a01b0319831681179093556040519116919082907f8be0079c531659141344cd1fd0a4f28419497f9722a3daafe3b4186f6b6457e090600090a35050565b6001600160a01b038416610f7b5760405163e602df0560e01b815260006004820152602401610844565b6001600160a01b038316610fa557604051634a1406b160e11b815260006004820152602401610844565b6001600160a01b0380851660009081526001602090815260408083209387168352929052208290558015610caf57826001600160a01b0316846001600160a01b03167f8c5be1e5ebec7d5bd14f71427d1e84f3dd0314c0f7b2291e5b200ac8c7c3b9258460405161101891815260200190565b60405180910390a350505050565b60008051602061144e833981519152546002036108ab57604051633ee5aeb560e01b815260040160405180910390fd5b6001600160a01b03831661108057604051634b637e8f60e11b815260006004820152602401610844565b6001600160a01b0382166110aa5760405163ec442f0560e01b815260006004820152602401610844565b6104fd8383835b6001600160a01b0383166110dc5780600260008282546110d1919061143a565b9091555061114e9050565b6001600160a01b0383166000908152602081905260409020548181101561112f5760405163391434e360e21b81526001600160a01b03851660048201526024810182905260448101839052606401610844565b6001600160a01b03841660009081526020819052604090209082900390555b6001600160a01b03821661116a57600280548290039055611189565b6001600160a01b03821660009081526020819052604090208054820190555b816001600160a01b0316836001600160a01b03167fddf252ad1be2c89b69c2b068fc378daa952ba7f163c4a11628f55a4df523b3ef836040516111ce91815260200190565b60405180910390a3505050565b80356001600160a01b03811681146111f257600080fd5b919050565b6000806040838503121561120a57600080fd5b611213836111db565b946020939093013593505050565b60006020808352835180602085015260005b8181101561124f57858101830151858201604001528201611233565b506000604082860101526040601f19601f8301168501019250505092915050565b60008060006060848603121561128557600080fd5b61128e846111db565b925061129c602085016111db565b91506112aa604085016111db565b90509250925092565b6000602082840312156112c557600080fd5b610885826111db565b6000806000606084860312156112e357600080fd5b6112ec846111db565b92506112fa602085016111db565b9150604084013590509250925092565b60006020828403121561131c57600080fd5b5035919050565b801515811461089657600080fd5b60006020828403121561134357600080fd5b813561088581611323565b6000806040838503121561136157600080fd5b61136a836111db565b9150611378602084016111db565b90509250929050565b60006020828403121561139357600080fd5b815161088581611323565b600181811c908216806113b257607f821691505b6020821081036113d257634e487b7160e01b600052602260045260246000fd5b50919050565b634e487b7160e01b600052601160045260246000fd5b808202811582820484141761063e5761063e6113d8565b60008261142257634e487b7160e01b600052601260045260246000fd5b500490565b8181038181111561063e5761063e6113d8565b8082018082111561063e5761063e6113d856fe9b779b17422d0df92223018b32b4d1fa46e071723d6817e2486d003becc55f00a26469706673582212204992d1618d30ba0c68e53778c212973463c9a9af09e03432db88bf4486a5299064736f6c63430008180033","opcodes":"PUSH1 0x80 PUSH1 0x40 MSTORE CALLVALUE DUP1 ISZERO PUSH3 0x11 JUMPI PUSH1 0x0 DUP1 REVERT JUMPDEST POP PUSH1 0x40 MLOAD PUSH3 0x1C29 CODESIZE SUB DUP1 PUSH3 0x1C29 DUP4 CODECOPY DUP2 ADD PUSH1 0x40 DUP2 SWAP1 MSTORE PUSH3 0x34 SWAP2 PUSH3 0x45C JUMP JUMPDEST CALLER PUSH1 0x40 MLOAD DUP1 PUSH1 0x40 ADD PUSH1 0x40 MSTORE DUP1 PUSH1 0x11 DUP2 MSTORE PUSH1 0x20 ADD PUSH17 0x2A3930B232A33ABA3AB932902A37B5B2B7 PUSH1 0x79 SHL DUP2 MSTORE POP PUSH1 0x40 MLOAD DUP1 PUSH1 0x40 ADD PUSH1 0x40 MSTORE DUP1 PUSH1 0x3 DUP2 MSTORE PUSH1 0x20 ADD PUSH3 0x151195 PUSH1 0xEA SHL DUP2 MSTORE POP DUP2 PUSH1 0x3 SWAP1 DUP2 PUSH3 0x8C SWAP2 SWAP1 PUSH3 0x54D JUMP JUMPDEST POP PUSH1 0x4 PUSH3 0x9B DUP3 DUP3 PUSH3 0x54D JUMP JUMPDEST POP POP POP PUSH1 0x1 PUSH1 0x1 PUSH1 0xA0 SHL SUB DUP2 AND PUSH3 0xCE JUMPI PUSH1 0x40 MLOAD PUSH4 0x1E4FBDF7 PUSH1 0xE0 SHL DUP2 MSTORE PUSH1 0x0 PUSH1 0x4 DUP3 ADD MSTORE PUSH1 0x24 ADD JUMPDEST PUSH1 0x40 MLOAD DUP1 SWAP2 SUB SWAP1 REVERT JUMPDEST PUSH3 0xD9 DUP2 PUSH3 0x27C JUMP JUMPDEST POP PUSH1 0x1 PUSH32 0x9B779B17422D0DF92223018B32B4D1FA46E071723D6817E2486D003BECC55F00 SSTORE PUSH1 0x1 PUSH1 0x1 PUSH1 0xA0 SHL SUB DUP4 AND PUSH3 0x156 JUMPI PUSH1 0x40 MLOAD PUSH3 0x461BCD PUSH1 0xE5 SHL DUP2 MSTORE PUSH1 0x20 PUSH1 0x4 DUP3 ADD MSTORE PUSH1 0x13 PUSH1 0x24 DUP3 ADD MSTORE PUSH32 0x496E76616C6964206E6F64652077616C6C657400000000000000000000000000 PUSH1 0x44 DUP3 ADD MSTORE PUSH1 0x64 ADD PUSH3 0xC5 JUMP JUMPDEST PUSH1 0x1 PUSH1 0x1 PUSH1 0xA0 SHL SUB DUP3 AND PUSH3 0x1AE JUMPI PUSH1 0x40 MLOAD PUSH3 0x461BCD PUSH1 0xE5 SHL DUP2 MSTORE PUSH1 0x20 PUSH1 0x4 DUP3 ADD MSTORE PUSH1 0x19 PUSH1 0x24 DUP3 ADD MSTORE PUSH32 0x496E76616C6964206F7065726174696F6E732077616C6C657400000000000000 PUSH1 0x44 DUP3 ADD MSTORE PUSH1 0x64 ADD PUSH3 0xC5 JUMP JUMPDEST PUSH1 0x1 PUSH1 0x1 PUSH1 0xA0 SHL SUB DUP2 AND PUSH3 0x206 JUMPI PUSH1 0x40 MLOAD PUSH3 0x461BCD PUSH1 0xE5 SHL DUP2 MSTORE PUSH1 0x20 PUSH1 0x4 DUP3 ADD MSTORE PUSH1 0x1B PUSH1 0x24 DUP3 ADD MSTORE PUSH32 0x496E76616C6964206D61726B6574206D616B65722077616C6C65740000000000 PUSH1 0x44 DUP3 ADD MSTORE PUSH1 0x64 ADD PUSH3 0xC5 JUMP JUMPDEST PUSH1 0x6 DUP1 SLOAD PUSH1 0x1 PUSH1 0x1 PUSH1 0xA0 SHL SUB DUP1 DUP7 AND PUSH1 0x1 PUSH1 0x1 PUSH1 0xA0 SHL SUB NOT SWAP3 DUP4 AND OR SWAP1 SWAP3 SSTORE PUSH1 0x7 DUP1 SLOAD DUP6 DUP5 AND SWAP1 DUP4 AND OR SWAP1 SSTORE PUSH1 0x8 DUP1 SLOAD SWAP3 DUP5 AND SWAP3 SWAP1 SWAP2 AND SWAP2 SWAP1 SWAP2 OR SWAP1 SSTORE PUSH3 0x273 CALLER PUSH3 0x251 PUSH1 0x12 SWAP1 JUMP JUMPDEST PUSH3 0x25E SWAP1 PUSH1 0xA PUSH3 0x72E JUMP JUMPDEST PUSH3 0x26D SWAP1 PUSH3 0xA7D8C0 PUSH3 0x746 JUMP JUMPDEST PUSH3 0x2CE JUMP JUMPDEST POP POP POP PUSH3 0x776 JUMP JUMPDEST PUSH1 0x5 DUP1 SLOAD PUSH1 0x1 PUSH1 0x1 PUSH1 0xA0 SHL SUB DUP4 DUP2 AND PUSH1 0x1 PUSH1 0x1 PUSH1 0xA0 SHL SUB NOT DUP4 AND DUP2 OR SWAP1 SWAP4 SSTORE PUSH1 0x40 MLOAD SWAP2 AND SWAP2 SWAP1 DUP3 SWAP1 PUSH32 0x8BE0079C531659141344CD1FD0A4F28419497F9722A3DAAFE3B4186F6B6457E0 SWAP1 PUSH1 0x0 SWAP1 LOG3 POP POP JUMP JUMPDEST PUSH1 0x1 PUSH1 0x1 PUSH1 0xA0 SHL SUB DUP3 AND PUSH3 0x2FA JUMPI PUSH1 0x40 MLOAD PUSH4 0xEC442F05 PUSH1 0xE0 SHL DUP2 MSTORE PUSH1 0x0 PUSH1 0x4 DUP3 ADD MSTORE PUSH1 0x24 ADD PUSH3 0xC5 JUMP JUMPDEST PUSH3 0x308 PUSH1 0x0 DUP4 DUP4 PUSH3 0x30C JUMP JUMPDEST POP POP JUMP JUMPDEST PUSH1 0x1 PUSH1 0x1 PUSH1 0xA0 SHL SUB DUP4 AND PUSH3 0x33B JUMPI DUP1 PUSH1 0x2 PUSH1 0x0 DUP3 DUP3 SLOAD PUSH3 0x32F SWAP2 SWAP1 PUSH3 0x760 JUMP JUMPDEST SWAP1 SWAP2 SSTORE POP PUSH3 0x3AF SWAP1 POP JUMP JUMPDEST PUSH1 0x1 PUSH1 0x1 PUSH1 0xA0 SHL SUB DUP4 AND PUSH1 0x0 SWAP1 DUP2 MSTORE PUSH1 0x20 DUP2 SWAP1 MSTORE PUSH1 0x40 SWAP1 KECCAK256 SLOAD DUP2 DUP2 LT ISZERO PUSH3 0x390 JUMPI PUSH1 0x40 MLOAD PUSH4 0x391434E3 PUSH1 0xE2 SHL DUP2 MSTORE PUSH1 0x1 PUSH1 0x1 PUSH1 0xA0 SHL SUB DUP6 AND PUSH1 0x4 DUP3 ADD MSTORE PUSH1 0x24 DUP2 ADD DUP3 SWAP1 MSTORE PUSH1 0x44 DUP2 ADD DUP4 SWAP1 MSTORE PUSH1 0x64 ADD PUSH3 0xC5 JUMP JUMPDEST PUSH1 0x1 PUSH1 0x1 PUSH1 0xA0 SHL SUB DUP5 AND PUSH1 0x0 SWAP1 DUP2 MSTORE PUSH1 0x20 DUP2 SWAP1 MSTORE PUSH1 0x40 SWAP1 KECCAK256 SWAP1 DUP3 SWAP1 SUB SWAP1 SSTORE JUMPDEST PUSH1 0x1 PUSH1 0x1 PUSH1 0xA0 SHL SUB DUP3 AND PUSH3 0x3CD JUMPI PUSH1 0x2 DUP1 SLOAD DUP3 SWAP1 SUB SWAP1 SSTORE PUSH3 0x3EC JUMP JUMPDEST PUSH1 0x1 PUSH1 0x1 PUSH1 0xA0 SHL SUB DUP3 AND PUSH1 0x0 SWAP1 DUP2 MSTORE PUSH1 0x20 DUP2 SWAP1 MSTORE PUSH1 0x40 SWAP1 KECCAK256 DUP1 SLOAD DUP3 ADD SWAP1 SSTORE JUMPDEST DUP2 PUSH1 0x1 PUSH1 0x1 PUSH1 0xA0 SHL SUB AND DUP4 PUSH1 0x1 PUSH1 0x1 PUSH1 0xA0 SHL SUB AND PUSH32 0xDDF252AD1BE2C89B69C2B068FC378DAA952BA7F163C4A11628F55A4DF523B3EF DUP4 PUSH1 0x40 MLOAD PUSH3 0x432 SWAP2 DUP2 MSTORE PUSH1 0x20 ADD SWAP1 JUMP JUMPDEST PUSH1 0x40 MLOAD DUP1 SWAP2 SUB SWAP1 LOG3 POP POP POP JUMP JUMPDEST DUP1 MLOAD PUSH1 0x1 PUSH1 0x1 PUSH1 0xA0 SHL SUB DUP2 AND DUP2 EQ PUSH3 0x457 JUMPI PUSH1 0x0 DUP1 REVERT JUMPDEST SWAP2 SWAP1 POP JUMP JUMPDEST PUSH1 0x0 DUP1 PUSH1 0x0 PUSH1 0x60 DUP5 DUP7 SUB SLT ISZERO PUSH3 0x472 JUMPI PUSH1 0x0 DUP1 REVERT JUMPDEST PUSH3 0x47D DUP5 PUSH3 0x43F JUMP JUMPDEST SWAP3 POP PUSH3 0x48D PUSH1 0x20 DUP6 ADD PUSH3 0x43F JUMP JUMPDEST SWAP2 POP PUSH3 0x49D PUSH1 0x40 DUP6 ADD PUSH3 0x43F JUMP JUMPDEST SWAP1 POP SWAP3 POP SWAP3 POP SWAP3 JUMP JUMPDEST PUSH4 0x4E487B71 PUSH1 0xE0 SHL PUSH1 0x0 MSTORE PUSH1 0x41 PUSH1 0x4 MSTORE PUSH1 0x24 PUSH1 0x0 REVERT JUMPDEST PUSH1 0x1 DUP2 DUP2 SHR SWAP1 DUP3 AND DUP1 PUSH3 0x4D1 JUMPI PUSH1 0x7F DUP3 AND SWAP2 POP JUMPDEST PUSH1 0x20 DUP3 LT DUP2 SUB PUSH3 0x4F2 JUMPI PUSH4 0x4E487B71 PUSH1 0xE0 SHL PUSH1 0x0 MSTORE PUSH1 0x22 PUSH1 0x4 MSTORE PUSH1 0x24 PUSH1 0x0 REVERT JUMPDEST POP SWAP2 SWAP1 POP JUMP JUMPDEST PUSH1 0x1F DUP3 GT ISZERO PUSH3 0x548 JUMPI PUSH1 0x0 DUP2 PUSH1 0x0 MSTORE PUSH1 0x20 PUSH1 0x0 KECCAK256 PUSH1 0x1F DUP6 ADD PUSH1 0x5 SHR DUP2 ADD PUSH1 0x20 DUP7 LT ISZERO PUSH3 0x523 JUMPI POP DUP1 JUMPDEST PUSH1 0x1F DUP6 ADD PUSH1 0x5 SHR DUP3 ADD SWAP2 POP JUMPDEST DUP2 DUP2 LT ISZERO PUSH3 0x544 JUMPI DUP3 DUP2 SSTORE PUSH1 0x1 ADD PUSH3 0x52F JUMP JUMPDEST POP POP POP JUMPDEST POP POP POP JUMP JUMPDEST DUP2 MLOAD PUSH1 0x1 PUSH1 0x1 PUSH1 0x40 SHL SUB DUP2 GT ISZERO PUSH3 0x569 JUMPI PUSH3 0x569 PUSH3 0x4A6 JUMP JUMPDEST PUSH3 0x581 DUP2 PUSH3 0x57A DUP5 SLOAD PUSH3 0x4BC JUMP JUMPDEST DUP5 PUSH3 0x4F8 JUMP JUMPDEST PUSH1 0x20 DUP1 PUSH1 0x1F DUP4 GT PUSH1 0x1 DUP2 EQ PUSH3 0x5B9 JUMPI PUSH1 0x0 DUP5 ISZERO PUSH3 0x5A0 JUMPI POP DUP6 DUP4 ADD MLOAD JUMPDEST PUSH1 0x0 NOT PUSH1 0x3 DUP7 SWAP1 SHL SHR NOT AND PUSH1 0x1 DUP6 SWAP1 SHL OR DUP6 SSTORE PUSH3 0x544 JUMP JUMPDEST PUSH1 0x0 DUP6 DUP2 MSTORE PUSH1 0x20 DUP2 KECCAK256 PUSH1 0x1F NOT DUP7 AND SWAP2 JUMPDEST DUP3 DUP2 LT ISZERO PUSH3 0x5EA JUMPI DUP9 DUP7 ADD MLOAD DUP3 SSTORE SWAP5 DUP5 ADD SWAP5 PUSH1 0x1 SWAP1 SWAP2 ADD SWAP1 DUP5 ADD PUSH3 0x5C9 JUMP JUMPDEST POP DUP6 DUP3 LT ISZERO PUSH3 0x609 JUMPI DUP8 DUP6 ADD MLOAD PUSH1 0x0 NOT PUSH1 0x3 DUP9 SWAP1 SHL PUSH1 0xF8 AND SHR NOT AND DUP2 SSTORE JUMPDEST POP POP POP POP POP PUSH1 0x1 SWAP1 DUP2 SHL ADD SWAP1 SSTORE POP JUMP JUMPDEST PUSH4 0x4E487B71 PUSH1 0xE0 SHL PUSH1 0x0 MSTORE PUSH1 0x11 PUSH1 0x4 MSTORE PUSH1 0x24 PUSH1 0x0 REVERT JUMPDEST PUSH1 0x1 DUP2 DUP2 JUMPDEST DUP1 DUP6 GT ISZERO PUSH3 0x670 JUMPI DUP2 PUSH1 0x0 NOT DIV DUP3 GT ISZERO PUSH3 0x654 JUMPI PUSH3 0x654 PUSH3 0x619 JUMP JUMPDEST DUP1 DUP6 AND ISZERO PUSH3 0x662 JUMPI SWAP2 DUP2 MUL SWAP2 JUMPDEST SWAP4 DUP5 SHR SWAP4 SWAP1 DUP1 MUL SWAP1 PUSH3 0x634 JUMP JUMPDEST POP SWAP3 POP SWAP3 SWAP1 POP JUMP JUMPDEST PUSH1 0x0 DUP3 PUSH3 0x689 JUMPI POP PUSH1 0x1 PUSH3 0x728 JUMP JUMPDEST DUP2 PUSH3 0x698 JUMPI POP PUSH1 0x0 PUSH3 0x728 JUMP JUMPDEST DUP2 PUSH1 0x1 DUP2 EQ PUSH3 0x6B1 JUMPI PUSH1 0x2 DUP2 EQ PUSH3 0x6BC JUMPI PUSH3 0x6DC JUMP JUMPDEST PUSH1 0x1 SWAP2 POP POP PUSH3 0x728 JUMP JUMPDEST PUSH1 0xFF DUP5 GT ISZERO PUSH3 0x6D0 JUMPI PUSH3 0x6D0 PUSH3 0x619 JUMP JUMPDEST POP POP PUSH1 0x1 DUP3 SHL PUSH3 0x728 JUMP JUMPDEST POP PUSH1 0x20 DUP4 LT PUSH2 0x133 DUP4 LT AND PUSH1 0x4E DUP5 LT PUSH1 0xB DUP5 LT AND OR ISZERO PUSH3 0x701 JUMPI POP DUP2 DUP2 EXP PUSH3 0x728 JUMP JUMPDEST PUSH3 0x70D DUP4 DUP4 PUSH3 0x62F JUMP JUMPDEST DUP1 PUSH1 0x0 NOT DIV DUP3 GT ISZERO PUSH3 0x724 JUMPI PUSH3 0x724 PUSH3 0x619 JUMP JUMPDEST MUL SWAP1 POP JUMPDEST SWAP3 SWAP2 POP POP JUMP JUMPDEST PUSH1 0x0 PUSH3 0x73F PUSH1 0xFF DUP5 AND DUP4 PUSH3 0x678 JUMP JUMPDEST SWAP4 SWAP3 POP POP POP JUMP JUMPDEST DUP1 DUP3 MUL DUP2 ISZERO DUP3 DUP3 DIV DUP5 EQ OR PUSH3 0x728 JUMPI PUSH3 0x728 PUSH3 0x619 JUMP JUMPDEST DUP1 DUP3 ADD DUP1 DUP3 GT ISZERO PUSH3 0x728 JUMPI PUSH3 0x728 PUSH3 0x619 JUMP JUMPDEST PUSH2 0x14A3 DUP1 PUSH3 0x786 PUSH1 0x0 CODECOPY PUSH1 0x0 RETURN INVALID PUSH1 0x80 PUSH1 0x40 MSTORE CALLVALUE DUP1 ISZERO PUSH2 0x10 JUMPI PUSH1 0x0 DUP1 REVERT JUMPDEST POP PUSH1 0x4 CALLDATASIZE LT PUSH2 0x1F0 JUMPI PUSH1 0x0 CALLDATALOAD PUSH1 0xE0 SHR DUP1 PUSH4 0x7ACFE0EC GT PUSH2 0x10F JUMPI DUP1 PUSH4 0xB47E5BDA GT PUSH2 0xA2 JUMPI DUP1 PUSH4 0xF049C4D6 GT PUSH2 0x71 JUMPI DUP1 PUSH4 0xF049C4D6 EQ PUSH2 0x448 JUMPI DUP1 PUSH4 0xF2FDE38B EQ PUSH2 0x488 JUMPI DUP1 PUSH4 0xF846A885 EQ PUSH2 0x3BB JUMPI DUP1 PUSH4 0xFD72E22A EQ PUSH2 0x49B JUMPI PUSH1 0x0 DUP1 REVERT JUMPDEST DUP1 PUSH4 0xB47E5BDA EQ PUSH2 0x3E9 JUMPI DUP1 PUSH4 0xC2E5EC04 EQ PUSH2 0x3FC JUMPI DUP1 PUSH4 0xCEE93DAD EQ PUSH2 0x3BB JUMPI DUP1 PUSH4 0xDD62ED3E EQ PUSH2 0x40F JUMPI PUSH1 0x0 DUP1 REVERT JUMPDEST DUP1 PUSH4 0x95D89B41 GT PUSH2 0xDE JUMPI DUP1 PUSH4 0x95D89B41 EQ PUSH2 0x3B3 JUMPI DUP1 PUSH4 0x9BF81850 EQ PUSH2 0x3BB JUMPI DUP1 PUSH4 0xA18A7BFC EQ PUSH2 0x3C3 JUMPI DUP1 PUSH4 0xA9059CBB EQ PUSH2 0x3D6 JUMPI PUSH1 0x0 DUP1 REVERT JUMPDEST DUP1 PUSH4 0x7ACFE0EC EQ PUSH2 0x373 JUMPI DUP1 PUSH4 0x7C073E27 EQ PUSH2 0x386 JUMPI DUP1 PUSH4 0x83F170BE EQ PUSH2 0x399 JUMPI DUP1 PUSH4 0x8DA5CB5B EQ PUSH2 0x3A2 JUMPI PUSH1 0x0 DUP1 REVERT JUMPDEST DUP1 PUSH4 0x42966C68 GT PUSH2 0x187 JUMPI DUP1 PUSH4 0x64B4C724 GT PUSH2 0x156 JUMPI DUP1 PUSH4 0x64B4C724 EQ PUSH2 0x326 JUMPI DUP1 PUSH4 0x70A08231 EQ PUSH2 0x32F JUMPI DUP1 PUSH4 0x715018A6 EQ PUSH2 0x358 JUMPI DUP1 PUSH4 0x79CC6790 EQ PUSH2 0x360 JUMPI PUSH1 0x0 DUP1 REVERT JUMPDEST DUP1 PUSH4 0x42966C68 EQ PUSH2 0x2B2 JUMPI DUP1 PUSH4 0x4A3B68CC EQ PUSH2 0x2C5 JUMPI DUP1 PUSH4 0x4ADA218B EQ PUSH2 0x306 JUMPI DUP1 PUSH4 0x5ECCFB6D EQ PUSH2 0x313 JUMPI PUSH1 0x0 DUP1 REVERT JUMPDEST DUP1 PUSH4 0x18160DDD GT PUSH2 0x1C3 JUMPI DUP1 PUSH4 0x18160DDD EQ PUSH2 0x25E JUMPI DUP1 PUSH4 0x1D2E0E8F EQ PUSH2 0x270 JUMPI DUP1 PUSH4 0x23B872DD EQ PUSH2 0x290 JUMPI DUP1 PUSH4 0x313CE567 EQ PUSH2 0x2A3 JUMPI PUSH1 0x0 DUP1 REVERT JUMPDEST DUP1 PUSH4 0x69C9FAE EQ PUSH2 0x1F5 JUMPI DUP1 PUSH4 0x6FDDE03 EQ PUSH2 0x20A JUMPI DUP1 PUSH4 0x95EA7B3 EQ PUSH2 0x228 JUMPI DUP1 PUSH4 0x147C9F6D EQ PUSH2 0x24B JUMPI JUMPDEST PUSH1 0x0 DUP1 REVERT JUMPDEST PUSH2 0x208 PUSH2 0x203 CALLDATASIZE PUSH1 0x4 PUSH2 0x11F7 JUMP JUMPDEST PUSH2 0x4AE JUMP JUMPDEST STOP JUMPDEST PUSH2 0x212 PUSH2 0x598 JUMP JUMPDEST PUSH1 0x40 MLOAD PUSH2 0x21F SWAP2 SWAP1 PUSH2 0x1221 JUMP JUMPDEST PUSH1 0x40 MLOAD DUP1 SWAP2 SUB SWAP1 RETURN JUMPDEST PUSH2 0x23B PUSH2 0x236 CALLDATASIZE PUSH1 0x4 PUSH2 0x11F7 JUMP JUMPDEST PUSH2 0x62A JUMP JUMPDEST PUSH1 0x40 MLOAD SWAP1 ISZERO ISZERO DUP2 MSTORE PUSH1 0x20 ADD PUSH2 0x21F JUMP JUMPDEST PUSH2 0x208 PUSH2 0x259 CALLDATASIZE PUSH1 0x4 PUSH2 0x1270 JUMP JUMPDEST PUSH2 0x644 JUMP JUMPDEST PUSH1 0x2 SLOAD JUMPDEST PUSH1 0x40 MLOAD SWAP1 DUP2 MSTORE PUSH1 0x20 ADD PUSH2 0x21F JUMP JUMPDEST PUSH2 0x262 PUSH2 0x27E CALLDATASIZE PUSH1 0x4 PUSH2 0x12B3 JUMP JUMPDEST PUSH1 0xC PUSH1 0x20 MSTORE PUSH1 0x0 SWAP1 DUP2 MSTORE PUSH1 0x40 SWAP1 KECCAK256 SLOAD DUP2 JUMP JUMPDEST PUSH2 0x23B PUSH2 0x29E CALLDATASIZE PUSH1 0x4 PUSH2 0x12CE JUMP JUMPDEST PUSH2 0x7D9 JUMP JUMPDEST PUSH1 0x40 MLOAD PUSH1 0x12 DUP2 MSTORE PUSH1 0x20 ADD PUSH2 0x21F JUMP JUMPDEST PUSH2 0x208 PUSH2 0x2C0 CALLDATASIZE PUSH1 0x4 PUSH2 0x130A JUMP JUMPDEST PUSH2 0x88C JUMP JUMPDEST PUSH2 0x2EE PUSH2 0x2D3 CALLDATASIZE PUSH1 0x4 PUSH2 0x12B3 JUMP JUMPDEST PUSH1 0xB PUSH1 0x20 MSTORE PUSH1 0x0 SWAP1 DUP2 MSTORE PUSH1 0x40 SWAP1 KECCAK256 SLOAD PUSH1 0x1 PUSH1 0x1 PUSH1 0xA0 SHL SUB AND DUP2 JUMP JUMPDEST PUSH1 0x40 MLOAD PUSH1 0x1 PUSH1 0x1 PUSH1 0xA0 SHL SUB SWAP1 SWAP2 AND DUP2 MSTORE PUSH1 0x20 ADD PUSH2 0x21F JUMP JUMPDEST PUSH1 0xD SLOAD PUSH2 0x23B SWAP1 PUSH1 0xFF AND DUP2 JUMP JUMPDEST PUSH1 0x9 SLOAD PUSH2 0x2EE SWAP1 PUSH1 0x1 PUSH1 0x1 PUSH1 0xA0 SHL SUB AND DUP2 JUMP JUMPDEST PUSH2 0x262 PUSH2 0x12C DUP2 JUMP JUMPDEST PUSH2 0x262 PUSH2 0x33D CALLDATASIZE PUSH1 0x4 PUSH2 0x12B3 JUMP JUMPDEST PUSH1 0x1 PUSH1 0x1 PUSH1 0xA0 SHL SUB AND PUSH1 0x0 SWAP1 DUP2 MSTORE PUSH1 0x20 DUP2 SWAP1 MSTORE PUSH1 0x40 SWAP1 KECCAK256 SLOAD SWAP1 JUMP JUMPDEST PUSH2 0x208 PUSH2 0x899 JUMP JUMPDEST PUSH2 0x208 PUSH2 0x36E CALLDATASIZE PUSH1 0x4 PUSH2 0x11F7 JUMP JUMPDEST PUSH2 0x8AD JUMP JUMPDEST PUSH1 0x8 SLOAD PUSH2 0x2EE SWAP1 PUSH1 0x1 PUSH1 0x1 PUSH1 0xA0 SHL SUB AND DUP2 JUMP JUMPDEST PUSH1 0xA SLOAD PUSH2 0x2EE SWAP1 PUSH1 0x1 PUSH1 0x1 PUSH1 0xA0 SHL SUB AND DUP2 JUMP JUMPDEST PUSH2 0x262 PUSH2 0x258 DUP2 JUMP JUMPDEST PUSH1 0x5 SLOAD PUSH1 0x1 PUSH1 0x1 PUSH1 0xA0 SHL SUB AND PUSH2 0x2EE JUMP JUMPDEST PUSH2 0x212 PUSH2 0x8C2 JUMP JUMPDEST PUSH2 0x262 PUSH1 0x64 DUP2 JUMP JUMPDEST PUSH2 0x208 PUSH2 0x3D1 CALLDATASIZE PUSH1 0x4 PUSH2 0x12B3 JUMP JUMPDEST PUSH2 0x8D1 JUMP JUMPDEST PUSH2 0x23B PUSH2 0x3E4 CALLDATASIZE PUSH1 0x4 PUSH2 0x11F7 JUMP JUMPDEST PUSH2 0xA1A JUMP JUMPDEST PUSH1 0x6 SLOAD PUSH2 0x2EE SWAP1 PUSH1 0x1 PUSH1 0x1 PUSH1 0xA0 SHL SUB AND DUP2 JUMP JUMPDEST PUSH2 0x208 PUSH2 0x40A CALLDATASIZE PUSH1 0x4 PUSH2 0x1331 JUMP JUMPDEST PUSH2 0xAB6 JUMP JUMPDEST PUSH2 0x262 PUSH2 0x41D CALLDATASIZE PUSH1 0x4 PUSH2 0x134E JUMP JUMPDEST PUSH1 0x1 PUSH1 0x1 PUSH1 0xA0 SHL SUB SWAP2 DUP3 AND PUSH1 0x0 SWAP1 DUP2 MSTORE PUSH1 0x1 PUSH1 0x20 SWAP1 DUP2 MSTORE PUSH1 0x40 DUP1 DUP4 KECCAK256 SWAP4 SWAP1 SWAP5 AND DUP3 MSTORE SWAP2 SWAP1 SWAP2 MSTORE KECCAK256 SLOAD SWAP1 JUMP JUMPDEST PUSH2 0x45B PUSH2 0x456 CALLDATASIZE PUSH1 0x4 PUSH2 0x130A JUMP JUMPDEST PUSH2 0xB05 JUMP JUMPDEST PUSH1 0x40 DUP1 MLOAD SWAP7 DUP8 MSTORE PUSH1 0x20 DUP8 ADD SWAP6 SWAP1 SWAP6 MSTORE SWAP4 DUP6 ADD SWAP3 SWAP1 SWAP3 MSTORE PUSH1 0x60 DUP5 ADD MSTORE PUSH1 0x80 DUP4 ADD MSTORE PUSH1 0xA0 DUP3 ADD MSTORE PUSH1 0xC0 ADD PUSH2 0x21F JUMP JUMPDEST PUSH2 0x208 PUSH2 0x496 CALLDATASIZE PUSH1 0x4 PUSH2 0x12B3 JUMP JUMPDEST PUSH2 0xBA5 JUMP JUMPDEST PUSH1 0x7 SLOAD PUSH2 0x2EE SWAP1 PUSH1 0x1 PUSH1 0x1 PUSH1 0xA0 SHL SUB AND DUP2 JUMP JUMPDEST PUSH2 0x4B6 PUSH2 0xBE0 JUMP JUMPDEST PUSH1 0x1 PUSH1 0x1 PUSH1 0xA0 SHL SUB DUP3 AND PUSH2 0x502 JUMPI PUSH1 0x5 SLOAD PUSH1 0x40 MLOAD PUSH1 0x1 PUSH1 0x1 PUSH1 0xA0 SHL SUB SWAP1 SWAP2 AND SWAP1 SELFBALANCE DUP1 ISZERO PUSH2 0x8FC MUL SWAP2 PUSH1 0x0 DUP2 DUP2 DUP2 DUP6 DUP9 DUP9 CALL SWAP4 POP POP POP POP ISZERO DUP1 ISZERO PUSH2 0x4FD JUMPI RETURNDATASIZE PUSH1 0x0 DUP1 RETURNDATACOPY RETURNDATASIZE PUSH1 0x0 REVERT JUMPDEST POP POP POP JUMP JUMPDEST DUP2 PUSH1 0x1 PUSH1 0x1 PUSH1 0xA0 SHL SUB AND PUSH4 0xA9059CBB PUSH2 0x523 PUSH1 0x5 SLOAD PUSH1 0x1 PUSH1 0x1 PUSH1 0xA0 SHL SUB AND SWAP1 JUMP JUMPDEST PUSH1 0x40 MLOAD PUSH1 0x1 PUSH1 0x1 PUSH1 0xE0 SHL SUB NOT PUSH1 0xE0 DUP5 SWAP1 SHL AND DUP2 MSTORE PUSH1 0x1 PUSH1 0x1 PUSH1 0xA0 SHL SUB SWAP1 SWAP2 AND PUSH1 0x4 DUP3 ADD MSTORE PUSH1 0x24 DUP2 ADD DUP5 SWAP1 MSTORE PUSH1 0x44 ADD PUSH1 0x20 PUSH1 0x40 MLOAD DUP1 DUP4 SUB DUP2 PUSH1 0x0 DUP8 GAS CALL ISZERO DUP1 ISZERO PUSH2 0x570 JUMPI RETURNDATASIZE PUSH1 0x0 DUP1 RETURNDATACOPY RETURNDATASIZE PUSH1 0x0 REVERT JUMPDEST POP POP POP POP PUSH1 0x40 MLOAD RETURNDATASIZE PUSH1 0x1F NOT PUSH1 0x1F DUP3 ADD AND DUP3 ADD DUP1 PUSH1 0x40 MSTORE POP DUP2 ADD SWAP1 PUSH2 0x4FD SWAP2 SWAP1 PUSH2 0x1381 JUMP JUMPDEST POP POP JUMP JUMPDEST PUSH1 0x60 PUSH1 0x3 DUP1 SLOAD PUSH2 0x5A7 SWAP1 PUSH2 0x139E JUMP JUMPDEST DUP1 PUSH1 0x1F ADD PUSH1 0x20 DUP1 SWAP2 DIV MUL PUSH1 0x20 ADD PUSH1 0x40 MLOAD SWAP1 DUP2 ADD PUSH1 0x40 MSTORE DUP1 SWAP3 SWAP2 SWAP1 DUP2 DUP2 MSTORE PUSH1 0x20 ADD DUP3 DUP1 SLOAD PUSH2 0x5D3 SWAP1 PUSH2 0x139E JUMP JUMPDEST DUP1 ISZERO PUSH2 0x620 JUMPI DUP1 PUSH1 0x1F LT PUSH2 0x5F5 JUMPI PUSH2 0x100 DUP1 DUP4 SLOAD DIV MUL DUP4 MSTORE SWAP2 PUSH1 0x20 ADD SWAP2 PUSH2 0x620 JUMP JUMPDEST DUP3 ADD SWAP2 SWAP1 PUSH1 0x0 MSTORE PUSH1 0x20 PUSH1 0x0 KECCAK256 SWAP1 JUMPDEST DUP2 SLOAD DUP2 MSTORE SWAP1 PUSH1 0x1 ADD SWAP1 PUSH1 0x20 ADD DUP1 DUP4 GT PUSH2 0x603 JUMPI DUP3 SWAP1 SUB PUSH1 0x1F AND DUP3 ADD SWAP2 JUMPDEST POP POP POP POP POP SWAP1 POP SWAP1 JUMP JUMPDEST PUSH1 0x0 CALLER PUSH2 0x638 DUP2 DUP6 DUP6 PUSH2 0xC0D JUMP JUMPDEST PUSH1 0x1 SWAP2 POP POP JUMPDEST SWAP3 SWAP2 POP POP JUMP JUMPDEST PUSH2 0x64C PUSH2 0xBE0 JUMP JUMPDEST PUSH1 0x1 PUSH1 0x1 PUSH1 0xA0 SHL SUB DUP4 AND ISZERO PUSH2 0x6D0 JUMPI PUSH1 0x6 DUP1 SLOAD PUSH1 0x1 PUSH1 0x1 PUSH1 0xA0 SHL SUB DUP6 AND PUSH1 0x1 PUSH1 0x1 PUSH1 0xA0 SHL SUB NOT SWAP1 SWAP2 AND DUP2 OR SWAP1 SWAP2 SSTORE PUSH1 0x40 DUP1 MLOAD DUP2 DUP2 MSTORE PUSH1 0xC DUP2 DUP4 ADD MSTORE PUSH12 0x1B9BD919511A5D9A59195B99 PUSH1 0xA2 SHL PUSH1 0x60 DUP3 ADD MSTORE PUSH1 0x20 DUP2 ADD SWAP3 SWAP1 SWAP3 MSTORE MLOAD PUSH32 0x6FF3A4003B90BE84595BEB5F6ACB9D54F88BD3E6DD4887CA67E53DC9645465EA SWAP2 DUP2 SWAP1 SUB PUSH1 0x80 ADD SWAP1 LOG1 JUMPDEST PUSH1 0x1 PUSH1 0x1 PUSH1 0xA0 SHL SUB DUP3 AND ISZERO PUSH2 0x752 JUMPI PUSH1 0x7 DUP1 SLOAD PUSH1 0x1 PUSH1 0x1 PUSH1 0xA0 SHL SUB DUP5 AND PUSH1 0x1 PUSH1 0x1 PUSH1 0xA0 SHL SUB NOT SWAP1 SWAP2 AND DUP2 OR SWAP1 SWAP2 SSTORE PUSH1 0x40 DUP1 MLOAD DUP2 DUP2 MSTORE PUSH1 0xA DUP2 DUP4 ADD MSTORE PUSH10 0x6F7065726174696F6E73 PUSH1 0xB0 SHL PUSH1 0x60 DUP3 ADD MSTORE PUSH1 0x20 DUP2 ADD SWAP3 SWAP1 SWAP3 MSTORE MLOAD PUSH32 0x6FF3A4003B90BE84595BEB5F6ACB9D54F88BD3E6DD4887CA67E53DC9645465EA SWAP2 DUP2 SWAP1 SUB PUSH1 0x80 ADD SWAP1 LOG1 JUMPDEST PUSH1 0x1 PUSH1 0x1 PUSH1 0xA0 SHL SUB DUP2 AND ISZERO PUSH2 0x4FD JUMPI PUSH1 0x8 DUP1 SLOAD PUSH1 0x1 PUSH1 0x1 PUSH1 0xA0 SHL SUB DUP4 AND PUSH1 0x1 PUSH1 0x1 PUSH1 0xA0 SHL SUB NOT SWAP1 SWAP2 AND DUP2 OR SWAP1 SWAP2 SSTORE PUSH1 0x40 DUP1 MLOAD DUP2 DUP2 MSTORE PUSH1 0xB DUP2 DUP4 ADD MSTORE PUSH11 0x36B0B935B2BA26B0B5B2B9 PUSH1 0xA9 SHL PUSH1 0x60 DUP3 ADD MSTORE PUSH1 0x20 DUP2 ADD SWAP3 SWAP1 SWAP3 MSTORE MLOAD PUSH32 0x6FF3A4003B90BE84595BEB5F6ACB9D54F88BD3E6DD4887CA67E53DC9645465EA SWAP2 DUP2 SWAP1 SUB PUSH1 0x80 ADD SWAP1 LOG1 POP POP POP JUMP JUMPDEST PUSH1 0xD SLOAD PUSH1 0x0 SWAP1 PUSH1 0xFF AND DUP1 PUSH2 0x806 JUMPI POP CALLER PUSH2 0x7FB PUSH1 0x5 SLOAD PUSH1 0x1 PUSH1 0x1 PUSH1 0xA0 SHL SUB AND SWAP1 JUMP JUMPDEST PUSH1 0x1 PUSH1 0x1 PUSH1 0xA0 SHL SUB AND EQ JUMPDEST PUSH2 0x84D JUMPI PUSH1 0x40 MLOAD PUSH3 0x461BCD PUSH1 0xE5 SHL DUP2 MSTORE PUSH1 0x20 PUSH1 0x4 DUP3 ADD MSTORE PUSH1 0x13 PUSH1 0x24 DUP3 ADD MSTORE PUSH19 0x151C98591A5B99C81B9BDD08195B98589B1959 PUSH1 0x6A SHL PUSH1 0x44 DUP3 ADD MSTORE PUSH1 0x64 ADD JUMPDEST PUSH1 0x40 MLOAD DUP1 SWAP2 SUB SWAP1 REVERT JUMPDEST PUSH2 0x855 PUSH2 0xC1A JUMP JUMPDEST PUSH2 0x860 DUP5 CALLER DUP5 PUSH2 0xC36 JUMP JUMPDEST PUSH2 0x86B DUP5 DUP5 DUP5 PUSH2 0xCB5 JUMP JUMPDEST POP PUSH1 0x1 PUSH2 0x885 PUSH1 0x1 PUSH1 0x0 DUP1 MLOAD PUSH1 0x20 PUSH2 0x144E DUP4 CODECOPY DUP2 MLOAD SWAP2 MSTORE SSTORE JUMP JUMPDEST SWAP4 SWAP3 POP POP POP JUMP JUMPDEST PUSH2 0x896 CALLER DUP3 PUSH2 0xEC9 JUMP JUMPDEST POP JUMP JUMPDEST PUSH2 0x8A1 PUSH2 0xBE0 JUMP JUMPDEST PUSH2 0x8AB PUSH1 0x0 PUSH2 0xEFF JUMP JUMPDEST JUMP JUMPDEST PUSH2 0x8B8 DUP3 CALLER DUP4 PUSH2 0xC36 JUMP JUMPDEST PUSH2 0x594 DUP3 DUP3 PUSH2 0xEC9 JUMP JUMPDEST PUSH1 0x60 PUSH1 0x4 DUP1 SLOAD PUSH2 0x5A7 SWAP1 PUSH2 0x139E JUMP JUMPDEST PUSH1 0x1 PUSH1 0x1 PUSH1 0xA0 SHL SUB DUP2 AND PUSH2 0x91A JUMPI PUSH1 0x40 MLOAD PUSH3 0x461BCD PUSH1 0xE5 SHL DUP2 MSTORE PUSH1 0x20 PUSH1 0x4 DUP3 ADD MSTORE PUSH1 0x10 PUSH1 0x24 DUP3 ADD MSTORE PUSH16 0x24B73B30B634B2103932B332B93932B9 PUSH1 0x81 SHL PUSH1 0x44 DUP3 ADD MSTORE PUSH1 0x64 ADD PUSH2 0x844 JUMP JUMPDEST CALLER PUSH1 0x1 PUSH1 0x1 PUSH1 0xA0 SHL SUB DUP3 AND SUB PUSH2 0x966 JUMPI PUSH1 0x40 MLOAD PUSH3 0x461BCD PUSH1 0xE5 SHL DUP2 MSTORE PUSH1 0x20 PUSH1 0x4 DUP3 ADD MSTORE PUSH1 0x11 PUSH1 0x24 DUP3 ADD MSTORE PUSH17 0x21B0B73737BA103932B332B91039B2B633 PUSH1 0x79 SHL PUSH1 0x44 DUP3 ADD MSTORE PUSH1 0x64 ADD PUSH2 0x844 JUMP JUMPDEST CALLER PUSH1 0x0 SWAP1 DUP2 MSTORE PUSH1 0xB PUSH1 0x20 MSTORE PUSH1 0x40 SWAP1 KECCAK256 SLOAD PUSH1 0x1 PUSH1 0x1 PUSH1 0xA0 SHL SUB AND ISZERO PUSH2 0x9C3 JUMPI PUSH1 0x40 MLOAD PUSH3 0x461BCD PUSH1 0xE5 SHL DUP2 MSTORE PUSH1 0x20 PUSH1 0x4 DUP3 ADD MSTORE PUSH1 0x14 PUSH1 0x24 DUP3 ADD MSTORE PUSH20 0x149959995C9C995C88185B1C9958591E481CD95D PUSH1 0x62 SHL PUSH1 0x44 DUP3 ADD MSTORE PUSH1 0x64 ADD PUSH2 0x844 JUMP JUMPDEST CALLER PUSH1 0x0 DUP2 DUP2 MSTORE PUSH1 0xB PUSH1 0x20 MSTORE PUSH1 0x40 DUP1 DUP3 KECCAK256 DUP1 SLOAD PUSH1 0x1 PUSH1 0x1 PUSH1 0xA0 SHL SUB NOT AND PUSH1 0x1 PUSH1 0x1 PUSH1 0xA0 SHL SUB DUP7 AND SWAP1 DUP2 OR SWAP1 SWAP2 SSTORE SWAP1 MLOAD SWAP1 SWAP3 SWAP2 PUSH32 0x5F7165288EEF601591CF549E15FF19EF9060B7F71B9C115BE946FA1FE7EBF68A SWAP2 LOG3 POP JUMP JUMPDEST PUSH1 0xD SLOAD PUSH1 0x0 SWAP1 PUSH1 0xFF AND DUP1 PUSH2 0xA47 JUMPI POP CALLER PUSH2 0xA3C PUSH1 0x5 SLOAD PUSH1 0x1 PUSH1 0x1 PUSH1 0xA0 SHL SUB AND SWAP1 JUMP JUMPDEST PUSH1 0x1 PUSH1 0x1 PUSH1 0xA0 SHL SUB AND EQ JUMPDEST PUSH2 0xA89 JUMPI PUSH1 0x40 MLOAD PUSH3 0x461BCD PUSH1 0xE5 SHL DUP2 MSTORE PUSH1 0x20 PUSH1 0x4 DUP3 ADD MSTORE PUSH1 0x13 PUSH1 0x24 DUP3 ADD MSTORE PUSH19 0x151C98591A5B99C81B9BDD08195B98589B1959 PUSH1 0x6A SHL PUSH1 0x44 DUP3 ADD MSTORE PUSH1 0x64 ADD PUSH2 0x844 JUMP JUMPDEST PUSH2 0xA91 PUSH2 0xC1A JUMP JUMPDEST PUSH2 0xA9C CALLER DUP5 DUP5 PUSH2 0xCB5 JUMP JUMPDEST POP PUSH1 0x1 PUSH2 0x63E PUSH1 0x1 PUSH1 0x0 DUP1 MLOAD PUSH1 0x20 PUSH2 0x144E DUP4 CODECOPY DUP2 MLOAD SWAP2 MSTORE SSTORE JUMP JUMPDEST PUSH2 0xABE PUSH2 0xBE0 JUMP JUMPDEST PUSH1 0xD DUP1 SLOAD PUSH1 0xFF NOT AND DUP3 ISZERO ISZERO SWAP1 DUP2 OR SWAP1 SWAP2 SSTORE PUSH1 0x40 MLOAD SWAP1 DUP2 MSTORE PUSH32 0xBEDA7DCA7BC1B3E80B871F4818129EC73B771581F803D553AEB3484098E5F65A SWAP1 PUSH1 0x20 ADD PUSH1 0x40 MLOAD DUP1 SWAP2 SUB SWAP1 LOG1 POP JUMP JUMPDEST PUSH1 0x0 DUP1 DUP1 DUP1 DUP1 DUP1 PUSH2 0x2710 PUSH2 0xB1B PUSH2 0x258 DUP10 PUSH2 0x13EE JUMP JUMPDEST PUSH2 0xB25 SWAP2 SWAP1 PUSH2 0x1405 JUMP JUMPDEST SWAP6 POP PUSH2 0x2710 PUSH2 0xB36 PUSH2 0x12C DUP9 PUSH2 0x13EE JUMP JUMPDEST PUSH2 0xB40 SWAP2 SWAP1 PUSH2 0x1405 JUMP JUMPDEST SWAP5 POP PUSH2 0x2710 PUSH2 0xB50 PUSH1 0x64 DUP9 PUSH2 0x13EE JUMP JUMPDEST PUSH2 0xB5A SWAP2 SWAP1 PUSH2 0x1405 JUMP JUMPDEST SWAP4 POP PUSH2 0x2710 PUSH2 0xB6A PUSH1 0x64 DUP9 PUSH2 0x13EE JUMP JUMPDEST PUSH2 0xB74 SWAP2 SWAP1 PUSH2 0x1405 JUMP JUMPDEST SWAP3 POP PUSH2 0x2710 PUSH2 0xB84 PUSH1 0x64 DUP9 PUSH2 0x13EE JUMP JUMPDEST PUSH2 0xB8E SWAP2 SWAP1 PUSH2 0x1405 JUMP JUMPDEST SWAP2 POP PUSH2 0xB9A DUP7 DUP9 PUSH2 0x1427 JUMP JUMPDEST SWAP1 POP SWAP2 SWAP4 SWAP6 POP SWAP2 SWAP4 SWAP6 JUMP JUMPDEST PUSH2 0xBAD PUSH2 0xBE0 JUMP JUMPDEST PUSH1 0x1 PUSH1 0x1 PUSH1 0xA0 SHL SUB DUP2 AND PUSH2 0xBD7 JUMPI PUSH1 0x40 MLOAD PUSH4 0x1E4FBDF7 PUSH1 0xE0 SHL DUP2 MSTORE PUSH1 0x0 PUSH1 0x4 DUP3 ADD MSTORE PUSH1 0x24 ADD PUSH2 0x844 JUMP JUMPDEST PUSH2 0x896 DUP2 PUSH2 0xEFF JUMP JUMPDEST PUSH1 0x5 SLOAD PUSH1 0x1 PUSH1 0x1 PUSH1 0xA0 SHL SUB AND CALLER EQ PUSH2 0x8AB JUMPI PUSH1 0x40 MLOAD PUSH4 0x118CDAA7 PUSH1 0xE0 SHL DUP2 MSTORE CALLER PUSH1 0x4 DUP3 ADD MSTORE PUSH1 0x24 ADD PUSH2 0x844 JUMP JUMPDEST PUSH2 0x4FD DUP4 DUP4 DUP4 PUSH1 0x1 PUSH2 0xF51 JUMP JUMPDEST PUSH2 0xC22 PUSH2 0x1026 JUMP JUMPDEST PUSH1 0x2 PUSH1 0x0 DUP1 MLOAD PUSH1 0x20 PUSH2 0x144E DUP4 CODECOPY DUP2 MLOAD SWAP2 MSTORE SSTORE JUMP JUMPDEST PUSH1 0x1 PUSH1 0x1 PUSH1 0xA0 SHL SUB DUP4 DUP2 AND PUSH1 0x0 SWAP1 DUP2 MSTORE PUSH1 0x1 PUSH1 0x20 SWAP1 DUP2 MSTORE PUSH1 0x40 DUP1 DUP4 KECCAK256 SWAP4 DUP7 AND DUP4 MSTORE SWAP3 SWAP1 MSTORE KECCAK256 SLOAD PUSH1 0x0 NOT DUP2 LT ISZERO PUSH2 0xCAF JUMPI DUP2 DUP2 LT ISZERO PUSH2 0xCA0 JUMPI PUSH1 0x40 MLOAD PUSH4 0x7DC7A0D9 PUSH1 0xE1 SHL DUP2 MSTORE PUSH1 0x1 PUSH1 0x1 PUSH1 0xA0 SHL SUB DUP5 AND PUSH1 0x4 DUP3 ADD MSTORE PUSH1 0x24 DUP2 ADD DUP3 SWAP1 MSTORE PUSH1 0x44 DUP2 ADD DUP4 SWAP1 MSTORE PUSH1 0x64 ADD PUSH2 0x844 JUMP JUMPDEST PUSH2 0xCAF DUP5 DUP5 DUP5 DUP5 SUB PUSH1 0x0 PUSH2 0xF51 JUMP JUMPDEST POP POP POP POP JUMP JUMPDEST PUSH1 0xD SLOAD PUSH1 0x0 SWAP1 PUSH1 0xFF AND DUP1 ISZERO PUSH2 0xCD8 JUMPI POP PUSH1 0x5 SLOAD PUSH1 0x1 PUSH1 0x1 PUSH1 0xA0 SHL SUB DUP6 DUP2 AND SWAP2 AND EQ ISZERO JUMPDEST DUP1 ISZERO PUSH2 0xCF2 JUMPI POP PUSH1 0x5 SLOAD PUSH1 0x1 PUSH1 0x1 PUSH1 0xA0 SHL SUB DUP5 DUP2 AND SWAP2 AND EQ ISZERO JUMPDEST DUP1 ISZERO PUSH2 0xD07 JUMPI POP PUSH1 0x1 PUSH1 0x1 PUSH1 0xA0 SHL SUB DUP5 AND ADDRESS EQ ISZERO JUMPDEST DUP1 ISZERO PUSH2 0xD1C JUMPI POP PUSH1 0x1 PUSH1 0x1 PUSH1 0xA0 SHL SUB DUP4 AND ADDRESS EQ ISZERO JUMPDEST SWAP1 POP DUP1 DUP1 ISZERO PUSH2 0xD2B JUMPI POP PUSH1 0x0 DUP3 GT JUMPDEST ISZERO PUSH2 0xEBE JUMPI PUSH1 0x0 PUSH2 0x2710 PUSH2 0xD41 PUSH2 0x12C DUP6 PUSH2 0x13EE JUMP JUMPDEST PUSH2 0xD4B SWAP2 SWAP1 PUSH2 0x1405 JUMP JUMPDEST SWAP1 POP PUSH1 0x0 PUSH2 0x2710 PUSH2 0xD5D PUSH1 0x64 DUP7 PUSH2 0x13EE JUMP JUMPDEST PUSH2 0xD67 SWAP2 SWAP1 PUSH2 0x1405 JUMP JUMPDEST SWAP1 POP PUSH1 0x0 PUSH2 0x2710 PUSH2 0xD79 PUSH1 0x64 DUP8 PUSH2 0x13EE JUMP JUMPDEST PUSH2 0xD83 SWAP2 SWAP1 PUSH2 0x1405 JUMP JUMPDEST SWAP1 POP PUSH1 0x0 PUSH2 0x2710 PUSH2 0xD95 PUSH1 0x64 DUP9 PUSH2 0x13EE JUMP JUMPDEST PUSH2 0xD9F SWAP2 SWAP1 PUSH2 0x1405 JUMP JUMPDEST SWAP1 POP PUSH1 0x0 DUP2 DUP4 PUSH2 0xDAF DUP7 DUP9 PUSH2 0x143A JUMP JUMPDEST PUSH2 0xDB9 SWAP2 SWAP1 PUSH2 0x143A JUMP JUMPDEST PUSH2 0xDC3 SWAP2 SWAP1 PUSH2 0x143A JUMP JUMPDEST SWAP1 POP DUP1 ISZERO PUSH2 0xEB8 JUMPI PUSH1 0x6 SLOAD PUSH2 0xDE3 SWAP1 DUP11 SWAP1 PUSH1 0x1 PUSH1 0x1 PUSH1 0xA0 SHL SUB AND DUP8 PUSH2 0x1056 JUMP JUMPDEST PUSH1 0x7 SLOAD PUSH2 0xDFB SWAP1 DUP11 SWAP1 PUSH1 0x1 PUSH1 0x1 PUSH1 0xA0 SHL SUB AND DUP7 PUSH2 0x1056 JUMP JUMPDEST PUSH1 0x8 SLOAD PUSH2 0xE13 SWAP1 DUP11 SWAP1 PUSH1 0x1 PUSH1 0x1 PUSH1 0xA0 SHL SUB AND DUP6 PUSH2 0x1056 JUMP JUMPDEST DUP2 ISZERO PUSH2 0xE23 JUMPI PUSH2 0xE23 DUP10 DUP4 PUSH2 0xEC9 JUMP JUMPDEST PUSH1 0x0 PUSH2 0xE2F DUP3 DUP10 PUSH2 0x1427 JUMP JUMPDEST SWAP1 POP PUSH2 0xE3C DUP11 DUP11 DUP4 PUSH2 0x1056 JUMP JUMPDEST PUSH1 0x40 DUP1 MLOAD DUP4 DUP2 MSTORE PUSH1 0x20 DUP2 ADD DUP9 SWAP1 MSTORE SWAP1 DUP2 ADD DUP7 SWAP1 MSTORE PUSH1 0x60 DUP2 ADD DUP6 SWAP1 MSTORE PUSH1 0x80 DUP2 ADD DUP5 SWAP1 MSTORE PUSH1 0x0 PUSH1 0xA0 DUP3 ADD DUP2 SWAP1 MSTORE PUSH1 0xC0 DUP3 ADD DUP2 SWAP1 MSTORE PUSH1 0xE0 DUP3 ADD MSTORE PUSH1 0x1 PUSH1 0x1 PUSH1 0xA0 SHL SUB DUP12 AND SWAP1 PUSH32 0xE7F6FFCC7ED5D831B9CFF3926BF86923154CF544AE127000F5EB3199A80116F1 SWAP1 PUSH2 0x100 ADD PUSH1 0x40 MLOAD DUP1 SWAP2 SUB SWAP1 LOG2 POP POP POP POP POP POP POP POP POP POP JUMP JUMPDEST POP POP POP POP POP JUMPDEST PUSH2 0xCAF DUP5 DUP5 DUP5 PUSH2 0x1056 JUMP JUMPDEST PUSH1 0x1 PUSH1 0x1 PUSH1 0xA0 SHL SUB DUP3 AND PUSH2 0xEF3 JUMPI PUSH1 0x40 MLOAD PUSH4 0x4B637E8F PUSH1 0xE1 SHL DUP2 MSTORE PUSH1 0x0 PUSH1 0x4 DUP3 ADD MSTORE PUSH1 0x24 ADD PUSH2 0x844 JUMP JUMPDEST PUSH2 0x594 DUP3 PUSH1 0x0 DUP4 PUSH2 0x10B1 JUMP JUMPDEST PUSH1 0x5 DUP1 SLOAD PUSH1 0x1 PUSH1 0x1 PUSH1 0xA0 SHL SUB DUP4 DUP2 AND PUSH1 0x1 PUSH1 0x1 PUSH1 0xA0 SHL SUB NOT DUP4 AND DUP2 OR SWAP1 SWAP4 SSTORE PUSH1 0x40 MLOAD SWAP2 AND SWAP2 SWAP1 DUP3 SWAP1 PUSH32 0x8BE0079C531659141344CD1FD0A4F28419497F9722A3DAAFE3B4186F6B6457E0 SWAP1 PUSH1 0x0 SWAP1 LOG3 POP POP JUMP JUMPDEST PUSH1 0x1 PUSH1 0x1 PUSH1 0xA0 SHL SUB DUP5 AND PUSH2 0xF7B JUMPI PUSH1 0x40 MLOAD PUSH4 0xE602DF05 PUSH1 0xE0 SHL DUP2 MSTORE PUSH1 0x0 PUSH1 0x4 DUP3 ADD MSTORE PUSH1 0x24 ADD PUSH2 0x844 JUMP JUMPDEST PUSH1 0x1 PUSH1 0x1 PUSH1 0xA0 SHL SUB DUP4 AND PUSH2 0xFA5 JUMPI PUSH1 0x40 MLOAD PUSH4 0x4A1406B1 PUSH1 0xE1 SHL DUP2 MSTORE PUSH1 0x0 PUSH1 0x4 DUP3 ADD MSTORE PUSH1 0x24 ADD PUSH2 0x844 JUMP JUMPDEST PUSH1 0x1 PUSH1 0x1 PUSH1 0xA0 SHL SUB DUP1 DUP6 AND PUSH1 0x0 SWAP1 DUP2 MSTORE PUSH1 0x1 PUSH1 0x20 SWAP1 DUP2 MSTORE PUSH1 0x40 DUP1 DUP4 KECCAK256 SWAP4 DUP8 AND DUP4 MSTORE SWAP3 SWAP1 MSTORE KECCAK256 DUP3 SWAP1 SSTORE DUP1 ISZERO PUSH2 0xCAF JUMPI DUP3 PUSH1 0x1 PUSH1 0x1 PUSH1 0xA0 SHL SUB AND DUP5 PUSH1 0x1 PUSH1 0x1 PUSH1 0xA0 SHL SUB AND PUSH32 0x8C5BE1E5EBEC7D5BD14F71427D1E84F3DD0314C0F7B2291E5B200AC8C7C3B925 DUP5 PUSH1 0x40 MLOAD PUSH2 0x1018 SWAP2 DUP2 MSTORE PUSH1 0x20 ADD SWAP1 JUMP JUMPDEST PUSH1 0x40 MLOAD DUP1 SWAP2 SUB SWAP1 LOG3 POP POP POP POP JUMP JUMPDEST PUSH1 0x0 DUP1 MLOAD PUSH1 0x20 PUSH2 0x144E DUP4 CODECOPY DUP2 MLOAD SWAP2 MSTORE SLOAD PUSH1 0x2 SUB PUSH2 0x8AB JUMPI PUSH1 0x40 MLOAD PUSH4 0x3EE5AEB5 PUSH1 0xE0 SHL DUP2 MSTORE PUSH1 0x4 ADD PUSH1 0x40 MLOAD DUP1 SWAP2 SUB SWAP1 REVERT JUMPDEST PUSH1 0x1 PUSH1 0x1 PUSH1 0xA0 SHL SUB DUP4 AND PUSH2 0x1080 JUMPI PUSH1 0x40 MLOAD PUSH4 0x4B637E8F PUSH1 0xE1 SHL DUP2 MSTORE PUSH1 0x0 PUSH1 0x4 DUP3 ADD MSTORE PUSH1 0x24 ADD PUSH2 0x844 JUMP JUMPDEST PUSH1 0x1 PUSH1 0x1 PUSH1 0xA0 SHL SUB DUP3 AND PUSH2 0x10AA JUMPI PUSH1 0x40 MLOAD PUSH4 0xEC442F05 PUSH1 0xE0 SHL DUP2 MSTORE PUSH1 0x0 PUSH1 0x4 DUP3 ADD MSTORE PUSH1 0x24 ADD PUSH2 0x844 JUMP JUMPDEST PUSH2 0x4FD DUP4 DUP4 DUP4 JUMPDEST PUSH1 0x1 PUSH1 0x1 PUSH1 0xA0 SHL SUB DUP4 AND PUSH2 0x10DC JUMPI DUP1 PUSH1 0x2 PUSH1 0x0 DUP3 DUP3 SLOAD PUSH2 0x10D1 SWAP2 SWAP1 PUSH2 0x143A JUMP JUMPDEST SWAP1 SWAP2 SSTORE POP PUSH2 0x114E SWAP1 POP JUMP JUMPDEST PUSH1 0x1 PUSH1 0x1 PUSH1 0xA0 SHL SUB DUP4 AND PUSH1 0x0 SWAP1 DUP2 MSTORE PUSH1 0x20 DUP2 SWAP1 MSTORE PUSH1 0x40 SWAP1 KECCAK256 SLOAD DUP2 DUP2 LT ISZERO PUSH2 0x112F JUMPI PUSH1 0x40 MLOAD PUSH4 0x391434E3 PUSH1 0xE2 SHL DUP2 MSTORE PUSH1 0x1 PUSH1 0x1 PUSH1 0xA0 SHL SUB DUP6 AND PUSH1 0x4 DUP3 ADD MSTORE PUSH1 0x24 DUP2 ADD DUP3 SWAP1 MSTORE PUSH1 0x44 DUP2 ADD DUP4 SWAP1 MSTORE PUSH1 0x64 ADD PUSH2 0x844 JUMP JUMPDEST PUSH1 0x1 PUSH1 0x1 PUSH1 0xA0 SHL SUB DUP5 AND PUSH1 0x0 SWAP1 DUP2 MSTORE PUSH1 0x20 DUP2 SWAP1 MSTORE PUSH1 0x40 SWAP1 KECCAK256 SWAP1 DUP3 SWAP1 SUB SWAP1 SSTORE JUMPDEST PUSH1 0x1 PUSH1 0x1 PUSH1 0xA0 SHL SUB DUP3 AND PUSH2 0x116A JUMPI PUSH1 0x2 DUP1 SLOAD DUP3 SWAP1 SUB SWAP1 SSTORE PUSH2 0x1189 JUMP JUMPDEST PUSH1 0x1 PUSH1 0x1 PUSH1 0xA0 SHL SUB DUP3 AND PUSH1 0x0 SWAP1 DUP2 MSTORE PUSH1 0x20 DUP2 SWAP1 MSTORE PUSH1 0x40 SWAP1 KECCAK256 DUP1 SLOAD DUP3 ADD SWAP1 SSTORE JUMPDEST DUP2 PUSH1 0x1 PUSH1 0x1 PUSH1 0xA0 SHL SUB AND DUP4 PUSH1 0x1 PUSH1 0x1 PUSH1 0xA0 SHL SUB AND PUSH32 0xDDF252AD1BE2C89B69C2B068FC378DAA952BA7F163C4A11628F55A4DF523B3EF DUP4 PUSH1 0x40 MLOAD PUSH2 0x11CE SWAP2 DUP2 MSTORE PUSH1 0x20 ADD SWAP1 JUMP JUMPDEST PUSH1 0x40 MLOAD DUP1 SWAP2 SUB SWAP1 LOG3 POP POP POP JUMP JUMPDEST DUP1 CALLDATALOAD PUSH1 0x1 PUSH1 0x1 PUSH1 0xA0 SHL SUB DUP2 AND DUP2 EQ PUSH2 0x11F2 JUMPI PUSH1 0x0 DUP1 REVERT JUMPDEST SWAP2 SWAP1 POP JUMP JUMPDEST PUSH1 0x0 DUP1 PUSH1 0x40 DUP4 DUP6 SUB SLT ISZERO PUSH2 0x120A JUMPI PUSH1 0x0 DUP1 REVERT JUMPDEST PUSH2 0x1213 DUP4 PUSH2 0x11DB JUMP JUMPDEST SWAP5 PUSH1 0x20 SWAP4 SWAP1 SWAP4 ADD CALLDATALOAD SWAP4 POP POP POP JUMP JUMPDEST PUSH1 0x0 PUSH1 0x20 DUP1 DUP4 MSTORE DUP4 MLOAD DUP1 PUSH1 0x20 DUP6 ADD MSTORE PUSH1 0x0 JUMPDEST DUP2 DUP2 LT ISZERO PUSH2 0x124F JUMPI DUP6 DUP2 ADD DUP4 ADD MLOAD DUP6 DUP3 ADD PUSH1 0x40 ADD MSTORE DUP3 ADD PUSH2 0x1233 JUMP JUMPDEST POP PUSH1 0x0 PUSH1 0x40 DUP3 DUP7 ADD ADD MSTORE PUSH1 0x40 PUSH1 0x1F NOT PUSH1 0x1F DUP4 ADD AND DUP6 ADD ADD SWAP3 POP POP POP SWAP3 SWAP2 POP POP JUMP JUMPDEST PUSH1 0x0 DUP1 PUSH1 0x0 PUSH1 0x60 DUP5 DUP7 SUB SLT ISZERO PUSH2 0x1285 JUMPI PUSH1 0x0 DUP1 REVERT JUMPDEST PUSH2 0x128E DUP5 PUSH2 0x11DB JUMP JUMPDEST SWAP3 POP PUSH2 0x129C PUSH1 0x20 DUP6 ADD PUSH2 0x11DB JUMP JUMPDEST SWAP2 POP PUSH2 0x12AA PUSH1 0x40 DUP6 ADD PUSH2 0x11DB JUMP JUMPDEST SWAP1 POP SWAP3 POP SWAP3 POP SWAP3 JUMP JUMPDEST PUSH1 0x0 PUSH1 0x20 DUP3 DUP5 SUB SLT ISZERO PUSH2 0x12C5 JUMPI PUSH1 0x0 DUP1 REVERT JUMPDEST PUSH2 0x885 DUP3 PUSH2 0x11DB JUMP JUMPDEST PUSH1 0x0 DUP1 PUSH1 0x0 PUSH1 0x60 DUP5 DUP7 SUB SLT ISZERO PUSH2 0x12E3 JUMPI PUSH1 0x0 DUP1 REVERT JUMPDEST PUSH2 0x12EC DUP5 PUSH2 0x11DB JUMP JUMPDEST SWAP3 POP PUSH2 0x12FA PUSH1 0x20 DUP6 ADD PUSH2 0x11DB JUMP JUMPDEST SWAP2 POP PUSH1 0x40 DUP5 ADD CALLDATALOAD SWAP1 POP SWAP3 POP SWAP3 POP SWAP3 JUMP JUMPDEST PUSH1 0x0 PUSH1 0x20 DUP3 DUP5 SUB SLT ISZERO PUSH2 0x131C JUMPI PUSH1 0x0 DUP1 REVERT JUMPDEST POP CALLDATALOAD SWAP2 SWAP1 POP JUMP JUMPDEST DUP1 ISZERO ISZERO DUP2 EQ PUSH2 0x896 JUMPI PUSH1 0x0 DUP1 REVERT JUMPDEST PUSH1 0x0 PUSH1 0x20 DUP3 DUP5 SUB SLT ISZERO PUSH2 0x1343 JUMPI PUSH1 0x0 DUP1 REVERT JUMPDEST DUP2 CALLDATALOAD PUSH2 0x885 DUP2 PUSH2 0x1323 JUMP JUMPDEST PUSH1 0x0 DUP1 PUSH1 0x40 DUP4 DUP6 SUB SLT ISZERO PUSH2 0x1361 JUMPI PUSH1 0x0 DUP1 REVERT JUMPDEST PUSH2 0x136A DUP4 PUSH2 0x11DB JUMP JUMPDEST SWAP2 POP PUSH2 0x1378 PUSH1 0x20 DUP5 ADD PUSH2 0x11DB JUMP JUMPDEST SWAP1 POP SWAP3 POP SWAP3 SWAP1 POP JUMP JUMPDEST PUSH1 0x0 PUSH1 0x20 DUP3 DUP5 SUB SLT ISZERO PUSH2 0x1393 JUMPI PUSH1 0x0 DUP1 REVERT JUMPDEST DUP2 MLOAD PUSH2 0x885 DUP2 PUSH2 0x1323 JUMP JUMPDEST PUSH1 0x1 DUP2 DUP2 SHR SWAP1 DUP3 AND DUP1 PUSH2 0x13B2 JUMPI PUSH1 0x7F DUP3 AND SWAP2 POP JUMPDEST PUSH1 0x20 DUP3 LT DUP2 SUB PUSH2 0x13D2 JUMPI PUSH4 0x4E487B71 PUSH1 0xE0 SHL PUSH1 0x0 MSTORE PUSH1 0x22 PUSH1 0x4 MSTORE PUSH1 0x24 PUSH1 0x0 REVERT JUMPDEST POP SWAP2 SWAP1 POP JUMP JUMPDEST PUSH4 0x4E487B71 PUSH1 0xE0 SHL PUSH1 0x0 MSTORE PUSH1 0x11 PUSH1 0x4 MSTORE PUSH1 0x24 PUSH1 0x0 REVERT JUMPDEST DUP1 DUP3 MUL DUP2 ISZERO DUP3 DUP3 DIV DUP5 EQ OR PUSH2 0x63E JUMPI PUSH2 0x63E PUSH2 0x13D8 JUMP JUMPDEST PUSH1 0x0 DUP3 PUSH2 0x1422 JUMPI PUSH4 0x4E487B71 PUSH1 0xE0 SHL PUSH1 0x0 MSTORE PUSH1 0x12 PUSH1 0x4 MSTORE PUSH1 0x24 PUSH1 0x0 REVERT JUMPDEST POP DIV SWAP1 JUMP JUMPDEST DUP2 DUP2 SUB DUP2 DUP2 GT ISZERO PUSH2 0x63E JUMPI PUSH2 0x63E PUSH2 0x13D8 JUMP JUMPDEST DUP1 DUP3 ADD DUP1 DUP3 GT ISZERO PUSH2 0x63E JUMPI PUSH2 0x63E PUSH2 0x13D8 JUMP INVALID SWAP12 PUSH24 0x9B17422D0DF92223018B32B4D1FA46E071723D6817E2486D STOP EXTCODESIZE 0xEC 0xC5 PUSH0 STOP LOG2 PUSH5 0x6970667358 0x22 SLT KECCAK256 BLOBHASH SWAP3 0xD1 PUSH2 0x8D30 0xBA 0xC PUSH9 0xE53778C212973463C9 0xA9 0xAF MULMOD 0xE0 CALLVALUE ORIGIN 0xDB DUP9 0xBF PREVRANDAO DUP7 0xA5 0x29 SWAP1 PUSH5 0x736F6C6343 STOP ADDMOD XOR STOP CALLER "},"methodIdentifiers":{"BURN_RATE()":"f846a885","MARKET_MAKER_RATE()":"9bf81850","NODE_DIVIDEND_RATE()":"64b4c724","OPERATIONS_RATE()":"cee93dad","TAX_RATE()":"83f170be","allowance(address,address)":"dd62ed3e","approve(address,uint256)":"095ea7b3","balanceOf(address)":"70a08231","burn(uint256)":"42966c68","burnFrom(address,uint256)":"79cc6790","decimals()":"313ce567","directReferralRewards(address)":"1d2e0e8f","getTaxBreakdown(uint256)":"f049c4d6","levelRewardWallet()":"5eccfb6d","liquidityReturnWallet()":"7c073e27","marketMakerWallet()":"7acfe0ec","name()":"06fdde03","nodeDividendWallet()":"b47e5bda","operationsWallet()":"fd72e22a","owner()":"8da5cb5b","recoverTokens(address,uint256)":"069c9fae","referrers(address)":"4a3b68cc","renounceOwnership()":"715018a6","setReferrer(address)":"a18a7bfc","setTradingEnabled(bool)":"c2e5ec04","symbol()":"95d89b41","totalSupply()":"18160ddd","tradingEnabled()":"4ada218b","transfer(address,uint256)":"a9059cbb","transferFrom(address,address,uint256)":"23b872dd","transferOwnership(address)":"f2fde38b","updateWallets(address,address,address)":"147c9f6d"}}}}}