{"src/PhaseControl.sol":{"PhaseControl":{"abi":[{"inputs":[{"internalType":"address","name":"_tftToken","type":"address"},{"internalType":"address","name":"_insurancePool","type":"address"},{"internalType":"address","name":"_predictionMarket","type":"address"},{"internalType":"address","name":"_nodePartner","type":"address"},{"internalType":"address","name":"_marketMaker","type":"address"}],"stateMutability":"nonpayable","type":"constructor"},{"inputs":[{"internalType":"address","name":"owner","type":"address"}],"name":"OwnableInvalidOwner","type":"error"},{"inputs":[{"internalType":"address","name":"account","type":"address"}],"name":"OwnableUnauthorizedAccount","type":"error"},{"anonymous":false,"inputs":[{"indexed":false,"internalType":"address","name":"tft","type":"address"},{"indexed":false,"internalType":"address","name":"insurance","type":"address"},{"indexed":false,"internalType":"address","name":"prediction","type":"address"},{"indexed":false,"internalType":"address","name":"node","type":"address"},{"indexed":false,"internalType":"address","name":"market","type":"address"}],"name":"ContractAddressesUpdated","type":"event"},{"anonymous":false,"inputs":[{"indexed":true,"internalType":"address","name":"previousOwner","type":"address"},{"indexed":true,"internalType":"address","name":"newOwner","type":"address"}],"name":"OwnershipTransferred","type":"event"},{"anonymous":false,"inputs":[{"indexed":false,"internalType":"enum PhaseControl.Phase","name":"oldPhase","type":"uint8"},{"indexed":false,"internalType":"enum PhaseControl.Phase","name":"newPhase","type":"uint8"},{"indexed":false,"internalType":"uint256","name":"timestamp","type":"uint256"}],"name":"PhaseTransitioned","type":"event"},{"anonymous":false,"inputs":[{"components":[{"internalType":"uint256","name":"p1ToP2Holders","type":"uint256"},{"internalType":"uint256","name":"p1ToP2InsuranceTFT","type":"uint256"},{"internalType":"uint256","name":"p1ToP2Volume","type":"uint256"},{"internalType":"uint256","name":"p1ToP2Nodes","type":"uint256"},{"internalType":"uint256","name":"p1ToP2MinTime","type":"uint256"},{"internalType":"uint256","name":"p2ToP3Holders","type":"uint256"},{"internalType":"uint256","name":"p2ToP3TVL","type":"uint256"},{"internalType":"uint256","name":"p2ToP3DailyVolume","type":"uint256"},{"internalType":"uint256","name":"p2ToP3Nodes","type":"uint256"},{"internalType":"uint256","name":"p2ToP3MarketMakers","type":"uint256"},{"internalType":"uint256","name":"p2ToP3MinTime","type":"uint256"}],"indexed":false,"internalType":"struct PhaseControl.PhaseThresholds","name":"newThresholds","type":"tuple"}],"name":"ThresholdsUpdated","type":"event"},{"inputs":[],"name":"BUY_TAX","outputs":[{"internalType":"uint256","name":"","type":"uint256"}],"stateMutability":"view","type":"function"},{"inputs":[],"name":"COLD_START_SELL_TAX","outputs":[{"internalType":"uint256","name":"","type":"uint256"}],"stateMutability":"view","type":"function"},{"inputs":[],"name":"FULLY_OPEN_SELL_TAX","outputs":[{"internalType":"uint256","name":"","type":"uint256"}],"stateMutability":"view","type":"function"},{"inputs":[],"name":"SEMI_OPEN_SELL_TAX","outputs":[{"internalType":"uint256","name":"","type":"uint256"}],"stateMutability":"view","type":"function"},{"inputs":[],"name":"canTransitionToFullyOpen","outputs":[{"internalType":"bool","name":"","type":"bool"}],"stateMutability":"view","type":"function"},{"inputs":[],"name":"canTransitionToSemiOpen","outputs":[{"internalType":"bool","name":"","type":"bool"}],"stateMutability":"view","type":"function"},{"inputs":[],"name":"currentPhase","outputs":[{"internalType":"enum PhaseControl.Phase","name":"","type":"uint8"}],"stateMutability":"view","type":"function"},{"inputs":[],"name":"getCurrentBuyTaxRate","outputs":[{"internalType":"uint256","name":"","type":"uint256"}],"stateMutability":"pure","type":"function"},{"inputs":[],"name":"getCurrentSellTaxRate","outputs":[{"internalType":"uint256","name":"","type":"uint256"}],"stateMutability":"view","type":"function"},{"inputs":[],"name":"getPhaseInfo","outputs":[{"internalType":"enum PhaseControl.Phase","name":"phase","type":"uint8"},{"internalType":"string","name":"phaseName","type":"string"},{"internalType":"uint256","name":"sellTaxRate","type":"uint256"},{"internalType":"uint256","name":"buyTaxRate","type":"uint256"},{"internalType":"bool","name":"tradingAllowed","type":"bool"},{"internalType":"uint256","name":"daysSinceLaunch","type":"uint256"}],"stateMutability":"view","type":"function"},{"inputs":[],"name":"getPhaseName","outputs":[{"internalType":"string","name":"","type":"string"}],"stateMutability":"view","type":"function"},{"inputs":[],"name":"insurancePool","outputs":[{"internalType":"address","name":"","type":"address"}],"stateMutability":"view","type":"function"},{"inputs":[],"name":"isTradingAllowed","outputs":[{"internalType":"bool","name":"","type":"bool"}],"stateMutability":"view","type":"function"},{"inputs":[],"name":"launchTime","outputs":[{"internalType":"uint256","name":"","type":"uint256"}],"stateMutability":"view","type":"function"},{"inputs":[],"name":"marketMaker","outputs":[{"internalType":"address","name":"","type":"address"}],"stateMutability":"view","type":"function"},{"inputs":[],"name":"nodePartner","outputs":[{"internalType":"address","name":"","type":"address"}],"stateMutability":"view","type":"function"},{"inputs":[],"name":"owner","outputs":[{"internalType":"address","name":"","type":"address"}],"stateMutability":"view","type":"function"},{"inputs":[],"name":"predictionMarket","outputs":[{"internalType":"address","name":"","type":"address"}],"stateMutability":"view","type":"function"},{"inputs":[],"name":"renounceOwnership","outputs":[],"stateMutability":"nonpayable","type":"function"},{"inputs":[],"name":"tftToken","outputs":[{"internalType":"address","name":"","type":"address"}],"stateMutability":"view","type":"function"},{"inputs":[],"name":"thresholds","outputs":[{"internalType":"uint256","name":"p1ToP2Holders","type":"uint256"},{"internalType":"uint256","name":"p1ToP2InsuranceTFT","type":"uint256"},{"internalType":"uint256","name":"p1ToP2Volume","type":"uint256"},{"internalType":"uint256","name":"p1ToP2Nodes","type":"uint256"},{"internalType":"uint256","name":"p1ToP2MinTime","type":"uint256"},{"internalType":"uint256","name":"p2ToP3Holders","type":"uint256"},{"internalType":"uint256","name":"p2ToP3TVL","type":"uint256"},{"internalType":"uint256","name":"p2ToP3DailyVolume","type":"uint256"},{"internalType":"uint256","name":"p2ToP3Nodes","type":"uint256"},{"internalType":"uint256","name":"p2ToP3MarketMakers","type":"uint256"},{"internalType":"uint256","name":"p2ToP3MinTime","type":"uint256"}],"stateMutability":"view","type":"function"},{"inputs":[{"internalType":"address","name":"newOwner","type":"address"}],"name":"transferOwnership","outputs":[],"stateMutability":"nonpayable","type":"function"},{"inputs":[],"name":"transitionToFullyOpen","outputs":[],"stateMutability":"nonpayable","type":"function"},{"inputs":[],"name":"transitionToSemiOpen","outputs":[],"stateMutability":"nonpayable","type":"function"},{"inputs":[{"internalType":"address","name":"_tftToken","type":"address"},{"internalType":"address","name":"_insurancePool","type":"address"},{"internalType":"address","name":"_predictionMarket","type":"address"},{"internalType":"address","name":"_nodePartner","type":"address"},{"internalType":"address","name":"_marketMaker","type":"address"}],"name":"updateContractAddresses","outputs":[],"stateMutability":"nonpayable","type":"function"},{"inputs":[{"components":[{"internalType":"uint256","name":"p1ToP2Holders","type":"uint256"},{"internalType":"uint256","name":"p1ToP2InsuranceTFT","type":"uint256"},{"internalType":"uint256","name":"p1ToP2Volume","type":"uint256"},{"internalType":"uint256","name":"p1ToP2Nodes","type":"uint256"},{"internalType":"uint256","name":"p1ToP2MinTime","type":"uint256"},{"internalType":"uint256","name":"p2ToP3Holders","type":"uint256"},{"internalType":"uint256","name":"p2ToP3TVL","type":"uint256"},{"internalType":"uint256","name":"p2ToP3DailyVolume","type":"uint256"},{"internalType":"uint256","name":"p2ToP3Nodes","type":"uint256"},{"internalType":"uint256","name":"p2ToP3MarketMakers","type":"uint256"},{"internalType":"uint256","name":"p2ToP3MinTime","type":"uint256"}],"internalType":"struct PhaseControl.PhaseThresholds","name":"_thresholds","type":"tuple"}],"name":"updateThresholds","outputs":[],"stateMutability":"nonpayable","type":"function"}],"evm":{"bytecode":{"linkReferences":{},"object":"60806040526000805460ff60a01b191690553480156200001e57600080fd5b506040516200122138038062001221833981016040819052620000419162000250565b33806200006957604051631e4fbdf760e01b8152600060048201526024015b60405180910390fd5b6200007481620001e3565b506001600160a01b038516620000bb5760405162461bcd60e51b815260206004820152600b60248201526a125b9d985b1a590815119560aa1b604482015260640162000060565b600d80546001600160a01b03199081166001600160a01b0397881617909155600e8054821695871695909517909455600f80548516938616939093179092556010805484169185169190911790556011805490921692169190911790554260015560408051610160810182526101f480825269152d02c7e14af68000006020830181905264174876e80093830184905260326060840181905262278d00608085018190526107d060a0860181905264746a52880060c087018190526402540be40060e0880181905260c8610100890181905260146101208a018190526276a700610140909a018a9052600298909855600396909655600498909855600593909355600691909155600755600855600993909355600a92909255600b91909155600c55620002c0565b600080546001600160a01b038381166001600160a01b0319831681178455604051919092169283917f8be0079c531659141344cd1fd0a4f28419497f9722a3daafe3b4186f6b6457e09190a35050565b80516001600160a01b03811681146200024b57600080fd5b919050565b600080600080600060a086880312156200026957600080fd5b620002748662000233565b9450620002846020870162000233565b9350620002946040870162000233565b9250620002a46060870162000233565b9150620002b46080870162000233565b90509295509295909350565b610f5180620002d06000396000f3fe608060405234801561001057600080fd5b506004361061018e5760003560e01c80639682f87a116100de578063cb99e4a611610097578063def114b611610071578063def114b614610383578063ea9134ec14610396578063eb94923514610193578063f2fde38b1461039e57600080fd5b8063cb99e4a6146102ed578063cda43b3a146102f5578063d43e16c71461037a57600080fd5b80639682f87a146102855780639d800e5714610298578063a48179ff146102b0578063a6f8e722146102b8578063ab2adc00146102d2578063becfe564146102e557600080fd5b806365dc24b81161014b578063790ca41311610125578063790ca413146102505780638a806aab146102595780638da5cb5b1461026c57806393a650881461027d57600080fd5b806365dc24b814610220578063715018a614610233578063717641051461023d57600080fd5b806302af37bb14610193578063055ad42e146101af57806308cf83a3146101d05780631f21f9af146101d8578063215d4b11146102035780635bca0bc214610218575b600080fd5b61019c61025881565b6040519081526020015b60405180910390f35b6000546101c390600160a01b900460ff1681565b6040516101a69190610b9c565b61019c6103b1565b6011546101eb906001600160a01b031681565b6040516001600160a01b0390911681526020016101a6565b61020b610411565b6040516101a69190610c00565b61019c600081565b600d546101eb906001600160a01b031681565b61023b6104c7565b005b61023b61024b366004610c36565b6104db565b61019c60015481565b61023b610267366004610cdb565b610594565b6000546001600160a01b03166101eb565b61023b6106a6565b6010546101eb906001600160a01b031681565b6102a06107b7565b60405190151581526020016101a6565b6102a0610807565b6102c061082f565b6040516101a696959493929190610d6e565b600e546101eb906001600160a01b031681565b6102a0610965565b61025861019c565b600254600354600454600554600654600754600854600954600a54600b54600c546103279a999897969594939291908b565b604080519b8c5260208c019a909a52988a01979097526060890195909552608088019390935260a087019190915260c086015260e0850152610100840152610120830152610140820152610160016101a6565b61019c6105dc81565b600f546101eb906001600160a01b031681565b61023b6109a1565b61023b6103ac366004610db3565b610aa9565b600080600054600160a01b900460ff1660028111156103d2576103d2610b64565b036103de575061271090565b6001600054600160a01b900460ff1660028111156103fe576103fe610b64565b0361040a57506105dc90565b5061025890565b606060008054600160a01b900460ff16600281111561043257610432610b64565b0361045b575060408051808201909152600981526810dbdb1914dd185c9d60ba1b602082015290565b6001600054600160a01b900460ff16600281111561047b5761047b610b64565b036104a3575060408051808201909152600881526729b2b6b4a7b832b760c11b602082015290565b50604080518082019091526009815268233ab6363ca7b832b760b91b602082015290565b6104cf610ae7565b6104d96000610b14565b565b6104e3610ae7565b600d80546001600160a01b038781166001600160a01b03199283168117909355600e80548883169084168117909155600f805488841690851681179091556010805488851690861681179091556011805494881694909516841790945560408051958652602086019290925290840152606083019190915260808201527fc4476e84b1a1a04ec0437465880dab744674e790ebe50042d0ff63311409120a9060a00160405180910390a15050505050565b61059c610ae7565b805160025560208101516003556040808201516004556060820151600555608082015160065560a082015160075560c082015160085560e0820151600955610100820151600a55610120820151600b55610140820151600c55517ffa05e9b711b2ded14c859c310c6a4f36b576bf490fe17d4888dfd02366e351fd9061069b908390600061016082019050825182526020830151602083015260408301516040830152606083015160608301526080830151608083015260a083015160a083015260c083015160c083015260e083015160e083015261010080840151818401525061012080840151818401525061014080840151818401525092915050565b60405180910390a150565b6106ae610ae7565b6001600054600160a01b900460ff1660028111156106ce576106ce610b64565b146107185760405162461bcd60e51b81526020600482015260156024820152744e6f7420696e2053656d694f70656e20706861736560581b60448201526064015b60405180910390fd5b6107206107b7565b6107615760405162461bcd60e51b815260206004820152601260248201527110dbdb991a5d1a5bdb9cc81b9bdd081b595d60721b604482015260640161070f565b6000805460ff60a01b198116600160a11b17909155604051600160a01b90910460ff16907fefa1fea20cc2d4af8027fccfa5980c7e135bc6ef13b99c6fea04c7ff3d7a39d09061069b9083906002904290610dce565b60006001600054600160a01b900460ff1660028111156107d9576107d9610b64565b146107e45750600090565b600c546001546107f49190610e0d565b4210156108015750600090565b50600190565b600080600054600160a01b900460ff16600281111561082857610828610b64565b1415905090565b60006060600080600080600060149054906101000a900460ff169550306001600160a01b031663215d4b116040518163ffffffff1660e01b8152600401600060405180830381865afa158015610889573d6000803e3d6000fd5b505050506040513d6000823e601f3d908101601f191682016040526108b19190810190610e20565b9450306001600160a01b03166308cf83a36040518163ffffffff1660e01b8152600401602060405180830381865afa1580156108f1573d6000803e3d6000fd5b505050506040513d601f19601f820116820180604052508101906109159190610ecd565b9350610258925060008054600160a01b900460ff16600281111561093b5761093b610b64565b1415915062015180600154426109519190610ee6565b61095b9190610ef9565b9050909192939495565b600080600054600160a01b900460ff16600281111561098657610986610b64565b146109915750600090565b6006546001546107f49190610e0d565b6109a9610ae7565b60008054600160a01b900460ff1660028111156109c8576109c8610b64565b14610a0e5760405162461bcd60e51b81526020600482015260166024820152754e6f7420696e20436f6c64537461727420706861736560501b604482015260640161070f565b610a16610965565b610a575760405162461bcd60e51b815260206004820152601260248201527110dbdb991a5d1a5bdb9cc81b9bdd081b595d60721b604482015260640161070f565b60008054600160a01b60ff60a01b198216811790925560405191900460ff16907fefa1fea20cc2d4af8027fccfa5980c7e135bc6ef13b99c6fea04c7ff3d7a39d09061069b9083906001904290610dce565b610ab1610ae7565b6001600160a01b038116610adb57604051631e4fbdf760e01b81526000600482015260240161070f565b610ae481610b14565b50565b6000546001600160a01b031633146104d95760405163118cdaa760e01b815233600482015260240161070f565b600080546001600160a01b038381166001600160a01b0319831681178455604051919092169283917f8be0079c531659141344cd1fd0a4f28419497f9722a3daafe3b4186f6b6457e09190a35050565b634e487b7160e01b600052602160045260246000fd5b60038110610b9857634e487b7160e01b600052602160045260246000fd5b9052565b60208101610baa8284610b7a565b92915050565b60005b83811015610bcb578181015183820152602001610bb3565b50506000910152565b60008151808452610bec816020860160208601610bb0565b601f01601f19169290920160200192915050565b602081526000610c136020830184610bd4565b9392505050565b80356001600160a01b0381168114610c3157600080fd5b919050565b600080600080600060a08688031215610c4e57600080fd5b610c5786610c1a565b9450610c6560208701610c1a565b9350610c7360408701610c1a565b9250610c8160608701610c1a565b9150610c8f60808701610c1a565b90509295509295909350565b634e487b7160e01b600052604160045260246000fd5b604051610160810167ffffffffffffffff81118282101715610cd557610cd5610c9b565b60405290565b60006101608284031215610cee57600080fd5b610cf6610cb1565b823581526020830135602082015260408301356040820152606083013560608201526080830135608082015260a083013560a082015260c083013560c082015260e083013560e08201526101008084013581830152506101208084013581830152506101408084013581830152508091505092915050565b610d788188610b7a565b60c060208201526000610d8e60c0830188610bd4565b6040830196909652506060810193909352901515608083015260a09091015292915050565b600060208284031215610dc557600080fd5b610c1382610c1a565b60608101610ddc8286610b7a565b610de96020830185610b7a565b826040830152949350505050565b634e487b7160e01b600052601160045260246000fd5b80820180821115610baa57610baa610df7565b600060208284031215610e3257600080fd5b815167ffffffffffffffff80821115610e4a57600080fd5b818401915084601f830112610e5e57600080fd5b815181811115610e7057610e70610c9b565b604051601f8201601f19908116603f01168101908382118183101715610e9857610e98610c9b565b81604052828152876020848701011115610eb157600080fd5b610ec2836020830160208801610bb0565b979650505050505050565b600060208284031215610edf57600080fd5b5051919050565b81810381811115610baa57610baa610df7565b600082610f1657634e487b7160e01b600052601260045260246000fd5b50049056fea26469706673582212203f76e536b1ede09accca3053831107ccaad714c1e5432c39bd7441707a615f2064736f6c63430008180033","opcodes":"PUSH1 0x80 PUSH1 0x40 MSTORE PUSH1 0x0 DUP1 SLOAD PUSH1 0xFF PUSH1 0xA0 SHL NOT AND SWAP1 SSTORE CALLVALUE DUP1 ISZERO PUSH3 0x1E JUMPI PUSH1 0x0 DUP1 REVERT JUMPDEST POP PUSH1 0x40 MLOAD PUSH3 0x1221 CODESIZE SUB DUP1 PUSH3 0x1221 DUP4 CODECOPY DUP2 ADD PUSH1 0x40 DUP2 SWAP1 MSTORE PUSH3 0x41 SWAP2 PUSH3 0x250 JUMP JUMPDEST CALLER DUP1 PUSH3 0x69 JUMPI PUSH1 0x40 MLOAD PUSH4 0x1E4FBDF7 PUSH1 0xE0 SHL DUP2 MSTORE PUSH1 0x0 PUSH1 0x4 DUP3 ADD MSTORE PUSH1 0x24 ADD JUMPDEST PUSH1 0x40 MLOAD DUP1 SWAP2 SUB SWAP1 REVERT JUMPDEST PUSH3 0x74 DUP2 PUSH3 0x1E3 JUMP JUMPDEST POP PUSH1 0x1 PUSH1 0x1 PUSH1 0xA0 SHL SUB DUP6 AND PUSH3 0xBB JUMPI PUSH1 0x40 MLOAD PUSH3 0x461BCD PUSH1 0xE5 SHL DUP2 MSTORE PUSH1 0x20 PUSH1 0x4 DUP3 ADD MSTORE PUSH1 0xB PUSH1 0x24 DUP3 ADD MSTORE PUSH11 0x125B9D985B1A5908151195 PUSH1 0xAA SHL PUSH1 0x44 DUP3 ADD MSTORE PUSH1 0x64 ADD PUSH3 0x60 JUMP JUMPDEST PUSH1 0xD DUP1 SLOAD PUSH1 0x1 PUSH1 0x1 PUSH1 0xA0 SHL SUB NOT SWAP1 DUP2 AND PUSH1 0x1 PUSH1 0x1 PUSH1 0xA0 SHL SUB SWAP8 DUP9 AND OR SWAP1 SWAP2 SSTORE PUSH1 0xE DUP1 SLOAD DUP3 AND SWAP6 DUP8 AND SWAP6 SWAP1 SWAP6 OR SWAP1 SWAP5 SSTORE PUSH1 0xF DUP1 SLOAD DUP6 AND SWAP4 DUP7 AND SWAP4 SWAP1 SWAP4 OR SWAP1 SWAP3 SSTORE PUSH1 0x10 DUP1 SLOAD DUP5 AND SWAP2 DUP6 AND SWAP2 SWAP1 SWAP2 OR SWAP1 SSTORE PUSH1 0x11 DUP1 SLOAD SWAP1 SWAP3 AND SWAP3 AND SWAP2 SWAP1 SWAP2 OR SWAP1 SSTORE TIMESTAMP PUSH1 0x1 SSTORE PUSH1 0x40 DUP1 MLOAD PUSH2 0x160 DUP2 ADD DUP3 MSTORE PUSH2 0x1F4 DUP1 DUP3 MSTORE PUSH10 0x152D02C7E14AF6800000 PUSH1 0x20 DUP4 ADD DUP2 SWAP1 MSTORE PUSH5 0x174876E800 SWAP4 DUP4 ADD DUP5 SWAP1 MSTORE PUSH1 0x32 PUSH1 0x60 DUP5 ADD DUP2 SWAP1 MSTORE PUSH3 0x278D00 PUSH1 0x80 DUP6 ADD DUP2 SWAP1 MSTORE PUSH2 0x7D0 PUSH1 0xA0 DUP7 ADD DUP2 SWAP1 MSTORE PUSH5 0x746A528800 PUSH1 0xC0 DUP8 ADD DUP2 SWAP1 MSTORE PUSH5 0x2540BE400 PUSH1 0xE0 DUP9 ADD DUP2 SWAP1 MSTORE PUSH1 0xC8 PUSH2 0x100 DUP10 ADD DUP2 SWAP1 MSTORE PUSH1 0x14 PUSH2 0x120 DUP11 ADD DUP2 SWAP1 MSTORE PUSH3 0x76A700 PUSH2 0x140 SWAP1 SWAP11 ADD DUP11 SWAP1 MSTORE PUSH1 0x2 SWAP9 SWAP1 SWAP9 SSTORE PUSH1 0x3 SWAP7 SWAP1 SWAP7 SSTORE PUSH1 0x4 SWAP9 SWAP1 SWAP9 SSTORE PUSH1 0x5 SWAP4 SWAP1 SWAP4 SSTORE PUSH1 0x6 SWAP2 SWAP1 SWAP2 SSTORE PUSH1 0x7 SSTORE PUSH1 0x8 SSTORE PUSH1 0x9 SWAP4 SWAP1 SWAP4 SSTORE PUSH1 0xA SWAP3 SWAP1 SWAP3 SSTORE PUSH1 0xB SWAP2 SWAP1 SWAP2 SSTORE PUSH1 0xC SSTORE PUSH3 0x2C0 JUMP JUMPDEST PUSH1 0x0 DUP1 SLOAD PUSH1 0x1 PUSH1 0x1 PUSH1 0xA0 SHL SUB DUP4 DUP2 AND PUSH1 0x1 PUSH1 0x1 PUSH1 0xA0 SHL SUB NOT DUP4 AND DUP2 OR DUP5 SSTORE PUSH1 0x40 MLOAD SWAP2 SWAP1 SWAP3 AND SWAP3 DUP4 SWAP2 PUSH32 0x8BE0079C531659141344CD1FD0A4F28419497F9722A3DAAFE3B4186F6B6457E0 SWAP2 SWAP1 LOG3 POP POP JUMP JUMPDEST DUP1 MLOAD PUSH1 0x1 PUSH1 0x1 PUSH1 0xA0 SHL SUB DUP2 AND DUP2 EQ PUSH3 0x24B JUMPI PUSH1 0x0 DUP1 REVERT JUMPDEST SWAP2 SWAP1 POP JUMP JUMPDEST PUSH1 0x0 DUP1 PUSH1 0x0 DUP1 PUSH1 0x0 PUSH1 0xA0 DUP7 DUP9 SUB SLT ISZERO PUSH3 0x269 JUMPI PUSH1 0x0 DUP1 REVERT JUMPDEST PUSH3 0x274 DUP7 PUSH3 0x233 JUMP JUMPDEST SWAP5 POP PUSH3 0x284 PUSH1 0x20 DUP8 ADD PUSH3 0x233 JUMP JUMPDEST SWAP4 POP PUSH3 0x294 PUSH1 0x40 DUP8 ADD PUSH3 0x233 JUMP JUMPDEST SWAP3 POP PUSH3 0x2A4 PUSH1 0x60 DUP8 ADD PUSH3 0x233 JUMP JUMPDEST SWAP2 POP PUSH3 0x2B4 PUSH1 0x80 DUP8 ADD PUSH3 0x233 JUMP JUMPDEST SWAP1 POP SWAP3 SWAP6 POP SWAP3 SWAP6 SWAP1 SWAP4 POP JUMP JUMPDEST PUSH2 0xF51 DUP1 PUSH3 0x2D0 PUSH1 0x0 CODECOPY PUSH1 0x0 RETURN INVALID PUSH1 0x80 PUSH1 0x40 MSTORE CALLVALUE DUP1 ISZERO PUSH2 0x10 JUMPI PUSH1 0x0 DUP1 REVERT JUMPDEST POP PUSH1 0x4 CALLDATASIZE LT PUSH2 0x18E JUMPI PUSH1 0x0 CALLDATALOAD PUSH1 0xE0 SHR DUP1 PUSH4 0x9682F87A GT PUSH2 0xDE JUMPI DUP1 PUSH4 0xCB99E4A6 GT PUSH2 0x97 JUMPI DUP1 PUSH4 0xDEF114B6 GT PUSH2 0x71 JUMPI DUP1 PUSH4 0xDEF114B6 EQ PUSH2 0x383 JUMPI DUP1 PUSH4 0xEA9134EC EQ PUSH2 0x396 JUMPI DUP1 PUSH4 0xEB949235 EQ PUSH2 0x193 JUMPI DUP1 PUSH4 0xF2FDE38B EQ PUSH2 0x39E JUMPI PUSH1 0x0 DUP1 REVERT JUMPDEST DUP1 PUSH4 0xCB99E4A6 EQ PUSH2 0x2ED JUMPI DUP1 PUSH4 0xCDA43B3A EQ PUSH2 0x2F5 JUMPI DUP1 PUSH4 0xD43E16C7 EQ PUSH2 0x37A JUMPI PUSH1 0x0 DUP1 REVERT JUMPDEST DUP1 PUSH4 0x9682F87A EQ PUSH2 0x285 JUMPI DUP1 PUSH4 0x9D800E57 EQ PUSH2 0x298 JUMPI DUP1 PUSH4 0xA48179FF EQ PUSH2 0x2B0 JUMPI DUP1 PUSH4 0xA6F8E722 EQ PUSH2 0x2B8 JUMPI DUP1 PUSH4 0xAB2ADC00 EQ PUSH2 0x2D2 JUMPI DUP1 PUSH4 0xBECFE564 EQ PUSH2 0x2E5 JUMPI PUSH1 0x0 DUP1 REVERT JUMPDEST DUP1 PUSH4 0x65DC24B8 GT PUSH2 0x14B JUMPI DUP1 PUSH4 0x790CA413 GT PUSH2 0x125 JUMPI DUP1 PUSH4 0x790CA413 EQ PUSH2 0x250 JUMPI DUP1 PUSH4 0x8A806AAB EQ PUSH2 0x259 JUMPI DUP1 PUSH4 0x8DA5CB5B EQ PUSH2 0x26C JUMPI DUP1 PUSH4 0x93A65088 EQ PUSH2 0x27D JUMPI PUSH1 0x0 DUP1 REVERT JUMPDEST DUP1 PUSH4 0x65DC24B8 EQ PUSH2 0x220 JUMPI DUP1 PUSH4 0x715018A6 EQ PUSH2 0x233 JUMPI DUP1 PUSH4 0x71764105 EQ PUSH2 0x23D JUMPI PUSH1 0x0 DUP1 REVERT JUMPDEST DUP1 PUSH4 0x2AF37BB EQ PUSH2 0x193 JUMPI DUP1 PUSH4 0x55AD42E EQ PUSH2 0x1AF JUMPI DUP1 PUSH4 0x8CF83A3 EQ PUSH2 0x1D0 JUMPI DUP1 PUSH4 0x1F21F9AF EQ PUSH2 0x1D8 JUMPI DUP1 PUSH4 0x215D4B11 EQ PUSH2 0x203 JUMPI DUP1 PUSH4 0x5BCA0BC2 EQ PUSH2 0x218 JUMPI JUMPDEST PUSH1 0x0 DUP1 REVERT JUMPDEST PUSH2 0x19C PUSH2 0x258 DUP2 JUMP JUMPDEST PUSH1 0x40 MLOAD SWAP1 DUP2 MSTORE PUSH1 0x20 ADD JUMPDEST PUSH1 0x40 MLOAD DUP1 SWAP2 SUB SWAP1 RETURN JUMPDEST PUSH1 0x0 SLOAD PUSH2 0x1C3 SWAP1 PUSH1 0x1 PUSH1 0xA0 SHL SWAP1 DIV PUSH1 0xFF AND DUP2 JUMP JUMPDEST PUSH1 0x40 MLOAD PUSH2 0x1A6 SWAP2 SWAP1 PUSH2 0xB9C JUMP JUMPDEST PUSH2 0x19C PUSH2 0x3B1 JUMP JUMPDEST PUSH1 0x11 SLOAD PUSH2 0x1EB SWAP1 PUSH1 0x1 PUSH1 0x1 PUSH1 0xA0 SHL SUB AND DUP2 JUMP JUMPDEST PUSH1 0x40 MLOAD PUSH1 0x1 PUSH1 0x1 PUSH1 0xA0 SHL SUB SWAP1 SWAP2 AND DUP2 MSTORE PUSH1 0x20 ADD PUSH2 0x1A6 JUMP JUMPDEST PUSH2 0x20B PUSH2 0x411 JUMP JUMPDEST PUSH1 0x40 MLOAD PUSH2 0x1A6 SWAP2 SWAP1 PUSH2 0xC00 JUMP JUMPDEST PUSH2 0x19C PUSH1 0x0 DUP2 JUMP JUMPDEST PUSH1 0xD SLOAD PUSH2 0x1EB SWAP1 PUSH1 0x1 PUSH1 0x1 PUSH1 0xA0 SHL SUB AND DUP2 JUMP JUMPDEST PUSH2 0x23B PUSH2 0x4C7 JUMP JUMPDEST STOP JUMPDEST PUSH2 0x23B PUSH2 0x24B CALLDATASIZE PUSH1 0x4 PUSH2 0xC36 JUMP JUMPDEST PUSH2 0x4DB JUMP JUMPDEST PUSH2 0x19C PUSH1 0x1 SLOAD DUP2 JUMP JUMPDEST PUSH2 0x23B PUSH2 0x267 CALLDATASIZE PUSH1 0x4 PUSH2 0xCDB JUMP JUMPDEST PUSH2 0x594 JUMP JUMPDEST PUSH1 0x0 SLOAD PUSH1 0x1 PUSH1 0x1 PUSH1 0xA0 SHL SUB AND PUSH2 0x1EB JUMP JUMPDEST PUSH2 0x23B PUSH2 0x6A6 JUMP JUMPDEST PUSH1 0x10 SLOAD PUSH2 0x1EB SWAP1 PUSH1 0x1 PUSH1 0x1 PUSH1 0xA0 SHL SUB AND DUP2 JUMP JUMPDEST PUSH2 0x2A0 PUSH2 0x7B7 JUMP JUMPDEST PUSH1 0x40 MLOAD SWAP1 ISZERO ISZERO DUP2 MSTORE PUSH1 0x20 ADD PUSH2 0x1A6 JUMP JUMPDEST PUSH2 0x2A0 PUSH2 0x807 JUMP JUMPDEST PUSH2 0x2C0 PUSH2 0x82F JUMP JUMPDEST PUSH1 0x40 MLOAD PUSH2 0x1A6 SWAP7 SWAP6 SWAP5 SWAP4 SWAP3 SWAP2 SWAP1 PUSH2 0xD6E JUMP JUMPDEST PUSH1 0xE SLOAD PUSH2 0x1EB SWAP1 PUSH1 0x1 PUSH1 0x1 PUSH1 0xA0 SHL SUB AND DUP2 JUMP JUMPDEST PUSH2 0x2A0 PUSH2 0x965 JUMP JUMPDEST PUSH2 0x258 PUSH2 0x19C JUMP JUMPDEST PUSH1 0x2 SLOAD PUSH1 0x3 SLOAD PUSH1 0x4 SLOAD PUSH1 0x5 SLOAD PUSH1 0x6 SLOAD PUSH1 0x7 SLOAD PUSH1 0x8 SLOAD PUSH1 0x9 SLOAD PUSH1 0xA SLOAD PUSH1 0xB SLOAD PUSH1 0xC SLOAD PUSH2 0x327 SWAP11 SWAP10 SWAP9 SWAP8 SWAP7 SWAP6 SWAP5 SWAP4 SWAP3 SWAP2 SWAP1 DUP12 JUMP JUMPDEST PUSH1 0x40 DUP1 MLOAD SWAP12 DUP13 MSTORE PUSH1 0x20 DUP13 ADD SWAP11 SWAP1 SWAP11 MSTORE SWAP9 DUP11 ADD SWAP8 SWAP1 SWAP8 MSTORE PUSH1 0x60 DUP10 ADD SWAP6 SWAP1 SWAP6 MSTORE PUSH1 0x80 DUP9 ADD SWAP4 SWAP1 SWAP4 MSTORE PUSH1 0xA0 DUP8 ADD SWAP2 SWAP1 SWAP2 MSTORE PUSH1 0xC0 DUP7 ADD MSTORE PUSH1 0xE0 DUP6 ADD MSTORE PUSH2 0x100 DUP5 ADD MSTORE PUSH2 0x120 DUP4 ADD MSTORE PUSH2 0x140 DUP3 ADD MSTORE PUSH2 0x160 ADD PUSH2 0x1A6 JUMP JUMPDEST PUSH2 0x19C PUSH2 0x5DC DUP2 JUMP JUMPDEST PUSH1 0xF SLOAD PUSH2 0x1EB SWAP1 PUSH1 0x1 PUSH1 0x1 PUSH1 0xA0 SHL SUB AND DUP2 JUMP JUMPDEST PUSH2 0x23B PUSH2 0x9A1 JUMP JUMPDEST PUSH2 0x23B PUSH2 0x3AC CALLDATASIZE PUSH1 0x4 PUSH2 0xDB3 JUMP JUMPDEST PUSH2 0xAA9 JUMP JUMPDEST PUSH1 0x0 DUP1 PUSH1 0x0 SLOAD PUSH1 0x1 PUSH1 0xA0 SHL SWAP1 DIV PUSH1 0xFF AND PUSH1 0x2 DUP2 GT ISZERO PUSH2 0x3D2 JUMPI PUSH2 0x3D2 PUSH2 0xB64 JUMP JUMPDEST SUB PUSH2 0x3DE JUMPI POP PUSH2 0x2710 SWAP1 JUMP JUMPDEST PUSH1 0x1 PUSH1 0x0 SLOAD PUSH1 0x1 PUSH1 0xA0 SHL SWAP1 DIV PUSH1 0xFF AND PUSH1 0x2 DUP2 GT ISZERO PUSH2 0x3FE JUMPI PUSH2 0x3FE PUSH2 0xB64 JUMP JUMPDEST SUB PUSH2 0x40A JUMPI POP PUSH2 0x5DC SWAP1 JUMP JUMPDEST POP PUSH2 0x258 SWAP1 JUMP JUMPDEST PUSH1 0x60 PUSH1 0x0 DUP1 SLOAD PUSH1 0x1 PUSH1 0xA0 SHL SWAP1 DIV PUSH1 0xFF AND PUSH1 0x2 DUP2 GT ISZERO PUSH2 0x432 JUMPI PUSH2 0x432 PUSH2 0xB64 JUMP JUMPDEST SUB PUSH2 0x45B JUMPI POP PUSH1 0x40 DUP1 MLOAD DUP1 DUP3 ADD SWAP1 SWAP2 MSTORE PUSH1 0x9 DUP2 MSTORE PUSH9 0x10DBDB1914DD185C9D PUSH1 0xBA SHL PUSH1 0x20 DUP3 ADD MSTORE SWAP1 JUMP JUMPDEST PUSH1 0x1 PUSH1 0x0 SLOAD PUSH1 0x1 PUSH1 0xA0 SHL SWAP1 DIV PUSH1 0xFF AND PUSH1 0x2 DUP2 GT ISZERO PUSH2 0x47B JUMPI PUSH2 0x47B PUSH2 0xB64 JUMP JUMPDEST SUB PUSH2 0x4A3 JUMPI POP PUSH1 0x40 DUP1 MLOAD DUP1 DUP3 ADD SWAP1 SWAP2 MSTORE PUSH1 0x8 DUP2 MSTORE PUSH8 0x29B2B6B4A7B832B7 PUSH1 0xC1 SHL PUSH1 0x20 DUP3 ADD MSTORE SWAP1 JUMP JUMPDEST POP PUSH1 0x40 DUP1 MLOAD DUP1 DUP3 ADD SWAP1 SWAP2 MSTORE PUSH1 0x9 DUP2 MSTORE PUSH9 0x233AB6363CA7B832B7 PUSH1 0xB9 SHL PUSH1 0x20 DUP3 ADD MSTORE SWAP1 JUMP JUMPDEST PUSH2 0x4CF PUSH2 0xAE7 JUMP JUMPDEST PUSH2 0x4D9 PUSH1 0x0 PUSH2 0xB14 JUMP JUMPDEST JUMP JUMPDEST PUSH2 0x4E3 PUSH2 0xAE7 JUMP JUMPDEST PUSH1 0xD DUP1 SLOAD PUSH1 0x1 PUSH1 0x1 PUSH1 0xA0 SHL SUB DUP8 DUP2 AND PUSH1 0x1 PUSH1 0x1 PUSH1 0xA0 SHL SUB NOT SWAP3 DUP4 AND DUP2 OR SWAP1 SWAP4 SSTORE PUSH1 0xE DUP1 SLOAD DUP9 DUP4 AND SWAP1 DUP5 AND DUP2 OR SWAP1 SWAP2 SSTORE PUSH1 0xF DUP1 SLOAD DUP9 DUP5 AND SWAP1 DUP6 AND DUP2 OR SWAP1 SWAP2 SSTORE PUSH1 0x10 DUP1 SLOAD DUP9 DUP6 AND SWAP1 DUP7 AND DUP2 OR SWAP1 SWAP2 SSTORE PUSH1 0x11 DUP1 SLOAD SWAP5 DUP9 AND SWAP5 SWAP1 SWAP6 AND DUP5 OR SWAP1 SWAP5 SSTORE PUSH1 0x40 DUP1 MLOAD SWAP6 DUP7 MSTORE PUSH1 0x20 DUP7 ADD SWAP3 SWAP1 SWAP3 MSTORE SWAP1 DUP5 ADD MSTORE PUSH1 0x60 DUP4 ADD SWAP2 SWAP1 SWAP2 MSTORE PUSH1 0x80 DUP3 ADD MSTORE PUSH32 0xC4476E84B1A1A04EC0437465880DAB744674E790EBE50042D0FF63311409120A SWAP1 PUSH1 0xA0 ADD PUSH1 0x40 MLOAD DUP1 SWAP2 SUB SWAP1 LOG1 POP POP POP POP POP JUMP JUMPDEST PUSH2 0x59C PUSH2 0xAE7 JUMP JUMPDEST DUP1 MLOAD PUSH1 0x2 SSTORE PUSH1 0x20 DUP2 ADD MLOAD PUSH1 0x3 SSTORE PUSH1 0x40 DUP1 DUP3 ADD MLOAD PUSH1 0x4 SSTORE PUSH1 0x60 DUP3 ADD MLOAD PUSH1 0x5 SSTORE PUSH1 0x80 DUP3 ADD MLOAD PUSH1 0x6 SSTORE PUSH1 0xA0 DUP3 ADD MLOAD PUSH1 0x7 SSTORE PUSH1 0xC0 DUP3 ADD MLOAD PUSH1 0x8 SSTORE PUSH1 0xE0 DUP3 ADD MLOAD PUSH1 0x9 SSTORE PUSH2 0x100 DUP3 ADD MLOAD PUSH1 0xA SSTORE PUSH2 0x120 DUP3 ADD MLOAD PUSH1 0xB SSTORE PUSH2 0x140 DUP3 ADD MLOAD PUSH1 0xC SSTORE MLOAD PUSH32 0xFA05E9B711B2DED14C859C310C6A4F36B576BF490FE17D4888DFD02366E351FD SWAP1 PUSH2 0x69B SWAP1 DUP4 SWAP1 PUSH1 0x0 PUSH2 0x160 DUP3 ADD SWAP1 POP DUP3 MLOAD DUP3 MSTORE PUSH1 0x20 DUP4 ADD MLOAD PUSH1 0x20 DUP4 ADD MSTORE PUSH1 0x40 DUP4 ADD MLOAD PUSH1 0x40 DUP4 ADD MSTORE PUSH1 0x60 DUP4 ADD MLOAD PUSH1 0x60 DUP4 ADD MSTORE PUSH1 0x80 DUP4 ADD MLOAD PUSH1 0x80 DUP4 ADD MSTORE PUSH1 0xA0 DUP4 ADD MLOAD PUSH1 0xA0 DUP4 ADD MSTORE PUSH1 0xC0 DUP4 ADD MLOAD PUSH1 0xC0 DUP4 ADD MSTORE PUSH1 0xE0 DUP4 ADD MLOAD PUSH1 0xE0 DUP4 ADD MSTORE PUSH2 0x100 DUP1 DUP5 ADD MLOAD DUP2 DUP5 ADD MSTORE POP PUSH2 0x120 DUP1 DUP5 ADD MLOAD DUP2 DUP5 ADD MSTORE POP PUSH2 0x140 DUP1 DUP5 ADD MLOAD DUP2 DUP5 ADD MSTORE POP SWAP3 SWAP2 POP POP JUMP JUMPDEST PUSH1 0x40 MLOAD DUP1 SWAP2 SUB SWAP1 LOG1 POP JUMP JUMPDEST PUSH2 0x6AE PUSH2 0xAE7 JUMP JUMPDEST PUSH1 0x1 PUSH1 0x0 SLOAD PUSH1 0x1 PUSH1 0xA0 SHL SWAP1 DIV PUSH1 0xFF AND PUSH1 0x2 DUP2 GT ISZERO PUSH2 0x6CE JUMPI PUSH2 0x6CE PUSH2 0xB64 JUMP JUMPDEST EQ PUSH2 0x718 JUMPI PUSH1 0x40 MLOAD PUSH3 0x461BCD PUSH1 0xE5 SHL DUP2 MSTORE PUSH1 0x20 PUSH1 0x4 DUP3 ADD MSTORE PUSH1 0x15 PUSH1 0x24 DUP3 ADD MSTORE PUSH21 0x4E6F7420696E2053656D694F70656E207068617365 PUSH1 0x58 SHL PUSH1 0x44 DUP3 ADD MSTORE PUSH1 0x64 ADD JUMPDEST PUSH1 0x40 MLOAD DUP1 SWAP2 SUB SWAP1 REVERT JUMPDEST PUSH2 0x720 PUSH2 0x7B7 JUMP JUMPDEST PUSH2 0x761 JUMPI PUSH1 0x40 MLOAD PUSH3 0x461BCD PUSH1 0xE5 SHL DUP2 MSTORE PUSH1 0x20 PUSH1 0x4 DUP3 ADD MSTORE PUSH1 0x12 PUSH1 0x24 DUP3 ADD MSTORE PUSH18 0x10DBDB991A5D1A5BDB9CC81B9BDD081B595D PUSH1 0x72 SHL PUSH1 0x44 DUP3 ADD MSTORE PUSH1 0x64 ADD PUSH2 0x70F JUMP JUMPDEST PUSH1 0x0 DUP1 SLOAD PUSH1 0xFF PUSH1 0xA0 SHL NOT DUP2 AND PUSH1 0x1 PUSH1 0xA1 SHL OR SWAP1 SWAP2 SSTORE PUSH1 0x40 MLOAD PUSH1 0x1 PUSH1 0xA0 SHL SWAP1 SWAP2 DIV PUSH1 0xFF AND SWAP1 PUSH32 0xEFA1FEA20CC2D4AF8027FCCFA5980C7E135BC6EF13B99C6FEA04C7FF3D7A39D0 SWAP1 PUSH2 0x69B SWAP1 DUP4 SWAP1 PUSH1 0x2 SWAP1 TIMESTAMP SWAP1 PUSH2 0xDCE JUMP JUMPDEST PUSH1 0x0 PUSH1 0x1 PUSH1 0x0 SLOAD PUSH1 0x1 PUSH1 0xA0 SHL SWAP1 DIV PUSH1 0xFF AND PUSH1 0x2 DUP2 GT ISZERO PUSH2 0x7D9 JUMPI PUSH2 0x7D9 PUSH2 0xB64 JUMP JUMPDEST EQ PUSH2 0x7E4 JUMPI POP PUSH1 0x0 SWAP1 JUMP JUMPDEST PUSH1 0xC SLOAD PUSH1 0x1 SLOAD PUSH2 0x7F4 SWAP2 SWAP1 PUSH2 0xE0D JUMP JUMPDEST TIMESTAMP LT ISZERO PUSH2 0x801 JUMPI POP PUSH1 0x0 SWAP1 JUMP JUMPDEST POP PUSH1 0x1 SWAP1 JUMP JUMPDEST PUSH1 0x0 DUP1 PUSH1 0x0 SLOAD PUSH1 0x1 PUSH1 0xA0 SHL SWAP1 DIV PUSH1 0xFF AND PUSH1 0x2 DUP2 GT ISZERO PUSH2 0x828 JUMPI PUSH2 0x828 PUSH2 0xB64 JUMP JUMPDEST EQ ISZERO SWAP1 POP SWAP1 JUMP JUMPDEST PUSH1 0x0 PUSH1 0x60 PUSH1 0x0 DUP1 PUSH1 0x0 DUP1 PUSH1 0x0 PUSH1 0x14 SWAP1 SLOAD SWAP1 PUSH2 0x100 EXP SWAP1 DIV PUSH1 0xFF AND SWAP6 POP ADDRESS PUSH1 0x1 PUSH1 0x1 PUSH1 0xA0 SHL SUB AND PUSH4 0x215D4B11 PUSH1 0x40 MLOAD DUP2 PUSH4 0xFFFFFFFF AND PUSH1 0xE0 SHL DUP2 MSTORE PUSH1 0x4 ADD PUSH1 0x0 PUSH1 0x40 MLOAD DUP1 DUP4 SUB DUP2 DUP7 GAS STATICCALL ISZERO DUP1 ISZERO PUSH2 0x889 JUMPI RETURNDATASIZE PUSH1 0x0 DUP1 RETURNDATACOPY RETURNDATASIZE PUSH1 0x0 REVERT JUMPDEST POP POP POP POP PUSH1 0x40 MLOAD RETURNDATASIZE PUSH1 0x0 DUP3 RETURNDATACOPY PUSH1 0x1F RETURNDATASIZE SWAP1 DUP2 ADD PUSH1 0x1F NOT AND DUP3 ADD PUSH1 0x40 MSTORE PUSH2 0x8B1 SWAP2 SWAP1 DUP2 ADD SWAP1 PUSH2 0xE20 JUMP JUMPDEST SWAP5 POP ADDRESS PUSH1 0x1 PUSH1 0x1 PUSH1 0xA0 SHL SUB AND PUSH4 0x8CF83A3 PUSH1 0x40 MLOAD DUP2 PUSH4 0xFFFFFFFF AND PUSH1 0xE0 SHL DUP2 MSTORE PUSH1 0x4 ADD PUSH1 0x20 PUSH1 0x40 MLOAD DUP1 DUP4 SUB DUP2 DUP7 GAS STATICCALL ISZERO DUP1 ISZERO PUSH2 0x8F1 JUMPI RETURNDATASIZE PUSH1 0x0 DUP1 RETURNDATACOPY RETURNDATASIZE PUSH1 0x0 REVERT JUMPDEST POP POP POP POP PUSH1 0x40 MLOAD RETURNDATASIZE PUSH1 0x1F NOT PUSH1 0x1F DUP3 ADD AND DUP3 ADD DUP1 PUSH1 0x40 MSTORE POP DUP2 ADD SWAP1 PUSH2 0x915 SWAP2 SWAP1 PUSH2 0xECD JUMP JUMPDEST SWAP4 POP PUSH2 0x258 SWAP3 POP PUSH1 0x0 DUP1 SLOAD PUSH1 0x1 PUSH1 0xA0 SHL SWAP1 DIV PUSH1 0xFF AND PUSH1 0x2 DUP2 GT ISZERO PUSH2 0x93B JUMPI PUSH2 0x93B PUSH2 0xB64 JUMP JUMPDEST EQ ISZERO SWAP2 POP PUSH3 0x15180 PUSH1 0x1 SLOAD TIMESTAMP PUSH2 0x951 SWAP2 SWAP1 PUSH2 0xEE6 JUMP JUMPDEST PUSH2 0x95B SWAP2 SWAP1 PUSH2 0xEF9 JUMP JUMPDEST SWAP1 POP SWAP1 SWAP2 SWAP3 SWAP4 SWAP5 SWAP6 JUMP JUMPDEST PUSH1 0x0 DUP1 PUSH1 0x0 SLOAD PUSH1 0x1 PUSH1 0xA0 SHL SWAP1 DIV PUSH1 0xFF AND PUSH1 0x2 DUP2 GT ISZERO PUSH2 0x986 JUMPI PUSH2 0x986 PUSH2 0xB64 JUMP JUMPDEST EQ PUSH2 0x991 JUMPI POP PUSH1 0x0 SWAP1 JUMP JUMPDEST PUSH1 0x6 SLOAD PUSH1 0x1 SLOAD PUSH2 0x7F4 SWAP2 SWAP1 PUSH2 0xE0D JUMP JUMPDEST PUSH2 0x9A9 PUSH2 0xAE7 JUMP JUMPDEST PUSH1 0x0 DUP1 SLOAD PUSH1 0x1 PUSH1 0xA0 SHL SWAP1 DIV PUSH1 0xFF AND PUSH1 0x2 DUP2 GT ISZERO PUSH2 0x9C8 JUMPI PUSH2 0x9C8 PUSH2 0xB64 JUMP JUMPDEST EQ PUSH2 0xA0E JUMPI PUSH1 0x40 MLOAD PUSH3 0x461BCD PUSH1 0xE5 SHL DUP2 MSTORE PUSH1 0x20 PUSH1 0x4 DUP3 ADD MSTORE PUSH1 0x16 PUSH1 0x24 DUP3 ADD MSTORE PUSH22 0x4E6F7420696E20436F6C645374617274207068617365 PUSH1 0x50 SHL PUSH1 0x44 DUP3 ADD MSTORE PUSH1 0x64 ADD PUSH2 0x70F JUMP JUMPDEST PUSH2 0xA16 PUSH2 0x965 JUMP JUMPDEST PUSH2 0xA57 JUMPI PUSH1 0x40 MLOAD PUSH3 0x461BCD PUSH1 0xE5 SHL DUP2 MSTORE PUSH1 0x20 PUSH1 0x4 DUP3 ADD MSTORE PUSH1 0x12 PUSH1 0x24 DUP3 ADD MSTORE PUSH18 0x10DBDB991A5D1A5BDB9CC81B9BDD081B595D PUSH1 0x72 SHL PUSH1 0x44 DUP3 ADD MSTORE PUSH1 0x64 ADD PUSH2 0x70F JUMP JUMPDEST PUSH1 0x0 DUP1 SLOAD PUSH1 0x1 PUSH1 0xA0 SHL PUSH1 0xFF PUSH1 0xA0 SHL NOT DUP3 AND DUP2 OR SWAP1 SWAP3 SSTORE PUSH1 0x40 MLOAD SWAP2 SWAP1 DIV PUSH1 0xFF AND SWAP1 PUSH32 0xEFA1FEA20CC2D4AF8027FCCFA5980C7E135BC6EF13B99C6FEA04C7FF3D7A39D0 SWAP1 PUSH2 0x69B SWAP1 DUP4 SWAP1 PUSH1 0x1 SWAP1 TIMESTAMP SWAP1 PUSH2 0xDCE JUMP JUMPDEST PUSH2 0xAB1 PUSH2 0xAE7 JUMP JUMPDEST PUSH1 0x1 PUSH1 0x1 PUSH1 0xA0 SHL SUB DUP2 AND PUSH2 0xADB JUMPI PUSH1 0x40 MLOAD PUSH4 0x1E4FBDF7 PUSH1 0xE0 SHL DUP2 MSTORE PUSH1 0x0 PUSH1 0x4 DUP3 ADD MSTORE PUSH1 0x24 ADD PUSH2 0x70F JUMP JUMPDEST PUSH2 0xAE4 DUP2 PUSH2 0xB14 JUMP JUMPDEST POP JUMP JUMPDEST PUSH1 0x0 SLOAD PUSH1 0x1 PUSH1 0x1 PUSH1 0xA0 SHL SUB AND CALLER EQ PUSH2 0x4D9 JUMPI PUSH1 0x40 MLOAD PUSH4 0x118CDAA7 PUSH1 0xE0 SHL DUP2 MSTORE CALLER PUSH1 0x4 DUP3 ADD MSTORE PUSH1 0x24 ADD PUSH2 0x70F JUMP JUMPDEST PUSH1 0x0 DUP1 SLOAD PUSH1 0x1 PUSH1 0x1 PUSH1 0xA0 SHL SUB DUP4 DUP2 AND PUSH1 0x1 PUSH1 0x1 PUSH1 0xA0 SHL SUB NOT DUP4 AND DUP2 OR DUP5 SSTORE PUSH1 0x40 MLOAD SWAP2 SWAP1 SWAP3 AND SWAP3 DUP4 SWAP2 PUSH32 0x8BE0079C531659141344CD1FD0A4F28419497F9722A3DAAFE3B4186F6B6457E0 SWAP2 SWAP1 LOG3 POP POP JUMP JUMPDEST PUSH4 0x4E487B71 PUSH1 0xE0 SHL PUSH1 0x0 MSTORE PUSH1 0x21 PUSH1 0x4 MSTORE PUSH1 0x24 PUSH1 0x0 REVERT JUMPDEST PUSH1 0x3 DUP2 LT PUSH2 0xB98 JUMPI PUSH4 0x4E487B71 PUSH1 0xE0 SHL PUSH1 0x0 MSTORE PUSH1 0x21 PUSH1 0x4 MSTORE PUSH1 0x24 PUSH1 0x0 REVERT JUMPDEST SWAP1 MSTORE JUMP JUMPDEST PUSH1 0x20 DUP2 ADD PUSH2 0xBAA DUP3 DUP5 PUSH2 0xB7A JUMP JUMPDEST SWAP3 SWAP2 POP POP JUMP JUMPDEST PUSH1 0x0 JUMPDEST DUP4 DUP2 LT ISZERO PUSH2 0xBCB JUMPI DUP2 DUP2 ADD MLOAD DUP4 DUP3 ADD MSTORE PUSH1 0x20 ADD PUSH2 0xBB3 JUMP JUMPDEST POP POP PUSH1 0x0 SWAP2 ADD MSTORE JUMP JUMPDEST PUSH1 0x0 DUP2 MLOAD DUP1 DUP5 MSTORE PUSH2 0xBEC DUP2 PUSH1 0x20 DUP7 ADD PUSH1 0x20 DUP7 ADD PUSH2 0xBB0 JUMP JUMPDEST PUSH1 0x1F ADD PUSH1 0x1F NOT AND SWAP3 SWAP1 SWAP3 ADD PUSH1 0x20 ADD SWAP3 SWAP2 POP POP JUMP JUMPDEST PUSH1 0x20 DUP2 MSTORE PUSH1 0x0 PUSH2 0xC13 PUSH1 0x20 DUP4 ADD DUP5 PUSH2 0xBD4 JUMP JUMPDEST SWAP4 SWAP3 POP POP POP JUMP JUMPDEST DUP1 CALLDATALOAD PUSH1 0x1 PUSH1 0x1 PUSH1 0xA0 SHL SUB DUP2 AND DUP2 EQ PUSH2 0xC31 JUMPI PUSH1 0x0 DUP1 REVERT JUMPDEST SWAP2 SWAP1 POP JUMP JUMPDEST PUSH1 0x0 DUP1 PUSH1 0x0 DUP1 PUSH1 0x0 PUSH1 0xA0 DUP7 DUP9 SUB SLT ISZERO PUSH2 0xC4E JUMPI PUSH1 0x0 DUP1 REVERT JUMPDEST PUSH2 0xC57 DUP7 PUSH2 0xC1A JUMP JUMPDEST SWAP5 POP PUSH2 0xC65 PUSH1 0x20 DUP8 ADD PUSH2 0xC1A JUMP JUMPDEST SWAP4 POP PUSH2 0xC73 PUSH1 0x40 DUP8 ADD PUSH2 0xC1A JUMP JUMPDEST SWAP3 POP PUSH2 0xC81 PUSH1 0x60 DUP8 ADD PUSH2 0xC1A JUMP JUMPDEST SWAP2 POP PUSH2 0xC8F PUSH1 0x80 DUP8 ADD PUSH2 0xC1A JUMP JUMPDEST SWAP1 POP SWAP3 SWAP6 POP SWAP3 SWAP6 SWAP1 SWAP4 POP JUMP JUMPDEST PUSH4 0x4E487B71 PUSH1 0xE0 SHL PUSH1 0x0 MSTORE PUSH1 0x41 PUSH1 0x4 MSTORE PUSH1 0x24 PUSH1 0x0 REVERT JUMPDEST PUSH1 0x40 MLOAD PUSH2 0x160 DUP2 ADD PUSH8 0xFFFFFFFFFFFFFFFF DUP2 GT DUP3 DUP3 LT OR ISZERO PUSH2 0xCD5 JUMPI PUSH2 0xCD5 PUSH2 0xC9B JUMP JUMPDEST PUSH1 0x40 MSTORE SWAP1 JUMP JUMPDEST PUSH1 0x0 PUSH2 0x160 DUP3 DUP5 SUB SLT ISZERO PUSH2 0xCEE JUMPI PUSH1 0x0 DUP1 REVERT JUMPDEST PUSH2 0xCF6 PUSH2 0xCB1 JUMP JUMPDEST DUP3 CALLDATALOAD DUP2 MSTORE PUSH1 0x20 DUP4 ADD CALLDATALOAD PUSH1 0x20 DUP3 ADD MSTORE PUSH1 0x40 DUP4 ADD CALLDATALOAD PUSH1 0x40 DUP3 ADD MSTORE PUSH1 0x60 DUP4 ADD CALLDATALOAD PUSH1 0x60 DUP3 ADD MSTORE PUSH1 0x80 DUP4 ADD CALLDATALOAD PUSH1 0x80 DUP3 ADD MSTORE PUSH1 0xA0 DUP4 ADD CALLDATALOAD PUSH1 0xA0 DUP3 ADD MSTORE PUSH1 0xC0 DUP4 ADD CALLDATALOAD PUSH1 0xC0 DUP3 ADD MSTORE PUSH1 0xE0 DUP4 ADD CALLDATALOAD PUSH1 0xE0 DUP3 ADD MSTORE PUSH2 0x100 DUP1 DUP5 ADD CALLDATALOAD DUP2 DUP4 ADD MSTORE POP PUSH2 0x120 DUP1 DUP5 ADD CALLDATALOAD DUP2 DUP4 ADD MSTORE POP PUSH2 0x140 DUP1 DUP5 ADD CALLDATALOAD DUP2 DUP4 ADD MSTORE POP DUP1 SWAP2 POP POP SWAP3 SWAP2 POP POP JUMP JUMPDEST PUSH2 0xD78 DUP2 DUP9 PUSH2 0xB7A JUMP JUMPDEST PUSH1 0xC0 PUSH1 0x20 DUP3 ADD MSTORE PUSH1 0x0 PUSH2 0xD8E PUSH1 0xC0 DUP4 ADD DUP9 PUSH2 0xBD4 JUMP JUMPDEST PUSH1 0x40 DUP4 ADD SWAP7 SWAP1 SWAP7 MSTORE POP PUSH1 0x60 DUP2 ADD SWAP4 SWAP1 SWAP4 MSTORE SWAP1 ISZERO ISZERO PUSH1 0x80 DUP4 ADD MSTORE PUSH1 0xA0 SWAP1 SWAP2 ADD MSTORE SWAP3 SWAP2 POP POP JUMP JUMPDEST PUSH1 0x0 PUSH1 0x20 DUP3 DUP5 SUB SLT ISZERO PUSH2 0xDC5 JUMPI PUSH1 0x0 DUP1 REVERT JUMPDEST PUSH2 0xC13 DUP3 PUSH2 0xC1A JUMP JUMPDEST PUSH1 0x60 DUP2 ADD PUSH2 0xDDC DUP3 DUP7 PUSH2 0xB7A JUMP JUMPDEST PUSH2 0xDE9 PUSH1 0x20 DUP4 ADD DUP6 PUSH2 0xB7A JUMP JUMPDEST DUP3 PUSH1 0x40 DUP4 ADD MSTORE SWAP5 SWAP4 POP POP POP POP JUMP JUMPDEST PUSH4 0x4E487B71 PUSH1 0xE0 SHL PUSH1 0x0 MSTORE PUSH1 0x11 PUSH1 0x4 MSTORE PUSH1 0x24 PUSH1 0x0 REVERT JUMPDEST DUP1 DUP3 ADD DUP1 DUP3 GT ISZERO PUSH2 0xBAA JUMPI PUSH2 0xBAA PUSH2 0xDF7 JUMP JUMPDEST PUSH1 0x0 PUSH1 0x20 DUP3 DUP5 SUB SLT ISZERO PUSH2 0xE32 JUMPI PUSH1 0x0 DUP1 REVERT JUMPDEST DUP2 MLOAD PUSH8 0xFFFFFFFFFFFFFFFF DUP1 DUP3 GT ISZERO PUSH2 0xE4A JUMPI PUSH1 0x0 DUP1 REVERT JUMPDEST DUP2 DUP5 ADD SWAP2 POP DUP5 PUSH1 0x1F DUP4 ADD SLT PUSH2 0xE5E JUMPI PUSH1 0x0 DUP1 REVERT JUMPDEST DUP2 MLOAD DUP2 DUP2 GT ISZERO PUSH2 0xE70 JUMPI PUSH2 0xE70 PUSH2 0xC9B JUMP JUMPDEST PUSH1 0x40 MLOAD PUSH1 0x1F DUP3 ADD PUSH1 0x1F NOT SWAP1 DUP2 AND PUSH1 0x3F ADD AND DUP2 ADD SWAP1 DUP4 DUP3 GT DUP2 DUP4 LT OR ISZERO PUSH2 0xE98 JUMPI PUSH2 0xE98 PUSH2 0xC9B JUMP JUMPDEST DUP2 PUSH1 0x40 MSTORE DUP3 DUP2 MSTORE DUP8 PUSH1 0x20 DUP5 DUP8 ADD ADD GT ISZERO PUSH2 0xEB1 JUMPI PUSH1 0x0 DUP1 REVERT JUMPDEST PUSH2 0xEC2 DUP4 PUSH1 0x20 DUP4 ADD PUSH1 0x20 DUP9 ADD PUSH2 0xBB0 JUMP JUMPDEST SWAP8 SWAP7 POP POP POP POP POP POP POP JUMP JUMPDEST PUSH1 0x0 PUSH1 0x20 DUP3 DUP5 SUB SLT ISZERO PUSH2 0xEDF JUMPI PUSH1 0x0 DUP1 REVERT JUMPDEST POP MLOAD SWAP2 SWAP1 POP JUMP JUMPDEST DUP2 DUP2 SUB DUP2 DUP2 GT ISZERO PUSH2 0xBAA JUMPI PUSH2 0xBAA PUSH2 0xDF7 JUMP JUMPDEST PUSH1 0x0 DUP3 PUSH2 0xF16 JUMPI PUSH4 0x4E487B71 PUSH1 0xE0 SHL PUSH1 0x0 MSTORE PUSH1 0x12 PUSH1 0x4 MSTORE PUSH1 0x24 PUSH1 0x0 REVERT JUMPDEST POP DIV SWAP1 JUMP INVALID LOG2 PUSH5 0x6970667358 0x22 SLT KECCAK256 EXTCODEHASH PUSH23 0xE536B1EDE09ACCCA3053831107CCAAD714C1E5432C39BD PUSH21 0x41707A615F2064736F6C6343000818003300000000 "},"methodIdentifiers":{"BUY_TAX()":"02af37bb","COLD_START_SELL_TAX()":"5bca0bc2","FULLY_OPEN_SELL_TAX()":"eb949235","SEMI_OPEN_SELL_TAX()":"d43e16c7","canTransitionToFullyOpen()":"9d800e57","canTransitionToSemiOpen()":"becfe564","currentPhase()":"055ad42e","getCurrentBuyTaxRate()":"cb99e4a6","getCurrentSellTaxRate()":"08cf83a3","getPhaseInfo()":"a6f8e722","getPhaseName()":"215d4b11","insurancePool()":"ab2adc00","isTradingAllowed()":"a48179ff","launchTime()":"790ca413","marketMaker()":"1f21f9af","nodePartner()":"9682f87a","owner()":"8da5cb5b","predictionMarket()":"def114b6","renounceOwnership()":"715018a6","tftToken()":"65dc24b8","thresholds()":"cda43b3a","transferOwnership(address)":"f2fde38b","transitionToFullyOpen()":"93a65088","transitionToSemiOpen()":"ea9134ec","updateContractAddresses(address,address,address,address,address)":"71764105","updateThresholds((uint256,uint256,uint256,uint256,uint256,uint256,uint256,uint256,uint256,uint256,uint256))":"8a806aab"}}}}}