{"src/MarketMaker.sol":{"MarketMaker":{"abi":[{"inputs":[{"internalType":"address","name":"_usdt","type":"address"},{"internalType":"address","name":"_tft","type":"address"}],"stateMutability":"nonpayable","type":"constructor"},{"inputs":[{"internalType":"address","name":"owner","type":"address"}],"name":"OwnableInvalidOwner","type":"error"},{"inputs":[{"internalType":"address","name":"account","type":"address"}],"name":"OwnableUnauthorizedAccount","type":"error"},{"inputs":[],"name":"ReentrancyGuardReentrantCall","type":"error"},{"inputs":[{"internalType":"address","name":"token","type":"address"}],"name":"SafeERC20FailedOperation","type":"error"},{"anonymous":false,"inputs":[{"indexed":false,"internalType":"uint256","name":"amount","type":"uint256"}],"name":"FeeRevenueDistributed","type":"event"},{"anonymous":false,"inputs":[{"indexed":true,"internalType":"address","name":"user","type":"address"},{"indexed":false,"internalType":"uint256","name":"qualificationType","type":"uint256"},{"indexed":false,"internalType":"uint256","name":"timestamp","type":"uint256"}],"name":"MarketMakerQualified","type":"event"},{"anonymous":false,"inputs":[{"indexed":true,"internalType":"address","name":"user","type":"address"}],"name":"MarketMakerRevoked","type":"event"},{"anonymous":false,"inputs":[{"indexed":true,"internalType":"address","name":"previousOwner","type":"address"},{"indexed":true,"internalType":"address","name":"newOwner","type":"address"}],"name":"OwnershipTransferred","type":"event"},{"anonymous":false,"inputs":[{"indexed":true,"internalType":"address","name":"user","type":"address"},{"indexed":false,"internalType":"uint256","name":"directReferrals","type":"uint256"},{"indexed":false,"internalType":"uint256","name":"teamVolume","type":"uint256"}],"name":"ReferralUpdated","type":"event"},{"anonymous":false,"inputs":[{"indexed":true,"internalType":"address","name":"user","type":"address"},{"indexed":false,"internalType":"uint256","name":"volumeAmount","type":"uint256"},{"indexed":false,"internalType":"uint256","name":"feeAmount","type":"uint256"},{"indexed":false,"internalType":"uint256","name":"vipAmount","type":"uint256"}],"name":"RevenueClaimed","type":"event"},{"anonymous":false,"inputs":[{"indexed":true,"internalType":"address","name":"user","type":"address"},{"indexed":false,"internalType":"uint256","name":"vipIncome","type":"uint256"}],"name":"VIPIncomeUpdated","type":"event"},{"anonymous":false,"inputs":[{"indexed":false,"internalType":"uint256","name":"amount","type":"uint256"}],"name":"VIPRevenueDistributed","type":"event"},{"anonymous":false,"inputs":[{"indexed":false,"internalType":"uint256","name":"amount","type":"uint256"}],"name":"VolumeRevenueDistributed","type":"event"},{"inputs":[],"name":"FEE_SHARE_RATE","outputs":[{"internalType":"uint256","name":"","type":"uint256"}],"stateMutability":"view","type":"function"},{"inputs":[],"name":"MIN_DIRECT_REFERRALS","outputs":[{"internalType":"uint256","name":"","type":"uint256"}],"stateMutability":"view","type":"function"},{"inputs":[],"name":"MIN_TEAM_VOLUME","outputs":[{"internalType":"uint256","name":"","type":"uint256"}],"stateMutability":"view","type":"function"},{"inputs":[],"name":"MIN_VIP_INCOME","outputs":[{"internalType":"uint256","name":"","type":"uint256"}],"stateMutability":"view","type":"function"},{"inputs":[],"name":"VOLUME_SHARE_RATE","outputs":[{"internalType":"uint256","name":"","type":"uint256"}],"stateMutability":"view","type":"function"},{"inputs":[],"name":"claimRevenue","outputs":[],"stateMutability":"nonpayable","type":"function"},{"inputs":[{"internalType":"address","name":"","type":"address"}],"name":"claimedFeeRevenue","outputs":[{"internalType":"uint256","name":"","type":"uint256"}],"stateMutability":"view","type":"function"},{"inputs":[{"internalType":"address","name":"","type":"address"}],"name":"claimedVIPRevenue","outputs":[{"internalType":"uint256","name":"","type":"uint256"}],"stateMutability":"view","type":"function"},{"inputs":[{"internalType":"address","name":"","type":"address"}],"name":"claimedVolumeRevenue","outputs":[{"internalType":"uint256","name":"","type":"uint256"}],"stateMutability":"view","type":"function"},{"inputs":[{"internalType":"uint256","name":"_amount","type":"uint256"}],"name":"distributeFeeRevenue","outputs":[],"stateMutability":"nonpayable","type":"function"},{"inputs":[{"internalType":"uint256","name":"_amount","type":"uint256"}],"name":"distributeVIPRevenue","outputs":[],"stateMutability":"nonpayable","type":"function"},{"inputs":[{"internalType":"uint256","name":"_amount","type":"uint256"}],"name":"distributeVolumeRevenue","outputs":[],"stateMutability":"nonpayable","type":"function"},{"inputs":[],"name":"feeAccumulator","outputs":[{"internalType":"uint256","name":"","type":"uint256"}],"stateMutability":"view","type":"function"},{"inputs":[{"internalType":"address","name":"_user","type":"address"}],"name":"getMarketMakerInfo","outputs":[{"internalType":"bool","name":"isMarketMaker","type":"bool"},{"internalType":"uint256","name":"qualifiedAt","type":"uint256"},{"internalType":"uint256","name":"qualificationType","type":"uint256"},{"internalType":"uint256","name":"directReferrals","type":"uint256"},{"internalType":"uint256","name":"teamVolume","type":"uint256"},{"internalType":"uint256","name":"vipIncome","type":"uint256"}],"stateMutability":"view","type":"function"},{"inputs":[{"internalType":"address","name":"_user","type":"address"}],"name":"getPendingRevenue","outputs":[{"internalType":"uint256","name":"volumePending","type":"uint256"},{"internalType":"uint256","name":"feePending","type":"uint256"},{"internalType":"uint256","name":"vipPending","type":"uint256"},{"internalType":"uint256","name":"totalPending","type":"uint256"}],"stateMutability":"view","type":"function"},{"inputs":[{"internalType":"address","name":"_user","type":"address"}],"name":"getQualificationProgress","outputs":[{"internalType":"bool","name":"method1Qualified","type":"bool"},{"internalType":"bool","name":"method2Qualified","type":"bool"},{"internalType":"uint256","name":"directReferralsProgress","type":"uint256"},{"internalType":"uint256","name":"teamVolumeProgress","type":"uint256"},{"internalType":"uint256","name":"vipIncomeProgress","type":"uint256"}],"stateMutability":"view","type":"function"},{"inputs":[],"name":"getTotalMarketMakers","outputs":[{"internalType":"uint256","name":"","type":"uint256"}],"stateMutability":"view","type":"function"},{"inputs":[{"internalType":"uint256","name":"","type":"uint256"}],"name":"marketMakerList","outputs":[{"internalType":"address","name":"","type":"address"}],"stateMutability":"view","type":"function"},{"inputs":[{"internalType":"address","name":"","type":"address"}],"name":"marketMakers","outputs":[{"internalType":"address","name":"user","type":"address"},{"internalType":"uint256","name":"qualifiedAt","type":"uint256"},{"internalType":"uint256","name":"directReferrals","type":"uint256"},{"internalType":"uint256","name":"teamVolume","type":"uint256"},{"internalType":"uint256","name":"vipIncome","type":"uint256"},{"internalType":"uint256","name":"qualificationType","type":"uint256"},{"internalType":"bool","name":"active","type":"bool"}],"stateMutability":"view","type":"function"},{"inputs":[],"name":"owner","outputs":[{"internalType":"address","name":"","type":"address"}],"stateMutability":"view","type":"function"},{"inputs":[],"name":"predictionMarket","outputs":[{"internalType":"address","name":"","type":"address"}],"stateMutability":"view","type":"function"},{"inputs":[{"internalType":"address","name":"token","type":"address"},{"internalType":"uint256","name":"amount","type":"uint256"}],"name":"recoverTokens","outputs":[],"stateMutability":"nonpayable","type":"function"},{"inputs":[],"name":"renounceOwnership","outputs":[],"stateMutability":"nonpayable","type":"function"},{"inputs":[{"internalType":"address","name":"_market","type":"address"}],"name":"setPredictionMarket","outputs":[],"stateMutability":"nonpayable","type":"function"},{"inputs":[],"name":"tft","outputs":[{"internalType":"contract IERC20","name":"","type":"address"}],"stateMutability":"view","type":"function"},{"inputs":[],"name":"totalFeeRevenue","outputs":[{"internalType":"uint256","name":"","type":"uint256"}],"stateMutability":"view","type":"function"},{"inputs":[],"name":"totalMarketMakers","outputs":[{"internalType":"uint256","name":"","type":"uint256"}],"stateMutability":"view","type":"function"},{"inputs":[],"name":"totalVIPRevenue","outputs":[{"internalType":"uint256","name":"","type":"uint256"}],"stateMutability":"view","type":"function"},{"inputs":[],"name":"totalVolumeRevenue","outputs":[{"internalType":"uint256","name":"","type":"uint256"}],"stateMutability":"view","type":"function"},{"inputs":[{"internalType":"address","name":"newOwner","type":"address"}],"name":"transferOwnership","outputs":[],"stateMutability":"nonpayable","type":"function"},{"inputs":[{"internalType":"address","name":"_user","type":"address"},{"internalType":"uint256","name":"_directReferrals","type":"uint256"},{"internalType":"uint256","name":"_teamVolume","type":"uint256"}],"name":"updateReferralMetrics","outputs":[],"stateMutability":"nonpayable","type":"function"},{"inputs":[{"internalType":"address","name":"_user","type":"address"},{"internalType":"uint256","name":"_vipIncome","type":"uint256"}],"name":"updateVIPIncome","outputs":[],"stateMutability":"nonpayable","type":"function"},{"inputs":[],"name":"usdt","outputs":[{"internalType":"contract IERC20","name":"","type":"address"}],"stateMutability":"view","type":"function"},{"inputs":[{"internalType":"address","name":"","type":"address"}],"name":"userFeeDebt","outputs":[{"internalType":"uint256","name":"","type":"uint256"}],"stateMutability":"view","type":"function"},{"inputs":[{"internalType":"address","name":"","type":"address"}],"name":"userVIPDebt","outputs":[{"internalType":"uint256","name":"","type":"uint256"}],"stateMutability":"view","type":"function"},{"inputs":[{"internalType":"address","name":"","type":"address"}],"name":"userVolumeDebt","outputs":[{"internalType":"uint256","name":"","type":"uint256"}],"stateMutability":"view","type":"function"},{"inputs":[],"name":"vipAccumulator","outputs":[{"internalType":"uint256","name":"","type":"uint256"}],"stateMutability":"view","type":"function"},{"inputs":[],"name":"volumeAccumulator","outputs":[{"internalType":"uint256","name":"","type":"uint256"}],"stateMutability":"view","type":"function"}],"evm":{"bytecode":{"linkReferences":{},"object":"60c06040523480156200001157600080fd5b50604051620019bd380380620019bd83398101604081905262000034916200019e565b33806200005c57604051631e4fbdf760e01b8152600060048201526024015b60405180910390fd5b620000678162000131565b5060017f9b779b17422d0df92223018b32b4d1fa46e071723d6817e2486d003becc55f00556001600160a01b038216620000d35760405162461bcd60e51b815260206004820152600c60248201526b125b9d985b1a59081554d11560a21b604482015260640162000053565b6001600160a01b038116620001195760405162461bcd60e51b815260206004820152600b60248201526a125b9d985b1a590815119560aa1b604482015260640162000053565b6001600160a01b039182166080521660a052620001d6565b600080546001600160a01b038381166001600160a01b0319831681178455604051919092169283917f8be0079c531659141344cd1fd0a4f28419497f9722a3daafe3b4186f6b6457e09190a35050565b80516001600160a01b03811681146200019957600080fd5b919050565b60008060408385031215620001b257600080fd5b620001bd8362000181565b9150620001cd6020840162000181565b90509250929050565b60805160a0516117a562000218600039600061044701526000818161036c015281816108b401528181610dcd01528181610ec6015261112d01526117a56000f3fe608060405234801561001057600080fd5b50600436106102325760003560e01c8063715018a611610130578063b58ea07d116100b8578063e38e7ca11161007c578063e38e7ca114610569578063f2fde38b14610571578063f42edb9814610584578063f51ae93e146105a4578063f60559eb146105c457600080fd5b8063b58ea07d14610516578063be13169714610536578063c4a5d1f214610546578063d07c09bc1461054e578063def114b61461055657600080fd5b806381b7911b116100ff57806381b7911b146104cd57806381e865c0146104e057806387f105be146104f357806388a62ffc146104fc5780638da5cb5b1461050557600080fd5b8063715018a61461048957806375774e091461049157806377ccc87c146104a457806378ce0ba7146104c457600080fd5b80632f48ab7d116101be57806345de52e51161018257806345de52e514610411578063564f4f76146104315780635eaea35f146104395780635fbd83f41461044257806360d5fdf91461046957600080fd5b80632f48ab7d1461036757806333a7c2b6146103a657806335ed6300146103e35780633be189ea146103eb57806345ad2396146103fe57600080fd5b806312eef0f31161020557806312eef0f3146102ff578063220cadbe1461030f5780632283ed7d146103425780632b0236421461034b5780632e8f119c1461035457600080fd5b806303b88ba214610237578063069c9fae1461024c57806310fdedbd1461025f5780631149edf9146102e8575b600080fd5b61024a6102453660046115b2565b61065d565b005b61024a61025a3660046115cd565b610687565b6102b461026d3660046115b2565b6001600160a01b0316600090815260026020819052604090912060068101546001820154600583015493830154600384015460049094015460ff9093169591949390929091565b6040805196151587526020870195909552938501929092526060840152608083015260a082015260c0015b60405180910390f35b6102f160045481565b6040519081526020016102df565b6102f1681b1ae4d6e2ef50000081565b61032261031d3660046115b2565b61076e565b6040805194855260208501939093529183015260608201526080016102df565b6102f1600d5481565b6102f160065481565b61024a6103623660046115f7565b61084c565b61038e7f000000000000000000000000000000000000000000000000000000000000000081565b6040516001600160a01b0390911681526020016102df565b6103b96103b43660046115b2565b610976565b6040805195151586529315156020860152928401919091526060830152608082015260a0016102df565b6102f1600a81565b61024a6103f9366004611610565b610a6f565b61038e61040c3660046115f7565b610be1565b6102f161041f3660046115b2565b60096020526000908152604090205481565b61024a610c0b565b6102f1600c5481565b61038e7f000000000000000000000000000000000000000000000000000000000000000081565b6102f16104773660046115b2565b600a6020526000908152604090205481565b61024a610e55565b61024a61049f3660046115f7565b610e67565b6102f16104b23660046115b2565b600f6020526000908152604090205481565b6102f160075481565b61024a6104db3660046115cd565b610f6a565b61024a6104ee3660046115f7565b6110ce565b6102f1600b5481565b6102f160055481565b6000546001600160a01b031661038e565b6102f16105243660046115b2565b60106020526000908152604090205481565b6102f1686c6b935b8bbd40000081565b6004546102f1565b6102f1606481565b60015461038e906001600160a01b031681565b6102f1601e81565b61024a61057f3660046115b2565b6111d1565b6102f16105923660046115b2565b60086020526000908152604090205481565b6102f16105b23660046115b2565b600e6020526000908152604090205481565b61061c6105d23660046115b2565b600260208190526000918252604090912080546001820154928201546003830154600484015460058501546006909501546001600160a01b03909416959492939192909160ff1687565b604080516001600160a01b0390981688526020880196909652948601939093526060850191909152608084015260a0830152151560c082015260e0016102df565b61066561120c565b600180546001600160a01b0319166001600160a01b0392909216919091179055565b61068f61120c565b6001600160a01b0382166106dc57600080546040516001600160a01b03909116914780156108fc02929091818181858888f193505050501580156106d7573d6000803e3d6000fd5b505050565b816001600160a01b031663a9059cbb6106fd6000546001600160a01b031690565b6040516001600160e01b031960e084901b1681526001600160a01b039091166004820152602481018490526044016020604051808303816000875af115801561074a573d6000803e3d6000fd5b505050506040513d601f19601f820116820180604052508101906106d79190611643565b6001600160a01b038116600090815260026020526040812060068101548291829182919060ff166107ad57600080600080945094509450945050610845565b600b546001600160a01b0387166000908152600e60205260409020546107d4918891611239565b600c546001600160a01b0388166000908152600f60205260409020549196506107ff91889190611239565b600d546001600160a01b03881660009081526010602052604090205491955061082a91889190611239565b925082610837858761167b565b610841919061167b565b9150505b9193509193565b61085461120c565b61085c61127d565b600081116108855760405162461bcd60e51b815260040161087c90611694565b60405180910390fd5b6000600454116108a75760405162461bcd60e51b815260040161087c906116c0565b6108dc6001600160a01b037f000000000000000000000000000000000000000000000000000000000000000016333084611299565b80600660008282546108ee919061167b565b909155505060045461090882670de0b6b3a76400006116ea565b6109129190611701565b600c6000828254610923919061167b565b90915550506040518181527f28e69eb295c69233e4c8a801724905c4dca493b5d36ebf8e4d7e057d3a42e5a4906020015b60405180910390a1610973600160008051602061175083398151915255565b50565b6001600160a01b03811660009081526002602081905260408220908101548291829182918291600a118015906109b95750686c6b935b8bbd400000816003015410155b9550681b1ae4d6e2ef500000816004015410159450600a816002015460646109e191906116ea565b6109eb9190611701565b935060648411156109fb57606493505b686c6b935b8bbd40000081600301546064610a1691906116ea565b610a209190611701565b92506064831115610a3057606492505b681b1ae4d6e2ef50000081600401546064610a4b91906116ea565b610a559190611701565b91506064821115610a6557606491505b5091939590929450565b610a7761120c565b6001600160a01b0380841660009081526002602052604090208054909116610b7f576040805160e0810182526001600160a01b03808716808352600060208085018281528587018a8152606087018a81526080880185815260a0890186815260c08a018781528888526002968790529a872099518a5499166001600160a01b0319998a16178a55935160018a81019190915592519489019490945551600380890191909155925160048801559051600587015595516006909501805495151560ff199096169590951790945583549485018455929092527fc2575a0e9e593c00f959f8c92f12db2869c3395a3b0502d05e2516446f71f85b9092018054909216179055610b8e565b60028101839055600381018290555b60408051848152602081018490526001600160a01b038616917f287728de490e52dcd92d740e934e00b5f3b4e26ffc3bb97012eaa74dfd143e9d910160405180910390a2610bdb846112cf565b50505050565b60038181548110610bf157600080fd5b6000918252602090912001546001600160a01b0316905081565b610c1361127d565b336000908152600260205260409020600681015460ff16610c6b5760405162461bcd60e51b81526020600482015260126024820152712737ba10309036b0b935b2ba1036b0b5b2b960711b604482015260640161087c565b600b54336000818152600e60205260408120549092610c8a9291611239565b600c54336000818152600f602052604081205493945092610cab9290611239565b600d543360008181526010602052604081205493945092610ccc9290611239565b9050600081610cdb848661167b565b610ce5919061167b565b905060008111610d2c5760405162461bcd60e51b81526020600482015260126024820152714e6f2070656e64696e6720726576656e756560701b604482015260640161087c565b600b54336000908152600e6020908152604080832093909355600c54600f825283832055600d546010825283832055600890529081208054869290610d7290849061167b565b90915550503360009081526009602052604081208054859290610d9690849061167b565b9091555050336000908152600a602052604081208054849290610dba90849061167b565b90915550610df490506001600160a01b037f0000000000000000000000000000000000000000000000000000000000000000163383611409565b604080518581526020810185905290810183905233907fa6a733ca18bb5e607098e6d04401c6fc94564cbd5136e6974eee691fc107d92f9060600160405180910390a25050505050610e53600160008051602061175083398151915255565b565b610e5d61120c565b610e53600061143e565b610e6f61120c565b610e7761127d565b60008111610e975760405162461bcd60e51b815260040161087c90611694565b600060045411610eb95760405162461bcd60e51b815260040161087c906116c0565b610eee6001600160a01b037f000000000000000000000000000000000000000000000000000000000000000016333084611299565b8060056000828254610f00919061167b565b9091555050600454610f1a82670de0b6b3a76400006116ea565b610f249190611701565b600b6000828254610f35919061167b565b90915550506040518181527fe82491c23d04c707994e3c317b3491f6352943b0e1b0c9c2a6f236e98fab5b2e90602001610954565b610f7261120c565b6001600160a01b038083166000908152600260205260409020805490911661107a576040805160e0810182526001600160a01b038086168083526000602080850182815285870183815260608701848152608088018b815260a0890186815260c08a018781528888526002968790529a872099518a5499166001600160a01b0319998a16178a55935160018a81019190915592519489019490945551600380890191909155925160048801559051600587015595516006909501805495151560ff199096169590951790945583549485018455929092527fc2575a0e9e593c00f959f8c92f12db2869c3395a3b0502d05e2516446f71f85b9092018054909216179055611082565b600481018290555b826001600160a01b03167f7d87bc50cf053abb35f16fe25abd21f8ff89f332359ddde7475c84424d492aef836040516110bd91815260200190565b60405180910390a26106d7836112cf565b6110d661120c565b6110de61127d565b600081116110fe5760405162461bcd60e51b815260040161087c90611694565b6000600454116111205760405162461bcd60e51b815260040161087c906116c0565b6111556001600160a01b037f000000000000000000000000000000000000000000000000000000000000000016333084611299565b8060076000828254611167919061167b565b909155505060045461118182670de0b6b3a76400006116ea565b61118b9190611701565b600d600082825461119c919061167b565b90915550506040518181527f191bea3de290798f6f3e519f45907c8501e9925b163bbdce5d2942dbef1bebb590602001610954565b6111d961120c565b6001600160a01b03811661120357604051631e4fbdf760e01b81526000600482015260240161087c565b6109738161143e565b6000546001600160a01b03163314610e535760405163118cdaa760e01b815233600482015260240161087c565b60008183101561124b57506000611276565b670de0b6b3a764000061125e8385611723565b6112699060016116ea565b6112739190611701565b90505b9392505050565b61128561148e565b600260008051602061175083398151915255565b6112a78484848460016114be565b610bdb57604051635274afe760e01b81526001600160a01b038516600482015260240161087c565b6001600160a01b0381166000908152600260205260409020600681015460ff16156112f8575050565b6000600a82600201541015801561131c5750686c6b935b8bbd400000826003015410155b6004830154909150681b1ae4d6e2ef500000111581806113395750805b15610bdb5760068301805460ff19166001908117909155429084015581611361576002611364565b60015b60ff1660058401556004805490600061137c83611736565b9091555050600b546001600160a01b0385166000818152600e6020908152604080832094909455600c54600f825284832055600d54601090915290839020556005850154915190917f24372a8bdc6136cfccd21ee8dc521cc7b3f257f636f4f82234c52ad28f9eff42916113fb91904290918252602082015260400190565b60405180910390a250505050565b6114168383836001611530565b6106d757604051635274afe760e01b81526001600160a01b038416600482015260240161087c565b600080546001600160a01b038381166001600160a01b0319831681178455604051919092169283917f8be0079c531659141344cd1fd0a4f28419497f9722a3daafe3b4186f6b6457e09190a35050565b60008051602061175083398151915254600203610e5357604051633ee5aeb560e01b815260040160405180910390fd5b6040516323b872dd60e01b60008181526001600160a01b038781166004528616602452604485905291602083606481808c5af19250600160005114831661151e578383151615611511573d6000823e3d81fd5b6000883b113d1516831692505b60405250600060605295945050505050565b60405163a9059cbb60e01b60008181526001600160a01b038616600452602485905291602083604481808b5af19250600160005114831661158a57838315161561157d573d6000823e3d81fd5b6000873b113d1516831692505b60405250949350505050565b80356001600160a01b03811681146115ad57600080fd5b919050565b6000602082840312156115c457600080fd5b61127682611596565b600080604083850312156115e057600080fd5b6115e983611596565b946020939093013593505050565b60006020828403121561160957600080fd5b5035919050565b60008060006060848603121561162557600080fd5b61162e84611596565b95602085013595506040909401359392505050565b60006020828403121561165557600080fd5b8151801515811461127657600080fd5b634e487b7160e01b600052601160045260246000fd5b8082018082111561168e5761168e611665565b92915050565b6020808252601290820152710416d6f756e74206d757374206265203e20360741b604082015260600190565b60208082526010908201526f4e6f206d61726b6574206d616b65727360801b604082015260600190565b808202811582820484141761168e5761168e611665565b60008261171e57634e487b7160e01b600052601260045260246000fd5b500490565b8181038181111561168e5761168e611665565b60006001820161174857611748611665565b506001019056fe9b779b17422d0df92223018b32b4d1fa46e071723d6817e2486d003becc55f00a2646970667358221220c1173ed4d6ea7ab0988b6dbcd542a7a875b8634517ac52b058051b8fd019649564736f6c63430008180033","opcodes":"PUSH1 0xC0 PUSH1 0x40 MSTORE CALLVALUE DUP1 ISZERO PUSH3 0x11 JUMPI PUSH1 0x0 DUP1 REVERT JUMPDEST POP PUSH1 0x40 MLOAD PUSH3 0x19BD CODESIZE SUB DUP1 PUSH3 0x19BD DUP4 CODECOPY DUP2 ADD PUSH1 0x40 DUP2 SWAP1 MSTORE PUSH3 0x34 SWAP2 PUSH3 0x19E JUMP JUMPDEST CALLER DUP1 PUSH3 0x5C JUMPI PUSH1 0x40 MLOAD PUSH4 0x1E4FBDF7 PUSH1 0xE0 SHL DUP2 MSTORE PUSH1 0x0 PUSH1 0x4 DUP3 ADD MSTORE PUSH1 0x24 ADD JUMPDEST PUSH1 0x40 MLOAD DUP1 SWAP2 SUB SWAP1 REVERT JUMPDEST PUSH3 0x67 DUP2 PUSH3 0x131 JUMP JUMPDEST POP PUSH1 0x1 PUSH32 0x9B779B17422D0DF92223018B32B4D1FA46E071723D6817E2486D003BECC55F00 SSTORE PUSH1 0x1 PUSH1 0x1 PUSH1 0xA0 SHL SUB DUP3 AND PUSH3 0xD3 JUMPI PUSH1 0x40 MLOAD PUSH3 0x461BCD PUSH1 0xE5 SHL DUP2 MSTORE PUSH1 0x20 PUSH1 0x4 DUP3 ADD MSTORE PUSH1 0xC PUSH1 0x24 DUP3 ADD MSTORE PUSH12 0x125B9D985B1A59081554D115 PUSH1 0xA2 SHL PUSH1 0x44 DUP3 ADD MSTORE PUSH1 0x64 ADD PUSH3 0x53 JUMP JUMPDEST PUSH1 0x1 PUSH1 0x1 PUSH1 0xA0 SHL SUB DUP2 AND PUSH3 0x119 JUMPI PUSH1 0x40 MLOAD PUSH3 0x461BCD PUSH1 0xE5 SHL DUP2 MSTORE PUSH1 0x20 PUSH1 0x4 DUP3 ADD MSTORE PUSH1 0xB PUSH1 0x24 DUP3 ADD MSTORE PUSH11 0x125B9D985B1A5908151195 PUSH1 0xAA SHL PUSH1 0x44 DUP3 ADD MSTORE PUSH1 0x64 ADD PUSH3 0x53 JUMP JUMPDEST PUSH1 0x1 PUSH1 0x1 PUSH1 0xA0 SHL SUB SWAP2 DUP3 AND PUSH1 0x80 MSTORE AND PUSH1 0xA0 MSTORE PUSH3 0x1D6 JUMP JUMPDEST PUSH1 0x0 DUP1 SLOAD PUSH1 0x1 PUSH1 0x1 PUSH1 0xA0 SHL SUB DUP4 DUP2 AND PUSH1 0x1 PUSH1 0x1 PUSH1 0xA0 SHL SUB NOT DUP4 AND DUP2 OR DUP5 SSTORE PUSH1 0x40 MLOAD SWAP2 SWAP1 SWAP3 AND SWAP3 DUP4 SWAP2 PUSH32 0x8BE0079C531659141344CD1FD0A4F28419497F9722A3DAAFE3B4186F6B6457E0 SWAP2 SWAP1 LOG3 POP POP JUMP JUMPDEST DUP1 MLOAD PUSH1 0x1 PUSH1 0x1 PUSH1 0xA0 SHL SUB DUP2 AND DUP2 EQ PUSH3 0x199 JUMPI PUSH1 0x0 DUP1 REVERT JUMPDEST SWAP2 SWAP1 POP JUMP JUMPDEST PUSH1 0x0 DUP1 PUSH1 0x40 DUP4 DUP6 SUB SLT ISZERO PUSH3 0x1B2 JUMPI PUSH1 0x0 DUP1 REVERT JUMPDEST PUSH3 0x1BD DUP4 PUSH3 0x181 JUMP JUMPDEST SWAP2 POP PUSH3 0x1CD PUSH1 0x20 DUP5 ADD PUSH3 0x181 JUMP JUMPDEST SWAP1 POP SWAP3 POP SWAP3 SWAP1 POP JUMP JUMPDEST PUSH1 0x80 MLOAD PUSH1 0xA0 MLOAD PUSH2 0x17A5 PUSH3 0x218 PUSH1 0x0 CODECOPY PUSH1 0x0 PUSH2 0x447 ADD MSTORE PUSH1 0x0 DUP2 DUP2 PUSH2 0x36C ADD MSTORE DUP2 DUP2 PUSH2 0x8B4 ADD MSTORE DUP2 DUP2 PUSH2 0xDCD ADD MSTORE DUP2 DUP2 PUSH2 0xEC6 ADD MSTORE PUSH2 0x112D ADD MSTORE PUSH2 0x17A5 PUSH1 0x0 RETURN INVALID PUSH1 0x80 PUSH1 0x40 MSTORE CALLVALUE DUP1 ISZERO PUSH2 0x10 JUMPI PUSH1 0x0 DUP1 REVERT JUMPDEST POP PUSH1 0x4 CALLDATASIZE LT PUSH2 0x232 JUMPI PUSH1 0x0 CALLDATALOAD PUSH1 0xE0 SHR DUP1 PUSH4 0x715018A6 GT PUSH2 0x130 JUMPI DUP1 PUSH4 0xB58EA07D GT PUSH2 0xB8 JUMPI DUP1 PUSH4 0xE38E7CA1 GT PUSH2 0x7C JUMPI DUP1 PUSH4 0xE38E7CA1 EQ PUSH2 0x569 JUMPI DUP1 PUSH4 0xF2FDE38B EQ PUSH2 0x571 JUMPI DUP1 PUSH4 0xF42EDB98 EQ PUSH2 0x584 JUMPI DUP1 PUSH4 0xF51AE93E EQ PUSH2 0x5A4 JUMPI DUP1 PUSH4 0xF60559EB EQ PUSH2 0x5C4 JUMPI PUSH1 0x0 DUP1 REVERT JUMPDEST DUP1 PUSH4 0xB58EA07D EQ PUSH2 0x516 JUMPI DUP1 PUSH4 0xBE131697 EQ PUSH2 0x536 JUMPI DUP1 PUSH4 0xC4A5D1F2 EQ PUSH2 0x546 JUMPI DUP1 PUSH4 0xD07C09BC EQ PUSH2 0x54E JUMPI DUP1 PUSH4 0xDEF114B6 EQ PUSH2 0x556 JUMPI PUSH1 0x0 DUP1 REVERT JUMPDEST DUP1 PUSH4 0x81B7911B GT PUSH2 0xFF JUMPI DUP1 PUSH4 0x81B7911B EQ PUSH2 0x4CD JUMPI DUP1 PUSH4 0x81E865C0 EQ PUSH2 0x4E0 JUMPI DUP1 PUSH4 0x87F105BE EQ PUSH2 0x4F3 JUMPI DUP1 PUSH4 0x88A62FFC EQ PUSH2 0x4FC JUMPI DUP1 PUSH4 0x8DA5CB5B EQ PUSH2 0x505 JUMPI PUSH1 0x0 DUP1 REVERT JUMPDEST DUP1 PUSH4 0x715018A6 EQ PUSH2 0x489 JUMPI DUP1 PUSH4 0x75774E09 EQ PUSH2 0x491 JUMPI DUP1 PUSH4 0x77CCC87C EQ PUSH2 0x4A4 JUMPI DUP1 PUSH4 0x78CE0BA7 EQ PUSH2 0x4C4 JUMPI PUSH1 0x0 DUP1 REVERT JUMPDEST DUP1 PUSH4 0x2F48AB7D GT PUSH2 0x1BE JUMPI DUP1 PUSH4 0x45DE52E5 GT PUSH2 0x182 JUMPI DUP1 PUSH4 0x45DE52E5 EQ PUSH2 0x411 JUMPI DUP1 PUSH4 0x564F4F76 EQ PUSH2 0x431 JUMPI DUP1 PUSH4 0x5EAEA35F EQ PUSH2 0x439 JUMPI DUP1 PUSH4 0x5FBD83F4 EQ PUSH2 0x442 JUMPI DUP1 PUSH4 0x60D5FDF9 EQ PUSH2 0x469 JUMPI PUSH1 0x0 DUP1 REVERT JUMPDEST DUP1 PUSH4 0x2F48AB7D EQ PUSH2 0x367 JUMPI DUP1 PUSH4 0x33A7C2B6 EQ PUSH2 0x3A6 JUMPI DUP1 PUSH4 0x35ED6300 EQ PUSH2 0x3E3 JUMPI DUP1 PUSH4 0x3BE189EA EQ PUSH2 0x3EB JUMPI DUP1 PUSH4 0x45AD2396 EQ PUSH2 0x3FE JUMPI PUSH1 0x0 DUP1 REVERT JUMPDEST DUP1 PUSH4 0x12EEF0F3 GT PUSH2 0x205 JUMPI DUP1 PUSH4 0x12EEF0F3 EQ PUSH2 0x2FF JUMPI DUP1 PUSH4 0x220CADBE EQ PUSH2 0x30F JUMPI DUP1 PUSH4 0x2283ED7D EQ PUSH2 0x342 JUMPI DUP1 PUSH4 0x2B023642 EQ PUSH2 0x34B JUMPI DUP1 PUSH4 0x2E8F119C EQ PUSH2 0x354 JUMPI PUSH1 0x0 DUP1 REVERT JUMPDEST DUP1 PUSH4 0x3B88BA2 EQ PUSH2 0x237 JUMPI DUP1 PUSH4 0x69C9FAE EQ PUSH2 0x24C JUMPI DUP1 PUSH4 0x10FDEDBD EQ PUSH2 0x25F JUMPI DUP1 PUSH4 0x1149EDF9 EQ PUSH2 0x2E8 JUMPI JUMPDEST PUSH1 0x0 DUP1 REVERT JUMPDEST PUSH2 0x24A PUSH2 0x245 CALLDATASIZE PUSH1 0x4 PUSH2 0x15B2 JUMP JUMPDEST PUSH2 0x65D JUMP JUMPDEST STOP JUMPDEST PUSH2 0x24A PUSH2 0x25A CALLDATASIZE PUSH1 0x4 PUSH2 0x15CD JUMP JUMPDEST PUSH2 0x687 JUMP JUMPDEST PUSH2 0x2B4 PUSH2 0x26D CALLDATASIZE PUSH1 0x4 PUSH2 0x15B2 JUMP JUMPDEST PUSH1 0x1 PUSH1 0x1 PUSH1 0xA0 SHL SUB AND PUSH1 0x0 SWAP1 DUP2 MSTORE PUSH1 0x2 PUSH1 0x20 DUP2 SWAP1 MSTORE PUSH1 0x40 SWAP1 SWAP2 KECCAK256 PUSH1 0x6 DUP2 ADD SLOAD PUSH1 0x1 DUP3 ADD SLOAD PUSH1 0x5 DUP4 ADD SLOAD SWAP4 DUP4 ADD SLOAD PUSH1 0x3 DUP5 ADD SLOAD PUSH1 0x4 SWAP1 SWAP5 ADD SLOAD PUSH1 0xFF SWAP1 SWAP4 AND SWAP6 SWAP2 SWAP5 SWAP4 SWAP1 SWAP3 SWAP1 SWAP2 JUMP JUMPDEST PUSH1 0x40 DUP1 MLOAD SWAP7 ISZERO ISZERO DUP8 MSTORE PUSH1 0x20 DUP8 ADD SWAP6 SWAP1 SWAP6 MSTORE SWAP4 DUP6 ADD SWAP3 SWAP1 SWAP3 MSTORE PUSH1 0x60 DUP5 ADD MSTORE PUSH1 0x80 DUP4 ADD MSTORE PUSH1 0xA0 DUP3 ADD MSTORE PUSH1 0xC0 ADD JUMPDEST PUSH1 0x40 MLOAD DUP1 SWAP2 SUB SWAP1 RETURN JUMPDEST PUSH2 0x2F1 PUSH1 0x4 SLOAD DUP2 JUMP JUMPDEST PUSH1 0x40 MLOAD SWAP1 DUP2 MSTORE PUSH1 0x20 ADD PUSH2 0x2DF JUMP JUMPDEST PUSH2 0x2F1 PUSH9 0x1B1AE4D6E2EF500000 DUP2 JUMP JUMPDEST PUSH2 0x322 PUSH2 0x31D CALLDATASIZE PUSH1 0x4 PUSH2 0x15B2 JUMP JUMPDEST PUSH2 0x76E JUMP JUMPDEST PUSH1 0x40 DUP1 MLOAD SWAP5 DUP6 MSTORE PUSH1 0x20 DUP6 ADD SWAP4 SWAP1 SWAP4 MSTORE SWAP2 DUP4 ADD MSTORE PUSH1 0x60 DUP3 ADD MSTORE PUSH1 0x80 ADD PUSH2 0x2DF JUMP JUMPDEST PUSH2 0x2F1 PUSH1 0xD SLOAD DUP2 JUMP JUMPDEST PUSH2 0x2F1 PUSH1 0x6 SLOAD DUP2 JUMP JUMPDEST PUSH2 0x24A PUSH2 0x362 CALLDATASIZE PUSH1 0x4 PUSH2 0x15F7 JUMP JUMPDEST PUSH2 0x84C JUMP JUMPDEST PUSH2 0x38E PUSH32 0x0 DUP2 JUMP JUMPDEST PUSH1 0x40 MLOAD PUSH1 0x1 PUSH1 0x1 PUSH1 0xA0 SHL SUB SWAP1 SWAP2 AND DUP2 MSTORE PUSH1 0x20 ADD PUSH2 0x2DF JUMP JUMPDEST PUSH2 0x3B9 PUSH2 0x3B4 CALLDATASIZE PUSH1 0x4 PUSH2 0x15B2 JUMP JUMPDEST PUSH2 0x976 JUMP JUMPDEST PUSH1 0x40 DUP1 MLOAD SWAP6 ISZERO ISZERO DUP7 MSTORE SWAP4 ISZERO ISZERO PUSH1 0x20 DUP7 ADD MSTORE SWAP3 DUP5 ADD SWAP2 SWAP1 SWAP2 MSTORE PUSH1 0x60 DUP4 ADD MSTORE PUSH1 0x80 DUP3 ADD MSTORE PUSH1 0xA0 ADD PUSH2 0x2DF JUMP JUMPDEST PUSH2 0x2F1 PUSH1 0xA DUP2 JUMP JUMPDEST PUSH2 0x24A PUSH2 0x3F9 CALLDATASIZE PUSH1 0x4 PUSH2 0x1610 JUMP JUMPDEST PUSH2 0xA6F JUMP JUMPDEST PUSH2 0x38E PUSH2 0x40C CALLDATASIZE PUSH1 0x4 PUSH2 0x15F7 JUMP JUMPDEST PUSH2 0xBE1 JUMP JUMPDEST PUSH2 0x2F1 PUSH2 0x41F CALLDATASIZE PUSH1 0x4 PUSH2 0x15B2 JUMP JUMPDEST PUSH1 0x9 PUSH1 0x20 MSTORE PUSH1 0x0 SWAP1 DUP2 MSTORE PUSH1 0x40 SWAP1 KECCAK256 SLOAD DUP2 JUMP JUMPDEST PUSH2 0x24A PUSH2 0xC0B JUMP JUMPDEST PUSH2 0x2F1 PUSH1 0xC SLOAD DUP2 JUMP JUMPDEST PUSH2 0x38E PUSH32 0x0 DUP2 JUMP JUMPDEST PUSH2 0x2F1 PUSH2 0x477 CALLDATASIZE PUSH1 0x4 PUSH2 0x15B2 JUMP JUMPDEST PUSH1 0xA PUSH1 0x20 MSTORE PUSH1 0x0 SWAP1 DUP2 MSTORE PUSH1 0x40 SWAP1 KECCAK256 SLOAD DUP2 JUMP JUMPDEST PUSH2 0x24A PUSH2 0xE55 JUMP JUMPDEST PUSH2 0x24A PUSH2 0x49F CALLDATASIZE PUSH1 0x4 PUSH2 0x15F7 JUMP JUMPDEST PUSH2 0xE67 JUMP JUMPDEST PUSH2 0x2F1 PUSH2 0x4B2 CALLDATASIZE PUSH1 0x4 PUSH2 0x15B2 JUMP JUMPDEST PUSH1 0xF PUSH1 0x20 MSTORE PUSH1 0x0 SWAP1 DUP2 MSTORE PUSH1 0x40 SWAP1 KECCAK256 SLOAD DUP2 JUMP JUMPDEST PUSH2 0x2F1 PUSH1 0x7 SLOAD DUP2 JUMP JUMPDEST PUSH2 0x24A PUSH2 0x4DB CALLDATASIZE PUSH1 0x4 PUSH2 0x15CD JUMP JUMPDEST PUSH2 0xF6A JUMP JUMPDEST PUSH2 0x24A PUSH2 0x4EE CALLDATASIZE PUSH1 0x4 PUSH2 0x15F7 JUMP JUMPDEST PUSH2 0x10CE JUMP JUMPDEST PUSH2 0x2F1 PUSH1 0xB SLOAD DUP2 JUMP JUMPDEST PUSH2 0x2F1 PUSH1 0x5 SLOAD DUP2 JUMP JUMPDEST PUSH1 0x0 SLOAD PUSH1 0x1 PUSH1 0x1 PUSH1 0xA0 SHL SUB AND PUSH2 0x38E JUMP JUMPDEST PUSH2 0x2F1 PUSH2 0x524 CALLDATASIZE PUSH1 0x4 PUSH2 0x15B2 JUMP JUMPDEST PUSH1 0x10 PUSH1 0x20 MSTORE PUSH1 0x0 SWAP1 DUP2 MSTORE PUSH1 0x40 SWAP1 KECCAK256 SLOAD DUP2 JUMP JUMPDEST PUSH2 0x2F1 PUSH9 0x6C6B935B8BBD400000 DUP2 JUMP JUMPDEST PUSH1 0x4 SLOAD PUSH2 0x2F1 JUMP JUMPDEST PUSH2 0x2F1 PUSH1 0x64 DUP2 JUMP JUMPDEST PUSH1 0x1 SLOAD PUSH2 0x38E SWAP1 PUSH1 0x1 PUSH1 0x1 PUSH1 0xA0 SHL SUB AND DUP2 JUMP JUMPDEST PUSH2 0x2F1 PUSH1 0x1E DUP2 JUMP JUMPDEST PUSH2 0x24A PUSH2 0x57F CALLDATASIZE PUSH1 0x4 PUSH2 0x15B2 JUMP JUMPDEST PUSH2 0x11D1 JUMP JUMPDEST PUSH2 0x2F1 PUSH2 0x592 CALLDATASIZE PUSH1 0x4 PUSH2 0x15B2 JUMP JUMPDEST PUSH1 0x8 PUSH1 0x20 MSTORE PUSH1 0x0 SWAP1 DUP2 MSTORE PUSH1 0x40 SWAP1 KECCAK256 SLOAD DUP2 JUMP JUMPDEST PUSH2 0x2F1 PUSH2 0x5B2 CALLDATASIZE PUSH1 0x4 PUSH2 0x15B2 JUMP JUMPDEST PUSH1 0xE PUSH1 0x20 MSTORE PUSH1 0x0 SWAP1 DUP2 MSTORE PUSH1 0x40 SWAP1 KECCAK256 SLOAD DUP2 JUMP JUMPDEST PUSH2 0x61C PUSH2 0x5D2 CALLDATASIZE PUSH1 0x4 PUSH2 0x15B2 JUMP JUMPDEST PUSH1 0x2 PUSH1 0x20 DUP2 SWAP1 MSTORE PUSH1 0x0 SWAP2 DUP3 MSTORE PUSH1 0x40 SWAP1 SWAP2 KECCAK256 DUP1 SLOAD PUSH1 0x1 DUP3 ADD SLOAD SWAP3 DUP3 ADD SLOAD PUSH1 0x3 DUP4 ADD SLOAD PUSH1 0x4 DUP5 ADD SLOAD PUSH1 0x5 DUP6 ADD SLOAD PUSH1 0x6 SWAP1 SWAP6 ADD SLOAD PUSH1 0x1 PUSH1 0x1 PUSH1 0xA0 SHL SUB SWAP1 SWAP5 AND SWAP6 SWAP5 SWAP3 SWAP4 SWAP2 SWAP3 SWAP1 SWAP2 PUSH1 0xFF AND DUP8 JUMP JUMPDEST PUSH1 0x40 DUP1 MLOAD PUSH1 0x1 PUSH1 0x1 PUSH1 0xA0 SHL SUB SWAP1 SWAP9 AND DUP9 MSTORE PUSH1 0x20 DUP9 ADD SWAP7 SWAP1 SWAP7 MSTORE SWAP5 DUP7 ADD SWAP4 SWAP1 SWAP4 MSTORE PUSH1 0x60 DUP6 ADD SWAP2 SWAP1 SWAP2 MSTORE PUSH1 0x80 DUP5 ADD MSTORE PUSH1 0xA0 DUP4 ADD MSTORE ISZERO ISZERO PUSH1 0xC0 DUP3 ADD MSTORE PUSH1 0xE0 ADD PUSH2 0x2DF JUMP JUMPDEST PUSH2 0x665 PUSH2 0x120C JUMP JUMPDEST PUSH1 0x1 DUP1 SLOAD PUSH1 0x1 PUSH1 0x1 PUSH1 0xA0 SHL SUB NOT AND PUSH1 0x1 PUSH1 0x1 PUSH1 0xA0 SHL SUB SWAP3 SWAP1 SWAP3 AND SWAP2 SWAP1 SWAP2 OR SWAP1 SSTORE JUMP JUMPDEST PUSH2 0x68F PUSH2 0x120C JUMP JUMPDEST PUSH1 0x1 PUSH1 0x1 PUSH1 0xA0 SHL SUB DUP3 AND PUSH2 0x6DC JUMPI PUSH1 0x0 DUP1 SLOAD PUSH1 0x40 MLOAD PUSH1 0x1 PUSH1 0x1 PUSH1 0xA0 SHL SUB SWAP1 SWAP2 AND SWAP2 SELFBALANCE DUP1 ISZERO PUSH2 0x8FC MUL SWAP3 SWAP1 SWAP2 DUP2 DUP2 DUP2 DUP6 DUP9 DUP9 CALL SWAP4 POP POP POP POP ISZERO DUP1 ISZERO PUSH2 0x6D7 JUMPI RETURNDATASIZE PUSH1 0x0 DUP1 RETURNDATACOPY RETURNDATASIZE PUSH1 0x0 REVERT JUMPDEST POP POP POP JUMP JUMPDEST DUP2 PUSH1 0x1 PUSH1 0x1 PUSH1 0xA0 SHL SUB AND PUSH4 0xA9059CBB PUSH2 0x6FD PUSH1 0x0 SLOAD PUSH1 0x1 PUSH1 0x1 PUSH1 0xA0 SHL SUB AND SWAP1 JUMP JUMPDEST PUSH1 0x40 MLOAD PUSH1 0x1 PUSH1 0x1 PUSH1 0xE0 SHL SUB NOT PUSH1 0xE0 DUP5 SWAP1 SHL AND DUP2 MSTORE PUSH1 0x1 PUSH1 0x1 PUSH1 0xA0 SHL SUB SWAP1 SWAP2 AND PUSH1 0x4 DUP3 ADD MSTORE PUSH1 0x24 DUP2 ADD DUP5 SWAP1 MSTORE PUSH1 0x44 ADD PUSH1 0x20 PUSH1 0x40 MLOAD DUP1 DUP4 SUB DUP2 PUSH1 0x0 DUP8 GAS CALL ISZERO DUP1 ISZERO PUSH2 0x74A JUMPI RETURNDATASIZE PUSH1 0x0 DUP1 RETURNDATACOPY RETURNDATASIZE PUSH1 0x0 REVERT JUMPDEST POP POP POP POP PUSH1 0x40 MLOAD RETURNDATASIZE PUSH1 0x1F NOT PUSH1 0x1F DUP3 ADD AND DUP3 ADD DUP1 PUSH1 0x40 MSTORE POP DUP2 ADD SWAP1 PUSH2 0x6D7 SWAP2 SWAP1 PUSH2 0x1643 JUMP JUMPDEST PUSH1 0x1 PUSH1 0x1 PUSH1 0xA0 SHL SUB DUP2 AND PUSH1 0x0 SWAP1 DUP2 MSTORE PUSH1 0x2 PUSH1 0x20 MSTORE PUSH1 0x40 DUP2 KECCAK256 PUSH1 0x6 DUP2 ADD SLOAD DUP3 SWAP2 DUP3 SWAP2 DUP3 SWAP2 SWAP1 PUSH1 0xFF AND PUSH2 0x7AD JUMPI PUSH1 0x0 DUP1 PUSH1 0x0 DUP1 SWAP5 POP SWAP5 POP SWAP5 POP SWAP5 POP POP PUSH2 0x845 JUMP JUMPDEST PUSH1 0xB SLOAD PUSH1 0x1 PUSH1 0x1 PUSH1 0xA0 SHL SUB DUP8 AND PUSH1 0x0 SWAP1 DUP2 MSTORE PUSH1 0xE PUSH1 0x20 MSTORE PUSH1 0x40 SWAP1 KECCAK256 SLOAD PUSH2 0x7D4 SWAP2 DUP9 SWAP2 PUSH2 0x1239 JUMP JUMPDEST PUSH1 0xC SLOAD PUSH1 0x1 PUSH1 0x1 PUSH1 0xA0 SHL SUB DUP9 AND PUSH1 0x0 SWAP1 DUP2 MSTORE PUSH1 0xF PUSH1 0x20 MSTORE PUSH1 0x40 SWAP1 KECCAK256 SLOAD SWAP2 SWAP7 POP PUSH2 0x7FF SWAP2 DUP9 SWAP2 SWAP1 PUSH2 0x1239 JUMP JUMPDEST PUSH1 0xD SLOAD PUSH1 0x1 PUSH1 0x1 PUSH1 0xA0 SHL SUB DUP9 AND PUSH1 0x0 SWAP1 DUP2 MSTORE PUSH1 0x10 PUSH1 0x20 MSTORE PUSH1 0x40 SWAP1 KECCAK256 SLOAD SWAP2 SWAP6 POP PUSH2 0x82A SWAP2 DUP9 SWAP2 SWAP1 PUSH2 0x1239 JUMP JUMPDEST SWAP3 POP DUP3 PUSH2 0x837 DUP6 DUP8 PUSH2 0x167B JUMP JUMPDEST PUSH2 0x841 SWAP2 SWAP1 PUSH2 0x167B JUMP JUMPDEST SWAP2 POP POP JUMPDEST SWAP2 SWAP4 POP SWAP2 SWAP4 JUMP JUMPDEST PUSH2 0x854 PUSH2 0x120C JUMP JUMPDEST PUSH2 0x85C PUSH2 0x127D JUMP JUMPDEST PUSH1 0x0 DUP2 GT PUSH2 0x885 JUMPI PUSH1 0x40 MLOAD PUSH3 0x461BCD PUSH1 0xE5 SHL DUP2 MSTORE PUSH1 0x4 ADD PUSH2 0x87C SWAP1 PUSH2 0x1694 JUMP JUMPDEST PUSH1 0x40 MLOAD DUP1 SWAP2 SUB SWAP1 REVERT JUMPDEST PUSH1 0x0 PUSH1 0x4 SLOAD GT PUSH2 0x8A7 JUMPI PUSH1 0x40 MLOAD PUSH3 0x461BCD PUSH1 0xE5 SHL DUP2 MSTORE PUSH1 0x4 ADD PUSH2 0x87C SWAP1 PUSH2 0x16C0 JUMP JUMPDEST PUSH2 0x8DC PUSH1 0x1 PUSH1 0x1 PUSH1 0xA0 SHL SUB PUSH32 0x0 AND CALLER ADDRESS DUP5 PUSH2 0x1299 JUMP JUMPDEST DUP1 PUSH1 0x6 PUSH1 0x0 DUP3 DUP3 SLOAD PUSH2 0x8EE SWAP2 SWAP1 PUSH2 0x167B JUMP JUMPDEST SWAP1 SWAP2 SSTORE POP POP PUSH1 0x4 SLOAD PUSH2 0x908 DUP3 PUSH8 0xDE0B6B3A7640000 PUSH2 0x16EA JUMP JUMPDEST PUSH2 0x912 SWAP2 SWAP1 PUSH2 0x1701 JUMP JUMPDEST PUSH1 0xC PUSH1 0x0 DUP3 DUP3 SLOAD PUSH2 0x923 SWAP2 SWAP1 PUSH2 0x167B JUMP JUMPDEST SWAP1 SWAP2 SSTORE POP POP PUSH1 0x40 MLOAD DUP2 DUP2 MSTORE PUSH32 0x28E69EB295C69233E4C8A801724905C4DCA493B5D36EBF8E4D7E057D3A42E5A4 SWAP1 PUSH1 0x20 ADD JUMPDEST PUSH1 0x40 MLOAD DUP1 SWAP2 SUB SWAP1 LOG1 PUSH2 0x973 PUSH1 0x1 PUSH1 0x0 DUP1 MLOAD PUSH1 0x20 PUSH2 0x1750 DUP4 CODECOPY DUP2 MLOAD SWAP2 MSTORE SSTORE JUMP JUMPDEST POP JUMP JUMPDEST PUSH1 0x1 PUSH1 0x1 PUSH1 0xA0 SHL SUB DUP2 AND PUSH1 0x0 SWAP1 DUP2 MSTORE PUSH1 0x2 PUSH1 0x20 DUP2 SWAP1 MSTORE PUSH1 0x40 DUP3 KECCAK256 SWAP1 DUP2 ADD SLOAD DUP3 SWAP2 DUP3 SWAP2 DUP3 SWAP2 DUP3 SWAP2 PUSH1 0xA GT DUP1 ISZERO SWAP1 PUSH2 0x9B9 JUMPI POP PUSH9 0x6C6B935B8BBD400000 DUP2 PUSH1 0x3 ADD SLOAD LT ISZERO JUMPDEST SWAP6 POP PUSH9 0x1B1AE4D6E2EF500000 DUP2 PUSH1 0x4 ADD SLOAD LT ISZERO SWAP5 POP PUSH1 0xA DUP2 PUSH1 0x2 ADD SLOAD PUSH1 0x64 PUSH2 0x9E1 SWAP2 SWAP1 PUSH2 0x16EA JUMP JUMPDEST PUSH2 0x9EB SWAP2 SWAP1 PUSH2 0x1701 JUMP JUMPDEST SWAP4 POP PUSH1 0x64 DUP5 GT ISZERO PUSH2 0x9FB JUMPI PUSH1 0x64 SWAP4 POP JUMPDEST PUSH9 0x6C6B935B8BBD400000 DUP2 PUSH1 0x3 ADD SLOAD PUSH1 0x64 PUSH2 0xA16 SWAP2 SWAP1 PUSH2 0x16EA JUMP JUMPDEST PUSH2 0xA20 SWAP2 SWAP1 PUSH2 0x1701 JUMP JUMPDEST SWAP3 POP PUSH1 0x64 DUP4 GT ISZERO PUSH2 0xA30 JUMPI PUSH1 0x64 SWAP3 POP JUMPDEST PUSH9 0x1B1AE4D6E2EF500000 DUP2 PUSH1 0x4 ADD SLOAD PUSH1 0x64 PUSH2 0xA4B SWAP2 SWAP1 PUSH2 0x16EA JUMP JUMPDEST PUSH2 0xA55 SWAP2 SWAP1 PUSH2 0x1701 JUMP JUMPDEST SWAP2 POP PUSH1 0x64 DUP3 GT ISZERO PUSH2 0xA65 JUMPI PUSH1 0x64 SWAP2 POP JUMPDEST POP SWAP2 SWAP4 SWAP6 SWAP1 SWAP3 SWAP5 POP JUMP JUMPDEST PUSH2 0xA77 PUSH2 0x120C JUMP JUMPDEST PUSH1 0x1 PUSH1 0x1 PUSH1 0xA0 SHL SUB DUP1 DUP5 AND PUSH1 0x0 SWAP1 DUP2 MSTORE PUSH1 0x2 PUSH1 0x20 MSTORE PUSH1 0x40 SWAP1 KECCAK256 DUP1 SLOAD SWAP1 SWAP2 AND PUSH2 0xB7F JUMPI PUSH1 0x40 DUP1 MLOAD PUSH1 0xE0 DUP2 ADD DUP3 MSTORE PUSH1 0x1 PUSH1 0x1 PUSH1 0xA0 SHL SUB DUP1 DUP8 AND DUP1 DUP4 MSTORE PUSH1 0x0 PUSH1 0x20 DUP1 DUP6 ADD DUP3 DUP2 MSTORE DUP6 DUP8 ADD DUP11 DUP2 MSTORE PUSH1 0x60 DUP8 ADD DUP11 DUP2 MSTORE PUSH1 0x80 DUP9 ADD DUP6 DUP2 MSTORE PUSH1 0xA0 DUP10 ADD DUP7 DUP2 MSTORE PUSH1 0xC0 DUP11 ADD DUP8 DUP2 MSTORE DUP9 DUP9 MSTORE PUSH1 0x2 SWAP7 DUP8 SWAP1 MSTORE SWAP11 DUP8 KECCAK256 SWAP10 MLOAD DUP11 SLOAD SWAP10 AND PUSH1 0x1 PUSH1 0x1 PUSH1 0xA0 SHL SUB NOT SWAP10 DUP11 AND OR DUP11 SSTORE SWAP4 MLOAD PUSH1 0x1 DUP11 DUP2 ADD SWAP2 SWAP1 SWAP2 SSTORE SWAP3 MLOAD SWAP5 DUP10 ADD SWAP5 SWAP1 SWAP5 SSTORE MLOAD PUSH1 0x3 DUP1 DUP10 ADD SWAP2 SWAP1 SWAP2 SSTORE SWAP3 MLOAD PUSH1 0x4 DUP9 ADD SSTORE SWAP1 MLOAD PUSH1 0x5 DUP8 ADD SSTORE SWAP6 MLOAD PUSH1 0x6 SWAP1 SWAP6 ADD DUP1 SLOAD SWAP6 ISZERO ISZERO PUSH1 0xFF NOT SWAP1 SWAP7 AND SWAP6 SWAP1 SWAP6 OR SWAP1 SWAP5 SSTORE DUP4 SLOAD SWAP5 DUP6 ADD DUP5 SSTORE SWAP3 SWAP1 SWAP3 MSTORE PUSH32 0xC2575A0E9E593C00F959F8C92F12DB2869C3395A3B0502D05E2516446F71F85B SWAP1 SWAP3 ADD DUP1 SLOAD SWAP1 SWAP3 AND OR SWAP1 SSTORE PUSH2 0xB8E JUMP JUMPDEST PUSH1 0x2 DUP2 ADD DUP4 SWAP1 SSTORE PUSH1 0x3 DUP2 ADD DUP3 SWAP1 SSTORE JUMPDEST PUSH1 0x40 DUP1 MLOAD DUP5 DUP2 MSTORE PUSH1 0x20 DUP2 ADD DUP5 SWAP1 MSTORE PUSH1 0x1 PUSH1 0x1 PUSH1 0xA0 SHL SUB DUP7 AND SWAP2 PUSH32 0x287728DE490E52DCD92D740E934E00B5F3B4E26FFC3BB97012EAA74DFD143E9D SWAP2 ADD PUSH1 0x40 MLOAD DUP1 SWAP2 SUB SWAP1 LOG2 PUSH2 0xBDB DUP5 PUSH2 0x12CF JUMP JUMPDEST POP POP POP POP JUMP JUMPDEST PUSH1 0x3 DUP2 DUP2 SLOAD DUP2 LT PUSH2 0xBF1 JUMPI PUSH1 0x0 DUP1 REVERT JUMPDEST PUSH1 0x0 SWAP2 DUP3 MSTORE PUSH1 0x20 SWAP1 SWAP2 KECCAK256 ADD SLOAD PUSH1 0x1 PUSH1 0x1 PUSH1 0xA0 SHL SUB AND SWAP1 POP DUP2 JUMP JUMPDEST PUSH2 0xC13 PUSH2 0x127D JUMP JUMPDEST CALLER PUSH1 0x0 SWAP1 DUP2 MSTORE PUSH1 0x2 PUSH1 0x20 MSTORE PUSH1 0x40 SWAP1 KECCAK256 PUSH1 0x6 DUP2 ADD SLOAD PUSH1 0xFF AND PUSH2 0xC6B JUMPI PUSH1 0x40 MLOAD PUSH3 0x461BCD PUSH1 0xE5 SHL DUP2 MSTORE PUSH1 0x20 PUSH1 0x4 DUP3 ADD MSTORE PUSH1 0x12 PUSH1 0x24 DUP3 ADD MSTORE PUSH18 0x2737BA10309036B0B935B2BA1036B0B5B2B9 PUSH1 0x71 SHL PUSH1 0x44 DUP3 ADD MSTORE PUSH1 0x64 ADD PUSH2 0x87C JUMP JUMPDEST PUSH1 0xB SLOAD CALLER PUSH1 0x0 DUP2 DUP2 MSTORE PUSH1 0xE PUSH1 0x20 MSTORE PUSH1 0x40 DUP2 KECCAK256 SLOAD SWAP1 SWAP3 PUSH2 0xC8A SWAP3 SWAP2 PUSH2 0x1239 JUMP JUMPDEST PUSH1 0xC SLOAD CALLER PUSH1 0x0 DUP2 DUP2 MSTORE PUSH1 0xF PUSH1 0x20 MSTORE PUSH1 0x40 DUP2 KECCAK256 SLOAD SWAP4 SWAP5 POP SWAP3 PUSH2 0xCAB SWAP3 SWAP1 PUSH2 0x1239 JUMP JUMPDEST PUSH1 0xD SLOAD CALLER PUSH1 0x0 DUP2 DUP2 MSTORE PUSH1 0x10 PUSH1 0x20 MSTORE PUSH1 0x40 DUP2 KECCAK256 SLOAD SWAP4 SWAP5 POP SWAP3 PUSH2 0xCCC SWAP3 SWAP1 PUSH2 0x1239 JUMP JUMPDEST SWAP1 POP PUSH1 0x0 DUP2 PUSH2 0xCDB DUP5 DUP7 PUSH2 0x167B JUMP JUMPDEST PUSH2 0xCE5 SWAP2 SWAP1 PUSH2 0x167B JUMP JUMPDEST SWAP1 POP PUSH1 0x0 DUP2 GT PUSH2 0xD2C JUMPI PUSH1 0x40 MLOAD PUSH3 0x461BCD PUSH1 0xE5 SHL DUP2 MSTORE PUSH1 0x20 PUSH1 0x4 DUP3 ADD MSTORE PUSH1 0x12 PUSH1 0x24 DUP3 ADD MSTORE PUSH18 0x4E6F2070656E64696E6720726576656E7565 PUSH1 0x70 SHL PUSH1 0x44 DUP3 ADD MSTORE PUSH1 0x64 ADD PUSH2 0x87C JUMP JUMPDEST PUSH1 0xB SLOAD CALLER PUSH1 0x0 SWAP1 DUP2 MSTORE PUSH1 0xE PUSH1 0x20 SWAP1 DUP2 MSTORE PUSH1 0x40 DUP1 DUP4 KECCAK256 SWAP4 SWAP1 SWAP4 SSTORE PUSH1 0xC SLOAD PUSH1 0xF DUP3 MSTORE DUP4 DUP4 KECCAK256 SSTORE PUSH1 0xD SLOAD PUSH1 0x10 DUP3 MSTORE DUP4 DUP4 KECCAK256 SSTORE PUSH1 0x8 SWAP1 MSTORE SWAP1 DUP2 KECCAK256 DUP1 SLOAD DUP7 SWAP3 SWAP1 PUSH2 0xD72 SWAP1 DUP5 SWAP1 PUSH2 0x167B JUMP JUMPDEST SWAP1 SWAP2 SSTORE POP POP CALLER PUSH1 0x0 SWAP1 DUP2 MSTORE PUSH1 0x9 PUSH1 0x20 MSTORE PUSH1 0x40 DUP2 KECCAK256 DUP1 SLOAD DUP6 SWAP3 SWAP1 PUSH2 0xD96 SWAP1 DUP5 SWAP1 PUSH2 0x167B JUMP JUMPDEST SWAP1 SWAP2 SSTORE POP POP CALLER PUSH1 0x0 SWAP1 DUP2 MSTORE PUSH1 0xA PUSH1 0x20 MSTORE PUSH1 0x40 DUP2 KECCAK256 DUP1 SLOAD DUP5 SWAP3 SWAP1 PUSH2 0xDBA SWAP1 DUP5 SWAP1 PUSH2 0x167B JUMP JUMPDEST SWAP1 SWAP2 SSTORE POP PUSH2 0xDF4 SWAP1 POP PUSH1 0x1 PUSH1 0x1 PUSH1 0xA0 SHL SUB PUSH32 0x0 AND CALLER DUP4 PUSH2 0x1409 JUMP JUMPDEST PUSH1 0x40 DUP1 MLOAD DUP6 DUP2 MSTORE PUSH1 0x20 DUP2 ADD DUP6 SWAP1 MSTORE SWAP1 DUP2 ADD DUP4 SWAP1 MSTORE CALLER SWAP1 PUSH32 0xA6A733CA18BB5E607098E6D04401C6FC94564CBD5136E6974EEE691FC107D92F SWAP1 PUSH1 0x60 ADD PUSH1 0x40 MLOAD DUP1 SWAP2 SUB SWAP1 LOG2 POP POP POP POP POP PUSH2 0xE53 PUSH1 0x1 PUSH1 0x0 DUP1 MLOAD PUSH1 0x20 PUSH2 0x1750 DUP4 CODECOPY DUP2 MLOAD SWAP2 MSTORE SSTORE JUMP JUMPDEST JUMP JUMPDEST PUSH2 0xE5D PUSH2 0x120C JUMP JUMPDEST PUSH2 0xE53 PUSH1 0x0 PUSH2 0x143E JUMP JUMPDEST PUSH2 0xE6F PUSH2 0x120C JUMP JUMPDEST PUSH2 0xE77 PUSH2 0x127D JUMP JUMPDEST PUSH1 0x0 DUP2 GT PUSH2 0xE97 JUMPI PUSH1 0x40 MLOAD PUSH3 0x461BCD PUSH1 0xE5 SHL DUP2 MSTORE PUSH1 0x4 ADD PUSH2 0x87C SWAP1 PUSH2 0x1694 JUMP JUMPDEST PUSH1 0x0 PUSH1 0x4 SLOAD GT PUSH2 0xEB9 JUMPI PUSH1 0x40 MLOAD PUSH3 0x461BCD PUSH1 0xE5 SHL DUP2 MSTORE PUSH1 0x4 ADD PUSH2 0x87C SWAP1 PUSH2 0x16C0 JUMP JUMPDEST PUSH2 0xEEE PUSH1 0x1 PUSH1 0x1 PUSH1 0xA0 SHL SUB PUSH32 0x0 AND CALLER ADDRESS DUP5 PUSH2 0x1299 JUMP JUMPDEST DUP1 PUSH1 0x5 PUSH1 0x0 DUP3 DUP3 SLOAD PUSH2 0xF00 SWAP2 SWAP1 PUSH2 0x167B JUMP JUMPDEST SWAP1 SWAP2 SSTORE POP POP PUSH1 0x4 SLOAD PUSH2 0xF1A DUP3 PUSH8 0xDE0B6B3A7640000 PUSH2 0x16EA JUMP JUMPDEST PUSH2 0xF24 SWAP2 SWAP1 PUSH2 0x1701 JUMP JUMPDEST PUSH1 0xB PUSH1 0x0 DUP3 DUP3 SLOAD PUSH2 0xF35 SWAP2 SWAP1 PUSH2 0x167B JUMP JUMPDEST SWAP1 SWAP2 SSTORE POP POP PUSH1 0x40 MLOAD DUP2 DUP2 MSTORE PUSH32 0xE82491C23D04C707994E3C317B3491F6352943B0E1B0C9C2A6F236E98FAB5B2E SWAP1 PUSH1 0x20 ADD PUSH2 0x954 JUMP JUMPDEST PUSH2 0xF72 PUSH2 0x120C JUMP JUMPDEST PUSH1 0x1 PUSH1 0x1 PUSH1 0xA0 SHL SUB DUP1 DUP4 AND PUSH1 0x0 SWAP1 DUP2 MSTORE PUSH1 0x2 PUSH1 0x20 MSTORE PUSH1 0x40 SWAP1 KECCAK256 DUP1 SLOAD SWAP1 SWAP2 AND PUSH2 0x107A JUMPI PUSH1 0x40 DUP1 MLOAD PUSH1 0xE0 DUP2 ADD DUP3 MSTORE PUSH1 0x1 PUSH1 0x1 PUSH1 0xA0 SHL SUB DUP1 DUP7 AND DUP1 DUP4 MSTORE PUSH1 0x0 PUSH1 0x20 DUP1 DUP6 ADD DUP3 DUP2 MSTORE DUP6 DUP8 ADD DUP4 DUP2 MSTORE PUSH1 0x60 DUP8 ADD DUP5 DUP2 MSTORE PUSH1 0x80 DUP9 ADD DUP12 DUP2 MSTORE PUSH1 0xA0 DUP10 ADD DUP7 DUP2 MSTORE PUSH1 0xC0 DUP11 ADD DUP8 DUP2 MSTORE DUP9 DUP9 MSTORE PUSH1 0x2 SWAP7 DUP8 SWAP1 MSTORE SWAP11 DUP8 KECCAK256 SWAP10 MLOAD DUP11 SLOAD SWAP10 AND PUSH1 0x1 PUSH1 0x1 PUSH1 0xA0 SHL SUB NOT SWAP10 DUP11 AND OR DUP11 SSTORE SWAP4 MLOAD PUSH1 0x1 DUP11 DUP2 ADD SWAP2 SWAP1 SWAP2 SSTORE SWAP3 MLOAD SWAP5 DUP10 ADD SWAP5 SWAP1 SWAP5 SSTORE MLOAD PUSH1 0x3 DUP1 DUP10 ADD SWAP2 SWAP1 SWAP2 SSTORE SWAP3 MLOAD PUSH1 0x4 DUP9 ADD SSTORE SWAP1 MLOAD PUSH1 0x5 DUP8 ADD SSTORE SWAP6 MLOAD PUSH1 0x6 SWAP1 SWAP6 ADD DUP1 SLOAD SWAP6 ISZERO ISZERO PUSH1 0xFF NOT SWAP1 SWAP7 AND SWAP6 SWAP1 SWAP6 OR SWAP1 SWAP5 SSTORE DUP4 SLOAD SWAP5 DUP6 ADD DUP5 SSTORE SWAP3 SWAP1 SWAP3 MSTORE PUSH32 0xC2575A0E9E593C00F959F8C92F12DB2869C3395A3B0502D05E2516446F71F85B SWAP1 SWAP3 ADD DUP1 SLOAD SWAP1 SWAP3 AND OR SWAP1 SSTORE PUSH2 0x1082 JUMP JUMPDEST PUSH1 0x4 DUP2 ADD DUP3 SWAP1 SSTORE JUMPDEST DUP3 PUSH1 0x1 PUSH1 0x1 PUSH1 0xA0 SHL SUB AND PUSH32 0x7D87BC50CF053ABB35F16FE25ABD21F8FF89F332359DDDE7475C84424D492AEF DUP4 PUSH1 0x40 MLOAD PUSH2 0x10BD SWAP2 DUP2 MSTORE PUSH1 0x20 ADD SWAP1 JUMP JUMPDEST PUSH1 0x40 MLOAD DUP1 SWAP2 SUB SWAP1 LOG2 PUSH2 0x6D7 DUP4 PUSH2 0x12CF JUMP JUMPDEST PUSH2 0x10D6 PUSH2 0x120C JUMP JUMPDEST PUSH2 0x10DE PUSH2 0x127D JUMP JUMPDEST PUSH1 0x0 DUP2 GT PUSH2 0x10FE JUMPI PUSH1 0x40 MLOAD PUSH3 0x461BCD PUSH1 0xE5 SHL DUP2 MSTORE PUSH1 0x4 ADD PUSH2 0x87C SWAP1 PUSH2 0x1694 JUMP JUMPDEST PUSH1 0x0 PUSH1 0x4 SLOAD GT PUSH2 0x1120 JUMPI PUSH1 0x40 MLOAD PUSH3 0x461BCD PUSH1 0xE5 SHL DUP2 MSTORE PUSH1 0x4 ADD PUSH2 0x87C SWAP1 PUSH2 0x16C0 JUMP JUMPDEST PUSH2 0x1155 PUSH1 0x1 PUSH1 0x1 PUSH1 0xA0 SHL SUB PUSH32 0x0 AND CALLER ADDRESS DUP5 PUSH2 0x1299 JUMP JUMPDEST DUP1 PUSH1 0x7 PUSH1 0x0 DUP3 DUP3 SLOAD PUSH2 0x1167 SWAP2 SWAP1 PUSH2 0x167B JUMP JUMPDEST SWAP1 SWAP2 SSTORE POP POP PUSH1 0x4 SLOAD PUSH2 0x1181 DUP3 PUSH8 0xDE0B6B3A7640000 PUSH2 0x16EA JUMP JUMPDEST PUSH2 0x118B SWAP2 SWAP1 PUSH2 0x1701 JUMP JUMPDEST PUSH1 0xD PUSH1 0x0 DUP3 DUP3 SLOAD PUSH2 0x119C SWAP2 SWAP1 PUSH2 0x167B JUMP JUMPDEST SWAP1 SWAP2 SSTORE POP POP PUSH1 0x40 MLOAD DUP2 DUP2 MSTORE PUSH32 0x191BEA3DE290798F6F3E519F45907C8501E9925B163BBDCE5D2942DBEF1BEBB5 SWAP1 PUSH1 0x20 ADD PUSH2 0x954 JUMP JUMPDEST PUSH2 0x11D9 PUSH2 0x120C JUMP JUMPDEST PUSH1 0x1 PUSH1 0x1 PUSH1 0xA0 SHL SUB DUP2 AND PUSH2 0x1203 JUMPI PUSH1 0x40 MLOAD PUSH4 0x1E4FBDF7 PUSH1 0xE0 SHL DUP2 MSTORE PUSH1 0x0 PUSH1 0x4 DUP3 ADD MSTORE PUSH1 0x24 ADD PUSH2 0x87C JUMP JUMPDEST PUSH2 0x973 DUP2 PUSH2 0x143E JUMP JUMPDEST PUSH1 0x0 SLOAD PUSH1 0x1 PUSH1 0x1 PUSH1 0xA0 SHL SUB AND CALLER EQ PUSH2 0xE53 JUMPI PUSH1 0x40 MLOAD PUSH4 0x118CDAA7 PUSH1 0xE0 SHL DUP2 MSTORE CALLER PUSH1 0x4 DUP3 ADD MSTORE PUSH1 0x24 ADD PUSH2 0x87C JUMP JUMPDEST PUSH1 0x0 DUP2 DUP4 LT ISZERO PUSH2 0x124B JUMPI POP PUSH1 0x0 PUSH2 0x1276 JUMP JUMPDEST PUSH8 0xDE0B6B3A7640000 PUSH2 0x125E DUP4 DUP6 PUSH2 0x1723 JUMP JUMPDEST PUSH2 0x1269 SWAP1 PUSH1 0x1 PUSH2 0x16EA JUMP JUMPDEST PUSH2 0x1273 SWAP2 SWAP1 PUSH2 0x1701 JUMP JUMPDEST SWAP1 POP JUMPDEST SWAP4 SWAP3 POP POP POP JUMP JUMPDEST PUSH2 0x1285 PUSH2 0x148E JUMP JUMPDEST PUSH1 0x2 PUSH1 0x0 DUP1 MLOAD PUSH1 0x20 PUSH2 0x1750 DUP4 CODECOPY DUP2 MLOAD SWAP2 MSTORE SSTORE JUMP JUMPDEST PUSH2 0x12A7 DUP5 DUP5 DUP5 DUP5 PUSH1 0x1 PUSH2 0x14BE JUMP JUMPDEST PUSH2 0xBDB JUMPI PUSH1 0x40 MLOAD PUSH4 0x5274AFE7 PUSH1 0xE0 SHL DUP2 MSTORE PUSH1 0x1 PUSH1 0x1 PUSH1 0xA0 SHL SUB DUP6 AND PUSH1 0x4 DUP3 ADD MSTORE PUSH1 0x24 ADD PUSH2 0x87C JUMP JUMPDEST PUSH1 0x1 PUSH1 0x1 PUSH1 0xA0 SHL SUB DUP2 AND PUSH1 0x0 SWAP1 DUP2 MSTORE PUSH1 0x2 PUSH1 0x20 MSTORE PUSH1 0x40 SWAP1 KECCAK256 PUSH1 0x6 DUP2 ADD SLOAD PUSH1 0xFF AND ISZERO PUSH2 0x12F8 JUMPI POP POP JUMP JUMPDEST PUSH1 0x0 PUSH1 0xA DUP3 PUSH1 0x2 ADD SLOAD LT ISZERO DUP1 ISZERO PUSH2 0x131C JUMPI POP PUSH9 0x6C6B935B8BBD400000 DUP3 PUSH1 0x3 ADD SLOAD LT ISZERO JUMPDEST PUSH1 0x4 DUP4 ADD SLOAD SWAP1 SWAP2 POP PUSH9 0x1B1AE4D6E2EF500000 GT ISZERO DUP2 DUP1 PUSH2 0x1339 JUMPI POP DUP1 JUMPDEST ISZERO PUSH2 0xBDB JUMPI PUSH1 0x6 DUP4 ADD DUP1 SLOAD PUSH1 0xFF NOT AND PUSH1 0x1 SWAP1 DUP2 OR SWAP1 SWAP2 SSTORE TIMESTAMP SWAP1 DUP5 ADD SSTORE DUP2 PUSH2 0x1361 JUMPI PUSH1 0x2 PUSH2 0x1364 JUMP JUMPDEST PUSH1 0x1 JUMPDEST PUSH1 0xFF AND PUSH1 0x5 DUP5 ADD SSTORE PUSH1 0x4 DUP1 SLOAD SWAP1 PUSH1 0x0 PUSH2 0x137C DUP4 PUSH2 0x1736 JUMP JUMPDEST SWAP1 SWAP2 SSTORE POP POP PUSH1 0xB SLOAD PUSH1 0x1 PUSH1 0x1 PUSH1 0xA0 SHL SUB DUP6 AND PUSH1 0x0 DUP2 DUP2 MSTORE PUSH1 0xE PUSH1 0x20 SWAP1 DUP2 MSTORE PUSH1 0x40 DUP1 DUP4 KECCAK256 SWAP5 SWAP1 SWAP5 SSTORE PUSH1 0xC SLOAD PUSH1 0xF DUP3 MSTORE DUP5 DUP4 KECCAK256 SSTORE PUSH1 0xD SLOAD PUSH1 0x10 SWAP1 SWAP2 MSTORE SWAP1 DUP4 SWAP1 KECCAK256 SSTORE PUSH1 0x5 DUP6 ADD SLOAD SWAP2 MLOAD SWAP1 SWAP2 PUSH32 0x24372A8BDC6136CFCCD21EE8DC521CC7B3F257F636F4F82234C52AD28F9EFF42 SWAP2 PUSH2 0x13FB SWAP2 SWAP1 TIMESTAMP SWAP1 SWAP2 DUP3 MSTORE PUSH1 0x20 DUP3 ADD MSTORE PUSH1 0x40 ADD SWAP1 JUMP JUMPDEST PUSH1 0x40 MLOAD DUP1 SWAP2 SUB SWAP1 LOG2 POP POP POP POP JUMP JUMPDEST PUSH2 0x1416 DUP4 DUP4 DUP4 PUSH1 0x1 PUSH2 0x1530 JUMP JUMPDEST PUSH2 0x6D7 JUMPI PUSH1 0x40 MLOAD PUSH4 0x5274AFE7 PUSH1 0xE0 SHL DUP2 MSTORE PUSH1 0x1 PUSH1 0x1 PUSH1 0xA0 SHL SUB DUP5 AND PUSH1 0x4 DUP3 ADD MSTORE PUSH1 0x24 ADD PUSH2 0x87C JUMP JUMPDEST PUSH1 0x0 DUP1 SLOAD PUSH1 0x1 PUSH1 0x1 PUSH1 0xA0 SHL SUB DUP4 DUP2 AND PUSH1 0x1 PUSH1 0x1 PUSH1 0xA0 SHL SUB NOT DUP4 AND DUP2 OR DUP5 SSTORE PUSH1 0x40 MLOAD SWAP2 SWAP1 SWAP3 AND SWAP3 DUP4 SWAP2 PUSH32 0x8BE0079C531659141344CD1FD0A4F28419497F9722A3DAAFE3B4186F6B6457E0 SWAP2 SWAP1 LOG3 POP POP JUMP JUMPDEST PUSH1 0x0 DUP1 MLOAD PUSH1 0x20 PUSH2 0x1750 DUP4 CODECOPY DUP2 MLOAD SWAP2 MSTORE SLOAD PUSH1 0x2 SUB PUSH2 0xE53 JUMPI PUSH1 0x40 MLOAD PUSH4 0x3EE5AEB5 PUSH1 0xE0 SHL DUP2 MSTORE PUSH1 0x4 ADD PUSH1 0x40 MLOAD DUP1 SWAP2 SUB SWAP1 REVERT JUMPDEST PUSH1 0x40 MLOAD PUSH4 0x23B872DD PUSH1 0xE0 SHL PUSH1 0x0 DUP2 DUP2 MSTORE PUSH1 0x1 PUSH1 0x1 PUSH1 0xA0 SHL SUB DUP8 DUP2 AND PUSH1 0x4 MSTORE DUP7 AND PUSH1 0x24 MSTORE PUSH1 0x44 DUP6 SWAP1 MSTORE SWAP2 PUSH1 0x20 DUP4 PUSH1 0x64 DUP2 DUP1 DUP13 GAS CALL SWAP3 POP PUSH1 0x1 PUSH1 0x0 MLOAD EQ DUP4 AND PUSH2 0x151E JUMPI DUP4 DUP4 ISZERO AND ISZERO PUSH2 0x1511 JUMPI RETURNDATASIZE PUSH1 0x0 DUP3 RETURNDATACOPY RETURNDATASIZE DUP2 REVERT JUMPDEST PUSH1 0x0 DUP9 EXTCODESIZE GT RETURNDATASIZE ISZERO AND DUP4 AND SWAP3 POP JUMPDEST PUSH1 0x40 MSTORE POP PUSH1 0x0 PUSH1 0x60 MSTORE SWAP6 SWAP5 POP POP POP POP POP JUMP JUMPDEST PUSH1 0x40 MLOAD PUSH4 0xA9059CBB PUSH1 0xE0 SHL PUSH1 0x0 DUP2 DUP2 MSTORE PUSH1 0x1 PUSH1 0x1 PUSH1 0xA0 SHL SUB DUP7 AND PUSH1 0x4 MSTORE PUSH1 0x24 DUP6 SWAP1 MSTORE SWAP2 PUSH1 0x20 DUP4 PUSH1 0x44 DUP2 DUP1 DUP12 GAS CALL SWAP3 POP PUSH1 0x1 PUSH1 0x0 MLOAD EQ DUP4 AND PUSH2 0x158A JUMPI DUP4 DUP4 ISZERO AND ISZERO PUSH2 0x157D JUMPI RETURNDATASIZE PUSH1 0x0 DUP3 RETURNDATACOPY RETURNDATASIZE DUP2 REVERT JUMPDEST PUSH1 0x0 DUP8 EXTCODESIZE GT RETURNDATASIZE ISZERO AND DUP4 AND SWAP3 POP JUMPDEST PUSH1 0x40 MSTORE POP SWAP5 SWAP4 POP POP POP POP JUMP JUMPDEST DUP1 CALLDATALOAD PUSH1 0x1 PUSH1 0x1 PUSH1 0xA0 SHL SUB DUP2 AND DUP2 EQ PUSH2 0x15AD JUMPI PUSH1 0x0 DUP1 REVERT JUMPDEST SWAP2 SWAP1 POP JUMP JUMPDEST PUSH1 0x0 PUSH1 0x20 DUP3 DUP5 SUB SLT ISZERO PUSH2 0x15C4 JUMPI PUSH1 0x0 DUP1 REVERT JUMPDEST PUSH2 0x1276 DUP3 PUSH2 0x1596 JUMP JUMPDEST PUSH1 0x0 DUP1 PUSH1 0x40 DUP4 DUP6 SUB SLT ISZERO PUSH2 0x15E0 JUMPI PUSH1 0x0 DUP1 REVERT JUMPDEST PUSH2 0x15E9 DUP4 PUSH2 0x1596 JUMP JUMPDEST SWAP5 PUSH1 0x20 SWAP4 SWAP1 SWAP4 ADD CALLDATALOAD SWAP4 POP POP POP JUMP JUMPDEST PUSH1 0x0 PUSH1 0x20 DUP3 DUP5 SUB SLT ISZERO PUSH2 0x1609 JUMPI PUSH1 0x0 DUP1 REVERT JUMPDEST POP CALLDATALOAD SWAP2 SWAP1 POP JUMP JUMPDEST PUSH1 0x0 DUP1 PUSH1 0x0 PUSH1 0x60 DUP5 DUP7 SUB SLT ISZERO PUSH2 0x1625 JUMPI PUSH1 0x0 DUP1 REVERT JUMPDEST PUSH2 0x162E DUP5 PUSH2 0x1596 JUMP JUMPDEST SWAP6 PUSH1 0x20 DUP6 ADD CALLDATALOAD SWAP6 POP PUSH1 0x40 SWAP1 SWAP5 ADD CALLDATALOAD SWAP4 SWAP3 POP POP POP JUMP JUMPDEST PUSH1 0x0 PUSH1 0x20 DUP3 DUP5 SUB SLT ISZERO PUSH2 0x1655 JUMPI PUSH1 0x0 DUP1 REVERT JUMPDEST DUP2 MLOAD DUP1 ISZERO ISZERO DUP2 EQ PUSH2 0x1276 JUMPI PUSH1 0x0 DUP1 REVERT JUMPDEST PUSH4 0x4E487B71 PUSH1 0xE0 SHL PUSH1 0x0 MSTORE PUSH1 0x11 PUSH1 0x4 MSTORE PUSH1 0x24 PUSH1 0x0 REVERT JUMPDEST DUP1 DUP3 ADD DUP1 DUP3 GT ISZERO PUSH2 0x168E JUMPI PUSH2 0x168E PUSH2 0x1665 JUMP JUMPDEST SWAP3 SWAP2 POP POP JUMP JUMPDEST PUSH1 0x20 DUP1 DUP3 MSTORE PUSH1 0x12 SWAP1 DUP3 ADD MSTORE PUSH18 0x416D6F756E74206D757374206265203E203 PUSH1 0x74 SHL PUSH1 0x40 DUP3 ADD MSTORE PUSH1 0x60 ADD SWAP1 JUMP JUMPDEST PUSH1 0x20 DUP1 DUP3 MSTORE PUSH1 0x10 SWAP1 DUP3 ADD MSTORE PUSH16 0x4E6F206D61726B6574206D616B657273 PUSH1 0x80 SHL PUSH1 0x40 DUP3 ADD MSTORE PUSH1 0x60 ADD SWAP1 JUMP JUMPDEST DUP1 DUP3 MUL DUP2 ISZERO DUP3 DUP3 DIV DUP5 EQ OR PUSH2 0x168E JUMPI PUSH2 0x168E PUSH2 0x1665 JUMP JUMPDEST PUSH1 0x0 DUP3 PUSH2 0x171E JUMPI PUSH4 0x4E487B71 PUSH1 0xE0 SHL PUSH1 0x0 MSTORE PUSH1 0x12 PUSH1 0x4 MSTORE PUSH1 0x24 PUSH1 0x0 REVERT JUMPDEST POP DIV SWAP1 JUMP JUMPDEST DUP2 DUP2 SUB DUP2 DUP2 GT ISZERO PUSH2 0x168E JUMPI PUSH2 0x168E PUSH2 0x1665 JUMP JUMPDEST PUSH1 0x0 PUSH1 0x1 DUP3 ADD PUSH2 0x1748 JUMPI PUSH2 0x1748 PUSH2 0x1665 JUMP JUMPDEST POP PUSH1 0x1 ADD SWAP1 JUMP INVALID SWAP12 PUSH24 0x9B17422D0DF92223018B32B4D1FA46E071723D6817E2486D STOP EXTCODESIZE 0xEC 0xC5 PUSH0 STOP LOG2 PUSH5 0x6970667358 0x22 SLT KECCAK256 0xC1 OR RETURNDATACOPY 0xD4 0xD6 0xEA PUSH27 0xB0988B6DBCD542A7A875B8634517AC52B058051B8FD01964956473 PUSH16 0x6C634300081800330000000000000000 "},"methodIdentifiers":{"FEE_SHARE_RATE()":"d07c09bc","MIN_DIRECT_REFERRALS()":"35ed6300","MIN_TEAM_VOLUME()":"be131697","MIN_VIP_INCOME()":"12eef0f3","VOLUME_SHARE_RATE()":"e38e7ca1","claimRevenue()":"564f4f76","claimedFeeRevenue(address)":"45de52e5","claimedVIPRevenue(address)":"60d5fdf9","claimedVolumeRevenue(address)":"f42edb98","distributeFeeRevenue(uint256)":"2e8f119c","distributeVIPRevenue(uint256)":"81e865c0","distributeVolumeRevenue(uint256)":"75774e09","feeAccumulator()":"5eaea35f","getMarketMakerInfo(address)":"10fdedbd","getPendingRevenue(address)":"220cadbe","getQualificationProgress(address)":"33a7c2b6","getTotalMarketMakers()":"c4a5d1f2","marketMakerList(uint256)":"45ad2396","marketMakers(address)":"f60559eb","owner()":"8da5cb5b","predictionMarket()":"def114b6","recoverTokens(address,uint256)":"069c9fae","renounceOwnership()":"715018a6","setPredictionMarket(address)":"03b88ba2","tft()":"5fbd83f4","totalFeeRevenue()":"2b023642","totalMarketMakers()":"1149edf9","totalVIPRevenue()":"78ce0ba7","totalVolumeRevenue()":"88a62ffc","transferOwnership(address)":"f2fde38b","updateReferralMetrics(address,uint256,uint256)":"3be189ea","updateVIPIncome(address,uint256)":"81b7911b","usdt()":"2f48ab7d","userFeeDebt(address)":"77ccc87c","userVIPDebt(address)":"b58ea07d","userVolumeDebt(address)":"f51ae93e","vipAccumulator()":"2283ed7d","volumeAccumulator()":"87f105be"}}}}}