{"src/VIPSystem.sol":{"VIPSystem":{"abi":[{"inputs":[{"internalType":"address","name":"_usdt","type":"address"},{"internalType":"address","name":"_tft","type":"address"},{"internalType":"address","name":"_nodePool","type":"address"},{"internalType":"address","name":"_operationsWallet","type":"address"},{"internalType":"address","name":"_marketMakerPool","type":"address"},{"internalType":"address","name":"_priceOracle","type":"address"}],"stateMutability":"nonpayable","type":"constructor"},{"inputs":[{"internalType":"address","name":"owner","type":"address"}],"name":"OwnableInvalidOwner","type":"error"},{"inputs":[{"internalType":"address","name":"account","type":"address"}],"name":"OwnableUnauthorizedAccount","type":"error"},{"inputs":[],"name":"ReentrancyGuardReentrantCall","type":"error"},{"inputs":[{"internalType":"address","name":"token","type":"address"}],"name":"SafeERC20FailedOperation","type":"error"},{"anonymous":false,"inputs":[{"indexed":true,"internalType":"address","name":"user","type":"address"},{"indexed":false,"internalType":"uint256","name":"amount","type":"uint256"}],"name":"DirectRewardClaimed","type":"event"},{"anonymous":false,"inputs":[{"indexed":true,"internalType":"address","name":"previousOwner","type":"address"},{"indexed":true,"internalType":"address","name":"newOwner","type":"address"}],"name":"OwnershipTransferred","type":"event"},{"anonymous":false,"inputs":[{"indexed":true,"internalType":"address","name":"user","type":"address"},{"indexed":true,"internalType":"address","name":"referrer","type":"address"},{"indexed":false,"internalType":"uint256","name":"level","type":"uint256"}],"name":"ReferralRegistered","type":"event"},{"anonymous":false,"inputs":[{"indexed":true,"internalType":"address","name":"user","type":"address"},{"indexed":false,"internalType":"uint256","name":"reinvestAmount","type":"uint256"},{"indexed":false,"internalType":"uint256","name":"withdrawableAmount","type":"uint256"}],"name":"ReinvestmentTriggered","type":"event"},{"anonymous":false,"inputs":[{"indexed":true,"internalType":"address","name":"user","type":"address"},{"indexed":false,"internalType":"uint256","name":"amount","type":"uint256"}],"name":"SeePointRewardClaimed","type":"event"},{"anonymous":false,"inputs":[{"indexed":true,"internalType":"address","name":"user","type":"address"},{"indexed":false,"internalType":"uint256","name":"level","type":"uint256"},{"indexed":false,"internalType":"uint256","name":"amount","type":"uint256"}],"name":"SeePointRewardDistributed","type":"event"},{"anonymous":false,"inputs":[{"indexed":false,"internalType":"uint256","name":"newPrice","type":"uint256"}],"name":"TFTPriceUpdated","type":"event"},{"anonymous":false,"inputs":[{"indexed":true,"internalType":"address","name":"user","type":"address"},{"indexed":true,"internalType":"address","name":"referrer","type":"address"},{"indexed":false,"internalType":"uint256","name":"tftReturned","type":"uint256"}],"name":"VIPActivated","type":"event"},{"inputs":[],"name":"DIRECT_REFERRAL_REWARD","outputs":[{"internalType":"uint256","name":"","type":"uint256"}],"stateMutability":"view","type":"function"},{"inputs":[],"name":"MAX_REFERRAL_LEVELS","outputs":[{"internalType":"uint256","name":"","type":"uint256"}],"stateMutability":"view","type":"function"},{"inputs":[],"name":"REINVEST_AMOUNT","outputs":[{"internalType":"uint256","name":"","type":"uint256"}],"stateMutability":"view","type":"function"},{"inputs":[],"name":"REINVEST_THRESHOLD","outputs":[{"internalType":"uint256","name":"","type":"uint256"}],"stateMutability":"view","type":"function"},{"inputs":[],"name":"RETURN_RATIO","outputs":[{"internalType":"uint256","name":"","type":"uint256"}],"stateMutability":"view","type":"function"},{"inputs":[],"name":"SEE_POINT_REWARD","outputs":[{"internalType":"uint256","name":"","type":"uint256"}],"stateMutability":"view","type":"function"},{"inputs":[],"name":"VIP_ACTIVATION_FEE","outputs":[{"internalType":"uint256","name":"","type":"uint256"}],"stateMutability":"view","type":"function"},{"inputs":[{"internalType":"address","name":"referrer","type":"address"}],"name":"activateVIP","outputs":[],"stateMutability":"nonpayable","type":"function"},{"inputs":[],"name":"burnAddress","outputs":[{"internalType":"address","name":"","type":"address"}],"stateMutability":"view","type":"function"},{"inputs":[{"internalType":"uint256","name":"usdtAmount","type":"uint256"}],"name":"calculateTFTReturn","outputs":[{"internalType":"uint256","name":"","type":"uint256"}],"stateMutability":"view","type":"function"},{"inputs":[{"internalType":"address","name":"user","type":"address"}],"name":"canReinvest","outputs":[{"internalType":"bool","name":"","type":"bool"}],"stateMutability":"view","type":"function"},{"inputs":[],"name":"claimDirectReward","outputs":[],"stateMutability":"nonpayable","type":"function"},{"inputs":[],"name":"claimSeePointReward","outputs":[],"stateMutability":"nonpayable","type":"function"},{"inputs":[{"internalType":"address","name":"user","type":"address"}],"name":"getDirectReferrals","outputs":[{"internalType":"address[]","name":"","type":"address[]"}],"stateMutability":"view","type":"function"},{"inputs":[{"internalType":"address","name":"user","type":"address"}],"name":"getReferralChain","outputs":[{"internalType":"address[]","name":"chain","type":"address[]"}],"stateMutability":"view","type":"function"},{"inputs":[{"internalType":"address","name":"user","type":"address"}],"name":"getVIPInfo","outputs":[{"internalType":"bool","name":"isVIP","type":"bool"},{"internalType":"uint256","name":"activatedAt","type":"uint256"},{"internalType":"address","name":"referrer","type":"address"},{"internalType":"uint256","name":"totalDirectReferrals","type":"uint256"},{"internalType":"uint256","name":"totalSeePointEarned","type":"uint256"},{"internalType":"uint256","name":"pendingSeePoint","type":"uint256"}],"stateMutability":"view","type":"function"},{"inputs":[{"internalType":"address","name":"user","type":"address"}],"name":"getVIPRewards","outputs":[{"internalType":"uint256","name":"pendingDirectReward","type":"uint256"},{"internalType":"bool","name":"reinvestTriggered","type":"bool"},{"internalType":"uint256","name":"lastReinvestTime","type":"uint256"},{"internalType":"bool","name":"canReinvest","type":"bool"}],"stateMutability":"view","type":"function"},{"inputs":[],"name":"marketMakerPool","outputs":[{"internalType":"address","name":"","type":"address"}],"stateMutability":"view","type":"function"},{"inputs":[],"name":"nodePool","outputs":[{"internalType":"address","name":"","type":"address"}],"stateMutability":"view","type":"function"},{"inputs":[],"name":"operationsWallet","outputs":[{"internalType":"address","name":"","type":"address"}],"stateMutability":"view","type":"function"},{"inputs":[],"name":"owner","outputs":[{"internalType":"address","name":"","type":"address"}],"stateMutability":"view","type":"function"},{"inputs":[{"internalType":"address","name":"","type":"address"}],"name":"pendingDirectRewards","outputs":[{"internalType":"uint256","name":"","type":"uint256"}],"stateMutability":"view","type":"function"},{"inputs":[],"name":"priceOracle","outputs":[{"internalType":"address","name":"","type":"address"}],"stateMutability":"view","type":"function"},{"inputs":[{"internalType":"address","name":"","type":"address"},{"internalType":"uint256","name":"","type":"uint256"}],"name":"referrals","outputs":[{"internalType":"address","name":"","type":"address"}],"stateMutability":"view","type":"function"},{"inputs":[],"name":"reinvest","outputs":[],"stateMutability":"nonpayable","type":"function"},{"inputs":[],"name":"renounceOwnership","outputs":[],"stateMutability":"nonpayable","type":"function"},{"inputs":[{"internalType":"address","name":"_oracle","type":"address"}],"name":"setPriceOracle","outputs":[],"stateMutability":"nonpayable","type":"function"},{"inputs":[{"internalType":"uint256","name":"_price","type":"uint256"}],"name":"setTFTPrice","outputs":[],"stateMutability":"nonpayable","type":"function"},{"inputs":[],"name":"tft","outputs":[{"internalType":"contract IERC20","name":"","type":"address"}],"stateMutability":"view","type":"function"},{"inputs":[],"name":"tftPriceInUSDT","outputs":[{"internalType":"uint256","name":"","type":"uint256"}],"stateMutability":"view","type":"function"},{"inputs":[],"name":"totalDirectRewardsDistributed","outputs":[{"internalType":"uint256","name":"","type":"uint256"}],"stateMutability":"view","type":"function"},{"inputs":[],"name":"totalReinvestments","outputs":[{"internalType":"uint256","name":"","type":"uint256"}],"stateMutability":"view","type":"function"},{"inputs":[],"name":"totalSeePointRewardsDistributed","outputs":[{"internalType":"uint256","name":"","type":"uint256"}],"stateMutability":"view","type":"function"},{"inputs":[],"name":"totalVIPs","outputs":[{"internalType":"uint256","name":"","type":"uint256"}],"stateMutability":"view","type":"function"},{"inputs":[{"internalType":"address","name":"newOwner","type":"address"}],"name":"transferOwnership","outputs":[],"stateMutability":"nonpayable","type":"function"},{"inputs":[{"internalType":"address","name":"_nodePool","type":"address"},{"internalType":"address","name":"_operationsWallet","type":"address"},{"internalType":"address","name":"_marketMakerPool","type":"address"}],"name":"updateAddresses","outputs":[],"stateMutability":"nonpayable","type":"function"},{"inputs":[],"name":"usdt","outputs":[{"internalType":"contract IERC20","name":"","type":"address"}],"stateMutability":"view","type":"function"},{"inputs":[{"internalType":"address","name":"","type":"address"}],"name":"vipUsers","outputs":[{"internalType":"bool","name":"isVIP","type":"bool"},{"internalType":"uint256","name":"activatedAt","type":"uint256"},{"internalType":"address","name":"referrer","type":"address"},{"internalType":"uint256","name":"totalDirectReferrals","type":"uint256"},{"internalType":"uint256","name":"totalSeePointEarned","type":"uint256"},{"internalType":"uint256","name":"pendingSeePoint","type":"uint256"},{"internalType":"bool","name":"reinvestTriggered","type":"bool"},{"internalType":"uint256","name":"lastReinvestTime","type":"uint256"}],"stateMutability":"view","type":"function"}],"evm":{"bytecode":{"linkReferences":{},"object":"6080604052662386f26fc10000600f553480156200001c57600080fd5b5060405162001cb938038062001cb98339810160408190526200003f9162000183565b33806200006657604051631e4fbdf760e01b81526000600482015260240160405180910390fd5b620000718162000116565b5060017f9b779b17422d0df92223018b32b4d1fa46e071723d6817e2486d003becc55f0055600180546001600160a01b03199081166001600160a01b03988916179091556002805482169688169690961790955560038054861694871694909417909355600480548516928616929092179091556005805484169185169190911790556006805461dead90841617905560078054909216921691909117905562000204565b600080546001600160a01b038381166001600160a01b0319831681178455604051919092169283917f8be0079c531659141344cd1fd0a4f28419497f9722a3daafe3b4186f6b6457e09190a35050565b80516001600160a01b03811681146200017e57600080fd5b919050565b60008060008060008060c087890312156200019d57600080fd5b620001a88762000166565b9550620001b86020880162000166565b9450620001c86040880162000166565b9350620001d86060880162000166565b9250620001e86080880162000166565b9150620001f860a0880162000166565b90509295509295509295565b611aa580620002146000396000f3fe608060405234801561001057600080fd5b50600436106102325760003560e01c8063930b95b211610130578063d2c8e0e5116100b8578063e8a895ea1161007c578063e8a895ea146105b1578063ec0c1904146105bb578063f2fde38b146105c6578063fd72e22a146105d9578063fdb5a03e146105ec57600080fd5b8063d2c8e0e5146104d2578063d85ad4cb146104e5578063d8f1f8f4146104f8578063e697b5d81461050b578063e83c41481461051e57600080fd5b8063b2ec26ca116100ff578063b2ec26ca14610482578063b6356c95146104a5578063b6537080146104ae578063be3b333a146104b7578063cd5995d1146104bf57600080fd5b8063930b95b214610237578063998489be146104655780639ecc458d14610470578063a998c7d71461047957600080fd5b80635fbd83f4116101be5780636f38bcb5116101825780636f38bcb5146103e457806370d5ae0514610404578063715018a6146104175780638da5cb5b1461041f5780638e65ff881461043057600080fd5b80635fbd83f414610397578063617b99d2146103aa5780636667864d146103b25780636d06175a146103d25780636d27f5b9146103db57600080fd5b8063334c143911610205578063334c14391461029d5780633b39d547146102b0578063421a9ab1146102c35780634513443a14610371578063530e784f1461038457600080fd5b80630c3ce2d11461023757806312453be7146102555780632630c12f1461025f5780632f48ab7d1461028a575b600080fd5b6102426305f5e10081565b6040519081526020015b60405180910390f35b61025d6105f4565b005b600754610272906001600160a01b031681565b6040516001600160a01b03909116815260200161024c565b600154610272906001600160a01b031681565b61025d6102ab3660046118a0565b6106da565b61025d6102be3660046118e3565b610721565b6103266102d13660046118fc565b6008602052600090815260409020805460018201546002830154600384015460048501546005860154600687015460079097015460ff9687169795966001600160a01b03909516959394929391929091169088565b60408051981515895260208901979097526001600160a01b03909516958701959095526060860192909252608085015260a084015290151560c083015260e08201526101000161024c565b600554610272906001600160a01b031681565b61025d6103923660046118fc565b6107a4565b600254610272906001600160a01b031681565b610242601481565b6103c56103c03660046118fc565b6107ce565b60405161024c919061191e565b610242600e5481565b610242600b5481565b6102426103f23660046118fc565b600a6020526000908152604090205481565b600654610272906001600160a01b031681565b61025d610908565b6000546001600160a01b0316610272565b61044361043e3660046118fc565b61091a565b604080519485529215156020850152918301521515606082015260800161024c565b6102426302faf08081565b610242600f5481565b6102426107d081565b6104956104903660046118fc565b6109b6565b604051901515815260200161024c565b610242600d5481565b610242600c5481565b61025d610a34565b6102426104cd3660046118e3565b610b51565b6103c56104e03660046118fc565b610b62565b61025d6104f33660046118fc565b610bd8565b600354610272906001600160a01b031681565b61027261051936600461196b565b610eeb565b61057461052c3660046118fc565b6001600160a01b0390811660009081526008602052604090208054600182015460028301546003840154600485015460059095015460ff909416969295919091169390929091565b60408051961515875260208701959095526001600160a01b03909316938501939093526060840152608083019190915260a082015260c00161024c565b610242620f424081565b610242630bebc20081565b61025d6105d43660046118fc565b610f23565b600454610272906001600160a01b031681565b61025d610f5e565b6105fc61107d565b336000908152600a60205260409020548061064b5760405162461bcd60e51b815260206004820152600a6024820152694e6f207265776172647360b01b60448201526064015b60405180910390fd5b336000818152600a6020526040812055600154610674916001600160a01b039091169083611099565b80600c600082825461068691906119ab565b909155505060405181815233907f337ac2dfc6cb3b7496bd8f7ac8e65bada18be4b66d2dec32081f2b7ca27a890d9060200160405180910390a2506106d86001600080516020611a5083398151915255565b565b6106e26110d3565b600380546001600160a01b039485166001600160a01b031991821617909155600480549385169382169390931790925560058054919093169116179055565b6107296110d3565b600081116107695760405162461bcd60e51b815260206004820152600d60248201526c496e76616c696420707269636560981b6044820152606401610642565b600f8190556040518181527f87156e231bfbfc49c5c5419a1a2298d225c133522194f86e33345add7e1e299c9060200160405180910390a150565b6107ac6110d3565b600780546001600160a01b0319166001600160a01b0392909216919091179055565b6001600160a01b03808216600090815260086020526040812060020154606092165b6001600160a01b038116158015906108085750601482105b156108415781610817816119be565b6001600160a01b0392831660009081526008602052604090206002015490935090911690506107f0565b8167ffffffffffffffff81111561085a5761085a6119d7565b604051908082528060200260200182016040528015610883578160200160208202803683370190505b506001600160a01b03808616600090815260086020526040812060020154929550911691505b8281101561090057818482815181106108c4576108c46119ed565b6001600160a01b0392831660209182029290920181019190915292811660009081526008909352604090922060020154909116906001016108a9565b505050919050565b6109106110d3565b6106d86000611100565b6001600160a01b038116600090815260086020526040812080548291829182919060ff1680156109525750630bebc200816004015410155b801561097e5750600681015460ff16158061097e5750600781015461097a906202a3006119ab565b4210155b6001600160a01b03969096166000908152600a60205260409020546006820154600790920154909760ff909216969095509350915050565b6001600160a01b0381166000908152600860205260408120805460ff166109e05750600092915050565b630bebc200816004015410156109f95750600092915050565b600681015460ff168015610a1d57506007810154610a1a906202a3006119ab565b42105b15610a2b5750600092915050565b50600192915050565b610a3c61107d565b336000908152600860205260409020805460ff16610a865760405162461bcd60e51b815260206004820152600760248201526604e6f74205649560cc1b6044820152606401610642565b600581015480610ac55760405162461bcd60e51b815260206004820152600a6024820152694e6f207265776172647360b01b6044820152606401610642565b60006005830155600154610ae3906001600160a01b03163383611099565b80600d6000828254610af591906119ab565b909155505060405181815233907f203b86e7bccae1d33cca5353707916922fd960df96490126f2044b58223368179060200160405180910390a2610b3833611150565b50506106d86001600080516020611a5083398151915255565b6000610b5c82611197565b92915050565b6001600160a01b038116600090815260096020908152604091829020805483518184028101840190945280845260609392830182828015610bcc57602002820191906000526020600020905b81546001600160a01b03168152600190910190602001808311610bae575b50505050509050919050565b610be061107d565b3360009081526008602052604090205460ff1615610c2e5760405162461bcd60e51b815260206004820152600b60248201526a0416c7265616479205649560ac1b6044820152606401610642565b336001600160a01b03821603610c7a5760405162461bcd60e51b815260206004820152601160248201527021b0b73737ba103932b332b91039b2b63360791b6044820152606401610642565b6001600160a01b0381161580610ca857506001600160a01b03811660009081526008602052604090205460ff165b610ceb5760405162461bcd60e51b815260206004820152601460248201527305265666572726572206d757374206265205649560641b6044820152606401610642565b600154610d07906001600160a01b031633306305f5e1006111b9565b610d1133826111f5565b604080516101008101825260018082524260208084019182526001600160a01b038087168587018181526000606088018181526080890182815260a08a0183815260c08b0184815260e08c0185815233865260089099529b90932099518a5490151560ff19918216178b559751988a01989098559151600289018054919095166001600160a01b03199091161790935551600387015593516004860155516005850155935160068401805491151591909216179055915160079091015515610e72576001600160a01b0381166000908152600860205260408120600301805491610dfa836119be565b90915550506001600160a01b03811660008181526009602090815260408083208054600180820183559185529383902090930180546001600160a01b031916339081179091559051928352917f90eab5d1df713df401d810f26aa9718d2b9e6894af1eb4890a332d3b185dc0e5910160405180910390a35b600b8054906000610e82836119be565b90915550506001600160a01b038116337f5b1bb5592d662a3054ef0a4dd926804548b6cf8ce8b0d0d31585f060f46395e1610ec06305f5e100611197565b60405190815260200160405180910390a3610ee86001600080516020611a5083398151915255565b50565b60096020528160005260406000208181548110610f0757600080fd5b6000918252602090912001546001600160a01b03169150829050565b610f2b6110d3565b6001600160a01b038116610f5557604051631e4fbdf760e01b815260006004820152602401610642565b610ee881611100565b610f6661107d565b336000908152600860205260409020805460ff16610fb05760405162461bcd60e51b815260206004820152600760248201526604e6f74205649560cc1b6044820152606401610642565b630bebc200816004015410156110005760405162461bcd60e51b8152602060048201526015602482015274151a1c995cda1bdb19081b9bdd081c995858da1959605a1b6044820152606401610642565b600681015460ff16158061102557506007810154611021906202a3006119ab565b4210155b61105c5760405162461bcd60e51b815260206004820152600860248201526721b7b7b63237bbb760c11b6044820152606401610642565b61106533611426565b506106d86001600080516020611a5083398151915255565b611085611620565b6002600080516020611a5083398151915255565b6110a68383836001611650565b6110ce57604051635274afe760e01b81526001600160a01b0384166004820152602401610642565b505050565b6000546001600160a01b031633146106d85760405163118cdaa760e01b8152336004820152602401610642565b600080546001600160a01b038381166001600160a01b0319831681178455604051919092169283917f8be0079c531659141344cd1fd0a4f28419497f9722a3daafe3b4186f6b6457e09190a35050565b6001600160a01b03811660009081526008602052604090206004810154630bebc200118015906111855750600681015460ff16155b156111935761119382611426565b5050565b600f546000906111af83670de0b6b3a7640000611a03565b610b5c9190611a1a565b6111c78484848460016116b6565b6111ef57604051635274afe760e01b81526001600160a01b0385166004820152602401610642565b50505050565b6305f5e100600061271061120b8361012c611a03565b6112159190611a1a565b905060008111801561123157506003546001600160a01b031615155b1561125357600354600154611253916001600160a01b03918216911683611099565b6000612710611263846064611a03565b61126d9190611a1a565b905060008111801561128957506004546001600160a01b031615155b156112ab576004546001546112ab916001600160a01b03918216911683611099565b60006127106112bb856064611a03565b6112c59190611a1a565b90506000811180156112e157506005546001600160a01b031615155b1561130357600554600154611303916001600160a01b03918216911683611099565b6000612710611314866101f4611a03565b61131e9190611a1a565b9050801561134357600654600154611343916001600160a01b03918216911683611099565b600061271061135487611388611a03565b61135e9190611a1a565b905060008111801561137857506001600160a01b03871615155b156113ab576001600160a01b0387166000908152600a6020526040812080548392906113a59084906119ab565b90915550505b60006127106113bc886107d0611a03565b6113c69190611a1a565b90506113d28982611728565b60006127106113e36107d08a611a03565b6113ed9190611a1a565b905060006113fa82611197565b9050801561141957600254611419906001600160a01b03168c83611099565b5050505050505050505050565b6001600160a01b0381166000908152600860205260408120600481015490916305f5e10091611456908390611a3c565b60068401805460ff1916600117905542600785015560048401819055905060006127106114858461012c611a03565b61148f9190611a1a565b90506000811180156114ab57506003546001600160a01b031615155b156114cd576003546001546114cd916001600160a01b03918216911683611099565b60006127106114dd856064611a03565b6114e79190611a1a565b905060008111801561150357506004546001600160a01b031615155b1561152557600454600154611525916001600160a01b03918216911683611099565b6000612710611535866064611a03565b61153f9190611a1a565b905060008111801561155b57506005546001600160a01b031615155b1561157d5760055460015461157d916001600160a01b03918216911683611099565b600061271061158e876101f4611a03565b6115989190611a1a565b905080156115bd576006546001546115bd916001600160a01b03918216911683611099565b600e80549060006115cd836119be565b909155505060408051878152602081018790526001600160a01b038a16917ff421cca2722190f4c2d3e2ab88d40eab915757d0e4ebd56c9551bf23e070f4b1910160405180910390a25050505050505050565b600080516020611a50833981519152546002036106d857604051633ee5aeb560e01b815260040160405180910390fd5b60405163a9059cbb60e01b60008181526001600160a01b038616600452602485905291602083604481808b5af1925060016000511483166116aa57838315161561169d573d6000823e3d81fd5b6000873b113d1516831692505b60405250949350505050565b6040516323b872dd60e01b60008181526001600160a01b038781166004528616602452604485905291602083606481808c5af192506001600051148316611716578383151615611709573d6000823e3d81fd5b6000883b113d1516831692505b60405250600060605295945050505050565b6001600160a01b03808316600090815260086020526040812060020154909116906001905b6001600160a01b03831615801590611766575060148211155b801561177157508381105b1561187d57620f42408461178582846119ab565b1115611798576117958286611a3c565b90505b6001600160a01b038416600090815260086020526040812060050180548392906117c39084906119ab565b90915550506001600160a01b038416600090815260086020526040812060040180548392906117f39084906119ab565b909155505060408051848152602081018390526001600160a01b038616917f31b26951ab5fbbb994cb792be38de8e429ed0fbb0cb04aa9e21b2d13d0e5de42910160405180910390a26001600160a01b039384166000908152600860205260409020600201549093169282611867816119be565b9350611875905081836119ab565b91505061174d565b5050505050565b80356001600160a01b038116811461189b57600080fd5b919050565b6000806000606084860312156118b557600080fd5b6118be84611884565b92506118cc60208501611884565b91506118da60408501611884565b90509250925092565b6000602082840312156118f557600080fd5b5035919050565b60006020828403121561190e57600080fd5b61191782611884565b9392505050565b6020808252825182820181905260009190848201906040850190845b8181101561195f5783516001600160a01b03168352928401929184019160010161193a565b50909695505050505050565b6000806040838503121561197e57600080fd5b61198783611884565b946020939093013593505050565b634e487b7160e01b600052601160045260246000fd5b80820180821115610b5c57610b5c611995565b6000600182016119d0576119d0611995565b5060010190565b634e487b7160e01b600052604160045260246000fd5b634e487b7160e01b600052603260045260246000fd5b8082028115828204841417610b5c57610b5c611995565b600082611a3757634e487b7160e01b600052601260045260246000fd5b500490565b81810381811115610b5c57610b5c61199556fe9b779b17422d0df92223018b32b4d1fa46e071723d6817e2486d003becc55f00a2646970667358221220b84e9fc74d341a55711670f09919243049c940be55e260895fa98c05b781bc0064736f6c63430008180033","opcodes":"PUSH1 0x80 PUSH1 0x40 MSTORE PUSH7 0x2386F26FC10000 PUSH1 0xF SSTORE CALLVALUE DUP1 ISZERO PUSH3 0x1C JUMPI PUSH1 0x0 DUP1 REVERT JUMPDEST POP PUSH1 0x40 MLOAD PUSH3 0x1CB9 CODESIZE SUB DUP1 PUSH3 0x1CB9 DUP4 CODECOPY DUP2 ADD PUSH1 0x40 DUP2 SWAP1 MSTORE PUSH3 0x3F SWAP2 PUSH3 0x183 JUMP JUMPDEST CALLER DUP1 PUSH3 0x66 JUMPI PUSH1 0x40 MLOAD PUSH4 0x1E4FBDF7 PUSH1 0xE0 SHL DUP2 MSTORE PUSH1 0x0 PUSH1 0x4 DUP3 ADD MSTORE PUSH1 0x24 ADD PUSH1 0x40 MLOAD DUP1 SWAP2 SUB SWAP1 REVERT JUMPDEST PUSH3 0x71 DUP2 PUSH3 0x116 JUMP JUMPDEST POP PUSH1 0x1 PUSH32 0x9B779B17422D0DF92223018B32B4D1FA46E071723D6817E2486D003BECC55F00 SSTORE PUSH1 0x1 DUP1 SLOAD PUSH1 0x1 PUSH1 0x1 PUSH1 0xA0 SHL SUB NOT SWAP1 DUP2 AND PUSH1 0x1 PUSH1 0x1 PUSH1 0xA0 SHL SUB SWAP9 DUP10 AND OR SWAP1 SWAP2 SSTORE PUSH1 0x2 DUP1 SLOAD DUP3 AND SWAP7 DUP9 AND SWAP7 SWAP1 SWAP7 OR SWAP1 SWAP6 SSTORE PUSH1 0x3 DUP1 SLOAD DUP7 AND SWAP5 DUP8 AND SWAP5 SWAP1 SWAP5 OR SWAP1 SWAP4 SSTORE PUSH1 0x4 DUP1 SLOAD DUP6 AND SWAP3 DUP7 AND SWAP3 SWAP1 SWAP3 OR SWAP1 SWAP2 SSTORE PUSH1 0x5 DUP1 SLOAD DUP5 AND SWAP2 DUP6 AND SWAP2 SWAP1 SWAP2 OR SWAP1 SSTORE PUSH1 0x6 DUP1 SLOAD PUSH2 0xDEAD SWAP1 DUP5 AND OR SWAP1 SSTORE PUSH1 0x7 DUP1 SLOAD SWAP1 SWAP3 AND SWAP3 AND SWAP2 SWAP1 SWAP2 OR SWAP1 SSTORE PUSH3 0x204 JUMP JUMPDEST PUSH1 0x0 DUP1 SLOAD PUSH1 0x1 PUSH1 0x1 PUSH1 0xA0 SHL SUB DUP4 DUP2 AND PUSH1 0x1 PUSH1 0x1 PUSH1 0xA0 SHL SUB NOT DUP4 AND DUP2 OR DUP5 SSTORE PUSH1 0x40 MLOAD SWAP2 SWAP1 SWAP3 AND SWAP3 DUP4 SWAP2 PUSH32 0x8BE0079C531659141344CD1FD0A4F28419497F9722A3DAAFE3B4186F6B6457E0 SWAP2 SWAP1 LOG3 POP POP JUMP JUMPDEST DUP1 MLOAD PUSH1 0x1 PUSH1 0x1 PUSH1 0xA0 SHL SUB DUP2 AND DUP2 EQ PUSH3 0x17E JUMPI PUSH1 0x0 DUP1 REVERT JUMPDEST SWAP2 SWAP1 POP JUMP JUMPDEST PUSH1 0x0 DUP1 PUSH1 0x0 DUP1 PUSH1 0x0 DUP1 PUSH1 0xC0 DUP8 DUP10 SUB SLT ISZERO PUSH3 0x19D JUMPI PUSH1 0x0 DUP1 REVERT JUMPDEST PUSH3 0x1A8 DUP8 PUSH3 0x166 JUMP JUMPDEST SWAP6 POP PUSH3 0x1B8 PUSH1 0x20 DUP9 ADD PUSH3 0x166 JUMP JUMPDEST SWAP5 POP PUSH3 0x1C8 PUSH1 0x40 DUP9 ADD PUSH3 0x166 JUMP JUMPDEST SWAP4 POP PUSH3 0x1D8 PUSH1 0x60 DUP9 ADD PUSH3 0x166 JUMP JUMPDEST SWAP3 POP PUSH3 0x1E8 PUSH1 0x80 DUP9 ADD PUSH3 0x166 JUMP JUMPDEST SWAP2 POP PUSH3 0x1F8 PUSH1 0xA0 DUP9 ADD PUSH3 0x166 JUMP JUMPDEST SWAP1 POP SWAP3 SWAP6 POP SWAP3 SWAP6 POP SWAP3 SWAP6 JUMP JUMPDEST PUSH2 0x1AA5 DUP1 PUSH3 0x214 PUSH1 0x0 CODECOPY PUSH1 0x0 RETURN INVALID PUSH1 0x80 PUSH1 0x40 MSTORE CALLVALUE DUP1 ISZERO PUSH2 0x10 JUMPI PUSH1 0x0 DUP1 REVERT JUMPDEST POP PUSH1 0x4 CALLDATASIZE LT PUSH2 0x232 JUMPI PUSH1 0x0 CALLDATALOAD PUSH1 0xE0 SHR DUP1 PUSH4 0x930B95B2 GT PUSH2 0x130 JUMPI DUP1 PUSH4 0xD2C8E0E5 GT PUSH2 0xB8 JUMPI DUP1 PUSH4 0xE8A895EA GT PUSH2 0x7C JUMPI DUP1 PUSH4 0xE8A895EA EQ PUSH2 0x5B1 JUMPI DUP1 PUSH4 0xEC0C1904 EQ PUSH2 0x5BB JUMPI DUP1 PUSH4 0xF2FDE38B EQ PUSH2 0x5C6 JUMPI DUP1 PUSH4 0xFD72E22A EQ PUSH2 0x5D9 JUMPI DUP1 PUSH4 0xFDB5A03E EQ PUSH2 0x5EC JUMPI PUSH1 0x0 DUP1 REVERT JUMPDEST DUP1 PUSH4 0xD2C8E0E5 EQ PUSH2 0x4D2 JUMPI DUP1 PUSH4 0xD85AD4CB EQ PUSH2 0x4E5 JUMPI DUP1 PUSH4 0xD8F1F8F4 EQ PUSH2 0x4F8 JUMPI DUP1 PUSH4 0xE697B5D8 EQ PUSH2 0x50B JUMPI DUP1 PUSH4 0xE83C4148 EQ PUSH2 0x51E JUMPI PUSH1 0x0 DUP1 REVERT JUMPDEST DUP1 PUSH4 0xB2EC26CA GT PUSH2 0xFF JUMPI DUP1 PUSH4 0xB2EC26CA EQ PUSH2 0x482 JUMPI DUP1 PUSH4 0xB6356C95 EQ PUSH2 0x4A5 JUMPI DUP1 PUSH4 0xB6537080 EQ PUSH2 0x4AE JUMPI DUP1 PUSH4 0xBE3B333A EQ PUSH2 0x4B7 JUMPI DUP1 PUSH4 0xCD5995D1 EQ PUSH2 0x4BF JUMPI PUSH1 0x0 DUP1 REVERT JUMPDEST DUP1 PUSH4 0x930B95B2 EQ PUSH2 0x237 JUMPI DUP1 PUSH4 0x998489BE EQ PUSH2 0x465 JUMPI DUP1 PUSH4 0x9ECC458D EQ PUSH2 0x470 JUMPI DUP1 PUSH4 0xA998C7D7 EQ PUSH2 0x479 JUMPI PUSH1 0x0 DUP1 REVERT JUMPDEST DUP1 PUSH4 0x5FBD83F4 GT PUSH2 0x1BE JUMPI DUP1 PUSH4 0x6F38BCB5 GT PUSH2 0x182 JUMPI DUP1 PUSH4 0x6F38BCB5 EQ PUSH2 0x3E4 JUMPI DUP1 PUSH4 0x70D5AE05 EQ PUSH2 0x404 JUMPI DUP1 PUSH4 0x715018A6 EQ PUSH2 0x417 JUMPI DUP1 PUSH4 0x8DA5CB5B EQ PUSH2 0x41F JUMPI DUP1 PUSH4 0x8E65FF88 EQ PUSH2 0x430 JUMPI PUSH1 0x0 DUP1 REVERT JUMPDEST DUP1 PUSH4 0x5FBD83F4 EQ PUSH2 0x397 JUMPI DUP1 PUSH4 0x617B99D2 EQ PUSH2 0x3AA JUMPI DUP1 PUSH4 0x6667864D EQ PUSH2 0x3B2 JUMPI DUP1 PUSH4 0x6D06175A EQ PUSH2 0x3D2 JUMPI DUP1 PUSH4 0x6D27F5B9 EQ PUSH2 0x3DB JUMPI PUSH1 0x0 DUP1 REVERT JUMPDEST DUP1 PUSH4 0x334C1439 GT PUSH2 0x205 JUMPI DUP1 PUSH4 0x334C1439 EQ PUSH2 0x29D JUMPI DUP1 PUSH4 0x3B39D547 EQ PUSH2 0x2B0 JUMPI DUP1 PUSH4 0x421A9AB1 EQ PUSH2 0x2C3 JUMPI DUP1 PUSH4 0x4513443A EQ PUSH2 0x371 JUMPI DUP1 PUSH4 0x530E784F EQ PUSH2 0x384 JUMPI PUSH1 0x0 DUP1 REVERT JUMPDEST DUP1 PUSH4 0xC3CE2D1 EQ PUSH2 0x237 JUMPI DUP1 PUSH4 0x12453BE7 EQ PUSH2 0x255 JUMPI DUP1 PUSH4 0x2630C12F EQ PUSH2 0x25F JUMPI DUP1 PUSH4 0x2F48AB7D EQ PUSH2 0x28A JUMPI JUMPDEST PUSH1 0x0 DUP1 REVERT JUMPDEST PUSH2 0x242 PUSH4 0x5F5E100 DUP2 JUMP JUMPDEST PUSH1 0x40 MLOAD SWAP1 DUP2 MSTORE PUSH1 0x20 ADD JUMPDEST PUSH1 0x40 MLOAD DUP1 SWAP2 SUB SWAP1 RETURN JUMPDEST PUSH2 0x25D PUSH2 0x5F4 JUMP JUMPDEST STOP JUMPDEST PUSH1 0x7 SLOAD PUSH2 0x272 SWAP1 PUSH1 0x1 PUSH1 0x1 PUSH1 0xA0 SHL SUB AND DUP2 JUMP JUMPDEST PUSH1 0x40 MLOAD PUSH1 0x1 PUSH1 0x1 PUSH1 0xA0 SHL SUB SWAP1 SWAP2 AND DUP2 MSTORE PUSH1 0x20 ADD PUSH2 0x24C JUMP JUMPDEST PUSH1 0x1 SLOAD PUSH2 0x272 SWAP1 PUSH1 0x1 PUSH1 0x1 PUSH1 0xA0 SHL SUB AND DUP2 JUMP JUMPDEST PUSH2 0x25D PUSH2 0x2AB CALLDATASIZE PUSH1 0x4 PUSH2 0x18A0 JUMP JUMPDEST PUSH2 0x6DA JUMP JUMPDEST PUSH2 0x25D PUSH2 0x2BE CALLDATASIZE PUSH1 0x4 PUSH2 0x18E3 JUMP JUMPDEST PUSH2 0x721 JUMP JUMPDEST PUSH2 0x326 PUSH2 0x2D1 CALLDATASIZE PUSH1 0x4 PUSH2 0x18FC JUMP JUMPDEST PUSH1 0x8 PUSH1 0x20 MSTORE PUSH1 0x0 SWAP1 DUP2 MSTORE PUSH1 0x40 SWAP1 KECCAK256 DUP1 SLOAD PUSH1 0x1 DUP3 ADD SLOAD PUSH1 0x2 DUP4 ADD SLOAD PUSH1 0x3 DUP5 ADD SLOAD PUSH1 0x4 DUP6 ADD SLOAD PUSH1 0x5 DUP7 ADD SLOAD PUSH1 0x6 DUP8 ADD SLOAD PUSH1 0x7 SWAP1 SWAP8 ADD SLOAD PUSH1 0xFF SWAP7 DUP8 AND SWAP8 SWAP6 SWAP7 PUSH1 0x1 PUSH1 0x1 PUSH1 0xA0 SHL SUB SWAP1 SWAP6 AND SWAP6 SWAP4 SWAP5 SWAP3 SWAP4 SWAP2 SWAP3 SWAP1 SWAP2 AND SWAP1 DUP9 JUMP JUMPDEST PUSH1 0x40 DUP1 MLOAD SWAP9 ISZERO ISZERO DUP10 MSTORE PUSH1 0x20 DUP10 ADD SWAP8 SWAP1 SWAP8 MSTORE PUSH1 0x1 PUSH1 0x1 PUSH1 0xA0 SHL SUB SWAP1 SWAP6 AND SWAP6 DUP8 ADD SWAP6 SWAP1 SWAP6 MSTORE PUSH1 0x60 DUP7 ADD SWAP3 SWAP1 SWAP3 MSTORE PUSH1 0x80 DUP6 ADD MSTORE PUSH1 0xA0 DUP5 ADD MSTORE SWAP1 ISZERO ISZERO PUSH1 0xC0 DUP4 ADD MSTORE PUSH1 0xE0 DUP3 ADD MSTORE PUSH2 0x100 ADD PUSH2 0x24C JUMP JUMPDEST PUSH1 0x5 SLOAD PUSH2 0x272 SWAP1 PUSH1 0x1 PUSH1 0x1 PUSH1 0xA0 SHL SUB AND DUP2 JUMP JUMPDEST PUSH2 0x25D PUSH2 0x392 CALLDATASIZE PUSH1 0x4 PUSH2 0x18FC JUMP JUMPDEST PUSH2 0x7A4 JUMP JUMPDEST PUSH1 0x2 SLOAD PUSH2 0x272 SWAP1 PUSH1 0x1 PUSH1 0x1 PUSH1 0xA0 SHL SUB AND DUP2 JUMP JUMPDEST PUSH2 0x242 PUSH1 0x14 DUP2 JUMP JUMPDEST PUSH2 0x3C5 PUSH2 0x3C0 CALLDATASIZE PUSH1 0x4 PUSH2 0x18FC JUMP JUMPDEST PUSH2 0x7CE JUMP JUMPDEST PUSH1 0x40 MLOAD PUSH2 0x24C SWAP2 SWAP1 PUSH2 0x191E JUMP JUMPDEST PUSH2 0x242 PUSH1 0xE SLOAD DUP2 JUMP JUMPDEST PUSH2 0x242 PUSH1 0xB SLOAD DUP2 JUMP JUMPDEST PUSH2 0x242 PUSH2 0x3F2 CALLDATASIZE PUSH1 0x4 PUSH2 0x18FC JUMP JUMPDEST PUSH1 0xA PUSH1 0x20 MSTORE PUSH1 0x0 SWAP1 DUP2 MSTORE PUSH1 0x40 SWAP1 KECCAK256 SLOAD DUP2 JUMP JUMPDEST PUSH1 0x6 SLOAD PUSH2 0x272 SWAP1 PUSH1 0x1 PUSH1 0x1 PUSH1 0xA0 SHL SUB AND DUP2 JUMP JUMPDEST PUSH2 0x25D PUSH2 0x908 JUMP JUMPDEST PUSH1 0x0 SLOAD PUSH1 0x1 PUSH1 0x1 PUSH1 0xA0 SHL SUB AND PUSH2 0x272 JUMP JUMPDEST PUSH2 0x443 PUSH2 0x43E CALLDATASIZE PUSH1 0x4 PUSH2 0x18FC JUMP JUMPDEST PUSH2 0x91A JUMP JUMPDEST PUSH1 0x40 DUP1 MLOAD SWAP5 DUP6 MSTORE SWAP3 ISZERO ISZERO PUSH1 0x20 DUP6 ADD MSTORE SWAP2 DUP4 ADD MSTORE ISZERO ISZERO PUSH1 0x60 DUP3 ADD MSTORE PUSH1 0x80 ADD PUSH2 0x24C JUMP JUMPDEST PUSH2 0x242 PUSH4 0x2FAF080 DUP2 JUMP JUMPDEST PUSH2 0x242 PUSH1 0xF SLOAD DUP2 JUMP JUMPDEST PUSH2 0x242 PUSH2 0x7D0 DUP2 JUMP JUMPDEST PUSH2 0x495 PUSH2 0x490 CALLDATASIZE PUSH1 0x4 PUSH2 0x18FC JUMP JUMPDEST PUSH2 0x9B6 JUMP JUMPDEST PUSH1 0x40 MLOAD SWAP1 ISZERO ISZERO DUP2 MSTORE PUSH1 0x20 ADD PUSH2 0x24C JUMP JUMPDEST PUSH2 0x242 PUSH1 0xD SLOAD DUP2 JUMP JUMPDEST PUSH2 0x242 PUSH1 0xC SLOAD DUP2 JUMP JUMPDEST PUSH2 0x25D PUSH2 0xA34 JUMP JUMPDEST PUSH2 0x242 PUSH2 0x4CD CALLDATASIZE PUSH1 0x4 PUSH2 0x18E3 JUMP JUMPDEST PUSH2 0xB51 JUMP JUMPDEST PUSH2 0x3C5 PUSH2 0x4E0 CALLDATASIZE PUSH1 0x4 PUSH2 0x18FC JUMP JUMPDEST PUSH2 0xB62 JUMP JUMPDEST PUSH2 0x25D PUSH2 0x4F3 CALLDATASIZE PUSH1 0x4 PUSH2 0x18FC JUMP JUMPDEST PUSH2 0xBD8 JUMP JUMPDEST PUSH1 0x3 SLOAD PUSH2 0x272 SWAP1 PUSH1 0x1 PUSH1 0x1 PUSH1 0xA0 SHL SUB AND DUP2 JUMP JUMPDEST PUSH2 0x272 PUSH2 0x519 CALLDATASIZE PUSH1 0x4 PUSH2 0x196B JUMP JUMPDEST PUSH2 0xEEB JUMP JUMPDEST PUSH2 0x574 PUSH2 0x52C CALLDATASIZE PUSH1 0x4 PUSH2 0x18FC JUMP JUMPDEST PUSH1 0x1 PUSH1 0x1 PUSH1 0xA0 SHL SUB SWAP1 DUP2 AND PUSH1 0x0 SWAP1 DUP2 MSTORE PUSH1 0x8 PUSH1 0x20 MSTORE PUSH1 0x40 SWAP1 KECCAK256 DUP1 SLOAD PUSH1 0x1 DUP3 ADD SLOAD PUSH1 0x2 DUP4 ADD SLOAD PUSH1 0x3 DUP5 ADD SLOAD PUSH1 0x4 DUP6 ADD SLOAD PUSH1 0x5 SWAP1 SWAP6 ADD SLOAD PUSH1 0xFF SWAP1 SWAP5 AND SWAP7 SWAP3 SWAP6 SWAP2 SWAP1 SWAP2 AND SWAP4 SWAP1 SWAP3 SWAP1 SWAP2 JUMP JUMPDEST PUSH1 0x40 DUP1 MLOAD SWAP7 ISZERO ISZERO DUP8 MSTORE PUSH1 0x20 DUP8 ADD SWAP6 SWAP1 SWAP6 MSTORE PUSH1 0x1 PUSH1 0x1 PUSH1 0xA0 SHL SUB SWAP1 SWAP4 AND SWAP4 DUP6 ADD SWAP4 SWAP1 SWAP4 MSTORE PUSH1 0x60 DUP5 ADD MSTORE PUSH1 0x80 DUP4 ADD SWAP2 SWAP1 SWAP2 MSTORE PUSH1 0xA0 DUP3 ADD MSTORE PUSH1 0xC0 ADD PUSH2 0x24C JUMP JUMPDEST PUSH2 0x242 PUSH3 0xF4240 DUP2 JUMP JUMPDEST PUSH2 0x242 PUSH4 0xBEBC200 DUP2 JUMP JUMPDEST PUSH2 0x25D PUSH2 0x5D4 CALLDATASIZE PUSH1 0x4 PUSH2 0x18FC JUMP JUMPDEST PUSH2 0xF23 JUMP JUMPDEST PUSH1 0x4 SLOAD PUSH2 0x272 SWAP1 PUSH1 0x1 PUSH1 0x1 PUSH1 0xA0 SHL SUB AND DUP2 JUMP JUMPDEST PUSH2 0x25D PUSH2 0xF5E JUMP JUMPDEST PUSH2 0x5FC PUSH2 0x107D JUMP JUMPDEST CALLER PUSH1 0x0 SWAP1 DUP2 MSTORE PUSH1 0xA PUSH1 0x20 MSTORE PUSH1 0x40 SWAP1 KECCAK256 SLOAD DUP1 PUSH2 0x64B JUMPI PUSH1 0x40 MLOAD PUSH3 0x461BCD PUSH1 0xE5 SHL DUP2 MSTORE PUSH1 0x20 PUSH1 0x4 DUP3 ADD MSTORE PUSH1 0xA PUSH1 0x24 DUP3 ADD MSTORE PUSH10 0x4E6F2072657761726473 PUSH1 0xB0 SHL PUSH1 0x44 DUP3 ADD MSTORE PUSH1 0x64 ADD JUMPDEST PUSH1 0x40 MLOAD DUP1 SWAP2 SUB SWAP1 REVERT JUMPDEST CALLER PUSH1 0x0 DUP2 DUP2 MSTORE PUSH1 0xA PUSH1 0x20 MSTORE PUSH1 0x40 DUP2 KECCAK256 SSTORE PUSH1 0x1 SLOAD PUSH2 0x674 SWAP2 PUSH1 0x1 PUSH1 0x1 PUSH1 0xA0 SHL SUB SWAP1 SWAP2 AND SWAP1 DUP4 PUSH2 0x1099 JUMP JUMPDEST DUP1 PUSH1 0xC PUSH1 0x0 DUP3 DUP3 SLOAD PUSH2 0x686 SWAP2 SWAP1 PUSH2 0x19AB JUMP JUMPDEST SWAP1 SWAP2 SSTORE POP POP PUSH1 0x40 MLOAD DUP2 DUP2 MSTORE CALLER SWAP1 PUSH32 0x337AC2DFC6CB3B7496BD8F7AC8E65BADA18BE4B66D2DEC32081F2B7CA27A890D SWAP1 PUSH1 0x20 ADD PUSH1 0x40 MLOAD DUP1 SWAP2 SUB SWAP1 LOG2 POP PUSH2 0x6D8 PUSH1 0x1 PUSH1 0x0 DUP1 MLOAD PUSH1 0x20 PUSH2 0x1A50 DUP4 CODECOPY DUP2 MLOAD SWAP2 MSTORE SSTORE JUMP JUMPDEST JUMP JUMPDEST PUSH2 0x6E2 PUSH2 0x10D3 JUMP JUMPDEST PUSH1 0x3 DUP1 SLOAD PUSH1 0x1 PUSH1 0x1 PUSH1 0xA0 SHL SUB SWAP5 DUP6 AND PUSH1 0x1 PUSH1 0x1 PUSH1 0xA0 SHL SUB NOT SWAP2 DUP3 AND OR SWAP1 SWAP2 SSTORE PUSH1 0x4 DUP1 SLOAD SWAP4 DUP6 AND SWAP4 DUP3 AND SWAP4 SWAP1 SWAP4 OR SWAP1 SWAP3 SSTORE PUSH1 0x5 DUP1 SLOAD SWAP2 SWAP1 SWAP4 AND SWAP2 AND OR SWAP1 SSTORE JUMP JUMPDEST PUSH2 0x729 PUSH2 0x10D3 JUMP JUMPDEST PUSH1 0x0 DUP2 GT PUSH2 0x769 JUMPI PUSH1 0x40 MLOAD PUSH3 0x461BCD PUSH1 0xE5 SHL DUP2 MSTORE PUSH1 0x20 PUSH1 0x4 DUP3 ADD MSTORE PUSH1 0xD PUSH1 0x24 DUP3 ADD MSTORE PUSH13 0x496E76616C6964207072696365 PUSH1 0x98 SHL PUSH1 0x44 DUP3 ADD MSTORE PUSH1 0x64 ADD PUSH2 0x642 JUMP JUMPDEST PUSH1 0xF DUP2 SWAP1 SSTORE PUSH1 0x40 MLOAD DUP2 DUP2 MSTORE PUSH32 0x87156E231BFBFC49C5C5419A1A2298D225C133522194F86E33345ADD7E1E299C SWAP1 PUSH1 0x20 ADD PUSH1 0x40 MLOAD DUP1 SWAP2 SUB SWAP1 LOG1 POP JUMP JUMPDEST PUSH2 0x7AC PUSH2 0x10D3 JUMP JUMPDEST PUSH1 0x7 DUP1 SLOAD PUSH1 0x1 PUSH1 0x1 PUSH1 0xA0 SHL SUB NOT AND PUSH1 0x1 PUSH1 0x1 PUSH1 0xA0 SHL SUB SWAP3 SWAP1 SWAP3 AND SWAP2 SWAP1 SWAP2 OR SWAP1 SSTORE JUMP JUMPDEST PUSH1 0x1 PUSH1 0x1 PUSH1 0xA0 SHL SUB DUP1 DUP3 AND PUSH1 0x0 SWAP1 DUP2 MSTORE PUSH1 0x8 PUSH1 0x20 MSTORE PUSH1 0x40 DUP2 KECCAK256 PUSH1 0x2 ADD SLOAD PUSH1 0x60 SWAP3 AND JUMPDEST PUSH1 0x1 PUSH1 0x1 PUSH1 0xA0 SHL SUB DUP2 AND ISZERO DUP1 ISZERO SWAP1 PUSH2 0x808 JUMPI POP PUSH1 0x14 DUP3 LT JUMPDEST ISZERO PUSH2 0x841 JUMPI DUP2 PUSH2 0x817 DUP2 PUSH2 0x19BE JUMP JUMPDEST PUSH1 0x1 PUSH1 0x1 PUSH1 0xA0 SHL SUB SWAP3 DUP4 AND PUSH1 0x0 SWAP1 DUP2 MSTORE PUSH1 0x8 PUSH1 0x20 MSTORE PUSH1 0x40 SWAP1 KECCAK256 PUSH1 0x2 ADD SLOAD SWAP1 SWAP4 POP SWAP1 SWAP2 AND SWAP1 POP PUSH2 0x7F0 JUMP JUMPDEST DUP2 PUSH8 0xFFFFFFFFFFFFFFFF DUP2 GT ISZERO PUSH2 0x85A JUMPI PUSH2 0x85A PUSH2 0x19D7 JUMP JUMPDEST PUSH1 0x40 MLOAD SWAP1 DUP1 DUP3 MSTORE DUP1 PUSH1 0x20 MUL PUSH1 0x20 ADD DUP3 ADD PUSH1 0x40 MSTORE DUP1 ISZERO PUSH2 0x883 JUMPI DUP2 PUSH1 0x20 ADD PUSH1 0x20 DUP3 MUL DUP1 CALLDATASIZE DUP4 CALLDATACOPY ADD SWAP1 POP JUMPDEST POP PUSH1 0x1 PUSH1 0x1 PUSH1 0xA0 SHL SUB DUP1 DUP7 AND PUSH1 0x0 SWAP1 DUP2 MSTORE PUSH1 0x8 PUSH1 0x20 MSTORE PUSH1 0x40 DUP2 KECCAK256 PUSH1 0x2 ADD SLOAD SWAP3 SWAP6 POP SWAP2 AND SWAP2 POP JUMPDEST DUP3 DUP2 LT ISZERO PUSH2 0x900 JUMPI DUP2 DUP5 DUP3 DUP2 MLOAD DUP2 LT PUSH2 0x8C4 JUMPI PUSH2 0x8C4 PUSH2 0x19ED JUMP JUMPDEST PUSH1 0x1 PUSH1 0x1 PUSH1 0xA0 SHL SUB SWAP3 DUP4 AND PUSH1 0x20 SWAP2 DUP3 MUL SWAP3 SWAP1 SWAP3 ADD DUP2 ADD SWAP2 SWAP1 SWAP2 MSTORE SWAP3 DUP2 AND PUSH1 0x0 SWAP1 DUP2 MSTORE PUSH1 0x8 SWAP1 SWAP4 MSTORE PUSH1 0x40 SWAP1 SWAP3 KECCAK256 PUSH1 0x2 ADD SLOAD SWAP1 SWAP2 AND SWAP1 PUSH1 0x1 ADD PUSH2 0x8A9 JUMP JUMPDEST POP POP POP SWAP2 SWAP1 POP JUMP JUMPDEST PUSH2 0x910 PUSH2 0x10D3 JUMP JUMPDEST PUSH2 0x6D8 PUSH1 0x0 PUSH2 0x1100 JUMP JUMPDEST PUSH1 0x1 PUSH1 0x1 PUSH1 0xA0 SHL SUB DUP2 AND PUSH1 0x0 SWAP1 DUP2 MSTORE PUSH1 0x8 PUSH1 0x20 MSTORE PUSH1 0x40 DUP2 KECCAK256 DUP1 SLOAD DUP3 SWAP2 DUP3 SWAP2 DUP3 SWAP2 SWAP1 PUSH1 0xFF AND DUP1 ISZERO PUSH2 0x952 JUMPI POP PUSH4 0xBEBC200 DUP2 PUSH1 0x4 ADD SLOAD LT ISZERO JUMPDEST DUP1 ISZERO PUSH2 0x97E JUMPI POP PUSH1 0x6 DUP2 ADD SLOAD PUSH1 0xFF AND ISZERO DUP1 PUSH2 0x97E JUMPI POP PUSH1 0x7 DUP2 ADD SLOAD PUSH2 0x97A SWAP1 PUSH3 0x2A300 PUSH2 0x19AB JUMP JUMPDEST TIMESTAMP LT ISZERO JUMPDEST PUSH1 0x1 PUSH1 0x1 PUSH1 0xA0 SHL SUB SWAP7 SWAP1 SWAP7 AND PUSH1 0x0 SWAP1 DUP2 MSTORE PUSH1 0xA PUSH1 0x20 MSTORE PUSH1 0x40 SWAP1 KECCAK256 SLOAD PUSH1 0x6 DUP3 ADD SLOAD PUSH1 0x7 SWAP1 SWAP3 ADD SLOAD SWAP1 SWAP8 PUSH1 0xFF SWAP1 SWAP3 AND SWAP7 SWAP1 SWAP6 POP SWAP4 POP SWAP2 POP POP JUMP JUMPDEST PUSH1 0x1 PUSH1 0x1 PUSH1 0xA0 SHL SUB DUP2 AND PUSH1 0x0 SWAP1 DUP2 MSTORE PUSH1 0x8 PUSH1 0x20 MSTORE PUSH1 0x40 DUP2 KECCAK256 DUP1 SLOAD PUSH1 0xFF AND PUSH2 0x9E0 JUMPI POP PUSH1 0x0 SWAP3 SWAP2 POP POP JUMP JUMPDEST PUSH4 0xBEBC200 DUP2 PUSH1 0x4 ADD SLOAD LT ISZERO PUSH2 0x9F9 JUMPI POP PUSH1 0x0 SWAP3 SWAP2 POP POP JUMP JUMPDEST PUSH1 0x6 DUP2 ADD SLOAD PUSH1 0xFF AND DUP1 ISZERO PUSH2 0xA1D JUMPI POP PUSH1 0x7 DUP2 ADD SLOAD PUSH2 0xA1A SWAP1 PUSH3 0x2A300 PUSH2 0x19AB JUMP JUMPDEST TIMESTAMP LT JUMPDEST ISZERO PUSH2 0xA2B JUMPI POP PUSH1 0x0 SWAP3 SWAP2 POP POP JUMP JUMPDEST POP PUSH1 0x1 SWAP3 SWAP2 POP POP JUMP JUMPDEST PUSH2 0xA3C PUSH2 0x107D JUMP JUMPDEST CALLER PUSH1 0x0 SWAP1 DUP2 MSTORE PUSH1 0x8 PUSH1 0x20 MSTORE PUSH1 0x40 SWAP1 KECCAK256 DUP1 SLOAD PUSH1 0xFF AND PUSH2 0xA86 JUMPI PUSH1 0x40 MLOAD PUSH3 0x461BCD PUSH1 0xE5 SHL DUP2 MSTORE PUSH1 0x20 PUSH1 0x4 DUP3 ADD MSTORE PUSH1 0x7 PUSH1 0x24 DUP3 ADD MSTORE PUSH7 0x4E6F742056495 PUSH1 0xCC SHL PUSH1 0x44 DUP3 ADD MSTORE PUSH1 0x64 ADD PUSH2 0x642 JUMP JUMPDEST PUSH1 0x5 DUP2 ADD SLOAD DUP1 PUSH2 0xAC5 JUMPI PUSH1 0x40 MLOAD PUSH3 0x461BCD PUSH1 0xE5 SHL DUP2 MSTORE PUSH1 0x20 PUSH1 0x4 DUP3 ADD MSTORE PUSH1 0xA PUSH1 0x24 DUP3 ADD MSTORE PUSH10 0x4E6F2072657761726473 PUSH1 0xB0 SHL PUSH1 0x44 DUP3 ADD MSTORE PUSH1 0x64 ADD PUSH2 0x642 JUMP JUMPDEST PUSH1 0x0 PUSH1 0x5 DUP4 ADD SSTORE PUSH1 0x1 SLOAD PUSH2 0xAE3 SWAP1 PUSH1 0x1 PUSH1 0x1 PUSH1 0xA0 SHL SUB AND CALLER DUP4 PUSH2 0x1099 JUMP JUMPDEST DUP1 PUSH1 0xD PUSH1 0x0 DUP3 DUP3 SLOAD PUSH2 0xAF5 SWAP2 SWAP1 PUSH2 0x19AB JUMP JUMPDEST SWAP1 SWAP2 SSTORE POP POP PUSH1 0x40 MLOAD DUP2 DUP2 MSTORE CALLER SWAP1 PUSH32 0x203B86E7BCCAE1D33CCA5353707916922FD960DF96490126F2044B5822336817 SWAP1 PUSH1 0x20 ADD PUSH1 0x40 MLOAD DUP1 SWAP2 SUB SWAP1 LOG2 PUSH2 0xB38 CALLER PUSH2 0x1150 JUMP JUMPDEST POP POP PUSH2 0x6D8 PUSH1 0x1 PUSH1 0x0 DUP1 MLOAD PUSH1 0x20 PUSH2 0x1A50 DUP4 CODECOPY DUP2 MLOAD SWAP2 MSTORE SSTORE JUMP JUMPDEST PUSH1 0x0 PUSH2 0xB5C DUP3 PUSH2 0x1197 JUMP JUMPDEST SWAP3 SWAP2 POP POP JUMP JUMPDEST PUSH1 0x1 PUSH1 0x1 PUSH1 0xA0 SHL SUB DUP2 AND PUSH1 0x0 SWAP1 DUP2 MSTORE PUSH1 0x9 PUSH1 0x20 SWAP1 DUP2 MSTORE PUSH1 0x40 SWAP2 DUP3 SWAP1 KECCAK256 DUP1 SLOAD DUP4 MLOAD DUP2 DUP5 MUL DUP2 ADD DUP5 ADD SWAP1 SWAP5 MSTORE DUP1 DUP5 MSTORE PUSH1 0x60 SWAP4 SWAP3 DUP4 ADD DUP3 DUP3 DUP1 ISZERO PUSH2 0xBCC JUMPI PUSH1 0x20 MUL DUP3 ADD SWAP2 SWAP1 PUSH1 0x0 MSTORE PUSH1 0x20 PUSH1 0x0 KECCAK256 SWAP1 JUMPDEST DUP2 SLOAD PUSH1 0x1 PUSH1 0x1 PUSH1 0xA0 SHL SUB AND DUP2 MSTORE PUSH1 0x1 SWAP1 SWAP2 ADD SWAP1 PUSH1 0x20 ADD DUP1 DUP4 GT PUSH2 0xBAE JUMPI JUMPDEST POP POP POP POP POP SWAP1 POP SWAP2 SWAP1 POP JUMP JUMPDEST PUSH2 0xBE0 PUSH2 0x107D JUMP JUMPDEST CALLER PUSH1 0x0 SWAP1 DUP2 MSTORE PUSH1 0x8 PUSH1 0x20 MSTORE PUSH1 0x40 SWAP1 KECCAK256 SLOAD PUSH1 0xFF AND ISZERO PUSH2 0xC2E JUMPI PUSH1 0x40 MLOAD PUSH3 0x461BCD PUSH1 0xE5 SHL DUP2 MSTORE PUSH1 0x20 PUSH1 0x4 DUP3 ADD MSTORE PUSH1 0xB PUSH1 0x24 DUP3 ADD MSTORE PUSH11 0x416C72656164792056495 PUSH1 0xAC SHL PUSH1 0x44 DUP3 ADD MSTORE PUSH1 0x64 ADD PUSH2 0x642 JUMP JUMPDEST CALLER PUSH1 0x1 PUSH1 0x1 PUSH1 0xA0 SHL SUB DUP3 AND SUB PUSH2 0xC7A JUMPI PUSH1 0x40 MLOAD PUSH3 0x461BCD PUSH1 0xE5 SHL DUP2 MSTORE PUSH1 0x20 PUSH1 0x4 DUP3 ADD MSTORE PUSH1 0x11 PUSH1 0x24 DUP3 ADD MSTORE PUSH17 0x21B0B73737BA103932B332B91039B2B633 PUSH1 0x79 SHL PUSH1 0x44 DUP3 ADD MSTORE PUSH1 0x64 ADD PUSH2 0x642 JUMP JUMPDEST PUSH1 0x1 PUSH1 0x1 PUSH1 0xA0 SHL SUB DUP2 AND ISZERO DUP1 PUSH2 0xCA8 JUMPI POP PUSH1 0x1 PUSH1 0x1 PUSH1 0xA0 SHL SUB DUP2 AND PUSH1 0x0 SWAP1 DUP2 MSTORE PUSH1 0x8 PUSH1 0x20 MSTORE PUSH1 0x40 SWAP1 KECCAK256 SLOAD PUSH1 0xFF AND JUMPDEST PUSH2 0xCEB JUMPI PUSH1 0x40 MLOAD PUSH3 0x461BCD PUSH1 0xE5 SHL DUP2 MSTORE PUSH1 0x20 PUSH1 0x4 DUP3 ADD MSTORE PUSH1 0x14 PUSH1 0x24 DUP3 ADD MSTORE PUSH20 0x5265666572726572206D7573742062652056495 PUSH1 0x64 SHL PUSH1 0x44 DUP3 ADD MSTORE PUSH1 0x64 ADD PUSH2 0x642 JUMP JUMPDEST PUSH1 0x1 SLOAD PUSH2 0xD07 SWAP1 PUSH1 0x1 PUSH1 0x1 PUSH1 0xA0 SHL SUB AND CALLER ADDRESS PUSH4 0x5F5E100 PUSH2 0x11B9 JUMP JUMPDEST PUSH2 0xD11 CALLER DUP3 PUSH2 0x11F5 JUMP JUMPDEST PUSH1 0x40 DUP1 MLOAD PUSH2 0x100 DUP2 ADD DUP3 MSTORE PUSH1 0x1 DUP1 DUP3 MSTORE TIMESTAMP PUSH1 0x20 DUP1 DUP5 ADD SWAP2 DUP3 MSTORE PUSH1 0x1 PUSH1 0x1 PUSH1 0xA0 SHL SUB DUP1 DUP8 AND DUP6 DUP8 ADD DUP2 DUP2 MSTORE PUSH1 0x0 PUSH1 0x60 DUP9 ADD DUP2 DUP2 MSTORE PUSH1 0x80 DUP10 ADD DUP3 DUP2 MSTORE PUSH1 0xA0 DUP11 ADD DUP4 DUP2 MSTORE PUSH1 0xC0 DUP12 ADD DUP5 DUP2 MSTORE PUSH1 0xE0 DUP13 ADD DUP6 DUP2 MSTORE CALLER DUP7 MSTORE PUSH1 0x8 SWAP1 SWAP10 MSTORE SWAP12 SWAP1 SWAP4 KECCAK256 SWAP10 MLOAD DUP11 SLOAD SWAP1 ISZERO ISZERO PUSH1 0xFF NOT SWAP2 DUP3 AND OR DUP12 SSTORE SWAP8 MLOAD SWAP9 DUP11 ADD SWAP9 SWAP1 SWAP9 SSTORE SWAP2 MLOAD PUSH1 0x2 DUP10 ADD DUP1 SLOAD SWAP2 SWAP1 SWAP6 AND PUSH1 0x1 PUSH1 0x1 PUSH1 0xA0 SHL SUB NOT SWAP1 SWAP2 AND OR SWAP1 SWAP4 SSTORE MLOAD PUSH1 0x3 DUP8 ADD SSTORE SWAP4 MLOAD PUSH1 0x4 DUP7 ADD SSTORE MLOAD PUSH1 0x5 DUP6 ADD SSTORE SWAP4 MLOAD PUSH1 0x6 DUP5 ADD DUP1 SLOAD SWAP2 ISZERO ISZERO SWAP2 SWAP1 SWAP3 AND OR SWAP1 SSTORE SWAP2 MLOAD PUSH1 0x7 SWAP1 SWAP2 ADD SSTORE ISZERO PUSH2 0xE72 JUMPI PUSH1 0x1 PUSH1 0x1 PUSH1 0xA0 SHL SUB DUP2 AND PUSH1 0x0 SWAP1 DUP2 MSTORE PUSH1 0x8 PUSH1 0x20 MSTORE PUSH1 0x40 DUP2 KECCAK256 PUSH1 0x3 ADD DUP1 SLOAD SWAP2 PUSH2 0xDFA DUP4 PUSH2 0x19BE JUMP JUMPDEST SWAP1 SWAP2 SSTORE POP POP PUSH1 0x1 PUSH1 0x1 PUSH1 0xA0 SHL SUB DUP2 AND PUSH1 0x0 DUP2 DUP2 MSTORE PUSH1 0x9 PUSH1 0x20 SWAP1 DUP2 MSTORE PUSH1 0x40 DUP1 DUP4 KECCAK256 DUP1 SLOAD PUSH1 0x1 DUP1 DUP3 ADD DUP4 SSTORE SWAP2 DUP6 MSTORE SWAP4 DUP4 SWAP1 KECCAK256 SWAP1 SWAP4 ADD DUP1 SLOAD PUSH1 0x1 PUSH1 0x1 PUSH1 0xA0 SHL SUB NOT AND CALLER SWAP1 DUP2 OR SWAP1 SWAP2 SSTORE SWAP1 MLOAD SWAP3 DUP4 MSTORE SWAP2 PUSH32 0x90EAB5D1DF713DF401D810F26AA9718D2B9E6894AF1EB4890A332D3B185DC0E5 SWAP2 ADD PUSH1 0x40 MLOAD DUP1 SWAP2 SUB SWAP1 LOG3 JUMPDEST PUSH1 0xB DUP1 SLOAD SWAP1 PUSH1 0x0 PUSH2 0xE82 DUP4 PUSH2 0x19BE JUMP JUMPDEST SWAP1 SWAP2 SSTORE POP POP PUSH1 0x1 PUSH1 0x1 PUSH1 0xA0 SHL SUB DUP2 AND CALLER PUSH32 0x5B1BB5592D662A3054EF0A4DD926804548B6CF8CE8B0D0D31585F060F46395E1 PUSH2 0xEC0 PUSH4 0x5F5E100 PUSH2 0x1197 JUMP JUMPDEST PUSH1 0x40 MLOAD SWAP1 DUP2 MSTORE PUSH1 0x20 ADD PUSH1 0x40 MLOAD DUP1 SWAP2 SUB SWAP1 LOG3 PUSH2 0xEE8 PUSH1 0x1 PUSH1 0x0 DUP1 MLOAD PUSH1 0x20 PUSH2 0x1A50 DUP4 CODECOPY DUP2 MLOAD SWAP2 MSTORE SSTORE JUMP JUMPDEST POP JUMP JUMPDEST PUSH1 0x9 PUSH1 0x20 MSTORE DUP2 PUSH1 0x0 MSTORE PUSH1 0x40 PUSH1 0x0 KECCAK256 DUP2 DUP2 SLOAD DUP2 LT PUSH2 0xF07 JUMPI PUSH1 0x0 DUP1 REVERT JUMPDEST PUSH1 0x0 SWAP2 DUP3 MSTORE PUSH1 0x20 SWAP1 SWAP2 KECCAK256 ADD SLOAD PUSH1 0x1 PUSH1 0x1 PUSH1 0xA0 SHL SUB AND SWAP2 POP DUP3 SWAP1 POP JUMP JUMPDEST PUSH2 0xF2B PUSH2 0x10D3 JUMP JUMPDEST PUSH1 0x1 PUSH1 0x1 PUSH1 0xA0 SHL SUB DUP2 AND PUSH2 0xF55 JUMPI PUSH1 0x40 MLOAD PUSH4 0x1E4FBDF7 PUSH1 0xE0 SHL DUP2 MSTORE PUSH1 0x0 PUSH1 0x4 DUP3 ADD MSTORE PUSH1 0x24 ADD PUSH2 0x642 JUMP JUMPDEST PUSH2 0xEE8 DUP2 PUSH2 0x1100 JUMP JUMPDEST PUSH2 0xF66 PUSH2 0x107D JUMP JUMPDEST CALLER PUSH1 0x0 SWAP1 DUP2 MSTORE PUSH1 0x8 PUSH1 0x20 MSTORE PUSH1 0x40 SWAP1 KECCAK256 DUP1 SLOAD PUSH1 0xFF AND PUSH2 0xFB0 JUMPI PUSH1 0x40 MLOAD PUSH3 0x461BCD PUSH1 0xE5 SHL DUP2 MSTORE PUSH1 0x20 PUSH1 0x4 DUP3 ADD MSTORE PUSH1 0x7 PUSH1 0x24 DUP3 ADD MSTORE PUSH7 0x4E6F742056495 PUSH1 0xCC SHL PUSH1 0x44 DUP3 ADD MSTORE PUSH1 0x64 ADD PUSH2 0x642 JUMP JUMPDEST PUSH4 0xBEBC200 DUP2 PUSH1 0x4 ADD SLOAD LT ISZERO PUSH2 0x1000 JUMPI PUSH1 0x40 MLOAD PUSH3 0x461BCD PUSH1 0xE5 SHL DUP2 MSTORE PUSH1 0x20 PUSH1 0x4 DUP3 ADD MSTORE PUSH1 0x15 PUSH1 0x24 DUP3 ADD MSTORE PUSH21 0x151A1C995CDA1BDB19081B9BDD081C995858DA1959 PUSH1 0x5A SHL PUSH1 0x44 DUP3 ADD MSTORE PUSH1 0x64 ADD PUSH2 0x642 JUMP JUMPDEST PUSH1 0x6 DUP2 ADD SLOAD PUSH1 0xFF AND ISZERO DUP1 PUSH2 0x1025 JUMPI POP PUSH1 0x7 DUP2 ADD SLOAD PUSH2 0x1021 SWAP1 PUSH3 0x2A300 PUSH2 0x19AB JUMP JUMPDEST TIMESTAMP LT ISZERO JUMPDEST PUSH2 0x105C JUMPI PUSH1 0x40 MLOAD PUSH3 0x461BCD PUSH1 0xE5 SHL DUP2 MSTORE PUSH1 0x20 PUSH1 0x4 DUP3 ADD MSTORE PUSH1 0x8 PUSH1 0x24 DUP3 ADD MSTORE PUSH8 0x21B7B7B63237BBB7 PUSH1 0xC1 SHL PUSH1 0x44 DUP3 ADD MSTORE PUSH1 0x64 ADD PUSH2 0x642 JUMP JUMPDEST PUSH2 0x1065 CALLER PUSH2 0x1426 JUMP JUMPDEST POP PUSH2 0x6D8 PUSH1 0x1 PUSH1 0x0 DUP1 MLOAD PUSH1 0x20 PUSH2 0x1A50 DUP4 CODECOPY DUP2 MLOAD SWAP2 MSTORE SSTORE JUMP JUMPDEST PUSH2 0x1085 PUSH2 0x1620 JUMP JUMPDEST PUSH1 0x2 PUSH1 0x0 DUP1 MLOAD PUSH1 0x20 PUSH2 0x1A50 DUP4 CODECOPY DUP2 MLOAD SWAP2 MSTORE SSTORE JUMP JUMPDEST PUSH2 0x10A6 DUP4 DUP4 DUP4 PUSH1 0x1 PUSH2 0x1650 JUMP JUMPDEST PUSH2 0x10CE JUMPI PUSH1 0x40 MLOAD PUSH4 0x5274AFE7 PUSH1 0xE0 SHL DUP2 MSTORE PUSH1 0x1 PUSH1 0x1 PUSH1 0xA0 SHL SUB DUP5 AND PUSH1 0x4 DUP3 ADD MSTORE PUSH1 0x24 ADD PUSH2 0x642 JUMP JUMPDEST POP POP POP JUMP JUMPDEST PUSH1 0x0 SLOAD PUSH1 0x1 PUSH1 0x1 PUSH1 0xA0 SHL SUB AND CALLER EQ PUSH2 0x6D8 JUMPI PUSH1 0x40 MLOAD PUSH4 0x118CDAA7 PUSH1 0xE0 SHL DUP2 MSTORE CALLER PUSH1 0x4 DUP3 ADD MSTORE PUSH1 0x24 ADD PUSH2 0x642 JUMP JUMPDEST PUSH1 0x0 DUP1 SLOAD PUSH1 0x1 PUSH1 0x1 PUSH1 0xA0 SHL SUB DUP4 DUP2 AND PUSH1 0x1 PUSH1 0x1 PUSH1 0xA0 SHL SUB NOT DUP4 AND DUP2 OR DUP5 SSTORE PUSH1 0x40 MLOAD SWAP2 SWAP1 SWAP3 AND SWAP3 DUP4 SWAP2 PUSH32 0x8BE0079C531659141344CD1FD0A4F28419497F9722A3DAAFE3B4186F6B6457E0 SWAP2 SWAP1 LOG3 POP POP JUMP JUMPDEST PUSH1 0x1 PUSH1 0x1 PUSH1 0xA0 SHL SUB DUP2 AND PUSH1 0x0 SWAP1 DUP2 MSTORE PUSH1 0x8 PUSH1 0x20 MSTORE PUSH1 0x40 SWAP1 KECCAK256 PUSH1 0x4 DUP2 ADD SLOAD PUSH4 0xBEBC200 GT DUP1 ISZERO SWAP1 PUSH2 0x1185 JUMPI POP PUSH1 0x6 DUP2 ADD SLOAD PUSH1 0xFF AND ISZERO JUMPDEST ISZERO PUSH2 0x1193 JUMPI PUSH2 0x1193 DUP3 PUSH2 0x1426 JUMP JUMPDEST POP POP JUMP JUMPDEST PUSH1 0xF SLOAD PUSH1 0x0 SWAP1 PUSH2 0x11AF DUP4 PUSH8 0xDE0B6B3A7640000 PUSH2 0x1A03 JUMP JUMPDEST PUSH2 0xB5C SWAP2 SWAP1 PUSH2 0x1A1A JUMP JUMPDEST PUSH2 0x11C7 DUP5 DUP5 DUP5 DUP5 PUSH1 0x1 PUSH2 0x16B6 JUMP JUMPDEST PUSH2 0x11EF JUMPI PUSH1 0x40 MLOAD PUSH4 0x5274AFE7 PUSH1 0xE0 SHL DUP2 MSTORE PUSH1 0x1 PUSH1 0x1 PUSH1 0xA0 SHL SUB DUP6 AND PUSH1 0x4 DUP3 ADD MSTORE PUSH1 0x24 ADD PUSH2 0x642 JUMP JUMPDEST POP POP POP POP JUMP JUMPDEST PUSH4 0x5F5E100 PUSH1 0x0 PUSH2 0x2710 PUSH2 0x120B DUP4 PUSH2 0x12C PUSH2 0x1A03 JUMP JUMPDEST PUSH2 0x1215 SWAP2 SWAP1 PUSH2 0x1A1A JUMP JUMPDEST SWAP1 POP PUSH1 0x0 DUP2 GT DUP1 ISZERO PUSH2 0x1231 JUMPI POP PUSH1 0x3 SLOAD PUSH1 0x1 PUSH1 0x1 PUSH1 0xA0 SHL SUB AND ISZERO ISZERO JUMPDEST ISZERO PUSH2 0x1253 JUMPI PUSH1 0x3 SLOAD PUSH1 0x1 SLOAD PUSH2 0x1253 SWAP2 PUSH1 0x1 PUSH1 0x1 PUSH1 0xA0 SHL SUB SWAP2 DUP3 AND SWAP2 AND DUP4 PUSH2 0x1099 JUMP JUMPDEST PUSH1 0x0 PUSH2 0x2710 PUSH2 0x1263 DUP5 PUSH1 0x64 PUSH2 0x1A03 JUMP JUMPDEST PUSH2 0x126D SWAP2 SWAP1 PUSH2 0x1A1A JUMP JUMPDEST SWAP1 POP PUSH1 0x0 DUP2 GT DUP1 ISZERO PUSH2 0x1289 JUMPI POP PUSH1 0x4 SLOAD PUSH1 0x1 PUSH1 0x1 PUSH1 0xA0 SHL SUB AND ISZERO ISZERO JUMPDEST ISZERO PUSH2 0x12AB JUMPI PUSH1 0x4 SLOAD PUSH1 0x1 SLOAD PUSH2 0x12AB SWAP2 PUSH1 0x1 PUSH1 0x1 PUSH1 0xA0 SHL SUB SWAP2 DUP3 AND SWAP2 AND DUP4 PUSH2 0x1099 JUMP JUMPDEST PUSH1 0x0 PUSH2 0x2710 PUSH2 0x12BB DUP6 PUSH1 0x64 PUSH2 0x1A03 JUMP JUMPDEST PUSH2 0x12C5 SWAP2 SWAP1 PUSH2 0x1A1A JUMP JUMPDEST SWAP1 POP PUSH1 0x0 DUP2 GT DUP1 ISZERO PUSH2 0x12E1 JUMPI POP PUSH1 0x5 SLOAD PUSH1 0x1 PUSH1 0x1 PUSH1 0xA0 SHL SUB AND ISZERO ISZERO JUMPDEST ISZERO PUSH2 0x1303 JUMPI PUSH1 0x5 SLOAD PUSH1 0x1 SLOAD PUSH2 0x1303 SWAP2 PUSH1 0x1 PUSH1 0x1 PUSH1 0xA0 SHL SUB SWAP2 DUP3 AND SWAP2 AND DUP4 PUSH2 0x1099 JUMP JUMPDEST PUSH1 0x0 PUSH2 0x2710 PUSH2 0x1314 DUP7 PUSH2 0x1F4 PUSH2 0x1A03 JUMP JUMPDEST PUSH2 0x131E SWAP2 SWAP1 PUSH2 0x1A1A JUMP JUMPDEST SWAP1 POP DUP1 ISZERO PUSH2 0x1343 JUMPI PUSH1 0x6 SLOAD PUSH1 0x1 SLOAD PUSH2 0x1343 SWAP2 PUSH1 0x1 PUSH1 0x1 PUSH1 0xA0 SHL SUB SWAP2 DUP3 AND SWAP2 AND DUP4 PUSH2 0x1099 JUMP JUMPDEST PUSH1 0x0 PUSH2 0x2710 PUSH2 0x1354 DUP8 PUSH2 0x1388 PUSH2 0x1A03 JUMP JUMPDEST PUSH2 0x135E SWAP2 SWAP1 PUSH2 0x1A1A JUMP JUMPDEST SWAP1 POP PUSH1 0x0 DUP2 GT DUP1 ISZERO PUSH2 0x1378 JUMPI POP PUSH1 0x1 PUSH1 0x1 PUSH1 0xA0 SHL SUB DUP8 AND ISZERO ISZERO JUMPDEST ISZERO PUSH2 0x13AB JUMPI PUSH1 0x1 PUSH1 0x1 PUSH1 0xA0 SHL SUB DUP8 AND PUSH1 0x0 SWAP1 DUP2 MSTORE PUSH1 0xA PUSH1 0x20 MSTORE PUSH1 0x40 DUP2 KECCAK256 DUP1 SLOAD DUP4 SWAP3 SWAP1 PUSH2 0x13A5 SWAP1 DUP5 SWAP1 PUSH2 0x19AB JUMP JUMPDEST SWAP1 SWAP2 SSTORE POP POP JUMPDEST PUSH1 0x0 PUSH2 0x2710 PUSH2 0x13BC DUP9 PUSH2 0x7D0 PUSH2 0x1A03 JUMP JUMPDEST PUSH2 0x13C6 SWAP2 SWAP1 PUSH2 0x1A1A JUMP JUMPDEST SWAP1 POP PUSH2 0x13D2 DUP10 DUP3 PUSH2 0x1728 JUMP JUMPDEST PUSH1 0x0 PUSH2 0x2710 PUSH2 0x13E3 PUSH2 0x7D0 DUP11 PUSH2 0x1A03 JUMP JUMPDEST PUSH2 0x13ED SWAP2 SWAP1 PUSH2 0x1A1A JUMP JUMPDEST SWAP1 POP PUSH1 0x0 PUSH2 0x13FA DUP3 PUSH2 0x1197 JUMP JUMPDEST SWAP1 POP DUP1 ISZERO PUSH2 0x1419 JUMPI PUSH1 0x2 SLOAD PUSH2 0x1419 SWAP1 PUSH1 0x1 PUSH1 0x1 PUSH1 0xA0 SHL SUB AND DUP13 DUP4 PUSH2 0x1099 JUMP JUMPDEST POP POP POP POP POP POP POP POP POP POP POP JUMP JUMPDEST PUSH1 0x1 PUSH1 0x1 PUSH1 0xA0 SHL SUB DUP2 AND PUSH1 0x0 SWAP1 DUP2 MSTORE PUSH1 0x8 PUSH1 0x20 MSTORE PUSH1 0x40 DUP2 KECCAK256 PUSH1 0x4 DUP2 ADD SLOAD SWAP1 SWAP2 PUSH4 0x5F5E100 SWAP2 PUSH2 0x1456 SWAP1 DUP4 SWAP1 PUSH2 0x1A3C JUMP JUMPDEST PUSH1 0x6 DUP5 ADD DUP1 SLOAD PUSH1 0xFF NOT AND PUSH1 0x1 OR SWAP1 SSTORE TIMESTAMP PUSH1 0x7 DUP6 ADD SSTORE PUSH1 0x4 DUP5 ADD DUP2 SWAP1 SSTORE SWAP1 POP PUSH1 0x0 PUSH2 0x2710 PUSH2 0x1485 DUP5 PUSH2 0x12C PUSH2 0x1A03 JUMP JUMPDEST PUSH2 0x148F SWAP2 SWAP1 PUSH2 0x1A1A JUMP JUMPDEST SWAP1 POP PUSH1 0x0 DUP2 GT DUP1 ISZERO PUSH2 0x14AB JUMPI POP PUSH1 0x3 SLOAD PUSH1 0x1 PUSH1 0x1 PUSH1 0xA0 SHL SUB AND ISZERO ISZERO JUMPDEST ISZERO PUSH2 0x14CD JUMPI PUSH1 0x3 SLOAD PUSH1 0x1 SLOAD PUSH2 0x14CD SWAP2 PUSH1 0x1 PUSH1 0x1 PUSH1 0xA0 SHL SUB SWAP2 DUP3 AND SWAP2 AND DUP4 PUSH2 0x1099 JUMP JUMPDEST PUSH1 0x0 PUSH2 0x2710 PUSH2 0x14DD DUP6 PUSH1 0x64 PUSH2 0x1A03 JUMP JUMPDEST PUSH2 0x14E7 SWAP2 SWAP1 PUSH2 0x1A1A JUMP JUMPDEST SWAP1 POP PUSH1 0x0 DUP2 GT DUP1 ISZERO PUSH2 0x1503 JUMPI POP PUSH1 0x4 SLOAD PUSH1 0x1 PUSH1 0x1 PUSH1 0xA0 SHL SUB AND ISZERO ISZERO JUMPDEST ISZERO PUSH2 0x1525 JUMPI PUSH1 0x4 SLOAD PUSH1 0x1 SLOAD PUSH2 0x1525 SWAP2 PUSH1 0x1 PUSH1 0x1 PUSH1 0xA0 SHL SUB SWAP2 DUP3 AND SWAP2 AND DUP4 PUSH2 0x1099 JUMP JUMPDEST PUSH1 0x0 PUSH2 0x2710 PUSH2 0x1535 DUP7 PUSH1 0x64 PUSH2 0x1A03 JUMP JUMPDEST PUSH2 0x153F SWAP2 SWAP1 PUSH2 0x1A1A JUMP JUMPDEST SWAP1 POP PUSH1 0x0 DUP2 GT DUP1 ISZERO PUSH2 0x155B JUMPI POP PUSH1 0x5 SLOAD PUSH1 0x1 PUSH1 0x1 PUSH1 0xA0 SHL SUB AND ISZERO ISZERO JUMPDEST ISZERO PUSH2 0x157D JUMPI PUSH1 0x5 SLOAD PUSH1 0x1 SLOAD PUSH2 0x157D SWAP2 PUSH1 0x1 PUSH1 0x1 PUSH1 0xA0 SHL SUB SWAP2 DUP3 AND SWAP2 AND DUP4 PUSH2 0x1099 JUMP JUMPDEST PUSH1 0x0 PUSH2 0x2710 PUSH2 0x158E DUP8 PUSH2 0x1F4 PUSH2 0x1A03 JUMP JUMPDEST PUSH2 0x1598 SWAP2 SWAP1 PUSH2 0x1A1A JUMP JUMPDEST SWAP1 POP DUP1 ISZERO PUSH2 0x15BD JUMPI PUSH1 0x6 SLOAD PUSH1 0x1 SLOAD PUSH2 0x15BD SWAP2 PUSH1 0x1 PUSH1 0x1 PUSH1 0xA0 SHL SUB SWAP2 DUP3 AND SWAP2 AND DUP4 PUSH2 0x1099 JUMP JUMPDEST PUSH1 0xE DUP1 SLOAD SWAP1 PUSH1 0x0 PUSH2 0x15CD DUP4 PUSH2 0x19BE JUMP JUMPDEST SWAP1 SWAP2 SSTORE POP POP PUSH1 0x40 DUP1 MLOAD DUP8 DUP2 MSTORE PUSH1 0x20 DUP2 ADD DUP8 SWAP1 MSTORE PUSH1 0x1 PUSH1 0x1 PUSH1 0xA0 SHL SUB DUP11 AND SWAP2 PUSH32 0xF421CCA2722190F4C2D3E2AB88D40EAB915757D0E4EBD56C9551BF23E070F4B1 SWAP2 ADD PUSH1 0x40 MLOAD DUP1 SWAP2 SUB SWAP1 LOG2 POP POP POP POP POP POP POP POP JUMP JUMPDEST PUSH1 0x0 DUP1 MLOAD PUSH1 0x20 PUSH2 0x1A50 DUP4 CODECOPY DUP2 MLOAD SWAP2 MSTORE SLOAD PUSH1 0x2 SUB PUSH2 0x6D8 JUMPI PUSH1 0x40 MLOAD PUSH4 0x3EE5AEB5 PUSH1 0xE0 SHL DUP2 MSTORE PUSH1 0x4 ADD PUSH1 0x40 MLOAD DUP1 SWAP2 SUB SWAP1 REVERT JUMPDEST PUSH1 0x40 MLOAD PUSH4 0xA9059CBB PUSH1 0xE0 SHL PUSH1 0x0 DUP2 DUP2 MSTORE PUSH1 0x1 PUSH1 0x1 PUSH1 0xA0 SHL SUB DUP7 AND PUSH1 0x4 MSTORE PUSH1 0x24 DUP6 SWAP1 MSTORE SWAP2 PUSH1 0x20 DUP4 PUSH1 0x44 DUP2 DUP1 DUP12 GAS CALL SWAP3 POP PUSH1 0x1 PUSH1 0x0 MLOAD EQ DUP4 AND PUSH2 0x16AA JUMPI DUP4 DUP4 ISZERO AND ISZERO PUSH2 0x169D JUMPI RETURNDATASIZE PUSH1 0x0 DUP3 RETURNDATACOPY RETURNDATASIZE DUP2 REVERT JUMPDEST PUSH1 0x0 DUP8 EXTCODESIZE GT RETURNDATASIZE ISZERO AND DUP4 AND SWAP3 POP JUMPDEST PUSH1 0x40 MSTORE POP SWAP5 SWAP4 POP POP POP POP JUMP JUMPDEST PUSH1 0x40 MLOAD PUSH4 0x23B872DD PUSH1 0xE0 SHL PUSH1 0x0 DUP2 DUP2 MSTORE PUSH1 0x1 PUSH1 0x1 PUSH1 0xA0 SHL SUB DUP8 DUP2 AND PUSH1 0x4 MSTORE DUP7 AND PUSH1 0x24 MSTORE PUSH1 0x44 DUP6 SWAP1 MSTORE SWAP2 PUSH1 0x20 DUP4 PUSH1 0x64 DUP2 DUP1 DUP13 GAS CALL SWAP3 POP PUSH1 0x1 PUSH1 0x0 MLOAD EQ DUP4 AND PUSH2 0x1716 JUMPI DUP4 DUP4 ISZERO AND ISZERO PUSH2 0x1709 JUMPI RETURNDATASIZE PUSH1 0x0 DUP3 RETURNDATACOPY RETURNDATASIZE DUP2 REVERT JUMPDEST PUSH1 0x0 DUP9 EXTCODESIZE GT RETURNDATASIZE ISZERO AND DUP4 AND SWAP3 POP JUMPDEST PUSH1 0x40 MSTORE POP PUSH1 0x0 PUSH1 0x60 MSTORE SWAP6 SWAP5 POP POP POP POP POP JUMP JUMPDEST PUSH1 0x1 PUSH1 0x1 PUSH1 0xA0 SHL SUB DUP1 DUP4 AND PUSH1 0x0 SWAP1 DUP2 MSTORE PUSH1 0x8 PUSH1 0x20 MSTORE PUSH1 0x40 DUP2 KECCAK256 PUSH1 0x2 ADD SLOAD SWAP1 SWAP2 AND SWAP1 PUSH1 0x1 SWAP1 JUMPDEST PUSH1 0x1 PUSH1 0x1 PUSH1 0xA0 SHL SUB DUP4 AND ISZERO DUP1 ISZERO SWAP1 PUSH2 0x1766 JUMPI POP PUSH1 0x14 DUP3 GT ISZERO JUMPDEST DUP1 ISZERO PUSH2 0x1771 JUMPI POP DUP4 DUP2 LT JUMPDEST ISZERO PUSH2 0x187D JUMPI PUSH3 0xF4240 DUP5 PUSH2 0x1785 DUP3 DUP5 PUSH2 0x19AB JUMP JUMPDEST GT ISZERO PUSH2 0x1798 JUMPI PUSH2 0x1795 DUP3 DUP7 PUSH2 0x1A3C JUMP JUMPDEST SWAP1 POP JUMPDEST PUSH1 0x1 PUSH1 0x1 PUSH1 0xA0 SHL SUB DUP5 AND PUSH1 0x0 SWAP1 DUP2 MSTORE PUSH1 0x8 PUSH1 0x20 MSTORE PUSH1 0x40 DUP2 KECCAK256 PUSH1 0x5 ADD DUP1 SLOAD DUP4 SWAP3 SWAP1 PUSH2 0x17C3 SWAP1 DUP5 SWAP1 PUSH2 0x19AB JUMP JUMPDEST SWAP1 SWAP2 SSTORE POP POP PUSH1 0x1 PUSH1 0x1 PUSH1 0xA0 SHL SUB DUP5 AND PUSH1 0x0 SWAP1 DUP2 MSTORE PUSH1 0x8 PUSH1 0x20 MSTORE PUSH1 0x40 DUP2 KECCAK256 PUSH1 0x4 ADD DUP1 SLOAD DUP4 SWAP3 SWAP1 PUSH2 0x17F3 SWAP1 DUP5 SWAP1 PUSH2 0x19AB JUMP JUMPDEST SWAP1 SWAP2 SSTORE POP POP PUSH1 0x40 DUP1 MLOAD DUP5 DUP2 MSTORE PUSH1 0x20 DUP2 ADD DUP4 SWAP1 MSTORE PUSH1 0x1 PUSH1 0x1 PUSH1 0xA0 SHL SUB DUP7 AND SWAP2 PUSH32 0x31B26951AB5FBBB994CB792BE38DE8E429ED0FBB0CB04AA9E21B2D13D0E5DE42 SWAP2 ADD PUSH1 0x40 MLOAD DUP1 SWAP2 SUB SWAP1 LOG2 PUSH1 0x1 PUSH1 0x1 PUSH1 0xA0 SHL SUB SWAP4 DUP5 AND PUSH1 0x0 SWAP1 DUP2 MSTORE PUSH1 0x8 PUSH1 0x20 MSTORE PUSH1 0x40 SWAP1 KECCAK256 PUSH1 0x2 ADD SLOAD SWAP1 SWAP4 AND SWAP3 DUP3 PUSH2 0x1867 DUP2 PUSH2 0x19BE JUMP JUMPDEST SWAP4 POP PUSH2 0x1875 SWAP1 POP DUP2 DUP4 PUSH2 0x19AB JUMP JUMPDEST SWAP2 POP POP PUSH2 0x174D JUMP JUMPDEST POP POP POP POP POP JUMP JUMPDEST DUP1 CALLDATALOAD PUSH1 0x1 PUSH1 0x1 PUSH1 0xA0 SHL SUB DUP2 AND DUP2 EQ PUSH2 0x189B JUMPI PUSH1 0x0 DUP1 REVERT JUMPDEST SWAP2 SWAP1 POP JUMP JUMPDEST PUSH1 0x0 DUP1 PUSH1 0x0 PUSH1 0x60 DUP5 DUP7 SUB SLT ISZERO PUSH2 0x18B5 JUMPI PUSH1 0x0 DUP1 REVERT JUMPDEST PUSH2 0x18BE DUP5 PUSH2 0x1884 JUMP JUMPDEST SWAP3 POP PUSH2 0x18CC PUSH1 0x20 DUP6 ADD PUSH2 0x1884 JUMP JUMPDEST SWAP2 POP PUSH2 0x18DA PUSH1 0x40 DUP6 ADD PUSH2 0x1884 JUMP JUMPDEST SWAP1 POP SWAP3 POP SWAP3 POP SWAP3 JUMP JUMPDEST PUSH1 0x0 PUSH1 0x20 DUP3 DUP5 SUB SLT ISZERO PUSH2 0x18F5 JUMPI PUSH1 0x0 DUP1 REVERT JUMPDEST POP CALLDATALOAD SWAP2 SWAP1 POP JUMP JUMPDEST PUSH1 0x0 PUSH1 0x20 DUP3 DUP5 SUB SLT ISZERO PUSH2 0x190E JUMPI PUSH1 0x0 DUP1 REVERT JUMPDEST PUSH2 0x1917 DUP3 PUSH2 0x1884 JUMP JUMPDEST SWAP4 SWAP3 POP POP POP JUMP JUMPDEST PUSH1 0x20 DUP1 DUP3 MSTORE DUP3 MLOAD DUP3 DUP3 ADD DUP2 SWAP1 MSTORE PUSH1 0x0 SWAP2 SWAP1 DUP5 DUP3 ADD SWAP1 PUSH1 0x40 DUP6 ADD SWAP1 DUP5 JUMPDEST DUP2 DUP2 LT ISZERO PUSH2 0x195F JUMPI DUP4 MLOAD PUSH1 0x1 PUSH1 0x1 PUSH1 0xA0 SHL SUB AND DUP4 MSTORE SWAP3 DUP5 ADD SWAP3 SWAP2 DUP5 ADD SWAP2 PUSH1 0x1 ADD PUSH2 0x193A JUMP JUMPDEST POP SWAP1 SWAP7 SWAP6 POP POP POP POP POP POP JUMP JUMPDEST PUSH1 0x0 DUP1 PUSH1 0x40 DUP4 DUP6 SUB SLT ISZERO PUSH2 0x197E JUMPI PUSH1 0x0 DUP1 REVERT JUMPDEST PUSH2 0x1987 DUP4 PUSH2 0x1884 JUMP JUMPDEST SWAP5 PUSH1 0x20 SWAP4 SWAP1 SWAP4 ADD CALLDATALOAD SWAP4 POP POP POP JUMP JUMPDEST PUSH4 0x4E487B71 PUSH1 0xE0 SHL PUSH1 0x0 MSTORE PUSH1 0x11 PUSH1 0x4 MSTORE PUSH1 0x24 PUSH1 0x0 REVERT JUMPDEST DUP1 DUP3 ADD DUP1 DUP3 GT ISZERO PUSH2 0xB5C JUMPI PUSH2 0xB5C PUSH2 0x1995 JUMP JUMPDEST PUSH1 0x0 PUSH1 0x1 DUP3 ADD PUSH2 0x19D0 JUMPI PUSH2 0x19D0 PUSH2 0x1995 JUMP JUMPDEST POP PUSH1 0x1 ADD SWAP1 JUMP JUMPDEST PUSH4 0x4E487B71 PUSH1 0xE0 SHL PUSH1 0x0 MSTORE PUSH1 0x41 PUSH1 0x4 MSTORE PUSH1 0x24 PUSH1 0x0 REVERT JUMPDEST PUSH4 0x4E487B71 PUSH1 0xE0 SHL PUSH1 0x0 MSTORE PUSH1 0x32 PUSH1 0x4 MSTORE PUSH1 0x24 PUSH1 0x0 REVERT JUMPDEST DUP1 DUP3 MUL DUP2 ISZERO DUP3 DUP3 DIV DUP5 EQ OR PUSH2 0xB5C JUMPI PUSH2 0xB5C PUSH2 0x1995 JUMP JUMPDEST PUSH1 0x0 DUP3 PUSH2 0x1A37 JUMPI PUSH4 0x4E487B71 PUSH1 0xE0 SHL PUSH1 0x0 MSTORE PUSH1 0x12 PUSH1 0x4 MSTORE PUSH1 0x24 PUSH1 0x0 REVERT JUMPDEST POP DIV SWAP1 JUMP JUMPDEST DUP2 DUP2 SUB DUP2 DUP2 GT ISZERO PUSH2 0xB5C JUMPI PUSH2 0xB5C PUSH2 0x1995 JUMP INVALID SWAP12 PUSH24 0x9B17422D0DF92223018B32B4D1FA46E071723D6817E2486D STOP EXTCODESIZE 0xEC 0xC5 PUSH0 STOP LOG2 PUSH5 0x6970667358 0x22 SLT KECCAK256 0xB8 0x4E SWAP16 0xC7 0x4D CALLVALUE BYTE SSTORE PUSH18 0x1670F09919243049C940BE55E260895FA98C SDIV 0xB7 DUP2 0xBC STOP PUSH5 0x736F6C6343 STOP ADDMOD XOR STOP CALLER "},"methodIdentifiers":{"DIRECT_REFERRAL_REWARD()":"998489be","MAX_REFERRAL_LEVELS()":"617b99d2","REINVEST_AMOUNT()":"930b95b2","REINVEST_THRESHOLD()":"ec0c1904","RETURN_RATIO()":"a998c7d7","SEE_POINT_REWARD()":"e8a895ea","VIP_ACTIVATION_FEE()":"0c3ce2d1","activateVIP(address)":"d85ad4cb","burnAddress()":"70d5ae05","calculateTFTReturn(uint256)":"cd5995d1","canReinvest(address)":"b2ec26ca","claimDirectReward()":"12453be7","claimSeePointReward()":"be3b333a","getDirectReferrals(address)":"d2c8e0e5","getReferralChain(address)":"6667864d","getVIPInfo(address)":"e83c4148","getVIPRewards(address)":"8e65ff88","marketMakerPool()":"4513443a","nodePool()":"d8f1f8f4","operationsWallet()":"fd72e22a","owner()":"8da5cb5b","pendingDirectRewards(address)":"6f38bcb5","priceOracle()":"2630c12f","referrals(address,uint256)":"e697b5d8","reinvest()":"fdb5a03e","renounceOwnership()":"715018a6","setPriceOracle(address)":"530e784f","setTFTPrice(uint256)":"3b39d547","tft()":"5fbd83f4","tftPriceInUSDT()":"9ecc458d","totalDirectRewardsDistributed()":"b6537080","totalReinvestments()":"6d06175a","totalSeePointRewardsDistributed()":"b6356c95","totalVIPs()":"6d27f5b9","transferOwnership(address)":"f2fde38b","updateAddresses(address,address,address)":"334c1439","usdt()":"2f48ab7d","vipUsers(address)":"421a9ab1"}}}}}