{"src/AutoBurn.sol":{"AutoBurn":{"abi":[{"inputs":[{"internalType":"address","name":"_tft","type":"address"},{"internalType":"address","name":"_usdt","type":"address"},{"internalType":"address","name":"_lpToken","type":"address"}],"stateMutability":"nonpayable","type":"constructor"},{"inputs":[{"internalType":"address","name":"owner","type":"address"}],"name":"OwnableInvalidOwner","type":"error"},{"inputs":[{"internalType":"address","name":"account","type":"address"}],"name":"OwnableUnauthorizedAccount","type":"error"},{"inputs":[{"internalType":"address","name":"token","type":"address"}],"name":"SafeERC20FailedOperation","type":"error"},{"anonymous":false,"inputs":[{"indexed":false,"internalType":"uint256","name":"amount","type":"uint256"},{"indexed":false,"internalType":"uint256","name":"tier","type":"uint256"},{"indexed":false,"internalType":"uint256","name":"poolSize","type":"uint256"},{"indexed":false,"internalType":"uint256","name":"timestamp","type":"uint256"}],"name":"AutoBurnExecuted","type":"event"},{"anonymous":false,"inputs":[{"indexed":false,"internalType":"bool","name":"enabled","type":"bool"}],"name":"AutoBurnToggled","type":"event"},{"anonymous":false,"inputs":[{"indexed":false,"internalType":"address","name":"lpToken","type":"address"}],"name":"LPTokenUpdated","type":"event"},{"anonymous":false,"inputs":[{"indexed":true,"internalType":"address","name":"previousOwner","type":"address"},{"indexed":true,"internalType":"address","name":"newOwner","type":"address"}],"name":"OwnershipTransferred","type":"event"},{"inputs":[],"name":"BURN_ADDRESS","outputs":[{"internalType":"address","name":"","type":"address"}],"stateMutability":"view","type":"function"},{"inputs":[],"name":"BURN_INTERVAL","outputs":[{"internalType":"uint256","name":"","type":"uint256"}],"stateMutability":"view","type":"function"},{"inputs":[],"name":"MIN_SUPPLY","outputs":[{"internalType":"uint256","name":"","type":"uint256"}],"stateMutability":"view","type":"function"},{"inputs":[],"name":"RATE_BASE","outputs":[{"internalType":"uint256","name":"","type":"uint256"}],"stateMutability":"view","type":"function"},{"inputs":[],"name":"TIER_1_RATE","outputs":[{"internalType":"uint256","name":"","type":"uint256"}],"stateMutability":"view","type":"function"},{"inputs":[],"name":"TIER_1_RATE_PRECISE","outputs":[{"internalType":"uint256","name":"","type":"uint256"}],"stateMutability":"view","type":"function"},{"inputs":[],"name":"TIER_1_THRESHOLD","outputs":[{"internalType":"uint256","name":"","type":"uint256"}],"stateMutability":"view","type":"function"},{"inputs":[],"name":"TIER_2_RATE","outputs":[{"internalType":"uint256","name":"","type":"uint256"}],"stateMutability":"view","type":"function"},{"inputs":[],"name":"TIER_2_RATE_PRECISE","outputs":[{"internalType":"uint256","name":"","type":"uint256"}],"stateMutability":"view","type":"function"},{"inputs":[],"name":"TIER_2_THRESHOLD","outputs":[{"internalType":"uint256","name":"","type":"uint256"}],"stateMutability":"view","type":"function"},{"inputs":[],"name":"TIER_3_RATE","outputs":[{"internalType":"uint256","name":"","type":"uint256"}],"stateMutability":"view","type":"function"},{"inputs":[],"name":"TIER_3_RATE_PRECISE","outputs":[{"internalType":"uint256","name":"","type":"uint256"}],"stateMutability":"view","type":"function"},{"inputs":[],"name":"TIER_3_THRESHOLD","outputs":[{"internalType":"uint256","name":"","type":"uint256"}],"stateMutability":"view","type":"function"},{"inputs":[],"name":"TIER_4_THRESHOLD","outputs":[{"internalType":"uint256","name":"","type":"uint256"}],"stateMutability":"view","type":"function"},{"inputs":[],"name":"autoBurnEnabled","outputs":[{"internalType":"bool","name":"","type":"bool"}],"stateMutability":"view","type":"function"},{"inputs":[],"name":"burnCount","outputs":[{"internalType":"uint256","name":"","type":"uint256"}],"stateMutability":"view","type":"function"},{"inputs":[],"name":"canExecuteBurn","outputs":[{"internalType":"bool","name":"","type":"bool"}],"stateMutability":"view","type":"function"},{"inputs":[{"internalType":"uint256","name":"amount","type":"uint256"}],"name":"depositForBurn","outputs":[],"stateMutability":"nonpayable","type":"function"},{"inputs":[{"internalType":"address","name":"token","type":"address"},{"internalType":"uint256","name":"amount","type":"uint256"}],"name":"emergencyWithdraw","outputs":[],"stateMutability":"nonpayable","type":"function"},{"inputs":[],"name":"executeAutoBurn","outputs":[],"stateMutability":"nonpayable","type":"function"},{"inputs":[],"name":"getBurnStats","outputs":[{"internalType":"uint256","name":"_totalBurned","type":"uint256"},{"internalType":"uint256","name":"_burnCount","type":"uint256"},{"internalType":"uint256","name":"_lastBurnTime","type":"uint256"},{"internalType":"uint256","name":"_nextBurnTime","type":"uint256"},{"internalType":"uint256","name":"_currentSupply","type":"uint256"},{"internalType":"uint256","name":"_supplyUntilMin","type":"uint256"}],"stateMutability":"view","type":"function"},{"inputs":[],"name":"getCurrentTierInfo","outputs":[{"internalType":"uint256","name":"tier","type":"uint256"},{"internalType":"uint256","name":"rate","type":"uint256"},{"internalType":"uint256","name":"poolSize","type":"uint256"},{"internalType":"uint256","name":"nextTierThreshold","type":"uint256"},{"internalType":"uint256","name":"burnAmountIfExecuted","type":"uint256"}],"stateMutability":"view","type":"function"},{"inputs":[],"name":"getTierConfig","outputs":[{"internalType":"uint256","name":"tier1Threshold","type":"uint256"},{"internalType":"uint256","name":"tier2Threshold","type":"uint256"},{"internalType":"uint256","name":"tier3Threshold","type":"uint256"},{"internalType":"uint256","name":"tier4Threshold","type":"uint256"},{"internalType":"uint256","name":"tier1Rate","type":"uint256"},{"internalType":"uint256","name":"tier2Rate","type":"uint256"},{"internalType":"uint256","name":"tier3Rate","type":"uint256"}],"stateMutability":"pure","type":"function"},{"inputs":[],"name":"lastBurnTime","outputs":[{"internalType":"uint256","name":"","type":"uint256"}],"stateMutability":"view","type":"function"},{"inputs":[],"name":"lpToken","outputs":[{"internalType":"address","name":"","type":"address"}],"stateMutability":"view","type":"function"},{"inputs":[{"internalType":"uint256","name":"amount","type":"uint256"}],"name":"manualBurn","outputs":[],"stateMutability":"nonpayable","type":"function"},{"inputs":[],"name":"owner","outputs":[{"internalType":"address","name":"","type":"address"}],"stateMutability":"view","type":"function"},{"inputs":[],"name":"renounceOwnership","outputs":[],"stateMutability":"nonpayable","type":"function"},{"inputs":[{"internalType":"bool","name":"_enabled","type":"bool"}],"name":"setAutoBurnEnabled","outputs":[],"stateMutability":"nonpayable","type":"function"},{"inputs":[{"internalType":"address","name":"_lpToken","type":"address"}],"name":"setLPToken","outputs":[],"stateMutability":"nonpayable","type":"function"},{"inputs":[],"name":"tft","outputs":[{"internalType":"contract IERC20","name":"","type":"address"}],"stateMutability":"view","type":"function"},{"inputs":[],"name":"totalBurned","outputs":[{"internalType":"uint256","name":"","type":"uint256"}],"stateMutability":"view","type":"function"},{"inputs":[{"internalType":"address","name":"newOwner","type":"address"}],"name":"transferOwnership","outputs":[],"stateMutability":"nonpayable","type":"function"},{"inputs":[],"name":"usdt","outputs":[{"internalType":"contract IERC20","name":"","type":"address"}],"stateMutability":"view","type":"function"}],"evm":{"bytecode":{"linkReferences":{},"object":"60c06040526005805460ff191660011790553480156200001e57600080fd5b5060405162001670380380620016708339810160408190526200004191620001c1565b33806200006957604051631e4fbdf760e01b8152600060048201526024015b60405180910390fd5b620000748162000154565b506001600160a01b038316620000cd5760405162461bcd60e51b815260206004820152601360248201527f496e76616c696420544654206164647265737300000000000000000000000000604482015260640162000060565b6001600160a01b038216620001255760405162461bcd60e51b815260206004820152601460248201527f496e76616c696420555344542061646472657373000000000000000000000000604482015260640162000060565b6001600160a01b0392831660805290821660a052600180546001600160a01b031916919092161790556200020b565b600080546001600160a01b038381166001600160a01b0319831681178455604051919092169283917f8be0079c531659141344cd1fd0a4f28419497f9722a3daafe3b4186f6b6457e09190a35050565b80516001600160a01b0381168114620001bc57600080fd5b919050565b600080600060608486031215620001d757600080fd5b620001e284620001a4565b9250620001f260208501620001a4565b91506200020260408501620001a4565b90509250925092565b60805160a0516113e46200028c6000396000818161029d0152610ff5015260008181610302015281816104ae015281816104f9015281816105be015281816106a301528181610767015281816108cb015281816109a701528181610bc401528181610cc401528181610d9601528181610e1f015261110101526113e46000f3fe608060405234801561001057600080fd5b50600436106102055760003560e01c80637b1648e21161011a578063d1316ec1116100ad578063ef2f90cf1161007c578063ef2f90cf14610440578063f2fde38b1461044d578063f576f72214610460578063fc0d78b814610490578063fccc28131461049857600080fd5b8063d1316ec1146103c0578063d89135cd14610425578063e30674491461042e578063e3113d591461043757600080fd5b8063a40e6bda116100e9578063a40e6bda146103b8578063b54dd59b146103c0578063c9793d49146103c8578063cb9ea3371461041857600080fd5b80637b1648e21461036e5780638da5cb5b1461037757806395ccea67146103885780639dd255da1461039b57600080fd5b806335917c641161019d5780635fcbd2851161016c5780635fcbd28514610324578063615e2cad1461033757806364edbf9d146103405780636a678a9c14610353578063715018a61461036657600080fd5b806335917c64146102d7578063524773ce146102e857806357eb05f3146102f15780635fbd83f4146102fd57600080fd5b80631b82f5d9116101d95780631b82f5d91461023b57806323b63585146102505780632f37ea7a146102635780632f48ab7d1461029857600080fd5b8062bb6e921461020a5780630873c6ec14610229578063130c69db146102335780631a6f9c6414610233575b600080fd5b610216640baa31550081565b6040519081526020015b60405180910390f35b610216620f424081565b610216600581565b61024e610249366004611265565b6104a1565b005b61024e61025e366004611265565b6104d9565b61026b61074a565b604080519687526020870195909552938501929092526060840152608083015260a082015260c001610220565b6102bf7f000000000000000000000000000000000000000000000000000000000000000081565b6040516001600160a01b039091168152602001610220565b610216690a968163f0a57b40000081565b61021660045481565b610216640ba43b740081565b6102bf7f000000000000000000000000000000000000000000000000000000000000000081565b6001546102bf906001600160a01b031681565b61021661138881565b61024e61034e36600461127e565b610807565b61024e6103613660046112bc565b610857565b61024e6108ad565b610216610e1081565b6000546001600160a01b03166102bf565b61024e6103963660046112d7565b6108c1565b6005546103a89060ff1681565b6040519015158152602001610220565b6103a861096a565b610216603281565b6040805165048c2739500081526501d1a94a20006020820152640baa31550091810191909152640ba43b7400606082015261138860808201526101f460a0820152603260c082015260e001610220565b6102166501d1a94a200081565b61021660035481565b61021660025481565b6102166101f481565b61021665048c2739500081565b61024e61045b3660046112bc565b610a63565b610468610a9e565b604080519586526020860194909452928401919091526060830152608082015260a001610220565b61024e610b25565b6102bf61dead81565b6104d66001600160a01b037f000000000000000000000000000000000000000000000000000000000000000016333084610ed4565b50565b6104e1610f10565b6040516370a0823160e01b81523060048201526000907f00000000000000000000000000000000000000000000000000000000000000006001600160a01b0316906370a0823190602401602060405180830381865afa158015610548573d6000803e3d6000fd5b505050506040513d601f19601f8201168201806040525081019061056c9190611301565b9050818110156105ba5760405162461bcd60e51b8152602060048201526014602482015273496e73756666696369656e742062616c616e636560601b60448201526064015b60405180910390fd5b60007f00000000000000000000000000000000000000000000000000000000000000006001600160a01b03166318160ddd6040518163ffffffff1660e01b8152600401602060405180830381865afa15801561061a573d6000803e3d6000fd5b505050506040513d601f19601f8201168201806040525081019061063e9190611301565b9050690a968163f0a57b4000006106558483611330565b10156106965760405162461bcd60e51b815260206004820152601060248201526f42656c6f77206d696e20737570706c7960801b60448201526064016105b1565b6106cc6001600160a01b037f00000000000000000000000000000000000000000000000000000000000000001661dead85610f3d565b82600360008282546106de9190611349565b9091555050600480549060006106f38361135c565b909155505042600281905560408051858152600060208201819052818301526060810192909252517f848e8e49be37c71ee4425ebfa5dbb93246957834441c44cada9e0ed34612bcdc9181900360800190a1505050565b60035460045460025460008080610763610e1085611349565b92507f00000000000000000000000000000000000000000000000000000000000000006001600160a01b03166318160ddd6040518163ffffffff1660e01b8152600401602060405180830381865afa1580156107c3573d6000803e3d6000fd5b505050506040513d601f19601f820116820180604052508101906107e79190611301565b91506107fd690a968163f0a57b40000083611330565b9050909192939495565b61080f610f10565b6005805460ff19168215159081179091556040519081527f78fc20422fbd33cc7aef5e4e1c182fdc815f20c1c15af2ff53e83c223017dbf8906020015b60405180910390a150565b61085f610f10565b600180546001600160a01b0319166001600160a01b0383169081179091556040519081527ff9d1c90c609623055381582a51735b38df3243eb09629a9170b15c2ab6bc07399060200161084c565b6108b5610f10565b6108bf6000610f77565b565b6108c9610f10565b7f00000000000000000000000000000000000000000000000000000000000000006001600160a01b0316826001600160a01b0316036109405760405162461bcd60e51b815260206004820152601360248201527210d85b9b9bdd081dda5d1a191c985dc8151195606a1b60448201526064016105b1565b6109666109556000546001600160a01b031690565b6001600160a01b0384169083610f3d565b5050565b60055460009060ff1661097d5750600090565b610e1060025461098d9190611349565b42101561099a5750600090565b690a968163f0a57b4000007f00000000000000000000000000000000000000000000000000000000000000006001600160a01b03166318160ddd6040518163ffffffff1660e01b8152600401602060405180830381865afa158015610a03573d6000803e3d6000fd5b505050506040513d601f19601f82011682018060405250810190610a279190611301565b11610a325750600090565b6000610a3c610fc7565b90506000610a498261106d565b509050600081118015610a5c5750600481105b9250505090565b610a6b610f10565b6001600160a01b038116610a9557604051631e4fbdf760e01b8152600060048201526024016105b1565b6104d681610f77565b6000806000806000610aae610fc7565b9250610ab98361106d565b90955093508315610ad057610acd846110df565b90505b640baa315500831015610aea57640baa3155009150610b1e565b6501d1a94a2000831015610b06576501d1a94a20009150610b1e565b65048c27395000831015610b1e5765048c2739500091505b9091929394565b60055460ff16610b6c5760405162461bcd60e51b8152602060048201526012602482015271105d5d1bc8189d5c9b88191a5cd8589b195960721b60448201526064016105b1565b610e10600254610b7c9190611349565b421015610bb75760405162461bcd60e51b8152602060048201526009602482015268546f6f206561726c7960b81b60448201526064016105b1565b690a968163f0a57b4000007f00000000000000000000000000000000000000000000000000000000000000006001600160a01b03166318160ddd6040518163ffffffff1660e01b8152600401602060405180830381865afa158015610c20573d6000803e3d6000fd5b505050506040513d601f19601f82011682018060405250810190610c449190611301565b11610c865760405162461bcd60e51b8152602060048201526012602482015271135a5b881cdd5c1c1b1e481c995858da195960721b60448201526064016105b1565b6000610c90610fc7565b9050600080610c9e8361106d565b9150915081600003610cb35750504260025550565b6000610cbe826110df565b905060007f00000000000000000000000000000000000000000000000000000000000000006001600160a01b03166318160ddd6040518163ffffffff1660e01b8152600401602060405180830381865afa158015610d20573d6000803e3d6000fd5b505050506040513d601f19601f82011682018060405250810190610d449190611301565b9050690a968163f0a57b400000610d5b8383611330565b1015610d7857610d75690a968163f0a57b40000082611330565b91505b8115610ec8576040516370a0823160e01b81523060048201526000907f00000000000000000000000000000000000000000000000000000000000000006001600160a01b0316906370a0823190602401602060405180830381865afa158015610de5573d6000803e3d6000fd5b505050506040513d601f19601f82011682018060405250810190610e099190611301565b9050828110610ec257610e486001600160a01b037f00000000000000000000000000000000000000000000000000000000000000001661dead85610f3d565b8260036000828254610e5a9190611349565b909155505060048054906000610e6f8361135c565b909155505042600281905560408051858152602081018890528082018990526060810192909252517f848e8e49be37c71ee4425ebfa5dbb93246957834441c44cada9e0ed34612bcdc9181900360800190a15b50610ecd565b426002555b5050505050565b610ee284848484600161118d565b610f0a57604051635274afe760e01b81526001600160a01b03851660048201526024016105b1565b50505050565b6000546001600160a01b031633146108bf5760405163118cdaa760e01b81523360048201526024016105b1565b610f4a83838360016111ff565b610f7257604051635274afe760e01b81526001600160a01b03841660048201526024016105b1565b505050565b600080546001600160a01b038381166001600160a01b0319831681178455604051919092169283917f8be0079c531659141344cd1fd0a4f28419497f9722a3daafe3b4186f6b6457e09190a35050565b6001546000906001600160a01b0316610fe05750600090565b6040516370a0823160e01b81523060048201527f00000000000000000000000000000000000000000000000000000000000000006001600160a01b0316906370a0823190602401602060405180830381865afa158015611044573d6000803e3d6000fd5b505050506040513d601f19601f820116820180604052508101906110689190611301565b905090565b60008065048c27395000831061108a575060019261138892509050565b6501d1a94a200083106110a457506002926101f492509050565b640baa31550083106110bc5750600392603292509050565b640ba43b740083106110d45750600492600092509050565b506000928392509050565b6040516370a0823160e01b815230600482015260009081906001600160a01b037f000000000000000000000000000000000000000000000000000000000000000016906370a0823190602401602060405180830381865afa158015611148573d6000803e3d6000fd5b505050506040513d601f19601f8201168201806040525081019061116c9190611301565b9050620f424061117c8483611375565b611186919061138c565b9392505050565b6040516323b872dd60e01b60008181526001600160a01b038781166004528616602452604485905291602083606481808c5af1925060016000511483166111ed5783831516156111e0573d6000823e3d81fd5b6000883b113d1516831692505b60405250600060605295945050505050565b60405163a9059cbb60e01b60008181526001600160a01b038616600452602485905291602083604481808b5af19250600160005114831661125957838315161561124c573d6000823e3d81fd5b6000873b113d1516831692505b60405250949350505050565b60006020828403121561127757600080fd5b5035919050565b60006020828403121561129057600080fd5b8135801515811461118657600080fd5b80356001600160a01b03811681146112b757600080fd5b919050565b6000602082840312156112ce57600080fd5b611186826112a0565b600080604083850312156112ea57600080fd5b6112f3836112a0565b946020939093013593505050565b60006020828403121561131357600080fd5b5051919050565b634e487b7160e01b600052601160045260246000fd5b818103818111156113435761134361131a565b92915050565b808201808211156113435761134361131a565b60006001820161136e5761136e61131a565b5060010190565b80820281158282048414176113435761134361131a565b6000826113a957634e487b7160e01b600052601260045260246000fd5b50049056fea2646970667358221220288e2cab0796f4b87e494b4b8a575ee25fadbbb476ab960d05738312f70abe6564736f6c63430008180033","opcodes":"PUSH1 0xC0 PUSH1 0x40 MSTORE PUSH1 0x5 DUP1 SLOAD PUSH1 0xFF NOT AND PUSH1 0x1 OR SWAP1 SSTORE CALLVALUE DUP1 ISZERO PUSH3 0x1E JUMPI PUSH1 0x0 DUP1 REVERT JUMPDEST POP PUSH1 0x40 MLOAD PUSH3 0x1670 CODESIZE SUB DUP1 PUSH3 0x1670 DUP4 CODECOPY DUP2 ADD PUSH1 0x40 DUP2 SWAP1 MSTORE PUSH3 0x41 SWAP2 PUSH3 0x1C1 JUMP JUMPDEST CALLER DUP1 PUSH3 0x69 JUMPI PUSH1 0x40 MLOAD PUSH4 0x1E4FBDF7 PUSH1 0xE0 SHL DUP2 MSTORE PUSH1 0x0 PUSH1 0x4 DUP3 ADD MSTORE PUSH1 0x24 ADD JUMPDEST PUSH1 0x40 MLOAD DUP1 SWAP2 SUB SWAP1 REVERT JUMPDEST PUSH3 0x74 DUP2 PUSH3 0x154 JUMP JUMPDEST POP PUSH1 0x1 PUSH1 0x1 PUSH1 0xA0 SHL SUB DUP4 AND PUSH3 0xCD JUMPI PUSH1 0x40 MLOAD PUSH3 0x461BCD PUSH1 0xE5 SHL DUP2 MSTORE PUSH1 0x20 PUSH1 0x4 DUP3 ADD MSTORE PUSH1 0x13 PUSH1 0x24 DUP3 ADD MSTORE PUSH32 0x496E76616C696420544654206164647265737300000000000000000000000000 PUSH1 0x44 DUP3 ADD MSTORE PUSH1 0x64 ADD PUSH3 0x60 JUMP JUMPDEST PUSH1 0x1 PUSH1 0x1 PUSH1 0xA0 SHL SUB DUP3 AND PUSH3 0x125 JUMPI PUSH1 0x40 MLOAD PUSH3 0x461BCD PUSH1 0xE5 SHL DUP2 MSTORE PUSH1 0x20 PUSH1 0x4 DUP3 ADD MSTORE PUSH1 0x14 PUSH1 0x24 DUP3 ADD MSTORE PUSH32 0x496E76616C696420555344542061646472657373000000000000000000000000 PUSH1 0x44 DUP3 ADD MSTORE PUSH1 0x64 ADD PUSH3 0x60 JUMP JUMPDEST PUSH1 0x1 PUSH1 0x1 PUSH1 0xA0 SHL SUB SWAP3 DUP4 AND PUSH1 0x80 MSTORE SWAP1 DUP3 AND PUSH1 0xA0 MSTORE PUSH1 0x1 DUP1 SLOAD PUSH1 0x1 PUSH1 0x1 PUSH1 0xA0 SHL SUB NOT AND SWAP2 SWAP1 SWAP3 AND OR SWAP1 SSTORE PUSH3 0x20B JUMP JUMPDEST PUSH1 0x0 DUP1 SLOAD PUSH1 0x1 PUSH1 0x1 PUSH1 0xA0 SHL SUB DUP4 DUP2 AND PUSH1 0x1 PUSH1 0x1 PUSH1 0xA0 SHL SUB NOT DUP4 AND DUP2 OR DUP5 SSTORE PUSH1 0x40 MLOAD SWAP2 SWAP1 SWAP3 AND SWAP3 DUP4 SWAP2 PUSH32 0x8BE0079C531659141344CD1FD0A4F28419497F9722A3DAAFE3B4186F6B6457E0 SWAP2 SWAP1 LOG3 POP POP JUMP JUMPDEST DUP1 MLOAD PUSH1 0x1 PUSH1 0x1 PUSH1 0xA0 SHL SUB DUP2 AND DUP2 EQ PUSH3 0x1BC JUMPI PUSH1 0x0 DUP1 REVERT JUMPDEST SWAP2 SWAP1 POP JUMP JUMPDEST PUSH1 0x0 DUP1 PUSH1 0x0 PUSH1 0x60 DUP5 DUP7 SUB SLT ISZERO PUSH3 0x1D7 JUMPI PUSH1 0x0 DUP1 REVERT JUMPDEST PUSH3 0x1E2 DUP5 PUSH3 0x1A4 JUMP JUMPDEST SWAP3 POP PUSH3 0x1F2 PUSH1 0x20 DUP6 ADD PUSH3 0x1A4 JUMP JUMPDEST SWAP2 POP PUSH3 0x202 PUSH1 0x40 DUP6 ADD PUSH3 0x1A4 JUMP JUMPDEST SWAP1 POP SWAP3 POP SWAP3 POP SWAP3 JUMP JUMPDEST PUSH1 0x80 MLOAD PUSH1 0xA0 MLOAD PUSH2 0x13E4 PUSH3 0x28C PUSH1 0x0 CODECOPY PUSH1 0x0 DUP2 DUP2 PUSH2 0x29D ADD MSTORE PUSH2 0xFF5 ADD MSTORE PUSH1 0x0 DUP2 DUP2 PUSH2 0x302 ADD MSTORE DUP2 DUP2 PUSH2 0x4AE ADD MSTORE DUP2 DUP2 PUSH2 0x4F9 ADD MSTORE DUP2 DUP2 PUSH2 0x5BE ADD MSTORE DUP2 DUP2 PUSH2 0x6A3 ADD MSTORE DUP2 DUP2 PUSH2 0x767 ADD MSTORE DUP2 DUP2 PUSH2 0x8CB ADD MSTORE DUP2 DUP2 PUSH2 0x9A7 ADD MSTORE DUP2 DUP2 PUSH2 0xBC4 ADD MSTORE DUP2 DUP2 PUSH2 0xCC4 ADD MSTORE DUP2 DUP2 PUSH2 0xD96 ADD MSTORE DUP2 DUP2 PUSH2 0xE1F ADD MSTORE PUSH2 0x1101 ADD MSTORE PUSH2 0x13E4 PUSH1 0x0 RETURN INVALID PUSH1 0x80 PUSH1 0x40 MSTORE CALLVALUE DUP1 ISZERO PUSH2 0x10 JUMPI PUSH1 0x0 DUP1 REVERT JUMPDEST POP PUSH1 0x4 CALLDATASIZE LT PUSH2 0x205 JUMPI PUSH1 0x0 CALLDATALOAD PUSH1 0xE0 SHR DUP1 PUSH4 0x7B1648E2 GT PUSH2 0x11A JUMPI DUP1 PUSH4 0xD1316EC1 GT PUSH2 0xAD JUMPI DUP1 PUSH4 0xEF2F90CF GT PUSH2 0x7C JUMPI DUP1 PUSH4 0xEF2F90CF EQ PUSH2 0x440 JUMPI DUP1 PUSH4 0xF2FDE38B EQ PUSH2 0x44D JUMPI DUP1 PUSH4 0xF576F722 EQ PUSH2 0x460 JUMPI DUP1 PUSH4 0xFC0D78B8 EQ PUSH2 0x490 JUMPI DUP1 PUSH4 0xFCCC2813 EQ PUSH2 0x498 JUMPI PUSH1 0x0 DUP1 REVERT JUMPDEST DUP1 PUSH4 0xD1316EC1 EQ PUSH2 0x3C0 JUMPI DUP1 PUSH4 0xD89135CD EQ PUSH2 0x425 JUMPI DUP1 PUSH4 0xE3067449 EQ PUSH2 0x42E JUMPI DUP1 PUSH4 0xE3113D59 EQ PUSH2 0x437 JUMPI PUSH1 0x0 DUP1 REVERT JUMPDEST DUP1 PUSH4 0xA40E6BDA GT PUSH2 0xE9 JUMPI DUP1 PUSH4 0xA40E6BDA EQ PUSH2 0x3B8 JUMPI DUP1 PUSH4 0xB54DD59B EQ PUSH2 0x3C0 JUMPI DUP1 PUSH4 0xC9793D49 EQ PUSH2 0x3C8 JUMPI DUP1 PUSH4 0xCB9EA337 EQ PUSH2 0x418 JUMPI PUSH1 0x0 DUP1 REVERT JUMPDEST DUP1 PUSH4 0x7B1648E2 EQ PUSH2 0x36E JUMPI DUP1 PUSH4 0x8DA5CB5B EQ PUSH2 0x377 JUMPI DUP1 PUSH4 0x95CCEA67 EQ PUSH2 0x388 JUMPI DUP1 PUSH4 0x9DD255DA EQ PUSH2 0x39B JUMPI PUSH1 0x0 DUP1 REVERT JUMPDEST DUP1 PUSH4 0x35917C64 GT PUSH2 0x19D JUMPI DUP1 PUSH4 0x5FCBD285 GT PUSH2 0x16C JUMPI DUP1 PUSH4 0x5FCBD285 EQ PUSH2 0x324 JUMPI DUP1 PUSH4 0x615E2CAD EQ PUSH2 0x337 JUMPI DUP1 PUSH4 0x64EDBF9D EQ PUSH2 0x340 JUMPI DUP1 PUSH4 0x6A678A9C EQ PUSH2 0x353 JUMPI DUP1 PUSH4 0x715018A6 EQ PUSH2 0x366 JUMPI PUSH1 0x0 DUP1 REVERT JUMPDEST DUP1 PUSH4 0x35917C64 EQ PUSH2 0x2D7 JUMPI DUP1 PUSH4 0x524773CE EQ PUSH2 0x2E8 JUMPI DUP1 PUSH4 0x57EB05F3 EQ PUSH2 0x2F1 JUMPI DUP1 PUSH4 0x5FBD83F4 EQ PUSH2 0x2FD JUMPI PUSH1 0x0 DUP1 REVERT JUMPDEST DUP1 PUSH4 0x1B82F5D9 GT PUSH2 0x1D9 JUMPI DUP1 PUSH4 0x1B82F5D9 EQ PUSH2 0x23B JUMPI DUP1 PUSH4 0x23B63585 EQ PUSH2 0x250 JUMPI DUP1 PUSH4 0x2F37EA7A EQ PUSH2 0x263 JUMPI DUP1 PUSH4 0x2F48AB7D EQ PUSH2 0x298 JUMPI PUSH1 0x0 DUP1 REVERT JUMPDEST DUP1 PUSH3 0xBB6E92 EQ PUSH2 0x20A JUMPI DUP1 PUSH4 0x873C6EC EQ PUSH2 0x229 JUMPI DUP1 PUSH4 0x130C69DB EQ PUSH2 0x233 JUMPI DUP1 PUSH4 0x1A6F9C64 EQ PUSH2 0x233 JUMPI JUMPDEST PUSH1 0x0 DUP1 REVERT JUMPDEST PUSH2 0x216 PUSH5 0xBAA315500 DUP2 JUMP JUMPDEST PUSH1 0x40 MLOAD SWAP1 DUP2 MSTORE PUSH1 0x20 ADD JUMPDEST PUSH1 0x40 MLOAD DUP1 SWAP2 SUB SWAP1 RETURN JUMPDEST PUSH2 0x216 PUSH3 0xF4240 DUP2 JUMP JUMPDEST PUSH2 0x216 PUSH1 0x5 DUP2 JUMP JUMPDEST PUSH2 0x24E PUSH2 0x249 CALLDATASIZE PUSH1 0x4 PUSH2 0x1265 JUMP JUMPDEST PUSH2 0x4A1 JUMP JUMPDEST STOP JUMPDEST PUSH2 0x24E PUSH2 0x25E CALLDATASIZE PUSH1 0x4 PUSH2 0x1265 JUMP JUMPDEST PUSH2 0x4D9 JUMP JUMPDEST PUSH2 0x26B PUSH2 0x74A JUMP JUMPDEST PUSH1 0x40 DUP1 MLOAD SWAP7 DUP8 MSTORE PUSH1 0x20 DUP8 ADD SWAP6 SWAP1 SWAP6 MSTORE SWAP4 DUP6 ADD SWAP3 SWAP1 SWAP3 MSTORE PUSH1 0x60 DUP5 ADD MSTORE PUSH1 0x80 DUP4 ADD MSTORE PUSH1 0xA0 DUP3 ADD MSTORE PUSH1 0xC0 ADD PUSH2 0x220 JUMP JUMPDEST PUSH2 0x2BF PUSH32 0x0 DUP2 JUMP JUMPDEST PUSH1 0x40 MLOAD PUSH1 0x1 PUSH1 0x1 PUSH1 0xA0 SHL SUB SWAP1 SWAP2 AND DUP2 MSTORE PUSH1 0x20 ADD PUSH2 0x220 JUMP JUMPDEST PUSH2 0x216 PUSH10 0xA968163F0A57B400000 DUP2 JUMP JUMPDEST PUSH2 0x216 PUSH1 0x4 SLOAD DUP2 JUMP JUMPDEST PUSH2 0x216 PUSH5 0xBA43B7400 DUP2 JUMP JUMPDEST PUSH2 0x2BF PUSH32 0x0 DUP2 JUMP JUMPDEST PUSH1 0x1 SLOAD PUSH2 0x2BF SWAP1 PUSH1 0x1 PUSH1 0x1 PUSH1 0xA0 SHL SUB AND DUP2 JUMP JUMPDEST PUSH2 0x216 PUSH2 0x1388 DUP2 JUMP JUMPDEST PUSH2 0x24E PUSH2 0x34E CALLDATASIZE PUSH1 0x4 PUSH2 0x127E JUMP JUMPDEST PUSH2 0x807 JUMP JUMPDEST PUSH2 0x24E PUSH2 0x361 CALLDATASIZE PUSH1 0x4 PUSH2 0x12BC JUMP JUMPDEST PUSH2 0x857 JUMP JUMPDEST PUSH2 0x24E PUSH2 0x8AD JUMP JUMPDEST PUSH2 0x216 PUSH2 0xE10 DUP2 JUMP JUMPDEST PUSH1 0x0 SLOAD PUSH1 0x1 PUSH1 0x1 PUSH1 0xA0 SHL SUB AND PUSH2 0x2BF JUMP JUMPDEST PUSH2 0x24E PUSH2 0x396 CALLDATASIZE PUSH1 0x4 PUSH2 0x12D7 JUMP JUMPDEST PUSH2 0x8C1 JUMP JUMPDEST PUSH1 0x5 SLOAD PUSH2 0x3A8 SWAP1 PUSH1 0xFF AND DUP2 JUMP JUMPDEST PUSH1 0x40 MLOAD SWAP1 ISZERO ISZERO DUP2 MSTORE PUSH1 0x20 ADD PUSH2 0x220 JUMP JUMPDEST PUSH2 0x3A8 PUSH2 0x96A JUMP JUMPDEST PUSH2 0x216 PUSH1 0x32 DUP2 JUMP JUMPDEST PUSH1 0x40 DUP1 MLOAD PUSH6 0x48C27395000 DUP2 MSTORE PUSH6 0x1D1A94A2000 PUSH1 0x20 DUP3 ADD MSTORE PUSH5 0xBAA315500 SWAP2 DUP2 ADD SWAP2 SWAP1 SWAP2 MSTORE PUSH5 0xBA43B7400 PUSH1 0x60 DUP3 ADD MSTORE PUSH2 0x1388 PUSH1 0x80 DUP3 ADD MSTORE PUSH2 0x1F4 PUSH1 0xA0 DUP3 ADD MSTORE PUSH1 0x32 PUSH1 0xC0 DUP3 ADD MSTORE PUSH1 0xE0 ADD PUSH2 0x220 JUMP JUMPDEST PUSH2 0x216 PUSH6 0x1D1A94A2000 DUP2 JUMP JUMPDEST PUSH2 0x216 PUSH1 0x3 SLOAD DUP2 JUMP JUMPDEST PUSH2 0x216 PUSH1 0x2 SLOAD DUP2 JUMP JUMPDEST PUSH2 0x216 PUSH2 0x1F4 DUP2 JUMP JUMPDEST PUSH2 0x216 PUSH6 0x48C27395000 DUP2 JUMP JUMPDEST PUSH2 0x24E PUSH2 0x45B CALLDATASIZE PUSH1 0x4 PUSH2 0x12BC JUMP JUMPDEST PUSH2 0xA63 JUMP JUMPDEST PUSH2 0x468 PUSH2 0xA9E JUMP JUMPDEST PUSH1 0x40 DUP1 MLOAD SWAP6 DUP7 MSTORE PUSH1 0x20 DUP7 ADD SWAP5 SWAP1 SWAP5 MSTORE SWAP3 DUP5 ADD SWAP2 SWAP1 SWAP2 MSTORE PUSH1 0x60 DUP4 ADD MSTORE PUSH1 0x80 DUP3 ADD MSTORE PUSH1 0xA0 ADD PUSH2 0x220 JUMP JUMPDEST PUSH2 0x24E PUSH2 0xB25 JUMP JUMPDEST PUSH2 0x2BF PUSH2 0xDEAD DUP2 JUMP JUMPDEST PUSH2 0x4D6 PUSH1 0x1 PUSH1 0x1 PUSH1 0xA0 SHL SUB PUSH32 0x0 AND CALLER ADDRESS DUP5 PUSH2 0xED4 JUMP JUMPDEST POP JUMP JUMPDEST PUSH2 0x4E1 PUSH2 0xF10 JUMP JUMPDEST PUSH1 0x40 MLOAD PUSH4 0x70A08231 PUSH1 0xE0 SHL DUP2 MSTORE ADDRESS PUSH1 0x4 DUP3 ADD MSTORE PUSH1 0x0 SWAP1 PUSH32 0x0 PUSH1 0x1 PUSH1 0x1 PUSH1 0xA0 SHL SUB AND SWAP1 PUSH4 0x70A08231 SWAP1 PUSH1 0x24 ADD PUSH1 0x20 PUSH1 0x40 MLOAD DUP1 DUP4 SUB DUP2 DUP7 GAS STATICCALL ISZERO DUP1 ISZERO PUSH2 0x548 JUMPI RETURNDATASIZE PUSH1 0x0 DUP1 RETURNDATACOPY RETURNDATASIZE PUSH1 0x0 REVERT JUMPDEST POP POP POP POP PUSH1 0x40 MLOAD RETURNDATASIZE PUSH1 0x1F NOT PUSH1 0x1F DUP3 ADD AND DUP3 ADD DUP1 PUSH1 0x40 MSTORE POP DUP2 ADD SWAP1 PUSH2 0x56C SWAP2 SWAP1 PUSH2 0x1301 JUMP JUMPDEST SWAP1 POP DUP2 DUP2 LT ISZERO PUSH2 0x5BA JUMPI PUSH1 0x40 MLOAD PUSH3 0x461BCD PUSH1 0xE5 SHL DUP2 MSTORE PUSH1 0x20 PUSH1 0x4 DUP3 ADD MSTORE PUSH1 0x14 PUSH1 0x24 DUP3 ADD MSTORE PUSH20 0x496E73756666696369656E742062616C616E6365 PUSH1 0x60 SHL PUSH1 0x44 DUP3 ADD MSTORE PUSH1 0x64 ADD JUMPDEST PUSH1 0x40 MLOAD DUP1 SWAP2 SUB SWAP1 REVERT JUMPDEST PUSH1 0x0 PUSH32 0x0 PUSH1 0x1 PUSH1 0x1 PUSH1 0xA0 SHL SUB AND PUSH4 0x18160DDD PUSH1 0x40 MLOAD DUP2 PUSH4 0xFFFFFFFF AND PUSH1 0xE0 SHL DUP2 MSTORE PUSH1 0x4 ADD PUSH1 0x20 PUSH1 0x40 MLOAD DUP1 DUP4 SUB DUP2 DUP7 GAS STATICCALL ISZERO DUP1 ISZERO PUSH2 0x61A JUMPI RETURNDATASIZE PUSH1 0x0 DUP1 RETURNDATACOPY RETURNDATASIZE PUSH1 0x0 REVERT JUMPDEST POP POP POP POP PUSH1 0x40 MLOAD RETURNDATASIZE PUSH1 0x1F NOT PUSH1 0x1F DUP3 ADD AND DUP3 ADD DUP1 PUSH1 0x40 MSTORE POP DUP2 ADD SWAP1 PUSH2 0x63E SWAP2 SWAP1 PUSH2 0x1301 JUMP JUMPDEST SWAP1 POP PUSH10 0xA968163F0A57B400000 PUSH2 0x655 DUP5 DUP4 PUSH2 0x1330 JUMP JUMPDEST LT ISZERO PUSH2 0x696 JUMPI PUSH1 0x40 MLOAD PUSH3 0x461BCD PUSH1 0xE5 SHL DUP2 MSTORE PUSH1 0x20 PUSH1 0x4 DUP3 ADD MSTORE PUSH1 0x10 PUSH1 0x24 DUP3 ADD MSTORE PUSH16 0x42656C6F77206D696E20737570706C79 PUSH1 0x80 SHL PUSH1 0x44 DUP3 ADD MSTORE PUSH1 0x64 ADD PUSH2 0x5B1 JUMP JUMPDEST PUSH2 0x6CC PUSH1 0x1 PUSH1 0x1 PUSH1 0xA0 SHL SUB PUSH32 0x0 AND PUSH2 0xDEAD DUP6 PUSH2 0xF3D JUMP JUMPDEST DUP3 PUSH1 0x3 PUSH1 0x0 DUP3 DUP3 SLOAD PUSH2 0x6DE SWAP2 SWAP1 PUSH2 0x1349 JUMP JUMPDEST SWAP1 SWAP2 SSTORE POP POP PUSH1 0x4 DUP1 SLOAD SWAP1 PUSH1 0x0 PUSH2 0x6F3 DUP4 PUSH2 0x135C JUMP JUMPDEST SWAP1 SWAP2 SSTORE POP POP TIMESTAMP PUSH1 0x2 DUP2 SWAP1 SSTORE PUSH1 0x40 DUP1 MLOAD DUP6 DUP2 MSTORE PUSH1 0x0 PUSH1 0x20 DUP3 ADD DUP2 SWAP1 MSTORE DUP2 DUP4 ADD MSTORE PUSH1 0x60 DUP2 ADD SWAP3 SWAP1 SWAP3 MSTORE MLOAD PUSH32 0x848E8E49BE37C71EE4425EBFA5DBB93246957834441C44CADA9E0ED34612BCDC SWAP2 DUP2 SWAP1 SUB PUSH1 0x80 ADD SWAP1 LOG1 POP POP POP JUMP JUMPDEST PUSH1 0x3 SLOAD PUSH1 0x4 SLOAD PUSH1 0x2 SLOAD PUSH1 0x0 DUP1 DUP1 PUSH2 0x763 PUSH2 0xE10 DUP6 PUSH2 0x1349 JUMP JUMPDEST SWAP3 POP PUSH32 0x0 PUSH1 0x1 PUSH1 0x1 PUSH1 0xA0 SHL SUB AND PUSH4 0x18160DDD PUSH1 0x40 MLOAD DUP2 PUSH4 0xFFFFFFFF AND PUSH1 0xE0 SHL DUP2 MSTORE PUSH1 0x4 ADD PUSH1 0x20 PUSH1 0x40 MLOAD DUP1 DUP4 SUB DUP2 DUP7 GAS STATICCALL ISZERO DUP1 ISZERO PUSH2 0x7C3 JUMPI RETURNDATASIZE PUSH1 0x0 DUP1 RETURNDATACOPY RETURNDATASIZE PUSH1 0x0 REVERT JUMPDEST POP POP POP POP PUSH1 0x40 MLOAD RETURNDATASIZE PUSH1 0x1F NOT PUSH1 0x1F DUP3 ADD AND DUP3 ADD DUP1 PUSH1 0x40 MSTORE POP DUP2 ADD SWAP1 PUSH2 0x7E7 SWAP2 SWAP1 PUSH2 0x1301 JUMP JUMPDEST SWAP2 POP PUSH2 0x7FD PUSH10 0xA968163F0A57B400000 DUP4 PUSH2 0x1330 JUMP JUMPDEST SWAP1 POP SWAP1 SWAP2 SWAP3 SWAP4 SWAP5 SWAP6 JUMP JUMPDEST PUSH2 0x80F PUSH2 0xF10 JUMP JUMPDEST PUSH1 0x5 DUP1 SLOAD PUSH1 0xFF NOT AND DUP3 ISZERO ISZERO SWAP1 DUP2 OR SWAP1 SWAP2 SSTORE PUSH1 0x40 MLOAD SWAP1 DUP2 MSTORE PUSH32 0x78FC20422FBD33CC7AEF5E4E1C182FDC815F20C1C15AF2FF53E83C223017DBF8 SWAP1 PUSH1 0x20 ADD JUMPDEST PUSH1 0x40 MLOAD DUP1 SWAP2 SUB SWAP1 LOG1 POP JUMP JUMPDEST PUSH2 0x85F PUSH2 0xF10 JUMP JUMPDEST PUSH1 0x1 DUP1 SLOAD PUSH1 0x1 PUSH1 0x1 PUSH1 0xA0 SHL SUB NOT AND PUSH1 0x1 PUSH1 0x1 PUSH1 0xA0 SHL SUB DUP4 AND SWAP1 DUP2 OR SWAP1 SWAP2 SSTORE PUSH1 0x40 MLOAD SWAP1 DUP2 MSTORE PUSH32 0xF9D1C90C609623055381582A51735B38DF3243EB09629A9170B15C2AB6BC0739 SWAP1 PUSH1 0x20 ADD PUSH2 0x84C JUMP JUMPDEST PUSH2 0x8B5 PUSH2 0xF10 JUMP JUMPDEST PUSH2 0x8BF PUSH1 0x0 PUSH2 0xF77 JUMP JUMPDEST JUMP JUMPDEST PUSH2 0x8C9 PUSH2 0xF10 JUMP JUMPDEST PUSH32 0x0 PUSH1 0x1 PUSH1 0x1 PUSH1 0xA0 SHL SUB AND DUP3 PUSH1 0x1 PUSH1 0x1 PUSH1 0xA0 SHL SUB AND SUB PUSH2 0x940 JUMPI PUSH1 0x40 MLOAD PUSH3 0x461BCD PUSH1 0xE5 SHL DUP2 MSTORE PUSH1 0x20 PUSH1 0x4 DUP3 ADD MSTORE PUSH1 0x13 PUSH1 0x24 DUP3 ADD MSTORE PUSH19 0x10D85B9B9BDD081DDA5D1A191C985DC8151195 PUSH1 0x6A SHL PUSH1 0x44 DUP3 ADD MSTORE PUSH1 0x64 ADD PUSH2 0x5B1 JUMP JUMPDEST PUSH2 0x966 PUSH2 0x955 PUSH1 0x0 SLOAD PUSH1 0x1 PUSH1 0x1 PUSH1 0xA0 SHL SUB AND SWAP1 JUMP JUMPDEST PUSH1 0x1 PUSH1 0x1 PUSH1 0xA0 SHL SUB DUP5 AND SWAP1 DUP4 PUSH2 0xF3D JUMP JUMPDEST POP POP JUMP JUMPDEST PUSH1 0x5 SLOAD PUSH1 0x0 SWAP1 PUSH1 0xFF AND PUSH2 0x97D JUMPI POP PUSH1 0x0 SWAP1 JUMP JUMPDEST PUSH2 0xE10 PUSH1 0x2 SLOAD PUSH2 0x98D SWAP2 SWAP1 PUSH2 0x1349 JUMP JUMPDEST TIMESTAMP LT ISZERO PUSH2 0x99A JUMPI POP PUSH1 0x0 SWAP1 JUMP JUMPDEST PUSH10 0xA968163F0A57B400000 PUSH32 0x0 PUSH1 0x1 PUSH1 0x1 PUSH1 0xA0 SHL SUB AND PUSH4 0x18160DDD PUSH1 0x40 MLOAD DUP2 PUSH4 0xFFFFFFFF AND PUSH1 0xE0 SHL DUP2 MSTORE PUSH1 0x4 ADD PUSH1 0x20 PUSH1 0x40 MLOAD DUP1 DUP4 SUB DUP2 DUP7 GAS STATICCALL ISZERO DUP1 ISZERO PUSH2 0xA03 JUMPI RETURNDATASIZE PUSH1 0x0 DUP1 RETURNDATACOPY RETURNDATASIZE PUSH1 0x0 REVERT JUMPDEST POP POP POP POP PUSH1 0x40 MLOAD RETURNDATASIZE PUSH1 0x1F NOT PUSH1 0x1F DUP3 ADD AND DUP3 ADD DUP1 PUSH1 0x40 MSTORE POP DUP2 ADD SWAP1 PUSH2 0xA27 SWAP2 SWAP1 PUSH2 0x1301 JUMP JUMPDEST GT PUSH2 0xA32 JUMPI POP PUSH1 0x0 SWAP1 JUMP JUMPDEST PUSH1 0x0 PUSH2 0xA3C PUSH2 0xFC7 JUMP JUMPDEST SWAP1 POP PUSH1 0x0 PUSH2 0xA49 DUP3 PUSH2 0x106D JUMP JUMPDEST POP SWAP1 POP PUSH1 0x0 DUP2 GT DUP1 ISZERO PUSH2 0xA5C JUMPI POP PUSH1 0x4 DUP2 LT JUMPDEST SWAP3 POP POP POP SWAP1 JUMP JUMPDEST PUSH2 0xA6B PUSH2 0xF10 JUMP JUMPDEST PUSH1 0x1 PUSH1 0x1 PUSH1 0xA0 SHL SUB DUP2 AND PUSH2 0xA95 JUMPI PUSH1 0x40 MLOAD PUSH4 0x1E4FBDF7 PUSH1 0xE0 SHL DUP2 MSTORE PUSH1 0x0 PUSH1 0x4 DUP3 ADD MSTORE PUSH1 0x24 ADD PUSH2 0x5B1 JUMP JUMPDEST PUSH2 0x4D6 DUP2 PUSH2 0xF77 JUMP JUMPDEST PUSH1 0x0 DUP1 PUSH1 0x0 DUP1 PUSH1 0x0 PUSH2 0xAAE PUSH2 0xFC7 JUMP JUMPDEST SWAP3 POP PUSH2 0xAB9 DUP4 PUSH2 0x106D JUMP JUMPDEST SWAP1 SWAP6 POP SWAP4 POP DUP4 ISZERO PUSH2 0xAD0 JUMPI PUSH2 0xACD DUP5 PUSH2 0x10DF JUMP JUMPDEST SWAP1 POP JUMPDEST PUSH5 0xBAA315500 DUP4 LT ISZERO PUSH2 0xAEA JUMPI PUSH5 0xBAA315500 SWAP2 POP PUSH2 0xB1E JUMP JUMPDEST PUSH6 0x1D1A94A2000 DUP4 LT ISZERO PUSH2 0xB06 JUMPI PUSH6 0x1D1A94A2000 SWAP2 POP PUSH2 0xB1E JUMP JUMPDEST PUSH6 0x48C27395000 DUP4 LT ISZERO PUSH2 0xB1E JUMPI PUSH6 0x48C27395000 SWAP2 POP JUMPDEST SWAP1 SWAP2 SWAP3 SWAP4 SWAP5 JUMP JUMPDEST PUSH1 0x5 SLOAD PUSH1 0xFF AND PUSH2 0xB6C JUMPI PUSH1 0x40 MLOAD PUSH3 0x461BCD PUSH1 0xE5 SHL DUP2 MSTORE PUSH1 0x20 PUSH1 0x4 DUP3 ADD MSTORE PUSH1 0x12 PUSH1 0x24 DUP3 ADD MSTORE PUSH18 0x105D5D1BC8189D5C9B88191A5CD8589B1959 PUSH1 0x72 SHL PUSH1 0x44 DUP3 ADD MSTORE PUSH1 0x64 ADD PUSH2 0x5B1 JUMP JUMPDEST PUSH2 0xE10 PUSH1 0x2 SLOAD PUSH2 0xB7C SWAP2 SWAP1 PUSH2 0x1349 JUMP JUMPDEST TIMESTAMP LT ISZERO PUSH2 0xBB7 JUMPI PUSH1 0x40 MLOAD PUSH3 0x461BCD PUSH1 0xE5 SHL DUP2 MSTORE PUSH1 0x20 PUSH1 0x4 DUP3 ADD MSTORE PUSH1 0x9 PUSH1 0x24 DUP3 ADD MSTORE PUSH9 0x546F6F206561726C79 PUSH1 0xB8 SHL PUSH1 0x44 DUP3 ADD MSTORE PUSH1 0x64 ADD PUSH2 0x5B1 JUMP JUMPDEST PUSH10 0xA968163F0A57B400000 PUSH32 0x0 PUSH1 0x1 PUSH1 0x1 PUSH1 0xA0 SHL SUB AND PUSH4 0x18160DDD PUSH1 0x40 MLOAD DUP2 PUSH4 0xFFFFFFFF AND PUSH1 0xE0 SHL DUP2 MSTORE PUSH1 0x4 ADD PUSH1 0x20 PUSH1 0x40 MLOAD DUP1 DUP4 SUB DUP2 DUP7 GAS STATICCALL ISZERO DUP1 ISZERO PUSH2 0xC20 JUMPI RETURNDATASIZE PUSH1 0x0 DUP1 RETURNDATACOPY RETURNDATASIZE PUSH1 0x0 REVERT JUMPDEST POP POP POP POP PUSH1 0x40 MLOAD RETURNDATASIZE PUSH1 0x1F NOT PUSH1 0x1F DUP3 ADD AND DUP3 ADD DUP1 PUSH1 0x40 MSTORE POP DUP2 ADD SWAP1 PUSH2 0xC44 SWAP2 SWAP1 PUSH2 0x1301 JUMP JUMPDEST GT PUSH2 0xC86 JUMPI PUSH1 0x40 MLOAD PUSH3 0x461BCD PUSH1 0xE5 SHL DUP2 MSTORE PUSH1 0x20 PUSH1 0x4 DUP3 ADD MSTORE PUSH1 0x12 PUSH1 0x24 DUP3 ADD MSTORE PUSH18 0x135A5B881CDD5C1C1B1E481C995858DA1959 PUSH1 0x72 SHL PUSH1 0x44 DUP3 ADD MSTORE PUSH1 0x64 ADD PUSH2 0x5B1 JUMP JUMPDEST PUSH1 0x0 PUSH2 0xC90 PUSH2 0xFC7 JUMP JUMPDEST SWAP1 POP PUSH1 0x0 DUP1 PUSH2 0xC9E DUP4 PUSH2 0x106D JUMP JUMPDEST SWAP2 POP SWAP2 POP DUP2 PUSH1 0x0 SUB PUSH2 0xCB3 JUMPI POP POP TIMESTAMP PUSH1 0x2 SSTORE POP JUMP JUMPDEST PUSH1 0x0 PUSH2 0xCBE DUP3 PUSH2 0x10DF JUMP JUMPDEST SWAP1 POP PUSH1 0x0 PUSH32 0x0 PUSH1 0x1 PUSH1 0x1 PUSH1 0xA0 SHL SUB AND PUSH4 0x18160DDD PUSH1 0x40 MLOAD DUP2 PUSH4 0xFFFFFFFF AND PUSH1 0xE0 SHL DUP2 MSTORE PUSH1 0x4 ADD PUSH1 0x20 PUSH1 0x40 MLOAD DUP1 DUP4 SUB DUP2 DUP7 GAS STATICCALL ISZERO DUP1 ISZERO PUSH2 0xD20 JUMPI RETURNDATASIZE PUSH1 0x0 DUP1 RETURNDATACOPY RETURNDATASIZE PUSH1 0x0 REVERT JUMPDEST POP POP POP POP PUSH1 0x40 MLOAD RETURNDATASIZE PUSH1 0x1F NOT PUSH1 0x1F DUP3 ADD AND DUP3 ADD DUP1 PUSH1 0x40 MSTORE POP DUP2 ADD SWAP1 PUSH2 0xD44 SWAP2 SWAP1 PUSH2 0x1301 JUMP JUMPDEST SWAP1 POP PUSH10 0xA968163F0A57B400000 PUSH2 0xD5B DUP4 DUP4 PUSH2 0x1330 JUMP JUMPDEST LT ISZERO PUSH2 0xD78 JUMPI PUSH2 0xD75 PUSH10 0xA968163F0A57B400000 DUP3 PUSH2 0x1330 JUMP JUMPDEST SWAP2 POP JUMPDEST DUP2 ISZERO PUSH2 0xEC8 JUMPI PUSH1 0x40 MLOAD PUSH4 0x70A08231 PUSH1 0xE0 SHL DUP2 MSTORE ADDRESS PUSH1 0x4 DUP3 ADD MSTORE PUSH1 0x0 SWAP1 PUSH32 0x0 PUSH1 0x1 PUSH1 0x1 PUSH1 0xA0 SHL SUB AND SWAP1 PUSH4 0x70A08231 SWAP1 PUSH1 0x24 ADD PUSH1 0x20 PUSH1 0x40 MLOAD DUP1 DUP4 SUB DUP2 DUP7 GAS STATICCALL ISZERO DUP1 ISZERO PUSH2 0xDE5 JUMPI RETURNDATASIZE PUSH1 0x0 DUP1 RETURNDATACOPY RETURNDATASIZE PUSH1 0x0 REVERT JUMPDEST POP POP POP POP PUSH1 0x40 MLOAD RETURNDATASIZE PUSH1 0x1F NOT PUSH1 0x1F DUP3 ADD AND DUP3 ADD DUP1 PUSH1 0x40 MSTORE POP DUP2 ADD SWAP1 PUSH2 0xE09 SWAP2 SWAP1 PUSH2 0x1301 JUMP JUMPDEST SWAP1 POP DUP3 DUP2 LT PUSH2 0xEC2 JUMPI PUSH2 0xE48 PUSH1 0x1 PUSH1 0x1 PUSH1 0xA0 SHL SUB PUSH32 0x0 AND PUSH2 0xDEAD DUP6 PUSH2 0xF3D JUMP JUMPDEST DUP3 PUSH1 0x3 PUSH1 0x0 DUP3 DUP3 SLOAD PUSH2 0xE5A SWAP2 SWAP1 PUSH2 0x1349 JUMP JUMPDEST SWAP1 SWAP2 SSTORE POP POP PUSH1 0x4 DUP1 SLOAD SWAP1 PUSH1 0x0 PUSH2 0xE6F DUP4 PUSH2 0x135C JUMP JUMPDEST SWAP1 SWAP2 SSTORE POP POP TIMESTAMP PUSH1 0x2 DUP2 SWAP1 SSTORE PUSH1 0x40 DUP1 MLOAD DUP6 DUP2 MSTORE PUSH1 0x20 DUP2 ADD DUP9 SWAP1 MSTORE DUP1 DUP3 ADD DUP10 SWAP1 MSTORE PUSH1 0x60 DUP2 ADD SWAP3 SWAP1 SWAP3 MSTORE MLOAD PUSH32 0x848E8E49BE37C71EE4425EBFA5DBB93246957834441C44CADA9E0ED34612BCDC SWAP2 DUP2 SWAP1 SUB PUSH1 0x80 ADD SWAP1 LOG1 JUMPDEST POP PUSH2 0xECD JUMP JUMPDEST TIMESTAMP PUSH1 0x2 SSTORE JUMPDEST POP POP POP POP POP JUMP JUMPDEST PUSH2 0xEE2 DUP5 DUP5 DUP5 DUP5 PUSH1 0x1 PUSH2 0x118D JUMP JUMPDEST PUSH2 0xF0A JUMPI PUSH1 0x40 MLOAD PUSH4 0x5274AFE7 PUSH1 0xE0 SHL DUP2 MSTORE PUSH1 0x1 PUSH1 0x1 PUSH1 0xA0 SHL SUB DUP6 AND PUSH1 0x4 DUP3 ADD MSTORE PUSH1 0x24 ADD PUSH2 0x5B1 JUMP JUMPDEST POP POP POP POP JUMP JUMPDEST PUSH1 0x0 SLOAD PUSH1 0x1 PUSH1 0x1 PUSH1 0xA0 SHL SUB AND CALLER EQ PUSH2 0x8BF JUMPI PUSH1 0x40 MLOAD PUSH4 0x118CDAA7 PUSH1 0xE0 SHL DUP2 MSTORE CALLER PUSH1 0x4 DUP3 ADD MSTORE PUSH1 0x24 ADD PUSH2 0x5B1 JUMP JUMPDEST PUSH2 0xF4A DUP4 DUP4 DUP4 PUSH1 0x1 PUSH2 0x11FF JUMP JUMPDEST PUSH2 0xF72 JUMPI PUSH1 0x40 MLOAD PUSH4 0x5274AFE7 PUSH1 0xE0 SHL DUP2 MSTORE PUSH1 0x1 PUSH1 0x1 PUSH1 0xA0 SHL SUB DUP5 AND PUSH1 0x4 DUP3 ADD MSTORE PUSH1 0x24 ADD PUSH2 0x5B1 JUMP JUMPDEST POP POP POP JUMP JUMPDEST PUSH1 0x0 DUP1 SLOAD PUSH1 0x1 PUSH1 0x1 PUSH1 0xA0 SHL SUB DUP4 DUP2 AND PUSH1 0x1 PUSH1 0x1 PUSH1 0xA0 SHL SUB NOT DUP4 AND DUP2 OR DUP5 SSTORE PUSH1 0x40 MLOAD SWAP2 SWAP1 SWAP3 AND SWAP3 DUP4 SWAP2 PUSH32 0x8BE0079C531659141344CD1FD0A4F28419497F9722A3DAAFE3B4186F6B6457E0 SWAP2 SWAP1 LOG3 POP POP JUMP JUMPDEST PUSH1 0x1 SLOAD PUSH1 0x0 SWAP1 PUSH1 0x1 PUSH1 0x1 PUSH1 0xA0 SHL SUB AND PUSH2 0xFE0 JUMPI POP PUSH1 0x0 SWAP1 JUMP JUMPDEST PUSH1 0x40 MLOAD PUSH4 0x70A08231 PUSH1 0xE0 SHL DUP2 MSTORE ADDRESS PUSH1 0x4 DUP3 ADD MSTORE PUSH32 0x0 PUSH1 0x1 PUSH1 0x1 PUSH1 0xA0 SHL SUB AND SWAP1 PUSH4 0x70A08231 SWAP1 PUSH1 0x24 ADD PUSH1 0x20 PUSH1 0x40 MLOAD DUP1 DUP4 SUB DUP2 DUP7 GAS STATICCALL ISZERO DUP1 ISZERO PUSH2 0x1044 JUMPI RETURNDATASIZE PUSH1 0x0 DUP1 RETURNDATACOPY RETURNDATASIZE PUSH1 0x0 REVERT JUMPDEST POP POP POP POP PUSH1 0x40 MLOAD RETURNDATASIZE PUSH1 0x1F NOT PUSH1 0x1F DUP3 ADD AND DUP3 ADD DUP1 PUSH1 0x40 MSTORE POP DUP2 ADD SWAP1 PUSH2 0x1068 SWAP2 SWAP1 PUSH2 0x1301 JUMP JUMPDEST SWAP1 POP SWAP1 JUMP JUMPDEST PUSH1 0x0 DUP1 PUSH6 0x48C27395000 DUP4 LT PUSH2 0x108A JUMPI POP PUSH1 0x1 SWAP3 PUSH2 0x1388 SWAP3 POP SWAP1 POP JUMP JUMPDEST PUSH6 0x1D1A94A2000 DUP4 LT PUSH2 0x10A4 JUMPI POP PUSH1 0x2 SWAP3 PUSH2 0x1F4 SWAP3 POP SWAP1 POP JUMP JUMPDEST PUSH5 0xBAA315500 DUP4 LT PUSH2 0x10BC JUMPI POP PUSH1 0x3 SWAP3 PUSH1 0x32 SWAP3 POP SWAP1 POP JUMP JUMPDEST PUSH5 0xBA43B7400 DUP4 LT PUSH2 0x10D4 JUMPI POP PUSH1 0x4 SWAP3 PUSH1 0x0 SWAP3 POP SWAP1 POP JUMP JUMPDEST POP PUSH1 0x0 SWAP3 DUP4 SWAP3 POP SWAP1 POP JUMP JUMPDEST PUSH1 0x40 MLOAD PUSH4 0x70A08231 PUSH1 0xE0 SHL DUP2 MSTORE ADDRESS PUSH1 0x4 DUP3 ADD MSTORE PUSH1 0x0 SWAP1 DUP2 SWAP1 PUSH1 0x1 PUSH1 0x1 PUSH1 0xA0 SHL SUB PUSH32 0x0 AND SWAP1 PUSH4 0x70A08231 SWAP1 PUSH1 0x24 ADD PUSH1 0x20 PUSH1 0x40 MLOAD DUP1 DUP4 SUB DUP2 DUP7 GAS STATICCALL ISZERO DUP1 ISZERO PUSH2 0x1148 JUMPI RETURNDATASIZE PUSH1 0x0 DUP1 RETURNDATACOPY RETURNDATASIZE PUSH1 0x0 REVERT JUMPDEST POP POP POP POP PUSH1 0x40 MLOAD RETURNDATASIZE PUSH1 0x1F NOT PUSH1 0x1F DUP3 ADD AND DUP3 ADD DUP1 PUSH1 0x40 MSTORE POP DUP2 ADD SWAP1 PUSH2 0x116C SWAP2 SWAP1 PUSH2 0x1301 JUMP JUMPDEST SWAP1 POP PUSH3 0xF4240 PUSH2 0x117C DUP5 DUP4 PUSH2 0x1375 JUMP JUMPDEST PUSH2 0x1186 SWAP2 SWAP1 PUSH2 0x138C JUMP JUMPDEST SWAP4 SWAP3 POP POP POP JUMP JUMPDEST PUSH1 0x40 MLOAD PUSH4 0x23B872DD PUSH1 0xE0 SHL PUSH1 0x0 DUP2 DUP2 MSTORE PUSH1 0x1 PUSH1 0x1 PUSH1 0xA0 SHL SUB DUP8 DUP2 AND PUSH1 0x4 MSTORE DUP7 AND PUSH1 0x24 MSTORE PUSH1 0x44 DUP6 SWAP1 MSTORE SWAP2 PUSH1 0x20 DUP4 PUSH1 0x64 DUP2 DUP1 DUP13 GAS CALL SWAP3 POP PUSH1 0x1 PUSH1 0x0 MLOAD EQ DUP4 AND PUSH2 0x11ED JUMPI DUP4 DUP4 ISZERO AND ISZERO PUSH2 0x11E0 JUMPI RETURNDATASIZE PUSH1 0x0 DUP3 RETURNDATACOPY RETURNDATASIZE DUP2 REVERT JUMPDEST PUSH1 0x0 DUP9 EXTCODESIZE GT RETURNDATASIZE ISZERO AND DUP4 AND SWAP3 POP JUMPDEST PUSH1 0x40 MSTORE POP PUSH1 0x0 PUSH1 0x60 MSTORE SWAP6 SWAP5 POP POP POP POP POP JUMP JUMPDEST PUSH1 0x40 MLOAD PUSH4 0xA9059CBB PUSH1 0xE0 SHL PUSH1 0x0 DUP2 DUP2 MSTORE PUSH1 0x1 PUSH1 0x1 PUSH1 0xA0 SHL SUB DUP7 AND PUSH1 0x4 MSTORE PUSH1 0x24 DUP6 SWAP1 MSTORE SWAP2 PUSH1 0x20 DUP4 PUSH1 0x44 DUP2 DUP1 DUP12 GAS CALL SWAP3 POP PUSH1 0x1 PUSH1 0x0 MLOAD EQ DUP4 AND PUSH2 0x1259 JUMPI DUP4 DUP4 ISZERO AND ISZERO PUSH2 0x124C JUMPI RETURNDATASIZE PUSH1 0x0 DUP3 RETURNDATACOPY RETURNDATASIZE DUP2 REVERT JUMPDEST PUSH1 0x0 DUP8 EXTCODESIZE GT RETURNDATASIZE ISZERO AND DUP4 AND SWAP3 POP JUMPDEST PUSH1 0x40 MSTORE POP SWAP5 SWAP4 POP POP POP POP JUMP JUMPDEST PUSH1 0x0 PUSH1 0x20 DUP3 DUP5 SUB SLT ISZERO PUSH2 0x1277 JUMPI PUSH1 0x0 DUP1 REVERT JUMPDEST POP CALLDATALOAD SWAP2 SWAP1 POP JUMP JUMPDEST PUSH1 0x0 PUSH1 0x20 DUP3 DUP5 SUB SLT ISZERO PUSH2 0x1290 JUMPI PUSH1 0x0 DUP1 REVERT JUMPDEST DUP2 CALLDATALOAD DUP1 ISZERO ISZERO DUP2 EQ PUSH2 0x1186 JUMPI PUSH1 0x0 DUP1 REVERT JUMPDEST DUP1 CALLDATALOAD PUSH1 0x1 PUSH1 0x1 PUSH1 0xA0 SHL SUB DUP2 AND DUP2 EQ PUSH2 0x12B7 JUMPI PUSH1 0x0 DUP1 REVERT JUMPDEST SWAP2 SWAP1 POP JUMP JUMPDEST PUSH1 0x0 PUSH1 0x20 DUP3 DUP5 SUB SLT ISZERO PUSH2 0x12CE JUMPI PUSH1 0x0 DUP1 REVERT JUMPDEST PUSH2 0x1186 DUP3 PUSH2 0x12A0 JUMP JUMPDEST PUSH1 0x0 DUP1 PUSH1 0x40 DUP4 DUP6 SUB SLT ISZERO PUSH2 0x12EA JUMPI PUSH1 0x0 DUP1 REVERT JUMPDEST PUSH2 0x12F3 DUP4 PUSH2 0x12A0 JUMP JUMPDEST SWAP5 PUSH1 0x20 SWAP4 SWAP1 SWAP4 ADD CALLDATALOAD SWAP4 POP POP POP JUMP JUMPDEST PUSH1 0x0 PUSH1 0x20 DUP3 DUP5 SUB SLT ISZERO PUSH2 0x1313 JUMPI PUSH1 0x0 DUP1 REVERT JUMPDEST POP MLOAD SWAP2 SWAP1 POP JUMP JUMPDEST PUSH4 0x4E487B71 PUSH1 0xE0 SHL PUSH1 0x0 MSTORE PUSH1 0x11 PUSH1 0x4 MSTORE PUSH1 0x24 PUSH1 0x0 REVERT JUMPDEST DUP2 DUP2 SUB DUP2 DUP2 GT ISZERO PUSH2 0x1343 JUMPI PUSH2 0x1343 PUSH2 0x131A JUMP JUMPDEST SWAP3 SWAP2 POP POP JUMP JUMPDEST DUP1 DUP3 ADD DUP1 DUP3 GT ISZERO PUSH2 0x1343 JUMPI PUSH2 0x1343 PUSH2 0x131A JUMP JUMPDEST PUSH1 0x0 PUSH1 0x1 DUP3 ADD PUSH2 0x136E JUMPI PUSH2 0x136E PUSH2 0x131A JUMP JUMPDEST POP PUSH1 0x1 ADD SWAP1 JUMP JUMPDEST DUP1 DUP3 MUL DUP2 ISZERO DUP3 DUP3 DIV DUP5 EQ OR PUSH2 0x1343 JUMPI PUSH2 0x1343 PUSH2 0x131A JUMP JUMPDEST PUSH1 0x0 DUP3 PUSH2 0x13A9 JUMPI PUSH4 0x4E487B71 PUSH1 0xE0 SHL PUSH1 0x0 MSTORE PUSH1 0x12 PUSH1 0x4 MSTORE PUSH1 0x24 PUSH1 0x0 REVERT JUMPDEST POP DIV SWAP1 JUMP INVALID LOG2 PUSH5 0x6970667358 0x22 SLT KECCAK256 0x28 DUP15 0x2C 0xAB SMOD SWAP7 DELEGATECALL 0xB8 PUSH31 0x494B4B8A575EE25FADBBB476AB960D05738312F70ABE6564736F6C63430008 XOR STOP CALLER "},"methodIdentifiers":{"BURN_ADDRESS()":"fccc2813","BURN_INTERVAL()":"7b1648e2","MIN_SUPPLY()":"35917c64","RATE_BASE()":"0873c6ec","TIER_1_RATE()":"d1316ec1","TIER_1_RATE_PRECISE()":"615e2cad","TIER_1_THRESHOLD()":"ef2f90cf","TIER_2_RATE()":"1a6f9c64","TIER_2_RATE_PRECISE()":"e3113d59","TIER_2_THRESHOLD()":"cb9ea337","TIER_3_RATE()":"130c69db","TIER_3_RATE_PRECISE()":"b54dd59b","TIER_3_THRESHOLD()":"00bb6e92","TIER_4_THRESHOLD()":"57eb05f3","autoBurnEnabled()":"9dd255da","burnCount()":"524773ce","canExecuteBurn()":"a40e6bda","depositForBurn(uint256)":"1b82f5d9","emergencyWithdraw(address,uint256)":"95ccea67","executeAutoBurn()":"fc0d78b8","getBurnStats()":"2f37ea7a","getCurrentTierInfo()":"f576f722","getTierConfig()":"c9793d49","lastBurnTime()":"e3067449","lpToken()":"5fcbd285","manualBurn(uint256)":"23b63585","owner()":"8da5cb5b","renounceOwnership()":"715018a6","setAutoBurnEnabled(bool)":"64edbf9d","setLPToken(address)":"6a678a9c","tft()":"5fbd83f4","totalBurned()":"d89135cd","transferOwnership(address)":"f2fde38b","usdt()":"2f48ab7d"}}}}}