{"src/TradeFutureToken.sol":{"TradeFutureToken":{"abi":[{"inputs":[{"internalType":"address","name":"_nodeDividendWallet","type":"address"},{"internalType":"address","name":"_operationsWallet","type":"address"},{"internalType":"address","name":"_marketMakerWallet","type":"address"}],"stateMutability":"nonpayable","type":"constructor"},{"inputs":[{"internalType":"address","name":"spender","type":"address"},{"internalType":"uint256","name":"allowance","type":"uint256"},{"internalType":"uint256","name":"needed","type":"uint256"}],"name":"ERC20InsufficientAllowance","type":"error"},{"inputs":[{"internalType":"address","name":"sender","type":"address"},{"internalType":"uint256","name":"balance","type":"uint256"},{"internalType":"uint256","name":"needed","type":"uint256"}],"name":"ERC20InsufficientBalance","type":"error"},{"inputs":[{"internalType":"address","name":"approver","type":"address"}],"name":"ERC20InvalidApprover","type":"error"},{"inputs":[{"internalType":"address","name":"receiver","type":"address"}],"name":"ERC20InvalidReceiver","type":"error"},{"inputs":[{"internalType":"address","name":"sender","type":"address"}],"name":"ERC20InvalidSender","type":"error"},{"inputs":[{"internalType":"address","name":"spender","type":"address"}],"name":"ERC20InvalidSpender","type":"error"},{"inputs":[{"internalType":"address","name":"owner","type":"address"}],"name":"OwnableInvalidOwner","type":"error"},{"inputs":[{"internalType":"address","name":"account","type":"address"}],"name":"OwnableUnauthorizedAccount","type":"error"},{"inputs":[],"name":"ReentrancyGuardReentrantCall","type":"error"},{"anonymous":false,"inputs":[{"indexed":true,"internalType":"address","name":"owner","type":"address"},{"indexed":true,"internalType":"address","name":"spender","type":"address"},{"indexed":false,"internalType":"uint256","name":"value","type":"uint256"}],"name":"Approval","type":"event"},{"anonymous":false,"inputs":[{"indexed":true,"internalType":"address","name":"previousOwner","type":"address"},{"indexed":true,"internalType":"address","name":"newOwner","type":"address"}],"name":"OwnershipTransferred","type":"event"},{"anonymous":false,"inputs":[{"indexed":true,"internalType":"address","name":"from","type":"address"},{"indexed":false,"internalType":"uint256","name":"totalTax","type":"uint256"},{"indexed":false,"internalType":"uint256","name":"nodeDividend","type":"uint256"},{"indexed":false,"internalType":"uint256","name":"operations","type":"uint256"},{"indexed":false,"internalType":"uint256","name":"marketMaker","type":"uint256"},{"indexed":false,"internalType":"uint256","name":"burnAmount","type":"uint256"}],"name":"TaxDistributed","type":"event"},{"anonymous":false,"inputs":[{"indexed":false,"internalType":"uint256","name":"nodeDividendRate","type":"uint256"},{"indexed":false,"internalType":"uint256","name":"operationsRate","type":"uint256"},{"indexed":false,"internalType":"uint256","name":"marketMakerRate","type":"uint256"},{"indexed":false,"internalType":"uint256","name":"burnRate","type":"uint256"}],"name":"TaxRatesUpdated","type":"event"},{"anonymous":false,"inputs":[],"name":"TradingDisabled","type":"event"},{"anonymous":false,"inputs":[],"name":"TradingEnabled","type":"event"},{"anonymous":false,"inputs":[{"indexed":true,"internalType":"address","name":"from","type":"address"},{"indexed":true,"internalType":"address","name":"to","type":"address"},{"indexed":false,"internalType":"uint256","name":"value","type":"uint256"}],"name":"Transfer","type":"event"},{"anonymous":false,"inputs":[{"indexed":false,"internalType":"string","name":"walletType","type":"string"},{"indexed":false,"internalType":"address","name":"newAddress","type":"address"}],"name":"WalletUpdated","type":"event"},{"anonymous":false,"inputs":[{"indexed":true,"internalType":"address","name":"account","type":"address"},{"indexed":false,"internalType":"bool","name":"status","type":"bool"}],"name":"WhitelistUpdated","type":"event"},{"inputs":[],"name":"BURN_ADDRESS","outputs":[{"internalType":"address","name":"","type":"address"}],"stateMutability":"view","type":"function"},{"inputs":[],"name":"MAX_TOTAL_TAX_RATE","outputs":[{"internalType":"uint256","name":"","type":"uint256"}],"stateMutability":"view","type":"function"},{"inputs":[{"internalType":"address","name":"owner","type":"address"},{"internalType":"address","name":"spender","type":"address"}],"name":"allowance","outputs":[{"internalType":"uint256","name":"","type":"uint256"}],"stateMutability":"view","type":"function"},{"inputs":[{"internalType":"address","name":"spender","type":"address"},{"internalType":"uint256","name":"value","type":"uint256"}],"name":"approve","outputs":[{"internalType":"bool","name":"","type":"bool"}],"stateMutability":"nonpayable","type":"function"},{"inputs":[{"internalType":"address","name":"account","type":"address"}],"name":"balanceOf","outputs":[{"internalType":"uint256","name":"","type":"uint256"}],"stateMutability":"view","type":"function"},{"inputs":[{"internalType":"uint256","name":"value","type":"uint256"}],"name":"burn","outputs":[],"stateMutability":"nonpayable","type":"function"},{"inputs":[{"internalType":"address","name":"account","type":"address"},{"internalType":"uint256","name":"value","type":"uint256"}],"name":"burnFrom","outputs":[],"stateMutability":"nonpayable","type":"function"},{"inputs":[],"name":"burnRate","outputs":[{"internalType":"uint256","name":"","type":"uint256"}],"stateMutability":"view","type":"function"},{"inputs":[{"internalType":"address","name":"_account","type":"address"}],"name":"canTransfer","outputs":[{"internalType":"bool","name":"","type":"bool"}],"stateMutability":"view","type":"function"},{"inputs":[],"name":"decimals","outputs":[{"internalType":"uint8","name":"","type":"uint8"}],"stateMutability":"view","type":"function"},{"inputs":[],"name":"disableTrading","outputs":[],"stateMutability":"nonpayable","type":"function"},{"inputs":[],"name":"enableTrading","outputs":[],"stateMutability":"nonpayable","type":"function"},{"inputs":[{"internalType":"uint256","name":"amount","type":"uint256"}],"name":"getTaxBreakdown","outputs":[{"internalType":"uint256","name":"totalTax","type":"uint256"},{"internalType":"uint256","name":"nodeDividend","type":"uint256"},{"internalType":"uint256","name":"operations","type":"uint256"},{"internalType":"uint256","name":"marketMaker","type":"uint256"},{"internalType":"uint256","name":"burnAmount","type":"uint256"},{"internalType":"uint256","name":"amountAfterTax","type":"uint256"}],"stateMutability":"view","type":"function"},{"inputs":[],"name":"marketMakerRate","outputs":[{"internalType":"uint256","name":"","type":"uint256"}],"stateMutability":"view","type":"function"},{"inputs":[],"name":"marketMakerWallet","outputs":[{"internalType":"address","name":"","type":"address"}],"stateMutability":"view","type":"function"},{"inputs":[],"name":"name","outputs":[{"internalType":"string","name":"","type":"string"}],"stateMutability":"view","type":"function"},{"inputs":[],"name":"nodeDividendRate","outputs":[{"internalType":"uint256","name":"","type":"uint256"}],"stateMutability":"view","type":"function"},{"inputs":[],"name":"nodeDividendWallet","outputs":[{"internalType":"address","name":"","type":"address"}],"stateMutability":"view","type":"function"},{"inputs":[],"name":"operationsRate","outputs":[{"internalType":"uint256","name":"","type":"uint256"}],"stateMutability":"view","type":"function"},{"inputs":[],"name":"operationsWallet","outputs":[{"internalType":"address","name":"","type":"address"}],"stateMutability":"view","type":"function"},{"inputs":[],"name":"owner","outputs":[{"internalType":"address","name":"","type":"address"}],"stateMutability":"view","type":"function"},{"inputs":[{"internalType":"address","name":"token","type":"address"},{"internalType":"uint256","name":"amount","type":"uint256"}],"name":"recoverTokens","outputs":[],"stateMutability":"nonpayable","type":"function"},{"inputs":[],"name":"renounceOwnership","outputs":[],"stateMutability":"nonpayable","type":"function"},{"inputs":[{"internalType":"uint256","name":"_nodeDividendRate","type":"uint256"},{"internalType":"uint256","name":"_operationsRate","type":"uint256"},{"internalType":"uint256","name":"_marketMakerRate","type":"uint256"},{"internalType":"uint256","name":"_burnRate","type":"uint256"}],"name":"setTaxRates","outputs":[],"stateMutability":"nonpayable","type":"function"},{"inputs":[{"internalType":"address","name":"_account","type":"address"},{"internalType":"bool","name":"_status","type":"bool"}],"name":"setWhitelist","outputs":[],"stateMutability":"nonpayable","type":"function"},{"inputs":[{"internalType":"address[]","name":"_accounts","type":"address[]"},{"internalType":"bool","name":"_status","type":"bool"}],"name":"setWhitelistBatch","outputs":[],"stateMutability":"nonpayable","type":"function"},{"inputs":[],"name":"symbol","outputs":[{"internalType":"string","name":"","type":"string"}],"stateMutability":"view","type":"function"},{"inputs":[],"name":"totalSupply","outputs":[{"internalType":"uint256","name":"","type":"uint256"}],"stateMutability":"view","type":"function"},{"inputs":[],"name":"totalTaxRate","outputs":[{"internalType":"uint256","name":"","type":"uint256"}],"stateMutability":"view","type":"function"},{"inputs":[],"name":"tradingEnabled","outputs":[{"internalType":"bool","name":"","type":"bool"}],"stateMutability":"view","type":"function"},{"inputs":[{"internalType":"address","name":"to","type":"address"},{"internalType":"uint256","name":"amount","type":"uint256"}],"name":"transfer","outputs":[{"internalType":"bool","name":"","type":"bool"}],"stateMutability":"nonpayable","type":"function"},{"inputs":[{"internalType":"address","name":"from","type":"address"},{"internalType":"address","name":"to","type":"address"},{"internalType":"uint256","name":"amount","type":"uint256"}],"name":"transferFrom","outputs":[{"internalType":"bool","name":"","type":"bool"}],"stateMutability":"nonpayable","type":"function"},{"inputs":[{"internalType":"address","name":"newOwner","type":"address"}],"name":"transferOwnership","outputs":[],"stateMutability":"nonpayable","type":"function"},{"inputs":[{"internalType":"address","name":"_nodeDividendWallet","type":"address"},{"internalType":"address","name":"_operationsWallet","type":"address"},{"internalType":"address","name":"_marketMakerWallet","type":"address"}],"name":"updateWallets","outputs":[],"stateMutability":"nonpayable","type":"function"},{"inputs":[{"internalType":"address","name":"","type":"address"}],"name":"whitelist","outputs":[{"internalType":"bool","name":"","type":"bool"}],"stateMutability":"view","type":"function"}],"evm":{"bytecode":{"linkReferences":{},"object":"608060405261012c6006556064600755606460085560646009553480156200002657600080fd5b5060405162002082380380620020828339810160408190526200004991620004da565b33604051806040016040528060118152602001702a3930b232a33aba3ab932902a37b5b2b760791b8152506040518060400160405280600381526020016215119560ea1b8152508160039081620000a19190620005cb565b506004620000b08282620005cb565b5050506001600160a01b038116620000e357604051631e4fbdf760e01b8152600060048201526024015b60405180910390fd5b620000ee81620002c5565b5060017f9b779b17422d0df92223018b32b4d1fa46e071723d6817e2486d003becc55f00556001600160a01b0383166200016b5760405162461bcd60e51b815260206004820152601360248201527f496e76616c6964206e6f64652077616c6c6574000000000000000000000000006044820152606401620000da565b6001600160a01b038216620001c35760405162461bcd60e51b815260206004820152601960248201527f496e76616c6964206f7065726174696f6e732077616c6c6574000000000000006044820152606401620000da565b6001600160a01b0381166200021b5760405162461bcd60e51b815260206004820152601b60248201527f496e76616c6964206d61726b6574206d616b65722077616c6c657400000000006044820152606401620000da565b600a80546001600160a01b038086166001600160a01b031992831617909255600b8054858416908316179055600c805492841692909116919091179055620002883362000266601290565b6200027390600a620007ac565b620002829062a7d8c0620007c4565b62000317565b620002af336200029b6012600a620007ac565b620002a990612710620007c4565b62000355565b5050600c805460ff60a01b1916905550620007f4565b600580546001600160a01b038381166001600160a01b0319831681179093556040519116919082907f8be0079c531659141344cd1fd0a4f28419497f9722a3daafe3b4186f6b6457e090600090a35050565b6001600160a01b038216620003435760405163ec442f0560e01b815260006004820152602401620000da565b62000351600083836200038a565b5050565b6001600160a01b0382166200038157604051634b637e8f60e11b815260006004820152602401620000da565b62000351826000835b6001600160a01b038316620003b9578060026000828254620003ad9190620007de565b909155506200042d9050565b6001600160a01b038316600090815260208190526040902054818110156200040e5760405163391434e360e21b81526001600160a01b03851660048201526024810182905260448101839052606401620000da565b6001600160a01b03841660009081526020819052604090209082900390555b6001600160a01b0382166200044b576002805482900390556200046a565b6001600160a01b03821660009081526020819052604090208054820190555b816001600160a01b0316836001600160a01b03167fddf252ad1be2c89b69c2b068fc378daa952ba7f163c4a11628f55a4df523b3ef83604051620004b091815260200190565b60405180910390a3505050565b80516001600160a01b0381168114620004d557600080fd5b919050565b600080600060608486031215620004f057600080fd5b620004fb84620004bd565b92506200050b60208501620004bd565b91506200051b60408501620004bd565b90509250925092565b634e487b7160e01b600052604160045260246000fd5b600181811c908216806200054f57607f821691505b6020821081036200057057634e487b7160e01b600052602260045260246000fd5b50919050565b601f821115620005c6576000816000526020600020601f850160051c81016020861015620005a15750805b601f850160051c820191505b81811015620005c257828155600101620005ad565b5050505b505050565b81516001600160401b03811115620005e757620005e762000524565b620005ff81620005f884546200053a565b8462000576565b602080601f8311600181146200063757600084156200061e5750858301515b600019600386901b1c1916600185901b178555620005c2565b600085815260208120601f198616915b82811015620006685788860151825594840194600190910190840162000647565b5085821015620006875787850151600019600388901b60f8161c191681555b5050505050600190811b01905550565b634e487b7160e01b600052601160045260246000fd5b600181815b80851115620006ee578160001904821115620006d257620006d262000697565b80851615620006e057918102915b93841c9390800290620006b2565b509250929050565b6000826200070757506001620007a6565b816200071657506000620007a6565b81600181146200072f57600281146200073a576200075a565b6001915050620007a6565b60ff8411156200074e576200074e62000697565b50506001821b620007a6565b5060208310610133831016604e8410600b84101617156200077f575081810a620007a6565b6200078b8383620006ad565b8060001904821115620007a257620007a262000697565b0290505b92915050565b6000620007bd60ff841683620006f6565b9392505050565b8082028115828204841417620007a657620007a662000697565b80820180821115620007a657620007a662000697565b61187e80620008046000396000f3fe608060405234801561001057600080fd5b50600436106102105760003560e01c80638a8c523c11610125578063bed99850116100ad578063f049c4d61161007c578063f049c4d61461046b578063f2fde38b146104ab578063fbf8aadc146104be578063fccc2813146104c7578063fd72e22a146104d057600080fd5b8063bed9985014610417578063bf040de114610420578063dd62ed3e14610429578063e381ddf81461046257600080fd5b8063a58da0be116100f4578063a58da0be146103cd578063a9059cbb146103e0578063aba3f87d146103f3578063ae1a3740146103fc578063b47e5bda1461040457600080fd5b80638a8c523c146103895780638da5cb5b1461039157806395d89b41146103a25780639b19251a146103aa57600080fd5b8063313ce567116101a857806370a082311161017757806370a0823114610307578063715018a61461033057806378fc3cb31461033857806379cc67901461034b5780637acfe0ec1461035e57600080fd5b8063313ce567146102be57806342966c68146102cd5780634ada218b146102e057806353d6fd59146102f457600080fd5b8063147c9f6d116101e4578063147c9f6d1461027e57806317700f011461029157806318160ddd1461029957806323b872dd146102ab57600080fd5b8062d2eef214610215578063069c9fae1461022a57806306fdde031461023d578063095ea7b31461025b575b600080fd5b6102286102233660046114ce565b6104e3565b005b61022861023836600461151c565b6105c1565b6102456106ab565b6040516102529190611546565b60405180910390f35b61026e61026936600461151c565b61073d565b6040519015158152602001610252565b61022861028c366004611595565b610757565b6102286108ec565b6002545b604051908152602001610252565b61026e6102b93660046115d8565b61092c565b60405160128152602001610252565b6102286102db366004611614565b6109f1565b600c5461026e90600160a01b900460ff1681565b61022861030236600461163b565b6109fe565b61029d610315366004611672565b6001600160a01b031660009081526020819052604090205490565b610228610aad565b61026e610346366004611672565b610ac1565b61022861035936600461151c565b610b0f565b600c54610371906001600160a01b031681565b6040516001600160a01b039091168152602001610252565b610228610b24565b6005546001600160a01b0316610371565b610245610b6a565b61026e6103b8366004611672565b600d6020526000908152604090205460ff1681565b6102286103db36600461168d565b610b79565b61026e6103ee36600461151c565b610cca565b61029d6103e881565b61029d610d7d565b600a54610371906001600160a01b031681565b61029d60095481565b61029d60085481565b61029d610437366004611713565b6001600160a01b03918216600090815260016020908152604080832093909416825291909152205490565b61029d60075481565b61047e610479366004611614565b610dae565b604080519687526020870195909552938501929092526060840152608083015260a082015260c001610252565b6102286104b9366004611672565b610e62565b61029d60065481565b61037161dead81565b600b54610371906001600160a01b031681565b6104eb610e9d565b600081836104f9868861175c565b610503919061175c565b61050d919061175c565b90506103e881111561055e5760405162461bcd60e51b81526020600482015260156024820152740a8dee8c2d840e8c2f040caf0c6cacac8e640dac2f605b1b60448201526064015b60405180910390fd5b60068590556007849055600883905560098290556040805186815260208101869052908101849052606081018390527f4fb15a57311596b6eb69d5738ae140c065dc794d6bd0b1a4b3e94b01c1d8c6619060800160405180910390a15050505050565b6105c9610e9d565b6001600160a01b038216610615576005546040516001600160a01b03909116904780156108fc02916000818181858888f19350505050158015610610573d6000803e3d6000fd5b505050565b816001600160a01b031663a9059cbb6106366005546001600160a01b031690565b6040516001600160e01b031960e084901b1681526001600160a01b039091166004820152602481018490526044016020604051808303816000875af1158015610683573d6000803e3d6000fd5b505050506040513d601f19601f82011682018060405250810190610610919061176f565b5050565b6060600380546106ba9061178c565b80601f01602080910402602001604051908101604052809291908181526020018280546106e69061178c565b80156107335780601f1061070857610100808354040283529160200191610733565b820191906000526020600020905b81548152906001019060200180831161071657829003601f168201915b5050505050905090565b60003361074b818585610eca565b60019150505b92915050565b61075f610e9d565b6001600160a01b038316156107e357600a80546001600160a01b0385166001600160a01b0319909116811790915560408051818152600c818301526b1b9bd919511a5d9a59195b9960a21b60608201526020810192909252517f6ff3a4003b90be84595beb5f6acb9d54f88bd3e6dd4887ca67e53dc9645465ea9181900360800190a15b6001600160a01b0382161561086557600b80546001600160a01b0384166001600160a01b0319909116811790915560408051818152600a81830152696f7065726174696f6e7360b01b60608201526020810192909252517f6ff3a4003b90be84595beb5f6acb9d54f88bd3e6dd4887ca67e53dc9645465ea9181900360800190a15b6001600160a01b0381161561061057600c80546001600160a01b0383166001600160a01b0319909116811790915560408051818152600b818301526a36b0b935b2ba26b0b5b2b960a91b60608201526020810192909252517f6ff3a4003b90be84595beb5f6acb9d54f88bd3e6dd4887ca67e53dc9645465ea9181900360800190a1505050565b6108f4610e9d565b600c805460ff60a01b191690556040517fbcb8b8fbdea8aa6dc4ae41213e4da81e605a3d1a56ed851b9355182321c0919090600090a1565b600c54600090600160a01b900460ff16806109565750336000908152600d602052604090205460ff165b806109705750326000908152600d602052604090205460ff165b6109b25760405162461bcd60e51b8152602060048201526013602482015272151c98591a5b99c81a5cc8191a5cd8589b1959606a1b6044820152606401610555565b6109ba610ed7565b6109c5843384610ef3565b6109d0848484610f6c565b5060016109ea600160008051602061182983398151915255565b9392505050565b6109fb33826111bc565b50565b610a06610e9d565b6001600160a01b038216610a4e5760405162461bcd60e51b815260206004820152600f60248201526e496e76616c6964206164647265737360881b6044820152606401610555565b6001600160a01b0382166000818152600d6020908152604091829020805460ff191685151590811790915591519182527ff93f9a76c1bf3444d22400a00cb9fe990e6abe9dbb333fda48859cfee864543d910160405180910390a25050565b610ab5610e9d565b610abf60006111f2565b565b600c54600090600160a01b900460ff1680610af457506001600160a01b0382166000908152600d602052604090205460ff165b806107515750506005546001600160a01b0391821691161490565b610b1a823383610ef3565b6106a782826111bc565b610b2c610e9d565b600c805460ff60a01b1916600160a01b1790556040517f799663458a5ef2936f7fa0c99b3336c69c25890f82974f04e811e5bb359186c790600090a1565b6060600480546106ba9061178c565b610b81610e9d565b60005b82811015610cc4576000848483818110610ba057610ba06117c6565b9050602002016020810190610bb59190611672565b6001600160a01b031603610bfd5760405162461bcd60e51b815260206004820152600f60248201526e496e76616c6964206164647265737360881b6044820152606401610555565b81600d6000868685818110610c1457610c146117c6565b9050602002016020810190610c299190611672565b6001600160a01b031681526020810191909152604001600020805460ff1916911515919091179055838382818110610c6357610c636117c6565b9050602002016020810190610c789190611672565b6001600160a01b03167ff93f9a76c1bf3444d22400a00cb9fe990e6abe9dbb333fda48859cfee864543d83604051610cb4911515815260200190565b60405180910390a2600101610b84565b50505050565b600c54600090600160a01b900460ff1680610cf45750336000908152600d602052604090205460ff165b80610d0e5750326000908152600d602052604090205460ff165b610d505760405162461bcd60e51b8152602060048201526013602482015272151c98591a5b99c81a5cc8191a5cd8589b1959606a1b6044820152606401610555565b610d58610ed7565b610d63338484610f6c565b506001610751600160008051602061182983398151915255565b6000600954600854600754600654610d95919061175c565b610d9f919061175c565b610da9919061175c565b905090565b60008060008060008061271060065488610dc891906117dc565b610dd291906117f3565b945061271060075488610de591906117dc565b610def91906117f3565b935061271060085488610e0291906117dc565b610e0c91906117f3565b925061271060095488610e1f91906117dc565b610e2991906117f3565b91508183610e37868861175c565b610e41919061175c565b610e4b919061175c565b9550610e578688611815565b905091939550919395565b610e6a610e9d565b6001600160a01b038116610e9457604051631e4fbdf760e01b815260006004820152602401610555565b6109fb816111f2565b6005546001600160a01b03163314610abf5760405163118cdaa760e01b8152336004820152602401610555565b6106108383836001611244565b610edf611319565b600260008051602061182983398151915255565b6001600160a01b03838116600090815260016020908152604080832093861683529290522054600019811015610cc45781811015610f5d57604051637dc7a0d960e11b81526001600160a01b03841660048201526024810182905260448101839052606401610555565b610cc484848484036000611244565b6001600160a01b0383166000908152600d602052604081205460ff1680610fab57506001600160a01b0383166000908152600d602052604090205460ff165b80610fc357506005546001600160a01b038581169116145b80610fdb57506005546001600160a01b038481169116145b80610fee57506001600160a01b03841630145b8061100157506001600160a01b03831630145b9050808061100d575081155b1561101d57610cc4848484611349565b60006127106006548461103091906117dc565b61103a91906117f3565b905060006127106007548561104f91906117dc565b61105991906117f3565b905060006127106008548661106e91906117dc565b61107891906117f3565b905060006127106009548761108d91906117dc565b61109791906117f3565b9050600081836110a7868861175c565b6110b1919061175c565b6110bb919061175c565b905080156111a65784156110e157600a546110e1908a906001600160a01b031687611349565b83156110ff57600b546110ff908a906001600160a01b031686611349565b821561111d57600c5461111d908a906001600160a01b031685611349565b811561112d5761112d89836111bc565b60006111398289611815565b90506111468a8a83611349565b604080518381526020810188905290810186905260608101859052608081018490526001600160a01b038b16907f3dee54a6bc4ffec6ce5b398eb8b10107aa464100b26a976b6a80cac7f7fee9389060a00160405180910390a2506111b1565b6111b1898989611349565b505050505050505050565b6001600160a01b0382166111e657604051634b637e8f60e11b815260006004820152602401610555565b6106a7826000836113a4565b600580546001600160a01b038381166001600160a01b0319831681179093556040519116919082907f8be0079c531659141344cd1fd0a4f28419497f9722a3daafe3b4186f6b6457e090600090a35050565b6001600160a01b03841661126e5760405163e602df0560e01b815260006004820152602401610555565b6001600160a01b03831661129857604051634a1406b160e11b815260006004820152602401610555565b6001600160a01b0380851660009081526001602090815260408083209387168352929052208290558015610cc457826001600160a01b0316846001600160a01b03167f8c5be1e5ebec7d5bd14f71427d1e84f3dd0314c0f7b2291e5b200ac8c7c3b9258460405161130b91815260200190565b60405180910390a350505050565b60008051602061182983398151915254600203610abf57604051633ee5aeb560e01b815260040160405180910390fd5b6001600160a01b03831661137357604051634b637e8f60e11b815260006004820152602401610555565b6001600160a01b03821661139d5760405163ec442f0560e01b815260006004820152602401610555565b6106108383835b6001600160a01b0383166113cf5780600260008282546113c4919061175c565b909155506114419050565b6001600160a01b038316600090815260208190526040902054818110156114225760405163391434e360e21b81526001600160a01b03851660048201526024810182905260448101839052606401610555565b6001600160a01b03841660009081526020819052604090209082900390555b6001600160a01b03821661145d5760028054829003905561147c565b6001600160a01b03821660009081526020819052604090208054820190555b816001600160a01b0316836001600160a01b03167fddf252ad1be2c89b69c2b068fc378daa952ba7f163c4a11628f55a4df523b3ef836040516114c191815260200190565b60405180910390a3505050565b600080600080608085870312156114e457600080fd5b5050823594602084013594506040840135936060013592509050565b80356001600160a01b038116811461151757600080fd5b919050565b6000806040838503121561152f57600080fd5b61153883611500565b946020939093013593505050565b60006020808352835180602085015260005b8181101561157457858101830151858201604001528201611558565b506000604082860101526040601f19601f8301168501019250505092915050565b6000806000606084860312156115aa57600080fd5b6115b384611500565b92506115c160208501611500565b91506115cf60408501611500565b90509250925092565b6000806000606084860312156115ed57600080fd5b6115f684611500565b925061160460208501611500565b9150604084013590509250925092565b60006020828403121561162657600080fd5b5035919050565b80151581146109fb57600080fd5b6000806040838503121561164e57600080fd5b61165783611500565b915060208301356116678161162d565b809150509250929050565b60006020828403121561168457600080fd5b6109ea82611500565b6000806000604084860312156116a257600080fd5b833567ffffffffffffffff808211156116ba57600080fd5b818601915086601f8301126116ce57600080fd5b8135818111156116dd57600080fd5b8760208260051b85010111156116f257600080fd5b602092830195509350508401356117088161162d565b809150509250925092565b6000806040838503121561172657600080fd5b61172f83611500565b915061173d60208401611500565b90509250929050565b634e487b7160e01b600052601160045260246000fd5b8082018082111561075157610751611746565b60006020828403121561178157600080fd5b81516109ea8161162d565b600181811c908216806117a057607f821691505b6020821081036117c057634e487b7160e01b600052602260045260246000fd5b50919050565b634e487b7160e01b600052603260045260246000fd5b808202811582820484141761075157610751611746565b60008261181057634e487b7160e01b600052601260045260246000fd5b500490565b818103818111156107515761075161174656fe9b779b17422d0df92223018b32b4d1fa46e071723d6817e2486d003becc55f00a2646970667358221220c8e58b8c77ffeebc099e1c569aac1b6da5c28606166de34560645641ca599adb64736f6c63430008180033","opcodes":"PUSH1 0x80 PUSH1 0x40 MSTORE PUSH2 0x12C PUSH1 0x6 SSTORE PUSH1 0x64 PUSH1 0x7 SSTORE PUSH1 0x64 PUSH1 0x8 SSTORE PUSH1 0x64 PUSH1 0x9 SSTORE CALLVALUE DUP1 ISZERO PUSH3 0x26 JUMPI PUSH1 0x0 DUP1 REVERT JUMPDEST POP PUSH1 0x40 MLOAD PUSH3 0x2082 CODESIZE SUB DUP1 PUSH3 0x2082 DUP4 CODECOPY DUP2 ADD PUSH1 0x40 DUP2 SWAP1 MSTORE PUSH3 0x49 SWAP2 PUSH3 0x4DA JUMP JUMPDEST CALLER PUSH1 0x40 MLOAD DUP1 PUSH1 0x40 ADD PUSH1 0x40 MSTORE DUP1 PUSH1 0x11 DUP2 MSTORE PUSH1 0x20 ADD PUSH17 0x2A3930B232A33ABA3AB932902A37B5B2B7 PUSH1 0x79 SHL DUP2 MSTORE POP PUSH1 0x40 MLOAD DUP1 PUSH1 0x40 ADD PUSH1 0x40 MSTORE DUP1 PUSH1 0x3 DUP2 MSTORE PUSH1 0x20 ADD PUSH3 0x151195 PUSH1 0xEA SHL DUP2 MSTORE POP DUP2 PUSH1 0x3 SWAP1 DUP2 PUSH3 0xA1 SWAP2 SWAP1 PUSH3 0x5CB JUMP JUMPDEST POP PUSH1 0x4 PUSH3 0xB0 DUP3 DUP3 PUSH3 0x5CB JUMP JUMPDEST POP POP POP PUSH1 0x1 PUSH1 0x1 PUSH1 0xA0 SHL SUB DUP2 AND PUSH3 0xE3 JUMPI PUSH1 0x40 MLOAD PUSH4 0x1E4FBDF7 PUSH1 0xE0 SHL DUP2 MSTORE PUSH1 0x0 PUSH1 0x4 DUP3 ADD MSTORE PUSH1 0x24 ADD JUMPDEST PUSH1 0x40 MLOAD DUP1 SWAP2 SUB SWAP1 REVERT JUMPDEST PUSH3 0xEE DUP2 PUSH3 0x2C5 JUMP JUMPDEST POP PUSH1 0x1 PUSH32 0x9B779B17422D0DF92223018B32B4D1FA46E071723D6817E2486D003BECC55F00 SSTORE PUSH1 0x1 PUSH1 0x1 PUSH1 0xA0 SHL SUB DUP4 AND PUSH3 0x16B JUMPI PUSH1 0x40 MLOAD PUSH3 0x461BCD PUSH1 0xE5 SHL DUP2 MSTORE PUSH1 0x20 PUSH1 0x4 DUP3 ADD MSTORE PUSH1 0x13 PUSH1 0x24 DUP3 ADD MSTORE PUSH32 0x496E76616C6964206E6F64652077616C6C657400000000000000000000000000 PUSH1 0x44 DUP3 ADD MSTORE PUSH1 0x64 ADD PUSH3 0xDA JUMP JUMPDEST PUSH1 0x1 PUSH1 0x1 PUSH1 0xA0 SHL SUB DUP3 AND PUSH3 0x1C3 JUMPI PUSH1 0x40 MLOAD PUSH3 0x461BCD PUSH1 0xE5 SHL DUP2 MSTORE PUSH1 0x20 PUSH1 0x4 DUP3 ADD MSTORE PUSH1 0x19 PUSH1 0x24 DUP3 ADD MSTORE PUSH32 0x496E76616C6964206F7065726174696F6E732077616C6C657400000000000000 PUSH1 0x44 DUP3 ADD MSTORE PUSH1 0x64 ADD PUSH3 0xDA JUMP JUMPDEST PUSH1 0x1 PUSH1 0x1 PUSH1 0xA0 SHL SUB DUP2 AND PUSH3 0x21B JUMPI PUSH1 0x40 MLOAD PUSH3 0x461BCD PUSH1 0xE5 SHL DUP2 MSTORE PUSH1 0x20 PUSH1 0x4 DUP3 ADD MSTORE PUSH1 0x1B PUSH1 0x24 DUP3 ADD MSTORE PUSH32 0x496E76616C6964206D61726B6574206D616B65722077616C6C65740000000000 PUSH1 0x44 DUP3 ADD MSTORE PUSH1 0x64 ADD PUSH3 0xDA JUMP JUMPDEST PUSH1 0xA DUP1 SLOAD PUSH1 0x1 PUSH1 0x1 PUSH1 0xA0 SHL SUB DUP1 DUP7 AND PUSH1 0x1 PUSH1 0x1 PUSH1 0xA0 SHL SUB NOT SWAP3 DUP4 AND OR SWAP1 SWAP3 SSTORE PUSH1 0xB DUP1 SLOAD DUP6 DUP5 AND SWAP1 DUP4 AND OR SWAP1 SSTORE PUSH1 0xC DUP1 SLOAD SWAP3 DUP5 AND SWAP3 SWAP1 SWAP2 AND SWAP2 SWAP1 SWAP2 OR SWAP1 SSTORE PUSH3 0x288 CALLER PUSH3 0x266 PUSH1 0x12 SWAP1 JUMP JUMPDEST PUSH3 0x273 SWAP1 PUSH1 0xA PUSH3 0x7AC JUMP JUMPDEST PUSH3 0x282 SWAP1 PUSH3 0xA7D8C0 PUSH3 0x7C4 JUMP JUMPDEST PUSH3 0x317 JUMP JUMPDEST PUSH3 0x2AF CALLER PUSH3 0x29B PUSH1 0x12 PUSH1 0xA PUSH3 0x7AC JUMP JUMPDEST PUSH3 0x2A9 SWAP1 PUSH2 0x2710 PUSH3 0x7C4 JUMP JUMPDEST PUSH3 0x355 JUMP JUMPDEST POP POP PUSH1 0xC DUP1 SLOAD PUSH1 0xFF PUSH1 0xA0 SHL NOT AND SWAP1 SSTORE POP PUSH3 0x7F4 JUMP JUMPDEST PUSH1 0x5 DUP1 SLOAD PUSH1 0x1 PUSH1 0x1 PUSH1 0xA0 SHL SUB DUP4 DUP2 AND PUSH1 0x1 PUSH1 0x1 PUSH1 0xA0 SHL SUB NOT DUP4 AND DUP2 OR SWAP1 SWAP4 SSTORE PUSH1 0x40 MLOAD SWAP2 AND SWAP2 SWAP1 DUP3 SWAP1 PUSH32 0x8BE0079C531659141344CD1FD0A4F28419497F9722A3DAAFE3B4186F6B6457E0 SWAP1 PUSH1 0x0 SWAP1 LOG3 POP POP JUMP JUMPDEST PUSH1 0x1 PUSH1 0x1 PUSH1 0xA0 SHL SUB DUP3 AND PUSH3 0x343 JUMPI PUSH1 0x40 MLOAD PUSH4 0xEC442F05 PUSH1 0xE0 SHL DUP2 MSTORE PUSH1 0x0 PUSH1 0x4 DUP3 ADD MSTORE PUSH1 0x24 ADD PUSH3 0xDA JUMP JUMPDEST PUSH3 0x351 PUSH1 0x0 DUP4 DUP4 PUSH3 0x38A JUMP JUMPDEST POP POP JUMP JUMPDEST PUSH1 0x1 PUSH1 0x1 PUSH1 0xA0 SHL SUB DUP3 AND PUSH3 0x381 JUMPI PUSH1 0x40 MLOAD PUSH4 0x4B637E8F PUSH1 0xE1 SHL DUP2 MSTORE PUSH1 0x0 PUSH1 0x4 DUP3 ADD MSTORE PUSH1 0x24 ADD PUSH3 0xDA JUMP JUMPDEST PUSH3 0x351 DUP3 PUSH1 0x0 DUP4 JUMPDEST PUSH1 0x1 PUSH1 0x1 PUSH1 0xA0 SHL SUB DUP4 AND PUSH3 0x3B9 JUMPI DUP1 PUSH1 0x2 PUSH1 0x0 DUP3 DUP3 SLOAD PUSH3 0x3AD SWAP2 SWAP1 PUSH3 0x7DE JUMP JUMPDEST SWAP1 SWAP2 SSTORE POP PUSH3 0x42D SWAP1 POP JUMP JUMPDEST PUSH1 0x1 PUSH1 0x1 PUSH1 0xA0 SHL SUB DUP4 AND PUSH1 0x0 SWAP1 DUP2 MSTORE PUSH1 0x20 DUP2 SWAP1 MSTORE PUSH1 0x40 SWAP1 KECCAK256 SLOAD DUP2 DUP2 LT ISZERO PUSH3 0x40E JUMPI PUSH1 0x40 MLOAD PUSH4 0x391434E3 PUSH1 0xE2 SHL DUP2 MSTORE PUSH1 0x1 PUSH1 0x1 PUSH1 0xA0 SHL SUB DUP6 AND PUSH1 0x4 DUP3 ADD MSTORE PUSH1 0x24 DUP2 ADD DUP3 SWAP1 MSTORE PUSH1 0x44 DUP2 ADD DUP4 SWAP1 MSTORE PUSH1 0x64 ADD PUSH3 0xDA JUMP JUMPDEST PUSH1 0x1 PUSH1 0x1 PUSH1 0xA0 SHL SUB DUP5 AND PUSH1 0x0 SWAP1 DUP2 MSTORE PUSH1 0x20 DUP2 SWAP1 MSTORE PUSH1 0x40 SWAP1 KECCAK256 SWAP1 DUP3 SWAP1 SUB SWAP1 SSTORE JUMPDEST PUSH1 0x1 PUSH1 0x1 PUSH1 0xA0 SHL SUB DUP3 AND PUSH3 0x44B JUMPI PUSH1 0x2 DUP1 SLOAD DUP3 SWAP1 SUB SWAP1 SSTORE PUSH3 0x46A JUMP JUMPDEST PUSH1 0x1 PUSH1 0x1 PUSH1 0xA0 SHL SUB DUP3 AND PUSH1 0x0 SWAP1 DUP2 MSTORE PUSH1 0x20 DUP2 SWAP1 MSTORE PUSH1 0x40 SWAP1 KECCAK256 DUP1 SLOAD DUP3 ADD SWAP1 SSTORE JUMPDEST DUP2 PUSH1 0x1 PUSH1 0x1 PUSH1 0xA0 SHL SUB AND DUP4 PUSH1 0x1 PUSH1 0x1 PUSH1 0xA0 SHL SUB AND PUSH32 0xDDF252AD1BE2C89B69C2B068FC378DAA952BA7F163C4A11628F55A4DF523B3EF DUP4 PUSH1 0x40 MLOAD PUSH3 0x4B0 SWAP2 DUP2 MSTORE PUSH1 0x20 ADD SWAP1 JUMP JUMPDEST PUSH1 0x40 MLOAD DUP1 SWAP2 SUB SWAP1 LOG3 POP POP POP JUMP JUMPDEST DUP1 MLOAD PUSH1 0x1 PUSH1 0x1 PUSH1 0xA0 SHL SUB DUP2 AND DUP2 EQ PUSH3 0x4D5 JUMPI PUSH1 0x0 DUP1 REVERT JUMPDEST SWAP2 SWAP1 POP JUMP JUMPDEST PUSH1 0x0 DUP1 PUSH1 0x0 PUSH1 0x60 DUP5 DUP7 SUB SLT ISZERO PUSH3 0x4F0 JUMPI PUSH1 0x0 DUP1 REVERT JUMPDEST PUSH3 0x4FB DUP5 PUSH3 0x4BD JUMP JUMPDEST SWAP3 POP PUSH3 0x50B PUSH1 0x20 DUP6 ADD PUSH3 0x4BD JUMP JUMPDEST SWAP2 POP PUSH3 0x51B PUSH1 0x40 DUP6 ADD PUSH3 0x4BD JUMP JUMPDEST SWAP1 POP SWAP3 POP SWAP3 POP SWAP3 JUMP JUMPDEST PUSH4 0x4E487B71 PUSH1 0xE0 SHL PUSH1 0x0 MSTORE PUSH1 0x41 PUSH1 0x4 MSTORE PUSH1 0x24 PUSH1 0x0 REVERT JUMPDEST PUSH1 0x1 DUP2 DUP2 SHR SWAP1 DUP3 AND DUP1 PUSH3 0x54F JUMPI PUSH1 0x7F DUP3 AND SWAP2 POP JUMPDEST PUSH1 0x20 DUP3 LT DUP2 SUB PUSH3 0x570 JUMPI PUSH4 0x4E487B71 PUSH1 0xE0 SHL PUSH1 0x0 MSTORE PUSH1 0x22 PUSH1 0x4 MSTORE PUSH1 0x24 PUSH1 0x0 REVERT JUMPDEST POP SWAP2 SWAP1 POP JUMP JUMPDEST PUSH1 0x1F DUP3 GT ISZERO PUSH3 0x5C6 JUMPI PUSH1 0x0 DUP2 PUSH1 0x0 MSTORE PUSH1 0x20 PUSH1 0x0 KECCAK256 PUSH1 0x1F DUP6 ADD PUSH1 0x5 SHR DUP2 ADD PUSH1 0x20 DUP7 LT ISZERO PUSH3 0x5A1 JUMPI POP DUP1 JUMPDEST PUSH1 0x1F DUP6 ADD PUSH1 0x5 SHR DUP3 ADD SWAP2 POP JUMPDEST DUP2 DUP2 LT ISZERO PUSH3 0x5C2 JUMPI DUP3 DUP2 SSTORE PUSH1 0x1 ADD PUSH3 0x5AD JUMP JUMPDEST POP POP POP JUMPDEST POP POP POP JUMP JUMPDEST DUP2 MLOAD PUSH1 0x1 PUSH1 0x1 PUSH1 0x40 SHL SUB DUP2 GT ISZERO PUSH3 0x5E7 JUMPI PUSH3 0x5E7 PUSH3 0x524 JUMP JUMPDEST PUSH3 0x5FF DUP2 PUSH3 0x5F8 DUP5 SLOAD PUSH3 0x53A JUMP JUMPDEST DUP5 PUSH3 0x576 JUMP JUMPDEST PUSH1 0x20 DUP1 PUSH1 0x1F DUP4 GT PUSH1 0x1 DUP2 EQ PUSH3 0x637 JUMPI PUSH1 0x0 DUP5 ISZERO PUSH3 0x61E JUMPI POP DUP6 DUP4 ADD MLOAD JUMPDEST PUSH1 0x0 NOT PUSH1 0x3 DUP7 SWAP1 SHL SHR NOT AND PUSH1 0x1 DUP6 SWAP1 SHL OR DUP6 SSTORE PUSH3 0x5C2 JUMP JUMPDEST PUSH1 0x0 DUP6 DUP2 MSTORE PUSH1 0x20 DUP2 KECCAK256 PUSH1 0x1F NOT DUP7 AND SWAP2 JUMPDEST DUP3 DUP2 LT ISZERO PUSH3 0x668 JUMPI DUP9 DUP7 ADD MLOAD DUP3 SSTORE SWAP5 DUP5 ADD SWAP5 PUSH1 0x1 SWAP1 SWAP2 ADD SWAP1 DUP5 ADD PUSH3 0x647 JUMP JUMPDEST POP DUP6 DUP3 LT ISZERO PUSH3 0x687 JUMPI DUP8 DUP6 ADD MLOAD PUSH1 0x0 NOT PUSH1 0x3 DUP9 SWAP1 SHL PUSH1 0xF8 AND SHR NOT AND DUP2 SSTORE JUMPDEST POP POP POP POP POP PUSH1 0x1 SWAP1 DUP2 SHL ADD SWAP1 SSTORE POP JUMP JUMPDEST PUSH4 0x4E487B71 PUSH1 0xE0 SHL PUSH1 0x0 MSTORE PUSH1 0x11 PUSH1 0x4 MSTORE PUSH1 0x24 PUSH1 0x0 REVERT JUMPDEST PUSH1 0x1 DUP2 DUP2 JUMPDEST DUP1 DUP6 GT ISZERO PUSH3 0x6EE JUMPI DUP2 PUSH1 0x0 NOT DIV DUP3 GT ISZERO PUSH3 0x6D2 JUMPI PUSH3 0x6D2 PUSH3 0x697 JUMP JUMPDEST DUP1 DUP6 AND ISZERO PUSH3 0x6E0 JUMPI SWAP2 DUP2 MUL SWAP2 JUMPDEST SWAP4 DUP5 SHR SWAP4 SWAP1 DUP1 MUL SWAP1 PUSH3 0x6B2 JUMP JUMPDEST POP SWAP3 POP SWAP3 SWAP1 POP JUMP JUMPDEST PUSH1 0x0 DUP3 PUSH3 0x707 JUMPI POP PUSH1 0x1 PUSH3 0x7A6 JUMP JUMPDEST DUP2 PUSH3 0x716 JUMPI POP PUSH1 0x0 PUSH3 0x7A6 JUMP JUMPDEST DUP2 PUSH1 0x1 DUP2 EQ PUSH3 0x72F JUMPI PUSH1 0x2 DUP2 EQ PUSH3 0x73A JUMPI PUSH3 0x75A JUMP JUMPDEST PUSH1 0x1 SWAP2 POP POP PUSH3 0x7A6 JUMP JUMPDEST PUSH1 0xFF DUP5 GT ISZERO PUSH3 0x74E JUMPI PUSH3 0x74E PUSH3 0x697 JUMP JUMPDEST POP POP PUSH1 0x1 DUP3 SHL PUSH3 0x7A6 JUMP JUMPDEST POP PUSH1 0x20 DUP4 LT PUSH2 0x133 DUP4 LT AND PUSH1 0x4E DUP5 LT PUSH1 0xB DUP5 LT AND OR ISZERO PUSH3 0x77F JUMPI POP DUP2 DUP2 EXP PUSH3 0x7A6 JUMP JUMPDEST PUSH3 0x78B DUP4 DUP4 PUSH3 0x6AD JUMP JUMPDEST DUP1 PUSH1 0x0 NOT DIV DUP3 GT ISZERO PUSH3 0x7A2 JUMPI PUSH3 0x7A2 PUSH3 0x697 JUMP JUMPDEST MUL SWAP1 POP JUMPDEST SWAP3 SWAP2 POP POP JUMP JUMPDEST PUSH1 0x0 PUSH3 0x7BD PUSH1 0xFF DUP5 AND DUP4 PUSH3 0x6F6 JUMP JUMPDEST SWAP4 SWAP3 POP POP POP JUMP JUMPDEST DUP1 DUP3 MUL DUP2 ISZERO DUP3 DUP3 DIV DUP5 EQ OR PUSH3 0x7A6 JUMPI PUSH3 0x7A6 PUSH3 0x697 JUMP JUMPDEST DUP1 DUP3 ADD DUP1 DUP3 GT ISZERO PUSH3 0x7A6 JUMPI PUSH3 0x7A6 PUSH3 0x697 JUMP JUMPDEST PUSH2 0x187E DUP1 PUSH3 0x804 PUSH1 0x0 CODECOPY PUSH1 0x0 RETURN INVALID PUSH1 0x80 PUSH1 0x40 MSTORE CALLVALUE DUP1 ISZERO PUSH2 0x10 JUMPI PUSH1 0x0 DUP1 REVERT JUMPDEST POP PUSH1 0x4 CALLDATASIZE LT PUSH2 0x210 JUMPI PUSH1 0x0 CALLDATALOAD PUSH1 0xE0 SHR DUP1 PUSH4 0x8A8C523C GT PUSH2 0x125 JUMPI DUP1 PUSH4 0xBED99850 GT PUSH2 0xAD JUMPI DUP1 PUSH4 0xF049C4D6 GT PUSH2 0x7C JUMPI DUP1 PUSH4 0xF049C4D6 EQ PUSH2 0x46B JUMPI DUP1 PUSH4 0xF2FDE38B EQ PUSH2 0x4AB JUMPI DUP1 PUSH4 0xFBF8AADC EQ PUSH2 0x4BE JUMPI DUP1 PUSH4 0xFCCC2813 EQ PUSH2 0x4C7 JUMPI DUP1 PUSH4 0xFD72E22A EQ PUSH2 0x4D0 JUMPI PUSH1 0x0 DUP1 REVERT JUMPDEST DUP1 PUSH4 0xBED99850 EQ PUSH2 0x417 JUMPI DUP1 PUSH4 0xBF040DE1 EQ PUSH2 0x420 JUMPI DUP1 PUSH4 0xDD62ED3E EQ PUSH2 0x429 JUMPI DUP1 PUSH4 0xE381DDF8 EQ PUSH2 0x462 JUMPI PUSH1 0x0 DUP1 REVERT JUMPDEST DUP1 PUSH4 0xA58DA0BE GT PUSH2 0xF4 JUMPI DUP1 PUSH4 0xA58DA0BE EQ PUSH2 0x3CD JUMPI DUP1 PUSH4 0xA9059CBB EQ PUSH2 0x3E0 JUMPI DUP1 PUSH4 0xABA3F87D EQ PUSH2 0x3F3 JUMPI DUP1 PUSH4 0xAE1A3740 EQ PUSH2 0x3FC JUMPI DUP1 PUSH4 0xB47E5BDA EQ PUSH2 0x404 JUMPI PUSH1 0x0 DUP1 REVERT JUMPDEST DUP1 PUSH4 0x8A8C523C EQ PUSH2 0x389 JUMPI DUP1 PUSH4 0x8DA5CB5B EQ PUSH2 0x391 JUMPI DUP1 PUSH4 0x95D89B41 EQ PUSH2 0x3A2 JUMPI DUP1 PUSH4 0x9B19251A EQ PUSH2 0x3AA JUMPI PUSH1 0x0 DUP1 REVERT JUMPDEST DUP1 PUSH4 0x313CE567 GT PUSH2 0x1A8 JUMPI DUP1 PUSH4 0x70A08231 GT PUSH2 0x177 JUMPI DUP1 PUSH4 0x70A08231 EQ PUSH2 0x307 JUMPI DUP1 PUSH4 0x715018A6 EQ PUSH2 0x330 JUMPI DUP1 PUSH4 0x78FC3CB3 EQ PUSH2 0x338 JUMPI DUP1 PUSH4 0x79CC6790 EQ PUSH2 0x34B JUMPI DUP1 PUSH4 0x7ACFE0EC EQ PUSH2 0x35E JUMPI PUSH1 0x0 DUP1 REVERT JUMPDEST DUP1 PUSH4 0x313CE567 EQ PUSH2 0x2BE JUMPI DUP1 PUSH4 0x42966C68 EQ PUSH2 0x2CD JUMPI DUP1 PUSH4 0x4ADA218B EQ PUSH2 0x2E0 JUMPI DUP1 PUSH4 0x53D6FD59 EQ PUSH2 0x2F4 JUMPI PUSH1 0x0 DUP1 REVERT JUMPDEST DUP1 PUSH4 0x147C9F6D GT PUSH2 0x1E4 JUMPI DUP1 PUSH4 0x147C9F6D EQ PUSH2 0x27E JUMPI DUP1 PUSH4 0x17700F01 EQ PUSH2 0x291 JUMPI DUP1 PUSH4 0x18160DDD EQ PUSH2 0x299 JUMPI DUP1 PUSH4 0x23B872DD EQ PUSH2 0x2AB JUMPI PUSH1 0x0 DUP1 REVERT JUMPDEST DUP1 PUSH3 0xD2EEF2 EQ PUSH2 0x215 JUMPI DUP1 PUSH4 0x69C9FAE EQ PUSH2 0x22A JUMPI DUP1 PUSH4 0x6FDDE03 EQ PUSH2 0x23D JUMPI DUP1 PUSH4 0x95EA7B3 EQ PUSH2 0x25B JUMPI JUMPDEST PUSH1 0x0 DUP1 REVERT JUMPDEST PUSH2 0x228 PUSH2 0x223 CALLDATASIZE PUSH1 0x4 PUSH2 0x14CE JUMP JUMPDEST PUSH2 0x4E3 JUMP JUMPDEST STOP JUMPDEST PUSH2 0x228 PUSH2 0x238 CALLDATASIZE PUSH1 0x4 PUSH2 0x151C JUMP JUMPDEST PUSH2 0x5C1 JUMP JUMPDEST PUSH2 0x245 PUSH2 0x6AB JUMP JUMPDEST PUSH1 0x40 MLOAD PUSH2 0x252 SWAP2 SWAP1 PUSH2 0x1546 JUMP JUMPDEST PUSH1 0x40 MLOAD DUP1 SWAP2 SUB SWAP1 RETURN JUMPDEST PUSH2 0x26E PUSH2 0x269 CALLDATASIZE PUSH1 0x4 PUSH2 0x151C JUMP JUMPDEST PUSH2 0x73D JUMP JUMPDEST PUSH1 0x40 MLOAD SWAP1 ISZERO ISZERO DUP2 MSTORE PUSH1 0x20 ADD PUSH2 0x252 JUMP JUMPDEST PUSH2 0x228 PUSH2 0x28C CALLDATASIZE PUSH1 0x4 PUSH2 0x1595 JUMP JUMPDEST PUSH2 0x757 JUMP JUMPDEST PUSH2 0x228 PUSH2 0x8EC JUMP JUMPDEST PUSH1 0x2 SLOAD JUMPDEST PUSH1 0x40 MLOAD SWAP1 DUP2 MSTORE PUSH1 0x20 ADD PUSH2 0x252 JUMP JUMPDEST PUSH2 0x26E PUSH2 0x2B9 CALLDATASIZE PUSH1 0x4 PUSH2 0x15D8 JUMP JUMPDEST PUSH2 0x92C JUMP JUMPDEST PUSH1 0x40 MLOAD PUSH1 0x12 DUP2 MSTORE PUSH1 0x20 ADD PUSH2 0x252 JUMP JUMPDEST PUSH2 0x228 PUSH2 0x2DB CALLDATASIZE PUSH1 0x4 PUSH2 0x1614 JUMP JUMPDEST PUSH2 0x9F1 JUMP JUMPDEST PUSH1 0xC SLOAD PUSH2 0x26E SWAP1 PUSH1 0x1 PUSH1 0xA0 SHL SWAP1 DIV PUSH1 0xFF AND DUP2 JUMP JUMPDEST PUSH2 0x228 PUSH2 0x302 CALLDATASIZE PUSH1 0x4 PUSH2 0x163B JUMP JUMPDEST PUSH2 0x9FE JUMP JUMPDEST PUSH2 0x29D PUSH2 0x315 CALLDATASIZE PUSH1 0x4 PUSH2 0x1672 JUMP JUMPDEST PUSH1 0x1 PUSH1 0x1 PUSH1 0xA0 SHL SUB AND PUSH1 0x0 SWAP1 DUP2 MSTORE PUSH1 0x20 DUP2 SWAP1 MSTORE PUSH1 0x40 SWAP1 KECCAK256 SLOAD SWAP1 JUMP JUMPDEST PUSH2 0x228 PUSH2 0xAAD JUMP JUMPDEST PUSH2 0x26E PUSH2 0x346 CALLDATASIZE PUSH1 0x4 PUSH2 0x1672 JUMP JUMPDEST PUSH2 0xAC1 JUMP JUMPDEST PUSH2 0x228 PUSH2 0x359 CALLDATASIZE PUSH1 0x4 PUSH2 0x151C JUMP JUMPDEST PUSH2 0xB0F JUMP JUMPDEST PUSH1 0xC SLOAD PUSH2 0x371 SWAP1 PUSH1 0x1 PUSH1 0x1 PUSH1 0xA0 SHL SUB AND DUP2 JUMP JUMPDEST PUSH1 0x40 MLOAD PUSH1 0x1 PUSH1 0x1 PUSH1 0xA0 SHL SUB SWAP1 SWAP2 AND DUP2 MSTORE PUSH1 0x20 ADD PUSH2 0x252 JUMP JUMPDEST PUSH2 0x228 PUSH2 0xB24 JUMP JUMPDEST PUSH1 0x5 SLOAD PUSH1 0x1 PUSH1 0x1 PUSH1 0xA0 SHL SUB AND PUSH2 0x371 JUMP JUMPDEST PUSH2 0x245 PUSH2 0xB6A JUMP JUMPDEST PUSH2 0x26E PUSH2 0x3B8 CALLDATASIZE PUSH1 0x4 PUSH2 0x1672 JUMP JUMPDEST PUSH1 0xD PUSH1 0x20 MSTORE PUSH1 0x0 SWAP1 DUP2 MSTORE PUSH1 0x40 SWAP1 KECCAK256 SLOAD PUSH1 0xFF AND DUP2 JUMP JUMPDEST PUSH2 0x228 PUSH2 0x3DB CALLDATASIZE PUSH1 0x4 PUSH2 0x168D JUMP JUMPDEST PUSH2 0xB79 JUMP JUMPDEST PUSH2 0x26E PUSH2 0x3EE CALLDATASIZE PUSH1 0x4 PUSH2 0x151C JUMP JUMPDEST PUSH2 0xCCA JUMP JUMPDEST PUSH2 0x29D PUSH2 0x3E8 DUP2 JUMP JUMPDEST PUSH2 0x29D PUSH2 0xD7D JUMP JUMPDEST PUSH1 0xA SLOAD PUSH2 0x371 SWAP1 PUSH1 0x1 PUSH1 0x1 PUSH1 0xA0 SHL SUB AND DUP2 JUMP JUMPDEST PUSH2 0x29D PUSH1 0x9 SLOAD DUP2 JUMP JUMPDEST PUSH2 0x29D PUSH1 0x8 SLOAD DUP2 JUMP JUMPDEST PUSH2 0x29D PUSH2 0x437 CALLDATASIZE PUSH1 0x4 PUSH2 0x1713 JUMP JUMPDEST PUSH1 0x1 PUSH1 0x1 PUSH1 0xA0 SHL SUB SWAP2 DUP3 AND PUSH1 0x0 SWAP1 DUP2 MSTORE PUSH1 0x1 PUSH1 0x20 SWAP1 DUP2 MSTORE PUSH1 0x40 DUP1 DUP4 KECCAK256 SWAP4 SWAP1 SWAP5 AND DUP3 MSTORE SWAP2 SWAP1 SWAP2 MSTORE KECCAK256 SLOAD SWAP1 JUMP JUMPDEST PUSH2 0x29D PUSH1 0x7 SLOAD DUP2 JUMP JUMPDEST PUSH2 0x47E PUSH2 0x479 CALLDATASIZE PUSH1 0x4 PUSH2 0x1614 JUMP JUMPDEST PUSH2 0xDAE JUMP JUMPDEST PUSH1 0x40 DUP1 MLOAD SWAP7 DUP8 MSTORE PUSH1 0x20 DUP8 ADD SWAP6 SWAP1 SWAP6 MSTORE SWAP4 DUP6 ADD SWAP3 SWAP1 SWAP3 MSTORE PUSH1 0x60 DUP5 ADD MSTORE PUSH1 0x80 DUP4 ADD MSTORE PUSH1 0xA0 DUP3 ADD MSTORE PUSH1 0xC0 ADD PUSH2 0x252 JUMP JUMPDEST PUSH2 0x228 PUSH2 0x4B9 CALLDATASIZE PUSH1 0x4 PUSH2 0x1672 JUMP JUMPDEST PUSH2 0xE62 JUMP JUMPDEST PUSH2 0x29D PUSH1 0x6 SLOAD DUP2 JUMP JUMPDEST PUSH2 0x371 PUSH2 0xDEAD DUP2 JUMP JUMPDEST PUSH1 0xB SLOAD PUSH2 0x371 SWAP1 PUSH1 0x1 PUSH1 0x1 PUSH1 0xA0 SHL SUB AND DUP2 JUMP JUMPDEST PUSH2 0x4EB PUSH2 0xE9D JUMP JUMPDEST PUSH1 0x0 DUP2 DUP4 PUSH2 0x4F9 DUP7 DUP9 PUSH2 0x175C JUMP JUMPDEST PUSH2 0x503 SWAP2 SWAP1 PUSH2 0x175C JUMP JUMPDEST PUSH2 0x50D SWAP2 SWAP1 PUSH2 0x175C JUMP JUMPDEST SWAP1 POP PUSH2 0x3E8 DUP2 GT ISZERO PUSH2 0x55E JUMPI PUSH1 0x40 MLOAD PUSH3 0x461BCD PUSH1 0xE5 SHL DUP2 MSTORE PUSH1 0x20 PUSH1 0x4 DUP3 ADD MSTORE PUSH1 0x15 PUSH1 0x24 DUP3 ADD MSTORE PUSH21 0xA8DEE8C2D840E8C2F040CAF0C6CACAC8E640DAC2F PUSH1 0x5B SHL PUSH1 0x44 DUP3 ADD MSTORE PUSH1 0x64 ADD JUMPDEST PUSH1 0x40 MLOAD DUP1 SWAP2 SUB SWAP1 REVERT JUMPDEST PUSH1 0x6 DUP6 SWAP1 SSTORE PUSH1 0x7 DUP5 SWAP1 SSTORE PUSH1 0x8 DUP4 SWAP1 SSTORE PUSH1 0x9 DUP3 SWAP1 SSTORE PUSH1 0x40 DUP1 MLOAD DUP7 DUP2 MSTORE PUSH1 0x20 DUP2 ADD DUP7 SWAP1 MSTORE SWAP1 DUP2 ADD DUP5 SWAP1 MSTORE PUSH1 0x60 DUP2 ADD DUP4 SWAP1 MSTORE PUSH32 0x4FB15A57311596B6EB69D5738AE140C065DC794D6BD0B1A4B3E94B01C1D8C661 SWAP1 PUSH1 0x80 ADD PUSH1 0x40 MLOAD DUP1 SWAP2 SUB SWAP1 LOG1 POP POP POP POP POP JUMP JUMPDEST PUSH2 0x5C9 PUSH2 0xE9D JUMP JUMPDEST PUSH1 0x1 PUSH1 0x1 PUSH1 0xA0 SHL SUB DUP3 AND PUSH2 0x615 JUMPI PUSH1 0x5 SLOAD PUSH1 0x40 MLOAD PUSH1 0x1 PUSH1 0x1 PUSH1 0xA0 SHL SUB SWAP1 SWAP2 AND SWAP1 SELFBALANCE DUP1 ISZERO PUSH2 0x8FC MUL SWAP2 PUSH1 0x0 DUP2 DUP2 DUP2 DUP6 DUP9 DUP9 CALL SWAP4 POP POP POP POP ISZERO DUP1 ISZERO PUSH2 0x610 JUMPI RETURNDATASIZE PUSH1 0x0 DUP1 RETURNDATACOPY RETURNDATASIZE PUSH1 0x0 REVERT JUMPDEST POP POP POP JUMP JUMPDEST DUP2 PUSH1 0x1 PUSH1 0x1 PUSH1 0xA0 SHL SUB AND PUSH4 0xA9059CBB PUSH2 0x636 PUSH1 0x5 SLOAD PUSH1 0x1 PUSH1 0x1 PUSH1 0xA0 SHL SUB AND SWAP1 JUMP JUMPDEST PUSH1 0x40 MLOAD PUSH1 0x1 PUSH1 0x1 PUSH1 0xE0 SHL SUB NOT PUSH1 0xE0 DUP5 SWAP1 SHL AND DUP2 MSTORE PUSH1 0x1 PUSH1 0x1 PUSH1 0xA0 SHL SUB SWAP1 SWAP2 AND PUSH1 0x4 DUP3 ADD MSTORE PUSH1 0x24 DUP2 ADD DUP5 SWAP1 MSTORE PUSH1 0x44 ADD PUSH1 0x20 PUSH1 0x40 MLOAD DUP1 DUP4 SUB DUP2 PUSH1 0x0 DUP8 GAS CALL ISZERO DUP1 ISZERO PUSH2 0x683 JUMPI RETURNDATASIZE PUSH1 0x0 DUP1 RETURNDATACOPY RETURNDATASIZE PUSH1 0x0 REVERT JUMPDEST POP POP POP POP PUSH1 0x40 MLOAD RETURNDATASIZE PUSH1 0x1F NOT PUSH1 0x1F DUP3 ADD AND DUP3 ADD DUP1 PUSH1 0x40 MSTORE POP DUP2 ADD SWAP1 PUSH2 0x610 SWAP2 SWAP1 PUSH2 0x176F JUMP JUMPDEST POP POP JUMP JUMPDEST PUSH1 0x60 PUSH1 0x3 DUP1 SLOAD PUSH2 0x6BA SWAP1 PUSH2 0x178C JUMP JUMPDEST DUP1 PUSH1 0x1F ADD PUSH1 0x20 DUP1 SWAP2 DIV MUL PUSH1 0x20 ADD PUSH1 0x40 MLOAD SWAP1 DUP2 ADD PUSH1 0x40 MSTORE DUP1 SWAP3 SWAP2 SWAP1 DUP2 DUP2 MSTORE PUSH1 0x20 ADD DUP3 DUP1 SLOAD PUSH2 0x6E6 SWAP1 PUSH2 0x178C JUMP JUMPDEST DUP1 ISZERO PUSH2 0x733 JUMPI DUP1 PUSH1 0x1F LT PUSH2 0x708 JUMPI PUSH2 0x100 DUP1 DUP4 SLOAD DIV MUL DUP4 MSTORE SWAP2 PUSH1 0x20 ADD SWAP2 PUSH2 0x733 JUMP JUMPDEST DUP3 ADD SWAP2 SWAP1 PUSH1 0x0 MSTORE PUSH1 0x20 PUSH1 0x0 KECCAK256 SWAP1 JUMPDEST DUP2 SLOAD DUP2 MSTORE SWAP1 PUSH1 0x1 ADD SWAP1 PUSH1 0x20 ADD DUP1 DUP4 GT PUSH2 0x716 JUMPI DUP3 SWAP1 SUB PUSH1 0x1F AND DUP3 ADD SWAP2 JUMPDEST POP POP POP POP POP SWAP1 POP SWAP1 JUMP JUMPDEST PUSH1 0x0 CALLER PUSH2 0x74B DUP2 DUP6 DUP6 PUSH2 0xECA JUMP JUMPDEST PUSH1 0x1 SWAP2 POP POP JUMPDEST SWAP3 SWAP2 POP POP JUMP JUMPDEST PUSH2 0x75F PUSH2 0xE9D JUMP JUMPDEST PUSH1 0x1 PUSH1 0x1 PUSH1 0xA0 SHL SUB DUP4 AND ISZERO PUSH2 0x7E3 JUMPI PUSH1 0xA DUP1 SLOAD PUSH1 0x1 PUSH1 0x1 PUSH1 0xA0 SHL SUB DUP6 AND PUSH1 0x1 PUSH1 0x1 PUSH1 0xA0 SHL SUB NOT SWAP1 SWAP2 AND DUP2 OR SWAP1 SWAP2 SSTORE PUSH1 0x40 DUP1 MLOAD DUP2 DUP2 MSTORE PUSH1 0xC DUP2 DUP4 ADD MSTORE PUSH12 0x1B9BD919511A5D9A59195B99 PUSH1 0xA2 SHL PUSH1 0x60 DUP3 ADD MSTORE PUSH1 0x20 DUP2 ADD SWAP3 SWAP1 SWAP3 MSTORE MLOAD PUSH32 0x6FF3A4003B90BE84595BEB5F6ACB9D54F88BD3E6DD4887CA67E53DC9645465EA SWAP2 DUP2 SWAP1 SUB PUSH1 0x80 ADD SWAP1 LOG1 JUMPDEST PUSH1 0x1 PUSH1 0x1 PUSH1 0xA0 SHL SUB DUP3 AND ISZERO PUSH2 0x865 JUMPI PUSH1 0xB DUP1 SLOAD PUSH1 0x1 PUSH1 0x1 PUSH1 0xA0 SHL SUB DUP5 AND PUSH1 0x1 PUSH1 0x1 PUSH1 0xA0 SHL SUB NOT SWAP1 SWAP2 AND DUP2 OR SWAP1 SWAP2 SSTORE PUSH1 0x40 DUP1 MLOAD DUP2 DUP2 MSTORE PUSH1 0xA DUP2 DUP4 ADD MSTORE PUSH10 0x6F7065726174696F6E73 PUSH1 0xB0 SHL PUSH1 0x60 DUP3 ADD MSTORE PUSH1 0x20 DUP2 ADD SWAP3 SWAP1 SWAP3 MSTORE MLOAD PUSH32 0x6FF3A4003B90BE84595BEB5F6ACB9D54F88BD3E6DD4887CA67E53DC9645465EA SWAP2 DUP2 SWAP1 SUB PUSH1 0x80 ADD SWAP1 LOG1 JUMPDEST PUSH1 0x1 PUSH1 0x1 PUSH1 0xA0 SHL SUB DUP2 AND ISZERO PUSH2 0x610 JUMPI PUSH1 0xC DUP1 SLOAD PUSH1 0x1 PUSH1 0x1 PUSH1 0xA0 SHL SUB DUP4 AND PUSH1 0x1 PUSH1 0x1 PUSH1 0xA0 SHL SUB NOT SWAP1 SWAP2 AND DUP2 OR SWAP1 SWAP2 SSTORE PUSH1 0x40 DUP1 MLOAD DUP2 DUP2 MSTORE PUSH1 0xB DUP2 DUP4 ADD MSTORE PUSH11 0x36B0B935B2BA26B0B5B2B9 PUSH1 0xA9 SHL PUSH1 0x60 DUP3 ADD MSTORE PUSH1 0x20 DUP2 ADD SWAP3 SWAP1 SWAP3 MSTORE MLOAD PUSH32 0x6FF3A4003B90BE84595BEB5F6ACB9D54F88BD3E6DD4887CA67E53DC9645465EA SWAP2 DUP2 SWAP1 SUB PUSH1 0x80 ADD SWAP1 LOG1 POP POP POP JUMP JUMPDEST PUSH2 0x8F4 PUSH2 0xE9D JUMP JUMPDEST PUSH1 0xC DUP1 SLOAD PUSH1 0xFF PUSH1 0xA0 SHL NOT AND SWAP1 SSTORE PUSH1 0x40 MLOAD PUSH32 0xBCB8B8FBDEA8AA6DC4AE41213E4DA81E605A3D1A56ED851B9355182321C09190 SWAP1 PUSH1 0x0 SWAP1 LOG1 JUMP JUMPDEST PUSH1 0xC SLOAD PUSH1 0x0 SWAP1 PUSH1 0x1 PUSH1 0xA0 SHL SWAP1 DIV PUSH1 0xFF AND DUP1 PUSH2 0x956 JUMPI POP CALLER PUSH1 0x0 SWAP1 DUP2 MSTORE PUSH1 0xD PUSH1 0x20 MSTORE PUSH1 0x40 SWAP1 KECCAK256 SLOAD PUSH1 0xFF AND JUMPDEST DUP1 PUSH2 0x970 JUMPI POP ORIGIN PUSH1 0x0 SWAP1 DUP2 MSTORE PUSH1 0xD PUSH1 0x20 MSTORE PUSH1 0x40 SWAP1 KECCAK256 SLOAD PUSH1 0xFF AND JUMPDEST PUSH2 0x9B2 JUMPI PUSH1 0x40 MLOAD PUSH3 0x461BCD PUSH1 0xE5 SHL DUP2 MSTORE PUSH1 0x20 PUSH1 0x4 DUP3 ADD MSTORE PUSH1 0x13 PUSH1 0x24 DUP3 ADD MSTORE PUSH19 0x151C98591A5B99C81A5CC8191A5CD8589B1959 PUSH1 0x6A SHL PUSH1 0x44 DUP3 ADD MSTORE PUSH1 0x64 ADD PUSH2 0x555 JUMP JUMPDEST PUSH2 0x9BA PUSH2 0xED7 JUMP JUMPDEST PUSH2 0x9C5 DUP5 CALLER DUP5 PUSH2 0xEF3 JUMP JUMPDEST PUSH2 0x9D0 DUP5 DUP5 DUP5 PUSH2 0xF6C JUMP JUMPDEST POP PUSH1 0x1 PUSH2 0x9EA PUSH1 0x1 PUSH1 0x0 DUP1 MLOAD PUSH1 0x20 PUSH2 0x1829 DUP4 CODECOPY DUP2 MLOAD SWAP2 MSTORE SSTORE JUMP JUMPDEST SWAP4 SWAP3 POP POP POP JUMP JUMPDEST PUSH2 0x9FB CALLER DUP3 PUSH2 0x11BC JUMP JUMPDEST POP JUMP JUMPDEST PUSH2 0xA06 PUSH2 0xE9D JUMP JUMPDEST PUSH1 0x1 PUSH1 0x1 PUSH1 0xA0 SHL SUB DUP3 AND PUSH2 0xA4E JUMPI PUSH1 0x40 MLOAD PUSH3 0x461BCD PUSH1 0xE5 SHL DUP2 MSTORE PUSH1 0x20 PUSH1 0x4 DUP3 ADD MSTORE PUSH1 0xF PUSH1 0x24 DUP3 ADD MSTORE PUSH15 0x496E76616C69642061646472657373 PUSH1 0x88 SHL PUSH1 0x44 DUP3 ADD MSTORE PUSH1 0x64 ADD PUSH2 0x555 JUMP JUMPDEST PUSH1 0x1 PUSH1 0x1 PUSH1 0xA0 SHL SUB DUP3 AND PUSH1 0x0 DUP2 DUP2 MSTORE PUSH1 0xD PUSH1 0x20 SWAP1 DUP2 MSTORE PUSH1 0x40 SWAP2 DUP3 SWAP1 KECCAK256 DUP1 SLOAD PUSH1 0xFF NOT AND DUP6 ISZERO ISZERO SWAP1 DUP2 OR SWAP1 SWAP2 SSTORE SWAP2 MLOAD SWAP2 DUP3 MSTORE PUSH32 0xF93F9A76C1BF3444D22400A00CB9FE990E6ABE9DBB333FDA48859CFEE864543D SWAP2 ADD PUSH1 0x40 MLOAD DUP1 SWAP2 SUB SWAP1 LOG2 POP POP JUMP JUMPDEST PUSH2 0xAB5 PUSH2 0xE9D JUMP JUMPDEST PUSH2 0xABF PUSH1 0x0 PUSH2 0x11F2 JUMP JUMPDEST JUMP JUMPDEST PUSH1 0xC SLOAD PUSH1 0x0 SWAP1 PUSH1 0x1 PUSH1 0xA0 SHL SWAP1 DIV PUSH1 0xFF AND DUP1 PUSH2 0xAF4 JUMPI POP PUSH1 0x1 PUSH1 0x1 PUSH1 0xA0 SHL SUB DUP3 AND PUSH1 0x0 SWAP1 DUP2 MSTORE PUSH1 0xD PUSH1 0x20 MSTORE PUSH1 0x40 SWAP1 KECCAK256 SLOAD PUSH1 0xFF AND JUMPDEST DUP1 PUSH2 0x751 JUMPI POP POP PUSH1 0x5 SLOAD PUSH1 0x1 PUSH1 0x1 PUSH1 0xA0 SHL SUB SWAP2 DUP3 AND SWAP2 AND EQ SWAP1 JUMP JUMPDEST PUSH2 0xB1A DUP3 CALLER DUP4 PUSH2 0xEF3 JUMP JUMPDEST PUSH2 0x6A7 DUP3 DUP3 PUSH2 0x11BC JUMP JUMPDEST PUSH2 0xB2C PUSH2 0xE9D JUMP JUMPDEST PUSH1 0xC DUP1 SLOAD PUSH1 0xFF PUSH1 0xA0 SHL NOT AND PUSH1 0x1 PUSH1 0xA0 SHL OR SWAP1 SSTORE PUSH1 0x40 MLOAD PUSH32 0x799663458A5EF2936F7FA0C99B3336C69C25890F82974F04E811E5BB359186C7 SWAP1 PUSH1 0x0 SWAP1 LOG1 JUMP JUMPDEST PUSH1 0x60 PUSH1 0x4 DUP1 SLOAD PUSH2 0x6BA SWAP1 PUSH2 0x178C JUMP JUMPDEST PUSH2 0xB81 PUSH2 0xE9D JUMP JUMPDEST PUSH1 0x0 JUMPDEST DUP3 DUP2 LT ISZERO PUSH2 0xCC4 JUMPI PUSH1 0x0 DUP5 DUP5 DUP4 DUP2 DUP2 LT PUSH2 0xBA0 JUMPI PUSH2 0xBA0 PUSH2 0x17C6 JUMP JUMPDEST SWAP1 POP PUSH1 0x20 MUL ADD PUSH1 0x20 DUP2 ADD SWAP1 PUSH2 0xBB5 SWAP2 SWAP1 PUSH2 0x1672 JUMP JUMPDEST PUSH1 0x1 PUSH1 0x1 PUSH1 0xA0 SHL SUB AND SUB PUSH2 0xBFD JUMPI PUSH1 0x40 MLOAD PUSH3 0x461BCD PUSH1 0xE5 SHL DUP2 MSTORE PUSH1 0x20 PUSH1 0x4 DUP3 ADD MSTORE PUSH1 0xF PUSH1 0x24 DUP3 ADD MSTORE PUSH15 0x496E76616C69642061646472657373 PUSH1 0x88 SHL PUSH1 0x44 DUP3 ADD MSTORE PUSH1 0x64 ADD PUSH2 0x555 JUMP JUMPDEST DUP2 PUSH1 0xD PUSH1 0x0 DUP7 DUP7 DUP6 DUP2 DUP2 LT PUSH2 0xC14 JUMPI PUSH2 0xC14 PUSH2 0x17C6 JUMP JUMPDEST SWAP1 POP PUSH1 0x20 MUL ADD PUSH1 0x20 DUP2 ADD SWAP1 PUSH2 0xC29 SWAP2 SWAP1 PUSH2 0x1672 JUMP JUMPDEST PUSH1 0x1 PUSH1 0x1 PUSH1 0xA0 SHL SUB AND DUP2 MSTORE PUSH1 0x20 DUP2 ADD SWAP2 SWAP1 SWAP2 MSTORE PUSH1 0x40 ADD PUSH1 0x0 KECCAK256 DUP1 SLOAD PUSH1 0xFF NOT AND SWAP2 ISZERO ISZERO SWAP2 SWAP1 SWAP2 OR SWAP1 SSTORE DUP4 DUP4 DUP3 DUP2 DUP2 LT PUSH2 0xC63 JUMPI PUSH2 0xC63 PUSH2 0x17C6 JUMP JUMPDEST SWAP1 POP PUSH1 0x20 MUL ADD PUSH1 0x20 DUP2 ADD SWAP1 PUSH2 0xC78 SWAP2 SWAP1 PUSH2 0x1672 JUMP JUMPDEST PUSH1 0x1 PUSH1 0x1 PUSH1 0xA0 SHL SUB AND PUSH32 0xF93F9A76C1BF3444D22400A00CB9FE990E6ABE9DBB333FDA48859CFEE864543D DUP4 PUSH1 0x40 MLOAD PUSH2 0xCB4 SWAP2 ISZERO ISZERO DUP2 MSTORE PUSH1 0x20 ADD SWAP1 JUMP JUMPDEST PUSH1 0x40 MLOAD DUP1 SWAP2 SUB SWAP1 LOG2 PUSH1 0x1 ADD PUSH2 0xB84 JUMP JUMPDEST POP POP POP POP JUMP JUMPDEST PUSH1 0xC SLOAD PUSH1 0x0 SWAP1 PUSH1 0x1 PUSH1 0xA0 SHL SWAP1 DIV PUSH1 0xFF AND DUP1 PUSH2 0xCF4 JUMPI POP CALLER PUSH1 0x0 SWAP1 DUP2 MSTORE PUSH1 0xD PUSH1 0x20 MSTORE PUSH1 0x40 SWAP1 KECCAK256 SLOAD PUSH1 0xFF AND JUMPDEST DUP1 PUSH2 0xD0E JUMPI POP ORIGIN PUSH1 0x0 SWAP1 DUP2 MSTORE PUSH1 0xD PUSH1 0x20 MSTORE PUSH1 0x40 SWAP1 KECCAK256 SLOAD PUSH1 0xFF AND JUMPDEST PUSH2 0xD50 JUMPI PUSH1 0x40 MLOAD PUSH3 0x461BCD PUSH1 0xE5 SHL DUP2 MSTORE PUSH1 0x20 PUSH1 0x4 DUP3 ADD MSTORE PUSH1 0x13 PUSH1 0x24 DUP3 ADD MSTORE PUSH19 0x151C98591A5B99C81A5CC8191A5CD8589B1959 PUSH1 0x6A SHL PUSH1 0x44 DUP3 ADD MSTORE PUSH1 0x64 ADD PUSH2 0x555 JUMP JUMPDEST PUSH2 0xD58 PUSH2 0xED7 JUMP JUMPDEST PUSH2 0xD63 CALLER DUP5 DUP5 PUSH2 0xF6C JUMP JUMPDEST POP PUSH1 0x1 PUSH2 0x751 PUSH1 0x1 PUSH1 0x0 DUP1 MLOAD PUSH1 0x20 PUSH2 0x1829 DUP4 CODECOPY DUP2 MLOAD SWAP2 MSTORE SSTORE JUMP JUMPDEST PUSH1 0x0 PUSH1 0x9 SLOAD PUSH1 0x8 SLOAD PUSH1 0x7 SLOAD PUSH1 0x6 SLOAD PUSH2 0xD95 SWAP2 SWAP1 PUSH2 0x175C JUMP JUMPDEST PUSH2 0xD9F SWAP2 SWAP1 PUSH2 0x175C JUMP JUMPDEST PUSH2 0xDA9 SWAP2 SWAP1 PUSH2 0x175C JUMP JUMPDEST SWAP1 POP SWAP1 JUMP JUMPDEST PUSH1 0x0 DUP1 PUSH1 0x0 DUP1 PUSH1 0x0 DUP1 PUSH2 0x2710 PUSH1 0x6 SLOAD DUP9 PUSH2 0xDC8 SWAP2 SWAP1 PUSH2 0x17DC JUMP JUMPDEST PUSH2 0xDD2 SWAP2 SWAP1 PUSH2 0x17F3 JUMP JUMPDEST SWAP5 POP PUSH2 0x2710 PUSH1 0x7 SLOAD DUP9 PUSH2 0xDE5 SWAP2 SWAP1 PUSH2 0x17DC JUMP JUMPDEST PUSH2 0xDEF SWAP2 SWAP1 PUSH2 0x17F3 JUMP JUMPDEST SWAP4 POP PUSH2 0x2710 PUSH1 0x8 SLOAD DUP9 PUSH2 0xE02 SWAP2 SWAP1 PUSH2 0x17DC JUMP JUMPDEST PUSH2 0xE0C SWAP2 SWAP1 PUSH2 0x17F3 JUMP JUMPDEST SWAP3 POP PUSH2 0x2710 PUSH1 0x9 SLOAD DUP9 PUSH2 0xE1F SWAP2 SWAP1 PUSH2 0x17DC JUMP JUMPDEST PUSH2 0xE29 SWAP2 SWAP1 PUSH2 0x17F3 JUMP JUMPDEST SWAP2 POP DUP2 DUP4 PUSH2 0xE37 DUP7 DUP9 PUSH2 0x175C JUMP JUMPDEST PUSH2 0xE41 SWAP2 SWAP1 PUSH2 0x175C JUMP JUMPDEST PUSH2 0xE4B SWAP2 SWAP1 PUSH2 0x175C JUMP JUMPDEST SWAP6 POP PUSH2 0xE57 DUP7 DUP9 PUSH2 0x1815 JUMP JUMPDEST SWAP1 POP SWAP2 SWAP4 SWAP6 POP SWAP2 SWAP4 SWAP6 JUMP JUMPDEST PUSH2 0xE6A PUSH2 0xE9D JUMP JUMPDEST PUSH1 0x1 PUSH1 0x1 PUSH1 0xA0 SHL SUB DUP2 AND PUSH2 0xE94 JUMPI PUSH1 0x40 MLOAD PUSH4 0x1E4FBDF7 PUSH1 0xE0 SHL DUP2 MSTORE PUSH1 0x0 PUSH1 0x4 DUP3 ADD MSTORE PUSH1 0x24 ADD PUSH2 0x555 JUMP JUMPDEST PUSH2 0x9FB DUP2 PUSH2 0x11F2 JUMP JUMPDEST PUSH1 0x5 SLOAD PUSH1 0x1 PUSH1 0x1 PUSH1 0xA0 SHL SUB AND CALLER EQ PUSH2 0xABF JUMPI PUSH1 0x40 MLOAD PUSH4 0x118CDAA7 PUSH1 0xE0 SHL DUP2 MSTORE CALLER PUSH1 0x4 DUP3 ADD MSTORE PUSH1 0x24 ADD PUSH2 0x555 JUMP JUMPDEST PUSH2 0x610 DUP4 DUP4 DUP4 PUSH1 0x1 PUSH2 0x1244 JUMP JUMPDEST PUSH2 0xEDF PUSH2 0x1319 JUMP JUMPDEST PUSH1 0x2 PUSH1 0x0 DUP1 MLOAD PUSH1 0x20 PUSH2 0x1829 DUP4 CODECOPY DUP2 MLOAD SWAP2 MSTORE SSTORE JUMP JUMPDEST PUSH1 0x1 PUSH1 0x1 PUSH1 0xA0 SHL SUB DUP4 DUP2 AND PUSH1 0x0 SWAP1 DUP2 MSTORE PUSH1 0x1 PUSH1 0x20 SWAP1 DUP2 MSTORE PUSH1 0x40 DUP1 DUP4 KECCAK256 SWAP4 DUP7 AND DUP4 MSTORE SWAP3 SWAP1 MSTORE KECCAK256 SLOAD PUSH1 0x0 NOT DUP2 LT ISZERO PUSH2 0xCC4 JUMPI DUP2 DUP2 LT ISZERO PUSH2 0xF5D JUMPI PUSH1 0x40 MLOAD PUSH4 0x7DC7A0D9 PUSH1 0xE1 SHL DUP2 MSTORE PUSH1 0x1 PUSH1 0x1 PUSH1 0xA0 SHL SUB DUP5 AND PUSH1 0x4 DUP3 ADD MSTORE PUSH1 0x24 DUP2 ADD DUP3 SWAP1 MSTORE PUSH1 0x44 DUP2 ADD DUP4 SWAP1 MSTORE PUSH1 0x64 ADD PUSH2 0x555 JUMP JUMPDEST PUSH2 0xCC4 DUP5 DUP5 DUP5 DUP5 SUB PUSH1 0x0 PUSH2 0x1244 JUMP JUMPDEST PUSH1 0x1 PUSH1 0x1 PUSH1 0xA0 SHL SUB DUP4 AND PUSH1 0x0 SWAP1 DUP2 MSTORE PUSH1 0xD PUSH1 0x20 MSTORE PUSH1 0x40 DUP2 KECCAK256 SLOAD PUSH1 0xFF AND DUP1 PUSH2 0xFAB JUMPI POP PUSH1 0x1 PUSH1 0x1 PUSH1 0xA0 SHL SUB DUP4 AND PUSH1 0x0 SWAP1 DUP2 MSTORE PUSH1 0xD PUSH1 0x20 MSTORE PUSH1 0x40 SWAP1 KECCAK256 SLOAD PUSH1 0xFF AND JUMPDEST DUP1 PUSH2 0xFC3 JUMPI POP PUSH1 0x5 SLOAD PUSH1 0x1 PUSH1 0x1 PUSH1 0xA0 SHL SUB DUP6 DUP2 AND SWAP2 AND EQ JUMPDEST DUP1 PUSH2 0xFDB JUMPI POP PUSH1 0x5 SLOAD PUSH1 0x1 PUSH1 0x1 PUSH1 0xA0 SHL SUB DUP5 DUP2 AND SWAP2 AND EQ JUMPDEST DUP1 PUSH2 0xFEE JUMPI POP PUSH1 0x1 PUSH1 0x1 PUSH1 0xA0 SHL SUB DUP5 AND ADDRESS EQ JUMPDEST DUP1 PUSH2 0x1001 JUMPI POP PUSH1 0x1 PUSH1 0x1 PUSH1 0xA0 SHL SUB DUP4 AND ADDRESS EQ JUMPDEST SWAP1 POP DUP1 DUP1 PUSH2 0x100D JUMPI POP DUP2 ISZERO JUMPDEST ISZERO PUSH2 0x101D JUMPI PUSH2 0xCC4 DUP5 DUP5 DUP5 PUSH2 0x1349 JUMP JUMPDEST PUSH1 0x0 PUSH2 0x2710 PUSH1 0x6 SLOAD DUP5 PUSH2 0x1030 SWAP2 SWAP1 PUSH2 0x17DC JUMP JUMPDEST PUSH2 0x103A SWAP2 SWAP1 PUSH2 0x17F3 JUMP JUMPDEST SWAP1 POP PUSH1 0x0 PUSH2 0x2710 PUSH1 0x7 SLOAD DUP6 PUSH2 0x104F SWAP2 SWAP1 PUSH2 0x17DC JUMP JUMPDEST PUSH2 0x1059 SWAP2 SWAP1 PUSH2 0x17F3 JUMP JUMPDEST SWAP1 POP PUSH1 0x0 PUSH2 0x2710 PUSH1 0x8 SLOAD DUP7 PUSH2 0x106E SWAP2 SWAP1 PUSH2 0x17DC JUMP JUMPDEST PUSH2 0x1078 SWAP2 SWAP1 PUSH2 0x17F3 JUMP JUMPDEST SWAP1 POP PUSH1 0x0 PUSH2 0x2710 PUSH1 0x9 SLOAD DUP8 PUSH2 0x108D SWAP2 SWAP1 PUSH2 0x17DC JUMP JUMPDEST PUSH2 0x1097 SWAP2 SWAP1 PUSH2 0x17F3 JUMP JUMPDEST SWAP1 POP PUSH1 0x0 DUP2 DUP4 PUSH2 0x10A7 DUP7 DUP9 PUSH2 0x175C JUMP JUMPDEST PUSH2 0x10B1 SWAP2 SWAP1 PUSH2 0x175C JUMP JUMPDEST PUSH2 0x10BB SWAP2 SWAP1 PUSH2 0x175C JUMP JUMPDEST SWAP1 POP DUP1 ISZERO PUSH2 0x11A6 JUMPI DUP5 ISZERO PUSH2 0x10E1 JUMPI PUSH1 0xA SLOAD PUSH2 0x10E1 SWAP1 DUP11 SWAP1 PUSH1 0x1 PUSH1 0x1 PUSH1 0xA0 SHL SUB AND DUP8 PUSH2 0x1349 JUMP JUMPDEST DUP4 ISZERO PUSH2 0x10FF JUMPI PUSH1 0xB SLOAD PUSH2 0x10FF SWAP1 DUP11 SWAP1 PUSH1 0x1 PUSH1 0x1 PUSH1 0xA0 SHL SUB AND DUP7 PUSH2 0x1349 JUMP JUMPDEST DUP3 ISZERO PUSH2 0x111D JUMPI PUSH1 0xC SLOAD PUSH2 0x111D SWAP1 DUP11 SWAP1 PUSH1 0x1 PUSH1 0x1 PUSH1 0xA0 SHL SUB AND DUP6 PUSH2 0x1349 JUMP JUMPDEST DUP2 ISZERO PUSH2 0x112D JUMPI PUSH2 0x112D DUP10 DUP4 PUSH2 0x11BC JUMP JUMPDEST PUSH1 0x0 PUSH2 0x1139 DUP3 DUP10 PUSH2 0x1815 JUMP JUMPDEST SWAP1 POP PUSH2 0x1146 DUP11 DUP11 DUP4 PUSH2 0x1349 JUMP JUMPDEST PUSH1 0x40 DUP1 MLOAD DUP4 DUP2 MSTORE PUSH1 0x20 DUP2 ADD DUP9 SWAP1 MSTORE SWAP1 DUP2 ADD DUP7 SWAP1 MSTORE PUSH1 0x60 DUP2 ADD DUP6 SWAP1 MSTORE PUSH1 0x80 DUP2 ADD DUP5 SWAP1 MSTORE PUSH1 0x1 PUSH1 0x1 PUSH1 0xA0 SHL SUB DUP12 AND SWAP1 PUSH32 0x3DEE54A6BC4FFEC6CE5B398EB8B10107AA464100B26A976B6A80CAC7F7FEE938 SWAP1 PUSH1 0xA0 ADD PUSH1 0x40 MLOAD DUP1 SWAP2 SUB SWAP1 LOG2 POP PUSH2 0x11B1 JUMP JUMPDEST PUSH2 0x11B1 DUP10 DUP10 DUP10 PUSH2 0x1349 JUMP JUMPDEST POP POP POP POP POP POP POP POP POP JUMP JUMPDEST PUSH1 0x1 PUSH1 0x1 PUSH1 0xA0 SHL SUB DUP3 AND PUSH2 0x11E6 JUMPI PUSH1 0x40 MLOAD PUSH4 0x4B637E8F PUSH1 0xE1 SHL DUP2 MSTORE PUSH1 0x0 PUSH1 0x4 DUP3 ADD MSTORE PUSH1 0x24 ADD PUSH2 0x555 JUMP JUMPDEST PUSH2 0x6A7 DUP3 PUSH1 0x0 DUP4 PUSH2 0x13A4 JUMP JUMPDEST PUSH1 0x5 DUP1 SLOAD PUSH1 0x1 PUSH1 0x1 PUSH1 0xA0 SHL SUB DUP4 DUP2 AND PUSH1 0x1 PUSH1 0x1 PUSH1 0xA0 SHL SUB NOT DUP4 AND DUP2 OR SWAP1 SWAP4 SSTORE PUSH1 0x40 MLOAD SWAP2 AND SWAP2 SWAP1 DUP3 SWAP1 PUSH32 0x8BE0079C531659141344CD1FD0A4F28419497F9722A3DAAFE3B4186F6B6457E0 SWAP1 PUSH1 0x0 SWAP1 LOG3 POP POP JUMP JUMPDEST PUSH1 0x1 PUSH1 0x1 PUSH1 0xA0 SHL SUB DUP5 AND PUSH2 0x126E JUMPI PUSH1 0x40 MLOAD PUSH4 0xE602DF05 PUSH1 0xE0 SHL DUP2 MSTORE PUSH1 0x0 PUSH1 0x4 DUP3 ADD MSTORE PUSH1 0x24 ADD PUSH2 0x555 JUMP JUMPDEST PUSH1 0x1 PUSH1 0x1 PUSH1 0xA0 SHL SUB DUP4 AND PUSH2 0x1298 JUMPI PUSH1 0x40 MLOAD PUSH4 0x4A1406B1 PUSH1 0xE1 SHL DUP2 MSTORE PUSH1 0x0 PUSH1 0x4 DUP3 ADD MSTORE PUSH1 0x24 ADD PUSH2 0x555 JUMP JUMPDEST PUSH1 0x1 PUSH1 0x1 PUSH1 0xA0 SHL SUB DUP1 DUP6 AND PUSH1 0x0 SWAP1 DUP2 MSTORE PUSH1 0x1 PUSH1 0x20 SWAP1 DUP2 MSTORE PUSH1 0x40 DUP1 DUP4 KECCAK256 SWAP4 DUP8 AND DUP4 MSTORE SWAP3 SWAP1 MSTORE KECCAK256 DUP3 SWAP1 SSTORE DUP1 ISZERO PUSH2 0xCC4 JUMPI DUP3 PUSH1 0x1 PUSH1 0x1 PUSH1 0xA0 SHL SUB AND DUP5 PUSH1 0x1 PUSH1 0x1 PUSH1 0xA0 SHL SUB AND PUSH32 0x8C5BE1E5EBEC7D5BD14F71427D1E84F3DD0314C0F7B2291E5B200AC8C7C3B925 DUP5 PUSH1 0x40 MLOAD PUSH2 0x130B SWAP2 DUP2 MSTORE PUSH1 0x20 ADD SWAP1 JUMP JUMPDEST PUSH1 0x40 MLOAD DUP1 SWAP2 SUB SWAP1 LOG3 POP POP POP POP JUMP JUMPDEST PUSH1 0x0 DUP1 MLOAD PUSH1 0x20 PUSH2 0x1829 DUP4 CODECOPY DUP2 MLOAD SWAP2 MSTORE SLOAD PUSH1 0x2 SUB PUSH2 0xABF JUMPI PUSH1 0x40 MLOAD PUSH4 0x3EE5AEB5 PUSH1 0xE0 SHL DUP2 MSTORE PUSH1 0x4 ADD PUSH1 0x40 MLOAD DUP1 SWAP2 SUB SWAP1 REVERT JUMPDEST PUSH1 0x1 PUSH1 0x1 PUSH1 0xA0 SHL SUB DUP4 AND PUSH2 0x1373 JUMPI PUSH1 0x40 MLOAD PUSH4 0x4B637E8F PUSH1 0xE1 SHL DUP2 MSTORE PUSH1 0x0 PUSH1 0x4 DUP3 ADD MSTORE PUSH1 0x24 ADD PUSH2 0x555 JUMP JUMPDEST PUSH1 0x1 PUSH1 0x1 PUSH1 0xA0 SHL SUB DUP3 AND PUSH2 0x139D JUMPI PUSH1 0x40 MLOAD PUSH4 0xEC442F05 PUSH1 0xE0 SHL DUP2 MSTORE PUSH1 0x0 PUSH1 0x4 DUP3 ADD MSTORE PUSH1 0x24 ADD PUSH2 0x555 JUMP JUMPDEST PUSH2 0x610 DUP4 DUP4 DUP4 JUMPDEST PUSH1 0x1 PUSH1 0x1 PUSH1 0xA0 SHL SUB DUP4 AND PUSH2 0x13CF JUMPI DUP1 PUSH1 0x2 PUSH1 0x0 DUP3 DUP3 SLOAD PUSH2 0x13C4 SWAP2 SWAP1 PUSH2 0x175C JUMP JUMPDEST SWAP1 SWAP2 SSTORE POP PUSH2 0x1441 SWAP1 POP JUMP JUMPDEST PUSH1 0x1 PUSH1 0x1 PUSH1 0xA0 SHL SUB DUP4 AND PUSH1 0x0 SWAP1 DUP2 MSTORE PUSH1 0x20 DUP2 SWAP1 MSTORE PUSH1 0x40 SWAP1 KECCAK256 SLOAD DUP2 DUP2 LT ISZERO PUSH2 0x1422 JUMPI PUSH1 0x40 MLOAD PUSH4 0x391434E3 PUSH1 0xE2 SHL DUP2 MSTORE PUSH1 0x1 PUSH1 0x1 PUSH1 0xA0 SHL SUB DUP6 AND PUSH1 0x4 DUP3 ADD MSTORE PUSH1 0x24 DUP2 ADD DUP3 SWAP1 MSTORE PUSH1 0x44 DUP2 ADD DUP4 SWAP1 MSTORE PUSH1 0x64 ADD PUSH2 0x555 JUMP JUMPDEST PUSH1 0x1 PUSH1 0x1 PUSH1 0xA0 SHL SUB DUP5 AND PUSH1 0x0 SWAP1 DUP2 MSTORE PUSH1 0x20 DUP2 SWAP1 MSTORE PUSH1 0x40 SWAP1 KECCAK256 SWAP1 DUP3 SWAP1 SUB SWAP1 SSTORE JUMPDEST PUSH1 0x1 PUSH1 0x1 PUSH1 0xA0 SHL SUB DUP3 AND PUSH2 0x145D JUMPI PUSH1 0x2 DUP1 SLOAD DUP3 SWAP1 SUB SWAP1 SSTORE PUSH2 0x147C JUMP JUMPDEST PUSH1 0x1 PUSH1 0x1 PUSH1 0xA0 SHL SUB DUP3 AND PUSH1 0x0 SWAP1 DUP2 MSTORE PUSH1 0x20 DUP2 SWAP1 MSTORE PUSH1 0x40 SWAP1 KECCAK256 DUP1 SLOAD DUP3 ADD SWAP1 SSTORE JUMPDEST DUP2 PUSH1 0x1 PUSH1 0x1 PUSH1 0xA0 SHL SUB AND DUP4 PUSH1 0x1 PUSH1 0x1 PUSH1 0xA0 SHL SUB AND PUSH32 0xDDF252AD1BE2C89B69C2B068FC378DAA952BA7F163C4A11628F55A4DF523B3EF DUP4 PUSH1 0x40 MLOAD PUSH2 0x14C1 SWAP2 DUP2 MSTORE PUSH1 0x20 ADD SWAP1 JUMP JUMPDEST PUSH1 0x40 MLOAD DUP1 SWAP2 SUB SWAP1 LOG3 POP POP POP JUMP JUMPDEST PUSH1 0x0 DUP1 PUSH1 0x0 DUP1 PUSH1 0x80 DUP6 DUP8 SUB SLT ISZERO PUSH2 0x14E4 JUMPI PUSH1 0x0 DUP1 REVERT JUMPDEST POP POP DUP3 CALLDATALOAD SWAP5 PUSH1 0x20 DUP5 ADD CALLDATALOAD SWAP5 POP PUSH1 0x40 DUP5 ADD CALLDATALOAD SWAP4 PUSH1 0x60 ADD CALLDATALOAD SWAP3 POP SWAP1 POP JUMP JUMPDEST DUP1 CALLDATALOAD PUSH1 0x1 PUSH1 0x1 PUSH1 0xA0 SHL SUB DUP2 AND DUP2 EQ PUSH2 0x1517 JUMPI PUSH1 0x0 DUP1 REVERT JUMPDEST SWAP2 SWAP1 POP JUMP JUMPDEST PUSH1 0x0 DUP1 PUSH1 0x40 DUP4 DUP6 SUB SLT ISZERO PUSH2 0x152F JUMPI PUSH1 0x0 DUP1 REVERT JUMPDEST PUSH2 0x1538 DUP4 PUSH2 0x1500 JUMP JUMPDEST SWAP5 PUSH1 0x20 SWAP4 SWAP1 SWAP4 ADD CALLDATALOAD SWAP4 POP POP POP JUMP JUMPDEST PUSH1 0x0 PUSH1 0x20 DUP1 DUP4 MSTORE DUP4 MLOAD DUP1 PUSH1 0x20 DUP6 ADD MSTORE PUSH1 0x0 JUMPDEST DUP2 DUP2 LT ISZERO PUSH2 0x1574 JUMPI DUP6 DUP2 ADD DUP4 ADD MLOAD DUP6 DUP3 ADD PUSH1 0x40 ADD MSTORE DUP3 ADD PUSH2 0x1558 JUMP JUMPDEST POP PUSH1 0x0 PUSH1 0x40 DUP3 DUP7 ADD ADD MSTORE PUSH1 0x40 PUSH1 0x1F NOT PUSH1 0x1F DUP4 ADD AND DUP6 ADD ADD SWAP3 POP POP POP SWAP3 SWAP2 POP POP JUMP JUMPDEST PUSH1 0x0 DUP1 PUSH1 0x0 PUSH1 0x60 DUP5 DUP7 SUB SLT ISZERO PUSH2 0x15AA JUMPI PUSH1 0x0 DUP1 REVERT JUMPDEST PUSH2 0x15B3 DUP5 PUSH2 0x1500 JUMP JUMPDEST SWAP3 POP PUSH2 0x15C1 PUSH1 0x20 DUP6 ADD PUSH2 0x1500 JUMP JUMPDEST SWAP2 POP PUSH2 0x15CF PUSH1 0x40 DUP6 ADD PUSH2 0x1500 JUMP JUMPDEST SWAP1 POP SWAP3 POP SWAP3 POP SWAP3 JUMP JUMPDEST PUSH1 0x0 DUP1 PUSH1 0x0 PUSH1 0x60 DUP5 DUP7 SUB SLT ISZERO PUSH2 0x15ED JUMPI PUSH1 0x0 DUP1 REVERT JUMPDEST PUSH2 0x15F6 DUP5 PUSH2 0x1500 JUMP JUMPDEST SWAP3 POP PUSH2 0x1604 PUSH1 0x20 DUP6 ADD PUSH2 0x1500 JUMP JUMPDEST SWAP2 POP PUSH1 0x40 DUP5 ADD CALLDATALOAD SWAP1 POP SWAP3 POP SWAP3 POP SWAP3 JUMP JUMPDEST PUSH1 0x0 PUSH1 0x20 DUP3 DUP5 SUB SLT ISZERO PUSH2 0x1626 JUMPI PUSH1 0x0 DUP1 REVERT JUMPDEST POP CALLDATALOAD SWAP2 SWAP1 POP JUMP JUMPDEST DUP1 ISZERO ISZERO DUP2 EQ PUSH2 0x9FB JUMPI PUSH1 0x0 DUP1 REVERT JUMPDEST PUSH1 0x0 DUP1 PUSH1 0x40 DUP4 DUP6 SUB SLT ISZERO PUSH2 0x164E JUMPI PUSH1 0x0 DUP1 REVERT JUMPDEST PUSH2 0x1657 DUP4 PUSH2 0x1500 JUMP JUMPDEST SWAP2 POP PUSH1 0x20 DUP4 ADD CALLDATALOAD PUSH2 0x1667 DUP2 PUSH2 0x162D JUMP JUMPDEST DUP1 SWAP2 POP POP SWAP3 POP SWAP3 SWAP1 POP JUMP JUMPDEST PUSH1 0x0 PUSH1 0x20 DUP3 DUP5 SUB SLT ISZERO PUSH2 0x1684 JUMPI PUSH1 0x0 DUP1 REVERT JUMPDEST PUSH2 0x9EA DUP3 PUSH2 0x1500 JUMP JUMPDEST PUSH1 0x0 DUP1 PUSH1 0x0 PUSH1 0x40 DUP5 DUP7 SUB SLT ISZERO PUSH2 0x16A2 JUMPI PUSH1 0x0 DUP1 REVERT JUMPDEST DUP4 CALLDATALOAD PUSH8 0xFFFFFFFFFFFFFFFF DUP1 DUP3 GT ISZERO PUSH2 0x16BA JUMPI PUSH1 0x0 DUP1 REVERT JUMPDEST DUP2 DUP7 ADD SWAP2 POP DUP7 PUSH1 0x1F DUP4 ADD SLT PUSH2 0x16CE JUMPI PUSH1 0x0 DUP1 REVERT JUMPDEST DUP2 CALLDATALOAD DUP2 DUP2 GT ISZERO PUSH2 0x16DD JUMPI PUSH1 0x0 DUP1 REVERT JUMPDEST DUP8 PUSH1 0x20 DUP3 PUSH1 0x5 SHL DUP6 ADD ADD GT ISZERO PUSH2 0x16F2 JUMPI PUSH1 0x0 DUP1 REVERT JUMPDEST PUSH1 0x20 SWAP3 DUP4 ADD SWAP6 POP SWAP4 POP POP DUP5 ADD CALLDATALOAD PUSH2 0x1708 DUP2 PUSH2 0x162D JUMP JUMPDEST DUP1 SWAP2 POP POP SWAP3 POP SWAP3 POP SWAP3 JUMP JUMPDEST PUSH1 0x0 DUP1 PUSH1 0x40 DUP4 DUP6 SUB SLT ISZERO PUSH2 0x1726 JUMPI PUSH1 0x0 DUP1 REVERT JUMPDEST PUSH2 0x172F DUP4 PUSH2 0x1500 JUMP JUMPDEST SWAP2 POP PUSH2 0x173D PUSH1 0x20 DUP5 ADD PUSH2 0x1500 JUMP JUMPDEST SWAP1 POP SWAP3 POP SWAP3 SWAP1 POP JUMP JUMPDEST PUSH4 0x4E487B71 PUSH1 0xE0 SHL PUSH1 0x0 MSTORE PUSH1 0x11 PUSH1 0x4 MSTORE PUSH1 0x24 PUSH1 0x0 REVERT JUMPDEST DUP1 DUP3 ADD DUP1 DUP3 GT ISZERO PUSH2 0x751 JUMPI PUSH2 0x751 PUSH2 0x1746 JUMP JUMPDEST PUSH1 0x0 PUSH1 0x20 DUP3 DUP5 SUB SLT ISZERO PUSH2 0x1781 JUMPI PUSH1 0x0 DUP1 REVERT JUMPDEST DUP2 MLOAD PUSH2 0x9EA DUP2 PUSH2 0x162D JUMP JUMPDEST PUSH1 0x1 DUP2 DUP2 SHR SWAP1 DUP3 AND DUP1 PUSH2 0x17A0 JUMPI PUSH1 0x7F DUP3 AND SWAP2 POP JUMPDEST PUSH1 0x20 DUP3 LT DUP2 SUB PUSH2 0x17C0 JUMPI PUSH4 0x4E487B71 PUSH1 0xE0 SHL PUSH1 0x0 MSTORE PUSH1 0x22 PUSH1 0x4 MSTORE PUSH1 0x24 PUSH1 0x0 REVERT JUMPDEST POP SWAP2 SWAP1 POP JUMP JUMPDEST PUSH4 0x4E487B71 PUSH1 0xE0 SHL PUSH1 0x0 MSTORE PUSH1 0x32 PUSH1 0x4 MSTORE PUSH1 0x24 PUSH1 0x0 REVERT JUMPDEST DUP1 DUP3 MUL DUP2 ISZERO DUP3 DUP3 DIV DUP5 EQ OR PUSH2 0x751 JUMPI PUSH2 0x751 PUSH2 0x1746 JUMP JUMPDEST PUSH1 0x0 DUP3 PUSH2 0x1810 JUMPI PUSH4 0x4E487B71 PUSH1 0xE0 SHL PUSH1 0x0 MSTORE PUSH1 0x12 PUSH1 0x4 MSTORE PUSH1 0x24 PUSH1 0x0 REVERT JUMPDEST POP DIV SWAP1 JUMP JUMPDEST DUP2 DUP2 SUB DUP2 DUP2 GT ISZERO PUSH2 0x751 JUMPI PUSH2 0x751 PUSH2 0x1746 JUMP INVALID SWAP12 PUSH24 0x9B17422D0DF92223018B32B4D1FA46E071723D6817E2486D STOP EXTCODESIZE 0xEC 0xC5 PUSH0 STOP LOG2 PUSH5 0x6970667358 0x22 SLT KECCAK256 0xC8 0xE5 DUP12 DUP13 PUSH24 0xFFEEBC099E1C569AAC1B6DA5C28606166DE34560645641CA MSIZE SWAP11 0xDB PUSH5 0x736F6C6343 STOP ADDMOD XOR STOP CALLER "},"methodIdentifiers":{"BURN_ADDRESS()":"fccc2813","MAX_TOTAL_TAX_RATE()":"aba3f87d","allowance(address,address)":"dd62ed3e","approve(address,uint256)":"095ea7b3","balanceOf(address)":"70a08231","burn(uint256)":"42966c68","burnFrom(address,uint256)":"79cc6790","burnRate()":"bed99850","canTransfer(address)":"78fc3cb3","decimals()":"313ce567","disableTrading()":"17700f01","enableTrading()":"8a8c523c","getTaxBreakdown(uint256)":"f049c4d6","marketMakerRate()":"bf040de1","marketMakerWallet()":"7acfe0ec","name()":"06fdde03","nodeDividendRate()":"fbf8aadc","nodeDividendWallet()":"b47e5bda","operationsRate()":"e381ddf8","operationsWallet()":"fd72e22a","owner()":"8da5cb5b","recoverTokens(address,uint256)":"069c9fae","renounceOwnership()":"715018a6","setTaxRates(uint256,uint256,uint256,uint256)":"00d2eef2","setWhitelist(address,bool)":"53d6fd59","setWhitelistBatch(address[],bool)":"a58da0be","symbol()":"95d89b41","totalSupply()":"18160ddd","totalTaxRate()":"ae1a3740","tradingEnabled()":"4ada218b","transfer(address,uint256)":"a9059cbb","transferFrom(address,address,uint256)":"23b872dd","transferOwnership(address)":"f2fde38b","updateWallets(address,address,address)":"147c9f6d","whitelist(address)":"9b19251a"}}}}}