{"src/NodePartner.sol":{"NodePartner":{"abi":[{"inputs":[{"internalType":"address","name":"_tft","type":"address"},{"internalType":"address","name":"_usdt","type":"address"}],"stateMutability":"nonpayable","type":"constructor"},{"inputs":[{"internalType":"address","name":"owner","type":"address"}],"name":"OwnableInvalidOwner","type":"error"},{"inputs":[{"internalType":"address","name":"account","type":"address"}],"name":"OwnableUnauthorizedAccount","type":"error"},{"inputs":[],"name":"ReentrancyGuardReentrantCall","type":"error"},{"inputs":[{"internalType":"address","name":"token","type":"address"}],"name":"SafeERC20FailedOperation","type":"error"},{"anonymous":false,"inputs":[{"indexed":true,"internalType":"address","name":"user","type":"address"},{"indexed":false,"internalType":"uint256","name":"amount","type":"uint256"}],"name":"DividendClaimed","type":"event"},{"anonymous":false,"inputs":[{"indexed":true,"internalType":"address","name":"user","type":"address"},{"indexed":false,"internalType":"uint256","name":"amount","type":"uint256"}],"name":"DividendDistributed","type":"event"},{"anonymous":false,"inputs":[{"indexed":true,"internalType":"address","name":"user","type":"address"},{"indexed":false,"internalType":"uint256","name":"tftAmount","type":"uint256"},{"indexed":false,"internalType":"uint256","name":"usdtAmount","type":"uint256"}],"name":"LPAdded","type":"event"},{"anonymous":false,"inputs":[{"indexed":true,"internalType":"address","name":"user","type":"address"},{"indexed":false,"internalType":"uint256","name":"lpAmount","type":"uint256"},{"indexed":false,"internalType":"uint256","name":"tftAmount","type":"uint256"},{"indexed":false,"internalType":"uint256","name":"usdtAmount","type":"uint256"}],"name":"LPWithdrawn","type":"event"},{"anonymous":false,"inputs":[{"indexed":false,"internalType":"uint256","name":"newMax","type":"uint256"}],"name":"MaxNodesUpdated","type":"event"},{"anonymous":false,"inputs":[{"indexed":true,"internalType":"address","name":"user","type":"address"},{"indexed":false,"internalType":"uint256","name":"nodeType","type":"uint256"},{"indexed":false,"internalType":"uint256","name":"timestamp","type":"uint256"}],"name":"NodeCreated","type":"event"},{"anonymous":false,"inputs":[{"indexed":true,"internalType":"address","name":"previousOwner","type":"address"},{"indexed":true,"internalType":"address","name":"newOwner","type":"address"}],"name":"OwnershipTransferred","type":"event"},{"inputs":[],"name":"BURN_ADDRESS","outputs":[{"internalType":"address","name":"","type":"address"}],"stateMutability":"view","type":"function"},{"inputs":[],"name":"BURN_COST","outputs":[{"internalType":"uint256","name":"","type":"uint256"}],"stateMutability":"view","type":"function"},{"inputs":[],"name":"LP_COST","outputs":[{"internalType":"uint256","name":"","type":"uint256"}],"stateMutability":"view","type":"function"},{"inputs":[],"name":"PERIOD_DURATION","outputs":[{"internalType":"uint256","name":"","type":"uint256"}],"stateMutability":"view","type":"function"},{"inputs":[],"name":"TOTAL_PERIODS","outputs":[{"internalType":"uint256","name":"","type":"uint256"}],"stateMutability":"view","type":"function"},{"inputs":[],"name":"UNLOCK_PER_PERIOD","outputs":[{"internalType":"uint256","name":"","type":"uint256"}],"stateMutability":"view","type":"function"},{"inputs":[],"name":"activeNodes","outputs":[{"internalType":"uint256","name":"","type":"uint256"}],"stateMutability":"view","type":"function"},{"inputs":[],"name":"claimDividends","outputs":[],"stateMutability":"nonpayable","type":"function"},{"inputs":[],"name":"createNodeByBurn","outputs":[],"stateMutability":"nonpayable","type":"function"},{"inputs":[{"internalType":"uint256","name":"_tftAmount","type":"uint256"},{"internalType":"uint256","name":"_usdtAmount","type":"uint256"}],"name":"createNodeByLP","outputs":[],"stateMutability":"nonpayable","type":"function"},{"inputs":[],"name":"distributeDividends","outputs":[],"stateMutability":"nonpayable","type":"function"},{"inputs":[{"internalType":"address","name":"_user","type":"address"}],"name":"getPendingDividends","outputs":[{"internalType":"uint256","name":"","type":"uint256"}],"stateMutability":"view","type":"function"},{"inputs":[{"internalType":"address","name":"_user","type":"address"}],"name":"getUserNodes","outputs":[{"internalType":"uint256","name":"nodeCount","type":"uint256"},{"internalType":"uint256","name":"burnNodes","type":"uint256"},{"internalType":"uint256","name":"lpNodes","type":"uint256"},{"internalType":"uint256","name":"lockedLP","type":"uint256"},{"internalType":"uint256","name":"unlockedLP","type":"uint256"},{"internalType":"uint256","name":"currentPeriod","type":"uint256"}],"stateMutability":"view","type":"function"},{"inputs":[],"name":"maxNodes","outputs":[{"internalType":"uint256","name":"","type":"uint256"}],"stateMutability":"view","type":"function"},{"inputs":[],"name":"owner","outputs":[{"internalType":"address","name":"","type":"address"}],"stateMutability":"view","type":"function"},{"inputs":[{"internalType":"address","name":"token","type":"address"},{"internalType":"uint256","name":"amount","type":"uint256"}],"name":"recoverTokens","outputs":[],"stateMutability":"nonpayable","type":"function"},{"inputs":[],"name":"renounceOwnership","outputs":[],"stateMutability":"nonpayable","type":"function"},{"inputs":[{"internalType":"uint256","name":"_max","type":"uint256"}],"name":"setMaxNodes","outputs":[],"stateMutability":"nonpayable","type":"function"},{"inputs":[],"name":"tft","outputs":[{"internalType":"contract IERC20","name":"","type":"address"}],"stateMutability":"view","type":"function"},{"inputs":[],"name":"totalDividendsDistributed","outputs":[{"internalType":"uint256","name":"","type":"uint256"}],"stateMutability":"view","type":"function"},{"inputs":[{"internalType":"address","name":"newOwner","type":"address"}],"name":"transferOwnership","outputs":[],"stateMutability":"nonpayable","type":"function"},{"inputs":[],"name":"usdt","outputs":[{"internalType":"contract IERC20","name":"","type":"address"}],"stateMutability":"view","type":"function"},{"inputs":[{"internalType":"address","name":"","type":"address"}],"name":"userClaimedDividends","outputs":[{"internalType":"uint256","name":"","type":"uint256"}],"stateMutability":"view","type":"function"},{"inputs":[{"internalType":"address","name":"","type":"address"}],"name":"userDividends","outputs":[{"internalType":"uint256","name":"","type":"uint256"}],"stateMutability":"view","type":"function"},{"inputs":[{"internalType":"address","name":"","type":"address"}],"name":"userLPLockup","outputs":[{"internalType":"uint256","name":"totalLP","type":"uint256"},{"internalType":"uint256","name":"unlockedLP","type":"uint256"},{"internalType":"uint256","name":"currentPeriod","type":"uint256"},{"internalType":"uint256","name":"lastUnlockTime","type":"uint256"},{"internalType":"bool","name":"active","type":"bool"}],"stateMutability":"view","type":"function"},{"inputs":[{"internalType":"address","name":"","type":"address"}],"name":"userNodeCount","outputs":[{"internalType":"uint256","name":"","type":"uint256"}],"stateMutability":"view","type":"function"},{"inputs":[{"internalType":"address","name":"","type":"address"},{"internalType":"uint256","name":"","type":"uint256"}],"name":"userNodes","outputs":[{"internalType":"address","name":"owner","type":"address"},{"internalType":"uint256","name":"nodeType","type":"uint256"},{"internalType":"uint256","name":"createdAt","type":"uint256"},{"internalType":"bool","name":"active","type":"bool"}],"stateMutability":"view","type":"function"},{"inputs":[],"name":"withdrawLP","outputs":[],"stateMutability":"nonpayable","type":"function"}],"evm":{"bytecode":{"linkReferences":{},"object":"60c060405260646001553480156200001657600080fd5b50604051620018d5380380620018d58339810160408190526200003991620001a3565b33806200006157604051631e4fbdf760e01b8152600060048201526024015b60405180910390fd5b6200006c8162000136565b5060017f9b779b17422d0df92223018b32b4d1fa46e071723d6817e2486d003becc55f00556001600160a01b038216620000d75760405162461bcd60e51b815260206004820152600b60248201526a125b9d985b1a590815119560aa1b604482015260640162000058565b6001600160a01b0381166200011e5760405162461bcd60e51b815260206004820152600c60248201526b125b9d985b1a59081554d11560a21b604482015260640162000058565b6001600160a01b039182166080521660a052620001db565b600080546001600160a01b038381166001600160a01b0319831681178455604051919092169283917f8be0079c531659141344cd1fd0a4f28419497f9722a3daafe3b4186f6b6457e09190a35050565b80516001600160a01b03811681146200019e57600080fd5b919050565b60008060408385031215620001b757600080fd5b620001c28362000186565b9150620001d26020840162000186565b90509250929050565b60805160a0516116956200024060003960008181610324015281816104ad01528181610b4701528181610d2401528181610df4015261100301526000818161039d015281816108770152818161093801528181610dba0152610fce01526116956000f3fe608060405234801561001057600080fd5b50600436106101c45760003560e01c80635848b970116100f9578063909b2da111610097578063bb8cf25b11610071578063bb8cf25b1461044d578063ddf0185f14610460578063f2fde38b14610469578063fccc28131461047c57600080fd5b8063909b2da1146103f3578063a1a64a1e14610432578063a44c83941461043a57600080fd5b8063668038e0116100d3578063668038e0146103c9578063715018a6146103d157806385a6b3ae146103d95780638da5cb5b146103e257600080fd5b80635848b970146103905780635fbd83f4146103985780636558954f146103bf57600080fd5b80632469fd42116101665780633406584e116101405780633406584e1461035e5780634e4cdd30146103665780634e5510e5146103775780635322e1a21461038857600080fd5b80632469fd42146102a25780632c3dcbc71461030c5780632f48ab7d1461031f57600080fd5b80630aa617e6116101a25780630aa617e6146102025780631265f652146102225780632130fe2314610242578063215f9baa1461028257600080fd5b806303c83302146101c9578063069c9fae146101d357806307f19651146101e6575b600080fd5b6101d1610485565b005b6101d16101e13660046114d9565b610623565b6101ef60025481565b6040519081526020015b60405180910390f35b6101ef610210366004611503565b60086020526000908152604090205481565b6101ef610230366004611503565b60076020526000908152604090205481565b610255610250366004611503565b61070e565b604080519687526020870195909552938501929092526060840152608083015260a082015260c0016101f9565b6101ef610290366004611503565b60036020526000908152604090205481565b6102e26102b0366004611503565b600560205260009081526040902080546001820154600283015460038401546004909401549293919290919060ff1685565b6040805195865260208601949094529284019190915260608301521515608082015260a0016101f9565b6101ef61031a366004611503565b6107f6565b6103467f000000000000000000000000000000000000000000000000000000000000000081565b6040516001600160a01b0390911681526020016101f9565b6101d1610807565b6101ef690a968163f0a57b40000081565b6101ef69152d02c7e14af680000081565b6101ef603281565b6101ef60c881565b6103467f000000000000000000000000000000000000000000000000000000000000000081565b6101ef62278d0081565b6101d1610a72565b6101d1610ba0565b6101ef60065481565b6000546001600160a01b0316610346565b6104066104013660046114d9565b610bb2565b604080516001600160a01b039095168552602085019390935291830152151560608201526080016101f9565b6101d1610c05565b6101d1610448366004611525565b610e92565b6101d161045b36600461153e565b610ed5565b6101ef60015481565b6101d1610477366004611503565b6111cf565b61034661dead81565b61048d61120d565b61049561123a565b6040516370a0823160e01b81523060048201526000907f00000000000000000000000000000000000000000000000000000000000000006001600160a01b0316906370a0823190602401602060405180830381865afa1580156104fc573d6000803e3d6000fd5b505050506040513d601f19601f820116820180604052508101906105209190611560565b9050600081116105775760405162461bcd60e51b815260206004820152601a60248201527f4e6f206469766964656e647320746f206469737472696275746500000000000060448201526064015b60405180910390fd5b6000600254116105bb5760405162461bcd60e51b815260206004820152600f60248201526e4e6f20616374697665206e6f64657360881b604482015260640161056e565b80600660008282546105cd919061158f565b90915550506040518181526000907f84fcdd4a7f507f2206dd50958e7473061bf941f91791c6ffaf74033a07c82f12906020015b60405180910390a250610621600160008051602061164083398151915255565b565b61062b61120d565b6001600160a01b03821661067857600080546040516001600160a01b03909116914780156108fc02929091818181858888f19350505050158015610673573d6000803e3d6000fd5b505050565b816001600160a01b031663a9059cbb6106996000546001600160a01b031690565b6040516001600160e01b031960e084901b1681526001600160a01b039091166004820152602481018490526044016020604051808303816000875af11580156106e6573d6000803e3d6000fd5b505050506040513d601f19601f8201168201806040525081019061067391906115a2565b5050565b6001600160a01b038116600090815260036020908152604080832054600590925282206001810154815492939283928392839283929161074d916115c4565b9350806001015492508060020154915060005b6001600160a01b0389166000908152600460205260409020548110156107eb576001600160a01b03891660009081526004602052604090208054829081106107aa576107aa6115d7565b9060005260206000209060040201600101546001036107d557866107cd816115ed565b9750506107e3565b856107df816115ed565b9650505b600101610760565b505091939550919395565b600061080182611256565b92915050565b61080f61123a565b600154600254106108565760405162461bcd60e51b815260206004820152601160248201527013585e081b9bd9195cc81c995858da1959607a1b604482015260640161056e565b6040516370a0823160e01b815233600482015269152d02c7e14af6800000907f00000000000000000000000000000000000000000000000000000000000000006001600160a01b0316906370a0823190602401602060405180830381865afa1580156108c6573d6000803e3d6000fd5b505050506040513d601f19601f820116820180604052508101906108ea9190611560565b101561092b5760405162461bcd60e51b815260206004820152601060248201526f125b9cdd59999a58da595b9d0815119560821b604482015260640161056e565b61096c6001600160a01b037f0000000000000000000000000000000000000000000000000000000000000000163361dead69152d02c7e14af68000006112f4565b33600081815260046020818152604080842081516080810183528681526001818501818152428386019081526060840183815285548085018755958a52878a2094519590980290930180546001600160a01b0319166001600160a01b03909516949094178455519083015551600282015592516003938401805460ff191691151591909117905593835252908120805491610a06836115ed565b909155505060028054906000610a1b836115ed565b9091555050604080516001815242602082015233917fed6196b8b5e9e7c4eb1f8dbf29ae12164c5b92535db3d0f77254960309f8bec2910160405180910390a2610621600160008051602061164083398151915255565b610a7a61123a565b33600090815260036020526040902054610ac15760405162461bcd60e51b81526020600482015260086024820152674e6f206e6f64657360c01b604482015260640161056e565b6000610acc33611256565b905060008111610b155760405162461bcd60e51b81526020600482015260146024820152734e6f2070656e64696e67206469766964656e647360601b604482015260640161056e565b3360009081526008602052604081208054839290610b3490849061158f565b90915550610b6e90506001600160a01b037f0000000000000000000000000000000000000000000000000000000000000000163383611330565b60405181815233907f5efa67896a23b651b741b525caacba039c00ca7853be3de8eb1f4269e8669c5690602001610601565b610ba861120d565b6106216000611365565b60046020528160005260406000208181548110610bce57600080fd5b600091825260209091206004909102018054600182015460028301546003909301546001600160a01b039092169450925060ff1684565b610c0d61123a565b336000908152600560205260409020600481015460ff16610c635760405162461bcd60e51b815260206004820152601060248201526f04e6f20616374697665206c6f636b75760841b604482015260640161056e565b600062278d00826003015442610c7991906115c4565b610c839190611606565b90508015610e79576000818360020154610c9d919061158f565b90506032811115610cac575060325b600061271060c8838660000154610cc39190611628565b610ccd9190611628565b610cd79190611606565b90506000846001015482610ceb91906115c4565b90508015610e7557600185018290556002850183905542600386015584546040516370a0823160e01b81523060048201526000919083907f00000000000000000000000000000000000000000000000000000000000000006001600160a01b0316906370a0823190602401602060405180830381865afa158015610d73573d6000803e3d6000fd5b505050506040513d601f19601f82011682018060405250810190610d979190611560565b610da19190611628565b610dab9190611606565b9050610de16001600160a01b037f0000000000000000000000000000000000000000000000000000000000000000163384611330565b8015610e1b57610e1b6001600160a01b037f0000000000000000000000000000000000000000000000000000000000000000163383611330565b604080518381526020810184905290810182905233907f976a45c1d615a430f80af25890a59aebdbb85305e0c9e38e59e1d86261822aac9060600160405180910390a260328410610e735760048601805460ff191690555b505b5050505b5050610621600160008051602061164083398151915255565b610e9a61120d565b60018190556040518181527fb0e169ca184ef8208065f7c0bd968a40b0fc3565034e6a052d3698840f5965009060200160405180910390a150565b610edd61123a565b60015460025410610f245760405162461bcd60e51b815260206004820152601160248201527013585e081b9bd9195cc81c995858da1959607a1b604482015260640161056e565b690a968163f0a57b400000821015610f715760405162461bcd60e51b815260206004820152601060248201526f125b9cdd59999a58da595b9d0815119560821b604482015260640161056e565b60008111610fc15760405162461bcd60e51b815260206004820152601760248201527f5553445420616d6f756e74206d757374206265203e2030000000000000000000604482015260640161056e565b610ff66001600160a01b037f0000000000000000000000000000000000000000000000000000000000000000163330856112f4565b61102b6001600160a01b037f0000000000000000000000000000000000000000000000000000000000000000163330846112f4565b3360008181526004602081815260408084208151608080820184528782526002828601818152428487018181526001606080880182815289548084018b55998e528b8e209851998d0290980180546001600160a01b0319166001600160a01b03909a1699909917895593518882015590518785015594516003968701805460ff19908116921515929092179055875160a0810189528e8152808a018c8152818a018d81529482019384529581018781529c8c5260058a52888c2090518155945195850195909555905191830191909155518184015596519690940180549094169515159590951790925592909252908120805491611128836115ed565b90915550506002805490600061113d836115ed565b9091555050604080516002815242602082015233917fed6196b8b5e9e7c4eb1f8dbf29ae12164c5b92535db3d0f77254960309f8bec2910160405180910390a2604080518381526020810183905233917f7015130af49d5302a94a3e897b7db735211411b202eeb5f46e6ac2ffd4d08d69910160405180910390a261070a600160008051602061164083398151915255565b6111d761120d565b6001600160a01b03811661120157604051631e4fbdf760e01b81526000600482015260240161056e565b61120a81611365565b50565b6000546001600160a01b031633146106215760405163118cdaa760e01b815233600482015260240161056e565b6112426113b5565b600260008051602061164083398151915255565b600060025460000361126a57506000919050565b6006546002546001600160a01b0384166000908152600360205260408120549091906112969084611628565b6112a09190611606565b6001600160a01b03851660009081526008602052604090205490915081116112c95760006112ec565b6001600160a01b0384166000908152600860205260409020546112ec90826115c4565b949350505050565b6113028484848460016113e5565b61132a57604051635274afe760e01b81526001600160a01b038516600482015260240161056e565b50505050565b61133d8383836001611457565b61067357604051635274afe760e01b81526001600160a01b038416600482015260240161056e565b600080546001600160a01b038381166001600160a01b0319831681178455604051919092169283917f8be0079c531659141344cd1fd0a4f28419497f9722a3daafe3b4186f6b6457e09190a35050565b6000805160206116408339815191525460020361062157604051633ee5aeb560e01b815260040160405180910390fd5b6040516323b872dd60e01b60008181526001600160a01b038781166004528616602452604485905291602083606481808c5af192506001600051148316611445578383151615611438573d6000823e3d81fd5b6000883b113d1516831692505b60405250600060605295945050505050565b60405163a9059cbb60e01b60008181526001600160a01b038616600452602485905291602083604481808b5af1925060016000511483166114b15783831516156114a4573d6000823e3d81fd5b6000873b113d1516831692505b60405250949350505050565b80356001600160a01b03811681146114d457600080fd5b919050565b600080604083850312156114ec57600080fd5b6114f5836114bd565b946020939093013593505050565b60006020828403121561151557600080fd5b61151e826114bd565b9392505050565b60006020828403121561153757600080fd5b5035919050565b6000806040838503121561155157600080fd5b50508035926020909101359150565b60006020828403121561157257600080fd5b5051919050565b634e487b7160e01b600052601160045260246000fd5b8082018082111561080157610801611579565b6000602082840312156115b457600080fd5b8151801515811461151e57600080fd5b8181038181111561080157610801611579565b634e487b7160e01b600052603260045260246000fd5b6000600182016115ff576115ff611579565b5060010190565b60008261162357634e487b7160e01b600052601260045260246000fd5b500490565b80820281158282048414176108015761080161157956fe9b779b17422d0df92223018b32b4d1fa46e071723d6817e2486d003becc55f00a264697066735822122066ffc785ee67d417685f249076a5e70b5541bfa88e32206521b9a1fbea378ef764736f6c63430008180033","opcodes":"PUSH1 0xC0 PUSH1 0x40 MSTORE PUSH1 0x64 PUSH1 0x1 SSTORE CALLVALUE DUP1 ISZERO PUSH3 0x16 JUMPI PUSH1 0x0 DUP1 REVERT JUMPDEST POP PUSH1 0x40 MLOAD PUSH3 0x18D5 CODESIZE SUB DUP1 PUSH3 0x18D5 DUP4 CODECOPY DUP2 ADD PUSH1 0x40 DUP2 SWAP1 MSTORE PUSH3 0x39 SWAP2 PUSH3 0x1A3 JUMP JUMPDEST CALLER DUP1 PUSH3 0x61 JUMPI PUSH1 0x40 MLOAD PUSH4 0x1E4FBDF7 PUSH1 0xE0 SHL DUP2 MSTORE PUSH1 0x0 PUSH1 0x4 DUP3 ADD MSTORE PUSH1 0x24 ADD JUMPDEST PUSH1 0x40 MLOAD DUP1 SWAP2 SUB SWAP1 REVERT JUMPDEST PUSH3 0x6C DUP2 PUSH3 0x136 JUMP JUMPDEST POP PUSH1 0x1 PUSH32 0x9B779B17422D0DF92223018B32B4D1FA46E071723D6817E2486D003BECC55F00 SSTORE PUSH1 0x1 PUSH1 0x1 PUSH1 0xA0 SHL SUB DUP3 AND PUSH3 0xD7 JUMPI PUSH1 0x40 MLOAD PUSH3 0x461BCD PUSH1 0xE5 SHL DUP2 MSTORE PUSH1 0x20 PUSH1 0x4 DUP3 ADD MSTORE PUSH1 0xB PUSH1 0x24 DUP3 ADD MSTORE PUSH11 0x125B9D985B1A5908151195 PUSH1 0xAA SHL PUSH1 0x44 DUP3 ADD MSTORE PUSH1 0x64 ADD PUSH3 0x58 JUMP JUMPDEST PUSH1 0x1 PUSH1 0x1 PUSH1 0xA0 SHL SUB DUP2 AND PUSH3 0x11E JUMPI PUSH1 0x40 MLOAD PUSH3 0x461BCD PUSH1 0xE5 SHL DUP2 MSTORE PUSH1 0x20 PUSH1 0x4 DUP3 ADD MSTORE PUSH1 0xC PUSH1 0x24 DUP3 ADD MSTORE PUSH12 0x125B9D985B1A59081554D115 PUSH1 0xA2 SHL PUSH1 0x44 DUP3 ADD MSTORE PUSH1 0x64 ADD PUSH3 0x58 JUMP JUMPDEST PUSH1 0x1 PUSH1 0x1 PUSH1 0xA0 SHL SUB SWAP2 DUP3 AND PUSH1 0x80 MSTORE AND PUSH1 0xA0 MSTORE PUSH3 0x1DB JUMP JUMPDEST PUSH1 0x0 DUP1 SLOAD PUSH1 0x1 PUSH1 0x1 PUSH1 0xA0 SHL SUB DUP4 DUP2 AND PUSH1 0x1 PUSH1 0x1 PUSH1 0xA0 SHL SUB NOT DUP4 AND DUP2 OR DUP5 SSTORE PUSH1 0x40 MLOAD SWAP2 SWAP1 SWAP3 AND SWAP3 DUP4 SWAP2 PUSH32 0x8BE0079C531659141344CD1FD0A4F28419497F9722A3DAAFE3B4186F6B6457E0 SWAP2 SWAP1 LOG3 POP POP JUMP JUMPDEST DUP1 MLOAD PUSH1 0x1 PUSH1 0x1 PUSH1 0xA0 SHL SUB DUP2 AND DUP2 EQ PUSH3 0x19E JUMPI PUSH1 0x0 DUP1 REVERT JUMPDEST SWAP2 SWAP1 POP JUMP JUMPDEST PUSH1 0x0 DUP1 PUSH1 0x40 DUP4 DUP6 SUB SLT ISZERO PUSH3 0x1B7 JUMPI PUSH1 0x0 DUP1 REVERT JUMPDEST PUSH3 0x1C2 DUP4 PUSH3 0x186 JUMP JUMPDEST SWAP2 POP PUSH3 0x1D2 PUSH1 0x20 DUP5 ADD PUSH3 0x186 JUMP JUMPDEST SWAP1 POP SWAP3 POP SWAP3 SWAP1 POP JUMP JUMPDEST PUSH1 0x80 MLOAD PUSH1 0xA0 MLOAD PUSH2 0x1695 PUSH3 0x240 PUSH1 0x0 CODECOPY PUSH1 0x0 DUP2 DUP2 PUSH2 0x324 ADD MSTORE DUP2 DUP2 PUSH2 0x4AD ADD MSTORE DUP2 DUP2 PUSH2 0xB47 ADD MSTORE DUP2 DUP2 PUSH2 0xD24 ADD MSTORE DUP2 DUP2 PUSH2 0xDF4 ADD MSTORE PUSH2 0x1003 ADD MSTORE PUSH1 0x0 DUP2 DUP2 PUSH2 0x39D ADD MSTORE DUP2 DUP2 PUSH2 0x877 ADD MSTORE DUP2 DUP2 PUSH2 0x938 ADD MSTORE DUP2 DUP2 PUSH2 0xDBA ADD MSTORE PUSH2 0xFCE ADD MSTORE PUSH2 0x1695 PUSH1 0x0 RETURN INVALID PUSH1 0x80 PUSH1 0x40 MSTORE CALLVALUE DUP1 ISZERO PUSH2 0x10 JUMPI PUSH1 0x0 DUP1 REVERT JUMPDEST POP PUSH1 0x4 CALLDATASIZE LT PUSH2 0x1C4 JUMPI PUSH1 0x0 CALLDATALOAD PUSH1 0xE0 SHR DUP1 PUSH4 0x5848B970 GT PUSH2 0xF9 JUMPI DUP1 PUSH4 0x909B2DA1 GT PUSH2 0x97 JUMPI DUP1 PUSH4 0xBB8CF25B GT PUSH2 0x71 JUMPI DUP1 PUSH4 0xBB8CF25B EQ PUSH2 0x44D JUMPI DUP1 PUSH4 0xDDF0185F EQ PUSH2 0x460 JUMPI DUP1 PUSH4 0xF2FDE38B EQ PUSH2 0x469 JUMPI DUP1 PUSH4 0xFCCC2813 EQ PUSH2 0x47C JUMPI PUSH1 0x0 DUP1 REVERT JUMPDEST DUP1 PUSH4 0x909B2DA1 EQ PUSH2 0x3F3 JUMPI DUP1 PUSH4 0xA1A64A1E EQ PUSH2 0x432 JUMPI DUP1 PUSH4 0xA44C8394 EQ PUSH2 0x43A JUMPI PUSH1 0x0 DUP1 REVERT JUMPDEST DUP1 PUSH4 0x668038E0 GT PUSH2 0xD3 JUMPI DUP1 PUSH4 0x668038E0 EQ PUSH2 0x3C9 JUMPI DUP1 PUSH4 0x715018A6 EQ PUSH2 0x3D1 JUMPI DUP1 PUSH4 0x85A6B3AE EQ PUSH2 0x3D9 JUMPI DUP1 PUSH4 0x8DA5CB5B EQ PUSH2 0x3E2 JUMPI PUSH1 0x0 DUP1 REVERT JUMPDEST DUP1 PUSH4 0x5848B970 EQ PUSH2 0x390 JUMPI DUP1 PUSH4 0x5FBD83F4 EQ PUSH2 0x398 JUMPI DUP1 PUSH4 0x6558954F EQ PUSH2 0x3BF JUMPI PUSH1 0x0 DUP1 REVERT JUMPDEST DUP1 PUSH4 0x2469FD42 GT PUSH2 0x166 JUMPI DUP1 PUSH4 0x3406584E GT PUSH2 0x140 JUMPI DUP1 PUSH4 0x3406584E EQ PUSH2 0x35E JUMPI DUP1 PUSH4 0x4E4CDD30 EQ PUSH2 0x366 JUMPI DUP1 PUSH4 0x4E5510E5 EQ PUSH2 0x377 JUMPI DUP1 PUSH4 0x5322E1A2 EQ PUSH2 0x388 JUMPI PUSH1 0x0 DUP1 REVERT JUMPDEST DUP1 PUSH4 0x2469FD42 EQ PUSH2 0x2A2 JUMPI DUP1 PUSH4 0x2C3DCBC7 EQ PUSH2 0x30C JUMPI DUP1 PUSH4 0x2F48AB7D EQ PUSH2 0x31F JUMPI PUSH1 0x0 DUP1 REVERT JUMPDEST DUP1 PUSH4 0xAA617E6 GT PUSH2 0x1A2 JUMPI DUP1 PUSH4 0xAA617E6 EQ PUSH2 0x202 JUMPI DUP1 PUSH4 0x1265F652 EQ PUSH2 0x222 JUMPI DUP1 PUSH4 0x2130FE23 EQ PUSH2 0x242 JUMPI DUP1 PUSH4 0x215F9BAA EQ PUSH2 0x282 JUMPI PUSH1 0x0 DUP1 REVERT JUMPDEST DUP1 PUSH4 0x3C83302 EQ PUSH2 0x1C9 JUMPI DUP1 PUSH4 0x69C9FAE EQ PUSH2 0x1D3 JUMPI DUP1 PUSH4 0x7F19651 EQ PUSH2 0x1E6 JUMPI JUMPDEST PUSH1 0x0 DUP1 REVERT JUMPDEST PUSH2 0x1D1 PUSH2 0x485 JUMP JUMPDEST STOP JUMPDEST PUSH2 0x1D1 PUSH2 0x1E1 CALLDATASIZE PUSH1 0x4 PUSH2 0x14D9 JUMP JUMPDEST PUSH2 0x623 JUMP JUMPDEST PUSH2 0x1EF PUSH1 0x2 SLOAD DUP2 JUMP JUMPDEST PUSH1 0x40 MLOAD SWAP1 DUP2 MSTORE PUSH1 0x20 ADD JUMPDEST PUSH1 0x40 MLOAD DUP1 SWAP2 SUB SWAP1 RETURN JUMPDEST PUSH2 0x1EF PUSH2 0x210 CALLDATASIZE PUSH1 0x4 PUSH2 0x1503 JUMP JUMPDEST PUSH1 0x8 PUSH1 0x20 MSTORE PUSH1 0x0 SWAP1 DUP2 MSTORE PUSH1 0x40 SWAP1 KECCAK256 SLOAD DUP2 JUMP JUMPDEST PUSH2 0x1EF PUSH2 0x230 CALLDATASIZE PUSH1 0x4 PUSH2 0x1503 JUMP JUMPDEST PUSH1 0x7 PUSH1 0x20 MSTORE PUSH1 0x0 SWAP1 DUP2 MSTORE PUSH1 0x40 SWAP1 KECCAK256 SLOAD DUP2 JUMP JUMPDEST PUSH2 0x255 PUSH2 0x250 CALLDATASIZE PUSH1 0x4 PUSH2 0x1503 JUMP JUMPDEST PUSH2 0x70E JUMP JUMPDEST PUSH1 0x40 DUP1 MLOAD SWAP7 DUP8 MSTORE PUSH1 0x20 DUP8 ADD SWAP6 SWAP1 SWAP6 MSTORE SWAP4 DUP6 ADD SWAP3 SWAP1 SWAP3 MSTORE PUSH1 0x60 DUP5 ADD MSTORE PUSH1 0x80 DUP4 ADD MSTORE PUSH1 0xA0 DUP3 ADD MSTORE PUSH1 0xC0 ADD PUSH2 0x1F9 JUMP JUMPDEST PUSH2 0x1EF PUSH2 0x290 CALLDATASIZE PUSH1 0x4 PUSH2 0x1503 JUMP JUMPDEST PUSH1 0x3 PUSH1 0x20 MSTORE PUSH1 0x0 SWAP1 DUP2 MSTORE PUSH1 0x40 SWAP1 KECCAK256 SLOAD DUP2 JUMP JUMPDEST PUSH2 0x2E2 PUSH2 0x2B0 CALLDATASIZE PUSH1 0x4 PUSH2 0x1503 JUMP JUMPDEST PUSH1 0x5 PUSH1 0x20 MSTORE PUSH1 0x0 SWAP1 DUP2 MSTORE PUSH1 0x40 SWAP1 KECCAK256 DUP1 SLOAD PUSH1 0x1 DUP3 ADD SLOAD PUSH1 0x2 DUP4 ADD SLOAD PUSH1 0x3 DUP5 ADD SLOAD PUSH1 0x4 SWAP1 SWAP5 ADD SLOAD SWAP3 SWAP4 SWAP2 SWAP3 SWAP1 SWAP2 SWAP1 PUSH1 0xFF AND DUP6 JUMP JUMPDEST PUSH1 0x40 DUP1 MLOAD SWAP6 DUP7 MSTORE PUSH1 0x20 DUP7 ADD SWAP5 SWAP1 SWAP5 MSTORE SWAP3 DUP5 ADD SWAP2 SWAP1 SWAP2 MSTORE PUSH1 0x60 DUP4 ADD MSTORE ISZERO ISZERO PUSH1 0x80 DUP3 ADD MSTORE PUSH1 0xA0 ADD PUSH2 0x1F9 JUMP JUMPDEST PUSH2 0x1EF PUSH2 0x31A CALLDATASIZE PUSH1 0x4 PUSH2 0x1503 JUMP JUMPDEST PUSH2 0x7F6 JUMP JUMPDEST PUSH2 0x346 PUSH32 0x0 DUP2 JUMP JUMPDEST PUSH1 0x40 MLOAD PUSH1 0x1 PUSH1 0x1 PUSH1 0xA0 SHL SUB SWAP1 SWAP2 AND DUP2 MSTORE PUSH1 0x20 ADD PUSH2 0x1F9 JUMP JUMPDEST PUSH2 0x1D1 PUSH2 0x807 JUMP JUMPDEST PUSH2 0x1EF PUSH10 0xA968163F0A57B400000 DUP2 JUMP JUMPDEST PUSH2 0x1EF PUSH10 0x152D02C7E14AF6800000 DUP2 JUMP JUMPDEST PUSH2 0x1EF PUSH1 0x32 DUP2 JUMP JUMPDEST PUSH2 0x1EF PUSH1 0xC8 DUP2 JUMP JUMPDEST PUSH2 0x346 PUSH32 0x0 DUP2 JUMP JUMPDEST PUSH2 0x1EF PUSH3 0x278D00 DUP2 JUMP JUMPDEST PUSH2 0x1D1 PUSH2 0xA72 JUMP JUMPDEST PUSH2 0x1D1 PUSH2 0xBA0 JUMP JUMPDEST PUSH2 0x1EF PUSH1 0x6 SLOAD DUP2 JUMP JUMPDEST PUSH1 0x0 SLOAD PUSH1 0x1 PUSH1 0x1 PUSH1 0xA0 SHL SUB AND PUSH2 0x346 JUMP JUMPDEST PUSH2 0x406 PUSH2 0x401 CALLDATASIZE PUSH1 0x4 PUSH2 0x14D9 JUMP JUMPDEST PUSH2 0xBB2 JUMP JUMPDEST PUSH1 0x40 DUP1 MLOAD PUSH1 0x1 PUSH1 0x1 PUSH1 0xA0 SHL SUB SWAP1 SWAP6 AND DUP6 MSTORE PUSH1 0x20 DUP6 ADD SWAP4 SWAP1 SWAP4 MSTORE SWAP2 DUP4 ADD MSTORE ISZERO ISZERO PUSH1 0x60 DUP3 ADD MSTORE PUSH1 0x80 ADD PUSH2 0x1F9 JUMP JUMPDEST PUSH2 0x1D1 PUSH2 0xC05 JUMP JUMPDEST PUSH2 0x1D1 PUSH2 0x448 CALLDATASIZE PUSH1 0x4 PUSH2 0x1525 JUMP JUMPDEST PUSH2 0xE92 JUMP JUMPDEST PUSH2 0x1D1 PUSH2 0x45B CALLDATASIZE PUSH1 0x4 PUSH2 0x153E JUMP JUMPDEST PUSH2 0xED5 JUMP JUMPDEST PUSH2 0x1EF PUSH1 0x1 SLOAD DUP2 JUMP JUMPDEST PUSH2 0x1D1 PUSH2 0x477 CALLDATASIZE PUSH1 0x4 PUSH2 0x1503 JUMP JUMPDEST PUSH2 0x11CF JUMP JUMPDEST PUSH2 0x346 PUSH2 0xDEAD DUP2 JUMP JUMPDEST PUSH2 0x48D PUSH2 0x120D JUMP JUMPDEST PUSH2 0x495 PUSH2 0x123A JUMP JUMPDEST PUSH1 0x40 MLOAD PUSH4 0x70A08231 PUSH1 0xE0 SHL DUP2 MSTORE ADDRESS PUSH1 0x4 DUP3 ADD MSTORE PUSH1 0x0 SWAP1 PUSH32 0x0 PUSH1 0x1 PUSH1 0x1 PUSH1 0xA0 SHL SUB AND SWAP1 PUSH4 0x70A08231 SWAP1 PUSH1 0x24 ADD PUSH1 0x20 PUSH1 0x40 MLOAD DUP1 DUP4 SUB DUP2 DUP7 GAS STATICCALL ISZERO DUP1 ISZERO PUSH2 0x4FC JUMPI RETURNDATASIZE PUSH1 0x0 DUP1 RETURNDATACOPY RETURNDATASIZE PUSH1 0x0 REVERT JUMPDEST POP POP POP POP PUSH1 0x40 MLOAD RETURNDATASIZE PUSH1 0x1F NOT PUSH1 0x1F DUP3 ADD AND DUP3 ADD DUP1 PUSH1 0x40 MSTORE POP DUP2 ADD SWAP1 PUSH2 0x520 SWAP2 SWAP1 PUSH2 0x1560 JUMP JUMPDEST SWAP1 POP PUSH1 0x0 DUP2 GT PUSH2 0x577 JUMPI PUSH1 0x40 MLOAD PUSH3 0x461BCD PUSH1 0xE5 SHL DUP2 MSTORE PUSH1 0x20 PUSH1 0x4 DUP3 ADD MSTORE PUSH1 0x1A PUSH1 0x24 DUP3 ADD MSTORE PUSH32 0x4E6F206469766964656E647320746F2064697374726962757465000000000000 PUSH1 0x44 DUP3 ADD MSTORE PUSH1 0x64 ADD JUMPDEST PUSH1 0x40 MLOAD DUP1 SWAP2 SUB SWAP1 REVERT JUMPDEST PUSH1 0x0 PUSH1 0x2 SLOAD GT PUSH2 0x5BB JUMPI PUSH1 0x40 MLOAD PUSH3 0x461BCD PUSH1 0xE5 SHL DUP2 MSTORE PUSH1 0x20 PUSH1 0x4 DUP3 ADD MSTORE PUSH1 0xF PUSH1 0x24 DUP3 ADD MSTORE PUSH15 0x4E6F20616374697665206E6F646573 PUSH1 0x88 SHL PUSH1 0x44 DUP3 ADD MSTORE PUSH1 0x64 ADD PUSH2 0x56E JUMP JUMPDEST DUP1 PUSH1 0x6 PUSH1 0x0 DUP3 DUP3 SLOAD PUSH2 0x5CD SWAP2 SWAP1 PUSH2 0x158F JUMP JUMPDEST SWAP1 SWAP2 SSTORE POP POP PUSH1 0x40 MLOAD DUP2 DUP2 MSTORE PUSH1 0x0 SWAP1 PUSH32 0x84FCDD4A7F507F2206DD50958E7473061BF941F91791C6FFAF74033A07C82F12 SWAP1 PUSH1 0x20 ADD JUMPDEST PUSH1 0x40 MLOAD DUP1 SWAP2 SUB SWAP1 LOG2 POP PUSH2 0x621 PUSH1 0x1 PUSH1 0x0 DUP1 MLOAD PUSH1 0x20 PUSH2 0x1640 DUP4 CODECOPY DUP2 MLOAD SWAP2 MSTORE SSTORE JUMP JUMPDEST JUMP JUMPDEST PUSH2 0x62B PUSH2 0x120D JUMP JUMPDEST PUSH1 0x1 PUSH1 0x1 PUSH1 0xA0 SHL SUB DUP3 AND PUSH2 0x678 JUMPI PUSH1 0x0 DUP1 SLOAD PUSH1 0x40 MLOAD PUSH1 0x1 PUSH1 0x1 PUSH1 0xA0 SHL SUB SWAP1 SWAP2 AND SWAP2 SELFBALANCE DUP1 ISZERO PUSH2 0x8FC MUL SWAP3 SWAP1 SWAP2 DUP2 DUP2 DUP2 DUP6 DUP9 DUP9 CALL SWAP4 POP POP POP POP ISZERO DUP1 ISZERO PUSH2 0x673 JUMPI RETURNDATASIZE PUSH1 0x0 DUP1 RETURNDATACOPY RETURNDATASIZE PUSH1 0x0 REVERT JUMPDEST POP POP POP JUMP JUMPDEST DUP2 PUSH1 0x1 PUSH1 0x1 PUSH1 0xA0 SHL SUB AND PUSH4 0xA9059CBB PUSH2 0x699 PUSH1 0x0 SLOAD PUSH1 0x1 PUSH1 0x1 PUSH1 0xA0 SHL SUB AND SWAP1 JUMP JUMPDEST PUSH1 0x40 MLOAD PUSH1 0x1 PUSH1 0x1 PUSH1 0xE0 SHL SUB NOT PUSH1 0xE0 DUP5 SWAP1 SHL AND DUP2 MSTORE PUSH1 0x1 PUSH1 0x1 PUSH1 0xA0 SHL SUB SWAP1 SWAP2 AND PUSH1 0x4 DUP3 ADD MSTORE PUSH1 0x24 DUP2 ADD DUP5 SWAP1 MSTORE PUSH1 0x44 ADD PUSH1 0x20 PUSH1 0x40 MLOAD DUP1 DUP4 SUB DUP2 PUSH1 0x0 DUP8 GAS CALL ISZERO DUP1 ISZERO PUSH2 0x6E6 JUMPI RETURNDATASIZE PUSH1 0x0 DUP1 RETURNDATACOPY RETURNDATASIZE PUSH1 0x0 REVERT JUMPDEST POP POP POP POP PUSH1 0x40 MLOAD RETURNDATASIZE PUSH1 0x1F NOT PUSH1 0x1F DUP3 ADD AND DUP3 ADD DUP1 PUSH1 0x40 MSTORE POP DUP2 ADD SWAP1 PUSH2 0x673 SWAP2 SWAP1 PUSH2 0x15A2 JUMP JUMPDEST POP POP JUMP JUMPDEST PUSH1 0x1 PUSH1 0x1 PUSH1 0xA0 SHL SUB DUP2 AND PUSH1 0x0 SWAP1 DUP2 MSTORE PUSH1 0x3 PUSH1 0x20 SWAP1 DUP2 MSTORE PUSH1 0x40 DUP1 DUP4 KECCAK256 SLOAD PUSH1 0x5 SWAP1 SWAP3 MSTORE DUP3 KECCAK256 PUSH1 0x1 DUP2 ADD SLOAD DUP2 SLOAD SWAP3 SWAP4 SWAP3 DUP4 SWAP3 DUP4 SWAP3 DUP4 SWAP3 DUP4 SWAP3 SWAP2 PUSH2 0x74D SWAP2 PUSH2 0x15C4 JUMP JUMPDEST SWAP4 POP DUP1 PUSH1 0x1 ADD SLOAD SWAP3 POP DUP1 PUSH1 0x2 ADD SLOAD SWAP2 POP PUSH1 0x0 JUMPDEST PUSH1 0x1 PUSH1 0x1 PUSH1 0xA0 SHL SUB DUP10 AND PUSH1 0x0 SWAP1 DUP2 MSTORE PUSH1 0x4 PUSH1 0x20 MSTORE PUSH1 0x40 SWAP1 KECCAK256 SLOAD DUP2 LT ISZERO PUSH2 0x7EB JUMPI PUSH1 0x1 PUSH1 0x1 PUSH1 0xA0 SHL SUB DUP10 AND PUSH1 0x0 SWAP1 DUP2 MSTORE PUSH1 0x4 PUSH1 0x20 MSTORE PUSH1 0x40 SWAP1 KECCAK256 DUP1 SLOAD DUP3 SWAP1 DUP2 LT PUSH2 0x7AA JUMPI PUSH2 0x7AA PUSH2 0x15D7 JUMP JUMPDEST SWAP1 PUSH1 0x0 MSTORE PUSH1 0x20 PUSH1 0x0 KECCAK256 SWAP1 PUSH1 0x4 MUL ADD PUSH1 0x1 ADD SLOAD PUSH1 0x1 SUB PUSH2 0x7D5 JUMPI DUP7 PUSH2 0x7CD DUP2 PUSH2 0x15ED JUMP JUMPDEST SWAP8 POP POP PUSH2 0x7E3 JUMP JUMPDEST DUP6 PUSH2 0x7DF DUP2 PUSH2 0x15ED JUMP JUMPDEST SWAP7 POP POP JUMPDEST PUSH1 0x1 ADD PUSH2 0x760 JUMP JUMPDEST POP POP SWAP2 SWAP4 SWAP6 POP SWAP2 SWAP4 SWAP6 JUMP JUMPDEST PUSH1 0x0 PUSH2 0x801 DUP3 PUSH2 0x1256 JUMP JUMPDEST SWAP3 SWAP2 POP POP JUMP JUMPDEST PUSH2 0x80F PUSH2 0x123A JUMP JUMPDEST PUSH1 0x1 SLOAD PUSH1 0x2 SLOAD LT PUSH2 0x856 JUMPI PUSH1 0x40 MLOAD PUSH3 0x461BCD PUSH1 0xE5 SHL DUP2 MSTORE PUSH1 0x20 PUSH1 0x4 DUP3 ADD MSTORE PUSH1 0x11 PUSH1 0x24 DUP3 ADD MSTORE PUSH17 0x13585E081B9BD9195CC81C995858DA1959 PUSH1 0x7A SHL PUSH1 0x44 DUP3 ADD MSTORE PUSH1 0x64 ADD PUSH2 0x56E JUMP JUMPDEST PUSH1 0x40 MLOAD PUSH4 0x70A08231 PUSH1 0xE0 SHL DUP2 MSTORE CALLER PUSH1 0x4 DUP3 ADD MSTORE PUSH10 0x152D02C7E14AF6800000 SWAP1 PUSH32 0x0 PUSH1 0x1 PUSH1 0x1 PUSH1 0xA0 SHL SUB AND SWAP1 PUSH4 0x70A08231 SWAP1 PUSH1 0x24 ADD PUSH1 0x20 PUSH1 0x40 MLOAD DUP1 DUP4 SUB DUP2 DUP7 GAS STATICCALL ISZERO DUP1 ISZERO PUSH2 0x8C6 JUMPI RETURNDATASIZE PUSH1 0x0 DUP1 RETURNDATACOPY RETURNDATASIZE PUSH1 0x0 REVERT JUMPDEST POP POP POP POP PUSH1 0x40 MLOAD RETURNDATASIZE PUSH1 0x1F NOT PUSH1 0x1F DUP3 ADD AND DUP3 ADD DUP1 PUSH1 0x40 MSTORE POP DUP2 ADD SWAP1 PUSH2 0x8EA SWAP2 SWAP1 PUSH2 0x1560 JUMP JUMPDEST LT ISZERO PUSH2 0x92B JUMPI PUSH1 0x40 MLOAD PUSH3 0x461BCD PUSH1 0xE5 SHL DUP2 MSTORE PUSH1 0x20 PUSH1 0x4 DUP3 ADD MSTORE PUSH1 0x10 PUSH1 0x24 DUP3 ADD MSTORE PUSH16 0x125B9CDD59999A58DA595B9D08151195 PUSH1 0x82 SHL PUSH1 0x44 DUP3 ADD MSTORE PUSH1 0x64 ADD PUSH2 0x56E JUMP JUMPDEST PUSH2 0x96C PUSH1 0x1 PUSH1 0x1 PUSH1 0xA0 SHL SUB PUSH32 0x0 AND CALLER PUSH2 0xDEAD PUSH10 0x152D02C7E14AF6800000 PUSH2 0x12F4 JUMP JUMPDEST CALLER PUSH1 0x0 DUP2 DUP2 MSTORE PUSH1 0x4 PUSH1 0x20 DUP2 DUP2 MSTORE PUSH1 0x40 DUP1 DUP5 KECCAK256 DUP2 MLOAD PUSH1 0x80 DUP2 ADD DUP4 MSTORE DUP7 DUP2 MSTORE PUSH1 0x1 DUP2 DUP6 ADD DUP2 DUP2 MSTORE TIMESTAMP DUP4 DUP7 ADD SWAP1 DUP2 MSTORE PUSH1 0x60 DUP5 ADD DUP4 DUP2 MSTORE DUP6 SLOAD DUP1 DUP6 ADD DUP8 SSTORE SWAP6 DUP11 MSTORE DUP8 DUP11 KECCAK256 SWAP5 MLOAD SWAP6 SWAP1 SWAP9 MUL SWAP1 SWAP4 ADD DUP1 SLOAD PUSH1 0x1 PUSH1 0x1 PUSH1 0xA0 SHL SUB NOT AND PUSH1 0x1 PUSH1 0x1 PUSH1 0xA0 SHL SUB SWAP1 SWAP6 AND SWAP5 SWAP1 SWAP5 OR DUP5 SSTORE MLOAD SWAP1 DUP4 ADD SSTORE MLOAD PUSH1 0x2 DUP3 ADD SSTORE SWAP3 MLOAD PUSH1 0x3 SWAP4 DUP5 ADD DUP1 SLOAD PUSH1 0xFF NOT AND SWAP2 ISZERO ISZERO SWAP2 SWAP1 SWAP2 OR SWAP1 SSTORE SWAP4 DUP4 MSTORE MSTORE SWAP1 DUP2 KECCAK256 DUP1 SLOAD SWAP2 PUSH2 0xA06 DUP4 PUSH2 0x15ED JUMP JUMPDEST SWAP1 SWAP2 SSTORE POP POP PUSH1 0x2 DUP1 SLOAD SWAP1 PUSH1 0x0 PUSH2 0xA1B DUP4 PUSH2 0x15ED JUMP JUMPDEST SWAP1 SWAP2 SSTORE POP POP PUSH1 0x40 DUP1 MLOAD PUSH1 0x1 DUP2 MSTORE TIMESTAMP PUSH1 0x20 DUP3 ADD MSTORE CALLER SWAP2 PUSH32 0xED6196B8B5E9E7C4EB1F8DBF29AE12164C5B92535DB3D0F77254960309F8BEC2 SWAP2 ADD PUSH1 0x40 MLOAD DUP1 SWAP2 SUB SWAP1 LOG2 PUSH2 0x621 PUSH1 0x1 PUSH1 0x0 DUP1 MLOAD PUSH1 0x20 PUSH2 0x1640 DUP4 CODECOPY DUP2 MLOAD SWAP2 MSTORE SSTORE JUMP JUMPDEST PUSH2 0xA7A PUSH2 0x123A JUMP JUMPDEST CALLER PUSH1 0x0 SWAP1 DUP2 MSTORE PUSH1 0x3 PUSH1 0x20 MSTORE PUSH1 0x40 SWAP1 KECCAK256 SLOAD PUSH2 0xAC1 JUMPI PUSH1 0x40 MLOAD PUSH3 0x461BCD PUSH1 0xE5 SHL DUP2 MSTORE PUSH1 0x20 PUSH1 0x4 DUP3 ADD MSTORE PUSH1 0x8 PUSH1 0x24 DUP3 ADD MSTORE PUSH8 0x4E6F206E6F646573 PUSH1 0xC0 SHL PUSH1 0x44 DUP3 ADD MSTORE PUSH1 0x64 ADD PUSH2 0x56E JUMP JUMPDEST PUSH1 0x0 PUSH2 0xACC CALLER PUSH2 0x1256 JUMP JUMPDEST SWAP1 POP PUSH1 0x0 DUP2 GT PUSH2 0xB15 JUMPI PUSH1 0x40 MLOAD PUSH3 0x461BCD PUSH1 0xE5 SHL DUP2 MSTORE PUSH1 0x20 PUSH1 0x4 DUP3 ADD MSTORE PUSH1 0x14 PUSH1 0x24 DUP3 ADD MSTORE PUSH20 0x4E6F2070656E64696E67206469766964656E6473 PUSH1 0x60 SHL PUSH1 0x44 DUP3 ADD MSTORE PUSH1 0x64 ADD PUSH2 0x56E JUMP JUMPDEST CALLER PUSH1 0x0 SWAP1 DUP2 MSTORE PUSH1 0x8 PUSH1 0x20 MSTORE PUSH1 0x40 DUP2 KECCAK256 DUP1 SLOAD DUP4 SWAP3 SWAP1 PUSH2 0xB34 SWAP1 DUP5 SWAP1 PUSH2 0x158F JUMP JUMPDEST SWAP1 SWAP2 SSTORE POP PUSH2 0xB6E SWAP1 POP PUSH1 0x1 PUSH1 0x1 PUSH1 0xA0 SHL SUB PUSH32 0x0 AND CALLER DUP4 PUSH2 0x1330 JUMP JUMPDEST PUSH1 0x40 MLOAD DUP2 DUP2 MSTORE CALLER SWAP1 PUSH32 0x5EFA67896A23B651B741B525CAACBA039C00CA7853BE3DE8EB1F4269E8669C56 SWAP1 PUSH1 0x20 ADD PUSH2 0x601 JUMP JUMPDEST PUSH2 0xBA8 PUSH2 0x120D JUMP JUMPDEST PUSH2 0x621 PUSH1 0x0 PUSH2 0x1365 JUMP JUMPDEST PUSH1 0x4 PUSH1 0x20 MSTORE DUP2 PUSH1 0x0 MSTORE PUSH1 0x40 PUSH1 0x0 KECCAK256 DUP2 DUP2 SLOAD DUP2 LT PUSH2 0xBCE JUMPI PUSH1 0x0 DUP1 REVERT JUMPDEST PUSH1 0x0 SWAP2 DUP3 MSTORE PUSH1 0x20 SWAP1 SWAP2 KECCAK256 PUSH1 0x4 SWAP1 SWAP2 MUL ADD DUP1 SLOAD PUSH1 0x1 DUP3 ADD SLOAD PUSH1 0x2 DUP4 ADD SLOAD PUSH1 0x3 SWAP1 SWAP4 ADD SLOAD PUSH1 0x1 PUSH1 0x1 PUSH1 0xA0 SHL SUB SWAP1 SWAP3 AND SWAP5 POP SWAP3 POP PUSH1 0xFF AND DUP5 JUMP JUMPDEST PUSH2 0xC0D PUSH2 0x123A JUMP JUMPDEST CALLER PUSH1 0x0 SWAP1 DUP2 MSTORE PUSH1 0x5 PUSH1 0x20 MSTORE PUSH1 0x40 SWAP1 KECCAK256 PUSH1 0x4 DUP2 ADD SLOAD PUSH1 0xFF AND PUSH2 0xC63 JUMPI PUSH1 0x40 MLOAD PUSH3 0x461BCD PUSH1 0xE5 SHL DUP2 MSTORE PUSH1 0x20 PUSH1 0x4 DUP3 ADD MSTORE PUSH1 0x10 PUSH1 0x24 DUP3 ADD MSTORE PUSH16 0x4E6F20616374697665206C6F636B757 PUSH1 0x84 SHL PUSH1 0x44 DUP3 ADD MSTORE PUSH1 0x64 ADD PUSH2 0x56E JUMP JUMPDEST PUSH1 0x0 PUSH3 0x278D00 DUP3 PUSH1 0x3 ADD SLOAD TIMESTAMP PUSH2 0xC79 SWAP2 SWAP1 PUSH2 0x15C4 JUMP JUMPDEST PUSH2 0xC83 SWAP2 SWAP1 PUSH2 0x1606 JUMP JUMPDEST SWAP1 POP DUP1 ISZERO PUSH2 0xE79 JUMPI PUSH1 0x0 DUP2 DUP4 PUSH1 0x2 ADD SLOAD PUSH2 0xC9D SWAP2 SWAP1 PUSH2 0x158F JUMP JUMPDEST SWAP1 POP PUSH1 0x32 DUP2 GT ISZERO PUSH2 0xCAC JUMPI POP PUSH1 0x32 JUMPDEST PUSH1 0x0 PUSH2 0x2710 PUSH1 0xC8 DUP4 DUP7 PUSH1 0x0 ADD SLOAD PUSH2 0xCC3 SWAP2 SWAP1 PUSH2 0x1628 JUMP JUMPDEST PUSH2 0xCCD SWAP2 SWAP1 PUSH2 0x1628 JUMP JUMPDEST PUSH2 0xCD7 SWAP2 SWAP1 PUSH2 0x1606 JUMP JUMPDEST SWAP1 POP PUSH1 0x0 DUP5 PUSH1 0x1 ADD SLOAD DUP3 PUSH2 0xCEB SWAP2 SWAP1 PUSH2 0x15C4 JUMP JUMPDEST SWAP1 POP DUP1 ISZERO PUSH2 0xE75 JUMPI PUSH1 0x1 DUP6 ADD DUP3 SWAP1 SSTORE PUSH1 0x2 DUP6 ADD DUP4 SWAP1 SSTORE TIMESTAMP PUSH1 0x3 DUP7 ADD SSTORE DUP5 SLOAD PUSH1 0x40 MLOAD PUSH4 0x70A08231 PUSH1 0xE0 SHL DUP2 MSTORE ADDRESS PUSH1 0x4 DUP3 ADD MSTORE PUSH1 0x0 SWAP2 SWAP1 DUP4 SWAP1 PUSH32 0x0 PUSH1 0x1 PUSH1 0x1 PUSH1 0xA0 SHL SUB AND SWAP1 PUSH4 0x70A08231 SWAP1 PUSH1 0x24 ADD PUSH1 0x20 PUSH1 0x40 MLOAD DUP1 DUP4 SUB DUP2 DUP7 GAS STATICCALL ISZERO DUP1 ISZERO PUSH2 0xD73 JUMPI RETURNDATASIZE PUSH1 0x0 DUP1 RETURNDATACOPY RETURNDATASIZE PUSH1 0x0 REVERT JUMPDEST POP POP POP POP PUSH1 0x40 MLOAD RETURNDATASIZE PUSH1 0x1F NOT PUSH1 0x1F DUP3 ADD AND DUP3 ADD DUP1 PUSH1 0x40 MSTORE POP DUP2 ADD SWAP1 PUSH2 0xD97 SWAP2 SWAP1 PUSH2 0x1560 JUMP JUMPDEST PUSH2 0xDA1 SWAP2 SWAP1 PUSH2 0x1628 JUMP JUMPDEST PUSH2 0xDAB SWAP2 SWAP1 PUSH2 0x1606 JUMP JUMPDEST SWAP1 POP PUSH2 0xDE1 PUSH1 0x1 PUSH1 0x1 PUSH1 0xA0 SHL SUB PUSH32 0x0 AND CALLER DUP5 PUSH2 0x1330 JUMP JUMPDEST DUP1 ISZERO PUSH2 0xE1B JUMPI PUSH2 0xE1B PUSH1 0x1 PUSH1 0x1 PUSH1 0xA0 SHL SUB PUSH32 0x0 AND CALLER DUP4 PUSH2 0x1330 JUMP JUMPDEST PUSH1 0x40 DUP1 MLOAD DUP4 DUP2 MSTORE PUSH1 0x20 DUP2 ADD DUP5 SWAP1 MSTORE SWAP1 DUP2 ADD DUP3 SWAP1 MSTORE CALLER SWAP1 PUSH32 0x976A45C1D615A430F80AF25890A59AEBDBB85305E0C9E38E59E1D86261822AAC SWAP1 PUSH1 0x60 ADD PUSH1 0x40 MLOAD DUP1 SWAP2 SUB SWAP1 LOG2 PUSH1 0x32 DUP5 LT PUSH2 0xE73 JUMPI PUSH1 0x4 DUP7 ADD DUP1 SLOAD PUSH1 0xFF NOT AND SWAP1 SSTORE JUMPDEST POP JUMPDEST POP POP POP JUMPDEST POP POP PUSH2 0x621 PUSH1 0x1 PUSH1 0x0 DUP1 MLOAD PUSH1 0x20 PUSH2 0x1640 DUP4 CODECOPY DUP2 MLOAD SWAP2 MSTORE SSTORE JUMP JUMPDEST PUSH2 0xE9A PUSH2 0x120D JUMP JUMPDEST PUSH1 0x1 DUP2 SWAP1 SSTORE PUSH1 0x40 MLOAD DUP2 DUP2 MSTORE PUSH32 0xB0E169CA184EF8208065F7C0BD968A40B0FC3565034E6A052D3698840F596500 SWAP1 PUSH1 0x20 ADD PUSH1 0x40 MLOAD DUP1 SWAP2 SUB SWAP1 LOG1 POP JUMP JUMPDEST PUSH2 0xEDD PUSH2 0x123A JUMP JUMPDEST PUSH1 0x1 SLOAD PUSH1 0x2 SLOAD LT PUSH2 0xF24 JUMPI PUSH1 0x40 MLOAD PUSH3 0x461BCD PUSH1 0xE5 SHL DUP2 MSTORE PUSH1 0x20 PUSH1 0x4 DUP3 ADD MSTORE PUSH1 0x11 PUSH1 0x24 DUP3 ADD MSTORE PUSH17 0x13585E081B9BD9195CC81C995858DA1959 PUSH1 0x7A SHL PUSH1 0x44 DUP3 ADD MSTORE PUSH1 0x64 ADD PUSH2 0x56E JUMP JUMPDEST PUSH10 0xA968163F0A57B400000 DUP3 LT ISZERO PUSH2 0xF71 JUMPI PUSH1 0x40 MLOAD PUSH3 0x461BCD PUSH1 0xE5 SHL DUP2 MSTORE PUSH1 0x20 PUSH1 0x4 DUP3 ADD MSTORE PUSH1 0x10 PUSH1 0x24 DUP3 ADD MSTORE PUSH16 0x125B9CDD59999A58DA595B9D08151195 PUSH1 0x82 SHL PUSH1 0x44 DUP3 ADD MSTORE PUSH1 0x64 ADD PUSH2 0x56E JUMP JUMPDEST PUSH1 0x0 DUP2 GT PUSH2 0xFC1 JUMPI PUSH1 0x40 MLOAD PUSH3 0x461BCD PUSH1 0xE5 SHL DUP2 MSTORE PUSH1 0x20 PUSH1 0x4 DUP3 ADD MSTORE PUSH1 0x17 PUSH1 0x24 DUP3 ADD MSTORE PUSH32 0x5553445420616D6F756E74206D757374206265203E2030000000000000000000 PUSH1 0x44 DUP3 ADD MSTORE PUSH1 0x64 ADD PUSH2 0x56E JUMP JUMPDEST PUSH2 0xFF6 PUSH1 0x1 PUSH1 0x1 PUSH1 0xA0 SHL SUB PUSH32 0x0 AND CALLER ADDRESS DUP6 PUSH2 0x12F4 JUMP JUMPDEST PUSH2 0x102B PUSH1 0x1 PUSH1 0x1 PUSH1 0xA0 SHL SUB PUSH32 0x0 AND CALLER ADDRESS DUP5 PUSH2 0x12F4 JUMP JUMPDEST CALLER PUSH1 0x0 DUP2 DUP2 MSTORE PUSH1 0x4 PUSH1 0x20 DUP2 DUP2 MSTORE PUSH1 0x40 DUP1 DUP5 KECCAK256 DUP2 MLOAD PUSH1 0x80 DUP1 DUP3 ADD DUP5 MSTORE DUP8 DUP3 MSTORE PUSH1 0x2 DUP3 DUP7 ADD DUP2 DUP2 MSTORE TIMESTAMP DUP5 DUP8 ADD DUP2 DUP2 MSTORE PUSH1 0x1 PUSH1 0x60 DUP1 DUP9 ADD DUP3 DUP2 MSTORE DUP10 SLOAD DUP1 DUP5 ADD DUP12 SSTORE SWAP10 DUP15 MSTORE DUP12 DUP15 KECCAK256 SWAP9 MLOAD SWAP10 DUP14 MUL SWAP1 SWAP9 ADD DUP1 SLOAD PUSH1 0x1 PUSH1 0x1 PUSH1 0xA0 SHL SUB NOT AND PUSH1 0x1 PUSH1 0x1 PUSH1 0xA0 SHL SUB SWAP1 SWAP11 AND SWAP10 SWAP1 SWAP10 OR DUP10 SSTORE SWAP4 MLOAD DUP9 DUP3 ADD SSTORE SWAP1 MLOAD DUP8 DUP6 ADD SSTORE SWAP5 MLOAD PUSH1 0x3 SWAP7 DUP8 ADD DUP1 SLOAD PUSH1 0xFF NOT SWAP1 DUP2 AND SWAP3 ISZERO ISZERO SWAP3 SWAP1 SWAP3 OR SWAP1 SSTORE DUP8 MLOAD PUSH1 0xA0 DUP2 ADD DUP10 MSTORE DUP15 DUP2 MSTORE DUP1 DUP11 ADD DUP13 DUP2 MSTORE DUP2 DUP11 ADD DUP14 DUP2 MSTORE SWAP5 DUP3 ADD SWAP4 DUP5 MSTORE SWAP6 DUP2 ADD DUP8 DUP2 MSTORE SWAP13 DUP13 MSTORE PUSH1 0x5 DUP11 MSTORE DUP9 DUP13 KECCAK256 SWAP1 MLOAD DUP2 SSTORE SWAP5 MLOAD SWAP6 DUP6 ADD SWAP6 SWAP1 SWAP6 SSTORE SWAP1 MLOAD SWAP2 DUP4 ADD SWAP2 SWAP1 SWAP2 SSTORE MLOAD DUP2 DUP5 ADD SSTORE SWAP7 MLOAD SWAP7 SWAP1 SWAP5 ADD DUP1 SLOAD SWAP1 SWAP5 AND SWAP6 ISZERO ISZERO SWAP6 SWAP1 SWAP6 OR SWAP1 SWAP3 SSTORE SWAP3 SWAP1 SWAP3 MSTORE SWAP1 DUP2 KECCAK256 DUP1 SLOAD SWAP2 PUSH2 0x1128 DUP4 PUSH2 0x15ED JUMP JUMPDEST SWAP1 SWAP2 SSTORE POP POP PUSH1 0x2 DUP1 SLOAD SWAP1 PUSH1 0x0 PUSH2 0x113D DUP4 PUSH2 0x15ED JUMP JUMPDEST SWAP1 SWAP2 SSTORE POP POP PUSH1 0x40 DUP1 MLOAD PUSH1 0x2 DUP2 MSTORE TIMESTAMP PUSH1 0x20 DUP3 ADD MSTORE CALLER SWAP2 PUSH32 0xED6196B8B5E9E7C4EB1F8DBF29AE12164C5B92535DB3D0F77254960309F8BEC2 SWAP2 ADD PUSH1 0x40 MLOAD DUP1 SWAP2 SUB SWAP1 LOG2 PUSH1 0x40 DUP1 MLOAD DUP4 DUP2 MSTORE PUSH1 0x20 DUP2 ADD DUP4 SWAP1 MSTORE CALLER SWAP2 PUSH32 0x7015130AF49D5302A94A3E897B7DB735211411B202EEB5F46E6AC2FFD4D08D69 SWAP2 ADD PUSH1 0x40 MLOAD DUP1 SWAP2 SUB SWAP1 LOG2 PUSH2 0x70A PUSH1 0x1 PUSH1 0x0 DUP1 MLOAD PUSH1 0x20 PUSH2 0x1640 DUP4 CODECOPY DUP2 MLOAD SWAP2 MSTORE SSTORE JUMP JUMPDEST PUSH2 0x11D7 PUSH2 0x120D JUMP JUMPDEST PUSH1 0x1 PUSH1 0x1 PUSH1 0xA0 SHL SUB DUP2 AND PUSH2 0x1201 JUMPI PUSH1 0x40 MLOAD PUSH4 0x1E4FBDF7 PUSH1 0xE0 SHL DUP2 MSTORE PUSH1 0x0 PUSH1 0x4 DUP3 ADD MSTORE PUSH1 0x24 ADD PUSH2 0x56E JUMP JUMPDEST PUSH2 0x120A DUP2 PUSH2 0x1365 JUMP JUMPDEST POP JUMP JUMPDEST PUSH1 0x0 SLOAD PUSH1 0x1 PUSH1 0x1 PUSH1 0xA0 SHL SUB AND CALLER EQ PUSH2 0x621 JUMPI PUSH1 0x40 MLOAD PUSH4 0x118CDAA7 PUSH1 0xE0 SHL DUP2 MSTORE CALLER PUSH1 0x4 DUP3 ADD MSTORE PUSH1 0x24 ADD PUSH2 0x56E JUMP JUMPDEST PUSH2 0x1242 PUSH2 0x13B5 JUMP JUMPDEST PUSH1 0x2 PUSH1 0x0 DUP1 MLOAD PUSH1 0x20 PUSH2 0x1640 DUP4 CODECOPY DUP2 MLOAD SWAP2 MSTORE SSTORE JUMP JUMPDEST PUSH1 0x0 PUSH1 0x2 SLOAD PUSH1 0x0 SUB PUSH2 0x126A JUMPI POP PUSH1 0x0 SWAP2 SWAP1 POP JUMP JUMPDEST PUSH1 0x6 SLOAD PUSH1 0x2 SLOAD PUSH1 0x1 PUSH1 0x1 PUSH1 0xA0 SHL SUB DUP5 AND PUSH1 0x0 SWAP1 DUP2 MSTORE PUSH1 0x3 PUSH1 0x20 MSTORE PUSH1 0x40 DUP2 KECCAK256 SLOAD SWAP1 SWAP2 SWAP1 PUSH2 0x1296 SWAP1 DUP5 PUSH2 0x1628 JUMP JUMPDEST PUSH2 0x12A0 SWAP2 SWAP1 PUSH2 0x1606 JUMP JUMPDEST PUSH1 0x1 PUSH1 0x1 PUSH1 0xA0 SHL SUB DUP6 AND PUSH1 0x0 SWAP1 DUP2 MSTORE PUSH1 0x8 PUSH1 0x20 MSTORE PUSH1 0x40 SWAP1 KECCAK256 SLOAD SWAP1 SWAP2 POP DUP2 GT PUSH2 0x12C9 JUMPI PUSH1 0x0 PUSH2 0x12EC JUMP JUMPDEST PUSH1 0x1 PUSH1 0x1 PUSH1 0xA0 SHL SUB DUP5 AND PUSH1 0x0 SWAP1 DUP2 MSTORE PUSH1 0x8 PUSH1 0x20 MSTORE PUSH1 0x40 SWAP1 KECCAK256 SLOAD PUSH2 0x12EC SWAP1 DUP3 PUSH2 0x15C4 JUMP JUMPDEST SWAP5 SWAP4 POP POP POP POP JUMP JUMPDEST PUSH2 0x1302 DUP5 DUP5 DUP5 DUP5 PUSH1 0x1 PUSH2 0x13E5 JUMP JUMPDEST PUSH2 0x132A JUMPI PUSH1 0x40 MLOAD PUSH4 0x5274AFE7 PUSH1 0xE0 SHL DUP2 MSTORE PUSH1 0x1 PUSH1 0x1 PUSH1 0xA0 SHL SUB DUP6 AND PUSH1 0x4 DUP3 ADD MSTORE PUSH1 0x24 ADD PUSH2 0x56E JUMP JUMPDEST POP POP POP POP JUMP JUMPDEST PUSH2 0x133D DUP4 DUP4 DUP4 PUSH1 0x1 PUSH2 0x1457 JUMP JUMPDEST PUSH2 0x673 JUMPI PUSH1 0x40 MLOAD PUSH4 0x5274AFE7 PUSH1 0xE0 SHL DUP2 MSTORE PUSH1 0x1 PUSH1 0x1 PUSH1 0xA0 SHL SUB DUP5 AND PUSH1 0x4 DUP3 ADD MSTORE PUSH1 0x24 ADD PUSH2 0x56E JUMP JUMPDEST PUSH1 0x0 DUP1 SLOAD PUSH1 0x1 PUSH1 0x1 PUSH1 0xA0 SHL SUB DUP4 DUP2 AND PUSH1 0x1 PUSH1 0x1 PUSH1 0xA0 SHL SUB NOT DUP4 AND DUP2 OR DUP5 SSTORE PUSH1 0x40 MLOAD SWAP2 SWAP1 SWAP3 AND SWAP3 DUP4 SWAP2 PUSH32 0x8BE0079C531659141344CD1FD0A4F28419497F9722A3DAAFE3B4186F6B6457E0 SWAP2 SWAP1 LOG3 POP POP JUMP JUMPDEST PUSH1 0x0 DUP1 MLOAD PUSH1 0x20 PUSH2 0x1640 DUP4 CODECOPY DUP2 MLOAD SWAP2 MSTORE SLOAD PUSH1 0x2 SUB PUSH2 0x621 JUMPI PUSH1 0x40 MLOAD PUSH4 0x3EE5AEB5 PUSH1 0xE0 SHL DUP2 MSTORE PUSH1 0x4 ADD PUSH1 0x40 MLOAD DUP1 SWAP2 SUB SWAP1 REVERT JUMPDEST PUSH1 0x40 MLOAD PUSH4 0x23B872DD PUSH1 0xE0 SHL PUSH1 0x0 DUP2 DUP2 MSTORE PUSH1 0x1 PUSH1 0x1 PUSH1 0xA0 SHL SUB DUP8 DUP2 AND PUSH1 0x4 MSTORE DUP7 AND PUSH1 0x24 MSTORE PUSH1 0x44 DUP6 SWAP1 MSTORE SWAP2 PUSH1 0x20 DUP4 PUSH1 0x64 DUP2 DUP1 DUP13 GAS CALL SWAP3 POP PUSH1 0x1 PUSH1 0x0 MLOAD EQ DUP4 AND PUSH2 0x1445 JUMPI DUP4 DUP4 ISZERO AND ISZERO PUSH2 0x1438 JUMPI RETURNDATASIZE PUSH1 0x0 DUP3 RETURNDATACOPY RETURNDATASIZE DUP2 REVERT JUMPDEST PUSH1 0x0 DUP9 EXTCODESIZE GT RETURNDATASIZE ISZERO AND DUP4 AND SWAP3 POP JUMPDEST PUSH1 0x40 MSTORE POP PUSH1 0x0 PUSH1 0x60 MSTORE SWAP6 SWAP5 POP POP POP POP POP JUMP JUMPDEST PUSH1 0x40 MLOAD PUSH4 0xA9059CBB PUSH1 0xE0 SHL PUSH1 0x0 DUP2 DUP2 MSTORE PUSH1 0x1 PUSH1 0x1 PUSH1 0xA0 SHL SUB DUP7 AND PUSH1 0x4 MSTORE PUSH1 0x24 DUP6 SWAP1 MSTORE SWAP2 PUSH1 0x20 DUP4 PUSH1 0x44 DUP2 DUP1 DUP12 GAS CALL SWAP3 POP PUSH1 0x1 PUSH1 0x0 MLOAD EQ DUP4 AND PUSH2 0x14B1 JUMPI DUP4 DUP4 ISZERO AND ISZERO PUSH2 0x14A4 JUMPI RETURNDATASIZE PUSH1 0x0 DUP3 RETURNDATACOPY RETURNDATASIZE DUP2 REVERT JUMPDEST PUSH1 0x0 DUP8 EXTCODESIZE GT RETURNDATASIZE ISZERO AND DUP4 AND SWAP3 POP JUMPDEST PUSH1 0x40 MSTORE POP SWAP5 SWAP4 POP POP POP POP JUMP JUMPDEST DUP1 CALLDATALOAD PUSH1 0x1 PUSH1 0x1 PUSH1 0xA0 SHL SUB DUP2 AND DUP2 EQ PUSH2 0x14D4 JUMPI PUSH1 0x0 DUP1 REVERT JUMPDEST SWAP2 SWAP1 POP JUMP JUMPDEST PUSH1 0x0 DUP1 PUSH1 0x40 DUP4 DUP6 SUB SLT ISZERO PUSH2 0x14EC JUMPI PUSH1 0x0 DUP1 REVERT JUMPDEST PUSH2 0x14F5 DUP4 PUSH2 0x14BD JUMP JUMPDEST SWAP5 PUSH1 0x20 SWAP4 SWAP1 SWAP4 ADD CALLDATALOAD SWAP4 POP POP POP JUMP JUMPDEST PUSH1 0x0 PUSH1 0x20 DUP3 DUP5 SUB SLT ISZERO PUSH2 0x1515 JUMPI PUSH1 0x0 DUP1 REVERT JUMPDEST PUSH2 0x151E DUP3 PUSH2 0x14BD JUMP JUMPDEST SWAP4 SWAP3 POP POP POP JUMP JUMPDEST PUSH1 0x0 PUSH1 0x20 DUP3 DUP5 SUB SLT ISZERO PUSH2 0x1537 JUMPI PUSH1 0x0 DUP1 REVERT JUMPDEST POP CALLDATALOAD SWAP2 SWAP1 POP JUMP JUMPDEST PUSH1 0x0 DUP1 PUSH1 0x40 DUP4 DUP6 SUB SLT ISZERO PUSH2 0x1551 JUMPI PUSH1 0x0 DUP1 REVERT JUMPDEST POP POP DUP1 CALLDATALOAD SWAP3 PUSH1 0x20 SWAP1 SWAP2 ADD CALLDATALOAD SWAP2 POP JUMP JUMPDEST PUSH1 0x0 PUSH1 0x20 DUP3 DUP5 SUB SLT ISZERO PUSH2 0x1572 JUMPI PUSH1 0x0 DUP1 REVERT JUMPDEST POP MLOAD SWAP2 SWAP1 POP JUMP JUMPDEST PUSH4 0x4E487B71 PUSH1 0xE0 SHL PUSH1 0x0 MSTORE PUSH1 0x11 PUSH1 0x4 MSTORE PUSH1 0x24 PUSH1 0x0 REVERT JUMPDEST DUP1 DUP3 ADD DUP1 DUP3 GT ISZERO PUSH2 0x801 JUMPI PUSH2 0x801 PUSH2 0x1579 JUMP JUMPDEST PUSH1 0x0 PUSH1 0x20 DUP3 DUP5 SUB SLT ISZERO PUSH2 0x15B4 JUMPI PUSH1 0x0 DUP1 REVERT JUMPDEST DUP2 MLOAD DUP1 ISZERO ISZERO DUP2 EQ PUSH2 0x151E JUMPI PUSH1 0x0 DUP1 REVERT JUMPDEST DUP2 DUP2 SUB DUP2 DUP2 GT ISZERO PUSH2 0x801 JUMPI PUSH2 0x801 PUSH2 0x1579 JUMP JUMPDEST PUSH4 0x4E487B71 PUSH1 0xE0 SHL PUSH1 0x0 MSTORE PUSH1 0x32 PUSH1 0x4 MSTORE PUSH1 0x24 PUSH1 0x0 REVERT JUMPDEST PUSH1 0x0 PUSH1 0x1 DUP3 ADD PUSH2 0x15FF JUMPI PUSH2 0x15FF PUSH2 0x1579 JUMP JUMPDEST POP PUSH1 0x1 ADD SWAP1 JUMP JUMPDEST PUSH1 0x0 DUP3 PUSH2 0x1623 JUMPI PUSH4 0x4E487B71 PUSH1 0xE0 SHL PUSH1 0x0 MSTORE PUSH1 0x12 PUSH1 0x4 MSTORE PUSH1 0x24 PUSH1 0x0 REVERT JUMPDEST POP DIV SWAP1 JUMP JUMPDEST DUP1 DUP3 MUL DUP2 ISZERO DUP3 DUP3 DIV DUP5 EQ OR PUSH2 0x801 JUMPI PUSH2 0x801 PUSH2 0x1579 JUMP INVALID SWAP12 PUSH24 0x9B17422D0DF92223018B32B4D1FA46E071723D6817E2486D STOP EXTCODESIZE 0xEC 0xC5 PUSH0 STOP LOG2 PUSH5 0x6970667358 0x22 SLT KECCAK256 PUSH7 0xFFC785EE67D417 PUSH9 0x5F249076A5E70B5541 0xBF 0xA8 DUP15 ORIGIN KECCAK256 PUSH6 0x21B9A1FBEA37 DUP15 0xF7 PUSH5 0x736F6C6343 STOP ADDMOD XOR STOP CALLER "},"methodIdentifiers":{"BURN_ADDRESS()":"fccc2813","BURN_COST()":"4e5510e5","LP_COST()":"4e4cdd30","PERIOD_DURATION()":"6558954f","TOTAL_PERIODS()":"5322e1a2","UNLOCK_PER_PERIOD()":"5848b970","activeNodes()":"07f19651","claimDividends()":"668038e0","createNodeByBurn()":"3406584e","createNodeByLP(uint256,uint256)":"bb8cf25b","distributeDividends()":"03c83302","getPendingDividends(address)":"2c3dcbc7","getUserNodes(address)":"2130fe23","maxNodes()":"ddf0185f","owner()":"8da5cb5b","recoverTokens(address,uint256)":"069c9fae","renounceOwnership()":"715018a6","setMaxNodes(uint256)":"a44c8394","tft()":"5fbd83f4","totalDividendsDistributed()":"85a6b3ae","transferOwnership(address)":"f2fde38b","usdt()":"2f48ab7d","userClaimedDividends(address)":"0aa617e6","userDividends(address)":"1265f652","userLPLockup(address)":"2469fd42","userNodeCount(address)":"215f9baa","userNodes(address,uint256)":"909b2da1","withdrawLP()":"a1a64a1e"}}}}}