{
  "_format": "hh-sol-artifact-1",
  "contractName": "TeamVesting",
  "sourceName": "src/TeamVesting.sol",
  "abi": [
    {
      "inputs": [
        {
          "internalType": "address",
          "name": "_tft",
          "type": "address"
        }
      ],
      "stateMutability": "nonpayable",
      "type": "constructor"
    },
    {
      "inputs": [
        {
          "internalType": "address",
          "name": "owner",
          "type": "address"
        }
      ],
      "name": "OwnableInvalidOwner",
      "type": "error"
    },
    {
      "inputs": [
        {
          "internalType": "address",
          "name": "account",
          "type": "address"
        }
      ],
      "name": "OwnableUnauthorizedAccount",
      "type": "error"
    },
    {
      "inputs": [
        {
          "internalType": "address",
          "name": "token",
          "type": "address"
        }
      ],
      "name": "SafeERC20FailedOperation",
      "type": "error"
    },
    {
      "anonymous": false,
      "inputs": [
        {
          "indexed": true,
          "internalType": "address",
          "name": "beneficiary",
          "type": "address"
        },
        {
          "indexed": false,
          "internalType": "uint256",
          "name": "amount",
          "type": "uint256"
        }
      ],
      "name": "BeneficiaryAdded",
      "type": "event"
    },
    {
      "anonymous": false,
      "inputs": [
        {
          "indexed": true,
          "internalType": "address",
          "name": "beneficiary",
          "type": "address"
        }
      ],
      "name": "BeneficiaryRemoved",
      "type": "event"
    },
    {
      "anonymous": false,
      "inputs": [
        {
          "indexed": true,
          "internalType": "address",
          "name": "previousOwner",
          "type": "address"
        },
        {
          "indexed": true,
          "internalType": "address",
          "name": "newOwner",
          "type": "address"
        }
      ],
      "name": "OwnershipTransferred",
      "type": "event"
    },
    {
      "anonymous": false,
      "inputs": [
        {
          "indexed": true,
          "internalType": "address",
          "name": "beneficiary",
          "type": "address"
        },
        {
          "indexed": false,
          "internalType": "uint256",
          "name": "amount",
          "type": "uint256"
        }
      ],
      "name": "TokensReleased",
      "type": "event"
    },
    {
      "anonymous": false,
      "inputs": [
        {
          "indexed": false,
          "internalType": "uint256",
          "name": "startTime",
          "type": "uint256"
        },
        {
          "indexed": false,
          "internalType": "uint256",
          "name": "totalAmount",
          "type": "uint256"
        }
      ],
      "name": "VestingStarted",
      "type": "event"
    },
    {
      "inputs": [],
      "name": "CLIFF_DURATION",
      "outputs": [
        {
          "internalType": "uint256",
          "name": "",
          "type": "uint256"
        }
      ],
      "stateMutability": "view",
      "type": "function"
    },
    {
      "inputs": [],
      "name": "RELEASE_PER_MONTH",
      "outputs": [
        {
          "internalType": "uint256",
          "name": "",
          "type": "uint256"
        }
      ],
      "stateMutability": "view",
      "type": "function"
    },
    {
      "inputs": [],
      "name": "TOTAL_VESTING_AMOUNT",
      "outputs": [
        {
          "internalType": "uint256",
          "name": "",
          "type": "uint256"
        }
      ],
      "stateMutability": "view",
      "type": "function"
    },
    {
      "inputs": [],
      "name": "VESTING_DURATION",
      "outputs": [
        {
          "internalType": "uint256",
          "name": "",
          "type": "uint256"
        }
      ],
      "stateMutability": "view",
      "type": "function"
    },
    {
      "inputs": [
        {
          "internalType": "address[]",
          "name": "_beneficiaries",
          "type": "address[]"
        },
        {
          "internalType": "uint256[]",
          "name": "_amounts",
          "type": "uint256[]"
        }
      ],
      "name": "addBeneficiaries",
      "outputs": [],
      "stateMutability": "nonpayable",
      "type": "function"
    },
    {
      "inputs": [
        {
          "internalType": "address",
          "name": "beneficiary",
          "type": "address"
        },
        {
          "internalType": "uint256",
          "name": "amount",
          "type": "uint256"
        }
      ],
      "name": "addBeneficiary",
      "outputs": [],
      "stateMutability": "nonpayable",
      "type": "function"
    },
    {
      "inputs": [
        {
          "internalType": "address",
          "name": "",
          "type": "address"
        }
      ],
      "name": "beneficiaries",
      "outputs": [
        {
          "internalType": "uint256",
          "name": "allocatedAmount",
          "type": "uint256"
        },
        {
          "internalType": "uint256",
          "name": "releasedAmount",
          "type": "uint256"
        },
        {
          "internalType": "uint256",
          "name": "startTime",
          "type": "uint256"
        },
        {
          "internalType": "bool",
          "name": "isActive",
          "type": "bool"
        }
      ],
      "stateMutability": "view",
      "type": "function"
    },
    {
      "inputs": [
        {
          "internalType": "uint256",
          "name": "",
          "type": "uint256"
        }
      ],
      "name": "beneficiaryList",
      "outputs": [
        {
          "internalType": "address",
          "name": "",
          "type": "address"
        }
      ],
      "stateMutability": "view",
      "type": "function"
    },
    {
      "inputs": [],
      "name": "getBeneficiaries",
      "outputs": [
        {
          "internalType": "address[]",
          "name": "",
          "type": "address[]"
        }
      ],
      "stateMutability": "view",
      "type": "function"
    },
    {
      "inputs": [],
      "name": "getBeneficiaryCount",
      "outputs": [
        {
          "internalType": "uint256",
          "name": "",
          "type": "uint256"
        }
      ],
      "stateMutability": "view",
      "type": "function"
    },
    {
      "inputs": [
        {
          "internalType": "address",
          "name": "beneficiary",
          "type": "address"
        }
      ],
      "name": "getBeneficiaryInfo",
      "outputs": [
        {
          "internalType": "uint256",
          "name": "allocatedAmount",
          "type": "uint256"
        },
        {
          "internalType": "uint256",
          "name": "releasedAmount",
          "type": "uint256"
        },
        {
          "internalType": "uint256",
          "name": "releasableAmount",
          "type": "uint256"
        },
        {
          "internalType": "uint256",
          "name": "vestedAmount",
          "type": "uint256"
        },
        {
          "internalType": "uint256",
          "name": "monthsPassed",
          "type": "uint256"
        }
      ],
      "stateMutability": "view",
      "type": "function"
    },
    {
      "inputs": [],
      "name": "getVestingProgress",
      "outputs": [
        {
          "internalType": "uint256",
          "name": "totalLockedAmount",
          "type": "uint256"
        },
        {
          "internalType": "uint256",
          "name": "totalReleasedAmount",
          "type": "uint256"
        },
        {
          "internalType": "uint256",
          "name": "remainingAmount",
          "type": "uint256"
        },
        {
          "internalType": "uint256",
          "name": "monthsElapsed",
          "type": "uint256"
        },
        {
          "internalType": "uint256",
          "name": "monthsRemaining",
          "type": "uint256"
        },
        {
          "internalType": "bool",
          "name": "isCompleted",
          "type": "bool"
        }
      ],
      "stateMutability": "view",
      "type": "function"
    },
    {
      "inputs": [
        {
          "internalType": "address",
          "name": "beneficiary",
          "type": "address"
        }
      ],
      "name": "isReleasable",
      "outputs": [
        {
          "internalType": "bool",
          "name": "",
          "type": "bool"
        }
      ],
      "stateMutability": "view",
      "type": "function"
    },
    {
      "inputs": [],
      "name": "owner",
      "outputs": [
        {
          "internalType": "address",
          "name": "",
          "type": "address"
        }
      ],
      "stateMutability": "view",
      "type": "function"
    },
    {
      "inputs": [],
      "name": "release",
      "outputs": [],
      "stateMutability": "nonpayable",
      "type": "function"
    },
    {
      "inputs": [
        {
          "internalType": "address",
          "name": "beneficiary",
          "type": "address"
        }
      ],
      "name": "releaseFor",
      "outputs": [],
      "stateMutability": "nonpayable",
      "type": "function"
    },
    {
      "inputs": [
        {
          "internalType": "address",
          "name": "beneficiary",
          "type": "address"
        }
      ],
      "name": "removeBeneficiary",
      "outputs": [],
      "stateMutability": "nonpayable",
      "type": "function"
    },
    {
      "inputs": [],
      "name": "renounceOwnership",
      "outputs": [],
      "stateMutability": "nonpayable",
      "type": "function"
    },
    {
      "inputs": [],
      "name": "startVesting",
      "outputs": [],
      "stateMutability": "nonpayable",
      "type": "function"
    },
    {
      "inputs": [],
      "name": "tft",
      "outputs": [
        {
          "internalType": "contract IERC20",
          "name": "",
          "type": "address"
        }
      ],
      "stateMutability": "view",
      "type": "function"
    },
    {
      "inputs": [],
      "name": "totalLocked",
      "outputs": [
        {
          "internalType": "uint256",
          "name": "",
          "type": "uint256"
        }
      ],
      "stateMutability": "view",
      "type": "function"
    },
    {
      "inputs": [],
      "name": "totalReleased",
      "outputs": [
        {
          "internalType": "uint256",
          "name": "",
          "type": "uint256"
        }
      ],
      "stateMutability": "view",
      "type": "function"
    },
    {
      "inputs": [
        {
          "internalType": "address",
          "name": "newOwner",
          "type": "address"
        }
      ],
      "name": "transferOwnership",
      "outputs": [],
      "stateMutability": "nonpayable",
      "type": "function"
    },
    {
      "inputs": [],
      "name": "vestingStartTime",
      "outputs": [
        {
          "internalType": "uint256",
          "name": "",
          "type": "uint256"
        }
      ],
      "stateMutability": "view",
      "type": "function"
    }
  ],
  "bytecode": "0x60a06040523480156200001157600080fd5b506040516200174138038062001741833981016040819052620000349162000122565b33806200005c57604051631e4fbdf760e01b8152600060048201526024015b60405180910390fd5b6200006781620000d2565b506001600160a01b038116620000c05760405162461bcd60e51b815260206004820152601360248201527f496e76616c696420544654206164647265737300000000000000000000000000604482015260640162000053565b6001600160a01b031660805262000154565b600080546001600160a01b038381166001600160a01b0319831681178455604051919092169283917f8be0079c531659141344cd1fd0a4f28419497f9722a3daafe3b4186f6b6457e09190a35050565b6000602082840312156200013557600080fd5b81516001600160a01b03811681146200014d57600080fd5b9392505050565b6080516115bc620001856000396000818161029f0152818161080a01528181610e32015261105601526115bc6000f3fe608060405234801561001057600080fd5b50600436106101585760003560e01c8063913b722c116100c3578063b3daa6521161007c578063b3daa65214610359578063b7aced9f14610363578063deb36e3214610374578063e33b7de31461037c578063ec0904f714610385578063f2fde38b1461039857600080fd5b8063913b722c146102fa57806396074e701461030f5780639a6e7fd1146103225780639e761bbb1461032a578063a8660a781461033d578063a96106551461034657600080fd5b806359633a1c1161011557806359633a1c146102625780635ad6076b146102775780635fbd83f41461029a578063715018a6146102d957806386d1a69f146102e15780638da5cb5b146102e957600080fd5b8063015677391461015d578063154e4e56146101bd578063366dc083146101f4578063422193de1461022f5780634cfc4d301461024e5780635689141214610259575b600080fd5b61019661016b3660046112fa565b6001602081905260009182526040909120805491810154600282015460039092015490919060ff1684565b60408051948552602085019390935291830152151560608201526080015b60405180910390f35b6101c56103ab565b6040805196875260208701959095529385019290925260608401526080830152151560a082015260c0016101b4565b6102076102023660046112fa565b610417565b604080519586526020860194909452928401919091526060830152608082015260a0016101b4565b61024069043c33c193756480000081565b6040519081526020016101b4565b6102406307b98a0081565b61024060035481565b6102756102703660046112fa565b6104b2565b005b61028a6102853660046112fa565b6106d6565b60405190151581526020016101b4565b6102c17f000000000000000000000000000000000000000000000000000000000000000081565b6040516001600160a01b0390911681526020016101b4565b6102756106e9565b6102756106fd565b6000546001600160a01b03166102c1565b61030261086b565b6040516101b4919061131c565b61027561031d366004611369565b6108cd565b600254610240565b6102c1610338366004611393565b610aab565b61024060055481565b6102756103543660046113f8565b610ad5565b61024062278d0081565b61024069d3c21bcecceda100000081565b610275610dc7565b61024060045481565b6102756103933660046112fa565b610f40565b6102756103a63660046112fa565b6110c5565b60035460045460008080806103c0858761147a565b6005549094501561040f576000600554426103db919061147a565b90506103ea62278d0082611493565b935060328411156103fa57603293505b61040584603261147a565b9250505060328210155b909192939495565b6001600160a01b038116600090815260016020819052604082208054918101549192908190819061044787611103565b600554909450156104a857600060055442610462919061147a565b905061047162278d0082611493565b9250603283111561048157603292505b61049569043c33c1937564800000846114b5565b82549094508411156104a657815493505b505b5091939590929450565b6104ba6111c1565b600554156104e35760405162461bcd60e51b81526004016104da906114cc565b60405180910390fd5b6001600160a01b03811660009081526001602052604090206003015460ff1661051e5760405162461bcd60e51b81526004016104da90611503565b6001600160a01b038116600090815260016020819052604090912001541561057b5760405162461bcd60e51b815260206004820152601060248201526f105b1c9958591e481c995b19585cd95960821b60448201526064016104da565b6001600160a01b038116600090815260016020526040812060038101805460ff191690558190555b60025481101561069e57816001600160a01b0316600282815481106105ca576105ca61152e565b6000918252602090912001546001600160a01b03160361069657600280546105f49060019061147a565b815481106106045761060461152e565b600091825260209091200154600280546001600160a01b0390921691839081106106305761063061152e565b9060005260206000200160006101000a8154816001600160a01b0302191690836001600160a01b03160217905550600280548061066f5761066f611544565b600082815260209020810160001990810180546001600160a01b031916905501905561069e565b6001016105a3565b506040516001600160a01b038216907f72977dad29432f655f11c2f0e72ef5124bb9ade7a512fb7a43a9f504df22342890600090a250565b6000806106e283611103565b1192915050565b6106f16111c1565b6106fb60006111ee565b565b336000908152600160205260409020600381015460ff166107305760405162461bcd60e51b81526004016104da90611503565b6000600554116107785760405162461bcd60e51b815260206004820152601360248201527215995cdd1a5b99c81b9bdd081cdd185c9d1959606a1b60448201526064016104da565b600061078333611103565b9050600081116107ca5760405162461bcd60e51b81526020600482015260126024820152714e6f7468696e6720746f2072656c6561736560701b60448201526064016104da565b808260010160008282546107de919061155a565b9250508190555080600460008282546107f7919061155a565b9091555061083190506001600160a01b037f000000000000000000000000000000000000000000000000000000000000000016338361123e565b60405181815233907fc7798891864187665ac6dd119286e44ec13f014527aeeb2b8eb3fd413df93179906020015b60405180910390a25050565b606060028054806020026020016040519081016040528092919081815260200182805480156108c357602002820191906000526020600020905b81546001600160a01b031681526001909101906020018083116108a5575b5050505050905090565b6108d56111c1565b600554156108f55760405162461bcd60e51b81526004016104da906114cc565b6001600160a01b03821661093d5760405162461bcd60e51b815260206004820152600f60248201526e496e76616c6964206164647265737360881b60448201526064016104da565b6000811161097e5760405162461bcd60e51b815260206004820152600e60248201526d125b9d985b1a5908185b5bdd5b9d60921b60448201526064016104da565b6001600160a01b03821660009081526001602052604090206003015460ff16156109db5760405162461bcd60e51b815260206004820152600e60248201526d416c72656164792065786973747360901b60448201526064016104da565b60408051608081018252828152600060208083018281528385018381526001606086018181526001600160a01b038a1680875282865288872097518855935187830155915160028088019190915591516003909601805460ff191696151596909617909555805494850181559092527f405787fa12a823e0f2b7631cc41b3ba8828b3321ca811111fa75cd3aa3bb5ace90920180546001600160a01b0319168217905591518381527fe6b83177f11971ba30369bb38b914ffba97d5969a3c857b286fa8fdbb150b3ba910161085f565b60028181548110610abb57600080fd5b6000918252602090912001546001600160a01b0316905081565b610add6111c1565b60055415610afd5760405162461bcd60e51b81526004016104da906114cc565b828114610b3e5760405162461bcd60e51b815260206004820152600f60248201526e098cadccee8d040dad2e6dac2e8c6d608b1b60448201526064016104da565b6000805b84811015610d75576000868683818110610b5e57610b5e61152e565b9050602002016020810190610b7391906112fa565b90506000858584818110610b8957610b8961152e565b60200291909101359150506001600160a01b038216610bdc5760405162461bcd60e51b815260206004820152600f60248201526e496e76616c6964206164647265737360881b60448201526064016104da565b60008111610c1d5760405162461bcd60e51b815260206004820152600e60248201526d125b9d985b1a5908185b5bdd5b9d60921b60448201526064016104da565b6001600160a01b03821660009081526001602052604090206003015460ff1615610c7a5760405162461bcd60e51b815260206004820152600e60248201526d416c72656164792065786973747360901b60448201526064016104da565b60408051608081018252828152600060208083018281528385018381526001606086018181526001600160a01b038a1680875294829052968520955186559151858301555160028086019190915594516003909401805460ff191694151594909417909355835492830184559290527f405787fa12a823e0f2b7631cc41b3ba8828b3321ca811111fa75cd3aa3bb5ace0180546001600160a01b0319169091179055610d26818561155a565b9350816001600160a01b03167fe6b83177f11971ba30369bb38b914ffba97d5969a3c857b286fa8fdbb150b3ba82604051610d6391815260200190565b60405180910390a25050600101610b42565b5069d3c21bcecceda1000000811115610dc05760405162461bcd60e51b815260206004820152600d60248201526c115e18d959591cc81d1bdd185b609a1b60448201526064016104da565b5050505050565b610dcf6111c1565b60055415610e115760405162461bcd60e51b815260206004820152600f60248201526e105b1c9958591e481cdd185c9d1959608a1b60448201526064016104da565b6040516370a0823160e01b815230600482015269d3c21bcecceda1000000907f00000000000000000000000000000000000000000000000000000000000000006001600160a01b0316906370a0823190602401602060405180830381865afa158015610e81573d6000803e3d6000fd5b505050506040513d601f19601f82011682018060405250810190610ea5919061156d565b1015610ee95760405162461bcd60e51b8152602060048201526013602482015272496e73756666696369656e7420746f6b656e7360681b60448201526064016104da565b42600581905569d3c21bcecceda100000060038190556040517f02149ee86341dfe4a75ef32004c5df9f57f55651c72faeee9a9e2c8985c7957b92610f3692908252602082015260400190565b60405180910390a1565b6001600160a01b0381166000908152600160205260409020600381015460ff16610f7c5760405162461bcd60e51b81526004016104da90611503565b600060055411610fc45760405162461bcd60e51b815260206004820152601360248201527215995cdd1a5b99c81b9bdd081cdd185c9d1959606a1b60448201526064016104da565b6000610fcf83611103565b9050600081116110165760405162461bcd60e51b81526020600482015260126024820152714e6f7468696e6720746f2072656c6561736560701b60448201526064016104da565b8082600101600082825461102a919061155a565b925050819055508060046000828254611043919061155a565b9091555061107d90506001600160a01b037f000000000000000000000000000000000000000000000000000000000000000016848361123e565b826001600160a01b03167fc7798891864187665ac6dd119286e44ec13f014527aeeb2b8eb3fd413df93179826040516110b891815260200190565b60405180910390a2505050565b6110cd6111c1565b6001600160a01b0381166110f757604051631e4fbdf760e01b8152600060048201526024016104da565b611100816111ee565b50565b6001600160a01b0381166000908152600160205260408120600381015460ff16158061112f5750600554155b1561113d5750600092915050565b60006005544261114d919061147a565b905062278d00811015611164575060009392505050565b600061117362278d0083611493565b90506032811115611182575060325b600061119869043c33c1937564800000836114b5565b84549091508111156111a8575082545b60018401546111b7908261147a565b9695505050505050565b6000546001600160a01b031633146106fb5760405163118cdaa760e01b81523360048201526024016104da565b600080546001600160a01b038381166001600160a01b0319831681178455604051919092169283917f8be0079c531659141344cd1fd0a4f28419497f9722a3daafe3b4186f6b6457e09190a35050565b61124b8383836001611278565b61127357604051635274afe760e01b81526001600160a01b03841660048201526024016104da565b505050565b60405163a9059cbb60e01b60008181526001600160a01b038616600452602485905291602083604481808b5af1925060016000511483166112d25783831516156112c5573d6000823e3d81fd5b6000873b113d1516831692505b60405250949350505050565b80356001600160a01b03811681146112f557600080fd5b919050565b60006020828403121561130c57600080fd5b611315826112de565b9392505050565b6020808252825182820181905260009190848201906040850190845b8181101561135d5783516001600160a01b031683529284019291840191600101611338565b50909695505050505050565b6000806040838503121561137c57600080fd5b611385836112de565b946020939093013593505050565b6000602082840312156113a557600080fd5b5035919050565b60008083601f8401126113be57600080fd5b50813567ffffffffffffffff8111156113d657600080fd5b6020830191508360208260051b85010111156113f157600080fd5b9250929050565b6000806000806040858703121561140e57600080fd5b843567ffffffffffffffff8082111561142657600080fd5b611432888389016113ac565b9096509450602087013591508082111561144b57600080fd5b50611458878288016113ac565b95989497509550505050565b634e487b7160e01b600052601160045260246000fd5b8181038181111561148d5761148d611464565b92915050565b6000826114b057634e487b7160e01b600052601260045260246000fd5b500490565b808202811582820484141761148d5761148d611464565b60208082526017908201527f56657374696e6720616c72656164792073746172746564000000000000000000604082015260600190565b6020808252601190820152704e6f7420612062656e656669636961727960781b604082015260600190565b634e487b7160e01b600052603260045260246000fd5b634e487b7160e01b600052603160045260246000fd5b8082018082111561148d5761148d611464565b60006020828403121561157f57600080fd5b505191905056fea26469706673582212206c9fdc65ec659b970ea1f0ca491adbd21666c81c7fad1d0166052713b8d937e964736f6c63430008180033",
  "linkReferences": {},
  "deployedLinkReferences": {}
}