{
  "_format": "hh-sol-artifact-1",
  "contractName": "VIPSystem",
  "sourceName": "src/VIPSystem.sol",
  "abi": [
    {
      "inputs": [
        {
          "internalType": "address",
          "name": "_usdt",
          "type": "address"
        },
        {
          "internalType": "address",
          "name": "_tft",
          "type": "address"
        },
        {
          "internalType": "address",
          "name": "_nodePool",
          "type": "address"
        },
        {
          "internalType": "address",
          "name": "_operationsWallet",
          "type": "address"
        },
        {
          "internalType": "address",
          "name": "_marketMakerPool",
          "type": "address"
        },
        {
          "internalType": "address",
          "name": "_priceOracle",
          "type": "address"
        }
      ],
      "stateMutability": "nonpayable",
      "type": "constructor"
    },
    {
      "inputs": [
        {
          "internalType": "address",
          "name": "owner",
          "type": "address"
        }
      ],
      "name": "OwnableInvalidOwner",
      "type": "error"
    },
    {
      "inputs": [
        {
          "internalType": "address",
          "name": "account",
          "type": "address"
        }
      ],
      "name": "OwnableUnauthorizedAccount",
      "type": "error"
    },
    {
      "inputs": [],
      "name": "ReentrancyGuardReentrantCall",
      "type": "error"
    },
    {
      "inputs": [
        {
          "internalType": "address",
          "name": "token",
          "type": "address"
        }
      ],
      "name": "SafeERC20FailedOperation",
      "type": "error"
    },
    {
      "anonymous": false,
      "inputs": [
        {
          "indexed": true,
          "internalType": "address",
          "name": "user",
          "type": "address"
        },
        {
          "indexed": false,
          "internalType": "uint256",
          "name": "amount",
          "type": "uint256"
        }
      ],
      "name": "DirectRewardClaimed",
      "type": "event"
    },
    {
      "anonymous": false,
      "inputs": [
        {
          "indexed": true,
          "internalType": "address",
          "name": "previousOwner",
          "type": "address"
        },
        {
          "indexed": true,
          "internalType": "address",
          "name": "newOwner",
          "type": "address"
        }
      ],
      "name": "OwnershipTransferred",
      "type": "event"
    },
    {
      "anonymous": false,
      "inputs": [
        {
          "indexed": true,
          "internalType": "address",
          "name": "user",
          "type": "address"
        },
        {
          "indexed": true,
          "internalType": "address",
          "name": "referrer",
          "type": "address"
        },
        {
          "indexed": false,
          "internalType": "uint256",
          "name": "level",
          "type": "uint256"
        }
      ],
      "name": "ReferralRegistered",
      "type": "event"
    },
    {
      "anonymous": false,
      "inputs": [
        {
          "indexed": true,
          "internalType": "address",
          "name": "user",
          "type": "address"
        },
        {
          "indexed": false,
          "internalType": "uint256",
          "name": "reinvestAmount",
          "type": "uint256"
        },
        {
          "indexed": false,
          "internalType": "uint256",
          "name": "withdrawableAmount",
          "type": "uint256"
        }
      ],
      "name": "ReinvestmentTriggered",
      "type": "event"
    },
    {
      "anonymous": false,
      "inputs": [
        {
          "indexed": true,
          "internalType": "address",
          "name": "user",
          "type": "address"
        },
        {
          "indexed": false,
          "internalType": "uint256",
          "name": "amount",
          "type": "uint256"
        }
      ],
      "name": "SeePointRewardClaimed",
      "type": "event"
    },
    {
      "anonymous": false,
      "inputs": [
        {
          "indexed": true,
          "internalType": "address",
          "name": "user",
          "type": "address"
        },
        {
          "indexed": false,
          "internalType": "uint256",
          "name": "level",
          "type": "uint256"
        },
        {
          "indexed": false,
          "internalType": "uint256",
          "name": "amount",
          "type": "uint256"
        }
      ],
      "name": "SeePointRewardDistributed",
      "type": "event"
    },
    {
      "anonymous": false,
      "inputs": [
        {
          "indexed": false,
          "internalType": "uint256",
          "name": "newPrice",
          "type": "uint256"
        }
      ],
      "name": "TFTPriceUpdated",
      "type": "event"
    },
    {
      "anonymous": false,
      "inputs": [
        {
          "indexed": true,
          "internalType": "address",
          "name": "user",
          "type": "address"
        },
        {
          "indexed": true,
          "internalType": "address",
          "name": "referrer",
          "type": "address"
        },
        {
          "indexed": false,
          "internalType": "uint256",
          "name": "tftReturned",
          "type": "uint256"
        }
      ],
      "name": "VIPActivated",
      "type": "event"
    },
    {
      "inputs": [],
      "name": "DIRECT_REFERRAL_REWARD",
      "outputs": [
        {
          "internalType": "uint256",
          "name": "",
          "type": "uint256"
        }
      ],
      "stateMutability": "view",
      "type": "function"
    },
    {
      "inputs": [],
      "name": "MAX_REFERRAL_LEVELS",
      "outputs": [
        {
          "internalType": "uint256",
          "name": "",
          "type": "uint256"
        }
      ],
      "stateMutability": "view",
      "type": "function"
    },
    {
      "inputs": [],
      "name": "REINVEST_AMOUNT",
      "outputs": [
        {
          "internalType": "uint256",
          "name": "",
          "type": "uint256"
        }
      ],
      "stateMutability": "view",
      "type": "function"
    },
    {
      "inputs": [],
      "name": "REINVEST_THRESHOLD",
      "outputs": [
        {
          "internalType": "uint256",
          "name": "",
          "type": "uint256"
        }
      ],
      "stateMutability": "view",
      "type": "function"
    },
    {
      "inputs": [],
      "name": "RETURN_RATIO",
      "outputs": [
        {
          "internalType": "uint256",
          "name": "",
          "type": "uint256"
        }
      ],
      "stateMutability": "view",
      "type": "function"
    },
    {
      "inputs": [],
      "name": "SEE_POINT_REWARD",
      "outputs": [
        {
          "internalType": "uint256",
          "name": "",
          "type": "uint256"
        }
      ],
      "stateMutability": "view",
      "type": "function"
    },
    {
      "inputs": [],
      "name": "VIP_ACTIVATION_FEE",
      "outputs": [
        {
          "internalType": "uint256",
          "name": "",
          "type": "uint256"
        }
      ],
      "stateMutability": "view",
      "type": "function"
    },
    {
      "inputs": [
        {
          "internalType": "address",
          "name": "referrer",
          "type": "address"
        }
      ],
      "name": "activateVIP",
      "outputs": [],
      "stateMutability": "nonpayable",
      "type": "function"
    },
    {
      "inputs": [],
      "name": "burnAddress",
      "outputs": [
        {
          "internalType": "address",
          "name": "",
          "type": "address"
        }
      ],
      "stateMutability": "view",
      "type": "function"
    },
    {
      "inputs": [
        {
          "internalType": "uint256",
          "name": "usdtAmount",
          "type": "uint256"
        }
      ],
      "name": "calculateTFTReturn",
      "outputs": [
        {
          "internalType": "uint256",
          "name": "",
          "type": "uint256"
        }
      ],
      "stateMutability": "view",
      "type": "function"
    },
    {
      "inputs": [
        {
          "internalType": "address",
          "name": "user",
          "type": "address"
        }
      ],
      "name": "canReinvest",
      "outputs": [
        {
          "internalType": "bool",
          "name": "",
          "type": "bool"
        }
      ],
      "stateMutability": "view",
      "type": "function"
    },
    {
      "inputs": [],
      "name": "claimDirectReward",
      "outputs": [],
      "stateMutability": "nonpayable",
      "type": "function"
    },
    {
      "inputs": [],
      "name": "claimSeePointReward",
      "outputs": [],
      "stateMutability": "nonpayable",
      "type": "function"
    },
    {
      "inputs": [
        {
          "internalType": "address",
          "name": "user",
          "type": "address"
        }
      ],
      "name": "getDirectReferrals",
      "outputs": [
        {
          "internalType": "address[]",
          "name": "",
          "type": "address[]"
        }
      ],
      "stateMutability": "view",
      "type": "function"
    },
    {
      "inputs": [
        {
          "internalType": "address",
          "name": "user",
          "type": "address"
        }
      ],
      "name": "getReferralChain",
      "outputs": [
        {
          "internalType": "address[]",
          "name": "chain",
          "type": "address[]"
        }
      ],
      "stateMutability": "view",
      "type": "function"
    },
    {
      "inputs": [
        {
          "internalType": "address",
          "name": "user",
          "type": "address"
        }
      ],
      "name": "getVIPInfo",
      "outputs": [
        {
          "internalType": "bool",
          "name": "isVIP",
          "type": "bool"
        },
        {
          "internalType": "uint256",
          "name": "activatedAt",
          "type": "uint256"
        },
        {
          "internalType": "address",
          "name": "referrer",
          "type": "address"
        },
        {
          "internalType": "uint256",
          "name": "totalDirectReferrals",
          "type": "uint256"
        },
        {
          "internalType": "uint256",
          "name": "totalSeePointEarned",
          "type": "uint256"
        },
        {
          "internalType": "uint256",
          "name": "pendingSeePoint",
          "type": "uint256"
        }
      ],
      "stateMutability": "view",
      "type": "function"
    },
    {
      "inputs": [
        {
          "internalType": "address",
          "name": "user",
          "type": "address"
        }
      ],
      "name": "getVIPRewards",
      "outputs": [
        {
          "internalType": "uint256",
          "name": "pendingDirectReward",
          "type": "uint256"
        },
        {
          "internalType": "bool",
          "name": "reinvestTriggered",
          "type": "bool"
        },
        {
          "internalType": "uint256",
          "name": "lastReinvestTime",
          "type": "uint256"
        },
        {
          "internalType": "bool",
          "name": "reinvestAvailable",
          "type": "bool"
        }
      ],
      "stateMutability": "view",
      "type": "function"
    },
    {
      "inputs": [],
      "name": "marketMakerPool",
      "outputs": [
        {
          "internalType": "address",
          "name": "",
          "type": "address"
        }
      ],
      "stateMutability": "view",
      "type": "function"
    },
    {
      "inputs": [],
      "name": "nodePool",
      "outputs": [
        {
          "internalType": "address",
          "name": "",
          "type": "address"
        }
      ],
      "stateMutability": "view",
      "type": "function"
    },
    {
      "inputs": [],
      "name": "operationsWallet",
      "outputs": [
        {
          "internalType": "address",
          "name": "",
          "type": "address"
        }
      ],
      "stateMutability": "view",
      "type": "function"
    },
    {
      "inputs": [],
      "name": "owner",
      "outputs": [
        {
          "internalType": "address",
          "name": "",
          "type": "address"
        }
      ],
      "stateMutability": "view",
      "type": "function"
    },
    {
      "inputs": [
        {
          "internalType": "address",
          "name": "",
          "type": "address"
        }
      ],
      "name": "pendingDirectRewards",
      "outputs": [
        {
          "internalType": "uint256",
          "name": "",
          "type": "uint256"
        }
      ],
      "stateMutability": "view",
      "type": "function"
    },
    {
      "inputs": [],
      "name": "priceOracle",
      "outputs": [
        {
          "internalType": "address",
          "name": "",
          "type": "address"
        }
      ],
      "stateMutability": "view",
      "type": "function"
    },
    {
      "inputs": [
        {
          "internalType": "address",
          "name": "",
          "type": "address"
        },
        {
          "internalType": "uint256",
          "name": "",
          "type": "uint256"
        }
      ],
      "name": "referrals",
      "outputs": [
        {
          "internalType": "address",
          "name": "",
          "type": "address"
        }
      ],
      "stateMutability": "view",
      "type": "function"
    },
    {
      "inputs": [],
      "name": "reinvest",
      "outputs": [],
      "stateMutability": "nonpayable",
      "type": "function"
    },
    {
      "inputs": [],
      "name": "renounceOwnership",
      "outputs": [],
      "stateMutability": "nonpayable",
      "type": "function"
    },
    {
      "inputs": [
        {
          "internalType": "address",
          "name": "_oracle",
          "type": "address"
        }
      ],
      "name": "setPriceOracle",
      "outputs": [],
      "stateMutability": "nonpayable",
      "type": "function"
    },
    {
      "inputs": [
        {
          "internalType": "uint256",
          "name": "_price",
          "type": "uint256"
        }
      ],
      "name": "setTFTPrice",
      "outputs": [],
      "stateMutability": "nonpayable",
      "type": "function"
    },
    {
      "inputs": [],
      "name": "tft",
      "outputs": [
        {
          "internalType": "contract IERC20",
          "name": "",
          "type": "address"
        }
      ],
      "stateMutability": "view",
      "type": "function"
    },
    {
      "inputs": [],
      "name": "tftPriceInUSDT",
      "outputs": [
        {
          "internalType": "uint256",
          "name": "",
          "type": "uint256"
        }
      ],
      "stateMutability": "view",
      "type": "function"
    },
    {
      "inputs": [],
      "name": "totalDirectRewardsDistributed",
      "outputs": [
        {
          "internalType": "uint256",
          "name": "",
          "type": "uint256"
        }
      ],
      "stateMutability": "view",
      "type": "function"
    },
    {
      "inputs": [],
      "name": "totalReinvestments",
      "outputs": [
        {
          "internalType": "uint256",
          "name": "",
          "type": "uint256"
        }
      ],
      "stateMutability": "view",
      "type": "function"
    },
    {
      "inputs": [],
      "name": "totalSeePointRewardsDistributed",
      "outputs": [
        {
          "internalType": "uint256",
          "name": "",
          "type": "uint256"
        }
      ],
      "stateMutability": "view",
      "type": "function"
    },
    {
      "inputs": [],
      "name": "totalVIPs",
      "outputs": [
        {
          "internalType": "uint256",
          "name": "",
          "type": "uint256"
        }
      ],
      "stateMutability": "view",
      "type": "function"
    },
    {
      "inputs": [
        {
          "internalType": "address",
          "name": "newOwner",
          "type": "address"
        }
      ],
      "name": "transferOwnership",
      "outputs": [],
      "stateMutability": "nonpayable",
      "type": "function"
    },
    {
      "inputs": [
        {
          "internalType": "address",
          "name": "_nodePool",
          "type": "address"
        },
        {
          "internalType": "address",
          "name": "_operationsWallet",
          "type": "address"
        },
        {
          "internalType": "address",
          "name": "_marketMakerPool",
          "type": "address"
        }
      ],
      "name": "updateAddresses",
      "outputs": [],
      "stateMutability": "nonpayable",
      "type": "function"
    },
    {
      "inputs": [],
      "name": "usdt",
      "outputs": [
        {
          "internalType": "contract IERC20",
          "name": "",
          "type": "address"
        }
      ],
      "stateMutability": "view",
      "type": "function"
    },
    {
      "inputs": [
        {
          "internalType": "address",
          "name": "",
          "type": "address"
        }
      ],
      "name": "vipUsers",
      "outputs": [
        {
          "internalType": "bool",
          "name": "isVIP",
          "type": "bool"
        },
        {
          "internalType": "uint256",
          "name": "activatedAt",
          "type": "uint256"
        },
        {
          "internalType": "address",
          "name": "referrer",
          "type": "address"
        },
        {
          "internalType": "uint256",
          "name": "totalDirectReferrals",
          "type": "uint256"
        },
        {
          "internalType": "uint256",
          "name": "totalSeePointEarned",
          "type": "uint256"
        },
        {
          "internalType": "uint256",
          "name": "pendingSeePoint",
          "type": "uint256"
        },
        {
          "internalType": "bool",
          "name": "reinvestTriggered",
          "type": "bool"
        },
        {
          "internalType": "uint256",
          "name": "lastReinvestTime",
          "type": "uint256"
        }
      ],
      "stateMutability": "view",
      "type": "function"
    }
  ],
  "bytecode": "0x60806040526103e8600f553480156200001757600080fd5b5060405162001cc038038062001cc08339810160408190526200003a916200017e565b33806200006157604051631e4fbdf760e01b81526000600482015260240160405180910390fd5b6200006c8162000111565b5060017f9b779b17422d0df92223018b32b4d1fa46e071723d6817e2486d003becc55f0055600180546001600160a01b03199081166001600160a01b03988916179091556002805482169688169690961790955560038054861694871694909417909355600480548516928616929092179091556005805484169185169190911790556006805461dead908416179055600780549092169216919091179055620001ff565b600080546001600160a01b038381166001600160a01b0319831681178455604051919092169283917f8be0079c531659141344cd1fd0a4f28419497f9722a3daafe3b4186f6b6457e09190a35050565b80516001600160a01b03811681146200017957600080fd5b919050565b60008060008060008060c087890312156200019857600080fd5b620001a38762000161565b9550620001b36020880162000161565b9450620001c36040880162000161565b9350620001d36060880162000161565b9250620001e36080880162000161565b9150620001f360a0880162000161565b90509295509295509295565b611ab1806200020f6000396000f3fe608060405234801561001057600080fd5b50600436106102325760003560e01c8063930b95b211610130578063d2c8e0e5116100b8578063e8a895ea1161007c578063e8a895ea146105b1578063ec0c1904146105bb578063f2fde38b146105c6578063fd72e22a146105d9578063fdb5a03e146105ec57600080fd5b8063d2c8e0e5146104d2578063d85ad4cb146104e5578063d8f1f8f4146104f8578063e697b5d81461050b578063e83c41481461051e57600080fd5b8063b2ec26ca116100ff578063b2ec26ca14610482578063b6356c95146104a5578063b6537080146104ae578063be3b333a146104b7578063cd5995d1146104bf57600080fd5b8063930b95b214610237578063998489be146104655780639ecc458d14610470578063a998c7d71461047957600080fd5b80635fbd83f4116101be5780636f38bcb5116101825780636f38bcb5146103e457806370d5ae0514610404578063715018a6146104175780638da5cb5b1461041f5780638e65ff881461043057600080fd5b80635fbd83f414610397578063617b99d2146103aa5780636667864d146103b25780636d06175a146103d25780636d27f5b9146103db57600080fd5b8063334c143911610205578063334c14391461029d5780633b39d547146102b0578063421a9ab1146102c35780634513443a14610371578063530e784f1461038457600080fd5b80630c3ce2d11461023757806312453be7146102555780632630c12f1461025f5780632f48ab7d1461028a575b600080fd5b6102426305f5e10081565b6040519081526020015b60405180910390f35b61025d6105f4565b005b600754610272906001600160a01b031681565b6040516001600160a01b03909116815260200161024c565b600154610272906001600160a01b031681565b61025d6102ab3660046118ac565b6106da565b61025d6102be3660046118ef565b610721565b6103266102d1366004611908565b6008602052600090815260409020805460018201546002830154600384015460048501546005860154600687015460079097015460ff9687169795966001600160a01b03909516959394929391929091169088565b60408051981515895260208901979097526001600160a01b03909516958701959095526060860192909252608085015260a084015290151560c083015260e08201526101000161024c565b600554610272906001600160a01b031681565b61025d610392366004611908565b6107a4565b600254610272906001600160a01b031681565b610242601481565b6103c56103c0366004611908565b6107ce565b60405161024c919061192a565b610242600e5481565b610242600b5481565b6102426103f2366004611908565b600a6020526000908152604090205481565b600654610272906001600160a01b031681565b61025d610908565b6000546001600160a01b0316610272565b61044361043e366004611908565b61091a565b604080519485529215156020850152918301521515606082015260800161024c565b6102426302faf08081565b610242600f5481565b6102426107d081565b610495610490366004611908565b6109b6565b604051901515815260200161024c565b610242600d5481565b610242600c5481565b61025d610a34565b6102426104cd3660046118ef565b610b51565b6103c56104e0366004611908565b610b62565b61025d6104f3366004611908565b610bd8565b600354610272906001600160a01b031681565b610272610519366004611977565b610ef7565b61057461052c366004611908565b6001600160a01b0390811660009081526008602052604090208054600182015460028301546003840154600485015460059095015460ff909416969295919091169390929091565b60408051961515875260208701959095526001600160a01b03909316938501939093526060840152608083019190915260a082015260c00161024c565b610242620f424081565b610242630bebc20081565b61025d6105d4366004611908565b610f2f565b600454610272906001600160a01b031681565b61025d610f6a565b6105fc611089565b336000908152600a60205260409020548061064b5760405162461bcd60e51b815260206004820152600a6024820152694e6f207265776172647360b01b60448201526064015b60405180910390fd5b336000818152600a6020526040812055600154610674916001600160a01b0390911690836110a5565b80600c600082825461068691906119b7565b909155505060405181815233907f337ac2dfc6cb3b7496bd8f7ac8e65bada18be4b66d2dec32081f2b7ca27a890d9060200160405180910390a2506106d86001600080516020611a5c83398151915255565b565b6106e26110df565b600380546001600160a01b039485166001600160a01b031991821617909155600480549385169382169390931790925560058054919093169116179055565b6107296110df565b600081116107695760405162461bcd60e51b815260206004820152600d60248201526c496e76616c696420707269636560981b6044820152606401610642565b600f8190556040518181527f87156e231bfbfc49c5c5419a1a2298d225c133522194f86e33345add7e1e299c9060200160405180910390a150565b6107ac6110df565b600780546001600160a01b0319166001600160a01b0392909216919091179055565b6001600160a01b03808216600090815260086020526040812060020154606092165b6001600160a01b038116158015906108085750601482105b156108415781610817816119ca565b6001600160a01b0392831660009081526008602052604090206002015490935090911690506107f0565b8167ffffffffffffffff81111561085a5761085a6119e3565b604051908082528060200260200182016040528015610883578160200160208202803683370190505b506001600160a01b03808616600090815260086020526040812060020154929550911691505b8281101561090057818482815181106108c4576108c46119f9565b6001600160a01b0392831660209182029290920181019190915292811660009081526008909352604090922060020154909116906001016108a9565b505050919050565b6109106110df565b6106d8600061110c565b6001600160a01b038116600090815260086020526040812080548291829182919060ff1680156109525750630bebc200816004015410155b801561097e5750600681015460ff16158061097e5750600781015461097a906202a3006119b7565b4210155b6001600160a01b03969096166000908152600a60205260409020546006820154600790920154909760ff909216969095509350915050565b6001600160a01b0381166000908152600860205260408120805460ff166109e05750600092915050565b630bebc200816004015410156109f95750600092915050565b600681015460ff168015610a1d57506007810154610a1a906202a3006119b7565b42105b15610a2b5750600092915050565b50600192915050565b610a3c611089565b336000908152600860205260409020805460ff16610a865760405162461bcd60e51b815260206004820152600760248201526604e6f74205649560cc1b6044820152606401610642565b600581015480610ac55760405162461bcd60e51b815260206004820152600a6024820152694e6f207265776172647360b01b6044820152606401610642565b60006005830155600154610ae3906001600160a01b031633836110a5565b80600d6000828254610af591906119b7565b909155505060405181815233907f203b86e7bccae1d33cca5353707916922fd960df96490126f2044b58223368179060200160405180910390a2610b383361115c565b50506106d86001600080516020611a5c83398151915255565b6000610b5c826111a3565b92915050565b6001600160a01b038116600090815260096020908152604091829020805483518184028101840190945280845260609392830182828015610bcc57602002820191906000526020600020905b81546001600160a01b03168152600190910190602001808311610bae575b50505050509050919050565b610be0611089565b3360009081526008602052604090205460ff1615610c2e5760405162461bcd60e51b815260206004820152600b60248201526a0416c7265616479205649560ac1b6044820152606401610642565b336001600160a01b03821603610c7a5760405162461bcd60e51b815260206004820152601160248201527021b0b73737ba103932b332b91039b2b63360791b6044820152606401610642565b6001600160a01b0381161580610ca857506001600160a01b03811660009081526008602052604090205460ff165b610ceb5760405162461bcd60e51b815260206004820152601460248201527305265666572726572206d757374206265205649560641b6044820152606401610642565b600154610d07906001600160a01b031633306305f5e1006111c5565b604080516101008101825260018082524260208084019182526001600160a01b038087168587019081526000606087018181526080880182815260a0890183815260c08a0184815260e08b018581523380875260089099529b90942099518a5490151560ff19918216178b559751988a01989098559251600289018054919095166001600160a01b03199091161790935591516003870155516004860155925160058501559151600684018054911515919092161790559151600790910155610dd09082611201565b6001600160a01b03811615610e7e576001600160a01b0381166000908152600860205260408120600301805491610e06836119ca565b90915550506001600160a01b03811660008181526009602090815260408083208054600180820183559185529383902090930180546001600160a01b031916339081179091559051928352917f90eab5d1df713df401d810f26aa9718d2b9e6894af1eb4890a332d3b185dc0e5910160405180910390a35b600b8054906000610e8e836119ca565b90915550506001600160a01b038116337f5b1bb5592d662a3054ef0a4dd926804548b6cf8ce8b0d0d31585f060f46395e1610ecc6305f5e1006111a3565b60405190815260200160405180910390a3610ef46001600080516020611a5c83398151915255565b50565b60096020528160005260406000208181548110610f1357600080fd5b6000918252602090912001546001600160a01b03169150829050565b610f376110df565b6001600160a01b038116610f6157604051631e4fbdf760e01b815260006004820152602401610642565b610ef48161110c565b610f72611089565b336000908152600860205260409020805460ff16610fbc5760405162461bcd60e51b815260206004820152600760248201526604e6f74205649560cc1b6044820152606401610642565b630bebc2008160040154101561100c5760405162461bcd60e51b8152602060048201526015602482015274151a1c995cda1bdb19081b9bdd081c995858da1959605a1b6044820152606401610642565b600681015460ff1615806110315750600781015461102d906202a3006119b7565b4210155b6110685760405162461bcd60e51b815260206004820152600860248201526721b7b7b63237bbb760c11b6044820152606401610642565b61107133611432565b506106d86001600080516020611a5c83398151915255565b61109161162c565b6002600080516020611a5c83398151915255565b6110b2838383600161165c565b6110da57604051635274afe760e01b81526001600160a01b0384166004820152602401610642565b505050565b6000546001600160a01b031633146106d85760405163118cdaa760e01b8152336004820152602401610642565b600080546001600160a01b038381166001600160a01b0319831681178455604051919092169283917f8be0079c531659141344cd1fd0a4f28419497f9722a3daafe3b4186f6b6457e09190a35050565b6001600160a01b03811660009081526008602052604090206004810154630bebc200118015906111915750600681015460ff16155b1561119f5761119f82611432565b5050565b600f546000906111bb83670de0b6b3a7640000611a0f565b610b5c9190611a26565b6111d38484848460016116c2565b6111fb57604051635274afe760e01b81526001600160a01b0385166004820152602401610642565b50505050565b6305f5e10060006127106112178361012c611a0f565b6112219190611a26565b905060008111801561123d57506003546001600160a01b031615155b1561125f5760035460015461125f916001600160a01b039182169116836110a5565b600061271061126f846064611a0f565b6112799190611a26565b905060008111801561129557506004546001600160a01b031615155b156112b7576004546001546112b7916001600160a01b039182169116836110a5565b60006127106112c7856064611a0f565b6112d19190611a26565b90506000811180156112ed57506005546001600160a01b031615155b1561130f5760055460015461130f916001600160a01b039182169116836110a5565b6000612710611320866101f4611a0f565b61132a9190611a26565b9050801561134f5760065460015461134f916001600160a01b039182169116836110a5565b600061271061136087611388611a0f565b61136a9190611a26565b905060008111801561138457506001600160a01b03871615155b156113b7576001600160a01b0387166000908152600a6020526040812080548392906113b19084906119b7565b90915550505b60006127106113c8886107d0611a0f565b6113d29190611a26565b90506113de8982611734565b60006127106113ef6107d08a611a0f565b6113f99190611a26565b90506000611406826111a3565b9050801561142557600254611425906001600160a01b03168c836110a5565b5050505050505050505050565b6001600160a01b0381166000908152600860205260408120600481015490916305f5e10091611462908390611a48565b60068401805460ff1916600117905542600785015560048401819055905060006127106114918461012c611a0f565b61149b9190611a26565b90506000811180156114b757506003546001600160a01b031615155b156114d9576003546001546114d9916001600160a01b039182169116836110a5565b60006127106114e9856064611a0f565b6114f39190611a26565b905060008111801561150f57506004546001600160a01b031615155b1561153157600454600154611531916001600160a01b039182169116836110a5565b6000612710611541866064611a0f565b61154b9190611a26565b905060008111801561156757506005546001600160a01b031615155b1561158957600554600154611589916001600160a01b039182169116836110a5565b600061271061159a876101f4611a0f565b6115a49190611a26565b905080156115c9576006546001546115c9916001600160a01b039182169116836110a5565b600e80549060006115d9836119ca565b909155505060408051878152602081018790526001600160a01b038a16917ff421cca2722190f4c2d3e2ab88d40eab915757d0e4ebd56c9551bf23e070f4b1910160405180910390a25050505050505050565b600080516020611a5c833981519152546002036106d857604051633ee5aeb560e01b815260040160405180910390fd5b60405163a9059cbb60e01b60008181526001600160a01b038616600452602485905291602083604481808b5af1925060016000511483166116b65783831516156116a9573d6000823e3d81fd5b6000873b113d1516831692505b60405250949350505050565b6040516323b872dd60e01b60008181526001600160a01b038781166004528616602452604485905291602083606481808c5af192506001600051148316611722578383151615611715573d6000823e3d81fd5b6000883b113d1516831692505b60405250600060605295945050505050565b6001600160a01b03808316600090815260086020526040812060020154909116906001905b6001600160a01b03831615801590611772575060148211155b801561177d57508381105b1561188957620f42408461179182846119b7565b11156117a4576117a18286611a48565b90505b6001600160a01b038416600090815260086020526040812060050180548392906117cf9084906119b7565b90915550506001600160a01b038416600090815260086020526040812060040180548392906117ff9084906119b7565b909155505060408051848152602081018390526001600160a01b038616917f31b26951ab5fbbb994cb792be38de8e429ed0fbb0cb04aa9e21b2d13d0e5de42910160405180910390a26001600160a01b039384166000908152600860205260409020600201549093169282611873816119ca565b9350611881905081836119b7565b915050611759565b5050505050565b80356001600160a01b03811681146118a757600080fd5b919050565b6000806000606084860312156118c157600080fd5b6118ca84611890565b92506118d860208501611890565b91506118e660408501611890565b90509250925092565b60006020828403121561190157600080fd5b5035919050565b60006020828403121561191a57600080fd5b61192382611890565b9392505050565b6020808252825182820181905260009190848201906040850190845b8181101561196b5783516001600160a01b031683529284019291840191600101611946565b50909695505050505050565b6000806040838503121561198a57600080fd5b61199383611890565b946020939093013593505050565b634e487b7160e01b600052601160045260246000fd5b80820180821115610b5c57610b5c6119a1565b6000600182016119dc576119dc6119a1565b5060010190565b634e487b7160e01b600052604160045260246000fd5b634e487b7160e01b600052603260045260246000fd5b8082028115828204841417610b5c57610b5c6119a1565b600082611a4357634e487b7160e01b600052601260045260246000fd5b500490565b81810381811115610b5c57610b5c6119a156fe9b779b17422d0df92223018b32b4d1fa46e071723d6817e2486d003becc55f00a2646970667358221220a41721df9720d0473a66f9802e968d59eacca7cd3d0eb9194907a03d0114673e64736f6c63430008180033",
  "linkReferences": {},
  "deployedLinkReferences": {}
}