{
  "_format": "hh-sol-artifact-1",
  "contractName": "TradeFutureToken",
  "sourceName": "src/TradeFutureToken.sol",
  "abi": [
    {
      "inputs": [
        {
          "internalType": "address",
          "name": "_nodeDividendWallet",
          "type": "address"
        },
        {
          "internalType": "address",
          "name": "_operationsWallet",
          "type": "address"
        },
        {
          "internalType": "address",
          "name": "_marketMakerWallet",
          "type": "address"
        }
      ],
      "stateMutability": "nonpayable",
      "type": "constructor"
    },
    {
      "inputs": [
        {
          "internalType": "address",
          "name": "spender",
          "type": "address"
        },
        {
          "internalType": "uint256",
          "name": "allowance",
          "type": "uint256"
        },
        {
          "internalType": "uint256",
          "name": "needed",
          "type": "uint256"
        }
      ],
      "name": "ERC20InsufficientAllowance",
      "type": "error"
    },
    {
      "inputs": [
        {
          "internalType": "address",
          "name": "sender",
          "type": "address"
        },
        {
          "internalType": "uint256",
          "name": "balance",
          "type": "uint256"
        },
        {
          "internalType": "uint256",
          "name": "needed",
          "type": "uint256"
        }
      ],
      "name": "ERC20InsufficientBalance",
      "type": "error"
    },
    {
      "inputs": [
        {
          "internalType": "address",
          "name": "approver",
          "type": "address"
        }
      ],
      "name": "ERC20InvalidApprover",
      "type": "error"
    },
    {
      "inputs": [
        {
          "internalType": "address",
          "name": "receiver",
          "type": "address"
        }
      ],
      "name": "ERC20InvalidReceiver",
      "type": "error"
    },
    {
      "inputs": [
        {
          "internalType": "address",
          "name": "sender",
          "type": "address"
        }
      ],
      "name": "ERC20InvalidSender",
      "type": "error"
    },
    {
      "inputs": [
        {
          "internalType": "address",
          "name": "spender",
          "type": "address"
        }
      ],
      "name": "ERC20InvalidSpender",
      "type": "error"
    },
    {
      "inputs": [
        {
          "internalType": "address",
          "name": "owner",
          "type": "address"
        }
      ],
      "name": "OwnableInvalidOwner",
      "type": "error"
    },
    {
      "inputs": [
        {
          "internalType": "address",
          "name": "account",
          "type": "address"
        }
      ],
      "name": "OwnableUnauthorizedAccount",
      "type": "error"
    },
    {
      "inputs": [],
      "name": "ReentrancyGuardReentrantCall",
      "type": "error"
    },
    {
      "anonymous": false,
      "inputs": [
        {
          "indexed": true,
          "internalType": "address",
          "name": "owner",
          "type": "address"
        },
        {
          "indexed": true,
          "internalType": "address",
          "name": "spender",
          "type": "address"
        },
        {
          "indexed": false,
          "internalType": "uint256",
          "name": "value",
          "type": "uint256"
        }
      ],
      "name": "Approval",
      "type": "event"
    },
    {
      "anonymous": false,
      "inputs": [
        {
          "indexed": true,
          "internalType": "address",
          "name": "previousOwner",
          "type": "address"
        },
        {
          "indexed": true,
          "internalType": "address",
          "name": "newOwner",
          "type": "address"
        }
      ],
      "name": "OwnershipTransferred",
      "type": "event"
    },
    {
      "anonymous": false,
      "inputs": [
        {
          "indexed": true,
          "internalType": "address",
          "name": "from",
          "type": "address"
        },
        {
          "indexed": false,
          "internalType": "uint256",
          "name": "totalTax",
          "type": "uint256"
        },
        {
          "indexed": false,
          "internalType": "uint256",
          "name": "nodeDividend",
          "type": "uint256"
        },
        {
          "indexed": false,
          "internalType": "uint256",
          "name": "operations",
          "type": "uint256"
        },
        {
          "indexed": false,
          "internalType": "uint256",
          "name": "marketMaker",
          "type": "uint256"
        },
        {
          "indexed": false,
          "internalType": "uint256",
          "name": "burnAmount",
          "type": "uint256"
        }
      ],
      "name": "TaxDistributed",
      "type": "event"
    },
    {
      "anonymous": false,
      "inputs": [
        {
          "indexed": false,
          "internalType": "uint256",
          "name": "nodeDividendRate",
          "type": "uint256"
        },
        {
          "indexed": false,
          "internalType": "uint256",
          "name": "operationsRate",
          "type": "uint256"
        },
        {
          "indexed": false,
          "internalType": "uint256",
          "name": "marketMakerRate",
          "type": "uint256"
        },
        {
          "indexed": false,
          "internalType": "uint256",
          "name": "burnRate",
          "type": "uint256"
        }
      ],
      "name": "TaxRatesUpdated",
      "type": "event"
    },
    {
      "anonymous": false,
      "inputs": [],
      "name": "TradingDisabled",
      "type": "event"
    },
    {
      "anonymous": false,
      "inputs": [],
      "name": "TradingEnabled",
      "type": "event"
    },
    {
      "anonymous": false,
      "inputs": [
        {
          "indexed": true,
          "internalType": "address",
          "name": "from",
          "type": "address"
        },
        {
          "indexed": true,
          "internalType": "address",
          "name": "to",
          "type": "address"
        },
        {
          "indexed": false,
          "internalType": "uint256",
          "name": "value",
          "type": "uint256"
        }
      ],
      "name": "Transfer",
      "type": "event"
    },
    {
      "anonymous": false,
      "inputs": [
        {
          "indexed": false,
          "internalType": "string",
          "name": "walletType",
          "type": "string"
        },
        {
          "indexed": false,
          "internalType": "address",
          "name": "newAddress",
          "type": "address"
        }
      ],
      "name": "WalletUpdated",
      "type": "event"
    },
    {
      "anonymous": false,
      "inputs": [
        {
          "indexed": true,
          "internalType": "address",
          "name": "account",
          "type": "address"
        },
        {
          "indexed": false,
          "internalType": "bool",
          "name": "status",
          "type": "bool"
        }
      ],
      "name": "WhitelistUpdated",
      "type": "event"
    },
    {
      "inputs": [],
      "name": "BURN_ADDRESS",
      "outputs": [
        {
          "internalType": "address",
          "name": "",
          "type": "address"
        }
      ],
      "stateMutability": "view",
      "type": "function"
    },
    {
      "inputs": [],
      "name": "MAX_TOTAL_TAX_RATE",
      "outputs": [
        {
          "internalType": "uint256",
          "name": "",
          "type": "uint256"
        }
      ],
      "stateMutability": "view",
      "type": "function"
    },
    {
      "inputs": [
        {
          "internalType": "address",
          "name": "owner",
          "type": "address"
        },
        {
          "internalType": "address",
          "name": "spender",
          "type": "address"
        }
      ],
      "name": "allowance",
      "outputs": [
        {
          "internalType": "uint256",
          "name": "",
          "type": "uint256"
        }
      ],
      "stateMutability": "view",
      "type": "function"
    },
    {
      "inputs": [
        {
          "internalType": "address",
          "name": "spender",
          "type": "address"
        },
        {
          "internalType": "uint256",
          "name": "value",
          "type": "uint256"
        }
      ],
      "name": "approve",
      "outputs": [
        {
          "internalType": "bool",
          "name": "",
          "type": "bool"
        }
      ],
      "stateMutability": "nonpayable",
      "type": "function"
    },
    {
      "inputs": [
        {
          "internalType": "address",
          "name": "account",
          "type": "address"
        }
      ],
      "name": "balanceOf",
      "outputs": [
        {
          "internalType": "uint256",
          "name": "",
          "type": "uint256"
        }
      ],
      "stateMutability": "view",
      "type": "function"
    },
    {
      "inputs": [
        {
          "internalType": "uint256",
          "name": "value",
          "type": "uint256"
        }
      ],
      "name": "burn",
      "outputs": [],
      "stateMutability": "nonpayable",
      "type": "function"
    },
    {
      "inputs": [
        {
          "internalType": "address",
          "name": "account",
          "type": "address"
        },
        {
          "internalType": "uint256",
          "name": "value",
          "type": "uint256"
        }
      ],
      "name": "burnFrom",
      "outputs": [],
      "stateMutability": "nonpayable",
      "type": "function"
    },
    {
      "inputs": [],
      "name": "burnRate",
      "outputs": [
        {
          "internalType": "uint256",
          "name": "",
          "type": "uint256"
        }
      ],
      "stateMutability": "view",
      "type": "function"
    },
    {
      "inputs": [
        {
          "internalType": "address",
          "name": "_account",
          "type": "address"
        }
      ],
      "name": "canTransfer",
      "outputs": [
        {
          "internalType": "bool",
          "name": "",
          "type": "bool"
        }
      ],
      "stateMutability": "view",
      "type": "function"
    },
    {
      "inputs": [],
      "name": "decimals",
      "outputs": [
        {
          "internalType": "uint8",
          "name": "",
          "type": "uint8"
        }
      ],
      "stateMutability": "view",
      "type": "function"
    },
    {
      "inputs": [],
      "name": "disableTrading",
      "outputs": [],
      "stateMutability": "nonpayable",
      "type": "function"
    },
    {
      "inputs": [],
      "name": "enableTrading",
      "outputs": [],
      "stateMutability": "nonpayable",
      "type": "function"
    },
    {
      "inputs": [
        {
          "internalType": "uint256",
          "name": "amount",
          "type": "uint256"
        }
      ],
      "name": "getTaxBreakdown",
      "outputs": [
        {
          "internalType": "uint256",
          "name": "totalTax",
          "type": "uint256"
        },
        {
          "internalType": "uint256",
          "name": "nodeDividend",
          "type": "uint256"
        },
        {
          "internalType": "uint256",
          "name": "operations",
          "type": "uint256"
        },
        {
          "internalType": "uint256",
          "name": "marketMaker",
          "type": "uint256"
        },
        {
          "internalType": "uint256",
          "name": "burnAmount",
          "type": "uint256"
        },
        {
          "internalType": "uint256",
          "name": "amountAfterTax",
          "type": "uint256"
        }
      ],
      "stateMutability": "view",
      "type": "function"
    },
    {
      "inputs": [],
      "name": "marketMakerRate",
      "outputs": [
        {
          "internalType": "uint256",
          "name": "",
          "type": "uint256"
        }
      ],
      "stateMutability": "view",
      "type": "function"
    },
    {
      "inputs": [],
      "name": "marketMakerWallet",
      "outputs": [
        {
          "internalType": "address",
          "name": "",
          "type": "address"
        }
      ],
      "stateMutability": "view",
      "type": "function"
    },
    {
      "inputs": [],
      "name": "name",
      "outputs": [
        {
          "internalType": "string",
          "name": "",
          "type": "string"
        }
      ],
      "stateMutability": "view",
      "type": "function"
    },
    {
      "inputs": [],
      "name": "nodeDividendRate",
      "outputs": [
        {
          "internalType": "uint256",
          "name": "",
          "type": "uint256"
        }
      ],
      "stateMutability": "view",
      "type": "function"
    },
    {
      "inputs": [],
      "name": "nodeDividendWallet",
      "outputs": [
        {
          "internalType": "address",
          "name": "",
          "type": "address"
        }
      ],
      "stateMutability": "view",
      "type": "function"
    },
    {
      "inputs": [],
      "name": "operationsRate",
      "outputs": [
        {
          "internalType": "uint256",
          "name": "",
          "type": "uint256"
        }
      ],
      "stateMutability": "view",
      "type": "function"
    },
    {
      "inputs": [],
      "name": "operationsWallet",
      "outputs": [
        {
          "internalType": "address",
          "name": "",
          "type": "address"
        }
      ],
      "stateMutability": "view",
      "type": "function"
    },
    {
      "inputs": [],
      "name": "owner",
      "outputs": [
        {
          "internalType": "address",
          "name": "",
          "type": "address"
        }
      ],
      "stateMutability": "view",
      "type": "function"
    },
    {
      "inputs": [
        {
          "internalType": "address",
          "name": "token",
          "type": "address"
        },
        {
          "internalType": "uint256",
          "name": "amount",
          "type": "uint256"
        }
      ],
      "name": "recoverTokens",
      "outputs": [],
      "stateMutability": "nonpayable",
      "type": "function"
    },
    {
      "inputs": [],
      "name": "renounceOwnership",
      "outputs": [],
      "stateMutability": "nonpayable",
      "type": "function"
    },
    {
      "inputs": [
        {
          "internalType": "uint256",
          "name": "_nodeDividendRate",
          "type": "uint256"
        },
        {
          "internalType": "uint256",
          "name": "_operationsRate",
          "type": "uint256"
        },
        {
          "internalType": "uint256",
          "name": "_marketMakerRate",
          "type": "uint256"
        },
        {
          "internalType": "uint256",
          "name": "_burnRate",
          "type": "uint256"
        }
      ],
      "name": "setTaxRates",
      "outputs": [],
      "stateMutability": "nonpayable",
      "type": "function"
    },
    {
      "inputs": [
        {
          "internalType": "address",
          "name": "_account",
          "type": "address"
        },
        {
          "internalType": "bool",
          "name": "_status",
          "type": "bool"
        }
      ],
      "name": "setWhitelist",
      "outputs": [],
      "stateMutability": "nonpayable",
      "type": "function"
    },
    {
      "inputs": [
        {
          "internalType": "address[]",
          "name": "_accounts",
          "type": "address[]"
        },
        {
          "internalType": "bool",
          "name": "_status",
          "type": "bool"
        }
      ],
      "name": "setWhitelistBatch",
      "outputs": [],
      "stateMutability": "nonpayable",
      "type": "function"
    },
    {
      "inputs": [],
      "name": "symbol",
      "outputs": [
        {
          "internalType": "string",
          "name": "",
          "type": "string"
        }
      ],
      "stateMutability": "view",
      "type": "function"
    },
    {
      "inputs": [],
      "name": "totalSupply",
      "outputs": [
        {
          "internalType": "uint256",
          "name": "",
          "type": "uint256"
        }
      ],
      "stateMutability": "view",
      "type": "function"
    },
    {
      "inputs": [],
      "name": "totalTaxRate",
      "outputs": [
        {
          "internalType": "uint256",
          "name": "",
          "type": "uint256"
        }
      ],
      "stateMutability": "view",
      "type": "function"
    },
    {
      "inputs": [],
      "name": "tradingEnabled",
      "outputs": [
        {
          "internalType": "bool",
          "name": "",
          "type": "bool"
        }
      ],
      "stateMutability": "view",
      "type": "function"
    },
    {
      "inputs": [
        {
          "internalType": "address",
          "name": "to",
          "type": "address"
        },
        {
          "internalType": "uint256",
          "name": "amount",
          "type": "uint256"
        }
      ],
      "name": "transfer",
      "outputs": [
        {
          "internalType": "bool",
          "name": "",
          "type": "bool"
        }
      ],
      "stateMutability": "nonpayable",
      "type": "function"
    },
    {
      "inputs": [
        {
          "internalType": "address",
          "name": "from",
          "type": "address"
        },
        {
          "internalType": "address",
          "name": "to",
          "type": "address"
        },
        {
          "internalType": "uint256",
          "name": "amount",
          "type": "uint256"
        }
      ],
      "name": "transferFrom",
      "outputs": [
        {
          "internalType": "bool",
          "name": "",
          "type": "bool"
        }
      ],
      "stateMutability": "nonpayable",
      "type": "function"
    },
    {
      "inputs": [
        {
          "internalType": "address",
          "name": "newOwner",
          "type": "address"
        }
      ],
      "name": "transferOwnership",
      "outputs": [],
      "stateMutability": "nonpayable",
      "type": "function"
    },
    {
      "inputs": [
        {
          "internalType": "address",
          "name": "_nodeDividendWallet",
          "type": "address"
        },
        {
          "internalType": "address",
          "name": "_operationsWallet",
          "type": "address"
        },
        {
          "internalType": "address",
          "name": "_marketMakerWallet",
          "type": "address"
        }
      ],
      "name": "updateWallets",
      "outputs": [],
      "stateMutability": "nonpayable",
      "type": "function"
    },
    {
      "inputs": [
        {
          "internalType": "address",
          "name": "",
          "type": "address"
        }
      ],
      "name": "whitelist",
      "outputs": [
        {
          "internalType": "bool",
          "name": "",
          "type": "bool"
        }
      ],
      "stateMutability": "view",
      "type": "function"
    }
  ],
  "bytecode": "0x608060405261012c6006556064600755606460085560646009553480156200002657600080fd5b5060405162002082380380620020828339810160408190526200004991620004da565b33604051806040016040528060118152602001702a3930b232a33aba3ab932902a37b5b2b760791b8152506040518060400160405280600381526020016215119560ea1b8152508160039081620000a19190620005cb565b506004620000b08282620005cb565b5050506001600160a01b038116620000e357604051631e4fbdf760e01b8152600060048201526024015b60405180910390fd5b620000ee81620002c5565b5060017f9b779b17422d0df92223018b32b4d1fa46e071723d6817e2486d003becc55f00556001600160a01b0383166200016b5760405162461bcd60e51b815260206004820152601360248201527f496e76616c6964206e6f64652077616c6c6574000000000000000000000000006044820152606401620000da565b6001600160a01b038216620001c35760405162461bcd60e51b815260206004820152601960248201527f496e76616c6964206f7065726174696f6e732077616c6c6574000000000000006044820152606401620000da565b6001600160a01b0381166200021b5760405162461bcd60e51b815260206004820152601b60248201527f496e76616c6964206d61726b6574206d616b65722077616c6c657400000000006044820152606401620000da565b600a80546001600160a01b038086166001600160a01b031992831617909255600b8054858416908316179055600c805492841692909116919091179055620002883362000266601290565b6200027390600a620007ac565b620002829062a7d8c0620007c4565b62000317565b620002af336200029b6012600a620007ac565b620002a990612710620007c4565b62000355565b5050600c805460ff60a01b1916905550620007f4565b600580546001600160a01b038381166001600160a01b0319831681179093556040519116919082907f8be0079c531659141344cd1fd0a4f28419497f9722a3daafe3b4186f6b6457e090600090a35050565b6001600160a01b038216620003435760405163ec442f0560e01b815260006004820152602401620000da565b62000351600083836200038a565b5050565b6001600160a01b0382166200038157604051634b637e8f60e11b815260006004820152602401620000da565b62000351826000835b6001600160a01b038316620003b9578060026000828254620003ad9190620007de565b909155506200042d9050565b6001600160a01b038316600090815260208190526040902054818110156200040e5760405163391434e360e21b81526001600160a01b03851660048201526024810182905260448101839052606401620000da565b6001600160a01b03841660009081526020819052604090209082900390555b6001600160a01b0382166200044b576002805482900390556200046a565b6001600160a01b03821660009081526020819052604090208054820190555b816001600160a01b0316836001600160a01b03167fddf252ad1be2c89b69c2b068fc378daa952ba7f163c4a11628f55a4df523b3ef83604051620004b091815260200190565b60405180910390a3505050565b80516001600160a01b0381168114620004d557600080fd5b919050565b600080600060608486031215620004f057600080fd5b620004fb84620004bd565b92506200050b60208501620004bd565b91506200051b60408501620004bd565b90509250925092565b634e487b7160e01b600052604160045260246000fd5b600181811c908216806200054f57607f821691505b6020821081036200057057634e487b7160e01b600052602260045260246000fd5b50919050565b601f821115620005c6576000816000526020600020601f850160051c81016020861015620005a15750805b601f850160051c820191505b81811015620005c257828155600101620005ad565b5050505b505050565b81516001600160401b03811115620005e757620005e762000524565b620005ff81620005f884546200053a565b8462000576565b602080601f8311600181146200063757600084156200061e5750858301515b600019600386901b1c1916600185901b178555620005c2565b600085815260208120601f198616915b82811015620006685788860151825594840194600190910190840162000647565b5085821015620006875787850151600019600388901b60f8161c191681555b5050505050600190811b01905550565b634e487b7160e01b600052601160045260246000fd5b600181815b80851115620006ee578160001904821115620006d257620006d262000697565b80851615620006e057918102915b93841c9390800290620006b2565b509250929050565b6000826200070757506001620007a6565b816200071657506000620007a6565b81600181146200072f57600281146200073a576200075a565b6001915050620007a6565b60ff8411156200074e576200074e62000697565b50506001821b620007a6565b5060208310610133831016604e8410600b84101617156200077f575081810a620007a6565b6200078b8383620006ad565b8060001904821115620007a257620007a262000697565b0290505b92915050565b6000620007bd60ff841683620006f6565b9392505050565b8082028115828204841417620007a657620007a662000697565b80820180821115620007a657620007a662000697565b61187e80620008046000396000f3fe608060405234801561001057600080fd5b50600436106102105760003560e01c80638a8c523c11610125578063bed99850116100ad578063f049c4d61161007c578063f049c4d61461046b578063f2fde38b146104ab578063fbf8aadc146104be578063fccc2813146104c7578063fd72e22a146104d057600080fd5b8063bed9985014610417578063bf040de114610420578063dd62ed3e14610429578063e381ddf81461046257600080fd5b8063a58da0be116100f4578063a58da0be146103cd578063a9059cbb146103e0578063aba3f87d146103f3578063ae1a3740146103fc578063b47e5bda1461040457600080fd5b80638a8c523c146103895780638da5cb5b1461039157806395d89b41146103a25780639b19251a146103aa57600080fd5b8063313ce567116101a857806370a082311161017757806370a0823114610307578063715018a61461033057806378fc3cb31461033857806379cc67901461034b5780637acfe0ec1461035e57600080fd5b8063313ce567146102be57806342966c68146102cd5780634ada218b146102e057806353d6fd59146102f457600080fd5b8063147c9f6d116101e4578063147c9f6d1461027e57806317700f011461029157806318160ddd1461029957806323b872dd146102ab57600080fd5b8062d2eef214610215578063069c9fae1461022a57806306fdde031461023d578063095ea7b31461025b575b600080fd5b6102286102233660046114ce565b6104e3565b005b61022861023836600461151c565b6105c1565b6102456106ab565b6040516102529190611546565b60405180910390f35b61026e61026936600461151c565b61073d565b6040519015158152602001610252565b61022861028c366004611595565b610757565b6102286108ec565b6002545b604051908152602001610252565b61026e6102b93660046115d8565b61092c565b60405160128152602001610252565b6102286102db366004611614565b6109f1565b600c5461026e90600160a01b900460ff1681565b61022861030236600461163b565b6109fe565b61029d610315366004611672565b6001600160a01b031660009081526020819052604090205490565b610228610aad565b61026e610346366004611672565b610ac1565b61022861035936600461151c565b610b0f565b600c54610371906001600160a01b031681565b6040516001600160a01b039091168152602001610252565b610228610b24565b6005546001600160a01b0316610371565b610245610b6a565b61026e6103b8366004611672565b600d6020526000908152604090205460ff1681565b6102286103db36600461168d565b610b79565b61026e6103ee36600461151c565b610cca565b61029d6103e881565b61029d610d7d565b600a54610371906001600160a01b031681565b61029d60095481565b61029d60085481565b61029d610437366004611713565b6001600160a01b03918216600090815260016020908152604080832093909416825291909152205490565b61029d60075481565b61047e610479366004611614565b610dae565b604080519687526020870195909552938501929092526060840152608083015260a082015260c001610252565b6102286104b9366004611672565b610e62565b61029d60065481565b61037161dead81565b600b54610371906001600160a01b031681565b6104eb610e9d565b600081836104f9868861175c565b610503919061175c565b61050d919061175c565b90506103e881111561055e5760405162461bcd60e51b81526020600482015260156024820152740a8dee8c2d840e8c2f040caf0c6cacac8e640dac2f605b1b60448201526064015b60405180910390fd5b60068590556007849055600883905560098290556040805186815260208101869052908101849052606081018390527f4fb15a57311596b6eb69d5738ae140c065dc794d6bd0b1a4b3e94b01c1d8c6619060800160405180910390a15050505050565b6105c9610e9d565b6001600160a01b038216610615576005546040516001600160a01b03909116904780156108fc02916000818181858888f19350505050158015610610573d6000803e3d6000fd5b505050565b816001600160a01b031663a9059cbb6106366005546001600160a01b031690565b6040516001600160e01b031960e084901b1681526001600160a01b039091166004820152602481018490526044016020604051808303816000875af1158015610683573d6000803e3d6000fd5b505050506040513d601f19601f82011682018060405250810190610610919061176f565b5050565b6060600380546106ba9061178c565b80601f01602080910402602001604051908101604052809291908181526020018280546106e69061178c565b80156107335780601f1061070857610100808354040283529160200191610733565b820191906000526020600020905b81548152906001019060200180831161071657829003601f168201915b5050505050905090565b60003361074b818585610eca565b60019150505b92915050565b61075f610e9d565b6001600160a01b038316156107e357600a80546001600160a01b0385166001600160a01b0319909116811790915560408051818152600c818301526b1b9bd919511a5d9a59195b9960a21b60608201526020810192909252517f6ff3a4003b90be84595beb5f6acb9d54f88bd3e6dd4887ca67e53dc9645465ea9181900360800190a15b6001600160a01b0382161561086557600b80546001600160a01b0384166001600160a01b0319909116811790915560408051818152600a81830152696f7065726174696f6e7360b01b60608201526020810192909252517f6ff3a4003b90be84595beb5f6acb9d54f88bd3e6dd4887ca67e53dc9645465ea9181900360800190a15b6001600160a01b0381161561061057600c80546001600160a01b0383166001600160a01b0319909116811790915560408051818152600b818301526a36b0b935b2ba26b0b5b2b960a91b60608201526020810192909252517f6ff3a4003b90be84595beb5f6acb9d54f88bd3e6dd4887ca67e53dc9645465ea9181900360800190a1505050565b6108f4610e9d565b600c805460ff60a01b191690556040517fbcb8b8fbdea8aa6dc4ae41213e4da81e605a3d1a56ed851b9355182321c0919090600090a1565b600c54600090600160a01b900460ff16806109565750336000908152600d602052604090205460ff165b806109705750326000908152600d602052604090205460ff165b6109b25760405162461bcd60e51b8152602060048201526013602482015272151c98591a5b99c81a5cc8191a5cd8589b1959606a1b6044820152606401610555565b6109ba610ed7565b6109c5843384610ef3565b6109d0848484610f6c565b5060016109ea600160008051602061182983398151915255565b9392505050565b6109fb33826111bc565b50565b610a06610e9d565b6001600160a01b038216610a4e5760405162461bcd60e51b815260206004820152600f60248201526e496e76616c6964206164647265737360881b6044820152606401610555565b6001600160a01b0382166000818152600d6020908152604091829020805460ff191685151590811790915591519182527ff93f9a76c1bf3444d22400a00cb9fe990e6abe9dbb333fda48859cfee864543d910160405180910390a25050565b610ab5610e9d565b610abf60006111f2565b565b600c54600090600160a01b900460ff1680610af457506001600160a01b0382166000908152600d602052604090205460ff165b806107515750506005546001600160a01b0391821691161490565b610b1a823383610ef3565b6106a782826111bc565b610b2c610e9d565b600c805460ff60a01b1916600160a01b1790556040517f799663458a5ef2936f7fa0c99b3336c69c25890f82974f04e811e5bb359186c790600090a1565b6060600480546106ba9061178c565b610b81610e9d565b60005b82811015610cc4576000848483818110610ba057610ba06117c6565b9050602002016020810190610bb59190611672565b6001600160a01b031603610bfd5760405162461bcd60e51b815260206004820152600f60248201526e496e76616c6964206164647265737360881b6044820152606401610555565b81600d6000868685818110610c1457610c146117c6565b9050602002016020810190610c299190611672565b6001600160a01b031681526020810191909152604001600020805460ff1916911515919091179055838382818110610c6357610c636117c6565b9050602002016020810190610c789190611672565b6001600160a01b03167ff93f9a76c1bf3444d22400a00cb9fe990e6abe9dbb333fda48859cfee864543d83604051610cb4911515815260200190565b60405180910390a2600101610b84565b50505050565b600c54600090600160a01b900460ff1680610cf45750336000908152600d602052604090205460ff165b80610d0e5750326000908152600d602052604090205460ff165b610d505760405162461bcd60e51b8152602060048201526013602482015272151c98591a5b99c81a5cc8191a5cd8589b1959606a1b6044820152606401610555565b610d58610ed7565b610d63338484610f6c565b506001610751600160008051602061182983398151915255565b6000600954600854600754600654610d95919061175c565b610d9f919061175c565b610da9919061175c565b905090565b60008060008060008061271060065488610dc891906117dc565b610dd291906117f3565b945061271060075488610de591906117dc565b610def91906117f3565b935061271060085488610e0291906117dc565b610e0c91906117f3565b925061271060095488610e1f91906117dc565b610e2991906117f3565b91508183610e37868861175c565b610e41919061175c565b610e4b919061175c565b9550610e578688611815565b905091939550919395565b610e6a610e9d565b6001600160a01b038116610e9457604051631e4fbdf760e01b815260006004820152602401610555565b6109fb816111f2565b6005546001600160a01b03163314610abf5760405163118cdaa760e01b8152336004820152602401610555565b6106108383836001611244565b610edf611319565b600260008051602061182983398151915255565b6001600160a01b03838116600090815260016020908152604080832093861683529290522054600019811015610cc45781811015610f5d57604051637dc7a0d960e11b81526001600160a01b03841660048201526024810182905260448101839052606401610555565b610cc484848484036000611244565b6001600160a01b0383166000908152600d602052604081205460ff1680610fab57506001600160a01b0383166000908152600d602052604090205460ff165b80610fc357506005546001600160a01b038581169116145b80610fdb57506005546001600160a01b038481169116145b80610fee57506001600160a01b03841630145b8061100157506001600160a01b03831630145b9050808061100d575081155b1561101d57610cc4848484611349565b60006127106006548461103091906117dc565b61103a91906117f3565b905060006127106007548561104f91906117dc565b61105991906117f3565b905060006127106008548661106e91906117dc565b61107891906117f3565b905060006127106009548761108d91906117dc565b61109791906117f3565b9050600081836110a7868861175c565b6110b1919061175c565b6110bb919061175c565b905080156111a65784156110e157600a546110e1908a906001600160a01b031687611349565b83156110ff57600b546110ff908a906001600160a01b031686611349565b821561111d57600c5461111d908a906001600160a01b031685611349565b811561112d5761112d89836111bc565b60006111398289611815565b90506111468a8a83611349565b604080518381526020810188905290810186905260608101859052608081018490526001600160a01b038b16907f3dee54a6bc4ffec6ce5b398eb8b10107aa464100b26a976b6a80cac7f7fee9389060a00160405180910390a2506111b1565b6111b1898989611349565b505050505050505050565b6001600160a01b0382166111e657604051634b637e8f60e11b815260006004820152602401610555565b6106a7826000836113a4565b600580546001600160a01b038381166001600160a01b0319831681179093556040519116919082907f8be0079c531659141344cd1fd0a4f28419497f9722a3daafe3b4186f6b6457e090600090a35050565b6001600160a01b03841661126e5760405163e602df0560e01b815260006004820152602401610555565b6001600160a01b03831661129857604051634a1406b160e11b815260006004820152602401610555565b6001600160a01b0380851660009081526001602090815260408083209387168352929052208290558015610cc457826001600160a01b0316846001600160a01b03167f8c5be1e5ebec7d5bd14f71427d1e84f3dd0314c0f7b2291e5b200ac8c7c3b9258460405161130b91815260200190565b60405180910390a350505050565b60008051602061182983398151915254600203610abf57604051633ee5aeb560e01b815260040160405180910390fd5b6001600160a01b03831661137357604051634b637e8f60e11b815260006004820152602401610555565b6001600160a01b03821661139d5760405163ec442f0560e01b815260006004820152602401610555565b6106108383835b6001600160a01b0383166113cf5780600260008282546113c4919061175c565b909155506114419050565b6001600160a01b038316600090815260208190526040902054818110156114225760405163391434e360e21b81526001600160a01b03851660048201526024810182905260448101839052606401610555565b6001600160a01b03841660009081526020819052604090209082900390555b6001600160a01b03821661145d5760028054829003905561147c565b6001600160a01b03821660009081526020819052604090208054820190555b816001600160a01b0316836001600160a01b03167fddf252ad1be2c89b69c2b068fc378daa952ba7f163c4a11628f55a4df523b3ef836040516114c191815260200190565b60405180910390a3505050565b600080600080608085870312156114e457600080fd5b5050823594602084013594506040840135936060013592509050565b80356001600160a01b038116811461151757600080fd5b919050565b6000806040838503121561152f57600080fd5b61153883611500565b946020939093013593505050565b60006020808352835180602085015260005b8181101561157457858101830151858201604001528201611558565b506000604082860101526040601f19601f8301168501019250505092915050565b6000806000606084860312156115aa57600080fd5b6115b384611500565b92506115c160208501611500565b91506115cf60408501611500565b90509250925092565b6000806000606084860312156115ed57600080fd5b6115f684611500565b925061160460208501611500565b9150604084013590509250925092565b60006020828403121561162657600080fd5b5035919050565b80151581146109fb57600080fd5b6000806040838503121561164e57600080fd5b61165783611500565b915060208301356116678161162d565b809150509250929050565b60006020828403121561168457600080fd5b6109ea82611500565b6000806000604084860312156116a257600080fd5b833567ffffffffffffffff808211156116ba57600080fd5b818601915086601f8301126116ce57600080fd5b8135818111156116dd57600080fd5b8760208260051b85010111156116f257600080fd5b602092830195509350508401356117088161162d565b809150509250925092565b6000806040838503121561172657600080fd5b61172f83611500565b915061173d60208401611500565b90509250929050565b634e487b7160e01b600052601160045260246000fd5b8082018082111561075157610751611746565b60006020828403121561178157600080fd5b81516109ea8161162d565b600181811c908216806117a057607f821691505b6020821081036117c057634e487b7160e01b600052602260045260246000fd5b50919050565b634e487b7160e01b600052603260045260246000fd5b808202811582820484141761075157610751611746565b60008261181057634e487b7160e01b600052601260045260246000fd5b500490565b818103818111156107515761075161174656fe9b779b17422d0df92223018b32b4d1fa46e071723d6817e2486d003becc55f00a2646970667358221220c8e58b8c77ffeebc099e1c569aac1b6da5c28606166de34560645641ca599adb64736f6c63430008180033",
  "linkReferences": {},
  "deployedLinkReferences": {}
}