{
  "_format": "hh-sol-artifact-1",
  "contractName": "TradeFutureToken",
  "sourceName": "src/TradeFutureToken.sol",
  "abi": [
    {
      "inputs": [
        {
          "internalType": "address",
          "name": "_nodeDividendWallet",
          "type": "address"
        },
        {
          "internalType": "address",
          "name": "_operationsWallet",
          "type": "address"
        },
        {
          "internalType": "address",
          "name": "_marketMakerWallet",
          "type": "address"
        },
        {
          "internalType": "address",
          "name": "_levelRewardWallet",
          "type": "address"
        },
        {
          "internalType": "address",
          "name": "_liquidityReturnWallet",
          "type": "address"
        }
      ],
      "stateMutability": "nonpayable",
      "type": "constructor"
    },
    {
      "inputs": [
        {
          "internalType": "address",
          "name": "spender",
          "type": "address"
        },
        {
          "internalType": "uint256",
          "name": "allowance",
          "type": "uint256"
        },
        {
          "internalType": "uint256",
          "name": "needed",
          "type": "uint256"
        }
      ],
      "name": "ERC20InsufficientAllowance",
      "type": "error"
    },
    {
      "inputs": [
        {
          "internalType": "address",
          "name": "sender",
          "type": "address"
        },
        {
          "internalType": "uint256",
          "name": "balance",
          "type": "uint256"
        },
        {
          "internalType": "uint256",
          "name": "needed",
          "type": "uint256"
        }
      ],
      "name": "ERC20InsufficientBalance",
      "type": "error"
    },
    {
      "inputs": [
        {
          "internalType": "address",
          "name": "approver",
          "type": "address"
        }
      ],
      "name": "ERC20InvalidApprover",
      "type": "error"
    },
    {
      "inputs": [
        {
          "internalType": "address",
          "name": "receiver",
          "type": "address"
        }
      ],
      "name": "ERC20InvalidReceiver",
      "type": "error"
    },
    {
      "inputs": [
        {
          "internalType": "address",
          "name": "sender",
          "type": "address"
        }
      ],
      "name": "ERC20InvalidSender",
      "type": "error"
    },
    {
      "inputs": [
        {
          "internalType": "address",
          "name": "spender",
          "type": "address"
        }
      ],
      "name": "ERC20InvalidSpender",
      "type": "error"
    },
    {
      "inputs": [
        {
          "internalType": "address",
          "name": "owner",
          "type": "address"
        }
      ],
      "name": "OwnableInvalidOwner",
      "type": "error"
    },
    {
      "inputs": [
        {
          "internalType": "address",
          "name": "account",
          "type": "address"
        }
      ],
      "name": "OwnableUnauthorizedAccount",
      "type": "error"
    },
    {
      "inputs": [],
      "name": "ReentrancyGuardReentrantCall",
      "type": "error"
    },
    {
      "anonymous": false,
      "inputs": [
        {
          "indexed": true,
          "internalType": "address",
          "name": "owner",
          "type": "address"
        },
        {
          "indexed": true,
          "internalType": "address",
          "name": "spender",
          "type": "address"
        },
        {
          "indexed": false,
          "internalType": "uint256",
          "name": "value",
          "type": "uint256"
        }
      ],
      "name": "Approval",
      "type": "event"
    },
    {
      "anonymous": false,
      "inputs": [
        {
          "indexed": true,
          "internalType": "address",
          "name": "previousOwner",
          "type": "address"
        },
        {
          "indexed": true,
          "internalType": "address",
          "name": "newOwner",
          "type": "address"
        }
      ],
      "name": "OwnershipTransferred",
      "type": "event"
    },
    {
      "anonymous": false,
      "inputs": [
        {
          "indexed": true,
          "internalType": "address",
          "name": "user",
          "type": "address"
        },
        {
          "indexed": true,
          "internalType": "address",
          "name": "referrer",
          "type": "address"
        }
      ],
      "name": "ReferrerSet",
      "type": "event"
    },
    {
      "anonymous": false,
      "inputs": [
        {
          "indexed": true,
          "internalType": "address",
          "name": "from",
          "type": "address"
        },
        {
          "indexed": false,
          "internalType": "uint256",
          "name": "totalTax",
          "type": "uint256"
        },
        {
          "indexed": false,
          "internalType": "uint256",
          "name": "nodeDividend",
          "type": "uint256"
        },
        {
          "indexed": false,
          "internalType": "uint256",
          "name": "operations",
          "type": "uint256"
        },
        {
          "indexed": false,
          "internalType": "uint256",
          "name": "marketMaker",
          "type": "uint256"
        },
        {
          "indexed": false,
          "internalType": "uint256",
          "name": "burned",
          "type": "uint256"
        },
        {
          "indexed": false,
          "internalType": "uint256",
          "name": "levelReward",
          "type": "uint256"
        },
        {
          "indexed": false,
          "internalType": "uint256",
          "name": "directReferral",
          "type": "uint256"
        },
        {
          "indexed": false,
          "internalType": "uint256",
          "name": "liquidityReturn",
          "type": "uint256"
        }
      ],
      "name": "TaxDistributed",
      "type": "event"
    },
    {
      "anonymous": false,
      "inputs": [
        {
          "indexed": false,
          "internalType": "bool",
          "name": "enabled",
          "type": "bool"
        }
      ],
      "name": "TradingEnabled",
      "type": "event"
    },
    {
      "anonymous": false,
      "inputs": [
        {
          "indexed": true,
          "internalType": "address",
          "name": "from",
          "type": "address"
        },
        {
          "indexed": true,
          "internalType": "address",
          "name": "to",
          "type": "address"
        },
        {
          "indexed": false,
          "internalType": "uint256",
          "name": "value",
          "type": "uint256"
        }
      ],
      "name": "Transfer",
      "type": "event"
    },
    {
      "anonymous": false,
      "inputs": [
        {
          "indexed": false,
          "internalType": "string",
          "name": "walletType",
          "type": "string"
        },
        {
          "indexed": false,
          "internalType": "address",
          "name": "newAddress",
          "type": "address"
        }
      ],
      "name": "WalletUpdated",
      "type": "event"
    },
    {
      "inputs": [],
      "name": "BURN_RATE",
      "outputs": [
        {
          "internalType": "uint256",
          "name": "",
          "type": "uint256"
        }
      ],
      "stateMutability": "view",
      "type": "function"
    },
    {
      "inputs": [],
      "name": "DIRECT_REFERRAL_RATE",
      "outputs": [
        {
          "internalType": "uint256",
          "name": "",
          "type": "uint256"
        }
      ],
      "stateMutability": "view",
      "type": "function"
    },
    {
      "inputs": [],
      "name": "LEVEL_REWARD_RATE",
      "outputs": [
        {
          "internalType": "uint256",
          "name": "",
          "type": "uint256"
        }
      ],
      "stateMutability": "view",
      "type": "function"
    },
    {
      "inputs": [],
      "name": "LIQUIDITY_RETURN_RATE",
      "outputs": [
        {
          "internalType": "uint256",
          "name": "",
          "type": "uint256"
        }
      ],
      "stateMutability": "view",
      "type": "function"
    },
    {
      "inputs": [],
      "name": "MARKET_MAKER_RATE",
      "outputs": [
        {
          "internalType": "uint256",
          "name": "",
          "type": "uint256"
        }
      ],
      "stateMutability": "view",
      "type": "function"
    },
    {
      "inputs": [],
      "name": "NODE_DIVIDEND_RATE",
      "outputs": [
        {
          "internalType": "uint256",
          "name": "",
          "type": "uint256"
        }
      ],
      "stateMutability": "view",
      "type": "function"
    },
    {
      "inputs": [],
      "name": "OPERATIONS_RATE",
      "outputs": [
        {
          "internalType": "uint256",
          "name": "",
          "type": "uint256"
        }
      ],
      "stateMutability": "view",
      "type": "function"
    },
    {
      "inputs": [],
      "name": "TAX_RATE",
      "outputs": [
        {
          "internalType": "uint256",
          "name": "",
          "type": "uint256"
        }
      ],
      "stateMutability": "view",
      "type": "function"
    },
    {
      "inputs": [
        {
          "internalType": "address",
          "name": "owner",
          "type": "address"
        },
        {
          "internalType": "address",
          "name": "spender",
          "type": "address"
        }
      ],
      "name": "allowance",
      "outputs": [
        {
          "internalType": "uint256",
          "name": "",
          "type": "uint256"
        }
      ],
      "stateMutability": "view",
      "type": "function"
    },
    {
      "inputs": [
        {
          "internalType": "address",
          "name": "spender",
          "type": "address"
        },
        {
          "internalType": "uint256",
          "name": "value",
          "type": "uint256"
        }
      ],
      "name": "approve",
      "outputs": [
        {
          "internalType": "bool",
          "name": "",
          "type": "bool"
        }
      ],
      "stateMutability": "nonpayable",
      "type": "function"
    },
    {
      "inputs": [
        {
          "internalType": "address",
          "name": "account",
          "type": "address"
        }
      ],
      "name": "balanceOf",
      "outputs": [
        {
          "internalType": "uint256",
          "name": "",
          "type": "uint256"
        }
      ],
      "stateMutability": "view",
      "type": "function"
    },
    {
      "inputs": [
        {
          "internalType": "uint256",
          "name": "value",
          "type": "uint256"
        }
      ],
      "name": "burn",
      "outputs": [],
      "stateMutability": "nonpayable",
      "type": "function"
    },
    {
      "inputs": [
        {
          "internalType": "address",
          "name": "account",
          "type": "address"
        },
        {
          "internalType": "uint256",
          "name": "value",
          "type": "uint256"
        }
      ],
      "name": "burnFrom",
      "outputs": [],
      "stateMutability": "nonpayable",
      "type": "function"
    },
    {
      "inputs": [],
      "name": "decimals",
      "outputs": [
        {
          "internalType": "uint8",
          "name": "",
          "type": "uint8"
        }
      ],
      "stateMutability": "view",
      "type": "function"
    },
    {
      "inputs": [
        {
          "internalType": "address",
          "name": "",
          "type": "address"
        }
      ],
      "name": "directReferralRewards",
      "outputs": [
        {
          "internalType": "uint256",
          "name": "",
          "type": "uint256"
        }
      ],
      "stateMutability": "view",
      "type": "function"
    },
    {
      "inputs": [
        {
          "internalType": "uint256",
          "name": "amount",
          "type": "uint256"
        }
      ],
      "name": "getTaxBreakdown",
      "outputs": [
        {
          "internalType": "uint256",
          "name": "totalTax",
          "type": "uint256"
        },
        {
          "internalType": "uint256",
          "name": "nodeDividend",
          "type": "uint256"
        },
        {
          "internalType": "uint256",
          "name": "operations",
          "type": "uint256"
        },
        {
          "internalType": "uint256",
          "name": "marketMaker",
          "type": "uint256"
        },
        {
          "internalType": "uint256",
          "name": "burnAmount",
          "type": "uint256"
        },
        {
          "internalType": "uint256",
          "name": "levelReward",
          "type": "uint256"
        },
        {
          "internalType": "uint256",
          "name": "directReferral",
          "type": "uint256"
        },
        {
          "internalType": "uint256",
          "name": "liquidityReturn",
          "type": "uint256"
        },
        {
          "internalType": "uint256",
          "name": "amountAfterTax",
          "type": "uint256"
        }
      ],
      "stateMutability": "pure",
      "type": "function"
    },
    {
      "inputs": [],
      "name": "levelRewardWallet",
      "outputs": [
        {
          "internalType": "address",
          "name": "",
          "type": "address"
        }
      ],
      "stateMutability": "view",
      "type": "function"
    },
    {
      "inputs": [],
      "name": "liquidityReturnWallet",
      "outputs": [
        {
          "internalType": "address",
          "name": "",
          "type": "address"
        }
      ],
      "stateMutability": "view",
      "type": "function"
    },
    {
      "inputs": [],
      "name": "marketMakerWallet",
      "outputs": [
        {
          "internalType": "address",
          "name": "",
          "type": "address"
        }
      ],
      "stateMutability": "view",
      "type": "function"
    },
    {
      "inputs": [],
      "name": "name",
      "outputs": [
        {
          "internalType": "string",
          "name": "",
          "type": "string"
        }
      ],
      "stateMutability": "view",
      "type": "function"
    },
    {
      "inputs": [],
      "name": "nodeDividendWallet",
      "outputs": [
        {
          "internalType": "address",
          "name": "",
          "type": "address"
        }
      ],
      "stateMutability": "view",
      "type": "function"
    },
    {
      "inputs": [],
      "name": "operationsWallet",
      "outputs": [
        {
          "internalType": "address",
          "name": "",
          "type": "address"
        }
      ],
      "stateMutability": "view",
      "type": "function"
    },
    {
      "inputs": [],
      "name": "owner",
      "outputs": [
        {
          "internalType": "address",
          "name": "",
          "type": "address"
        }
      ],
      "stateMutability": "view",
      "type": "function"
    },
    {
      "inputs": [
        {
          "internalType": "address",
          "name": "token",
          "type": "address"
        },
        {
          "internalType": "uint256",
          "name": "amount",
          "type": "uint256"
        }
      ],
      "name": "recoverTokens",
      "outputs": [],
      "stateMutability": "nonpayable",
      "type": "function"
    },
    {
      "inputs": [
        {
          "internalType": "address",
          "name": "",
          "type": "address"
        }
      ],
      "name": "referrers",
      "outputs": [
        {
          "internalType": "address",
          "name": "",
          "type": "address"
        }
      ],
      "stateMutability": "view",
      "type": "function"
    },
    {
      "inputs": [],
      "name": "renounceOwnership",
      "outputs": [],
      "stateMutability": "nonpayable",
      "type": "function"
    },
    {
      "inputs": [
        {
          "internalType": "address",
          "name": "_referrer",
          "type": "address"
        }
      ],
      "name": "setReferrer",
      "outputs": [],
      "stateMutability": "nonpayable",
      "type": "function"
    },
    {
      "inputs": [
        {
          "internalType": "bool",
          "name": "_enabled",
          "type": "bool"
        }
      ],
      "name": "setTradingEnabled",
      "outputs": [],
      "stateMutability": "nonpayable",
      "type": "function"
    },
    {
      "inputs": [],
      "name": "symbol",
      "outputs": [
        {
          "internalType": "string",
          "name": "",
          "type": "string"
        }
      ],
      "stateMutability": "view",
      "type": "function"
    },
    {
      "inputs": [],
      "name": "totalSupply",
      "outputs": [
        {
          "internalType": "uint256",
          "name": "",
          "type": "uint256"
        }
      ],
      "stateMutability": "view",
      "type": "function"
    },
    {
      "inputs": [],
      "name": "tradingEnabled",
      "outputs": [
        {
          "internalType": "bool",
          "name": "",
          "type": "bool"
        }
      ],
      "stateMutability": "view",
      "type": "function"
    },
    {
      "inputs": [
        {
          "internalType": "address",
          "name": "to",
          "type": "address"
        },
        {
          "internalType": "uint256",
          "name": "amount",
          "type": "uint256"
        }
      ],
      "name": "transfer",
      "outputs": [
        {
          "internalType": "bool",
          "name": "",
          "type": "bool"
        }
      ],
      "stateMutability": "nonpayable",
      "type": "function"
    },
    {
      "inputs": [
        {
          "internalType": "address",
          "name": "from",
          "type": "address"
        },
        {
          "internalType": "address",
          "name": "to",
          "type": "address"
        },
        {
          "internalType": "uint256",
          "name": "amount",
          "type": "uint256"
        }
      ],
      "name": "transferFrom",
      "outputs": [
        {
          "internalType": "bool",
          "name": "",
          "type": "bool"
        }
      ],
      "stateMutability": "nonpayable",
      "type": "function"
    },
    {
      "inputs": [
        {
          "internalType": "address",
          "name": "newOwner",
          "type": "address"
        }
      ],
      "name": "transferOwnership",
      "outputs": [],
      "stateMutability": "nonpayable",
      "type": "function"
    },
    {
      "inputs": [
        {
          "internalType": "address",
          "name": "_nodeDividendWallet",
          "type": "address"
        },
        {
          "internalType": "address",
          "name": "_operationsWallet",
          "type": "address"
        },
        {
          "internalType": "address",
          "name": "_marketMakerWallet",
          "type": "address"
        },
        {
          "internalType": "address",
          "name": "_levelRewardWallet",
          "type": "address"
        },
        {
          "internalType": "address",
          "name": "_liquidityReturnWallet",
          "type": "address"
        }
      ],
      "name": "updateWallets",
      "outputs": [],
      "stateMutability": "nonpayable",
      "type": "function"
    }
  ],
  "bytecode": "0x60806040523480156200001157600080fd5b5060405162001fcb38038062001fcb833981016040819052620000349162000527565b33604051806040016040528060118152602001702a3930b232a33aba3ab932902a37b5b2b760791b8152506040518060400160405280600381526020016215119560ea1b81525081600390816200008c91906200063e565b5060046200009b82826200063e565b5050506001600160a01b038116620000ce57604051631e4fbdf760e01b8152600060048201526024015b60405180910390fd5b620000d98162000347565b5060017f9b779b17422d0df92223018b32b4d1fa46e071723d6817e2486d003becc55f00556001600160a01b038516620001565760405162461bcd60e51b815260206004820152601360248201527f496e76616c6964206e6f64652077616c6c6574000000000000000000000000006044820152606401620000c5565b6001600160a01b038416620001ae5760405162461bcd60e51b815260206004820152601960248201527f496e76616c6964206f7065726174696f6e732077616c6c6574000000000000006044820152606401620000c5565b6001600160a01b038316620002065760405162461bcd60e51b815260206004820152601b60248201527f496e76616c6964206d61726b6574206d616b65722077616c6c657400000000006044820152606401620000c5565b6001600160a01b0382166200025e5760405162461bcd60e51b815260206004820152601b60248201527f496e76616c6964206c6576656c207265776172642077616c6c657400000000006044820152606401620000c5565b6001600160a01b038116620002b65760405162461bcd60e51b815260206004820152601860248201527f496e76616c6964206c69717569646974792077616c6c657400000000000000006044820152606401620000c5565b600680546001600160a01b03199081166001600160a01b0388811691909117909255600780548216878416179055600880548216868416179055600980548216858416179055600a80549091169183169190911790556200033c336200031a601290565b6200032790600a6200081f565b620003369062a7d8c062000837565b62000399565b505050505062000867565b600580546001600160a01b038381166001600160a01b0319831681179093556040519116919082907f8be0079c531659141344cd1fd0a4f28419497f9722a3daafe3b4186f6b6457e090600090a35050565b6001600160a01b038216620003c55760405163ec442f0560e01b815260006004820152602401620000c5565b620003d360008383620003d7565b5050565b6001600160a01b03831662000406578060026000828254620003fa919062000851565b909155506200047a9050565b6001600160a01b038316600090815260208190526040902054818110156200045b5760405163391434e360e21b81526001600160a01b03851660048201526024810182905260448101839052606401620000c5565b6001600160a01b03841660009081526020819052604090209082900390555b6001600160a01b0382166200049857600280548290039055620004b7565b6001600160a01b03821660009081526020819052604090208054820190555b816001600160a01b0316836001600160a01b03167fddf252ad1be2c89b69c2b068fc378daa952ba7f163c4a11628f55a4df523b3ef83604051620004fd91815260200190565b60405180910390a3505050565b80516001600160a01b03811681146200052257600080fd5b919050565b600080600080600060a086880312156200054057600080fd5b6200054b866200050a565b94506200055b602087016200050a565b93506200056b604087016200050a565b92506200057b606087016200050a565b91506200058b608087016200050a565b90509295509295909350565b634e487b7160e01b600052604160045260246000fd5b600181811c90821680620005c257607f821691505b602082108103620005e357634e487b7160e01b600052602260045260246000fd5b50919050565b601f82111562000639576000816000526020600020601f850160051c81016020861015620006145750805b601f850160051c820191505b81811015620006355782815560010162000620565b5050505b505050565b81516001600160401b038111156200065a576200065a62000597565b62000672816200066b8454620005ad565b84620005e9565b602080601f831160018114620006aa5760008415620006915750858301515b600019600386901b1c1916600185901b17855562000635565b600085815260208120601f198616915b82811015620006db57888601518255948401946001909101908401620006ba565b5085821015620006fa5787850151600019600388901b60f8161c191681555b5050505050600190811b01905550565b634e487b7160e01b600052601160045260246000fd5b600181815b80851115620007615781600019048211156200074557620007456200070a565b808516156200075357918102915b93841c939080029062000725565b509250929050565b6000826200077a5750600162000819565b81620007895750600062000819565b8160018114620007a25760028114620007ad57620007cd565b600191505062000819565b60ff841115620007c157620007c16200070a565b50506001821b62000819565b5060208310610133831016604e8410600b8410161715620007f2575081810a62000819565b620007fe838362000720565b80600019048211156200081557620008156200070a565b0290505b92915050565b60006200083060ff84168362000769565b9392505050565b80820281158282048414176200081957620008196200070a565b808201808211156200081957620008196200070a565b61175480620008776000396000f3fe608060405234801561001057600080fd5b50600436106102115760003560e01c80637c073e2711610125578063cee93dad116100ad578063f2fde38b1161007c578063f2fde38b146104b6578063f846a885146104c9578063fb2c2d4d146104d2578063fd5ea1de146104db578063fd72e22a146104ee57600080fd5b8063cee93dad146103d2578063d38526ca146102b1578063dd62ed3e14610426578063f049c4d61461045f57600080fd5b80639bf81850116100f45780639bf81850146103d2578063a18a7bfc146103da578063a9059cbb146103ed578063b47e5bda14610400578063c2e5ec041461041357600080fd5b80637c073e271461039d57806383f170be146103b05780638da5cb5b146103b957806395d89b41146103ca57600080fd5b806342966c68116101a857806364b4c7241161017757806364b4c7241461033d57806370a0823114610346578063715018a61461036f57806379cc6790146103775780637acfe0ec1461038a57600080fd5b806342966c68146102c95780634a3b68cc146102dc5780634ada218b1461031d5780635eccfb6d1461032a57600080fd5b80631d2e0e8f116101e45780631d2e0e8f1461027e57806323b872dd1461029e5780632999ade5146102b1578063313ce567146102ba57600080fd5b8063069c9fae1461021657806306fdde031461022b578063095ea7b31461024957806318160ddd1461026c575b600080fd5b610229610224366004611466565b610501565b005b6102336105eb565b6040516102409190611490565b60405180910390f35b61025c610257366004611466565b61067d565b6040519015158152602001610240565b6002545b604051908152602001610240565b61027061028c3660046114df565b600c6020526000908152604090205481565b61025c6102ac3660046114fa565b610697565b6102706107d081565b60405160128152602001610240565b6102296102d7366004611536565b61074a565b6103056102ea3660046114df565b600b602052600090815260409020546001600160a01b031681565b6040516001600160a01b039091168152602001610240565b600d5461025c9060ff1681565b600954610305906001600160a01b031681565b61027061012c81565b6102706103543660046114df565b6001600160a01b031660009081526020819052604090205490565b610229610757565b610229610385366004611466565b61076b565b600854610305906001600160a01b031681565b600a54610305906001600160a01b031681565b61027061025881565b6005546001600160a01b0316610305565b610233610780565b610270606481565b6102296103e83660046114df565b61078f565b61025c6103fb366004611466565b6108d8565b600654610305906001600160a01b031681565b61022961042136600461155d565b610974565b61027061043436600461157a565b6001600160a01b03918216600090815260016020908152604080832093909416825291909152205490565b61047261046d366004611536565b6109c3565b60408051998a5260208a0198909852968801959095526060870193909352608086019190915260a085015260c084015260e083015261010082015261012001610240565b6102296104c43660046114df565b610abc565b6102706101f481565b61027061138881565b6102296104e93660046115ad565b610af7565b600754610305906001600160a01b031681565b610509610d3f565b6001600160a01b038216610555576005546040516001600160a01b03909116904780156108fc02916000818181858888f19350505050158015610550573d6000803e3d6000fd5b505050565b816001600160a01b031663a9059cbb6105766005546001600160a01b031690565b6040516001600160e01b031960e084901b1681526001600160a01b039091166004820152602481018490526044016020604051808303816000875af11580156105c3573d6000803e3d6000fd5b505050506040513d601f19601f820116820180604052508101906105509190611612565b5050565b6060600380546105fa9061162f565b80601f01602080910402602001604051908101604052809291908181526020018280546106269061162f565b80156106735780601f1061064857610100808354040283529160200191610673565b820191906000526020600020905b81548152906001019060200180831161065657829003601f168201915b5050505050905090565b60003361068b818585610d6c565b60019150505b92915050565b600d5460009060ff16806106c45750336106b96005546001600160a01b031690565b6001600160a01b0316145b61070b5760405162461bcd60e51b8152602060048201526013602482015272151c98591a5b99c81b9bdd08195b98589b1959606a1b60448201526064015b60405180910390fd5b610713610d79565b61071e843384610d95565b610729848484610e14565b50600161074360016000805160206116df83398151915255565b9392505050565b6107543382611138565b50565b61075f610d3f565b610769600061116e565b565b610776823383610d95565b6105e78282611138565b6060600480546105fa9061162f565b6001600160a01b0381166107d85760405162461bcd60e51b815260206004820152601060248201526f24b73b30b634b2103932b332b93932b960811b6044820152606401610702565b336001600160a01b038216036108245760405162461bcd60e51b815260206004820152601160248201527021b0b73737ba103932b332b91039b2b63360791b6044820152606401610702565b336000908152600b60205260409020546001600160a01b0316156108815760405162461bcd60e51b8152602060048201526014602482015273149959995c9c995c88185b1c9958591e481cd95d60621b6044820152606401610702565b336000818152600b602052604080822080546001600160a01b0319166001600160a01b03861690811790915590519092917f5f7165288eef601591cf549e15ff19ef9060b7f71b9c115be946fa1fe7ebf68a91a350565b600d5460009060ff16806109055750336108fa6005546001600160a01b031690565b6001600160a01b0316145b6109475760405162461bcd60e51b8152602060048201526013602482015272151c98591a5b99c81b9bdd08195b98589b1959606a1b6044820152606401610702565b61094f610d79565b61095a338484610e14565b50600161069160016000805160206116df83398151915255565b61097c610d3f565b600d805460ff19168215159081179091556040519081527fbeda7dca7bc1b3e80b871f4818129ec73b771581f803d553aeb3484098e5f65a9060200160405180910390a150565b600080808080808080806127106109dc6102588c61167f565b6109e69190611696565b98506127106109f761012c8b61167f565b610a019190611696565b9750612710610a1160648b61167f565b610a1b9190611696565b9650612710610a2b60648b61167f565b610a359190611696565b9550612710610a466101f48b61167f565b610a509190611696565b9450612710610a616107d08b61167f565b610a6b9190611696565b9350612710610a7c6113888b61167f565b610a869190611696565b9250612710610a976107d08b61167f565b610aa19190611696565b9150610aad898b6116b8565b90509193959799909294969850565b610ac4610d3f565b6001600160a01b038116610aee57604051631e4fbdf760e01b815260006004820152602401610702565b6107548161116e565b610aff610d3f565b6001600160a01b03851615610b7157600680546001600160a01b0387166001600160a01b0319909116811790915560408051818152600c818301526b1b9bd919511a5d9a59195b9960a21b60608201526020810192909252516000805160206116ff8339815191529181900360800190a15b6001600160a01b03841615610be157600780546001600160a01b0386166001600160a01b0319909116811790915560408051818152600a81830152696f7065726174696f6e7360b01b60608201526020810192909252516000805160206116ff8339815191529181900360800190a15b6001600160a01b03831615610c5257600880546001600160a01b0385166001600160a01b0319909116811790915560408051818152600b818301526a36b0b935b2ba26b0b5b2b960a91b60608201526020810192909252516000805160206116ff8339815191529181900360800190a15b6001600160a01b03821615610cc357600980546001600160a01b0384166001600160a01b0319909116811790915560408051818152600b818301526a1b195d995b14995dd85c9960aa1b60608201526020810192909252516000805160206116ff8339815191529181900360800190a15b6001600160a01b03811615610d3857600a80546001600160a01b0383166001600160a01b0319909116811790915560408051818152600f818301526e3634b8bab4b234ba3ca932ba3ab93760891b60608201526020810192909252516000805160206116ff8339815191529181900360800190a15b5050505050565b6005546001600160a01b031633146107695760405163118cdaa760e01b8152336004820152602401610702565b61055083838360016111c0565b610d81611295565b60026000805160206116df83398151915255565b6001600160a01b03838116600090815260016020908152604080832093861683529290522054600019811015610e0e5781811015610dff57604051637dc7a0d960e11b81526001600160a01b03841660048201526024810182905260448101839052606401610702565b610e0e848484840360006111c0565b50505050565b600d5460009060ff168015610e3757506005546001600160a01b03858116911614155b8015610e5157506005546001600160a01b03848116911614155b8015610e6657506001600160a01b0384163014155b8015610e7b57506001600160a01b0383163014155b9050808015610e8a5750600082115b1561112d576000612710610ea06102588561167f565b610eaa9190611696565b9050801561112b576000612710610ec361012c8461167f565b610ecd9190611696565b90506000612710610edf60648561167f565b610ee99190611696565b90506000612710610efb60648661167f565b610f059190611696565b90506000612710610f186101f48761167f565b610f229190611696565b90506000612710610f356107d08861167f565b610f3f9190611696565b90506000612710610f526107d08961167f565b610f5c9190611696565b90506000612710610f6f6113888a61167f565b610f799190611696565b6001600160a01b03808e166000908152600b6020526040902054600654929350811691610fa9918f91168a6112c5565b600754610fc1908e906001600160a01b0316896112c5565b600854610fd9908e906001600160a01b0316886112c5565b600954610ff1908e906001600160a01b0316866112c5565b600a54611009908e906001600160a01b0316856112c5565b6001600160a01b038116158015906110215750600082115b15611064576110318d82846112c5565b6001600160a01b0381166000908152600c6020526040812080548492906110599084906116cb565b909155506110829050565b811561108257600954611082908e906001600160a01b0316846112c5565b8415611092576110928d86611138565b600061109e8a8d6116b8565b90506110ab8e8e836112c5565b604080518b8152602081018b9052908101899052606081018890526080810187905260a0810186905260c0810184905260e081018590526001600160a01b038f16907fe7f6ffcc7ed5d831b9cff3926bf86923154cf544ae127000f5eb3199a80116f1906101000160405180910390a25050505050505050505050505050565b505b610e0e8484846112c5565b6001600160a01b03821661116257604051634b637e8f60e11b815260006004820152602401610702565b6105e782600083611320565b600580546001600160a01b038381166001600160a01b0319831681179093556040519116919082907f8be0079c531659141344cd1fd0a4f28419497f9722a3daafe3b4186f6b6457e090600090a35050565b6001600160a01b0384166111ea5760405163e602df0560e01b815260006004820152602401610702565b6001600160a01b03831661121457604051634a1406b160e11b815260006004820152602401610702565b6001600160a01b0380851660009081526001602090815260408083209387168352929052208290558015610e0e57826001600160a01b0316846001600160a01b03167f8c5be1e5ebec7d5bd14f71427d1e84f3dd0314c0f7b2291e5b200ac8c7c3b9258460405161128791815260200190565b60405180910390a350505050565b6000805160206116df8339815191525460020361076957604051633ee5aeb560e01b815260040160405180910390fd5b6001600160a01b0383166112ef57604051634b637e8f60e11b815260006004820152602401610702565b6001600160a01b0382166113195760405163ec442f0560e01b815260006004820152602401610702565b6105508383835b6001600160a01b03831661134b57806002600082825461134091906116cb565b909155506113bd9050565b6001600160a01b0383166000908152602081905260409020548181101561139e5760405163391434e360e21b81526001600160a01b03851660048201526024810182905260448101839052606401610702565b6001600160a01b03841660009081526020819052604090209082900390555b6001600160a01b0382166113d9576002805482900390556113f8565b6001600160a01b03821660009081526020819052604090208054820190555b816001600160a01b0316836001600160a01b03167fddf252ad1be2c89b69c2b068fc378daa952ba7f163c4a11628f55a4df523b3ef8360405161143d91815260200190565b60405180910390a3505050565b80356001600160a01b038116811461146157600080fd5b919050565b6000806040838503121561147957600080fd5b6114828361144a565b946020939093013593505050565b60006020808352835180602085015260005b818110156114be578581018301518582016040015282016114a2565b506000604082860101526040601f19601f8301168501019250505092915050565b6000602082840312156114f157600080fd5b6107438261144a565b60008060006060848603121561150f57600080fd5b6115188461144a565b92506115266020850161144a565b9150604084013590509250925092565b60006020828403121561154857600080fd5b5035919050565b801515811461075457600080fd5b60006020828403121561156f57600080fd5b81356107438161154f565b6000806040838503121561158d57600080fd5b6115968361144a565b91506115a46020840161144a565b90509250929050565b600080600080600060a086880312156115c557600080fd5b6115ce8661144a565b94506115dc6020870161144a565b93506115ea6040870161144a565b92506115f86060870161144a565b91506116066080870161144a565b90509295509295909350565b60006020828403121561162457600080fd5b81516107438161154f565b600181811c9082168061164357607f821691505b60208210810361166357634e487b7160e01b600052602260045260246000fd5b50919050565b634e487b7160e01b600052601160045260246000fd5b808202811582820484141761069157610691611669565b6000826116b357634e487b7160e01b600052601260045260246000fd5b500490565b8181038181111561069157610691611669565b808201808211156106915761069161166956fe9b779b17422d0df92223018b32b4d1fa46e071723d6817e2486d003becc55f006ff3a4003b90be84595beb5f6acb9d54f88bd3e6dd4887ca67e53dc9645465eaa2646970667358221220f94de7d0f18663ec40e10ade4867fb9fc278b8839d03e69dbb8c2c16a6508e9b64736f6c63430008180033",
  "linkReferences": {},
  "deployedLinkReferences": {}
}