{
  "_format": "hh-sol-artifact-1",
  "contractName": "TradeFutureToken",
  "sourceName": "src/TradeFutureToken.sol",
  "abi": [
    {
      "inputs": [
        {
          "internalType": "address",
          "name": "_nodeDividendWallet",
          "type": "address"
        },
        {
          "internalType": "address",
          "name": "_operationsWallet",
          "type": "address"
        },
        {
          "internalType": "address",
          "name": "_marketMakerWallet",
          "type": "address"
        }
      ],
      "stateMutability": "nonpayable",
      "type": "constructor"
    },
    {
      "inputs": [
        {
          "internalType": "address",
          "name": "spender",
          "type": "address"
        },
        {
          "internalType": "uint256",
          "name": "allowance",
          "type": "uint256"
        },
        {
          "internalType": "uint256",
          "name": "needed",
          "type": "uint256"
        }
      ],
      "name": "ERC20InsufficientAllowance",
      "type": "error"
    },
    {
      "inputs": [
        {
          "internalType": "address",
          "name": "sender",
          "type": "address"
        },
        {
          "internalType": "uint256",
          "name": "balance",
          "type": "uint256"
        },
        {
          "internalType": "uint256",
          "name": "needed",
          "type": "uint256"
        }
      ],
      "name": "ERC20InsufficientBalance",
      "type": "error"
    },
    {
      "inputs": [
        {
          "internalType": "address",
          "name": "approver",
          "type": "address"
        }
      ],
      "name": "ERC20InvalidApprover",
      "type": "error"
    },
    {
      "inputs": [
        {
          "internalType": "address",
          "name": "receiver",
          "type": "address"
        }
      ],
      "name": "ERC20InvalidReceiver",
      "type": "error"
    },
    {
      "inputs": [
        {
          "internalType": "address",
          "name": "sender",
          "type": "address"
        }
      ],
      "name": "ERC20InvalidSender",
      "type": "error"
    },
    {
      "inputs": [
        {
          "internalType": "address",
          "name": "spender",
          "type": "address"
        }
      ],
      "name": "ERC20InvalidSpender",
      "type": "error"
    },
    {
      "inputs": [
        {
          "internalType": "address",
          "name": "owner",
          "type": "address"
        }
      ],
      "name": "OwnableInvalidOwner",
      "type": "error"
    },
    {
      "inputs": [
        {
          "internalType": "address",
          "name": "account",
          "type": "address"
        }
      ],
      "name": "OwnableUnauthorizedAccount",
      "type": "error"
    },
    {
      "inputs": [],
      "name": "ReentrancyGuardReentrantCall",
      "type": "error"
    },
    {
      "anonymous": false,
      "inputs": [
        {
          "indexed": true,
          "internalType": "address",
          "name": "owner",
          "type": "address"
        },
        {
          "indexed": true,
          "internalType": "address",
          "name": "spender",
          "type": "address"
        },
        {
          "indexed": false,
          "internalType": "uint256",
          "name": "value",
          "type": "uint256"
        }
      ],
      "name": "Approval",
      "type": "event"
    },
    {
      "anonymous": false,
      "inputs": [
        {
          "indexed": true,
          "internalType": "address",
          "name": "previousOwner",
          "type": "address"
        },
        {
          "indexed": true,
          "internalType": "address",
          "name": "newOwner",
          "type": "address"
        }
      ],
      "name": "OwnershipTransferred",
      "type": "event"
    },
    {
      "anonymous": false,
      "inputs": [
        {
          "indexed": true,
          "internalType": "address",
          "name": "user",
          "type": "address"
        },
        {
          "indexed": true,
          "internalType": "address",
          "name": "referrer",
          "type": "address"
        }
      ],
      "name": "ReferrerSet",
      "type": "event"
    },
    {
      "anonymous": false,
      "inputs": [
        {
          "indexed": true,
          "internalType": "address",
          "name": "from",
          "type": "address"
        },
        {
          "indexed": false,
          "internalType": "uint256",
          "name": "totalTax",
          "type": "uint256"
        },
        {
          "indexed": false,
          "internalType": "uint256",
          "name": "nodeDividend",
          "type": "uint256"
        },
        {
          "indexed": false,
          "internalType": "uint256",
          "name": "operations",
          "type": "uint256"
        },
        {
          "indexed": false,
          "internalType": "uint256",
          "name": "marketMaker",
          "type": "uint256"
        },
        {
          "indexed": false,
          "internalType": "uint256",
          "name": "burned",
          "type": "uint256"
        },
        {
          "indexed": false,
          "internalType": "uint256",
          "name": "levelReward",
          "type": "uint256"
        },
        {
          "indexed": false,
          "internalType": "uint256",
          "name": "directReferral",
          "type": "uint256"
        },
        {
          "indexed": false,
          "internalType": "uint256",
          "name": "liquidityReturn",
          "type": "uint256"
        }
      ],
      "name": "TaxDistributed",
      "type": "event"
    },
    {
      "anonymous": false,
      "inputs": [
        {
          "indexed": false,
          "internalType": "bool",
          "name": "enabled",
          "type": "bool"
        }
      ],
      "name": "TradingEnabled",
      "type": "event"
    },
    {
      "anonymous": false,
      "inputs": [
        {
          "indexed": true,
          "internalType": "address",
          "name": "from",
          "type": "address"
        },
        {
          "indexed": true,
          "internalType": "address",
          "name": "to",
          "type": "address"
        },
        {
          "indexed": false,
          "internalType": "uint256",
          "name": "value",
          "type": "uint256"
        }
      ],
      "name": "Transfer",
      "type": "event"
    },
    {
      "anonymous": false,
      "inputs": [
        {
          "indexed": false,
          "internalType": "string",
          "name": "walletType",
          "type": "string"
        },
        {
          "indexed": false,
          "internalType": "address",
          "name": "newAddress",
          "type": "address"
        }
      ],
      "name": "WalletUpdated",
      "type": "event"
    },
    {
      "inputs": [],
      "name": "BURN_RATE",
      "outputs": [
        {
          "internalType": "uint256",
          "name": "",
          "type": "uint256"
        }
      ],
      "stateMutability": "view",
      "type": "function"
    },
    {
      "inputs": [],
      "name": "MARKET_MAKER_RATE",
      "outputs": [
        {
          "internalType": "uint256",
          "name": "",
          "type": "uint256"
        }
      ],
      "stateMutability": "view",
      "type": "function"
    },
    {
      "inputs": [],
      "name": "NODE_DIVIDEND_RATE",
      "outputs": [
        {
          "internalType": "uint256",
          "name": "",
          "type": "uint256"
        }
      ],
      "stateMutability": "view",
      "type": "function"
    },
    {
      "inputs": [],
      "name": "OPERATIONS_RATE",
      "outputs": [
        {
          "internalType": "uint256",
          "name": "",
          "type": "uint256"
        }
      ],
      "stateMutability": "view",
      "type": "function"
    },
    {
      "inputs": [],
      "name": "TAX_RATE",
      "outputs": [
        {
          "internalType": "uint256",
          "name": "",
          "type": "uint256"
        }
      ],
      "stateMutability": "view",
      "type": "function"
    },
    {
      "inputs": [
        {
          "internalType": "address",
          "name": "owner",
          "type": "address"
        },
        {
          "internalType": "address",
          "name": "spender",
          "type": "address"
        }
      ],
      "name": "allowance",
      "outputs": [
        {
          "internalType": "uint256",
          "name": "",
          "type": "uint256"
        }
      ],
      "stateMutability": "view",
      "type": "function"
    },
    {
      "inputs": [
        {
          "internalType": "address",
          "name": "spender",
          "type": "address"
        },
        {
          "internalType": "uint256",
          "name": "value",
          "type": "uint256"
        }
      ],
      "name": "approve",
      "outputs": [
        {
          "internalType": "bool",
          "name": "",
          "type": "bool"
        }
      ],
      "stateMutability": "nonpayable",
      "type": "function"
    },
    {
      "inputs": [
        {
          "internalType": "address",
          "name": "account",
          "type": "address"
        }
      ],
      "name": "balanceOf",
      "outputs": [
        {
          "internalType": "uint256",
          "name": "",
          "type": "uint256"
        }
      ],
      "stateMutability": "view",
      "type": "function"
    },
    {
      "inputs": [
        {
          "internalType": "uint256",
          "name": "value",
          "type": "uint256"
        }
      ],
      "name": "burn",
      "outputs": [],
      "stateMutability": "nonpayable",
      "type": "function"
    },
    {
      "inputs": [
        {
          "internalType": "address",
          "name": "account",
          "type": "address"
        },
        {
          "internalType": "uint256",
          "name": "value",
          "type": "uint256"
        }
      ],
      "name": "burnFrom",
      "outputs": [],
      "stateMutability": "nonpayable",
      "type": "function"
    },
    {
      "inputs": [],
      "name": "decimals",
      "outputs": [
        {
          "internalType": "uint8",
          "name": "",
          "type": "uint8"
        }
      ],
      "stateMutability": "view",
      "type": "function"
    },
    {
      "inputs": [
        {
          "internalType": "address",
          "name": "",
          "type": "address"
        }
      ],
      "name": "directReferralRewards",
      "outputs": [
        {
          "internalType": "uint256",
          "name": "",
          "type": "uint256"
        }
      ],
      "stateMutability": "view",
      "type": "function"
    },
    {
      "inputs": [
        {
          "internalType": "uint256",
          "name": "amount",
          "type": "uint256"
        }
      ],
      "name": "getTaxBreakdown",
      "outputs": [
        {
          "internalType": "uint256",
          "name": "totalTax",
          "type": "uint256"
        },
        {
          "internalType": "uint256",
          "name": "nodeDividend",
          "type": "uint256"
        },
        {
          "internalType": "uint256",
          "name": "operations",
          "type": "uint256"
        },
        {
          "internalType": "uint256",
          "name": "marketMaker",
          "type": "uint256"
        },
        {
          "internalType": "uint256",
          "name": "burnAmount",
          "type": "uint256"
        },
        {
          "internalType": "uint256",
          "name": "amountAfterTax",
          "type": "uint256"
        }
      ],
      "stateMutability": "pure",
      "type": "function"
    },
    {
      "inputs": [],
      "name": "levelRewardWallet",
      "outputs": [
        {
          "internalType": "address",
          "name": "",
          "type": "address"
        }
      ],
      "stateMutability": "view",
      "type": "function"
    },
    {
      "inputs": [],
      "name": "liquidityReturnWallet",
      "outputs": [
        {
          "internalType": "address",
          "name": "",
          "type": "address"
        }
      ],
      "stateMutability": "view",
      "type": "function"
    },
    {
      "inputs": [],
      "name": "marketMakerWallet",
      "outputs": [
        {
          "internalType": "address",
          "name": "",
          "type": "address"
        }
      ],
      "stateMutability": "view",
      "type": "function"
    },
    {
      "inputs": [],
      "name": "name",
      "outputs": [
        {
          "internalType": "string",
          "name": "",
          "type": "string"
        }
      ],
      "stateMutability": "view",
      "type": "function"
    },
    {
      "inputs": [],
      "name": "nodeDividendWallet",
      "outputs": [
        {
          "internalType": "address",
          "name": "",
          "type": "address"
        }
      ],
      "stateMutability": "view",
      "type": "function"
    },
    {
      "inputs": [],
      "name": "operationsWallet",
      "outputs": [
        {
          "internalType": "address",
          "name": "",
          "type": "address"
        }
      ],
      "stateMutability": "view",
      "type": "function"
    },
    {
      "inputs": [],
      "name": "owner",
      "outputs": [
        {
          "internalType": "address",
          "name": "",
          "type": "address"
        }
      ],
      "stateMutability": "view",
      "type": "function"
    },
    {
      "inputs": [
        {
          "internalType": "address",
          "name": "token",
          "type": "address"
        },
        {
          "internalType": "uint256",
          "name": "amount",
          "type": "uint256"
        }
      ],
      "name": "recoverTokens",
      "outputs": [],
      "stateMutability": "nonpayable",
      "type": "function"
    },
    {
      "inputs": [
        {
          "internalType": "address",
          "name": "",
          "type": "address"
        }
      ],
      "name": "referrers",
      "outputs": [
        {
          "internalType": "address",
          "name": "",
          "type": "address"
        }
      ],
      "stateMutability": "view",
      "type": "function"
    },
    {
      "inputs": [],
      "name": "renounceOwnership",
      "outputs": [],
      "stateMutability": "nonpayable",
      "type": "function"
    },
    {
      "inputs": [
        {
          "internalType": "address",
          "name": "_referrer",
          "type": "address"
        }
      ],
      "name": "setReferrer",
      "outputs": [],
      "stateMutability": "nonpayable",
      "type": "function"
    },
    {
      "inputs": [
        {
          "internalType": "bool",
          "name": "_enabled",
          "type": "bool"
        }
      ],
      "name": "setTradingEnabled",
      "outputs": [],
      "stateMutability": "nonpayable",
      "type": "function"
    },
    {
      "inputs": [],
      "name": "symbol",
      "outputs": [
        {
          "internalType": "string",
          "name": "",
          "type": "string"
        }
      ],
      "stateMutability": "view",
      "type": "function"
    },
    {
      "inputs": [],
      "name": "totalSupply",
      "outputs": [
        {
          "internalType": "uint256",
          "name": "",
          "type": "uint256"
        }
      ],
      "stateMutability": "view",
      "type": "function"
    },
    {
      "inputs": [],
      "name": "tradingEnabled",
      "outputs": [
        {
          "internalType": "bool",
          "name": "",
          "type": "bool"
        }
      ],
      "stateMutability": "view",
      "type": "function"
    },
    {
      "inputs": [
        {
          "internalType": "address",
          "name": "to",
          "type": "address"
        },
        {
          "internalType": "uint256",
          "name": "amount",
          "type": "uint256"
        }
      ],
      "name": "transfer",
      "outputs": [
        {
          "internalType": "bool",
          "name": "",
          "type": "bool"
        }
      ],
      "stateMutability": "nonpayable",
      "type": "function"
    },
    {
      "inputs": [
        {
          "internalType": "address",
          "name": "from",
          "type": "address"
        },
        {
          "internalType": "address",
          "name": "to",
          "type": "address"
        },
        {
          "internalType": "uint256",
          "name": "amount",
          "type": "uint256"
        }
      ],
      "name": "transferFrom",
      "outputs": [
        {
          "internalType": "bool",
          "name": "",
          "type": "bool"
        }
      ],
      "stateMutability": "nonpayable",
      "type": "function"
    },
    {
      "inputs": [
        {
          "internalType": "address",
          "name": "newOwner",
          "type": "address"
        }
      ],
      "name": "transferOwnership",
      "outputs": [],
      "stateMutability": "nonpayable",
      "type": "function"
    },
    {
      "inputs": [
        {
          "internalType": "address",
          "name": "_nodeDividendWallet",
          "type": "address"
        },
        {
          "internalType": "address",
          "name": "_operationsWallet",
          "type": "address"
        },
        {
          "internalType": "address",
          "name": "_marketMakerWallet",
          "type": "address"
        }
      ],
      "name": "updateWallets",
      "outputs": [],
      "stateMutability": "nonpayable",
      "type": "function"
    }
  ],
  "bytecode": "0x60806040523480156200001157600080fd5b5060405162001c2938038062001c2983398101604081905262000034916200045c565b33604051806040016040528060118152602001702a3930b232a33aba3ab932902a37b5b2b760791b8152506040518060400160405280600381526020016215119560ea1b81525081600390816200008c91906200054d565b5060046200009b82826200054d565b5050506001600160a01b038116620000ce57604051631e4fbdf760e01b8152600060048201526024015b60405180910390fd5b620000d9816200027c565b5060017f9b779b17422d0df92223018b32b4d1fa46e071723d6817e2486d003becc55f00556001600160a01b038316620001565760405162461bcd60e51b815260206004820152601360248201527f496e76616c6964206e6f64652077616c6c6574000000000000000000000000006044820152606401620000c5565b6001600160a01b038216620001ae5760405162461bcd60e51b815260206004820152601960248201527f496e76616c6964206f7065726174696f6e732077616c6c6574000000000000006044820152606401620000c5565b6001600160a01b038116620002065760405162461bcd60e51b815260206004820152601b60248201527f496e76616c6964206d61726b6574206d616b65722077616c6c657400000000006044820152606401620000c5565b600680546001600160a01b038086166001600160a01b031992831617909255600780548584169083161790556008805492841692909116919091179055620002733362000251601290565b6200025e90600a6200072e565b6200026d9062a7d8c062000746565b620002ce565b50505062000776565b600580546001600160a01b038381166001600160a01b0319831681179093556040519116919082907f8be0079c531659141344cd1fd0a4f28419497f9722a3daafe3b4186f6b6457e090600090a35050565b6001600160a01b038216620002fa5760405163ec442f0560e01b815260006004820152602401620000c5565b62000308600083836200030c565b5050565b6001600160a01b0383166200033b5780600260008282546200032f919062000760565b90915550620003af9050565b6001600160a01b03831660009081526020819052604090205481811015620003905760405163391434e360e21b81526001600160a01b03851660048201526024810182905260448101839052606401620000c5565b6001600160a01b03841660009081526020819052604090209082900390555b6001600160a01b038216620003cd57600280548290039055620003ec565b6001600160a01b03821660009081526020819052604090208054820190555b816001600160a01b0316836001600160a01b03167fddf252ad1be2c89b69c2b068fc378daa952ba7f163c4a11628f55a4df523b3ef836040516200043291815260200190565b60405180910390a3505050565b80516001600160a01b03811681146200045757600080fd5b919050565b6000806000606084860312156200047257600080fd5b6200047d846200043f565b92506200048d602085016200043f565b91506200049d604085016200043f565b90509250925092565b634e487b7160e01b600052604160045260246000fd5b600181811c90821680620004d157607f821691505b602082108103620004f257634e487b7160e01b600052602260045260246000fd5b50919050565b601f82111562000548576000816000526020600020601f850160051c81016020861015620005235750805b601f850160051c820191505b8181101562000544578281556001016200052f565b5050505b505050565b81516001600160401b03811115620005695762000569620004a6565b62000581816200057a8454620004bc565b84620004f8565b602080601f831160018114620005b95760008415620005a05750858301515b600019600386901b1c1916600185901b17855562000544565b600085815260208120601f198616915b82811015620005ea57888601518255948401946001909101908401620005c9565b5085821015620006095787850151600019600388901b60f8161c191681555b5050505050600190811b01905550565b634e487b7160e01b600052601160045260246000fd5b600181815b808511156200067057816000190482111562000654576200065462000619565b808516156200066257918102915b93841c939080029062000634565b509250929050565b600082620006895750600162000728565b81620006985750600062000728565b8160018114620006b15760028114620006bc57620006dc565b600191505062000728565b60ff841115620006d057620006d062000619565b50506001821b62000728565b5060208310610133831016604e8410600b841016171562000701575081810a62000728565b6200070d83836200062f565b806000190482111562000724576200072462000619565b0290505b92915050565b60006200073f60ff84168362000678565b9392505050565b808202811582820484141762000728576200072862000619565b8082018082111562000728576200072862000619565b6114a380620007866000396000f3fe608060405234801561001057600080fd5b50600436106101f05760003560e01c80637acfe0ec1161010f578063b47e5bda116100a2578063f049c4d611610071578063f049c4d614610448578063f2fde38b14610488578063f846a885146103bb578063fd72e22a1461049b57600080fd5b8063b47e5bda146103e9578063c2e5ec04146103fc578063cee93dad146103bb578063dd62ed3e1461040f57600080fd5b806395d89b41116100de57806395d89b41146103b35780639bf81850146103bb578063a18a7bfc146103c3578063a9059cbb146103d657600080fd5b80637acfe0ec146103735780637c073e271461038657806383f170be146103995780638da5cb5b146103a257600080fd5b806342966c681161018757806364b4c7241161015657806364b4c7241461032657806370a082311461032f578063715018a61461035857806379cc67901461036057600080fd5b806342966c68146102b25780634a3b68cc146102c55780634ada218b146103065780635eccfb6d1461031357600080fd5b806318160ddd116101c357806318160ddd1461025e5780631d2e0e8f1461027057806323b872dd14610290578063313ce567146102a357600080fd5b8063069c9fae146101f557806306fdde031461020a578063095ea7b314610228578063147c9f6d1461024b575b600080fd5b6102086102033660046111f7565b6104ae565b005b610212610598565b60405161021f9190611221565b60405180910390f35b61023b6102363660046111f7565b61062a565b604051901515815260200161021f565b610208610259366004611270565b610644565b6002545b60405190815260200161021f565b61026261027e3660046112b3565b600c6020526000908152604090205481565b61023b61029e3660046112ce565b6107d9565b6040516012815260200161021f565b6102086102c036600461130a565b61088c565b6102ee6102d33660046112b3565b600b602052600090815260409020546001600160a01b031681565b6040516001600160a01b03909116815260200161021f565b600d5461023b9060ff1681565b6009546102ee906001600160a01b031681565b61026261012c81565b61026261033d3660046112b3565b6001600160a01b031660009081526020819052604090205490565b610208610899565b61020861036e3660046111f7565b6108ad565b6008546102ee906001600160a01b031681565b600a546102ee906001600160a01b031681565b61026261025881565b6005546001600160a01b03166102ee565b6102126108c2565b610262606481565b6102086103d13660046112b3565b6108d1565b61023b6103e43660046111f7565b610a1a565b6006546102ee906001600160a01b031681565b61020861040a366004611331565b610ab6565b61026261041d36600461134e565b6001600160a01b03918216600090815260016020908152604080832093909416825291909152205490565b61045b61045636600461130a565b610b05565b604080519687526020870195909552938501929092526060840152608083015260a082015260c00161021f565b6102086104963660046112b3565b610ba5565b6007546102ee906001600160a01b031681565b6104b6610be0565b6001600160a01b038216610502576005546040516001600160a01b03909116904780156108fc02916000818181858888f193505050501580156104fd573d6000803e3d6000fd5b505050565b816001600160a01b031663a9059cbb6105236005546001600160a01b031690565b6040516001600160e01b031960e084901b1681526001600160a01b039091166004820152602481018490526044016020604051808303816000875af1158015610570573d6000803e3d6000fd5b505050506040513d601f19601f820116820180604052508101906104fd9190611381565b5050565b6060600380546105a79061139e565b80601f01602080910402602001604051908101604052809291908181526020018280546105d39061139e565b80156106205780601f106105f557610100808354040283529160200191610620565b820191906000526020600020905b81548152906001019060200180831161060357829003601f168201915b5050505050905090565b600033610638818585610c0d565b60019150505b92915050565b61064c610be0565b6001600160a01b038316156106d057600680546001600160a01b0385166001600160a01b0319909116811790915560408051818152600c818301526b1b9bd919511a5d9a59195b9960a21b60608201526020810192909252517f6ff3a4003b90be84595beb5f6acb9d54f88bd3e6dd4887ca67e53dc9645465ea9181900360800190a15b6001600160a01b0382161561075257600780546001600160a01b0384166001600160a01b0319909116811790915560408051818152600a81830152696f7065726174696f6e7360b01b60608201526020810192909252517f6ff3a4003b90be84595beb5f6acb9d54f88bd3e6dd4887ca67e53dc9645465ea9181900360800190a15b6001600160a01b038116156104fd57600880546001600160a01b0383166001600160a01b0319909116811790915560408051818152600b818301526a36b0b935b2ba26b0b5b2b960a91b60608201526020810192909252517f6ff3a4003b90be84595beb5f6acb9d54f88bd3e6dd4887ca67e53dc9645465ea9181900360800190a1505050565b600d5460009060ff16806108065750336107fb6005546001600160a01b031690565b6001600160a01b0316145b61084d5760405162461bcd60e51b8152602060048201526013602482015272151c98591a5b99c81b9bdd08195b98589b1959606a1b60448201526064015b60405180910390fd5b610855610c1a565b610860843384610c36565b61086b848484610cb5565b506001610885600160008051602061144e83398151915255565b9392505050565b6108963382610ec9565b50565b6108a1610be0565b6108ab6000610eff565b565b6108b8823383610c36565b6105948282610ec9565b6060600480546105a79061139e565b6001600160a01b03811661091a5760405162461bcd60e51b815260206004820152601060248201526f24b73b30b634b2103932b332b93932b960811b6044820152606401610844565b336001600160a01b038216036109665760405162461bcd60e51b815260206004820152601160248201527021b0b73737ba103932b332b91039b2b63360791b6044820152606401610844565b336000908152600b60205260409020546001600160a01b0316156109c35760405162461bcd60e51b8152602060048201526014602482015273149959995c9c995c88185b1c9958591e481cd95d60621b6044820152606401610844565b336000818152600b602052604080822080546001600160a01b0319166001600160a01b03861690811790915590519092917f5f7165288eef601591cf549e15ff19ef9060b7f71b9c115be946fa1fe7ebf68a91a350565b600d5460009060ff1680610a47575033610a3c6005546001600160a01b031690565b6001600160a01b0316145b610a895760405162461bcd60e51b8152602060048201526013602482015272151c98591a5b99c81b9bdd08195b98589b1959606a1b6044820152606401610844565b610a91610c1a565b610a9c338484610cb5565b50600161063e600160008051602061144e83398151915255565b610abe610be0565b600d805460ff19168215159081179091556040519081527fbeda7dca7bc1b3e80b871f4818129ec73b771581f803d553aeb3484098e5f65a9060200160405180910390a150565b60008080808080612710610b1b610258896113ee565b610b259190611405565b9550612710610b3661012c886113ee565b610b409190611405565b9450612710610b506064886113ee565b610b5a9190611405565b9350612710610b6a6064886113ee565b610b749190611405565b9250612710610b846064886113ee565b610b8e9190611405565b9150610b9a8688611427565b905091939550919395565b610bad610be0565b6001600160a01b038116610bd757604051631e4fbdf760e01b815260006004820152602401610844565b61089681610eff565b6005546001600160a01b031633146108ab5760405163118cdaa760e01b8152336004820152602401610844565b6104fd8383836001610f51565b610c22611026565b600260008051602061144e83398151915255565b6001600160a01b03838116600090815260016020908152604080832093861683529290522054600019811015610caf5781811015610ca057604051637dc7a0d960e11b81526001600160a01b03841660048201526024810182905260448101839052606401610844565b610caf84848484036000610f51565b50505050565b600d5460009060ff168015610cd857506005546001600160a01b03858116911614155b8015610cf257506005546001600160a01b03848116911614155b8015610d0757506001600160a01b0384163014155b8015610d1c57506001600160a01b0383163014155b9050808015610d2b5750600082115b15610ebe576000612710610d4161012c856113ee565b610d4b9190611405565b90506000612710610d5d6064866113ee565b610d679190611405565b90506000612710610d796064876113ee565b610d839190611405565b90506000612710610d956064886113ee565b610d9f9190611405565b905060008183610daf868861143a565b610db9919061143a565b610dc3919061143a565b90508015610eb857600654610de3908a906001600160a01b031687611056565b600754610dfb908a906001600160a01b031686611056565b600854610e13908a906001600160a01b031685611056565b8115610e2357610e238983610ec9565b6000610e2f8289611427565b9050610e3c8a8a83611056565b60408051838152602081018890529081018690526060810185905260808101849052600060a0820181905260c0820181905260e08201526001600160a01b038b16907fe7f6ffcc7ed5d831b9cff3926bf86923154cf544ae127000f5eb3199a80116f1906101000160405180910390a250505050505050505050565b50505050505b610caf848484611056565b6001600160a01b038216610ef357604051634b637e8f60e11b815260006004820152602401610844565b610594826000836110b1565b600580546001600160a01b038381166001600160a01b0319831681179093556040519116919082907f8be0079c531659141344cd1fd0a4f28419497f9722a3daafe3b4186f6b6457e090600090a35050565b6001600160a01b038416610f7b5760405163e602df0560e01b815260006004820152602401610844565b6001600160a01b038316610fa557604051634a1406b160e11b815260006004820152602401610844565b6001600160a01b0380851660009081526001602090815260408083209387168352929052208290558015610caf57826001600160a01b0316846001600160a01b03167f8c5be1e5ebec7d5bd14f71427d1e84f3dd0314c0f7b2291e5b200ac8c7c3b9258460405161101891815260200190565b60405180910390a350505050565b60008051602061144e833981519152546002036108ab57604051633ee5aeb560e01b815260040160405180910390fd5b6001600160a01b03831661108057604051634b637e8f60e11b815260006004820152602401610844565b6001600160a01b0382166110aa5760405163ec442f0560e01b815260006004820152602401610844565b6104fd8383835b6001600160a01b0383166110dc5780600260008282546110d1919061143a565b9091555061114e9050565b6001600160a01b0383166000908152602081905260409020548181101561112f5760405163391434e360e21b81526001600160a01b03851660048201526024810182905260448101839052606401610844565b6001600160a01b03841660009081526020819052604090209082900390555b6001600160a01b03821661116a57600280548290039055611189565b6001600160a01b03821660009081526020819052604090208054820190555b816001600160a01b0316836001600160a01b03167fddf252ad1be2c89b69c2b068fc378daa952ba7f163c4a11628f55a4df523b3ef836040516111ce91815260200190565b60405180910390a3505050565b80356001600160a01b03811681146111f257600080fd5b919050565b6000806040838503121561120a57600080fd5b611213836111db565b946020939093013593505050565b60006020808352835180602085015260005b8181101561124f57858101830151858201604001528201611233565b506000604082860101526040601f19601f8301168501019250505092915050565b60008060006060848603121561128557600080fd5b61128e846111db565b925061129c602085016111db565b91506112aa604085016111db565b90509250925092565b6000602082840312156112c557600080fd5b610885826111db565b6000806000606084860312156112e357600080fd5b6112ec846111db565b92506112fa602085016111db565b9150604084013590509250925092565b60006020828403121561131c57600080fd5b5035919050565b801515811461089657600080fd5b60006020828403121561134357600080fd5b813561088581611323565b6000806040838503121561136157600080fd5b61136a836111db565b9150611378602084016111db565b90509250929050565b60006020828403121561139357600080fd5b815161088581611323565b600181811c908216806113b257607f821691505b6020821081036113d257634e487b7160e01b600052602260045260246000fd5b50919050565b634e487b7160e01b600052601160045260246000fd5b808202811582820484141761063e5761063e6113d8565b60008261142257634e487b7160e01b600052601260045260246000fd5b500490565b8181038181111561063e5761063e6113d8565b8082018082111561063e5761063e6113d856fe9b779b17422d0df92223018b32b4d1fa46e071723d6817e2486d003becc55f00a26469706673582212204992d1618d30ba0c68e53778c212973463c9a9af09e03432db88bf4486a5299064736f6c63430008180033",
  "linkReferences": {},
  "deployedLinkReferences": {}
}