{
  "_format": "hh-sol-artifact-1",
  "contractName": "AutoBurn",
  "sourceName": "src/AutoBurn.sol",
  "abi": [
    {
      "inputs": [
        {
          "internalType": "address",
          "name": "_tft",
          "type": "address"
        },
        {
          "internalType": "address",
          "name": "_usdt",
          "type": "address"
        },
        {
          "internalType": "address",
          "name": "_lpToken",
          "type": "address"
        }
      ],
      "stateMutability": "nonpayable",
      "type": "constructor"
    },
    {
      "inputs": [
        {
          "internalType": "address",
          "name": "owner",
          "type": "address"
        }
      ],
      "name": "OwnableInvalidOwner",
      "type": "error"
    },
    {
      "inputs": [
        {
          "internalType": "address",
          "name": "account",
          "type": "address"
        }
      ],
      "name": "OwnableUnauthorizedAccount",
      "type": "error"
    },
    {
      "inputs": [
        {
          "internalType": "address",
          "name": "token",
          "type": "address"
        }
      ],
      "name": "SafeERC20FailedOperation",
      "type": "error"
    },
    {
      "anonymous": false,
      "inputs": [
        {
          "indexed": false,
          "internalType": "uint256",
          "name": "amount",
          "type": "uint256"
        },
        {
          "indexed": false,
          "internalType": "uint256",
          "name": "tier",
          "type": "uint256"
        },
        {
          "indexed": false,
          "internalType": "uint256",
          "name": "poolSize",
          "type": "uint256"
        },
        {
          "indexed": false,
          "internalType": "uint256",
          "name": "timestamp",
          "type": "uint256"
        }
      ],
      "name": "AutoBurnExecuted",
      "type": "event"
    },
    {
      "anonymous": false,
      "inputs": [
        {
          "indexed": false,
          "internalType": "bool",
          "name": "enabled",
          "type": "bool"
        }
      ],
      "name": "AutoBurnToggled",
      "type": "event"
    },
    {
      "anonymous": false,
      "inputs": [
        {
          "indexed": false,
          "internalType": "address",
          "name": "lpToken",
          "type": "address"
        }
      ],
      "name": "LPTokenUpdated",
      "type": "event"
    },
    {
      "anonymous": false,
      "inputs": [
        {
          "indexed": true,
          "internalType": "address",
          "name": "previousOwner",
          "type": "address"
        },
        {
          "indexed": true,
          "internalType": "address",
          "name": "newOwner",
          "type": "address"
        }
      ],
      "name": "OwnershipTransferred",
      "type": "event"
    },
    {
      "inputs": [],
      "name": "BURN_ADDRESS",
      "outputs": [
        {
          "internalType": "address",
          "name": "",
          "type": "address"
        }
      ],
      "stateMutability": "view",
      "type": "function"
    },
    {
      "inputs": [],
      "name": "BURN_INTERVAL",
      "outputs": [
        {
          "internalType": "uint256",
          "name": "",
          "type": "uint256"
        }
      ],
      "stateMutability": "view",
      "type": "function"
    },
    {
      "inputs": [],
      "name": "MIN_SUPPLY",
      "outputs": [
        {
          "internalType": "uint256",
          "name": "",
          "type": "uint256"
        }
      ],
      "stateMutability": "view",
      "type": "function"
    },
    {
      "inputs": [],
      "name": "RATE_BASE",
      "outputs": [
        {
          "internalType": "uint256",
          "name": "",
          "type": "uint256"
        }
      ],
      "stateMutability": "view",
      "type": "function"
    },
    {
      "inputs": [],
      "name": "TIER_1_RATE",
      "outputs": [
        {
          "internalType": "uint256",
          "name": "",
          "type": "uint256"
        }
      ],
      "stateMutability": "view",
      "type": "function"
    },
    {
      "inputs": [],
      "name": "TIER_1_RATE_PRECISE",
      "outputs": [
        {
          "internalType": "uint256",
          "name": "",
          "type": "uint256"
        }
      ],
      "stateMutability": "view",
      "type": "function"
    },
    {
      "inputs": [],
      "name": "TIER_1_THRESHOLD",
      "outputs": [
        {
          "internalType": "uint256",
          "name": "",
          "type": "uint256"
        }
      ],
      "stateMutability": "view",
      "type": "function"
    },
    {
      "inputs": [],
      "name": "TIER_2_RATE",
      "outputs": [
        {
          "internalType": "uint256",
          "name": "",
          "type": "uint256"
        }
      ],
      "stateMutability": "view",
      "type": "function"
    },
    {
      "inputs": [],
      "name": "TIER_2_RATE_PRECISE",
      "outputs": [
        {
          "internalType": "uint256",
          "name": "",
          "type": "uint256"
        }
      ],
      "stateMutability": "view",
      "type": "function"
    },
    {
      "inputs": [],
      "name": "TIER_2_THRESHOLD",
      "outputs": [
        {
          "internalType": "uint256",
          "name": "",
          "type": "uint256"
        }
      ],
      "stateMutability": "view",
      "type": "function"
    },
    {
      "inputs": [],
      "name": "TIER_3_RATE",
      "outputs": [
        {
          "internalType": "uint256",
          "name": "",
          "type": "uint256"
        }
      ],
      "stateMutability": "view",
      "type": "function"
    },
    {
      "inputs": [],
      "name": "TIER_3_RATE_PRECISE",
      "outputs": [
        {
          "internalType": "uint256",
          "name": "",
          "type": "uint256"
        }
      ],
      "stateMutability": "view",
      "type": "function"
    },
    {
      "inputs": [],
      "name": "TIER_3_THRESHOLD",
      "outputs": [
        {
          "internalType": "uint256",
          "name": "",
          "type": "uint256"
        }
      ],
      "stateMutability": "view",
      "type": "function"
    },
    {
      "inputs": [],
      "name": "TIER_4_THRESHOLD",
      "outputs": [
        {
          "internalType": "uint256",
          "name": "",
          "type": "uint256"
        }
      ],
      "stateMutability": "view",
      "type": "function"
    },
    {
      "inputs": [],
      "name": "autoBurnEnabled",
      "outputs": [
        {
          "internalType": "bool",
          "name": "",
          "type": "bool"
        }
      ],
      "stateMutability": "view",
      "type": "function"
    },
    {
      "inputs": [],
      "name": "burnCount",
      "outputs": [
        {
          "internalType": "uint256",
          "name": "",
          "type": "uint256"
        }
      ],
      "stateMutability": "view",
      "type": "function"
    },
    {
      "inputs": [],
      "name": "canExecuteBurn",
      "outputs": [
        {
          "internalType": "bool",
          "name": "",
          "type": "bool"
        }
      ],
      "stateMutability": "view",
      "type": "function"
    },
    {
      "inputs": [
        {
          "internalType": "uint256",
          "name": "amount",
          "type": "uint256"
        }
      ],
      "name": "depositForBurn",
      "outputs": [],
      "stateMutability": "nonpayable",
      "type": "function"
    },
    {
      "inputs": [
        {
          "internalType": "address",
          "name": "token",
          "type": "address"
        },
        {
          "internalType": "uint256",
          "name": "amount",
          "type": "uint256"
        }
      ],
      "name": "emergencyWithdraw",
      "outputs": [],
      "stateMutability": "nonpayable",
      "type": "function"
    },
    {
      "inputs": [],
      "name": "executeAutoBurn",
      "outputs": [],
      "stateMutability": "nonpayable",
      "type": "function"
    },
    {
      "inputs": [],
      "name": "getBurnStats",
      "outputs": [
        {
          "internalType": "uint256",
          "name": "_totalBurned",
          "type": "uint256"
        },
        {
          "internalType": "uint256",
          "name": "_burnCount",
          "type": "uint256"
        },
        {
          "internalType": "uint256",
          "name": "_lastBurnTime",
          "type": "uint256"
        },
        {
          "internalType": "uint256",
          "name": "_nextBurnTime",
          "type": "uint256"
        },
        {
          "internalType": "uint256",
          "name": "_currentSupply",
          "type": "uint256"
        },
        {
          "internalType": "uint256",
          "name": "_supplyUntilMin",
          "type": "uint256"
        }
      ],
      "stateMutability": "view",
      "type": "function"
    },
    {
      "inputs": [],
      "name": "getCurrentTierInfo",
      "outputs": [
        {
          "internalType": "uint256",
          "name": "tier",
          "type": "uint256"
        },
        {
          "internalType": "uint256",
          "name": "rate",
          "type": "uint256"
        },
        {
          "internalType": "uint256",
          "name": "poolSize",
          "type": "uint256"
        },
        {
          "internalType": "uint256",
          "name": "nextTierThreshold",
          "type": "uint256"
        },
        {
          "internalType": "uint256",
          "name": "burnAmountIfExecuted",
          "type": "uint256"
        }
      ],
      "stateMutability": "view",
      "type": "function"
    },
    {
      "inputs": [],
      "name": "getTierConfig",
      "outputs": [
        {
          "internalType": "uint256",
          "name": "tier1Threshold",
          "type": "uint256"
        },
        {
          "internalType": "uint256",
          "name": "tier2Threshold",
          "type": "uint256"
        },
        {
          "internalType": "uint256",
          "name": "tier3Threshold",
          "type": "uint256"
        },
        {
          "internalType": "uint256",
          "name": "tier4Threshold",
          "type": "uint256"
        },
        {
          "internalType": "uint256",
          "name": "tier1Rate",
          "type": "uint256"
        },
        {
          "internalType": "uint256",
          "name": "tier2Rate",
          "type": "uint256"
        },
        {
          "internalType": "uint256",
          "name": "tier3Rate",
          "type": "uint256"
        }
      ],
      "stateMutability": "pure",
      "type": "function"
    },
    {
      "inputs": [],
      "name": "lastBurnTime",
      "outputs": [
        {
          "internalType": "uint256",
          "name": "",
          "type": "uint256"
        }
      ],
      "stateMutability": "view",
      "type": "function"
    },
    {
      "inputs": [],
      "name": "lpToken",
      "outputs": [
        {
          "internalType": "address",
          "name": "",
          "type": "address"
        }
      ],
      "stateMutability": "view",
      "type": "function"
    },
    {
      "inputs": [
        {
          "internalType": "uint256",
          "name": "amount",
          "type": "uint256"
        }
      ],
      "name": "manualBurn",
      "outputs": [],
      "stateMutability": "nonpayable",
      "type": "function"
    },
    {
      "inputs": [],
      "name": "owner",
      "outputs": [
        {
          "internalType": "address",
          "name": "",
          "type": "address"
        }
      ],
      "stateMutability": "view",
      "type": "function"
    },
    {
      "inputs": [],
      "name": "renounceOwnership",
      "outputs": [],
      "stateMutability": "nonpayable",
      "type": "function"
    },
    {
      "inputs": [
        {
          "internalType": "bool",
          "name": "_enabled",
          "type": "bool"
        }
      ],
      "name": "setAutoBurnEnabled",
      "outputs": [],
      "stateMutability": "nonpayable",
      "type": "function"
    },
    {
      "inputs": [
        {
          "internalType": "address",
          "name": "_lpToken",
          "type": "address"
        }
      ],
      "name": "setLPToken",
      "outputs": [],
      "stateMutability": "nonpayable",
      "type": "function"
    },
    {
      "inputs": [],
      "name": "tft",
      "outputs": [
        {
          "internalType": "contract IERC20",
          "name": "",
          "type": "address"
        }
      ],
      "stateMutability": "view",
      "type": "function"
    },
    {
      "inputs": [],
      "name": "totalBurned",
      "outputs": [
        {
          "internalType": "uint256",
          "name": "",
          "type": "uint256"
        }
      ],
      "stateMutability": "view",
      "type": "function"
    },
    {
      "inputs": [
        {
          "internalType": "address",
          "name": "newOwner",
          "type": "address"
        }
      ],
      "name": "transferOwnership",
      "outputs": [],
      "stateMutability": "nonpayable",
      "type": "function"
    },
    {
      "inputs": [],
      "name": "usdt",
      "outputs": [
        {
          "internalType": "contract IERC20",
          "name": "",
          "type": "address"
        }
      ],
      "stateMutability": "view",
      "type": "function"
    }
  ],
  "bytecode": "0x60c06040526005805460ff191660011790553480156200001e57600080fd5b5060405162001670380380620016708339810160408190526200004191620001c1565b33806200006957604051631e4fbdf760e01b8152600060048201526024015b60405180910390fd5b620000748162000154565b506001600160a01b038316620000cd5760405162461bcd60e51b815260206004820152601360248201527f496e76616c696420544654206164647265737300000000000000000000000000604482015260640162000060565b6001600160a01b038216620001255760405162461bcd60e51b815260206004820152601460248201527f496e76616c696420555344542061646472657373000000000000000000000000604482015260640162000060565b6001600160a01b0392831660805290821660a052600180546001600160a01b031916919092161790556200020b565b600080546001600160a01b038381166001600160a01b0319831681178455604051919092169283917f8be0079c531659141344cd1fd0a4f28419497f9722a3daafe3b4186f6b6457e09190a35050565b80516001600160a01b0381168114620001bc57600080fd5b919050565b600080600060608486031215620001d757600080fd5b620001e284620001a4565b9250620001f260208501620001a4565b91506200020260408501620001a4565b90509250925092565b60805160a0516113e46200028c6000396000818161029d0152610ff5015260008181610302015281816104ae015281816104f9015281816105be015281816106a301528181610767015281816108cb015281816109a701528181610bc401528181610cc401528181610d9601528181610e1f015261110101526113e46000f3fe608060405234801561001057600080fd5b50600436106102055760003560e01c80637b1648e21161011a578063d1316ec1116100ad578063ef2f90cf1161007c578063ef2f90cf14610440578063f2fde38b1461044d578063f576f72214610460578063fc0d78b814610490578063fccc28131461049857600080fd5b8063d1316ec1146103c0578063d89135cd14610425578063e30674491461042e578063e3113d591461043757600080fd5b8063a40e6bda116100e9578063a40e6bda146103b8578063b54dd59b146103c0578063c9793d49146103c8578063cb9ea3371461041857600080fd5b80637b1648e21461036e5780638da5cb5b1461037757806395ccea67146103885780639dd255da1461039b57600080fd5b806335917c641161019d5780635fcbd2851161016c5780635fcbd28514610324578063615e2cad1461033757806364edbf9d146103405780636a678a9c14610353578063715018a61461036657600080fd5b806335917c64146102d7578063524773ce146102e857806357eb05f3146102f15780635fbd83f4146102fd57600080fd5b80631b82f5d9116101d95780631b82f5d91461023b57806323b63585146102505780632f37ea7a146102635780632f48ab7d1461029857600080fd5b8062bb6e921461020a5780630873c6ec14610229578063130c69db146102335780631a6f9c6414610233575b600080fd5b610216640baa31550081565b6040519081526020015b60405180910390f35b610216620f424081565b610216600581565b61024e610249366004611265565b6104a1565b005b61024e61025e366004611265565b6104d9565b61026b61074a565b604080519687526020870195909552938501929092526060840152608083015260a082015260c001610220565b6102bf7f000000000000000000000000000000000000000000000000000000000000000081565b6040516001600160a01b039091168152602001610220565b610216690a968163f0a57b40000081565b61021660045481565b610216640ba43b740081565b6102bf7f000000000000000000000000000000000000000000000000000000000000000081565b6001546102bf906001600160a01b031681565b61021661138881565b61024e61034e36600461127e565b610807565b61024e6103613660046112bc565b610857565b61024e6108ad565b610216610e1081565b6000546001600160a01b03166102bf565b61024e6103963660046112d7565b6108c1565b6005546103a89060ff1681565b6040519015158152602001610220565b6103a861096a565b610216603281565b6040805165048c2739500081526501d1a94a20006020820152640baa31550091810191909152640ba43b7400606082015261138860808201526101f460a0820152603260c082015260e001610220565b6102166501d1a94a200081565b61021660035481565b61021660025481565b6102166101f481565b61021665048c2739500081565b61024e61045b3660046112bc565b610a63565b610468610a9e565b604080519586526020860194909452928401919091526060830152608082015260a001610220565b61024e610b25565b6102bf61dead81565b6104d66001600160a01b037f000000000000000000000000000000000000000000000000000000000000000016333084610ed4565b50565b6104e1610f10565b6040516370a0823160e01b81523060048201526000907f00000000000000000000000000000000000000000000000000000000000000006001600160a01b0316906370a0823190602401602060405180830381865afa158015610548573d6000803e3d6000fd5b505050506040513d601f19601f8201168201806040525081019061056c9190611301565b9050818110156105ba5760405162461bcd60e51b8152602060048201526014602482015273496e73756666696369656e742062616c616e636560601b60448201526064015b60405180910390fd5b60007f00000000000000000000000000000000000000000000000000000000000000006001600160a01b03166318160ddd6040518163ffffffff1660e01b8152600401602060405180830381865afa15801561061a573d6000803e3d6000fd5b505050506040513d601f19601f8201168201806040525081019061063e9190611301565b9050690a968163f0a57b4000006106558483611330565b10156106965760405162461bcd60e51b815260206004820152601060248201526f42656c6f77206d696e20737570706c7960801b60448201526064016105b1565b6106cc6001600160a01b037f00000000000000000000000000000000000000000000000000000000000000001661dead85610f3d565b82600360008282546106de9190611349565b9091555050600480549060006106f38361135c565b909155505042600281905560408051858152600060208201819052818301526060810192909252517f848e8e49be37c71ee4425ebfa5dbb93246957834441c44cada9e0ed34612bcdc9181900360800190a1505050565b60035460045460025460008080610763610e1085611349565b92507f00000000000000000000000000000000000000000000000000000000000000006001600160a01b03166318160ddd6040518163ffffffff1660e01b8152600401602060405180830381865afa1580156107c3573d6000803e3d6000fd5b505050506040513d601f19601f820116820180604052508101906107e79190611301565b91506107fd690a968163f0a57b40000083611330565b9050909192939495565b61080f610f10565b6005805460ff19168215159081179091556040519081527f78fc20422fbd33cc7aef5e4e1c182fdc815f20c1c15af2ff53e83c223017dbf8906020015b60405180910390a150565b61085f610f10565b600180546001600160a01b0319166001600160a01b0383169081179091556040519081527ff9d1c90c609623055381582a51735b38df3243eb09629a9170b15c2ab6bc07399060200161084c565b6108b5610f10565b6108bf6000610f77565b565b6108c9610f10565b7f00000000000000000000000000000000000000000000000000000000000000006001600160a01b0316826001600160a01b0316036109405760405162461bcd60e51b815260206004820152601360248201527210d85b9b9bdd081dda5d1a191c985dc8151195606a1b60448201526064016105b1565b6109666109556000546001600160a01b031690565b6001600160a01b0384169083610f3d565b5050565b60055460009060ff1661097d5750600090565b610e1060025461098d9190611349565b42101561099a5750600090565b690a968163f0a57b4000007f00000000000000000000000000000000000000000000000000000000000000006001600160a01b03166318160ddd6040518163ffffffff1660e01b8152600401602060405180830381865afa158015610a03573d6000803e3d6000fd5b505050506040513d601f19601f82011682018060405250810190610a279190611301565b11610a325750600090565b6000610a3c610fc7565b90506000610a498261106d565b509050600081118015610a5c5750600481105b9250505090565b610a6b610f10565b6001600160a01b038116610a9557604051631e4fbdf760e01b8152600060048201526024016105b1565b6104d681610f77565b6000806000806000610aae610fc7565b9250610ab98361106d565b90955093508315610ad057610acd846110df565b90505b640baa315500831015610aea57640baa3155009150610b1e565b6501d1a94a2000831015610b06576501d1a94a20009150610b1e565b65048c27395000831015610b1e5765048c2739500091505b9091929394565b60055460ff16610b6c5760405162461bcd60e51b8152602060048201526012602482015271105d5d1bc8189d5c9b88191a5cd8589b195960721b60448201526064016105b1565b610e10600254610b7c9190611349565b421015610bb75760405162461bcd60e51b8152602060048201526009602482015268546f6f206561726c7960b81b60448201526064016105b1565b690a968163f0a57b4000007f00000000000000000000000000000000000000000000000000000000000000006001600160a01b03166318160ddd6040518163ffffffff1660e01b8152600401602060405180830381865afa158015610c20573d6000803e3d6000fd5b505050506040513d601f19601f82011682018060405250810190610c449190611301565b11610c865760405162461bcd60e51b8152602060048201526012602482015271135a5b881cdd5c1c1b1e481c995858da195960721b60448201526064016105b1565b6000610c90610fc7565b9050600080610c9e8361106d565b9150915081600003610cb35750504260025550565b6000610cbe826110df565b905060007f00000000000000000000000000000000000000000000000000000000000000006001600160a01b03166318160ddd6040518163ffffffff1660e01b8152600401602060405180830381865afa158015610d20573d6000803e3d6000fd5b505050506040513d601f19601f82011682018060405250810190610d449190611301565b9050690a968163f0a57b400000610d5b8383611330565b1015610d7857610d75690a968163f0a57b40000082611330565b91505b8115610ec8576040516370a0823160e01b81523060048201526000907f00000000000000000000000000000000000000000000000000000000000000006001600160a01b0316906370a0823190602401602060405180830381865afa158015610de5573d6000803e3d6000fd5b505050506040513d601f19601f82011682018060405250810190610e099190611301565b9050828110610ec257610e486001600160a01b037f00000000000000000000000000000000000000000000000000000000000000001661dead85610f3d565b8260036000828254610e5a9190611349565b909155505060048054906000610e6f8361135c565b909155505042600281905560408051858152602081018890528082018990526060810192909252517f848e8e49be37c71ee4425ebfa5dbb93246957834441c44cada9e0ed34612bcdc9181900360800190a15b50610ecd565b426002555b5050505050565b610ee284848484600161118d565b610f0a57604051635274afe760e01b81526001600160a01b03851660048201526024016105b1565b50505050565b6000546001600160a01b031633146108bf5760405163118cdaa760e01b81523360048201526024016105b1565b610f4a83838360016111ff565b610f7257604051635274afe760e01b81526001600160a01b03841660048201526024016105b1565b505050565b600080546001600160a01b038381166001600160a01b0319831681178455604051919092169283917f8be0079c531659141344cd1fd0a4f28419497f9722a3daafe3b4186f6b6457e09190a35050565b6001546000906001600160a01b0316610fe05750600090565b6040516370a0823160e01b81523060048201527f00000000000000000000000000000000000000000000000000000000000000006001600160a01b0316906370a0823190602401602060405180830381865afa158015611044573d6000803e3d6000fd5b505050506040513d601f19601f820116820180604052508101906110689190611301565b905090565b60008065048c27395000831061108a575060019261138892509050565b6501d1a94a200083106110a457506002926101f492509050565b640baa31550083106110bc5750600392603292509050565b640ba43b740083106110d45750600492600092509050565b506000928392509050565b6040516370a0823160e01b815230600482015260009081906001600160a01b037f000000000000000000000000000000000000000000000000000000000000000016906370a0823190602401602060405180830381865afa158015611148573d6000803e3d6000fd5b505050506040513d601f19601f8201168201806040525081019061116c9190611301565b9050620f424061117c8483611375565b611186919061138c565b9392505050565b6040516323b872dd60e01b60008181526001600160a01b038781166004528616602452604485905291602083606481808c5af1925060016000511483166111ed5783831516156111e0573d6000823e3d81fd5b6000883b113d1516831692505b60405250600060605295945050505050565b60405163a9059cbb60e01b60008181526001600160a01b038616600452602485905291602083604481808b5af19250600160005114831661125957838315161561124c573d6000823e3d81fd5b6000873b113d1516831692505b60405250949350505050565b60006020828403121561127757600080fd5b5035919050565b60006020828403121561129057600080fd5b8135801515811461118657600080fd5b80356001600160a01b03811681146112b757600080fd5b919050565b6000602082840312156112ce57600080fd5b611186826112a0565b600080604083850312156112ea57600080fd5b6112f3836112a0565b946020939093013593505050565b60006020828403121561131357600080fd5b5051919050565b634e487b7160e01b600052601160045260246000fd5b818103818111156113435761134361131a565b92915050565b808201808211156113435761134361131a565b60006001820161136e5761136e61131a565b5060010190565b80820281158282048414176113435761134361131a565b6000826113a957634e487b7160e01b600052601260045260246000fd5b50049056fea2646970667358221220288e2cab0796f4b87e494b4b8a575ee25fadbbb476ab960d05738312f70abe6564736f6c63430008180033",
  "linkReferences": {},
  "deployedLinkReferences": {}
}