{
  "_format": "hh-sol-artifact-1",
  "contractName": "PredictionMarket",
  "sourceName": "src/PredictionMarket.sol",
  "abi": [
    {
      "inputs": [
        {
          "internalType": "address",
          "name": "_usdt",
          "type": "address"
        },
        {
          "internalType": "address",
          "name": "_tft",
          "type": "address"
        },
        {
          "internalType": "address",
          "name": "_insurancePool",
          "type": "address"
        },
        {
          "internalType": "address",
          "name": "_oracle",
          "type": "address"
        }
      ],
      "stateMutability": "nonpayable",
      "type": "constructor"
    },
    {
      "inputs": [
        {
          "internalType": "address",
          "name": "owner",
          "type": "address"
        }
      ],
      "name": "OwnableInvalidOwner",
      "type": "error"
    },
    {
      "inputs": [
        {
          "internalType": "address",
          "name": "account",
          "type": "address"
        }
      ],
      "name": "OwnableUnauthorizedAccount",
      "type": "error"
    },
    {
      "inputs": [],
      "name": "ReentrancyGuardReentrantCall",
      "type": "error"
    },
    {
      "inputs": [
        {
          "internalType": "address",
          "name": "token",
          "type": "address"
        }
      ],
      "name": "SafeERC20FailedOperation",
      "type": "error"
    },
    {
      "anonymous": false,
      "inputs": [
        {
          "indexed": true,
          "internalType": "address",
          "name": "user",
          "type": "address"
        },
        {
          "indexed": true,
          "internalType": "uint256",
          "name": "roundId",
          "type": "uint256"
        },
        {
          "indexed": false,
          "internalType": "uint256",
          "name": "amount",
          "type": "uint256"
        }
      ],
      "name": "BetClaimed",
      "type": "event"
    },
    {
      "anonymous": false,
      "inputs": [
        {
          "indexed": true,
          "internalType": "address",
          "name": "user",
          "type": "address"
        },
        {
          "indexed": true,
          "internalType": "uint256",
          "name": "roundId",
          "type": "uint256"
        },
        {
          "indexed": false,
          "internalType": "enum PredictionMarket.Direction",
          "name": "direction",
          "type": "uint8"
        },
        {
          "indexed": false,
          "internalType": "uint256",
          "name": "amount",
          "type": "uint256"
        },
        {
          "indexed": false,
          "internalType": "uint256",
          "name": "insuranceAmount",
          "type": "uint256"
        }
      ],
      "name": "BetPlaced",
      "type": "event"
    },
    {
      "anonymous": false,
      "inputs": [
        {
          "indexed": false,
          "internalType": "address",
          "name": "newPool",
          "type": "address"
        }
      ],
      "name": "InsurancePoolUpdated",
      "type": "event"
    },
    {
      "anonymous": false,
      "inputs": [
        {
          "indexed": false,
          "internalType": "address",
          "name": "newOracle",
          "type": "address"
        }
      ],
      "name": "OracleUpdated",
      "type": "event"
    },
    {
      "anonymous": false,
      "inputs": [
        {
          "indexed": true,
          "internalType": "address",
          "name": "previousOwner",
          "type": "address"
        },
        {
          "indexed": true,
          "internalType": "address",
          "name": "newOwner",
          "type": "address"
        }
      ],
      "name": "OwnershipTransferred",
      "type": "event"
    },
    {
      "anonymous": false,
      "inputs": [
        {
          "indexed": true,
          "internalType": "uint256",
          "name": "roundId",
          "type": "uint256"
        }
      ],
      "name": "RoundCancelled",
      "type": "event"
    },
    {
      "anonymous": false,
      "inputs": [
        {
          "indexed": true,
          "internalType": "uint256",
          "name": "roundId",
          "type": "uint256"
        },
        {
          "indexed": false,
          "internalType": "uint256",
          "name": "endPrice",
          "type": "uint256"
        },
        {
          "indexed": false,
          "internalType": "enum PredictionMarket.Direction",
          "name": "winningDirection",
          "type": "uint8"
        }
      ],
      "name": "RoundSettled",
      "type": "event"
    },
    {
      "anonymous": false,
      "inputs": [
        {
          "indexed": true,
          "internalType": "uint256",
          "name": "roundId",
          "type": "uint256"
        },
        {
          "indexed": false,
          "internalType": "uint256",
          "name": "startTime",
          "type": "uint256"
        },
        {
          "indexed": false,
          "internalType": "uint256",
          "name": "startPrice",
          "type": "uint256"
        }
      ],
      "name": "RoundStarted",
      "type": "event"
    },
    {
      "anonymous": false,
      "inputs": [
        {
          "indexed": true,
          "internalType": "address",
          "name": "user",
          "type": "address"
        },
        {
          "indexed": false,
          "internalType": "bool",
          "name": "isVIP",
          "type": "bool"
        }
      ],
      "name": "VIPStatusChanged",
      "type": "event"
    },
    {
      "inputs": [],
      "name": "FEE_RATE",
      "outputs": [
        {
          "internalType": "uint256",
          "name": "",
          "type": "uint256"
        }
      ],
      "stateMutability": "view",
      "type": "function"
    },
    {
      "inputs": [],
      "name": "INSURANCE_RATE",
      "outputs": [
        {
          "internalType": "uint256",
          "name": "",
          "type": "uint256"
        }
      ],
      "stateMutability": "view",
      "type": "function"
    },
    {
      "inputs": [],
      "name": "MIN_BET_AMOUNT",
      "outputs": [
        {
          "internalType": "uint256",
          "name": "",
          "type": "uint256"
        }
      ],
      "stateMutability": "view",
      "type": "function"
    },
    {
      "inputs": [],
      "name": "ROUND_DURATION",
      "outputs": [
        {
          "internalType": "uint256",
          "name": "",
          "type": "uint256"
        }
      ],
      "stateMutability": "view",
      "type": "function"
    },
    {
      "inputs": [
        {
          "internalType": "uint256",
          "name": "",
          "type": "uint256"
        },
        {
          "internalType": "address",
          "name": "",
          "type": "address"
        }
      ],
      "name": "bets",
      "outputs": [
        {
          "internalType": "address",
          "name": "user",
          "type": "address"
        },
        {
          "internalType": "uint256",
          "name": "roundId",
          "type": "uint256"
        },
        {
          "internalType": "enum PredictionMarket.Direction",
          "name": "direction",
          "type": "uint8"
        },
        {
          "internalType": "uint256",
          "name": "amount",
          "type": "uint256"
        },
        {
          "internalType": "uint256",
          "name": "insuranceAmount",
          "type": "uint256"
        },
        {
          "internalType": "bool",
          "name": "claimed",
          "type": "bool"
        },
        {
          "internalType": "uint256",
          "name": "claimAmount",
          "type": "uint256"
        }
      ],
      "stateMutability": "view",
      "type": "function"
    },
    {
      "inputs": [
        {
          "internalType": "uint256",
          "name": "_roundId",
          "type": "uint256"
        }
      ],
      "name": "claimBet",
      "outputs": [],
      "stateMutability": "nonpayable",
      "type": "function"
    },
    {
      "inputs": [
        {
          "internalType": "uint256",
          "name": "_roundId",
          "type": "uint256"
        }
      ],
      "name": "claimRefund",
      "outputs": [],
      "stateMutability": "nonpayable",
      "type": "function"
    },
    {
      "inputs": [],
      "name": "currentRoundId",
      "outputs": [
        {
          "internalType": "uint256",
          "name": "",
          "type": "uint256"
        }
      ],
      "stateMutability": "view",
      "type": "function"
    },
    {
      "inputs": [],
      "name": "currentRoundStartPrice",
      "outputs": [
        {
          "internalType": "uint256",
          "name": "",
          "type": "uint256"
        }
      ],
      "stateMutability": "view",
      "type": "function"
    },
    {
      "inputs": [],
      "name": "currentRoundStartTime",
      "outputs": [
        {
          "internalType": "uint256",
          "name": "",
          "type": "uint256"
        }
      ],
      "stateMutability": "view",
      "type": "function"
    },
    {
      "inputs": [],
      "name": "getCurrentRound",
      "outputs": [
        {
          "internalType": "uint256",
          "name": "roundId",
          "type": "uint256"
        },
        {
          "internalType": "uint256",
          "name": "startTime",
          "type": "uint256"
        },
        {
          "internalType": "uint256",
          "name": "endTime",
          "type": "uint256"
        },
        {
          "internalType": "uint256",
          "name": "startPrice",
          "type": "uint256"
        },
        {
          "internalType": "uint256",
          "name": "totalUpBets",
          "type": "uint256"
        },
        {
          "internalType": "uint256",
          "name": "totalDownBets",
          "type": "uint256"
        },
        {
          "internalType": "bool",
          "name": "settled",
          "type": "bool"
        }
      ],
      "stateMutability": "view",
      "type": "function"
    },
    {
      "inputs": [],
      "name": "getTimeRemaining",
      "outputs": [
        {
          "internalType": "uint256",
          "name": "",
          "type": "uint256"
        }
      ],
      "stateMutability": "view",
      "type": "function"
    },
    {
      "inputs": [
        {
          "internalType": "uint256",
          "name": "_roundId",
          "type": "uint256"
        },
        {
          "internalType": "address",
          "name": "_user",
          "type": "address"
        }
      ],
      "name": "getUserBet",
      "outputs": [
        {
          "internalType": "enum PredictionMarket.Direction",
          "name": "direction",
          "type": "uint8"
        },
        {
          "internalType": "uint256",
          "name": "amount",
          "type": "uint256"
        },
        {
          "internalType": "bool",
          "name": "claimed",
          "type": "bool"
        },
        {
          "internalType": "uint256",
          "name": "claimAmount",
          "type": "uint256"
        }
      ],
      "stateMutability": "view",
      "type": "function"
    },
    {
      "inputs": [
        {
          "internalType": "uint256",
          "name": "",
          "type": "uint256"
        },
        {
          "internalType": "address",
          "name": "",
          "type": "address"
        }
      ],
      "name": "hasBet",
      "outputs": [
        {
          "internalType": "bool",
          "name": "",
          "type": "bool"
        }
      ],
      "stateMutability": "view",
      "type": "function"
    },
    {
      "inputs": [],
      "name": "insurancePool",
      "outputs": [
        {
          "internalType": "address",
          "name": "",
          "type": "address"
        }
      ],
      "stateMutability": "view",
      "type": "function"
    },
    {
      "inputs": [],
      "name": "maxPredictionsPerRound",
      "outputs": [
        {
          "internalType": "uint256",
          "name": "",
          "type": "uint256"
        }
      ],
      "stateMutability": "view",
      "type": "function"
    },
    {
      "inputs": [],
      "name": "oracle",
      "outputs": [
        {
          "internalType": "address",
          "name": "",
          "type": "address"
        }
      ],
      "stateMutability": "view",
      "type": "function"
    },
    {
      "inputs": [],
      "name": "owner",
      "outputs": [
        {
          "internalType": "address",
          "name": "",
          "type": "address"
        }
      ],
      "stateMutability": "view",
      "type": "function"
    },
    {
      "inputs": [
        {
          "internalType": "enum PredictionMarket.Direction",
          "name": "_direction",
          "type": "uint8"
        },
        {
          "internalType": "uint256",
          "name": "_amount",
          "type": "uint256"
        }
      ],
      "name": "placeBet",
      "outputs": [],
      "stateMutability": "nonpayable",
      "type": "function"
    },
    {
      "inputs": [
        {
          "internalType": "uint256",
          "name": "",
          "type": "uint256"
        },
        {
          "internalType": "address",
          "name": "",
          "type": "address"
        }
      ],
      "name": "predictionCount",
      "outputs": [
        {
          "internalType": "uint256",
          "name": "",
          "type": "uint256"
        }
      ],
      "stateMutability": "view",
      "type": "function"
    },
    {
      "inputs": [
        {
          "internalType": "address",
          "name": "token",
          "type": "address"
        },
        {
          "internalType": "uint256",
          "name": "amount",
          "type": "uint256"
        }
      ],
      "name": "recoverTokens",
      "outputs": [],
      "stateMutability": "nonpayable",
      "type": "function"
    },
    {
      "inputs": [],
      "name": "renounceOwnership",
      "outputs": [],
      "stateMutability": "nonpayable",
      "type": "function"
    },
    {
      "inputs": [
        {
          "internalType": "uint256",
          "name": "",
          "type": "uint256"
        }
      ],
      "name": "rounds",
      "outputs": [
        {
          "internalType": "uint256",
          "name": "roundId",
          "type": "uint256"
        },
        {
          "internalType": "uint256",
          "name": "startTime",
          "type": "uint256"
        },
        {
          "internalType": "uint256",
          "name": "endTime",
          "type": "uint256"
        },
        {
          "internalType": "uint256",
          "name": "startPrice",
          "type": "uint256"
        },
        {
          "internalType": "uint256",
          "name": "endPrice",
          "type": "uint256"
        },
        {
          "internalType": "uint256",
          "name": "totalUpBets",
          "type": "uint256"
        },
        {
          "internalType": "uint256",
          "name": "totalDownBets",
          "type": "uint256"
        },
        {
          "internalType": "uint256",
          "name": "totalInsurance",
          "type": "uint256"
        },
        {
          "internalType": "bool",
          "name": "settled",
          "type": "bool"
        },
        {
          "internalType": "bool",
          "name": "cancelled",
          "type": "bool"
        },
        {
          "internalType": "enum PredictionMarket.Direction",
          "name": "winningDirection",
          "type": "uint8"
        }
      ],
      "stateMutability": "view",
      "type": "function"
    },
    {
      "inputs": [
        {
          "internalType": "address",
          "name": "_pool",
          "type": "address"
        }
      ],
      "name": "setInsurancePool",
      "outputs": [],
      "stateMutability": "nonpayable",
      "type": "function"
    },
    {
      "inputs": [
        {
          "internalType": "uint256",
          "name": "_max",
          "type": "uint256"
        }
      ],
      "name": "setMaxPredictionsPerRound",
      "outputs": [],
      "stateMutability": "nonpayable",
      "type": "function"
    },
    {
      "inputs": [
        {
          "internalType": "address",
          "name": "_oracle",
          "type": "address"
        }
      ],
      "name": "setOracle",
      "outputs": [],
      "stateMutability": "nonpayable",
      "type": "function"
    },
    {
      "inputs": [
        {
          "internalType": "uint256",
          "name": "_price",
          "type": "uint256"
        }
      ],
      "name": "setRoundStartPrice",
      "outputs": [],
      "stateMutability": "nonpayable",
      "type": "function"
    },
    {
      "inputs": [
        {
          "internalType": "address",
          "name": "_user",
          "type": "address"
        },
        {
          "internalType": "bool",
          "name": "_isVIP",
          "type": "bool"
        }
      ],
      "name": "setVIP",
      "outputs": [],
      "stateMutability": "nonpayable",
      "type": "function"
    },
    {
      "inputs": [
        {
          "internalType": "uint256",
          "name": "_endPrice",
          "type": "uint256"
        }
      ],
      "name": "settleRound",
      "outputs": [],
      "stateMutability": "nonpayable",
      "type": "function"
    },
    {
      "inputs": [],
      "name": "tft",
      "outputs": [
        {
          "internalType": "contract IERC20",
          "name": "",
          "type": "address"
        }
      ],
      "stateMutability": "view",
      "type": "function"
    },
    {
      "inputs": [
        {
          "internalType": "address",
          "name": "newOwner",
          "type": "address"
        }
      ],
      "name": "transferOwnership",
      "outputs": [],
      "stateMutability": "nonpayable",
      "type": "function"
    },
    {
      "inputs": [],
      "name": "usdt",
      "outputs": [
        {
          "internalType": "contract IERC20",
          "name": "",
          "type": "address"
        }
      ],
      "stateMutability": "view",
      "type": "function"
    },
    {
      "inputs": [
        {
          "internalType": "address",
          "name": "",
          "type": "address"
        }
      ],
      "name": "vipUsers",
      "outputs": [
        {
          "internalType": "bool",
          "name": "",
          "type": "bool"
        }
      ],
      "stateMutability": "view",
      "type": "function"
    }
  ],
  "bytecode": "0x60c06040526001600a553480156200001657600080fd5b5060405162002382380380620023828339810160408190526200003991620003fe565b33806200006157604051631e4fbdf760e01b8152600060048201526024015b60405180910390fd5b6200006c8162000231565b5060017f9b779b17422d0df92223018b32b4d1fa46e071723d6817e2486d003becc55f00556001600160a01b038416620000e95760405162461bcd60e51b815260206004820152601460248201527f496e76616c696420555344542061646472657373000000000000000000000000604482015260640162000058565b6001600160a01b038316620001415760405162461bcd60e51b815260206004820152601360248201527f496e76616c696420544654206164647265737300000000000000000000000000604482015260640162000058565b6001600160a01b038216620001995760405162461bcd60e51b815260206004820152601660248201527f496e76616c696420696e737572616e636520706f6f6c00000000000000000000604482015260640162000058565b6001600160a01b038116620001e25760405162461bcd60e51b815260206004820152600e60248201526d496e76616c6964206f7261636c6560901b604482015260640162000058565b6001600160a01b0384811660805283811660a052600180546001600160a01b031990811685841617909155600280549091169183169190911790556200022762000281565b50505050620004bf565b600080546001600160a01b038381166001600160a01b0319831681178455604051919092169283917f8be0079c531659141344cd1fd0a4f28419497f9722a3daafe3b4186f6b6457e09190a35050565b60038054906000620002938362000471565b919050555042600481905550604051806101600160405280600354815260200142815260200161012c42620002c991906200048d565b8152602001600081526020016000815260200160008152602001600081526020016000815260200160001515815260200160001515815260200160006002811115620003195762000319620004a9565b90526003805460009081526006602081815260409283902085518155908501516001820155918401516002808401919091556060850151938301939093556080840151600483015560a0840151600583015560c08401519082015560e083015160078201556101008084015160088301805461012087015161ffff1990911692151561ff0019169290921791151590920217808255610140850151929362ff0000199091169062010000908490811115620003d857620003d8620004a9565b02179055505050565b80516001600160a01b0381168114620003f957600080fd5b919050565b600080600080608085870312156200041557600080fd5b6200042085620003e1565b93506200043060208601620003e1565b92506200044060408601620003e1565b91506200045060608601620003e1565b905092959194509250565b634e487b7160e01b600052601160045260246000fd5b6000600182016200048657620004866200045b565b5060010190565b80820180821115620004a357620004a36200045b565b92915050565b634e487b7160e01b600052602160045260246000fd5b60805160a051611e816200050160003960006102e801526000818161023501528181610a0b01528181610c05015281816112d201526115550152611e816000f3fe608060405234801561001057600080fd5b50600436106101fb5760003560e01c806382626d6b1161011a578063bbc5f32b116100ad578063dac6270d1161007c578063dac6270d14610587578063dcb3b30e1461058f578063f2fde38b146105a2578063f644b3bb146105b5578063fe6464621461062f57600080fd5b8063bbc5f32b146104cf578063c03fb87c146104fa578063d2b48cd314610561578063d85a17ab1461057457600080fd5b8063a32bf597116100e9578063a32bf59714610409578063a94c487e1461047b578063ab2adc001461048e578063ae062acd146104a157600080fd5b806382626d6b1461035e5780638c65c81f146103675780638da5cb5b146103ef5780639cbe5efd1461040057600080fd5b80635b7baf641161019257806369ab300d1161016157806369ab300d1461031d578063715018a6146103305780637adbf973146103385780637dc0d1d01461034b57600080fd5b80635b7baf64146102d05780635fbd83f4146102e35780636475e3d31461030a5780636641ea081461031457600080fd5b80633e2cf8a2116101ce5780633e2cf8a214610278578063421a9ab1146102815780634a2cd884146102b45780634df86c43146102bd57600080fd5b8063069c9fae146102005780632d11c58a146102155780632f48ab7d14610230578063380dd9011461026f575b600080fd5b61021361020e366004611b16565b610642565b005b61021d60c881565b6040519081526020015b60405180910390f35b6102577f000000000000000000000000000000000000000000000000000000000000000081565b6040516001600160a01b039091168152602001610227565b61021d60045481565b61021d600a5481565b6102a461028f366004611b40565b60096020526000908152604090205460ff1681565b6040519015158152602001610227565b61021d60055481565b6102136102cb366004611b62565b61072d565b6102136102de366004611b62565b610a86565b6102577f000000000000000000000000000000000000000000000000000000000000000081565b61021d6298968081565b61021d61012c81565b61021361032b366004611b89565b610c2c565b610213610c93565b610213610346366004611b40565b610ca7565b600254610257906001600160a01b031681565b61021d6107d081565b6103d8610375366004611b62565b600660208190526000918252604090912080546001820154600283015460038401546004850154600586015496860154600787015460089097015495979496939592949193919290919060ff80821691610100810482169162010000909104168b565b6040516102279b9a99989796959493929190611bf8565b6000546001600160a01b0316610257565b61021d60035481565b6003805460009081526006602081815260409283902080546001820154600283015496830154600584015495840154600890940154875193845294830191909152948101959095526060850193909352608084019190915260a083019190915260ff16151560c082015260e001610227565b610213610489366004611b40565b610d4b565b600154610257906001600160a01b031681565b6102a46104af366004611c5e565b600860209081526000928352604080842090915290825290205460ff1681565b61021d6104dd366004611c5e565b600b60209081526000928352604080842090915290825290205481565b610551610508366004611c5e565b60009182526007602090815260408084206001600160a01b03939093168452919052902060028101546003820154600583015460069093015460ff928316949193929092169190565b6040516102279493929190611c8a565b61021361056f366004611b62565b610de6565b610213610582366004611b62565b611058565b61021d611065565b61021361059d366004611cb3565b6110ab565b6102136105b0366004611b40565b61163e565b61061c6105c3366004611c5e565b600760209081526000928352604080842090915290825290208054600182015460028301546003840154600485015460058601546006909601546001600160a01b0390951695939460ff93841694929391929091169087565b6040516102279796959493929190611cd5565b61021361063d366004611b62565b611679565b61064a611792565b6001600160a01b03821661069757600080546040516001600160a01b03909116914780156108fc02929091818181858888f19350505050158015610692573d6000803e3d6000fd5b505050565b816001600160a01b031663a9059cbb6106b86000546001600160a01b031690565b6040516001600160e01b031960e084901b1681526001600160a01b039091166004820152602481018490526044016020604051808303816000875af1158015610705573d6000803e3d6000fd5b505050506040513d601f19601f820116820180604052508101906106929190611d1e565b5050565b6107356117bf565b600081118015610746575060035481105b6107875760405162461bcd60e51b815260206004820152600d60248201526c125b9d985b1a59081c9bdd5b99609a1b60448201526064015b60405180910390fd5b6000818152600660205260409020600881015460ff166107dd5760405162461bcd60e51b8152602060048201526011602482015270149bdd5b99081b9bdd081cd95d1d1b1959607a1b604482015260640161077e565b6008810154610100900460ff16156108295760405162461bcd60e51b815260206004820152600f60248201526e149bdd5b990818d85b98d95b1b1959608a1b604482015260640161077e565b6000828152600760209081526040808320338085529252909120805490916001600160a01b039091161461088e5760405162461bcd60e51b815260206004820152600c60248201526b139bc818995d08199bdd5b9960a21b604482015260640161077e565b600581015460ff16156108d55760405162461bcd60e51b815260206004820152600f60248201526e105b1c9958591e4818db185a5b5959608a1b604482015260640161077e565b600882015460009062010000900460ff1660028111156108f7576108f7611bc0565b60028084015460ff169081111561091057610910611bc0565b036109de576000600160028085015460ff169081111561093257610932611bc0565b14610941578360060154610947565b83600501545b90506000600160028086015460ff169081111561096657610966611bc0565b1461097557846005015461097b565b84600601545b90506000828286600301546109909190611d51565b61099a9190611d6e565b905060006127106109ac60c884611d51565b6109b69190611d6e565b9050808287600301546109c99190611d90565b6109d39190611da3565b9450505050506109e2565b5060005b60058201805460ff19166001179055600682018190558015610a3257610a326001600160a01b037f00000000000000000000000000000000000000000000000000000000000000001633836117db565b604051818152849033907f67e861bf842d27ee23bdf9d3a0310493f65d83ddf63aa2d8276f49f5e234916c9060200160405180910390a3505050610a836001600080516020611e2c83398151915255565b50565b610a8e6117bf565b60008111610ace5760405162461bcd60e51b815260206004820152600d60248201526c125b9d985b1a59081c9bdd5b99609a1b604482015260640161077e565b60008181526006602052604090206008810154610100900460ff16610b2b5760405162461bcd60e51b8152602060048201526013602482015272149bdd5b99081b9bdd0818d85b98d95b1b1959606a1b604482015260640161077e565b6000828152600760209081526040808320338085529252909120805490916001600160a01b0390911614610b905760405162461bcd60e51b815260206004820152600c60248201526b139bc818995d08199bdd5b9960a21b604482015260640161077e565b600581015460ff1615610bd75760405162461bcd60e51b815260206004820152600f60248201526e105b1c9958591e4818db185a5b5959608a1b604482015260640161077e565b600381015460058201805460ff19166001179055600682018190558015610a3257610a326001600160a01b037f00000000000000000000000000000000000000000000000000000000000000001633836117db565b610c34611792565b6001600160a01b038216600081815260096020908152604091829020805460ff191685151590811790915591519182527f8897540f6ae7966d6db1da57df21c57a76b1c0c6e6afe4c3a1a288ff960adad7910160405180910390a25050565b610c9b611792565b610ca56000611810565b565b610caf611792565b6001600160a01b038116610cf65760405162461bcd60e51b815260206004820152600e60248201526d496e76616c6964206f7261636c6560901b604482015260640161077e565b600280546001600160a01b0319166001600160a01b0383169081179091556040519081527f3df77beb5db05fcdd70a30fc8adf3f83f9501b68579455adbd100b8180940394906020015b60405180910390a150565b610d53611792565b6001600160a01b038116610d985760405162461bcd60e51b815260206004820152600c60248201526b125b9d985b1a59081c1bdbdb60a21b604482015260640161077e565b600180546001600160a01b0319166001600160a01b0383169081179091556040519081527fe9c1e3beb9c8e189902322f6d6860eb1f59417b2bd7813d91132e3a3d8075ac490602001610d40565b6002546001600160a01b03163314610e2e5760405162461bcd60e51b815260206004820152600b60248201526a4f6e6c79206f7261636c6560a81b604482015260640161077e565b600060035411610e505760405162461bcd60e51b815260040161077e90611db6565b60035460009081526006602052604090206008015460ff1615610ea75760405162461bcd60e51b815260206004820152600f60248201526e105b1c9958591e481cd95d1d1b1959608a1b604482015260640161077e565b600354600090815260066020526040902060020154421015610efd5760405162461bcd60e51b815260206004820152600f60248201526e149bdd5b99081b9bdd08195b991959608a1b604482015260640161077e565b6003805460009081526006602052604090200154610f4e5760405162461bcd60e51b815260206004820152600e60248201526d4e6f20737461727420707269636560901b604482015260640161077e565b6003805460009081526006602052604090206004810183905560088101805460ff1916600117905590810154821115610fa1576008810180546001919062ff0000191662010000835b0217905550611006565b8060030154821015610fc7576008810180546002919062ff000019166201000083610f97565b60088101805462ffff0019166101001790556003546040517fbf7aeff89cf7a4c3d0145879e39aa6a19e8e64ed585090ef86bf31f4d2ae57bf90600090a25b60035460088201546040517f4694da83275700f2c021d83317e7a3f78483e769df2356ee69a42c2592a13cef9161104891869162010000900460ff1690611ddf565b60405180910390a2610729611860565b611060611792565b600a55565b60035460009081526006602052604081206002015442106110865750600090565b6003546000908152600660205260409020600201546110a6904290611da3565b905090565b6110b36117bf565b60008260028111156110c7576110c7611bc0565b036111085760405162461bcd60e51b815260206004820152601160248201527024b73b30b634b2103234b932b1ba34b7b760791b604482015260640161077e565b6298968081101561114f5760405162461bcd60e51b815260206004820152601160248201527010995b1bddc81b5a5b9a5b5d5b4818995d607a1b604482015260640161077e565b6000600354116111715760405162461bcd60e51b815260040161077e90611db6565b60035460009081526006602052604090206002015442106111c25760405162461bcd60e51b815260206004820152600b60248201526a149bdd5b9908195b99195960aa1b604482015260640161077e565b60038054600090815260066020526040902001546112165760405162461bcd60e51b8152602060048201526011602482015270149bdd5b99081b9bdd081cdd185c9d1959607a1b604482015260640161077e565b3360009081526009602052604090205460ff1661129a57600a546003546000908152600b602090815260408083203384529091529020541061129a5760405162461bcd60e51b815260206004820152601860248201527f50726564696374696f6e206c696d697420726561636865640000000000000000604482015260640161077e565b60006127106112ab6107d084611d51565b6112b59190611d6e565b905060006112c38284611da3565b90506112fa6001600160a01b037f0000000000000000000000000000000000000000000000000000000000000000163330866119b6565b60035460009081526007602090815260408083203384529091529020546001600160a01b0316611419576040805160e081018252338152600354602082015290810185600281111561134e5761134e611bc0565b81526020808201849052600060408084018290526060840182905260809093018190526003548152600782528281203382528252829020835181546001600160a01b0319166001600160a01b0390911617815590830151600180830191909155918301516002808301805493949293909260ff199091169184908111156113d7576113d7611bc0565b0217905550606082015160038201556080820151600482015560a082015160058201805460ff191691151591909117905560c09091015160069091015561144f565b60038054600090815260076020908152604080832033845290915281209091018054839290611449908490611d90565b90915550505b600184600281111561146357611463611bc0565b03611497576003546000908152600660205260408120600501805483929061148c908490611d90565b909155506114c19050565b600354600090815260066020819052604082200180548392906114bb908490611d90565b90915550505b600354600090815260066020526040812060070180548492906114e5908490611d90565b90915550506003546000908152600b60209081526040808320338452909152812080549161151283611df3565b909155505060035460009081526008602090815260408083203384529091529020805460ff1916600117905581156115dd5760015461157e906001600160a01b037f000000000000000000000000000000000000000000000000000000000000000081169116846117db565b600154604051635949a8f760e01b8152600481018490526001600160a01b0390911690635949a8f790602401600060405180830381600087803b1580156115c457600080fd5b505af11580156115d8573d6000803e3d6000fd5b505050505b600354336001600160a01b03167ffc72f5d1bbb3e58b990487d2f10e45826d574e4478301772280f7ecb1372a2c086848660405161161d93929190611e0c565b60405180910390a350506107296001600080516020611e2c83398151915255565b611646611792565b6001600160a01b03811661167057604051631e4fbdf760e01b81526000600482015260240161077e565b610a8381611810565b6002546001600160a01b031633146116c15760405162461bcd60e51b815260206004820152600b60248201526a4f6e6c79206f7261636c6560a81b604482015260640161077e565b6000600354116116e35760405162461bcd60e51b815260040161077e90611db6565b6003805460009081526006602052604090200154156117385760405162461bcd60e51b8152602060048201526011602482015270141c9a58d948185b1c9958591e481cd95d607a1b604482015260640161077e565b60038054600090815260066020908152604091829020830184905591546004548251908152928301849052917fa359b664a68acd8839e42112eb50eff3408165e15074fde89ddb58a0db2e691d910160405180910390a250565b6000546001600160a01b03163314610ca55760405163118cdaa760e01b815233600482015260240161077e565b6117c76119f2565b6002600080516020611e2c83398151915255565b6117e88383836001611a22565b61069257604051635274afe760e01b81526001600160a01b038416600482015260240161077e565b600080546001600160a01b038381166001600160a01b0319831681178455604051919092169283917f8be0079c531659141344cd1fd0a4f28419497f9722a3daafe3b4186f6b6457e09190a35050565b6003805490600061187083611df3565b919050555042600481905550604051806101600160405280600354815260200142815260200161012c426118a49190611d90565b81526020016000815260200160008152602001600081526020016000815260200160008152602001600015158152602001600015158152602001600060028111156118f1576118f1611bc0565b90526003805460009081526006602081815260409283902085518155908501516001820155918401516002808401919091556060850151938301939093556080840151600483015560a0840151600583015560c08401519082015560e083015160078201556101008084015160088301805461012087015161ffff1990911692151561ff0019169290921791151590920217808255610140850151929362ff00001990911690620100009084908111156119ad576119ad611bc0565b02179055505050565b6119c4848484846001611a88565b6119ec57604051635274afe760e01b81526001600160a01b038516600482015260240161077e565b50505050565b600080516020611e2c83398151915254600203610ca557604051633ee5aeb560e01b815260040160405180910390fd5b60405163a9059cbb60e01b60008181526001600160a01b038616600452602485905291602083604481808b5af192506001600051148316611a7c578383151615611a6f573d6000823e3d81fd5b6000873b113d1516831692505b60405250949350505050565b6040516323b872dd60e01b60008181526001600160a01b038781166004528616602452604485905291602083606481808c5af192506001600051148316611ae8578383151615611adb573d6000823e3d81fd5b6000883b113d1516831692505b60405250600060605295945050505050565b80356001600160a01b0381168114611b1157600080fd5b919050565b60008060408385031215611b2957600080fd5b611b3283611afa565b946020939093013593505050565b600060208284031215611b5257600080fd5b611b5b82611afa565b9392505050565b600060208284031215611b7457600080fd5b5035919050565b8015158114610a8357600080fd5b60008060408385031215611b9c57600080fd5b611ba583611afa565b91506020830135611bb581611b7b565b809150509250929050565b634e487b7160e01b600052602160045260246000fd5b60038110611bf457634e487b7160e01b600052602160045260246000fd5b9052565b6000610160820190508c82528b60208301528a60408301528960608301528860808301528760a08301528660c08301528560e0830152841515610100830152831515610120830152611c4e610140830184611bd6565b9c9b505050505050505050505050565b60008060408385031215611c7157600080fd5b82359150611c8160208401611afa565b90509250929050565b60808101611c988287611bd6565b60208201949094529115156040830152606090910152919050565b60008060408385031215611cc657600080fd5b823560038110611b3257600080fd5b6001600160a01b03881681526020810187905260e08101611cf96040830188611bd6565b6060820195909552608081019390935290151560a083015260c0909101529392505050565b600060208284031215611d3057600080fd5b8151611b5b81611b7b565b634e487b7160e01b600052601160045260246000fd5b8082028115828204841417611d6857611d68611d3b565b92915050565b600082611d8b57634e487b7160e01b600052601260045260246000fd5b500490565b80820180821115611d6857611d68611d3b565b81810381811115611d6857611d68611d3b565b6020808252600f908201526e139bc81858dd1a5d99481c9bdd5b99608a1b604082015260600190565b82815260408101611b5b6020830184611bd6565b600060018201611e0557611e05611d3b565b5060010190565b60608101611e1a8286611bd6565b60208201939093526040015291905056fe9b779b17422d0df92223018b32b4d1fa46e071723d6817e2486d003becc55f00a26469706673582212207f81a0da4b54ecb966c2093c0eb21e64c6ecb3b4554743d1c33070b659a6bed964736f6c63430008180033",
  "linkReferences": {},
  "deployedLinkReferences": {}
}