{
  "_format": "hh-sol-artifact-1",
  "contractName": "PredictionMarket",
  "sourceName": "src/PredictionMarket.sol",
  "abi": [
    {
      "inputs": [
        {
          "internalType": "address",
          "name": "_usdt",
          "type": "address"
        },
        {
          "internalType": "address",
          "name": "_tft",
          "type": "address"
        },
        {
          "internalType": "address",
          "name": "_insurancePool",
          "type": "address"
        },
        {
          "internalType": "address",
          "name": "_oracle",
          "type": "address"
        }
      ],
      "stateMutability": "nonpayable",
      "type": "constructor"
    },
    {
      "inputs": [
        {
          "internalType": "address",
          "name": "owner",
          "type": "address"
        }
      ],
      "name": "OwnableInvalidOwner",
      "type": "error"
    },
    {
      "inputs": [
        {
          "internalType": "address",
          "name": "account",
          "type": "address"
        }
      ],
      "name": "OwnableUnauthorizedAccount",
      "type": "error"
    },
    {
      "inputs": [],
      "name": "ReentrancyGuardReentrantCall",
      "type": "error"
    },
    {
      "inputs": [
        {
          "internalType": "address",
          "name": "token",
          "type": "address"
        }
      ],
      "name": "SafeERC20FailedOperation",
      "type": "error"
    },
    {
      "anonymous": false,
      "inputs": [
        {
          "indexed": true,
          "internalType": "address",
          "name": "user",
          "type": "address"
        },
        {
          "indexed": true,
          "internalType": "uint256",
          "name": "roundId",
          "type": "uint256"
        },
        {
          "indexed": false,
          "internalType": "uint256",
          "name": "amount",
          "type": "uint256"
        }
      ],
      "name": "BetClaimed",
      "type": "event"
    },
    {
      "anonymous": false,
      "inputs": [
        {
          "indexed": true,
          "internalType": "address",
          "name": "user",
          "type": "address"
        },
        {
          "indexed": true,
          "internalType": "uint256",
          "name": "roundId",
          "type": "uint256"
        },
        {
          "indexed": false,
          "internalType": "enum PredictionMarket.Direction",
          "name": "direction",
          "type": "uint8"
        },
        {
          "indexed": false,
          "internalType": "uint256",
          "name": "amount",
          "type": "uint256"
        },
        {
          "indexed": false,
          "internalType": "uint256",
          "name": "insuranceAmount",
          "type": "uint256"
        }
      ],
      "name": "BetPlaced",
      "type": "event"
    },
    {
      "anonymous": false,
      "inputs": [
        {
          "indexed": true,
          "internalType": "address",
          "name": "user",
          "type": "address"
        },
        {
          "indexed": true,
          "internalType": "uint256",
          "name": "roundId",
          "type": "uint256"
        },
        {
          "indexed": false,
          "internalType": "uint256",
          "name": "usdtValue",
          "type": "uint256"
        }
      ],
      "name": "InsurancePayout",
      "type": "event"
    },
    {
      "anonymous": false,
      "inputs": [
        {
          "indexed": false,
          "internalType": "address",
          "name": "newPool",
          "type": "address"
        }
      ],
      "name": "InsurancePoolUpdated",
      "type": "event"
    },
    {
      "anonymous": false,
      "inputs": [
        {
          "indexed": false,
          "internalType": "address",
          "name": "newOracle",
          "type": "address"
        }
      ],
      "name": "OracleUpdated",
      "type": "event"
    },
    {
      "anonymous": false,
      "inputs": [
        {
          "indexed": true,
          "internalType": "address",
          "name": "previousOwner",
          "type": "address"
        },
        {
          "indexed": true,
          "internalType": "address",
          "name": "newOwner",
          "type": "address"
        }
      ],
      "name": "OwnershipTransferred",
      "type": "event"
    },
    {
      "anonymous": false,
      "inputs": [
        {
          "indexed": true,
          "internalType": "uint256",
          "name": "roundId",
          "type": "uint256"
        }
      ],
      "name": "RoundCancelled",
      "type": "event"
    },
    {
      "anonymous": false,
      "inputs": [
        {
          "indexed": true,
          "internalType": "uint256",
          "name": "roundId",
          "type": "uint256"
        },
        {
          "indexed": false,
          "internalType": "uint256",
          "name": "endPrice",
          "type": "uint256"
        },
        {
          "indexed": false,
          "internalType": "enum PredictionMarket.Direction",
          "name": "winningDirection",
          "type": "uint8"
        }
      ],
      "name": "RoundSettled",
      "type": "event"
    },
    {
      "anonymous": false,
      "inputs": [
        {
          "indexed": true,
          "internalType": "uint256",
          "name": "roundId",
          "type": "uint256"
        },
        {
          "indexed": false,
          "internalType": "uint256",
          "name": "startTime",
          "type": "uint256"
        },
        {
          "indexed": false,
          "internalType": "uint256",
          "name": "startPrice",
          "type": "uint256"
        }
      ],
      "name": "RoundStarted",
      "type": "event"
    },
    {
      "anonymous": false,
      "inputs": [
        {
          "indexed": true,
          "internalType": "address",
          "name": "user",
          "type": "address"
        },
        {
          "indexed": false,
          "internalType": "bool",
          "name": "isVIP",
          "type": "bool"
        }
      ],
      "name": "VIPStatusChanged",
      "type": "event"
    },
    {
      "inputs": [],
      "name": "FEE_RATE",
      "outputs": [
        {
          "internalType": "uint256",
          "name": "",
          "type": "uint256"
        }
      ],
      "stateMutability": "view",
      "type": "function"
    },
    {
      "inputs": [],
      "name": "INSURANCE_PAYOUT_RATE",
      "outputs": [
        {
          "internalType": "uint256",
          "name": "",
          "type": "uint256"
        }
      ],
      "stateMutability": "view",
      "type": "function"
    },
    {
      "inputs": [],
      "name": "INSURANCE_RATE",
      "outputs": [
        {
          "internalType": "uint256",
          "name": "",
          "type": "uint256"
        }
      ],
      "stateMutability": "view",
      "type": "function"
    },
    {
      "inputs": [],
      "name": "MIN_BET_AMOUNT",
      "outputs": [
        {
          "internalType": "uint256",
          "name": "",
          "type": "uint256"
        }
      ],
      "stateMutability": "view",
      "type": "function"
    },
    {
      "inputs": [],
      "name": "ROUND_DURATION",
      "outputs": [
        {
          "internalType": "uint256",
          "name": "",
          "type": "uint256"
        }
      ],
      "stateMutability": "view",
      "type": "function"
    },
    {
      "inputs": [
        {
          "internalType": "uint256",
          "name": "",
          "type": "uint256"
        },
        {
          "internalType": "address",
          "name": "",
          "type": "address"
        }
      ],
      "name": "bets",
      "outputs": [
        {
          "internalType": "address",
          "name": "user",
          "type": "address"
        },
        {
          "internalType": "uint256",
          "name": "roundId",
          "type": "uint256"
        },
        {
          "internalType": "enum PredictionMarket.Direction",
          "name": "direction",
          "type": "uint8"
        },
        {
          "internalType": "uint256",
          "name": "amount",
          "type": "uint256"
        },
        {
          "internalType": "uint256",
          "name": "insuranceAmount",
          "type": "uint256"
        },
        {
          "internalType": "bool",
          "name": "claimed",
          "type": "bool"
        },
        {
          "internalType": "uint256",
          "name": "claimAmount",
          "type": "uint256"
        }
      ],
      "stateMutability": "view",
      "type": "function"
    },
    {
      "inputs": [
        {
          "internalType": "uint256",
          "name": "_roundId",
          "type": "uint256"
        }
      ],
      "name": "claimBet",
      "outputs": [],
      "stateMutability": "nonpayable",
      "type": "function"
    },
    {
      "inputs": [
        {
          "internalType": "uint256",
          "name": "_roundId",
          "type": "uint256"
        }
      ],
      "name": "claimRefund",
      "outputs": [],
      "stateMutability": "nonpayable",
      "type": "function"
    },
    {
      "inputs": [],
      "name": "currentRoundId",
      "outputs": [
        {
          "internalType": "uint256",
          "name": "",
          "type": "uint256"
        }
      ],
      "stateMutability": "view",
      "type": "function"
    },
    {
      "inputs": [],
      "name": "currentRoundStartPrice",
      "outputs": [
        {
          "internalType": "uint256",
          "name": "",
          "type": "uint256"
        }
      ],
      "stateMutability": "view",
      "type": "function"
    },
    {
      "inputs": [],
      "name": "currentRoundStartTime",
      "outputs": [
        {
          "internalType": "uint256",
          "name": "",
          "type": "uint256"
        }
      ],
      "stateMutability": "view",
      "type": "function"
    },
    {
      "inputs": [],
      "name": "getCurrentRound",
      "outputs": [
        {
          "internalType": "uint256",
          "name": "roundId",
          "type": "uint256"
        },
        {
          "internalType": "uint256",
          "name": "startTime",
          "type": "uint256"
        },
        {
          "internalType": "uint256",
          "name": "endTime",
          "type": "uint256"
        },
        {
          "internalType": "uint256",
          "name": "startPrice",
          "type": "uint256"
        },
        {
          "internalType": "uint256",
          "name": "totalUpBets",
          "type": "uint256"
        },
        {
          "internalType": "uint256",
          "name": "totalDownBets",
          "type": "uint256"
        },
        {
          "internalType": "bool",
          "name": "settled",
          "type": "bool"
        }
      ],
      "stateMutability": "view",
      "type": "function"
    },
    {
      "inputs": [],
      "name": "getTimeRemaining",
      "outputs": [
        {
          "internalType": "uint256",
          "name": "",
          "type": "uint256"
        }
      ],
      "stateMutability": "view",
      "type": "function"
    },
    {
      "inputs": [
        {
          "internalType": "uint256",
          "name": "_roundId",
          "type": "uint256"
        },
        {
          "internalType": "address",
          "name": "_user",
          "type": "address"
        }
      ],
      "name": "getUserBet",
      "outputs": [
        {
          "internalType": "enum PredictionMarket.Direction",
          "name": "direction",
          "type": "uint8"
        },
        {
          "internalType": "uint256",
          "name": "amount",
          "type": "uint256"
        },
        {
          "internalType": "bool",
          "name": "claimed",
          "type": "bool"
        },
        {
          "internalType": "uint256",
          "name": "claimAmount",
          "type": "uint256"
        }
      ],
      "stateMutability": "view",
      "type": "function"
    },
    {
      "inputs": [
        {
          "internalType": "uint256",
          "name": "",
          "type": "uint256"
        },
        {
          "internalType": "address",
          "name": "",
          "type": "address"
        }
      ],
      "name": "hasBet",
      "outputs": [
        {
          "internalType": "bool",
          "name": "",
          "type": "bool"
        }
      ],
      "stateMutability": "view",
      "type": "function"
    },
    {
      "inputs": [],
      "name": "insurancePool",
      "outputs": [
        {
          "internalType": "address",
          "name": "",
          "type": "address"
        }
      ],
      "stateMutability": "view",
      "type": "function"
    },
    {
      "inputs": [],
      "name": "maxPredictionsPerRound",
      "outputs": [
        {
          "internalType": "uint256",
          "name": "",
          "type": "uint256"
        }
      ],
      "stateMutability": "view",
      "type": "function"
    },
    {
      "inputs": [],
      "name": "oracle",
      "outputs": [
        {
          "internalType": "address",
          "name": "",
          "type": "address"
        }
      ],
      "stateMutability": "view",
      "type": "function"
    },
    {
      "inputs": [],
      "name": "owner",
      "outputs": [
        {
          "internalType": "address",
          "name": "",
          "type": "address"
        }
      ],
      "stateMutability": "view",
      "type": "function"
    },
    {
      "inputs": [
        {
          "internalType": "enum PredictionMarket.Direction",
          "name": "_direction",
          "type": "uint8"
        },
        {
          "internalType": "uint256",
          "name": "_amount",
          "type": "uint256"
        }
      ],
      "name": "placeBet",
      "outputs": [],
      "stateMutability": "nonpayable",
      "type": "function"
    },
    {
      "inputs": [
        {
          "internalType": "uint256",
          "name": "",
          "type": "uint256"
        },
        {
          "internalType": "address",
          "name": "",
          "type": "address"
        }
      ],
      "name": "predictionCount",
      "outputs": [
        {
          "internalType": "uint256",
          "name": "",
          "type": "uint256"
        }
      ],
      "stateMutability": "view",
      "type": "function"
    },
    {
      "inputs": [
        {
          "internalType": "address",
          "name": "token",
          "type": "address"
        },
        {
          "internalType": "uint256",
          "name": "amount",
          "type": "uint256"
        }
      ],
      "name": "recoverTokens",
      "outputs": [],
      "stateMutability": "nonpayable",
      "type": "function"
    },
    {
      "inputs": [],
      "name": "renounceOwnership",
      "outputs": [],
      "stateMutability": "nonpayable",
      "type": "function"
    },
    {
      "inputs": [
        {
          "internalType": "uint256",
          "name": "",
          "type": "uint256"
        }
      ],
      "name": "rounds",
      "outputs": [
        {
          "internalType": "uint256",
          "name": "roundId",
          "type": "uint256"
        },
        {
          "internalType": "uint256",
          "name": "startTime",
          "type": "uint256"
        },
        {
          "internalType": "uint256",
          "name": "endTime",
          "type": "uint256"
        },
        {
          "internalType": "uint256",
          "name": "startPrice",
          "type": "uint256"
        },
        {
          "internalType": "uint256",
          "name": "endPrice",
          "type": "uint256"
        },
        {
          "internalType": "uint256",
          "name": "totalUpBets",
          "type": "uint256"
        },
        {
          "internalType": "uint256",
          "name": "totalDownBets",
          "type": "uint256"
        },
        {
          "internalType": "uint256",
          "name": "totalInsurance",
          "type": "uint256"
        },
        {
          "internalType": "bool",
          "name": "settled",
          "type": "bool"
        },
        {
          "internalType": "bool",
          "name": "cancelled",
          "type": "bool"
        },
        {
          "internalType": "enum PredictionMarket.Direction",
          "name": "winningDirection",
          "type": "uint8"
        }
      ],
      "stateMutability": "view",
      "type": "function"
    },
    {
      "inputs": [
        {
          "internalType": "address",
          "name": "_pool",
          "type": "address"
        }
      ],
      "name": "setInsurancePool",
      "outputs": [],
      "stateMutability": "nonpayable",
      "type": "function"
    },
    {
      "inputs": [
        {
          "internalType": "uint256",
          "name": "_max",
          "type": "uint256"
        }
      ],
      "name": "setMaxPredictionsPerRound",
      "outputs": [],
      "stateMutability": "nonpayable",
      "type": "function"
    },
    {
      "inputs": [
        {
          "internalType": "address",
          "name": "_oracle",
          "type": "address"
        }
      ],
      "name": "setOracle",
      "outputs": [],
      "stateMutability": "nonpayable",
      "type": "function"
    },
    {
      "inputs": [
        {
          "internalType": "uint256",
          "name": "_price",
          "type": "uint256"
        }
      ],
      "name": "setRoundStartPrice",
      "outputs": [],
      "stateMutability": "nonpayable",
      "type": "function"
    },
    {
      "inputs": [
        {
          "internalType": "address",
          "name": "_user",
          "type": "address"
        },
        {
          "internalType": "bool",
          "name": "_isVIP",
          "type": "bool"
        }
      ],
      "name": "setVIP",
      "outputs": [],
      "stateMutability": "nonpayable",
      "type": "function"
    },
    {
      "inputs": [
        {
          "internalType": "uint256",
          "name": "_endPrice",
          "type": "uint256"
        }
      ],
      "name": "settleRound",
      "outputs": [],
      "stateMutability": "nonpayable",
      "type": "function"
    },
    {
      "inputs": [],
      "name": "tft",
      "outputs": [
        {
          "internalType": "contract IERC20",
          "name": "",
          "type": "address"
        }
      ],
      "stateMutability": "view",
      "type": "function"
    },
    {
      "inputs": [
        {
          "internalType": "address",
          "name": "newOwner",
          "type": "address"
        }
      ],
      "name": "transferOwnership",
      "outputs": [],
      "stateMutability": "nonpayable",
      "type": "function"
    },
    {
      "inputs": [],
      "name": "usdt",
      "outputs": [
        {
          "internalType": "contract IERC20",
          "name": "",
          "type": "address"
        }
      ],
      "stateMutability": "view",
      "type": "function"
    },
    {
      "inputs": [
        {
          "internalType": "address",
          "name": "",
          "type": "address"
        }
      ],
      "name": "vipUsers",
      "outputs": [
        {
          "internalType": "bool",
          "name": "",
          "type": "bool"
        }
      ],
      "stateMutability": "view",
      "type": "function"
    }
  ],
  "bytecode": "0x60c06040526001600a553480156200001657600080fd5b5060405162002475380380620024758339810160408190526200003991620003fe565b33806200006157604051631e4fbdf760e01b8152600060048201526024015b60405180910390fd5b6200006c8162000231565b5060017f9b779b17422d0df92223018b32b4d1fa46e071723d6817e2486d003becc55f00556001600160a01b038416620000e95760405162461bcd60e51b815260206004820152601460248201527f496e76616c696420555344542061646472657373000000000000000000000000604482015260640162000058565b6001600160a01b038316620001415760405162461bcd60e51b815260206004820152601360248201527f496e76616c696420544654206164647265737300000000000000000000000000604482015260640162000058565b6001600160a01b038216620001995760405162461bcd60e51b815260206004820152601660248201527f496e76616c696420696e737572616e636520706f6f6c00000000000000000000604482015260640162000058565b6001600160a01b038116620001e25760405162461bcd60e51b815260206004820152600e60248201526d496e76616c6964206f7261636c6560901b604482015260640162000058565b6001600160a01b0384811660805283811660a052600180546001600160a01b031990811685841617909155600280549091169183169190911790556200022762000281565b50505050620004bf565b600080546001600160a01b038381166001600160a01b0319831681178455604051919092169283917f8be0079c531659141344cd1fd0a4f28419497f9722a3daafe3b4186f6b6457e09190a35050565b60038054906000620002938362000471565b919050555042600481905550604051806101600160405280600354815260200142815260200161012c42620002c991906200048d565b8152602001600081526020016000815260200160008152602001600081526020016000815260200160001515815260200160001515815260200160006002811115620003195762000319620004a9565b90526003805460009081526006602081815260409283902085518155908501516001820155918401516002808401919091556060850151938301939093556080840151600483015560a0840151600583015560c08401519082015560e083015160078201556101008084015160088301805461012087015161ffff1990911692151561ff0019169290921791151590920217808255610140850151929362ff0000199091169062010000908490811115620003d857620003d8620004a9565b02179055505050565b80516001600160a01b0381168114620003f957600080fd5b919050565b600080600080608085870312156200041557600080fd5b6200042085620003e1565b93506200043060208601620003e1565b92506200044060408601620003e1565b91506200045060608601620003e1565b905092959194509250565b634e487b7160e01b600052601160045260246000fd5b6000600182016200048657620004866200045b565b5060010190565b80820180821115620004a357620004a36200045b565b92915050565b634e487b7160e01b600052602160045260246000fd5b60805160a051611f746200050160003960006102f301526000818161024001528181610afe01528181610cf8015281816113c501526116480152611f746000f3fe608060405234801561001057600080fd5b50600436106102065760003560e01c80638c65c81f1161011a578063c03fb87c116100ad578063dac6270d1161007c578063dac6270d1461059b578063dcb3b30e146105a3578063f2fde38b146105b6578063f644b3bb146105c9578063fe6464621461064357600080fd5b8063c03fb87c14610505578063cb232e741461056c578063d2b48cd314610575578063d85a17ab1461058857600080fd5b8063a94c487e116100e9578063a94c487e14610486578063ab2adc0014610499578063ae062acd146104ac578063bbc5f32b146104da57600080fd5b80638c65c81f146103725780638da5cb5b146103fa5780639cbe5efd1461040b578063a32bf5971461041457600080fd5b80635b7baf641161019d57806369ab300d1161016c57806369ab300d14610328578063715018a61461033b5780637adbf973146103435780637dc0d1d01461035657806382626d6b1461036957600080fd5b80635b7baf64146102db5780635fbd83f4146102ee5780636475e3d3146103155780636641ea081461031f57600080fd5b80633e2cf8a2116101d95780633e2cf8a214610283578063421a9ab11461028c5780634a2cd884146102bf5780634df86c43146102c857600080fd5b8063069c9fae1461020b5780632d11c58a146102205780632f48ab7d1461023b578063380dd9011461027a575b600080fd5b61021e610219366004611c09565b610656565b005b61022860c881565b6040519081526020015b60405180910390f35b6102627f000000000000000000000000000000000000000000000000000000000000000081565b6040516001600160a01b039091168152602001610232565b61022860045481565b610228600a5481565b6102af61029a366004611c33565b60096020526000908152604090205460ff1681565b6040519015158152602001610232565b61022860055481565b61021e6102d6366004611c55565b610741565b61021e6102e9366004611c55565b610b79565b6102627f000000000000000000000000000000000000000000000000000000000000000081565b610228620f424081565b61022861012c81565b61021e610336366004611c7c565b610d1f565b61021e610d86565b61021e610351366004611c33565b610d9a565b600254610262906001600160a01b031681565b6102286107d081565b6103e3610380366004611c55565b600660208190526000918252604090912080546001820154600283015460038401546004850154600586015496860154600787015460089097015495979496939592949193919290919060ff80821691610100810482169162010000909104168b565b6040516102329b9a99989796959493929190611ceb565b6000546001600160a01b0316610262565b61022860035481565b6003805460009081526006602081815260409283902080546001820154600283015496830154600584015495840154600890940154875193845294830191909152948101959095526060850193909352608084019190915260a083019190915260ff16151560c082015260e001610232565b61021e610494366004611c33565b610e3e565b600154610262906001600160a01b031681565b6102af6104ba366004611d51565b600860209081526000928352604080842090915290825290205460ff1681565b6102286104e8366004611d51565b600b60209081526000928352604080842090915290825290205481565b61055c610513366004611d51565b60009182526007602090815260408084206001600160a01b03939093168452919052902060028101546003820154600583015460069093015460ff928316949193929092169190565b6040516102329493929190611d7d565b610228610fa081565b61021e610583366004611c55565b610ed9565b61021e610596366004611c55565b61114b565b610228611158565b61021e6105b1366004611da6565b61119e565b61021e6105c4366004611c33565b611731565b6106306105d7366004611d51565b600760209081526000928352604080842090915290825290208054600182015460028301546003840154600485015460058601546006909601546001600160a01b0390951695939460ff93841694929391929091169087565b6040516102329796959493929190611dc8565b61021e610651366004611c55565b61176c565b61065e611885565b6001600160a01b0382166106ab57600080546040516001600160a01b03909116914780156108fc02929091818181858888f193505050501580156106a6573d6000803e3d6000fd5b505050565b816001600160a01b031663a9059cbb6106cc6000546001600160a01b031690565b6040516001600160e01b031960e084901b1681526001600160a01b039091166004820152602481018490526044016020604051808303816000875af1158015610719573d6000803e3d6000fd5b505050506040513d601f19601f820116820180604052508101906106a69190611e11565b5050565b6107496118b2565b60008111801561075a575060035481105b61079b5760405162461bcd60e51b815260206004820152600d60248201526c125b9d985b1a59081c9bdd5b99609a1b60448201526064015b60405180910390fd5b6000818152600660205260409020600881015460ff166107f15760405162461bcd60e51b8152602060048201526011602482015270149bdd5b99081b9bdd081cd95d1d1b1959607a1b6044820152606401610792565b6008810154610100900460ff161561083d5760405162461bcd60e51b815260206004820152600f60248201526e149bdd5b990818d85b98d95b1b1959608a1b6044820152606401610792565b6000828152600760209081526040808320338085529252909120805490916001600160a01b03909116146108a25760405162461bcd60e51b815260206004820152600c60248201526b139bc818995d08199bdd5b9960a21b6044820152606401610792565b600581015460ff16156108e95760405162461bcd60e51b815260206004820152600f60248201526e105b1c9958591e4818db185a5b5959608a1b6044820152606401610792565b600882015460009062010000900460ff16600281111561090b5761090b611cb3565b60028084015460ff169081111561092457610924611cb3565b036109f2576000600160028085015460ff169081111561094657610946611cb3565b1461095557836006015461095b565b83600501545b90506000600160028086015460ff169081111561097a5761097a611cb3565b1461098957846005015461098f565b84600601545b90506000828286600301546109a49190611e44565b6109ae9190611e61565b905060006127106109c060c884611e44565b6109ca9190611e61565b9050808287600301546109dd9190611e83565b6109e79190611e96565b945050505050610ad5565b600090506000612710610fa08460030154610a0d9190611e44565b610a179190611e61565b6001549091506001600160a01b031615801590610a345750600081115b15610ad35760015460405163572e016960e11b8152336004820152602481018390526001600160a01b039091169063ae5c02d290604401600060405180830381600087803b158015610a8557600080fd5b505af1925050508015610a96575060015b15610ad357604051818152859033907f80a376c2c8a7187d123760e27a045ec9c58bd456bfcd2c9c4b5cef51e38220199060200160405180910390a35b505b60058201805460ff19166001179055600682018190558015610b2557610b256001600160a01b037f00000000000000000000000000000000000000000000000000000000000000001633836118ce565b604051818152849033907f67e861bf842d27ee23bdf9d3a0310493f65d83ddf63aa2d8276f49f5e234916c9060200160405180910390a3505050610b766001600080516020611f1f83398151915255565b50565b610b816118b2565b60008111610bc15760405162461bcd60e51b815260206004820152600d60248201526c125b9d985b1a59081c9bdd5b99609a1b6044820152606401610792565b60008181526006602052604090206008810154610100900460ff16610c1e5760405162461bcd60e51b8152602060048201526013602482015272149bdd5b99081b9bdd0818d85b98d95b1b1959606a1b6044820152606401610792565b6000828152600760209081526040808320338085529252909120805490916001600160a01b0390911614610c835760405162461bcd60e51b815260206004820152600c60248201526b139bc818995d08199bdd5b9960a21b6044820152606401610792565b600581015460ff1615610cca5760405162461bcd60e51b815260206004820152600f60248201526e105b1c9958591e4818db185a5b5959608a1b6044820152606401610792565b600381015460058201805460ff19166001179055600682018190558015610b2557610b256001600160a01b037f00000000000000000000000000000000000000000000000000000000000000001633836118ce565b610d27611885565b6001600160a01b038216600081815260096020908152604091829020805460ff191685151590811790915591519182527f8897540f6ae7966d6db1da57df21c57a76b1c0c6e6afe4c3a1a288ff960adad7910160405180910390a25050565b610d8e611885565b610d986000611903565b565b610da2611885565b6001600160a01b038116610de95760405162461bcd60e51b815260206004820152600e60248201526d496e76616c6964206f7261636c6560901b6044820152606401610792565b600280546001600160a01b0319166001600160a01b0383169081179091556040519081527f3df77beb5db05fcdd70a30fc8adf3f83f9501b68579455adbd100b8180940394906020015b60405180910390a150565b610e46611885565b6001600160a01b038116610e8b5760405162461bcd60e51b815260206004820152600c60248201526b125b9d985b1a59081c1bdbdb60a21b6044820152606401610792565b600180546001600160a01b0319166001600160a01b0383169081179091556040519081527fe9c1e3beb9c8e189902322f6d6860eb1f59417b2bd7813d91132e3a3d8075ac490602001610e33565b6002546001600160a01b03163314610f215760405162461bcd60e51b815260206004820152600b60248201526a4f6e6c79206f7261636c6560a81b6044820152606401610792565b600060035411610f435760405162461bcd60e51b815260040161079290611ea9565b60035460009081526006602052604090206008015460ff1615610f9a5760405162461bcd60e51b815260206004820152600f60248201526e105b1c9958591e481cd95d1d1b1959608a1b6044820152606401610792565b600354600090815260066020526040902060020154421015610ff05760405162461bcd60e51b815260206004820152600f60248201526e149bdd5b99081b9bdd08195b991959608a1b6044820152606401610792565b60038054600090815260066020526040902001546110415760405162461bcd60e51b815260206004820152600e60248201526d4e6f20737461727420707269636560901b6044820152606401610792565b6003805460009081526006602052604090206004810183905560088101805460ff1916600117905590810154821115611094576008810180546001919062ff0000191662010000835b02179055506110f9565b80600301548210156110ba576008810180546002919062ff00001916620100008361108a565b60088101805462ffff0019166101001790556003546040517fbf7aeff89cf7a4c3d0145879e39aa6a19e8e64ed585090ef86bf31f4d2ae57bf90600090a25b60035460088201546040517f4694da83275700f2c021d83317e7a3f78483e769df2356ee69a42c2592a13cef9161113b91869162010000900460ff1690611ed2565b60405180910390a261073d611953565b611153611885565b600a55565b60035460009081526006602052604081206002015442106111795750600090565b600354600090815260066020526040902060020154611199904290611e96565b905090565b6111a66118b2565b60008260028111156111ba576111ba611cb3565b036111fb5760405162461bcd60e51b815260206004820152601160248201527024b73b30b634b2103234b932b1ba34b7b760791b6044820152606401610792565b620f42408110156112425760405162461bcd60e51b815260206004820152601160248201527010995b1bddc81b5a5b9a5b5d5b4818995d607a1b6044820152606401610792565b6000600354116112645760405162461bcd60e51b815260040161079290611ea9565b60035460009081526006602052604090206002015442106112b55760405162461bcd60e51b815260206004820152600b60248201526a149bdd5b9908195b99195960aa1b6044820152606401610792565b60038054600090815260066020526040902001546113095760405162461bcd60e51b8152602060048201526011602482015270149bdd5b99081b9bdd081cdd185c9d1959607a1b6044820152606401610792565b3360009081526009602052604090205460ff1661138d57600a546003546000908152600b602090815260408083203384529091529020541061138d5760405162461bcd60e51b815260206004820152601860248201527f50726564696374696f6e206c696d6974207265616368656400000000000000006044820152606401610792565b600061271061139e6107d084611e44565b6113a89190611e61565b905060006113b68284611e96565b90506113ed6001600160a01b037f000000000000000000000000000000000000000000000000000000000000000016333086611aa9565b60035460009081526007602090815260408083203384529091529020546001600160a01b031661150c576040805160e081018252338152600354602082015290810185600281111561144157611441611cb3565b81526020808201849052600060408084018290526060840182905260809093018190526003548152600782528281203382528252829020835181546001600160a01b0319166001600160a01b0390911617815590830151600180830191909155918301516002808301805493949293909260ff199091169184908111156114ca576114ca611cb3565b0217905550606082015160038201556080820151600482015560a082015160058201805460ff191691151591909117905560c090910151600690910155611542565b6003805460009081526007602090815260408083203384529091528120909101805483929061153c908490611e83565b90915550505b600184600281111561155657611556611cb3565b0361158a576003546000908152600660205260408120600501805483929061157f908490611e83565b909155506115b49050565b600354600090815260066020819052604082200180548392906115ae908490611e83565b90915550505b600354600090815260066020526040812060070180548492906115d8908490611e83565b90915550506003546000908152600b60209081526040808320338452909152812080549161160583611ee6565b909155505060035460009081526008602090815260408083203384529091529020805460ff1916600117905581156116d057600154611671906001600160a01b037f000000000000000000000000000000000000000000000000000000000000000081169116846118ce565b600154604051635949a8f760e01b8152600481018490526001600160a01b0390911690635949a8f790602401600060405180830381600087803b1580156116b757600080fd5b505af11580156116cb573d6000803e3d6000fd5b505050505b600354336001600160a01b03167ffc72f5d1bbb3e58b990487d2f10e45826d574e4478301772280f7ecb1372a2c086848660405161171093929190611eff565b60405180910390a3505061073d6001600080516020611f1f83398151915255565b611739611885565b6001600160a01b03811661176357604051631e4fbdf760e01b815260006004820152602401610792565b610b7681611903565b6002546001600160a01b031633146117b45760405162461bcd60e51b815260206004820152600b60248201526a4f6e6c79206f7261636c6560a81b6044820152606401610792565b6000600354116117d65760405162461bcd60e51b815260040161079290611ea9565b60038054600090815260066020526040902001541561182b5760405162461bcd60e51b8152602060048201526011602482015270141c9a58d948185b1c9958591e481cd95d607a1b6044820152606401610792565b60038054600090815260066020908152604091829020830184905591546004548251908152928301849052917fa359b664a68acd8839e42112eb50eff3408165e15074fde89ddb58a0db2e691d910160405180910390a250565b6000546001600160a01b03163314610d985760405163118cdaa760e01b8152336004820152602401610792565b6118ba611ae5565b6002600080516020611f1f83398151915255565b6118db8383836001611b15565b6106a657604051635274afe760e01b81526001600160a01b0384166004820152602401610792565b600080546001600160a01b038381166001600160a01b0319831681178455604051919092169283917f8be0079c531659141344cd1fd0a4f28419497f9722a3daafe3b4186f6b6457e09190a35050565b6003805490600061196383611ee6565b919050555042600481905550604051806101600160405280600354815260200142815260200161012c426119979190611e83565b81526020016000815260200160008152602001600081526020016000815260200160008152602001600015158152602001600015158152602001600060028111156119e4576119e4611cb3565b90526003805460009081526006602081815260409283902085518155908501516001820155918401516002808401919091556060850151938301939093556080840151600483015560a0840151600583015560c08401519082015560e083015160078201556101008084015160088301805461012087015161ffff1990911692151561ff0019169290921791151590920217808255610140850151929362ff0000199091169062010000908490811115611aa057611aa0611cb3565b02179055505050565b611ab7848484846001611b7b565b611adf57604051635274afe760e01b81526001600160a01b0385166004820152602401610792565b50505050565b600080516020611f1f83398151915254600203610d9857604051633ee5aeb560e01b815260040160405180910390fd5b60405163a9059cbb60e01b60008181526001600160a01b038616600452602485905291602083604481808b5af192506001600051148316611b6f578383151615611b62573d6000823e3d81fd5b6000873b113d1516831692505b60405250949350505050565b6040516323b872dd60e01b60008181526001600160a01b038781166004528616602452604485905291602083606481808c5af192506001600051148316611bdb578383151615611bce573d6000823e3d81fd5b6000883b113d1516831692505b60405250600060605295945050505050565b80356001600160a01b0381168114611c0457600080fd5b919050565b60008060408385031215611c1c57600080fd5b611c2583611bed565b946020939093013593505050565b600060208284031215611c4557600080fd5b611c4e82611bed565b9392505050565b600060208284031215611c6757600080fd5b5035919050565b8015158114610b7657600080fd5b60008060408385031215611c8f57600080fd5b611c9883611bed565b91506020830135611ca881611c6e565b809150509250929050565b634e487b7160e01b600052602160045260246000fd5b60038110611ce757634e487b7160e01b600052602160045260246000fd5b9052565b6000610160820190508c82528b60208301528a60408301528960608301528860808301528760a08301528660c08301528560e0830152841515610100830152831515610120830152611d41610140830184611cc9565b9c9b505050505050505050505050565b60008060408385031215611d6457600080fd5b82359150611d7460208401611bed565b90509250929050565b60808101611d8b8287611cc9565b60208201949094529115156040830152606090910152919050565b60008060408385031215611db957600080fd5b823560038110611c2557600080fd5b6001600160a01b03881681526020810187905260e08101611dec6040830188611cc9565b6060820195909552608081019390935290151560a083015260c0909101529392505050565b600060208284031215611e2357600080fd5b8151611c4e81611c6e565b634e487b7160e01b600052601160045260246000fd5b8082028115828204841417611e5b57611e5b611e2e565b92915050565b600082611e7e57634e487b7160e01b600052601260045260246000fd5b500490565b80820180821115611e5b57611e5b611e2e565b81810381811115611e5b57611e5b611e2e565b6020808252600f908201526e139bc81858dd1a5d99481c9bdd5b99608a1b604082015260600190565b82815260408101611c4e6020830184611cc9565b600060018201611ef857611ef8611e2e565b5060010190565b60608101611f0d8286611cc9565b60208201939093526040015291905056fe9b779b17422d0df92223018b32b4d1fa46e071723d6817e2486d003becc55f00a264697066735822122055c8399a4d3fcf6032da121dd3141dfe2539c7f152f28938fef98d19477800d164736f6c63430008180033",
  "linkReferences": {},
  "deployedLinkReferences": {}
}